{
	"assessment3/ReputationCalculation.sol": {
		"ReputationCalculation": {
			"abi": [
				{
					"inputs": [],
					"stateMutability": "nonpayable",
					"type": "constructor"
				},
				{
					"anonymous": false,
					"inputs": [
						{
							"indexed": true,
							"internalType": "uint256",
							"name": "orgId",
							"type": "uint256"
						},
						{
							"indexed": true,
							"internalType": "uint256",
							"name": "userId",
							"type": "uint256"
						},
						{
							"indexed": false,
							"internalType": "uint256",
							"name": "score",
							"type": "uint256"
						}
					],
					"name": "ScoreAdded",
					"type": "event"
				},
				{
					"anonymous": false,
					"inputs": [
						{
							"indexed": true,
							"internalType": "uint256",
							"name": "orgId",
							"type": "uint256"
						},
						{
							"indexed": true,
							"internalType": "uint256",
							"name": "userId",
							"type": "uint256"
						},
						{
							"indexed": false,
							"internalType": "uint256",
							"name": "oldScore",
							"type": "uint256"
						},
						{
							"indexed": false,
							"internalType": "uint256",
							"name": "newScore",
							"type": "uint256"
						}
					],
					"name": "ScoreUpdated",
					"type": "event"
				},
				{
					"inputs": [],
					"name": "complaintRegistry",
					"outputs": [
						{
							"internalType": "address",
							"name": "",
							"type": "address"
						}
					],
					"stateMutability": "view",
					"type": "function"
				},
				{
					"inputs": [
						{
							"internalType": "uint256",
							"name": "orgId",
							"type": "uint256"
						}
					],
					"name": "getScore",
					"outputs": [
						{
							"internalType": "uint256",
							"name": "",
							"type": "uint256"
						}
					],
					"stateMutability": "view",
					"type": "function"
				},
				{
					"inputs": [
						{
							"internalType": "uint256",
							"name": "",
							"type": "uint256"
						},
						{
							"internalType": "uint256",
							"name": "",
							"type": "uint256"
						}
					],
					"name": "hasRated",
					"outputs": [
						{
							"internalType": "bool",
							"name": "",
							"type": "bool"
						}
					],
					"stateMutability": "view",
					"type": "function"
				},
				{
					"inputs": [
						{
							"internalType": "uint256",
							"name": "",
							"type": "uint256"
						}
					],
					"name": "reviewCount",
					"outputs": [
						{
							"internalType": "uint256",
							"name": "",
							"type": "uint256"
						}
					],
					"stateMutability": "view",
					"type": "function"
				},
				{
					"inputs": [
						{
							"internalType": "uint256",
							"name": "",
							"type": "uint256"
						}
					],
					"name": "totalScore",
					"outputs": [
						{
							"internalType": "uint256",
							"name": "",
							"type": "uint256"
						}
					],
					"stateMutability": "view",
					"type": "function"
				},
				{
					"inputs": [
						{
							"internalType": "uint256",
							"name": "orgId",
							"type": "uint256"
						},
						{
							"internalType": "uint256",
							"name": "userId",
							"type": "uint256"
						},
						{
							"internalType": "uint256",
							"name": "score",
							"type": "uint256"
						}
					],
					"name": "updateScore",
					"outputs": [],
					"stateMutability": "nonpayable",
					"type": "function"
				},
				{
					"inputs": [
						{
							"internalType": "uint256",
							"name": "",
							"type": "uint256"
						},
						{
							"internalType": "uint256",
							"name": "",
							"type": "uint256"
						}
					],
					"name": "userRating",
					"outputs": [
						{
							"internalType": "uint256",
							"name": "",
							"type": "uint256"
						}
					],
					"stateMutability": "view",
					"type": "function"
				}
			],
			"devdoc": {
				"kind": "dev",
				"methods": {},
				"version": 1
			},
			"evm": {
				"assembly": "    /* \"assessment3/ReputationCalculation.sol\":96:2044  contract ReputationCalculation {... */\n  mstore(0x40, 0x80)\n    /* \"assessment3/ReputationCalculation.sol\":751:814  constructor() {... */\n  callvalue\n  dup1\n  iszero\n  tag_1\n  jumpi\n  revert(0x00, 0x00)\ntag_1:\n  pop\n    /* \"assessment3/ReputationCalculation.sol\":796:806  msg.sender */\n  caller\n    /* \"assessment3/ReputationCalculation.sol\":776:793  complaintRegistry */\n  0x00\n  0x00\n    /* \"assessment3/ReputationCalculation.sol\":776:806  complaintRegistry = msg.sender */\n  0x0100\n  exp\n  dup2\n  sload\n  dup2\n  0xffffffffffffffffffffffffffffffffffffffff\n  mul\n  not\n  and\n  swap1\n  dup4\n  0xffffffffffffffffffffffffffffffffffffffff\n  and\n  mul\n  or\n  swap1\n  sstore\n  pop\n    /* \"assessment3/ReputationCalculation.sol\":96:2044  contract ReputationCalculation {... */\n  dataSize(sub_0)\n  dup1\n  dataOffset(sub_0)\n  0x00\n  codecopy\n  0x00\n  return\nstop\n\nsub_0: assembly {\n        /* \"assessment3/ReputationCalculation.sol\":96:2044  contract ReputationCalculation {... */\n      mstore(0x40, 0x80)\n      callvalue\n      dup1\n      iszero\n      tag_1\n      jumpi\n      revert(0x00, 0x00)\n    tag_1:\n      pop\n      jumpi(tag_2, lt(calldatasize, 0x04))\n      shr(0xe0, calldataload(0x00))\n      dup1\n      0x6061eec4\n      gt\n      tag_10\n      jumpi\n      dup1\n      0x6061eec4\n      eq\n      tag_6\n      jumpi\n      dup1\n      0x7bdb43ae\n      eq\n      tag_7\n      jumpi\n      dup1\n      0x98413f5d\n      eq\n      tag_8\n      jumpi\n      dup1\n      0xff595f78\n      eq\n      tag_9\n      jumpi\n      jump(tag_2)\n    tag_10:\n      dup1\n      0x0e1af57b\n      eq\n      tag_3\n      jumpi\n      dup1\n      0x3f0a92fb\n      eq\n      tag_4\n      jumpi\n      dup1\n      0x4f0961e4\n      eq\n      tag_5\n      jumpi\n    tag_2:\n      revert(0x00, 0x00)\n        /* \"assessment3/ReputationCalculation.sol\":1834:2007  function getScore(uint orgId) public view returns (uint) {... */\n    tag_3:\n      tag_11\n      0x04\n      dup1\n      calldatasize\n      sub\n      dup2\n      add\n      swap1\n      tag_12\n      swap2\n      swap1\n      tag_13\n      jump\t// in\n    tag_12:\n      tag_14\n      jump\t// in\n    tag_11:\n      mload(0x40)\n      tag_15\n      swap2\n      swap1\n      tag_16\n      jump\t// in\n    tag_15:\n      mload(0x40)\n      dup1\n      swap2\n      sub\n      swap1\n      return\n        /* \"assessment3/ReputationCalculation.sol\":1149:1761  function updateScore(uint orgId, uint256 userId, uint score) public onlyComplaintRegistry {... */\n    tag_4:\n      tag_17\n      0x04\n      dup1\n      calldatasize\n      sub\n      dup2\n      add\n      swap1\n      tag_18\n      swap2\n      swap1\n      tag_19\n      jump\t// in\n    tag_18:\n      tag_20\n      jump\t// in\n    tag_17:\n      stop\n        /* \"assessment3/ReputationCalculation.sol\":134:166  address public complaintRegistry */\n    tag_5:\n      tag_21\n      tag_22\n      jump\t// in\n    tag_21:\n      mload(0x40)\n      tag_23\n      swap2\n      swap1\n      tag_24\n      jump\t// in\n    tag_23:\n      mload(0x40)\n      dup1\n      swap2\n      sub\n      swap1\n      return\n        /* \"assessment3/ReputationCalculation.sol\":221:261  mapping(uint => uint) public reviewCount */\n    tag_6:\n      tag_25\n      0x04\n      dup1\n      calldatasize\n      sub\n      dup2\n      add\n      swap1\n      tag_26\n      swap2\n      swap1\n      tag_13\n      jump\t// in\n    tag_26:\n      tag_27\n      jump\t// in\n    tag_25:\n      mload(0x40)\n      tag_28\n      swap2\n      swap1\n      tag_16\n      jump\t// in\n    tag_28:\n      mload(0x40)\n      dup1\n      swap2\n      sub\n      swap1\n      return\n        /* \"assessment3/ReputationCalculation.sol\":268:328  mapping(uint256 => mapping(uint256 => bool)) public hasRated */\n    tag_7:\n      tag_29\n      0x04\n      dup1\n      calldatasize\n      sub\n      dup2\n      add\n      swap1\n      tag_30\n      swap2\n      swap1\n      tag_31\n      jump\t// in\n    tag_30:\n      tag_32\n      jump\t// in\n    tag_29:\n      mload(0x40)\n      tag_33\n      swap2\n      swap1\n      tag_34\n      jump\t// in\n    tag_33:\n      mload(0x40)\n      dup1\n      swap2\n      sub\n      swap1\n      return\n        /* \"assessment3/ReputationCalculation.sol\":335:400  mapping(uint256 => mapping(uint256 => uint256)) public userRating */\n    tag_8:\n      tag_35\n      0x04\n      dup1\n      calldatasize\n      sub\n      dup2\n      add\n      swap1\n      tag_36\n      swap2\n      swap1\n      tag_31\n      jump\t// in\n    tag_36:\n      tag_37\n      jump\t// in\n    tag_35:\n      mload(0x40)\n      tag_38\n      swap2\n      swap1\n      tag_16\n      jump\t// in\n    tag_38:\n      mload(0x40)\n      dup1\n      swap2\n      sub\n      swap1\n      return\n        /* \"assessment3/ReputationCalculation.sol\":175:214  mapping(uint => uint) public totalScore */\n    tag_9:\n      tag_39\n      0x04\n      dup1\n      calldatasize\n      sub\n      dup2\n      add\n      swap1\n      tag_40\n      swap2\n      swap1\n      tag_13\n      jump\t// in\n    tag_40:\n      tag_41\n      jump\t// in\n    tag_39:\n      mload(0x40)\n      tag_42\n      swap2\n      swap1\n      tag_16\n      jump\t// in\n    tag_42:\n      mload(0x40)\n      dup1\n      swap2\n      sub\n      swap1\n      return\n        /* \"assessment3/ReputationCalculation.sol\":1834:2007  function getScore(uint orgId) public view returns (uint) {... */\n    tag_14:\n        /* \"assessment3/ReputationCalculation.sol\":1885:1889  uint */\n      0x00\n        /* \"assessment3/ReputationCalculation.sol\":1928:1929  0 */\n      0x00\n        /* \"assessment3/ReputationCalculation.sol\":1906:1917  reviewCount */\n      0x02\n        /* \"assessment3/ReputationCalculation.sol\":1906:1924  reviewCount[orgId] */\n      0x00\n        /* \"assessment3/ReputationCalculation.sol\":1918:1923  orgId */\n      dup5\n        /* \"assessment3/ReputationCalculation.sol\":1906:1924  reviewCount[orgId] */\n      dup2\n      mstore\n      0x20\n      add\n      swap1\n      dup2\n      mstore\n      0x20\n      add\n      0x00\n      keccak256\n      sload\n        /* \"assessment3/ReputationCalculation.sol\":1906:1929  reviewCount[orgId] == 0 */\n      sub\n        /* \"assessment3/ReputationCalculation.sol\":1902:1944  if (reviewCount[orgId] == 0) { return 0; } */\n      tag_44\n      jumpi\n        /* \"assessment3/ReputationCalculation.sol\":1940:1941  0 */\n      0x00\n        /* \"assessment3/ReputationCalculation.sol\":1933:1941  return 0 */\n      swap1\n      pop\n      jump(tag_43)\n        /* \"assessment3/ReputationCalculation.sol\":1902:1944  if (reviewCount[orgId] == 0) { return 0; } */\n    tag_44:\n        /* \"assessment3/ReputationCalculation.sol\":1981:1992  reviewCount */\n      0x02\n        /* \"assessment3/ReputationCalculation.sol\":1981:1999  reviewCount[orgId] */\n      0x00\n        /* \"assessment3/ReputationCalculation.sol\":1993:1998  orgId */\n      dup4\n        /* \"assessment3/ReputationCalculation.sol\":1981:1999  reviewCount[orgId] */\n      dup2\n      mstore\n      0x20\n      add\n      swap1\n      dup2\n      mstore\n      0x20\n      add\n      0x00\n      keccak256\n      sload\n        /* \"assessment3/ReputationCalculation.sol\":1961:1971  totalScore */\n      0x01\n        /* \"assessment3/ReputationCalculation.sol\":1961:1978  totalScore[orgId] */\n      0x00\n        /* \"assessment3/ReputationCalculation.sol\":1972:1977  orgId */\n      dup5\n        /* \"assessment3/ReputationCalculation.sol\":1961:1978  totalScore[orgId] */\n      dup2\n      mstore\n      0x20\n      add\n      swap1\n      dup2\n      mstore\n      0x20\n      add\n      0x00\n      keccak256\n      sload\n        /* \"assessment3/ReputationCalculation.sol\":1961:1999  totalScore[orgId] / reviewCount[orgId] */\n      tag_45\n      swap2\n      swap1\n      tag_46\n      jump\t// in\n    tag_45:\n        /* \"assessment3/ReputationCalculation.sol\":1954:1999  return totalScore[orgId] / reviewCount[orgId] */\n      swap1\n      pop\n        /* \"assessment3/ReputationCalculation.sol\":1834:2007  function getScore(uint orgId) public view returns (uint) {... */\n    tag_43:\n      swap2\n      swap1\n      pop\n      jump\t// out\n        /* \"assessment3/ReputationCalculation.sol\":1149:1761  function updateScore(uint orgId, uint256 userId, uint score) public onlyComplaintRegistry {... */\n    tag_20:\n        /* \"assessment3/ReputationCalculation.sol\":670:687  complaintRegistry */\n      0x00\n      0x00\n      swap1\n      sload\n      swap1\n      0x0100\n      exp\n      swap1\n      div\n      0xffffffffffffffffffffffffffffffffffffffff\n      and\n        /* \"assessment3/ReputationCalculation.sol\":656:687  msg.sender == complaintRegistry */\n      0xffffffffffffffffffffffffffffffffffffffff\n      and\n        /* \"assessment3/ReputationCalculation.sol\":656:666  msg.sender */\n      caller\n        /* \"assessment3/ReputationCalculation.sol\":656:687  msg.sender == complaintRegistry */\n      0xffffffffffffffffffffffffffffffffffffffff\n      and\n      eq\n        /* \"assessment3/ReputationCalculation.sol\":648:723  require(msg.sender == complaintRegistry, \"Only ComplaintRegistry can call\") */\n      tag_48\n      jumpi\n      mload(0x40)\n      0x08c379a000000000000000000000000000000000000000000000000000000000\n      dup2\n      mstore\n      0x04\n      add\n      tag_49\n      swap1\n      tag_50\n      jump\t// in\n    tag_49:\n      mload(0x40)\n      dup1\n      swap2\n      sub\n      swap1\n      revert\n    tag_48:\n        /* \"assessment3/ReputationCalculation.sol\":1267:1268  1 */\n      0x01\n        /* \"assessment3/ReputationCalculation.sol\":1258:1263  score */\n      dup2\n        /* \"assessment3/ReputationCalculation.sol\":1258:1268  score >= 1 */\n      lt\n      iszero\n        /* \"assessment3/ReputationCalculation.sol\":1258:1283  score >= 1 && score <= 10 */\n      dup1\n      iszero\n      tag_52\n      jumpi\n      pop\n        /* \"assessment3/ReputationCalculation.sol\":1281:1283  10 */\n      0x0a\n        /* \"assessment3/ReputationCalculation.sol\":1272:1277  score */\n      dup2\n        /* \"assessment3/ReputationCalculation.sol\":1272:1283  score <= 10 */\n      gt\n      iszero\n        /* \"assessment3/ReputationCalculation.sol\":1258:1283  score >= 1 && score <= 10 */\n    tag_52:\n        /* \"assessment3/ReputationCalculation.sol\":1250:1318  require(score >= 1 && score <= 10, \"Score must be between 1 and 10\") */\n      tag_53\n      jumpi\n      mload(0x40)\n      0x08c379a000000000000000000000000000000000000000000000000000000000\n      dup2\n      mstore\n      0x04\n      add\n      tag_54\n      swap1\n      tag_55\n      jump\t// in\n    tag_54:\n      mload(0x40)\n      dup1\n      swap2\n      sub\n      swap1\n      revert\n    tag_53:\n        /* \"assessment3/ReputationCalculation.sol\":1335:1343  hasRated */\n      0x03\n        /* \"assessment3/ReputationCalculation.sol\":1335:1350  hasRated[orgId] */\n      0x00\n        /* \"assessment3/ReputationCalculation.sol\":1344:1349  orgId */\n      dup5\n        /* \"assessment3/ReputationCalculation.sol\":1335:1350  hasRated[orgId] */\n      dup2\n      mstore\n      0x20\n      add\n      swap1\n      dup2\n      mstore\n      0x20\n      add\n      0x00\n      keccak256\n        /* \"assessment3/ReputationCalculation.sol\":1335:1358  hasRated[orgId][userId] */\n      0x00\n        /* \"assessment3/ReputationCalculation.sol\":1351:1357  userId */\n      dup4\n        /* \"assessment3/ReputationCalculation.sol\":1335:1358  hasRated[orgId][userId] */\n      dup2\n      mstore\n      0x20\n      add\n      swap1\n      dup2\n      mstore\n      0x20\n      add\n      0x00\n      keccak256\n      0x00\n      swap1\n      sload\n      swap1\n      0x0100\n      exp\n      swap1\n      div\n      0xff\n      and\n        /* \"assessment3/ReputationCalculation.sol\":1331:1754  if (hasRated[orgId][userId]) {... */\n      iszero\n      tag_56\n      jumpi\n        /* \"assessment3/ReputationCalculation.sol\":1375:1388  uint oldScore */\n      0x00\n        /* \"assessment3/ReputationCalculation.sol\":1391:1432  updateExistingScore(orgId, userId, score) */\n      tag_57\n        /* \"assessment3/ReputationCalculation.sol\":1411:1416  orgId */\n      dup5\n        /* \"assessment3/ReputationCalculation.sol\":1418:1424  userId */\n      dup5\n        /* \"assessment3/ReputationCalculation.sol\":1426:1431  score */\n      dup5\n        /* \"assessment3/ReputationCalculation.sol\":1391:1410  updateExistingScore */\n      tag_58\n        /* \"assessment3/ReputationCalculation.sol\":1391:1432  updateExistingScore(orgId, userId, score) */\n      jump\t// in\n    tag_57:\n        /* \"assessment3/ReputationCalculation.sol\":1375:1432  uint oldScore = updateExistingScore(orgId, userId, score) */\n      swap1\n      pop\n        /* \"assessment3/ReputationCalculation.sol\":1474:1480  userId */\n      dup3\n        /* \"assessment3/ReputationCalculation.sol\":1467:1472  orgId */\n      dup5\n        /* \"assessment3/ReputationCalculation.sol\":1454:1498  ScoreUpdated(orgId, userId, oldScore, score) */\n      0xc49061ebc553391a7dc3e79c94ff75d1067941737152c37a8707003d2d701b95\n        /* \"assessment3/ReputationCalculation.sol\":1482:1490  oldScore */\n      dup4\n        /* \"assessment3/ReputationCalculation.sol\":1492:1497  score */\n      dup6\n        /* \"assessment3/ReputationCalculation.sol\":1454:1498  ScoreUpdated(orgId, userId, oldScore, score) */\n      mload(0x40)\n      tag_59\n      swap3\n      swap2\n      swap1\n      tag_60\n      jump\t// in\n    tag_59:\n      mload(0x40)\n      dup1\n      swap2\n      sub\n      swap1\n      log3\n        /* \"assessment3/ReputationCalculation.sol\":1360:1510  {... */\n      pop\n        /* \"assessment3/ReputationCalculation.sol\":1331:1754  if (hasRated[orgId][userId]) {... */\n      jump(tag_61)\n    tag_56:\n        /* \"assessment3/ReputationCalculation.sol\":1552:1557  score */\n      dup1\n        /* \"assessment3/ReputationCalculation.sol\":1531:1541  totalScore */\n      0x01\n        /* \"assessment3/ReputationCalculation.sol\":1531:1548  totalScore[orgId] */\n      0x00\n        /* \"assessment3/ReputationCalculation.sol\":1542:1547  orgId */\n      dup6\n        /* \"assessment3/ReputationCalculation.sol\":1531:1548  totalScore[orgId] */\n      dup2\n      mstore\n      0x20\n      add\n      swap1\n      dup2\n      mstore\n      0x20\n      add\n      0x00\n      keccak256\n      0x00\n        /* \"assessment3/ReputationCalculation.sol\":1531:1557  totalScore[orgId] += score */\n      dup3\n      dup3\n      sload\n      tag_62\n      swap2\n      swap1\n      tag_63\n      jump\t// in\n    tag_62:\n      swap3\n      pop\n      pop\n      dup2\n      swap1\n      sstore\n      pop\n        /* \"assessment3/ReputationCalculation.sol\":1594:1595  1 */\n      0x01\n        /* \"assessment3/ReputationCalculation.sol\":1572:1583  reviewCount */\n      0x02\n        /* \"assessment3/ReputationCalculation.sol\":1572:1590  reviewCount[orgId] */\n      0x00\n        /* \"assessment3/ReputationCalculation.sol\":1584:1589  orgId */\n      dup6\n        /* \"assessment3/ReputationCalculation.sol\":1572:1590  reviewCount[orgId] */\n      dup2\n      mstore\n      0x20\n      add\n      swap1\n      dup2\n      mstore\n      0x20\n      add\n      0x00\n      keccak256\n      0x00\n        /* \"assessment3/ReputationCalculation.sol\":1572:1595  reviewCount[orgId] += 1 */\n      dup3\n      dup3\n      sload\n      tag_64\n      swap2\n      swap1\n      tag_63\n      jump\t// in\n    tag_64:\n      swap3\n      pop\n      pop\n      dup2\n      swap1\n      sstore\n      pop\n        /* \"assessment3/ReputationCalculation.sol\":1636:1640  true */\n      0x01\n        /* \"assessment3/ReputationCalculation.sol\":1610:1618  hasRated */\n      0x03\n        /* \"assessment3/ReputationCalculation.sol\":1610:1625  hasRated[orgId] */\n      0x00\n        /* \"assessment3/ReputationCalculation.sol\":1619:1624  orgId */\n      dup6\n        /* \"assessment3/ReputationCalculation.sol\":1610:1625  hasRated[orgId] */\n      dup2\n      mstore\n      0x20\n      add\n      swap1\n      dup2\n      mstore\n      0x20\n      add\n      0x00\n      keccak256\n        /* \"assessment3/ReputationCalculation.sol\":1610:1633  hasRated[orgId][userId] */\n      0x00\n        /* \"assessment3/ReputationCalculation.sol\":1626:1632  userId */\n      dup5\n        /* \"assessment3/ReputationCalculation.sol\":1610:1633  hasRated[orgId][userId] */\n      dup2\n      mstore\n      0x20\n      add\n      swap1\n      dup2\n      mstore\n      0x20\n      add\n      0x00\n      keccak256\n      0x00\n        /* \"assessment3/ReputationCalculation.sol\":1610:1640  hasRated[orgId][userId] = true */\n      0x0100\n      exp\n      dup2\n      sload\n      dup2\n      0xff\n      mul\n      not\n      and\n      swap1\n      dup4\n      iszero\n      iszero\n      mul\n      or\n      swap1\n      sstore\n      pop\n        /* \"assessment3/ReputationCalculation.sol\":1683:1688  score */\n      dup1\n        /* \"assessment3/ReputationCalculation.sol\":1655:1665  userRating */\n      0x04\n        /* \"assessment3/ReputationCalculation.sol\":1655:1672  userRating[orgId] */\n      0x00\n        /* \"assessment3/ReputationCalculation.sol\":1666:1671  orgId */\n      dup6\n        /* \"assessment3/ReputationCalculation.sol\":1655:1672  userRating[orgId] */\n      dup2\n      mstore\n      0x20\n      add\n      swap1\n      dup2\n      mstore\n      0x20\n      add\n      0x00\n      keccak256\n        /* \"assessment3/ReputationCalculation.sol\":1655:1680  userRating[orgId][userId] */\n      0x00\n        /* \"assessment3/ReputationCalculation.sol\":1673:1679  userId */\n      dup5\n        /* \"assessment3/ReputationCalculation.sol\":1655:1680  userRating[orgId][userId] */\n      dup2\n      mstore\n      0x20\n      add\n      swap1\n      dup2\n      mstore\n      0x20\n      add\n      0x00\n      keccak256\n        /* \"assessment3/ReputationCalculation.sol\":1655:1688  userRating[orgId][userId] = score */\n      dup2\n      swap1\n      sstore\n      pop\n        /* \"assessment3/ReputationCalculation.sol\":1728:1734  userId */\n      dup2\n        /* \"assessment3/ReputationCalculation.sol\":1721:1726  orgId */\n      dup4\n        /* \"assessment3/ReputationCalculation.sol\":1710:1742  ScoreAdded(orgId, userId, score) */\n      0xc87c879fbde2119679da9f0ea35e544453550ab108497929c33344438c609d7e\n        /* \"assessment3/ReputationCalculation.sol\":1736:1741  score */\n      dup4\n        /* \"assessment3/ReputationCalculation.sol\":1710:1742  ScoreAdded(orgId, userId, score) */\n      mload(0x40)\n      tag_65\n      swap2\n      swap1\n      tag_16\n      jump\t// in\n    tag_65:\n      mload(0x40)\n      dup1\n      swap2\n      sub\n      swap1\n      log3\n        /* \"assessment3/ReputationCalculation.sol\":1331:1754  if (hasRated[orgId][userId]) {... */\n    tag_61:\n        /* \"assessment3/ReputationCalculation.sol\":1149:1761  function updateScore(uint orgId, uint256 userId, uint score) public onlyComplaintRegistry {... */\n      pop\n      pop\n      pop\n      jump\t// out\n        /* \"assessment3/ReputationCalculation.sol\":134:166  address public complaintRegistry */\n    tag_22:\n      0x00\n      0x00\n      swap1\n      sload\n      swap1\n      0x0100\n      exp\n      swap1\n      div\n      0xffffffffffffffffffffffffffffffffffffffff\n      and\n      dup2\n      jump\t// out\n        /* \"assessment3/ReputationCalculation.sol\":221:261  mapping(uint => uint) public reviewCount */\n    tag_27:\n      mstore(0x20, 0x02)\n      dup1\n      0x00\n      mstore\n      keccak256(0x00, 0x40)\n      0x00\n      swap2\n      pop\n      swap1\n      pop\n      sload\n      dup2\n      jump\t// out\n        /* \"assessment3/ReputationCalculation.sol\":268:328  mapping(uint256 => mapping(uint256 => bool)) public hasRated */\n    tag_32:\n      mstore(0x20, 0x03)\n      dup2\n      0x00\n      mstore\n      mstore(0x20, keccak256(0x00, 0x40))\n      dup1\n      0x00\n      mstore\n      keccak256(0x00, 0x40)\n      0x00\n      swap2\n      pop\n      swap2\n      pop\n      swap1\n      sload\n      swap1\n      0x0100\n      exp\n      swap1\n      div\n      0xff\n      and\n      dup2\n      jump\t// out\n        /* \"assessment3/ReputationCalculation.sol\":335:400  mapping(uint256 => mapping(uint256 => uint256)) public userRating */\n    tag_37:\n      mstore(0x20, 0x04)\n      dup2\n      0x00\n      mstore\n      mstore(0x20, keccak256(0x00, 0x40))\n      dup1\n      0x00\n      mstore\n      keccak256(0x00, 0x40)\n      0x00\n      swap2\n      pop\n      swap2\n      pop\n      pop\n      sload\n      dup2\n      jump\t// out\n        /* \"assessment3/ReputationCalculation.sol\":175:214  mapping(uint => uint) public totalScore */\n    tag_41:\n      mstore(0x20, 0x01)\n      dup1\n      0x00\n      mstore\n      keccak256(0x00, 0x40)\n      0x00\n      swap2\n      pop\n      swap1\n      pop\n      sload\n      dup2\n      jump\t// out\n        /* \"assessment3/ReputationCalculation.sol\":822:1141  function updateExistingScore (uint orgId, uint256 userId, uint newScore) private ... */\n    tag_58:\n        /* \"assessment3/ReputationCalculation.sol\":922:935  uint oldScore */\n      0x00\n        /* \"assessment3/ReputationCalculation.sol\":965:975  userRating */\n      0x04\n        /* \"assessment3/ReputationCalculation.sol\":965:982  userRating[orgId] */\n      0x00\n        /* \"assessment3/ReputationCalculation.sol\":976:981  orgId */\n      dup6\n        /* \"assessment3/ReputationCalculation.sol\":965:982  userRating[orgId] */\n      dup2\n      mstore\n      0x20\n      add\n      swap1\n      dup2\n      mstore\n      0x20\n      add\n      0x00\n      keccak256\n        /* \"assessment3/ReputationCalculation.sol\":965:990  userRating[orgId][userId] */\n      0x00\n        /* \"assessment3/ReputationCalculation.sol\":983:989  userId */\n      dup5\n        /* \"assessment3/ReputationCalculation.sol\":965:990  userRating[orgId][userId] */\n      dup2\n      mstore\n      0x20\n      add\n      swap1\n      dup2\n      mstore\n      0x20\n      add\n      0x00\n      keccak256\n      sload\n        /* \"assessment3/ReputationCalculation.sol\":954:990  oldScore = userRating[orgId][userId] */\n      swap1\n      pop\n        /* \"assessment3/ReputationCalculation.sol\":1052:1060  newScore */\n      dup2\n        /* \"assessment3/ReputationCalculation.sol\":1041:1049  oldScore */\n      dup2\n        /* \"assessment3/ReputationCalculation.sol\":1021:1031  totalScore */\n      0x01\n        /* \"assessment3/ReputationCalculation.sol\":1021:1038  totalScore[orgId] */\n      0x00\n        /* \"assessment3/ReputationCalculation.sol\":1032:1037  orgId */\n      dup8\n        /* \"assessment3/ReputationCalculation.sol\":1021:1038  totalScore[orgId] */\n      dup2\n      mstore\n      0x20\n      add\n      swap1\n      dup2\n      mstore\n      0x20\n      add\n      0x00\n      keccak256\n      sload\n        /* \"assessment3/ReputationCalculation.sol\":1021:1049  totalScore[orgId] - oldScore */\n      tag_67\n      swap2\n      swap1\n      tag_68\n      jump\t// in\n    tag_67:\n        /* \"assessment3/ReputationCalculation.sol\":1021:1060  totalScore[orgId] - oldScore + newScore */\n      tag_69\n      swap2\n      swap1\n      tag_63\n      jump\t// in\n    tag_69:\n        /* \"assessment3/ReputationCalculation.sol\":1001:1011  totalScore */\n      0x01\n        /* \"assessment3/ReputationCalculation.sol\":1001:1018  totalScore[orgId] */\n      0x00\n        /* \"assessment3/ReputationCalculation.sol\":1012:1017  orgId */\n      dup7\n        /* \"assessment3/ReputationCalculation.sol\":1001:1018  totalScore[orgId] */\n      dup2\n      mstore\n      0x20\n      add\n      swap1\n      dup2\n      mstore\n      0x20\n      add\n      0x00\n      keccak256\n        /* \"assessment3/ReputationCalculation.sol\":1001:1060  totalScore[orgId] = totalScore[orgId] - oldScore + newScore */\n      dup2\n      swap1\n      sstore\n      pop\n        /* \"assessment3/ReputationCalculation.sol\":1099:1107  newScore */\n      dup2\n        /* \"assessment3/ReputationCalculation.sol\":1071:1081  userRating */\n      0x04\n        /* \"assessment3/ReputationCalculation.sol\":1071:1088  userRating[orgId] */\n      0x00\n        /* \"assessment3/ReputationCalculation.sol\":1082:1087  orgId */\n      dup7\n        /* \"assessment3/ReputationCalculation.sol\":1071:1088  userRating[orgId] */\n      dup2\n      mstore\n      0x20\n      add\n      swap1\n      dup2\n      mstore\n      0x20\n      add\n      0x00\n      keccak256\n        /* \"assessment3/ReputationCalculation.sol\":1071:1096  userRating[orgId][userId] */\n      0x00\n        /* \"assessment3/ReputationCalculation.sol\":1089:1095  userId */\n      dup6\n        /* \"assessment3/ReputationCalculation.sol\":1071:1096  userRating[orgId][userId] */\n      dup2\n      mstore\n      0x20\n      add\n      swap1\n      dup2\n      mstore\n      0x20\n      add\n      0x00\n      keccak256\n        /* \"assessment3/ReputationCalculation.sol\":1071:1107  userRating[orgId][userId] = newScore */\n      dup2\n      swap1\n      sstore\n      pop\n        /* \"assessment3/ReputationCalculation.sol\":822:1141  function updateExistingScore (uint orgId, uint256 userId, uint newScore) private ... */\n      swap4\n      swap3\n      pop\n      pop\n      pop\n      jump\t// out\n        /* \"#utility.yul\":88:205   */\n    tag_71:\n        /* \"#utility.yul\":197:198   */\n      0x00\n        /* \"#utility.yul\":194:195   */\n      0x00\n        /* \"#utility.yul\":187:199   */\n      revert\n        /* \"#utility.yul\":334:411   */\n    tag_73:\n        /* \"#utility.yul\":371:378   */\n      0x00\n        /* \"#utility.yul\":400:405   */\n      dup2\n        /* \"#utility.yul\":389:405   */\n      swap1\n      pop\n        /* \"#utility.yul\":334:411   */\n      swap2\n      swap1\n      pop\n      jump\t// out\n        /* \"#utility.yul\":417:539   */\n    tag_74:\n        /* \"#utility.yul\":490:514   */\n      tag_95\n        /* \"#utility.yul\":508:513   */\n      dup2\n        /* \"#utility.yul\":490:514   */\n      tag_73\n      jump\t// in\n    tag_95:\n        /* \"#utility.yul\":483:488   */\n      dup2\n        /* \"#utility.yul\":480:515   */\n      eq\n        /* \"#utility.yul\":470:533   */\n      tag_96\n      jumpi\n        /* \"#utility.yul\":529:530   */\n      0x00\n        /* \"#utility.yul\":526:527   */\n      0x00\n        /* \"#utility.yul\":519:531   */\n      revert\n        /* \"#utility.yul\":470:533   */\n    tag_96:\n        /* \"#utility.yul\":417:539   */\n      pop\n      jump\t// out\n        /* \"#utility.yul\":545:684   */\n    tag_75:\n        /* \"#utility.yul\":591:596   */\n      0x00\n        /* \"#utility.yul\":629:635   */\n      dup2\n        /* \"#utility.yul\":616:636   */\n      calldataload\n        /* \"#utility.yul\":607:636   */\n      swap1\n      pop\n        /* \"#utility.yul\":645:678   */\n      tag_98\n        /* \"#utility.yul\":672:677   */\n      dup2\n        /* \"#utility.yul\":645:678   */\n      tag_74\n      jump\t// in\n    tag_98:\n        /* \"#utility.yul\":545:684   */\n      swap3\n      swap2\n      pop\n      pop\n      jump\t// out\n        /* \"#utility.yul\":690:1019   */\n    tag_13:\n        /* \"#utility.yul\":749:755   */\n      0x00\n        /* \"#utility.yul\":798:800   */\n      0x20\n        /* \"#utility.yul\":786:795   */\n      dup3\n        /* \"#utility.yul\":777:784   */\n      dup5\n        /* \"#utility.yul\":773:796   */\n      sub\n        /* \"#utility.yul\":769:801   */\n      slt\n        /* \"#utility.yul\":766:885   */\n      iszero\n      tag_100\n      jumpi\n        /* \"#utility.yul\":804:883   */\n      tag_101\n      tag_71\n      jump\t// in\n    tag_101:\n        /* \"#utility.yul\":766:885   */\n    tag_100:\n        /* \"#utility.yul\":924:925   */\n      0x00\n        /* \"#utility.yul\":949:1002   */\n      tag_102\n        /* \"#utility.yul\":994:1001   */\n      dup5\n        /* \"#utility.yul\":985:991   */\n      dup3\n        /* \"#utility.yul\":974:983   */\n      dup6\n        /* \"#utility.yul\":970:992   */\n      add\n        /* \"#utility.yul\":949:1002   */\n      tag_75\n      jump\t// in\n    tag_102:\n        /* \"#utility.yul\":939:1002   */\n      swap2\n      pop\n        /* \"#utility.yul\":895:1012   */\n      pop\n        /* \"#utility.yul\":690:1019   */\n      swap3\n      swap2\n      pop\n      pop\n      jump\t// out\n        /* \"#utility.yul\":1025:1143   */\n    tag_76:\n        /* \"#utility.yul\":1112:1136   */\n      tag_104\n        /* \"#utility.yul\":1130:1135   */\n      dup2\n        /* \"#utility.yul\":1112:1136   */\n      tag_73\n      jump\t// in\n    tag_104:\n        /* \"#utility.yul\":1107:1110   */\n      dup3\n        /* \"#utility.yul\":1100:1137   */\n      mstore\n        /* \"#utility.yul\":1025:1143   */\n      pop\n      pop\n      jump\t// out\n        /* \"#utility.yul\":1149:1371   */\n    tag_16:\n        /* \"#utility.yul\":1242:1246   */\n      0x00\n        /* \"#utility.yul\":1280:1282   */\n      0x20\n        /* \"#utility.yul\":1269:1278   */\n      dup3\n        /* \"#utility.yul\":1265:1283   */\n      add\n        /* \"#utility.yul\":1257:1283   */\n      swap1\n      pop\n        /* \"#utility.yul\":1293:1364   */\n      tag_106\n        /* \"#utility.yul\":1361:1362   */\n      0x00\n        /* \"#utility.yul\":1350:1359   */\n      dup4\n        /* \"#utility.yul\":1346:1363   */\n      add\n        /* \"#utility.yul\":1337:1343   */\n      dup5\n        /* \"#utility.yul\":1293:1364   */\n      tag_76\n      jump\t// in\n    tag_106:\n        /* \"#utility.yul\":1149:1371   */\n      swap3\n      swap2\n      pop\n      pop\n      jump\t// out\n        /* \"#utility.yul\":1377:1996   */\n    tag_19:\n        /* \"#utility.yul\":1454:1460   */\n      0x00\n        /* \"#utility.yul\":1462:1468   */\n      0x00\n        /* \"#utility.yul\":1470:1476   */\n      0x00\n        /* \"#utility.yul\":1519:1521   */\n      0x60\n        /* \"#utility.yul\":1507:1516   */\n      dup5\n        /* \"#utility.yul\":1498:1505   */\n      dup7\n        /* \"#utility.yul\":1494:1517   */\n      sub\n        /* \"#utility.yul\":1490:1522   */\n      slt\n        /* \"#utility.yul\":1487:1606   */\n      iszero\n      tag_108\n      jumpi\n        /* \"#utility.yul\":1525:1604   */\n      tag_109\n      tag_71\n      jump\t// in\n    tag_109:\n        /* \"#utility.yul\":1487:1606   */\n    tag_108:\n        /* \"#utility.yul\":1645:1646   */\n      0x00\n        /* \"#utility.yul\":1670:1723   */\n      tag_110\n        /* \"#utility.yul\":1715:1722   */\n      dup7\n        /* \"#utility.yul\":1706:1712   */\n      dup3\n        /* \"#utility.yul\":1695:1704   */\n      dup8\n        /* \"#utility.yul\":1691:1713   */\n      add\n        /* \"#utility.yul\":1670:1723   */\n      tag_75\n      jump\t// in\n    tag_110:\n        /* \"#utility.yul\":1660:1723   */\n      swap4\n      pop\n        /* \"#utility.yul\":1616:1733   */\n      pop\n        /* \"#utility.yul\":1772:1774   */\n      0x20\n        /* \"#utility.yul\":1798:1851   */\n      tag_111\n        /* \"#utility.yul\":1843:1850   */\n      dup7\n        /* \"#utility.yul\":1834:1840   */\n      dup3\n        /* \"#utility.yul\":1823:1832   */\n      dup8\n        /* \"#utility.yul\":1819:1841   */\n      add\n        /* \"#utility.yul\":1798:1851   */\n      tag_75\n      jump\t// in\n    tag_111:\n        /* \"#utility.yul\":1788:1851   */\n      swap3\n      pop\n        /* \"#utility.yul\":1743:1861   */\n      pop\n        /* \"#utility.yul\":1900:1902   */\n      0x40\n        /* \"#utility.yul\":1926:1979   */\n      tag_112\n        /* \"#utility.yul\":1971:1978   */\n      dup7\n        /* \"#utility.yul\":1962:1968   */\n      dup3\n        /* \"#utility.yul\":1951:1960   */\n      dup8\n        /* \"#utility.yul\":1947:1969   */\n      add\n        /* \"#utility.yul\":1926:1979   */\n      tag_75\n      jump\t// in\n    tag_112:\n        /* \"#utility.yul\":1916:1979   */\n      swap2\n      pop\n        /* \"#utility.yul\":1871:1989   */\n      pop\n        /* \"#utility.yul\":1377:1996   */\n      swap3\n      pop\n      swap3\n      pop\n      swap3\n      jump\t// out\n        /* \"#utility.yul\":2002:2128   */\n    tag_77:\n        /* \"#utility.yul\":2039:2046   */\n      0x00\n        /* \"#utility.yul\":2079:2121   */\n      0xffffffffffffffffffffffffffffffffffffffff\n        /* \"#utility.yul\":2072:2077   */\n      dup3\n        /* \"#utility.yul\":2068:2122   */\n      and\n        /* \"#utility.yul\":2057:2122   */\n      swap1\n      pop\n        /* \"#utility.yul\":2002:2128   */\n      swap2\n      swap1\n      pop\n      jump\t// out\n        /* \"#utility.yul\":2134:2230   */\n    tag_78:\n        /* \"#utility.yul\":2171:2178   */\n      0x00\n        /* \"#utility.yul\":2200:2224   */\n      tag_115\n        /* \"#utility.yul\":2218:2223   */\n      dup3\n        /* \"#utility.yul\":2200:2224   */\n      tag_77\n      jump\t// in\n    tag_115:\n        /* \"#utility.yul\":2189:2224   */\n      swap1\n      pop\n        /* \"#utility.yul\":2134:2230   */\n      swap2\n      swap1\n      pop\n      jump\t// out\n        /* \"#utility.yul\":2236:2354   */\n    tag_79:\n        /* \"#utility.yul\":2323:2347   */\n      tag_117\n        /* \"#utility.yul\":2341:2346   */\n      dup2\n        /* \"#utility.yul\":2323:2347   */\n      tag_78\n      jump\t// in\n    tag_117:\n        /* \"#utility.yul\":2318:2321   */\n      dup3\n        /* \"#utility.yul\":2311:2348   */\n      mstore\n        /* \"#utility.yul\":2236:2354   */\n      pop\n      pop\n      jump\t// out\n        /* \"#utility.yul\":2360:2582   */\n    tag_24:\n        /* \"#utility.yul\":2453:2457   */\n      0x00\n        /* \"#utility.yul\":2491:2493   */\n      0x20\n        /* \"#utility.yul\":2480:2489   */\n      dup3\n        /* \"#utility.yul\":2476:2494   */\n      add\n        /* \"#utility.yul\":2468:2494   */\n      swap1\n      pop\n        /* \"#utility.yul\":2504:2575   */\n      tag_119\n        /* \"#utility.yul\":2572:2573   */\n      0x00\n        /* \"#utility.yul\":2561:2570   */\n      dup4\n        /* \"#utility.yul\":2557:2574   */\n      add\n        /* \"#utility.yul\":2548:2554   */\n      dup5\n        /* \"#utility.yul\":2504:2575   */\n      tag_79\n      jump\t// in\n    tag_119:\n        /* \"#utility.yul\":2360:2582   */\n      swap3\n      swap2\n      pop\n      pop\n      jump\t// out\n        /* \"#utility.yul\":2588:3062   */\n    tag_31:\n        /* \"#utility.yul\":2656:2662   */\n      0x00\n        /* \"#utility.yul\":2664:2670   */\n      0x00\n        /* \"#utility.yul\":2713:2715   */\n      0x40\n        /* \"#utility.yul\":2701:2710   */\n      dup4\n        /* \"#utility.yul\":2692:2699   */\n      dup6\n        /* \"#utility.yul\":2688:2711   */\n      sub\n        /* \"#utility.yul\":2684:2716   */\n      slt\n        /* \"#utility.yul\":2681:2800   */\n      iszero\n      tag_121\n      jumpi\n        /* \"#utility.yul\":2719:2798   */\n      tag_122\n      tag_71\n      jump\t// in\n    tag_122:\n        /* \"#utility.yul\":2681:2800   */\n    tag_121:\n        /* \"#utility.yul\":2839:2840   */\n      0x00\n        /* \"#utility.yul\":2864:2917   */\n      tag_123\n        /* \"#utility.yul\":2909:2916   */\n      dup6\n        /* \"#utility.yul\":2900:2906   */\n      dup3\n        /* \"#utility.yul\":2889:2898   */\n      dup7\n        /* \"#utility.yul\":2885:2907   */\n      add\n        /* \"#utility.yul\":2864:2917   */\n      tag_75\n      jump\t// in\n    tag_123:\n        /* \"#utility.yul\":2854:2917   */\n      swap3\n      pop\n        /* \"#utility.yul\":2810:2927   */\n      pop\n        /* \"#utility.yul\":2966:2968   */\n      0x20\n        /* \"#utility.yul\":2992:3045   */\n      tag_124\n        /* \"#utility.yul\":3037:3044   */\n      dup6\n        /* \"#utility.yul\":3028:3034   */\n      dup3\n        /* \"#utility.yul\":3017:3026   */\n      dup7\n        /* \"#utility.yul\":3013:3035   */\n      add\n        /* \"#utility.yul\":2992:3045   */\n      tag_75\n      jump\t// in\n    tag_124:\n        /* \"#utility.yul\":2982:3045   */\n      swap2\n      pop\n        /* \"#utility.yul\":2937:3055   */\n      pop\n        /* \"#utility.yul\":2588:3062   */\n      swap3\n      pop\n      swap3\n      swap1\n      pop\n      jump\t// out\n        /* \"#utility.yul\":3068:3158   */\n    tag_80:\n        /* \"#utility.yul\":3102:3109   */\n      0x00\n        /* \"#utility.yul\":3145:3150   */\n      dup2\n        /* \"#utility.yul\":3138:3151   */\n      iszero\n        /* \"#utility.yul\":3131:3152   */\n      iszero\n        /* \"#utility.yul\":3120:3152   */\n      swap1\n      pop\n        /* \"#utility.yul\":3068:3158   */\n      swap2\n      swap1\n      pop\n      jump\t// out\n        /* \"#utility.yul\":3164:3273   */\n    tag_81:\n        /* \"#utility.yul\":3245:3266   */\n      tag_127\n        /* \"#utility.yul\":3260:3265   */\n      dup2\n        /* \"#utility.yul\":3245:3266   */\n      tag_80\n      jump\t// in\n    tag_127:\n        /* \"#utility.yul\":3240:3243   */\n      dup3\n        /* \"#utility.yul\":3233:3267   */\n      mstore\n        /* \"#utility.yul\":3164:3273   */\n      pop\n      pop\n      jump\t// out\n        /* \"#utility.yul\":3279:3489   */\n    tag_34:\n        /* \"#utility.yul\":3366:3370   */\n      0x00\n        /* \"#utility.yul\":3404:3406   */\n      0x20\n        /* \"#utility.yul\":3393:3402   */\n      dup3\n        /* \"#utility.yul\":3389:3407   */\n      add\n        /* \"#utility.yul\":3381:3407   */\n      swap1\n      pop\n        /* \"#utility.yul\":3417:3482   */\n      tag_129\n        /* \"#utility.yul\":3479:3480   */\n      0x00\n        /* \"#utility.yul\":3468:3477   */\n      dup4\n        /* \"#utility.yul\":3464:3481   */\n      add\n        /* \"#utility.yul\":3455:3461   */\n      dup5\n        /* \"#utility.yul\":3417:3482   */\n      tag_81\n      jump\t// in\n    tag_129:\n        /* \"#utility.yul\":3279:3489   */\n      swap3\n      swap2\n      pop\n      pop\n      jump\t// out\n        /* \"#utility.yul\":3495:3675   */\n    tag_82:\n        /* \"#utility.yul\":3543:3620   */\n      0x4e487b7100000000000000000000000000000000000000000000000000000000\n        /* \"#utility.yul\":3540:3541   */\n      0x00\n        /* \"#utility.yul\":3533:3621   */\n      mstore\n        /* \"#utility.yul\":3640:3644   */\n      0x12\n        /* \"#utility.yul\":3637:3638   */\n      0x04\n        /* \"#utility.yul\":3630:3645   */\n      mstore\n        /* \"#utility.yul\":3664:3668   */\n      0x24\n        /* \"#utility.yul\":3661:3662   */\n      0x00\n        /* \"#utility.yul\":3654:3669   */\n      revert\n        /* \"#utility.yul\":3681:3861   */\n    tag_83:\n        /* \"#utility.yul\":3729:3806   */\n      0x4e487b7100000000000000000000000000000000000000000000000000000000\n        /* \"#utility.yul\":3726:3727   */\n      0x00\n        /* \"#utility.yul\":3719:3807   */\n      mstore\n        /* \"#utility.yul\":3826:3830   */\n      0x11\n        /* \"#utility.yul\":3823:3824   */\n      0x04\n        /* \"#utility.yul\":3816:3831   */\n      mstore\n        /* \"#utility.yul\":3850:3854   */\n      0x24\n        /* \"#utility.yul\":3847:3848   */\n      0x00\n        /* \"#utility.yul\":3840:3855   */\n      revert\n        /* \"#utility.yul\":3867:4052   */\n    tag_46:\n        /* \"#utility.yul\":3907:3908   */\n      0x00\n        /* \"#utility.yul\":3924:3944   */\n      tag_133\n        /* \"#utility.yul\":3942:3943   */\n      dup3\n        /* \"#utility.yul\":3924:3944   */\n      tag_73\n      jump\t// in\n    tag_133:\n        /* \"#utility.yul\":3919:3944   */\n      swap2\n      pop\n        /* \"#utility.yul\":3958:3978   */\n      tag_134\n        /* \"#utility.yul\":3976:3977   */\n      dup4\n        /* \"#utility.yul\":3958:3978   */\n      tag_73\n      jump\t// in\n    tag_134:\n        /* \"#utility.yul\":3953:3978   */\n      swap3\n      pop\n        /* \"#utility.yul\":3997:3998   */\n      dup3\n        /* \"#utility.yul\":3987:4022   */\n      tag_135\n      jumpi\n        /* \"#utility.yul\":4002:4020   */\n      tag_136\n      tag_82\n      jump\t// in\n    tag_136:\n        /* \"#utility.yul\":3987:4022   */\n    tag_135:\n        /* \"#utility.yul\":4044:4045   */\n      dup3\n        /* \"#utility.yul\":4041:4042   */\n      dup3\n        /* \"#utility.yul\":4037:4046   */\n      div\n        /* \"#utility.yul\":4032:4046   */\n      swap1\n      pop\n        /* \"#utility.yul\":3867:4052   */\n      swap3\n      swap2\n      pop\n      pop\n      jump\t// out\n        /* \"#utility.yul\":4058:4227   */\n    tag_84:\n        /* \"#utility.yul\":4142:4153   */\n      0x00\n        /* \"#utility.yul\":4176:4182   */\n      dup3\n        /* \"#utility.yul\":4171:4174   */\n      dup3\n        /* \"#utility.yul\":4164:4183   */\n      mstore\n        /* \"#utility.yul\":4216:4220   */\n      0x20\n        /* \"#utility.yul\":4211:4214   */\n      dup3\n        /* \"#utility.yul\":4207:4221   */\n      add\n        /* \"#utility.yul\":4192:4221   */\n      swap1\n      pop\n        /* \"#utility.yul\":4058:4227   */\n      swap3\n      swap2\n      pop\n      pop\n      jump\t// out\n        /* \"#utility.yul\":4233:4414   */\n    tag_85:\n        /* \"#utility.yul\":4373:4406   */\n      0x4f6e6c7920436f6d706c61696e7452656769737472792063616e2063616c6c00\n        /* \"#utility.yul\":4369:4370   */\n      0x00\n        /* \"#utility.yul\":4361:4367   */\n      dup3\n        /* \"#utility.yul\":4357:4371   */\n      add\n        /* \"#utility.yul\":4350:4407   */\n      mstore\n        /* \"#utility.yul\":4233:4414   */\n      pop\n      jump\t// out\n        /* \"#utility.yul\":4420:4786   */\n    tag_86:\n        /* \"#utility.yul\":4562:4565   */\n      0x00\n        /* \"#utility.yul\":4583:4650   */\n      tag_140\n        /* \"#utility.yul\":4647:4649   */\n      0x1f\n        /* \"#utility.yul\":4642:4645   */\n      dup4\n        /* \"#utility.yul\":4583:4650   */\n      tag_84\n      jump\t// in\n    tag_140:\n        /* \"#utility.yul\":4576:4650   */\n      swap2\n      pop\n        /* \"#utility.yul\":4659:4752   */\n      tag_141\n        /* \"#utility.yul\":4748:4751   */\n      dup3\n        /* \"#utility.yul\":4659:4752   */\n      tag_85\n      jump\t// in\n    tag_141:\n        /* \"#utility.yul\":4777:4779   */\n      0x20\n        /* \"#utility.yul\":4772:4775   */\n      dup3\n        /* \"#utility.yul\":4768:4780   */\n      add\n        /* \"#utility.yul\":4761:4780   */\n      swap1\n      pop\n        /* \"#utility.yul\":4420:4786   */\n      swap2\n      swap1\n      pop\n      jump\t// out\n        /* \"#utility.yul\":4792:5211   */\n    tag_50:\n        /* \"#utility.yul\":4958:4962   */\n      0x00\n        /* \"#utility.yul\":4996:4998   */\n      0x20\n        /* \"#utility.yul\":4985:4994   */\n      dup3\n        /* \"#utility.yul\":4981:4999   */\n      add\n        /* \"#utility.yul\":4973:4999   */\n      swap1\n      pop\n        /* \"#utility.yul\":5045:5054   */\n      dup2\n        /* \"#utility.yul\":5039:5043   */\n      dup2\n        /* \"#utility.yul\":5035:5055   */\n      sub\n        /* \"#utility.yul\":5031:5032   */\n      0x00\n        /* \"#utility.yul\":5020:5029   */\n      dup4\n        /* \"#utility.yul\":5016:5033   */\n      add\n        /* \"#utility.yul\":5009:5056   */\n      mstore\n        /* \"#utility.yul\":5073:5204   */\n      tag_143\n        /* \"#utility.yul\":5199:5203   */\n      dup2\n        /* \"#utility.yul\":5073:5204   */\n      tag_86\n      jump\t// in\n    tag_143:\n        /* \"#utility.yul\":5065:5204   */\n      swap1\n      pop\n        /* \"#utility.yul\":4792:5211   */\n      swap2\n      swap1\n      pop\n      jump\t// out\n        /* \"#utility.yul\":5217:5397   */\n    tag_87:\n        /* \"#utility.yul\":5357:5389   */\n      0x53636f7265206d757374206265206265747765656e203120616e642031300000\n        /* \"#utility.yul\":5353:5354   */\n      0x00\n        /* \"#utility.yul\":5345:5351   */\n      dup3\n        /* \"#utility.yul\":5341:5355   */\n      add\n        /* \"#utility.yul\":5334:5390   */\n      mstore\n        /* \"#utility.yul\":5217:5397   */\n      pop\n      jump\t// out\n        /* \"#utility.yul\":5403:5769   */\n    tag_88:\n        /* \"#utility.yul\":5545:5548   */\n      0x00\n        /* \"#utility.yul\":5566:5633   */\n      tag_146\n        /* \"#utility.yul\":5630:5632   */\n      0x1e\n        /* \"#utility.yul\":5625:5628   */\n      dup4\n        /* \"#utility.yul\":5566:5633   */\n      tag_84\n      jump\t// in\n    tag_146:\n        /* \"#utility.yul\":5559:5633   */\n      swap2\n      pop\n        /* \"#utility.yul\":5642:5735   */\n      tag_147\n        /* \"#utility.yul\":5731:5734   */\n      dup3\n        /* \"#utility.yul\":5642:5735   */\n      tag_87\n      jump\t// in\n    tag_147:\n        /* \"#utility.yul\":5760:5762   */\n      0x20\n        /* \"#utility.yul\":5755:5758   */\n      dup3\n        /* \"#utility.yul\":5751:5763   */\n      add\n        /* \"#utility.yul\":5744:5763   */\n      swap1\n      pop\n        /* \"#utility.yul\":5403:5769   */\n      swap2\n      swap1\n      pop\n      jump\t// out\n        /* \"#utility.yul\":5775:6194   */\n    tag_55:\n        /* \"#utility.yul\":5941:5945   */\n      0x00\n        /* \"#utility.yul\":5979:5981   */\n      0x20\n        /* \"#utility.yul\":5968:5977   */\n      dup3\n        /* \"#utility.yul\":5964:5982   */\n      add\n        /* \"#utility.yul\":5956:5982   */\n      swap1\n      pop\n        /* \"#utility.yul\":6028:6037   */\n      dup2\n        /* \"#utility.yul\":6022:6026   */\n      dup2\n        /* \"#utility.yul\":6018:6038   */\n      sub\n        /* \"#utility.yul\":6014:6015   */\n      0x00\n        /* \"#utility.yul\":6003:6012   */\n      dup4\n        /* \"#utility.yul\":5999:6016   */\n      add\n        /* \"#utility.yul\":5992:6039   */\n      mstore\n        /* \"#utility.yul\":6056:6187   */\n      tag_149\n        /* \"#utility.yul\":6182:6186   */\n      dup2\n        /* \"#utility.yul\":6056:6187   */\n      tag_88\n      jump\t// in\n    tag_149:\n        /* \"#utility.yul\":6048:6187   */\n      swap1\n      pop\n        /* \"#utility.yul\":5775:6194   */\n      swap2\n      swap1\n      pop\n      jump\t// out\n        /* \"#utility.yul\":6200:6532   */\n    tag_60:\n        /* \"#utility.yul\":6321:6325   */\n      0x00\n        /* \"#utility.yul\":6359:6361   */\n      0x40\n        /* \"#utility.yul\":6348:6357   */\n      dup3\n        /* \"#utility.yul\":6344:6362   */\n      add\n        /* \"#utility.yul\":6336:6362   */\n      swap1\n      pop\n        /* \"#utility.yul\":6372:6443   */\n      tag_151\n        /* \"#utility.yul\":6440:6441   */\n      0x00\n        /* \"#utility.yul\":6429:6438   */\n      dup4\n        /* \"#utility.yul\":6425:6442   */\n      add\n        /* \"#utility.yul\":6416:6422   */\n      dup6\n        /* \"#utility.yul\":6372:6443   */\n      tag_76\n      jump\t// in\n    tag_151:\n        /* \"#utility.yul\":6453:6525   */\n      tag_152\n        /* \"#utility.yul\":6521:6523   */\n      0x20\n        /* \"#utility.yul\":6510:6519   */\n      dup4\n        /* \"#utility.yul\":6506:6524   */\n      add\n        /* \"#utility.yul\":6497:6503   */\n      dup5\n        /* \"#utility.yul\":6453:6525   */\n      tag_76\n      jump\t// in\n    tag_152:\n        /* \"#utility.yul\":6200:6532   */\n      swap4\n      swap3\n      pop\n      pop\n      pop\n      jump\t// out\n        /* \"#utility.yul\":6538:6729   */\n    tag_63:\n        /* \"#utility.yul\":6578:6581   */\n      0x00\n        /* \"#utility.yul\":6597:6617   */\n      tag_154\n        /* \"#utility.yul\":6615:6616   */\n      dup3\n        /* \"#utility.yul\":6597:6617   */\n      tag_73\n      jump\t// in\n    tag_154:\n        /* \"#utility.yul\":6592:6617   */\n      swap2\n      pop\n        /* \"#utility.yul\":6631:6651   */\n      tag_155\n        /* \"#utility.yul\":6649:6650   */\n      dup4\n        /* \"#utility.yul\":6631:6651   */\n      tag_73\n      jump\t// in\n    tag_155:\n        /* \"#utility.yul\":6626:6651   */\n      swap3\n      pop\n        /* \"#utility.yul\":6674:6675   */\n      dup3\n        /* \"#utility.yul\":6671:6672   */\n      dup3\n        /* \"#utility.yul\":6667:6676   */\n      add\n        /* \"#utility.yul\":6660:6676   */\n      swap1\n      pop\n        /* \"#utility.yul\":6695:6698   */\n      dup1\n        /* \"#utility.yul\":6692:6693   */\n      dup3\n        /* \"#utility.yul\":6689:6699   */\n      gt\n        /* \"#utility.yul\":6686:6722   */\n      iszero\n      tag_156\n      jumpi\n        /* \"#utility.yul\":6702:6720   */\n      tag_157\n      tag_83\n      jump\t// in\n    tag_157:\n        /* \"#utility.yul\":6686:6722   */\n    tag_156:\n        /* \"#utility.yul\":6538:6729   */\n      swap3\n      swap2\n      pop\n      pop\n      jump\t// out\n        /* \"#utility.yul\":6735:6929   */\n    tag_68:\n        /* \"#utility.yul\":6775:6779   */\n      0x00\n        /* \"#utility.yul\":6795:6815   */\n      tag_159\n        /* \"#utility.yul\":6813:6814   */\n      dup3\n        /* \"#utility.yul\":6795:6815   */\n      tag_73\n      jump\t// in\n    tag_159:\n        /* \"#utility.yul\":6790:6815   */\n      swap2\n      pop\n        /* \"#utility.yul\":6829:6849   */\n      tag_160\n        /* \"#utility.yul\":6847:6848   */\n      dup4\n        /* \"#utility.yul\":6829:6849   */\n      tag_73\n      jump\t// in\n    tag_160:\n        /* \"#utility.yul\":6824:6849   */\n      swap3\n      pop\n        /* \"#utility.yul\":6873:6874   */\n      dup3\n        /* \"#utility.yul\":6870:6871   */\n      dup3\n        /* \"#utility.yul\":6866:6875   */\n      sub\n        /* \"#utility.yul\":6858:6875   */\n      swap1\n      pop\n        /* \"#utility.yul\":6897:6898   */\n      dup2\n        /* \"#utility.yul\":6891:6895   */\n      dup2\n        /* \"#utility.yul\":6888:6899   */\n      gt\n        /* \"#utility.yul\":6885:6922   */\n      iszero\n      tag_161\n      jumpi\n        /* \"#utility.yul\":6902:6920   */\n      tag_162\n      tag_83\n      jump\t// in\n    tag_162:\n        /* \"#utility.yul\":6885:6922   */\n    tag_161:\n        /* \"#utility.yul\":6735:6929   */\n      swap3\n      swap2\n      pop\n      pop\n      jump\t// out\n\n    auxdata: 0xa2646970667358221220bb121d54baf7aee23fe889236449e135d2d57c481c096a47448fd6e5c35ab0ab64736f6c634300081e0033\n}\n",
				"bytecode": {
					"linkReferences": {},
					"object": "6080604052348015600e575f5ffd5b50335f5f6101000a81548173ffffffffffffffffffffffffffffffffffffffff021916908373ffffffffffffffffffffffffffffffffffffffff1602179055506109408061005b5f395ff3fe608060405234801561000f575f5ffd5b506004361061007b575f3560e01c80636061eec4116100595780636061eec4146100e95780637bdb43ae1461011957806398413f5d14610149578063ff595f78146101795761007b565b80630e1af57b1461007f5780633f0a92fb146100af5780634f0961e4146100cb575b5f5ffd5b610099600480360381019061009491906105a7565b6101a9565b6040516100a691906105e1565b60405180910390f35b6100c960048036038101906100c491906105fa565b610200565b005b6100d361044b565b6040516100e09190610689565b60405180910390f35b61010360048036038101906100fe91906105a7565b61046f565b60405161011091906105e1565b60405180910390f35b610133600480360381019061012e91906106a2565b610484565b60405161014091906106fa565b60405180910390f35b610163600480360381019061015e91906106a2565b6104ae565b60405161017091906105e1565b60405180910390f35b610193600480360381019061018e91906105a7565b6104ce565b6040516101a091906105e1565b60405180910390f35b5f5f60025f8481526020019081526020015f2054036101ca575f90506101fb565b60025f8381526020019081526020015f205460015f8481526020019081526020015f20546101f8919061076d565b90505b919050565b5f5f9054906101000a900473ffffffffffffffffffffffffffffffffffffffff1673ffffffffffffffffffffffffffffffffffffffff163373ffffffffffffffffffffffffffffffffffffffff161461028e576040517f08c379a0000000000000000000000000000000000000000000000000000000008152600401610285906107f7565b60405180910390fd5b600181101580156102a05750600a8111155b6102df576040517f08c379a00000000000000000000000000000000000000000000000000000000081526004016102d69061085f565b60405180910390fd5b60035f8481526020019081526020015f205f8381526020019081526020015f205f9054906101000a900460ff1615610360575f61031d8484846104e3565b905082847fc49061ebc553391a7dc3e79c94ff75d1067941737152c37a8707003d2d701b95838560405161035292919061087d565b60405180910390a350610446565b8060015f8581526020019081526020015f205f82825461038091906108a4565b92505081905550600160025f8581526020019081526020015f205f8282546103a891906108a4565b92505081905550600160035f8581526020019081526020015f205f8481526020019081526020015f205f6101000a81548160ff0219169083151502179055508060045f8581526020019081526020015f205f8481526020019081526020015f208190555081837fc87c879fbde2119679da9f0ea35e544453550ab108497929c33344438c609d7e8360405161043d91906105e1565b60405180910390a35b505050565b5f5f9054906101000a900473ffffffffffffffffffffffffffffffffffffffff1681565b6002602052805f5260405f205f915090505481565b6003602052815f5260405f20602052805f5260405f205f915091509054906101000a900460ff1681565b6004602052815f5260405f20602052805f5260405f205f91509150505481565b6001602052805f5260405f205f915090505481565b5f60045f8581526020019081526020015f205f8481526020019081526020015f20549050818160015f8781526020019081526020015f205461052591906108d7565b61052f91906108a4565b60015f8681526020019081526020015f20819055508160045f8681526020019081526020015f205f8581526020019081526020015f20819055509392505050565b5f5ffd5b5f819050919050565b61058681610574565b8114610590575f5ffd5b50565b5f813590506105a18161057d565b92915050565b5f602082840312156105bc576105bb610570565b5b5f6105c984828501610593565b91505092915050565b6105db81610574565b82525050565b5f6020820190506105f45f8301846105d2565b92915050565b5f5f5f6060848603121561061157610610610570565b5b5f61061e86828701610593565b935050602061062f86828701610593565b925050604061064086828701610593565b9150509250925092565b5f73ffffffffffffffffffffffffffffffffffffffff82169050919050565b5f6106738261064a565b9050919050565b61068381610669565b82525050565b5f60208201905061069c5f83018461067a565b92915050565b5f5f604083850312156106b8576106b7610570565b5b5f6106c585828601610593565b92505060206106d685828601610593565b9150509250929050565b5f8115159050919050565b6106f4816106e0565b82525050565b5f60208201905061070d5f8301846106eb565b92915050565b7f4e487b71000000000000000000000000000000000000000000000000000000005f52601260045260245ffd5b7f4e487b71000000000000000000000000000000000000000000000000000000005f52601160045260245ffd5b5f61077782610574565b915061078283610574565b92508261079257610791610713565b5b828204905092915050565b5f82825260208201905092915050565b7f4f6e6c7920436f6d706c61696e7452656769737472792063616e2063616c6c005f82015250565b5f6107e1601f8361079d565b91506107ec826107ad565b602082019050919050565b5f6020820190508181035f83015261080e816107d5565b9050919050565b7f53636f7265206d757374206265206265747765656e203120616e6420313000005f82015250565b5f610849601e8361079d565b915061085482610815565b602082019050919050565b5f6020820190508181035f8301526108768161083d565b9050919050565b5f6040820190506108905f8301856105d2565b61089d60208301846105d2565b9392505050565b5f6108ae82610574565b91506108b983610574565b92508282019050808211156108d1576108d0610740565b5b92915050565b5f6108e182610574565b91506108ec83610574565b925082820390508181111561090457610903610740565b5b9291505056fea2646970667358221220bb121d54baf7aee23fe889236449e135d2d57c481c096a47448fd6e5c35ab0ab64736f6c634300081e0033",
					"opcodes": "PUSH1 0x80 PUSH1 0x40 MSTORE CALLVALUE DUP1 ISZERO PUSH1 0xE JUMPI PUSH0 PUSH0 REVERT JUMPDEST POP CALLER PUSH0 PUSH0 PUSH2 0x100 EXP DUP2 SLOAD DUP2 PUSH20 0xFFFFFFFFFFFFFFFFFFFFFFFFFFFFFFFFFFFFFFFF MUL NOT AND SWAP1 DUP4 PUSH20 0xFFFFFFFFFFFFFFFFFFFFFFFFFFFFFFFFFFFFFFFF AND MUL OR SWAP1 SSTORE POP PUSH2 0x940 DUP1 PUSH2 0x5B PUSH0 CODECOPY PUSH0 RETURN INVALID PUSH1 0x80 PUSH1 0x40 MSTORE CALLVALUE DUP1 ISZERO PUSH2 0xF JUMPI PUSH0 PUSH0 REVERT JUMPDEST POP PUSH1 0x4 CALLDATASIZE LT PUSH2 0x7B JUMPI PUSH0 CALLDATALOAD PUSH1 0xE0 SHR DUP1 PUSH4 0x6061EEC4 GT PUSH2 0x59 JUMPI DUP1 PUSH4 0x6061EEC4 EQ PUSH2 0xE9 JUMPI DUP1 PUSH4 0x7BDB43AE EQ PUSH2 0x119 JUMPI DUP1 PUSH4 0x98413F5D EQ PUSH2 0x149 JUMPI DUP1 PUSH4 0xFF595F78 EQ PUSH2 0x179 JUMPI PUSH2 0x7B JUMP JUMPDEST DUP1 PUSH4 0xE1AF57B EQ PUSH2 0x7F JUMPI DUP1 PUSH4 0x3F0A92FB EQ PUSH2 0xAF JUMPI DUP1 PUSH4 0x4F0961E4 EQ PUSH2 0xCB JUMPI JUMPDEST PUSH0 PUSH0 REVERT JUMPDEST PUSH2 0x99 PUSH1 0x4 DUP1 CALLDATASIZE SUB DUP2 ADD SWAP1 PUSH2 0x94 SWAP2 SWAP1 PUSH2 0x5A7 JUMP JUMPDEST PUSH2 0x1A9 JUMP JUMPDEST PUSH1 0x40 MLOAD PUSH2 0xA6 SWAP2 SWAP1 PUSH2 0x5E1 JUMP JUMPDEST PUSH1 0x40 MLOAD DUP1 SWAP2 SUB SWAP1 RETURN JUMPDEST PUSH2 0xC9 PUSH1 0x4 DUP1 CALLDATASIZE SUB DUP2 ADD SWAP1 PUSH2 0xC4 SWAP2 SWAP1 PUSH2 0x5FA JUMP JUMPDEST PUSH2 0x200 JUMP JUMPDEST STOP JUMPDEST PUSH2 0xD3 PUSH2 0x44B JUMP JUMPDEST PUSH1 0x40 MLOAD PUSH2 0xE0 SWAP2 SWAP1 PUSH2 0x689 JUMP JUMPDEST PUSH1 0x40 MLOAD DUP1 SWAP2 SUB SWAP1 RETURN JUMPDEST PUSH2 0x103 PUSH1 0x4 DUP1 CALLDATASIZE SUB DUP2 ADD SWAP1 PUSH2 0xFE SWAP2 SWAP1 PUSH2 0x5A7 JUMP JUMPDEST PUSH2 0x46F JUMP JUMPDEST PUSH1 0x40 MLOAD PUSH2 0x110 SWAP2 SWAP1 PUSH2 0x5E1 JUMP JUMPDEST PUSH1 0x40 MLOAD DUP1 SWAP2 SUB SWAP1 RETURN JUMPDEST PUSH2 0x133 PUSH1 0x4 DUP1 CALLDATASIZE SUB DUP2 ADD SWAP1 PUSH2 0x12E SWAP2 SWAP1 PUSH2 0x6A2 JUMP JUMPDEST PUSH2 0x484 JUMP JUMPDEST PUSH1 0x40 MLOAD PUSH2 0x140 SWAP2 SWAP1 PUSH2 0x6FA JUMP JUMPDEST PUSH1 0x40 MLOAD DUP1 SWAP2 SUB SWAP1 RETURN JUMPDEST PUSH2 0x163 PUSH1 0x4 DUP1 CALLDATASIZE SUB DUP2 ADD SWAP1 PUSH2 0x15E SWAP2 SWAP1 PUSH2 0x6A2 JUMP JUMPDEST PUSH2 0x4AE JUMP JUMPDEST PUSH1 0x40 MLOAD PUSH2 0x170 SWAP2 SWAP1 PUSH2 0x5E1 JUMP JUMPDEST PUSH1 0x40 MLOAD DUP1 SWAP2 SUB SWAP1 RETURN JUMPDEST PUSH2 0x193 PUSH1 0x4 DUP1 CALLDATASIZE SUB DUP2 ADD SWAP1 PUSH2 0x18E SWAP2 SWAP1 PUSH2 0x5A7 JUMP JUMPDEST PUSH2 0x4CE JUMP JUMPDEST PUSH1 0x40 MLOAD PUSH2 0x1A0 SWAP2 SWAP1 PUSH2 0x5E1 JUMP JUMPDEST PUSH1 0x40 MLOAD DUP1 SWAP2 SUB SWAP1 RETURN JUMPDEST PUSH0 PUSH0 PUSH1 0x2 PUSH0 DUP5 DUP2 MSTORE PUSH1 0x20 ADD SWAP1 DUP2 MSTORE PUSH1 0x20 ADD PUSH0 KECCAK256 SLOAD SUB PUSH2 0x1CA JUMPI PUSH0 SWAP1 POP PUSH2 0x1FB JUMP JUMPDEST PUSH1 0x2 PUSH0 DUP4 DUP2 MSTORE PUSH1 0x20 ADD SWAP1 DUP2 MSTORE PUSH1 0x20 ADD PUSH0 KECCAK256 SLOAD PUSH1 0x1 PUSH0 DUP5 DUP2 MSTORE PUSH1 0x20 ADD SWAP1 DUP2 MSTORE PUSH1 0x20 ADD PUSH0 KECCAK256 SLOAD PUSH2 0x1F8 SWAP2 SWAP1 PUSH2 0x76D JUMP JUMPDEST SWAP1 POP JUMPDEST SWAP2 SWAP1 POP JUMP JUMPDEST PUSH0 PUSH0 SWAP1 SLOAD SWAP1 PUSH2 0x100 EXP SWAP1 DIV PUSH20 0xFFFFFFFFFFFFFFFFFFFFFFFFFFFFFFFFFFFFFFFF AND PUSH20 0xFFFFFFFFFFFFFFFFFFFFFFFFFFFFFFFFFFFFFFFF AND CALLER PUSH20 0xFFFFFFFFFFFFFFFFFFFFFFFFFFFFFFFFFFFFFFFF AND EQ PUSH2 0x28E JUMPI PUSH1 0x40 MLOAD PUSH32 0x8C379A000000000000000000000000000000000000000000000000000000000 DUP2 MSTORE PUSH1 0x4 ADD PUSH2 0x285 SWAP1 PUSH2 0x7F7 JUMP JUMPDEST PUSH1 0x40 MLOAD DUP1 SWAP2 SUB SWAP1 REVERT JUMPDEST PUSH1 0x1 DUP2 LT ISZERO DUP1 ISZERO PUSH2 0x2A0 JUMPI POP PUSH1 0xA DUP2 GT ISZERO JUMPDEST PUSH2 0x2DF JUMPI PUSH1 0x40 MLOAD PUSH32 0x8C379A000000000000000000000000000000000000000000000000000000000 DUP2 MSTORE PUSH1 0x4 ADD PUSH2 0x2D6 SWAP1 PUSH2 0x85F JUMP JUMPDEST PUSH1 0x40 MLOAD DUP1 SWAP2 SUB SWAP1 REVERT JUMPDEST PUSH1 0x3 PUSH0 DUP5 DUP2 MSTORE PUSH1 0x20 ADD SWAP1 DUP2 MSTORE PUSH1 0x20 ADD PUSH0 KECCAK256 PUSH0 DUP4 DUP2 MSTORE PUSH1 0x20 ADD SWAP1 DUP2 MSTORE PUSH1 0x20 ADD PUSH0 KECCAK256 PUSH0 SWAP1 SLOAD SWAP1 PUSH2 0x100 EXP SWAP1 DIV PUSH1 0xFF AND ISZERO PUSH2 0x360 JUMPI PUSH0 PUSH2 0x31D DUP5 DUP5 DUP5 PUSH2 0x4E3 JUMP JUMPDEST SWAP1 POP DUP3 DUP5 PUSH32 0xC49061EBC553391A7DC3E79C94FF75D1067941737152C37A8707003D2D701B95 DUP4 DUP6 PUSH1 0x40 MLOAD PUSH2 0x352 SWAP3 SWAP2 SWAP1 PUSH2 0x87D JUMP JUMPDEST PUSH1 0x40 MLOAD DUP1 SWAP2 SUB SWAP1 LOG3 POP PUSH2 0x446 JUMP JUMPDEST DUP1 PUSH1 0x1 PUSH0 DUP6 DUP2 MSTORE PUSH1 0x20 ADD SWAP1 DUP2 MSTORE PUSH1 0x20 ADD PUSH0 KECCAK256 PUSH0 DUP3 DUP3 SLOAD PUSH2 0x380 SWAP2 SWAP1 PUSH2 0x8A4 JUMP JUMPDEST SWAP3 POP POP DUP2 SWAP1 SSTORE POP PUSH1 0x1 PUSH1 0x2 PUSH0 DUP6 DUP2 MSTORE PUSH1 0x20 ADD SWAP1 DUP2 MSTORE PUSH1 0x20 ADD PUSH0 KECCAK256 PUSH0 DUP3 DUP3 SLOAD PUSH2 0x3A8 SWAP2 SWAP1 PUSH2 0x8A4 JUMP JUMPDEST SWAP3 POP POP DUP2 SWAP1 SSTORE POP PUSH1 0x1 PUSH1 0x3 PUSH0 DUP6 DUP2 MSTORE PUSH1 0x20 ADD SWAP1 DUP2 MSTORE PUSH1 0x20 ADD PUSH0 KECCAK256 PUSH0 DUP5 DUP2 MSTORE PUSH1 0x20 ADD SWAP1 DUP2 MSTORE PUSH1 0x20 ADD PUSH0 KECCAK256 PUSH0 PUSH2 0x100 EXP DUP2 SLOAD DUP2 PUSH1 0xFF MUL NOT AND SWAP1 DUP4 ISZERO ISZERO MUL OR SWAP1 SSTORE POP DUP1 PUSH1 0x4 PUSH0 DUP6 DUP2 MSTORE PUSH1 0x20 ADD SWAP1 DUP2 MSTORE PUSH1 0x20 ADD PUSH0 KECCAK256 PUSH0 DUP5 DUP2 MSTORE PUSH1 0x20 ADD SWAP1 DUP2 MSTORE PUSH1 0x20 ADD PUSH0 KECCAK256 DUP2 SWAP1 SSTORE POP DUP2 DUP4 PUSH32 0xC87C879FBDE2119679DA9F0EA35E544453550AB108497929C33344438C609D7E DUP4 PUSH1 0x40 MLOAD PUSH2 0x43D SWAP2 SWAP1 PUSH2 0x5E1 JUMP JUMPDEST PUSH1 0x40 MLOAD DUP1 SWAP2 SUB SWAP1 LOG3 JUMPDEST POP POP POP JUMP JUMPDEST PUSH0 PUSH0 SWAP1 SLOAD SWAP1 PUSH2 0x100 EXP SWAP1 DIV PUSH20 0xFFFFFFFFFFFFFFFFFFFFFFFFFFFFFFFFFFFFFFFF AND DUP2 JUMP JUMPDEST PUSH1 0x2 PUSH1 0x20 MSTORE DUP1 PUSH0 MSTORE PUSH1 0x40 PUSH0 KECCAK256 PUSH0 SWAP2 POP SWAP1 POP SLOAD DUP2 JUMP JUMPDEST PUSH1 0x3 PUSH1 0x20 MSTORE DUP2 PUSH0 MSTORE PUSH1 0x40 PUSH0 KECCAK256 PUSH1 0x20 MSTORE DUP1 PUSH0 MSTORE PUSH1 0x40 PUSH0 KECCAK256 PUSH0 SWAP2 POP SWAP2 POP SWAP1 SLOAD SWAP1 PUSH2 0x100 EXP SWAP1 DIV PUSH1 0xFF AND DUP2 JUMP JUMPDEST PUSH1 0x4 PUSH1 0x20 MSTORE DUP2 PUSH0 MSTORE PUSH1 0x40 PUSH0 KECCAK256 PUSH1 0x20 MSTORE DUP1 PUSH0 MSTORE PUSH1 0x40 PUSH0 KECCAK256 PUSH0 SWAP2 POP SWAP2 POP POP SLOAD DUP2 JUMP JUMPDEST PUSH1 0x1 PUSH1 0x20 MSTORE DUP1 PUSH0 MSTORE PUSH1 0x40 PUSH0 KECCAK256 PUSH0 SWAP2 POP SWAP1 POP SLOAD DUP2 JUMP JUMPDEST PUSH0 PUSH1 0x4 PUSH0 DUP6 DUP2 MSTORE PUSH1 0x20 ADD SWAP1 DUP2 MSTORE PUSH1 0x20 ADD PUSH0 KECCAK256 PUSH0 DUP5 DUP2 MSTORE PUSH1 0x20 ADD SWAP1 DUP2 MSTORE PUSH1 0x20 ADD PUSH0 KECCAK256 SLOAD SWAP1 POP DUP2 DUP2 PUSH1 0x1 PUSH0 DUP8 DUP2 MSTORE PUSH1 0x20 ADD SWAP1 DUP2 MSTORE PUSH1 0x20 ADD PUSH0 KECCAK256 SLOAD PUSH2 0x525 SWAP2 SWAP1 PUSH2 0x8D7 JUMP JUMPDEST PUSH2 0x52F SWAP2 SWAP1 PUSH2 0x8A4 JUMP JUMPDEST PUSH1 0x1 PUSH0 DUP7 DUP2 MSTORE PUSH1 0x20 ADD SWAP1 DUP2 MSTORE PUSH1 0x20 ADD PUSH0 KECCAK256 DUP2 SWAP1 SSTORE POP DUP2 PUSH1 0x4 PUSH0 DUP7 DUP2 MSTORE PUSH1 0x20 ADD SWAP1 DUP2 MSTORE PUSH1 0x20 ADD PUSH0 KECCAK256 PUSH0 DUP6 DUP2 MSTORE PUSH1 0x20 ADD SWAP1 DUP2 MSTORE PUSH1 0x20 ADD PUSH0 KECCAK256 DUP2 SWAP1 SSTORE POP SWAP4 SWAP3 POP POP POP JUMP JUMPDEST PUSH0 PUSH0 REVERT JUMPDEST PUSH0 DUP2 SWAP1 POP SWAP2 SWAP1 POP JUMP JUMPDEST PUSH2 0x586 DUP2 PUSH2 0x574 JUMP JUMPDEST DUP2 EQ PUSH2 0x590 JUMPI PUSH0 PUSH0 REVERT JUMPDEST POP JUMP JUMPDEST PUSH0 DUP2 CALLDATALOAD SWAP1 POP PUSH2 0x5A1 DUP2 PUSH2 0x57D JUMP JUMPDEST SWAP3 SWAP2 POP POP JUMP JUMPDEST PUSH0 PUSH1 0x20 DUP3 DUP5 SUB SLT ISZERO PUSH2 0x5BC JUMPI PUSH2 0x5BB PUSH2 0x570 JUMP JUMPDEST JUMPDEST PUSH0 PUSH2 0x5C9 DUP5 DUP3 DUP6 ADD PUSH2 0x593 JUMP JUMPDEST SWAP2 POP POP SWAP3 SWAP2 POP POP JUMP JUMPDEST PUSH2 0x5DB DUP2 PUSH2 0x574 JUMP JUMPDEST DUP3 MSTORE POP POP JUMP JUMPDEST PUSH0 PUSH1 0x20 DUP3 ADD SWAP1 POP PUSH2 0x5F4 PUSH0 DUP4 ADD DUP5 PUSH2 0x5D2 JUMP JUMPDEST SWAP3 SWAP2 POP POP JUMP JUMPDEST PUSH0 PUSH0 PUSH0 PUSH1 0x60 DUP5 DUP7 SUB SLT ISZERO PUSH2 0x611 JUMPI PUSH2 0x610 PUSH2 0x570 JUMP JUMPDEST JUMPDEST PUSH0 PUSH2 0x61E DUP7 DUP3 DUP8 ADD PUSH2 0x593 JUMP JUMPDEST SWAP4 POP POP PUSH1 0x20 PUSH2 0x62F DUP7 DUP3 DUP8 ADD PUSH2 0x593 JUMP JUMPDEST SWAP3 POP POP PUSH1 0x40 PUSH2 0x640 DUP7 DUP3 DUP8 ADD PUSH2 0x593 JUMP JUMPDEST SWAP2 POP POP SWAP3 POP SWAP3 POP SWAP3 JUMP JUMPDEST PUSH0 PUSH20 0xFFFFFFFFFFFFFFFFFFFFFFFFFFFFFFFFFFFFFFFF DUP3 AND SWAP1 POP SWAP2 SWAP1 POP JUMP JUMPDEST PUSH0 PUSH2 0x673 DUP3 PUSH2 0x64A JUMP JUMPDEST SWAP1 POP SWAP2 SWAP1 POP JUMP JUMPDEST PUSH2 0x683 DUP2 PUSH2 0x669 JUMP JUMPDEST DUP3 MSTORE POP POP JUMP JUMPDEST PUSH0 PUSH1 0x20 DUP3 ADD SWAP1 POP PUSH2 0x69C PUSH0 DUP4 ADD DUP5 PUSH2 0x67A JUMP JUMPDEST SWAP3 SWAP2 POP POP JUMP JUMPDEST PUSH0 PUSH0 PUSH1 0x40 DUP4 DUP6 SUB SLT ISZERO PUSH2 0x6B8 JUMPI PUSH2 0x6B7 PUSH2 0x570 JUMP JUMPDEST JUMPDEST PUSH0 PUSH2 0x6C5 DUP6 DUP3 DUP7 ADD PUSH2 0x593 JUMP JUMPDEST SWAP3 POP POP PUSH1 0x20 PUSH2 0x6D6 DUP6 DUP3 DUP7 ADD PUSH2 0x593 JUMP JUMPDEST SWAP2 POP POP SWAP3 POP SWAP3 SWAP1 POP JUMP JUMPDEST PUSH0 DUP2 ISZERO ISZERO SWAP1 POP SWAP2 SWAP1 POP JUMP JUMPDEST PUSH2 0x6F4 DUP2 PUSH2 0x6E0 JUMP JUMPDEST DUP3 MSTORE POP POP JUMP JUMPDEST PUSH0 PUSH1 0x20 DUP3 ADD SWAP1 POP PUSH2 0x70D PUSH0 DUP4 ADD DUP5 PUSH2 0x6EB JUMP JUMPDEST SWAP3 SWAP2 POP POP JUMP JUMPDEST PUSH32 0x4E487B7100000000000000000000000000000000000000000000000000000000 PUSH0 MSTORE PUSH1 0x12 PUSH1 0x4 MSTORE PUSH1 0x24 PUSH0 REVERT JUMPDEST PUSH32 0x4E487B7100000000000000000000000000000000000000000000000000000000 PUSH0 MSTORE PUSH1 0x11 PUSH1 0x4 MSTORE PUSH1 0x24 PUSH0 REVERT JUMPDEST PUSH0 PUSH2 0x777 DUP3 PUSH2 0x574 JUMP JUMPDEST SWAP2 POP PUSH2 0x782 DUP4 PUSH2 0x574 JUMP JUMPDEST SWAP3 POP DUP3 PUSH2 0x792 JUMPI PUSH2 0x791 PUSH2 0x713 JUMP JUMPDEST JUMPDEST DUP3 DUP3 DIV SWAP1 POP SWAP3 SWAP2 POP POP JUMP JUMPDEST PUSH0 DUP3 DUP3 MSTORE PUSH1 0x20 DUP3 ADD SWAP1 POP SWAP3 SWAP2 POP POP JUMP JUMPDEST PUSH32 0x4F6E6C7920436F6D706C61696E7452656769737472792063616E2063616C6C00 PUSH0 DUP3 ADD MSTORE POP JUMP JUMPDEST PUSH0 PUSH2 0x7E1 PUSH1 0x1F DUP4 PUSH2 0x79D JUMP JUMPDEST SWAP2 POP PUSH2 0x7EC DUP3 PUSH2 0x7AD JUMP JUMPDEST PUSH1 0x20 DUP3 ADD SWAP1 POP SWAP2 SWAP1 POP JUMP JUMPDEST PUSH0 PUSH1 0x20 DUP3 ADD SWAP1 POP DUP2 DUP2 SUB PUSH0 DUP4 ADD MSTORE PUSH2 0x80E DUP2 PUSH2 0x7D5 JUMP JUMPDEST SWAP1 POP SWAP2 SWAP1 POP JUMP JUMPDEST PUSH32 0x53636F7265206D757374206265206265747765656E203120616E642031300000 PUSH0 DUP3 ADD MSTORE POP JUMP JUMPDEST PUSH0 PUSH2 0x849 PUSH1 0x1E DUP4 PUSH2 0x79D JUMP JUMPDEST SWAP2 POP PUSH2 0x854 DUP3 PUSH2 0x815 JUMP JUMPDEST PUSH1 0x20 DUP3 ADD SWAP1 POP SWAP2 SWAP1 POP JUMP JUMPDEST PUSH0 PUSH1 0x20 DUP3 ADD SWAP1 POP DUP2 DUP2 SUB PUSH0 DUP4 ADD MSTORE PUSH2 0x876 DUP2 PUSH2 0x83D JUMP JUMPDEST SWAP1 POP SWAP2 SWAP1 POP JUMP JUMPDEST PUSH0 PUSH1 0x40 DUP3 ADD SWAP1 POP PUSH2 0x890 PUSH0 DUP4 ADD DUP6 PUSH2 0x5D2 JUMP JUMPDEST PUSH2 0x89D PUSH1 0x20 DUP4 ADD DUP5 PUSH2 0x5D2 JUMP JUMPDEST SWAP4 SWAP3 POP POP POP JUMP JUMPDEST PUSH0 PUSH2 0x8AE DUP3 PUSH2 0x574 JUMP JUMPDEST SWAP2 POP PUSH2 0x8B9 DUP4 PUSH2 0x574 JUMP JUMPDEST SWAP3 POP DUP3 DUP3 ADD SWAP1 POP DUP1 DUP3 GT ISZERO PUSH2 0x8D1 JUMPI PUSH2 0x8D0 PUSH2 0x740 JUMP JUMPDEST JUMPDEST SWAP3 SWAP2 POP POP JUMP JUMPDEST PUSH0 PUSH2 0x8E1 DUP3 PUSH2 0x574 JUMP JUMPDEST SWAP2 POP PUSH2 0x8EC DUP4 PUSH2 0x574 JUMP JUMPDEST SWAP3 POP DUP3 DUP3 SUB SWAP1 POP DUP2 DUP2 GT ISZERO PUSH2 0x904 JUMPI PUSH2 0x903 PUSH2 0x740 JUMP JUMPDEST JUMPDEST SWAP3 SWAP2 POP POP JUMP INVALID LOG2 PUSH5 0x6970667358 0x22 SLT KECCAK256 0xBB SLT SAR SLOAD 0xBA 0xF7 0xAE 0xE2 EXTCODEHASH 0xE8 DUP10 0x23 PUSH5 0x49E135D2D5 PUSH29 0x481C096A47448FD6E5C35AB0AB64736F6C634300081E00330000000000 "
				},
				"gasEstimates": {
					"creation": {
						"codeDepositCost": "473600",
						"executionCost": "24767",
						"totalCost": "498367"
					},
					"external": {
						"complaintRegistry()": "2552",
						"getScore(uint256)": "infinite",
						"hasRated(uint256,uint256)": "infinite",
						"reviewCount(uint256)": "infinite",
						"totalScore(uint256)": "infinite",
						"updateScore(uint256,uint256,uint256)": "infinite",
						"userRating(uint256,uint256)": "infinite"
					},
					"internal": {
						"updateExistingScore(uint256,uint256,uint256)": "infinite"
					}
				},
				"methodIdentifiers": {
					"complaintRegistry()": "4f0961e4",
					"getScore(uint256)": "0e1af57b",
					"hasRated(uint256,uint256)": "7bdb43ae",
					"reviewCount(uint256)": "6061eec4",
					"totalScore(uint256)": "ff595f78",
					"updateScore(uint256,uint256,uint256)": "3f0a92fb",
					"userRating(uint256,uint256)": "98413f5d"
				}
			},
			"storageLayout": {
				"storage": [
					{
						"astId": 3,
						"contract": "assessment3/ReputationCalculation.sol:ReputationCalculation",
						"label": "complaintRegistry",
						"offset": 0,
						"slot": "0",
						"type": "t_address"
					},
					{
						"astId": 7,
						"contract": "assessment3/ReputationCalculation.sol:ReputationCalculation",
						"label": "totalScore",
						"offset": 0,
						"slot": "1",
						"type": "t_mapping(t_uint256,t_uint256)"
					},
					{
						"astId": 11,
						"contract": "assessment3/ReputationCalculation.sol:ReputationCalculation",
						"label": "reviewCount",
						"offset": 0,
						"slot": "2",
						"type": "t_mapping(t_uint256,t_uint256)"
					},
					{
						"astId": 17,
						"contract": "assessment3/ReputationCalculation.sol:ReputationCalculation",
						"label": "hasRated",
						"offset": 0,
						"slot": "3",
						"type": "t_mapping(t_uint256,t_mapping(t_uint256,t_bool))"
					},
					{
						"astId": 23,
						"contract": "assessment3/ReputationCalculation.sol:ReputationCalculation",
						"label": "userRating",
						"offset": 0,
						"slot": "4",
						"type": "t_mapping(t_uint256,t_mapping(t_uint256,t_uint256))"
					}
				],
				"types": {
					"t_address": {
						"encoding": "inplace",
						"label": "address",
						"numberOfBytes": "20"
					},
					"t_bool": {
						"encoding": "inplace",
						"label": "bool",
						"numberOfBytes": "1"
					},
					"t_mapping(t_uint256,t_bool)": {
						"encoding": "mapping",
						"key": "t_uint256",
						"label": "mapping(uint256 => bool)",
						"numberOfBytes": "32",
						"value": "t_bool"
					},
					"t_mapping(t_uint256,t_mapping(t_uint256,t_bool))": {
						"encoding": "mapping",
						"key": "t_uint256",
						"label": "mapping(uint256 => mapping(uint256 => bool))",
						"numberOfBytes": "32",
						"value": "t_mapping(t_uint256,t_bool)"
					},
					"t_mapping(t_uint256,t_mapping(t_uint256,t_uint256))": {
						"encoding": "mapping",
						"key": "t_uint256",
						"label": "mapping(uint256 => mapping(uint256 => uint256))",
						"numberOfBytes": "32",
						"value": "t_mapping(t_uint256,t_uint256)"
					},
					"t_mapping(t_uint256,t_uint256)": {
						"encoding": "mapping",
						"key": "t_uint256",
						"label": "mapping(uint256 => uint256)",
						"numberOfBytes": "32",
						"value": "t_uint256"
					},
					"t_uint256": {
						"encoding": "inplace",
						"label": "uint256",
						"numberOfBytes": "32"
					}
				}
			},
			"userdoc": {
				"kind": "user",
				"methods": {},
				"version": 1
			}
		}
	}
}