{
	"assessment3/ReputationCalculation.sol": {
		"ReputationCalculation": {
			"abi": [
				{
					"inputs": [],
					"stateMutability": "nonpayable",
					"type": "constructor"
				},
				{
					"anonymous": false,
					"inputs": [
						{
							"indexed": true,
							"internalType": "uint256",
							"name": "orgId",
							"type": "uint256"
						},
						{
							"indexed": true,
							"internalType": "address",
							"name": "user",
							"type": "address"
						},
						{
							"indexed": false,
							"internalType": "uint256",
							"name": "score",
							"type": "uint256"
						}
					],
					"name": "ScoreAdded",
					"type": "event"
				},
				{
					"anonymous": false,
					"inputs": [
						{
							"indexed": true,
							"internalType": "uint256",
							"name": "orgId",
							"type": "uint256"
						},
						{
							"indexed": true,
							"internalType": "address",
							"name": "user",
							"type": "address"
						},
						{
							"indexed": false,
							"internalType": "uint256",
							"name": "oldScore",
							"type": "uint256"
						},
						{
							"indexed": false,
							"internalType": "uint256",
							"name": "newScore",
							"type": "uint256"
						}
					],
					"name": "ScoreUpdated",
					"type": "event"
				},
				{
					"inputs": [],
					"name": "complaintRegistry",
					"outputs": [
						{
							"internalType": "address",
							"name": "",
							"type": "address"
						}
					],
					"stateMutability": "view",
					"type": "function"
				},
				{
					"inputs": [
						{
							"internalType": "uint256",
							"name": "orgId",
							"type": "uint256"
						}
					],
					"name": "getScore",
					"outputs": [
						{
							"internalType": "uint256",
							"name": "",
							"type": "uint256"
						}
					],
					"stateMutability": "view",
					"type": "function"
				},
				{
					"inputs": [
						{
							"internalType": "uint256",
							"name": "",
							"type": "uint256"
						},
						{
							"internalType": "address",
							"name": "",
							"type": "address"
						}
					],
					"name": "hasRated",
					"outputs": [
						{
							"internalType": "bool",
							"name": "",
							"type": "bool"
						}
					],
					"stateMutability": "view",
					"type": "function"
				},
				{
					"inputs": [
						{
							"internalType": "uint256",
							"name": "",
							"type": "uint256"
						}
					],
					"name": "reviewCount",
					"outputs": [
						{
							"internalType": "uint256",
							"name": "",
							"type": "uint256"
						}
					],
					"stateMutability": "view",
					"type": "function"
				},
				{
					"inputs": [
						{
							"internalType": "uint256",
							"name": "",
							"type": "uint256"
						}
					],
					"name": "totalScore",
					"outputs": [
						{
							"internalType": "uint256",
							"name": "",
							"type": "uint256"
						}
					],
					"stateMutability": "view",
					"type": "function"
				},
				{
					"inputs": [
						{
							"internalType": "uint256",
							"name": "orgId",
							"type": "uint256"
						},
						{
							"internalType": "address",
							"name": "user",
							"type": "address"
						},
						{
							"internalType": "uint256",
							"name": "score",
							"type": "uint256"
						}
					],
					"name": "updateScore",
					"outputs": [],
					"stateMutability": "nonpayable",
					"type": "function"
				},
				{
					"inputs": [
						{
							"internalType": "uint256",
							"name": "",
							"type": "uint256"
						},
						{
							"internalType": "address",
							"name": "",
							"type": "address"
						}
					],
					"name": "userRating",
					"outputs": [
						{
							"internalType": "uint256",
							"name": "",
							"type": "uint256"
						}
					],
					"stateMutability": "view",
					"type": "function"
				}
			],
			"devdoc": {
				"kind": "dev",
				"methods": {},
				"version": 1
			},
			"evm": {
				"assembly": "    /* \"assessment3/ReputationCalculation.sol\":96:1997  contract ReputationCalculation {... */\n  mstore(0x40, 0x80)\n    /* \"assessment3/ReputationCalculation.sol\":747:810  constructor() {... */\n  callvalue\n  dup1\n  iszero\n  tag_1\n  jumpi\n  revert(0x00, 0x00)\ntag_1:\n  pop\n    /* \"assessment3/ReputationCalculation.sol\":792:802  msg.sender */\n  caller\n    /* \"assessment3/ReputationCalculation.sol\":772:789  complaintRegistry */\n  0x00\n  0x00\n    /* \"assessment3/ReputationCalculation.sol\":772:802  complaintRegistry = msg.sender */\n  0x0100\n  exp\n  dup2\n  sload\n  dup2\n  0xffffffffffffffffffffffffffffffffffffffff\n  mul\n  not\n  and\n  swap1\n  dup4\n  0xffffffffffffffffffffffffffffffffffffffff\n  and\n  mul\n  or\n  swap1\n  sstore\n  pop\n    /* \"assessment3/ReputationCalculation.sol\":96:1997  contract ReputationCalculation {... */\n  dataSize(sub_0)\n  dup1\n  dataOffset(sub_0)\n  0x00\n  codecopy\n  0x00\n  return\nstop\n\nsub_0: assembly {\n        /* \"assessment3/ReputationCalculation.sol\":96:1997  contract ReputationCalculation {... */\n      mstore(0x40, 0x80)\n      callvalue\n      dup1\n      iszero\n      tag_1\n      jumpi\n      revert(0x00, 0x00)\n    tag_1:\n      pop\n      jumpi(tag_2, lt(calldatasize, 0x04))\n      shr(0xe0, calldataload(0x00))\n      dup1\n      0x6061eec4\n      gt\n      tag_10\n      jumpi\n      dup1\n      0x6061eec4\n      eq\n      tag_6\n      jumpi\n      dup1\n      0x76454486\n      eq\n      tag_7\n      jumpi\n      dup1\n      0xa9d7a87e\n      eq\n      tag_8\n      jumpi\n      dup1\n      0xff595f78\n      eq\n      tag_9\n      jumpi\n      jump(tag_2)\n    tag_10:\n      dup1\n      0x0e1af57b\n      eq\n      tag_3\n      jumpi\n      dup1\n      0x1eee0596\n      eq\n      tag_4\n      jumpi\n      dup1\n      0x4f0961e4\n      eq\n      tag_5\n      jumpi\n    tag_2:\n      revert(0x00, 0x00)\n        /* \"assessment3/ReputationCalculation.sol\":1787:1960  function getScore(uint orgId) public view returns (uint) {... */\n    tag_3:\n      tag_11\n      0x04\n      dup1\n      calldatasize\n      sub\n      dup2\n      add\n      swap1\n      tag_12\n      swap2\n      swap1\n      tag_13\n      jump\t// in\n    tag_12:\n      tag_14\n      jump\t// in\n    tag_11:\n      mload(0x40)\n      tag_15\n      swap2\n      swap1\n      tag_16\n      jump\t// in\n    tag_15:\n      mload(0x40)\n      dup1\n      swap2\n      sub\n      swap1\n      return\n        /* \"assessment3/ReputationCalculation.sol\":335:400  mapping(uint256 => mapping(address => uint256)) public userRating */\n    tag_4:\n      tag_17\n      0x04\n      dup1\n      calldatasize\n      sub\n      dup2\n      add\n      swap1\n      tag_18\n      swap2\n      swap1\n      tag_19\n      jump\t// in\n    tag_18:\n      tag_20\n      jump\t// in\n    tag_17:\n      mload(0x40)\n      tag_21\n      swap2\n      swap1\n      tag_16\n      jump\t// in\n    tag_21:\n      mload(0x40)\n      dup1\n      swap2\n      sub\n      swap1\n      return\n        /* \"assessment3/ReputationCalculation.sol\":134:166  address public complaintRegistry */\n    tag_5:\n      tag_22\n      tag_23\n      jump\t// in\n    tag_22:\n      mload(0x40)\n      tag_24\n      swap2\n      swap1\n      tag_25\n      jump\t// in\n    tag_24:\n      mload(0x40)\n      dup1\n      swap2\n      sub\n      swap1\n      return\n        /* \"assessment3/ReputationCalculation.sol\":221:261  mapping(uint => uint) public reviewCount */\n    tag_6:\n      tag_26\n      0x04\n      dup1\n      calldatasize\n      sub\n      dup2\n      add\n      swap1\n      tag_27\n      swap2\n      swap1\n      tag_13\n      jump\t// in\n    tag_27:\n      tag_28\n      jump\t// in\n    tag_26:\n      mload(0x40)\n      tag_29\n      swap2\n      swap1\n      tag_16\n      jump\t// in\n    tag_29:\n      mload(0x40)\n      dup1\n      swap2\n      sub\n      swap1\n      return\n        /* \"assessment3/ReputationCalculation.sol\":268:328  mapping(uint256 => mapping(address => bool)) public hasRated */\n    tag_7:\n      tag_30\n      0x04\n      dup1\n      calldatasize\n      sub\n      dup2\n      add\n      swap1\n      tag_31\n      swap2\n      swap1\n      tag_19\n      jump\t// in\n    tag_31:\n      tag_32\n      jump\t// in\n    tag_30:\n      mload(0x40)\n      tag_33\n      swap2\n      swap1\n      tag_34\n      jump\t// in\n    tag_33:\n      mload(0x40)\n      dup1\n      swap2\n      sub\n      swap1\n      return\n        /* \"assessment3/ReputationCalculation.sol\":1139:1714  function updateScore (uint orgId, address user, uint score) public {... */\n    tag_8:\n      tag_35\n      0x04\n      dup1\n      calldatasize\n      sub\n      dup2\n      add\n      swap1\n      tag_36\n      swap2\n      swap1\n      tag_37\n      jump\t// in\n    tag_36:\n      tag_38\n      jump\t// in\n    tag_35:\n      stop\n        /* \"assessment3/ReputationCalculation.sol\":175:214  mapping(uint => uint) public totalScore */\n    tag_9:\n      tag_39\n      0x04\n      dup1\n      calldatasize\n      sub\n      dup2\n      add\n      swap1\n      tag_40\n      swap2\n      swap1\n      tag_13\n      jump\t// in\n    tag_40:\n      tag_41\n      jump\t// in\n    tag_39:\n      mload(0x40)\n      tag_42\n      swap2\n      swap1\n      tag_16\n      jump\t// in\n    tag_42:\n      mload(0x40)\n      dup1\n      swap2\n      sub\n      swap1\n      return\n        /* \"assessment3/ReputationCalculation.sol\":1787:1960  function getScore(uint orgId) public view returns (uint) {... */\n    tag_14:\n        /* \"assessment3/ReputationCalculation.sol\":1838:1842  uint */\n      0x00\n        /* \"assessment3/ReputationCalculation.sol\":1881:1882  0 */\n      0x00\n        /* \"assessment3/ReputationCalculation.sol\":1859:1870  reviewCount */\n      0x02\n        /* \"assessment3/ReputationCalculation.sol\":1859:1877  reviewCount[orgId] */\n      0x00\n        /* \"assessment3/ReputationCalculation.sol\":1871:1876  orgId */\n      dup5\n        /* \"assessment3/ReputationCalculation.sol\":1859:1877  reviewCount[orgId] */\n      dup2\n      mstore\n      0x20\n      add\n      swap1\n      dup2\n      mstore\n      0x20\n      add\n      0x00\n      keccak256\n      sload\n        /* \"assessment3/ReputationCalculation.sol\":1859:1882  reviewCount[orgId] == 0 */\n      sub\n        /* \"assessment3/ReputationCalculation.sol\":1855:1897  if (reviewCount[orgId] == 0) { return 0; } */\n      tag_44\n      jumpi\n        /* \"assessment3/ReputationCalculation.sol\":1893:1894  0 */\n      0x00\n        /* \"assessment3/ReputationCalculation.sol\":1886:1894  return 0 */\n      swap1\n      pop\n      jump(tag_43)\n        /* \"assessment3/ReputationCalculation.sol\":1855:1897  if (reviewCount[orgId] == 0) { return 0; } */\n    tag_44:\n        /* \"assessment3/ReputationCalculation.sol\":1934:1945  reviewCount */\n      0x02\n        /* \"assessment3/ReputationCalculation.sol\":1934:1952  reviewCount[orgId] */\n      0x00\n        /* \"assessment3/ReputationCalculation.sol\":1946:1951  orgId */\n      dup4\n        /* \"assessment3/ReputationCalculation.sol\":1934:1952  reviewCount[orgId] */\n      dup2\n      mstore\n      0x20\n      add\n      swap1\n      dup2\n      mstore\n      0x20\n      add\n      0x00\n      keccak256\n      sload\n        /* \"assessment3/ReputationCalculation.sol\":1914:1924  totalScore */\n      0x01\n        /* \"assessment3/ReputationCalculation.sol\":1914:1931  totalScore[orgId] */\n      0x00\n        /* \"assessment3/ReputationCalculation.sol\":1925:1930  orgId */\n      dup5\n        /* \"assessment3/ReputationCalculation.sol\":1914:1931  totalScore[orgId] */\n      dup2\n      mstore\n      0x20\n      add\n      swap1\n      dup2\n      mstore\n      0x20\n      add\n      0x00\n      keccak256\n      sload\n        /* \"assessment3/ReputationCalculation.sol\":1914:1952  totalScore[orgId] / reviewCount[orgId] */\n      tag_45\n      swap2\n      swap1\n      tag_46\n      jump\t// in\n    tag_45:\n        /* \"assessment3/ReputationCalculation.sol\":1907:1952  return totalScore[orgId] / reviewCount[orgId] */\n      swap1\n      pop\n        /* \"assessment3/ReputationCalculation.sol\":1787:1960  function getScore(uint orgId) public view returns (uint) {... */\n    tag_43:\n      swap2\n      swap1\n      pop\n      jump\t// out\n        /* \"assessment3/ReputationCalculation.sol\":335:400  mapping(uint256 => mapping(address => uint256)) public userRating */\n    tag_20:\n      mstore(0x20, 0x04)\n      dup2\n      0x00\n      mstore\n      mstore(0x20, keccak256(0x00, 0x40))\n      dup1\n      0x00\n      mstore\n      keccak256(0x00, 0x40)\n      0x00\n      swap2\n      pop\n      swap2\n      pop\n      pop\n      sload\n      dup2\n      jump\t// out\n        /* \"assessment3/ReputationCalculation.sol\":134:166  address public complaintRegistry */\n    tag_23:\n      0x00\n      0x00\n      swap1\n      sload\n      swap1\n      0x0100\n      exp\n      swap1\n      div\n      0xffffffffffffffffffffffffffffffffffffffff\n      and\n      dup2\n      jump\t// out\n        /* \"assessment3/ReputationCalculation.sol\":221:261  mapping(uint => uint) public reviewCount */\n    tag_28:\n      mstore(0x20, 0x02)\n      dup1\n      0x00\n      mstore\n      keccak256(0x00, 0x40)\n      0x00\n      swap2\n      pop\n      swap1\n      pop\n      sload\n      dup2\n      jump\t// out\n        /* \"assessment3/ReputationCalculation.sol\":268:328  mapping(uint256 => mapping(address => bool)) public hasRated */\n    tag_32:\n      mstore(0x20, 0x03)\n      dup2\n      0x00\n      mstore\n      mstore(0x20, keccak256(0x00, 0x40))\n      dup1\n      0x00\n      mstore\n      keccak256(0x00, 0x40)\n      0x00\n      swap2\n      pop\n      swap2\n      pop\n      swap1\n      sload\n      swap1\n      0x0100\n      exp\n      swap1\n      div\n      0xff\n      and\n      dup2\n      jump\t// out\n        /* \"assessment3/ReputationCalculation.sol\":1139:1714  function updateScore (uint orgId, address user, uint score) public {... */\n    tag_38:\n        /* \"assessment3/ReputationCalculation.sol\":1234:1235  1 */\n      0x01\n        /* \"assessment3/ReputationCalculation.sol\":1225:1230  score */\n      dup2\n        /* \"assessment3/ReputationCalculation.sol\":1225:1235  score >= 1 */\n      lt\n      iszero\n        /* \"assessment3/ReputationCalculation.sol\":1225:1250  score >= 1 && score <= 10 */\n      dup1\n      iszero\n      tag_48\n      jumpi\n      pop\n        /* \"assessment3/ReputationCalculation.sol\":1248:1250  10 */\n      0x0a\n        /* \"assessment3/ReputationCalculation.sol\":1239:1244  score */\n      dup2\n        /* \"assessment3/ReputationCalculation.sol\":1239:1250  score <= 10 */\n      gt\n      iszero\n        /* \"assessment3/ReputationCalculation.sol\":1225:1250  score >= 1 && score <= 10 */\n    tag_48:\n        /* \"assessment3/ReputationCalculation.sol\":1217:1285  require(score >= 1 && score <= 10, \"Score must be between 1 and 10\") */\n      tag_49\n      jumpi\n      mload(0x40)\n      0x08c379a000000000000000000000000000000000000000000000000000000000\n      dup2\n      mstore\n      0x04\n      add\n      tag_50\n      swap1\n      tag_51\n      jump\t// in\n    tag_50:\n      mload(0x40)\n      dup1\n      swap2\n      sub\n      swap1\n      revert\n    tag_49:\n        /* \"assessment3/ReputationCalculation.sol\":1302:1310  hasRated */\n      0x03\n        /* \"assessment3/ReputationCalculation.sol\":1302:1317  hasRated[orgId] */\n      0x00\n        /* \"assessment3/ReputationCalculation.sol\":1311:1316  orgId */\n      dup5\n        /* \"assessment3/ReputationCalculation.sol\":1302:1317  hasRated[orgId] */\n      dup2\n      mstore\n      0x20\n      add\n      swap1\n      dup2\n      mstore\n      0x20\n      add\n      0x00\n      keccak256\n        /* \"assessment3/ReputationCalculation.sol\":1302:1323  hasRated[orgId][user] */\n      0x00\n        /* \"assessment3/ReputationCalculation.sol\":1318:1322  user */\n      dup4\n        /* \"assessment3/ReputationCalculation.sol\":1302:1323  hasRated[orgId][user] */\n      0xffffffffffffffffffffffffffffffffffffffff\n      and\n      0xffffffffffffffffffffffffffffffffffffffff\n      and\n      dup2\n      mstore\n      0x20\n      add\n      swap1\n      dup2\n      mstore\n      0x20\n      add\n      0x00\n      keccak256\n      0x00\n      swap1\n      sload\n      swap1\n      0x0100\n      exp\n      swap1\n      div\n      0xff\n      and\n        /* \"assessment3/ReputationCalculation.sol\":1298:1707  if (hasRated[orgId][user]) {... */\n      iszero\n      tag_52\n      jumpi\n        /* \"assessment3/ReputationCalculation.sol\":1340:1353  uint oldScore */\n      0x00\n        /* \"assessment3/ReputationCalculation.sol\":1356:1395  updateExistingScore(orgId, user, score) */\n      tag_53\n        /* \"assessment3/ReputationCalculation.sol\":1376:1381  orgId */\n      dup5\n        /* \"assessment3/ReputationCalculation.sol\":1383:1387  user */\n      dup5\n        /* \"assessment3/ReputationCalculation.sol\":1389:1394  score */\n      dup5\n        /* \"assessment3/ReputationCalculation.sol\":1356:1375  updateExistingScore */\n      tag_54\n        /* \"assessment3/ReputationCalculation.sol\":1356:1395  updateExistingScore(orgId, user, score) */\n      jump\t// in\n    tag_53:\n        /* \"assessment3/ReputationCalculation.sol\":1340:1395  uint oldScore = updateExistingScore(orgId, user, score) */\n      swap1\n      pop\n        /* \"assessment3/ReputationCalculation.sol\":1437:1441  user */\n      dup3\n        /* \"assessment3/ReputationCalculation.sol\":1417:1459  ScoreUpdated(orgId, user, oldScore, score) */\n      0xffffffffffffffffffffffffffffffffffffffff\n      and\n        /* \"assessment3/ReputationCalculation.sol\":1430:1435  orgId */\n      dup5\n        /* \"assessment3/ReputationCalculation.sol\":1417:1459  ScoreUpdated(orgId, user, oldScore, score) */\n      0x013c935981de36bae0fbb3d8771f4fe4adfa8ce83107c0d6bfca39c8f7899b55\n        /* \"assessment3/ReputationCalculation.sol\":1443:1451  oldScore */\n      dup4\n        /* \"assessment3/ReputationCalculation.sol\":1453:1458  score */\n      dup6\n        /* \"assessment3/ReputationCalculation.sol\":1417:1459  ScoreUpdated(orgId, user, oldScore, score) */\n      mload(0x40)\n      tag_55\n      swap3\n      swap2\n      swap1\n      tag_56\n      jump\t// in\n    tag_55:\n      mload(0x40)\n      dup1\n      swap2\n      sub\n      swap1\n      log3\n        /* \"assessment3/ReputationCalculation.sol\":1325:1471  {... */\n      pop\n        /* \"assessment3/ReputationCalculation.sol\":1298:1707  if (hasRated[orgId][user]) {... */\n      jump(tag_57)\n    tag_52:\n        /* \"assessment3/ReputationCalculation.sol\":1513:1518  score */\n      dup1\n        /* \"assessment3/ReputationCalculation.sol\":1492:1502  totalScore */\n      0x01\n        /* \"assessment3/ReputationCalculation.sol\":1492:1509  totalScore[orgId] */\n      0x00\n        /* \"assessment3/ReputationCalculation.sol\":1503:1508  orgId */\n      dup6\n        /* \"assessment3/ReputationCalculation.sol\":1492:1509  totalScore[orgId] */\n      dup2\n      mstore\n      0x20\n      add\n      swap1\n      dup2\n      mstore\n      0x20\n      add\n      0x00\n      keccak256\n      0x00\n        /* \"assessment3/ReputationCalculation.sol\":1492:1518  totalScore[orgId] += score */\n      dup3\n      dup3\n      sload\n      tag_58\n      swap2\n      swap1\n      tag_59\n      jump\t// in\n    tag_58:\n      swap3\n      pop\n      pop\n      dup2\n      swap1\n      sstore\n      pop\n        /* \"assessment3/ReputationCalculation.sol\":1553:1554  1 */\n      0x01\n        /* \"assessment3/ReputationCalculation.sol\":1533:1544  reviewCount */\n      0x02\n        /* \"assessment3/ReputationCalculation.sol\":1533:1551  reviewCount[orgId] */\n      0x00\n        /* \"assessment3/ReputationCalculation.sol\":1545:1550  orgId */\n      dup6\n        /* \"assessment3/ReputationCalculation.sol\":1533:1551  reviewCount[orgId] */\n      dup2\n      mstore\n      0x20\n      add\n      swap1\n      dup2\n      mstore\n      0x20\n      add\n      0x00\n      keccak256\n      sload\n        /* \"assessment3/ReputationCalculation.sol\":1533:1554  reviewCount[orgId] +1 */\n      tag_60\n      swap2\n      swap1\n      tag_59\n      jump\t// in\n    tag_60:\n      pop\n        /* \"assessment3/ReputationCalculation.sol\":1593:1597  true */\n      0x01\n        /* \"assessment3/ReputationCalculation.sol\":1569:1577  hasRated */\n      0x03\n        /* \"assessment3/ReputationCalculation.sol\":1569:1584  hasRated[orgId] */\n      0x00\n        /* \"assessment3/ReputationCalculation.sol\":1578:1583  orgId */\n      dup6\n        /* \"assessment3/ReputationCalculation.sol\":1569:1584  hasRated[orgId] */\n      dup2\n      mstore\n      0x20\n      add\n      swap1\n      dup2\n      mstore\n      0x20\n      add\n      0x00\n      keccak256\n        /* \"assessment3/ReputationCalculation.sol\":1569:1590  hasRated[orgId][user] */\n      0x00\n        /* \"assessment3/ReputationCalculation.sol\":1585:1589  user */\n      dup5\n        /* \"assessment3/ReputationCalculation.sol\":1569:1590  hasRated[orgId][user] */\n      0xffffffffffffffffffffffffffffffffffffffff\n      and\n      0xffffffffffffffffffffffffffffffffffffffff\n      and\n      dup2\n      mstore\n      0x20\n      add\n      swap1\n      dup2\n      mstore\n      0x20\n      add\n      0x00\n      keccak256\n      0x00\n        /* \"assessment3/ReputationCalculation.sol\":1569:1597  hasRated[orgId][user] = true */\n      0x0100\n      exp\n      dup2\n      sload\n      dup2\n      0xff\n      mul\n      not\n      and\n      swap1\n      dup4\n      iszero\n      iszero\n      mul\n      or\n      swap1\n      sstore\n      pop\n        /* \"assessment3/ReputationCalculation.sol\":1638:1643  score */\n      dup1\n        /* \"assessment3/ReputationCalculation.sol\":1612:1622  userRating */\n      0x04\n        /* \"assessment3/ReputationCalculation.sol\":1612:1629  userRating[orgId] */\n      0x00\n        /* \"assessment3/ReputationCalculation.sol\":1623:1628  orgId */\n      dup6\n        /* \"assessment3/ReputationCalculation.sol\":1612:1629  userRating[orgId] */\n      dup2\n      mstore\n      0x20\n      add\n      swap1\n      dup2\n      mstore\n      0x20\n      add\n      0x00\n      keccak256\n        /* \"assessment3/ReputationCalculation.sol\":1612:1635  userRating[orgId][user] */\n      0x00\n        /* \"assessment3/ReputationCalculation.sol\":1630:1634  user */\n      dup5\n        /* \"assessment3/ReputationCalculation.sol\":1612:1635  userRating[orgId][user] */\n      0xffffffffffffffffffffffffffffffffffffffff\n      and\n      0xffffffffffffffffffffffffffffffffffffffff\n      and\n      dup2\n      mstore\n      0x20\n      add\n      swap1\n      dup2\n      mstore\n      0x20\n      add\n      0x00\n      keccak256\n        /* \"assessment3/ReputationCalculation.sol\":1612:1643  userRating[orgId][user] = score */\n      dup2\n      swap1\n      sstore\n      pop\n        /* \"assessment3/ReputationCalculation.sol\":1683:1687  user */\n      dup2\n        /* \"assessment3/ReputationCalculation.sol\":1665:1695  ScoreAdded(orgId, user, score) */\n      0xffffffffffffffffffffffffffffffffffffffff\n      and\n        /* \"assessment3/ReputationCalculation.sol\":1676:1681  orgId */\n      dup4\n        /* \"assessment3/ReputationCalculation.sol\":1665:1695  ScoreAdded(orgId, user, score) */\n      0x5c9ee89daf7499b1322ef28b6736f28233e47eefdefffee6ab61683593f77864\n        /* \"assessment3/ReputationCalculation.sol\":1689:1694  score */\n      dup4\n        /* \"assessment3/ReputationCalculation.sol\":1665:1695  ScoreAdded(orgId, user, score) */\n      mload(0x40)\n      tag_61\n      swap2\n      swap1\n      tag_16\n      jump\t// in\n    tag_61:\n      mload(0x40)\n      dup1\n      swap2\n      sub\n      swap1\n      log3\n        /* \"assessment3/ReputationCalculation.sol\":1298:1707  if (hasRated[orgId][user]) {... */\n    tag_57:\n        /* \"assessment3/ReputationCalculation.sol\":1139:1714  function updateScore (uint orgId, address user, uint score) public {... */\n      pop\n      pop\n      pop\n      jump\t// out\n        /* \"assessment3/ReputationCalculation.sol\":175:214  mapping(uint => uint) public totalScore */\n    tag_41:\n      mstore(0x20, 0x01)\n      dup1\n      0x00\n      mstore\n      keccak256(0x00, 0x40)\n      0x00\n      swap2\n      pop\n      swap1\n      pop\n      sload\n      dup2\n      jump\t// out\n        /* \"assessment3/ReputationCalculation.sol\":818:1131  function updateExistingScore (uint orgId, address user, uint newScore) private ... */\n    tag_54:\n        /* \"assessment3/ReputationCalculation.sol\":916:929  uint oldScore */\n      0x00\n        /* \"assessment3/ReputationCalculation.sol\":959:969  userRating */\n      0x04\n        /* \"assessment3/ReputationCalculation.sol\":959:976  userRating[orgId] */\n      0x00\n        /* \"assessment3/ReputationCalculation.sol\":970:975  orgId */\n      dup6\n        /* \"assessment3/ReputationCalculation.sol\":959:976  userRating[orgId] */\n      dup2\n      mstore\n      0x20\n      add\n      swap1\n      dup2\n      mstore\n      0x20\n      add\n      0x00\n      keccak256\n        /* \"assessment3/ReputationCalculation.sol\":959:982  userRating[orgId][user] */\n      0x00\n        /* \"assessment3/ReputationCalculation.sol\":977:981  user */\n      dup5\n        /* \"assessment3/ReputationCalculation.sol\":959:982  userRating[orgId][user] */\n      0xffffffffffffffffffffffffffffffffffffffff\n      and\n      0xffffffffffffffffffffffffffffffffffffffff\n      and\n      dup2\n      mstore\n      0x20\n      add\n      swap1\n      dup2\n      mstore\n      0x20\n      add\n      0x00\n      keccak256\n      sload\n        /* \"assessment3/ReputationCalculation.sol\":948:982  oldScore = userRating[orgId][user] */\n      swap1\n      pop\n        /* \"assessment3/ReputationCalculation.sol\":1044:1052  newScore */\n      dup2\n        /* \"assessment3/ReputationCalculation.sol\":1033:1041  oldScore */\n      dup2\n        /* \"assessment3/ReputationCalculation.sol\":1013:1023  totalScore */\n      0x01\n        /* \"assessment3/ReputationCalculation.sol\":1013:1030  totalScore[orgId] */\n      0x00\n        /* \"assessment3/ReputationCalculation.sol\":1024:1029  orgId */\n      dup8\n        /* \"assessment3/ReputationCalculation.sol\":1013:1030  totalScore[orgId] */\n      dup2\n      mstore\n      0x20\n      add\n      swap1\n      dup2\n      mstore\n      0x20\n      add\n      0x00\n      keccak256\n      sload\n        /* \"assessment3/ReputationCalculation.sol\":1013:1041  totalScore[orgId] - oldScore */\n      tag_63\n      swap2\n      swap1\n      tag_64\n      jump\t// in\n    tag_63:\n        /* \"assessment3/ReputationCalculation.sol\":1013:1052  totalScore[orgId] - oldScore + newScore */\n      tag_65\n      swap2\n      swap1\n      tag_59\n      jump\t// in\n    tag_65:\n        /* \"assessment3/ReputationCalculation.sol\":993:1003  totalScore */\n      0x01\n        /* \"assessment3/ReputationCalculation.sol\":993:1010  totalScore[orgId] */\n      0x00\n        /* \"assessment3/ReputationCalculation.sol\":1004:1009  orgId */\n      dup7\n        /* \"assessment3/ReputationCalculation.sol\":993:1010  totalScore[orgId] */\n      dup2\n      mstore\n      0x20\n      add\n      swap1\n      dup2\n      mstore\n      0x20\n      add\n      0x00\n      keccak256\n        /* \"assessment3/ReputationCalculation.sol\":993:1052  totalScore[orgId] = totalScore[orgId] - oldScore + newScore */\n      dup2\n      swap1\n      sstore\n      pop\n        /* \"assessment3/ReputationCalculation.sol\":1089:1097  newScore */\n      dup2\n        /* \"assessment3/ReputationCalculation.sol\":1063:1073  userRating */\n      0x04\n        /* \"assessment3/ReputationCalculation.sol\":1063:1080  userRating[orgId] */\n      0x00\n        /* \"assessment3/ReputationCalculation.sol\":1074:1079  orgId */\n      dup7\n        /* \"assessment3/ReputationCalculation.sol\":1063:1080  userRating[orgId] */\n      dup2\n      mstore\n      0x20\n      add\n      swap1\n      dup2\n      mstore\n      0x20\n      add\n      0x00\n      keccak256\n        /* \"assessment3/ReputationCalculation.sol\":1063:1086  userRating[orgId][user] */\n      0x00\n        /* \"assessment3/ReputationCalculation.sol\":1081:1085  user */\n      dup6\n        /* \"assessment3/ReputationCalculation.sol\":1063:1086  userRating[orgId][user] */\n      0xffffffffffffffffffffffffffffffffffffffff\n      and\n      0xffffffffffffffffffffffffffffffffffffffff\n      and\n      dup2\n      mstore\n      0x20\n      add\n      swap1\n      dup2\n      mstore\n      0x20\n      add\n      0x00\n      keccak256\n        /* \"assessment3/ReputationCalculation.sol\":1063:1097  userRating[orgId][user] = newScore */\n      dup2\n      swap1\n      sstore\n      pop\n        /* \"assessment3/ReputationCalculation.sol\":818:1131  function updateExistingScore (uint orgId, address user, uint newScore) private ... */\n      swap4\n      swap3\n      pop\n      pop\n      pop\n      jump\t// out\n        /* \"#utility.yul\":88:205   */\n    tag_67:\n        /* \"#utility.yul\":197:198   */\n      0x00\n        /* \"#utility.yul\":194:195   */\n      0x00\n        /* \"#utility.yul\":187:199   */\n      revert\n        /* \"#utility.yul\":334:411   */\n    tag_69:\n        /* \"#utility.yul\":371:378   */\n      0x00\n        /* \"#utility.yul\":400:405   */\n      dup2\n        /* \"#utility.yul\":389:405   */\n      swap1\n      pop\n        /* \"#utility.yul\":334:411   */\n      swap2\n      swap1\n      pop\n      jump\t// out\n        /* \"#utility.yul\":417:539   */\n    tag_70:\n        /* \"#utility.yul\":490:514   */\n      tag_91\n        /* \"#utility.yul\":508:513   */\n      dup2\n        /* \"#utility.yul\":490:514   */\n      tag_69\n      jump\t// in\n    tag_91:\n        /* \"#utility.yul\":483:488   */\n      dup2\n        /* \"#utility.yul\":480:515   */\n      eq\n        /* \"#utility.yul\":470:533   */\n      tag_92\n      jumpi\n        /* \"#utility.yul\":529:530   */\n      0x00\n        /* \"#utility.yul\":526:527   */\n      0x00\n        /* \"#utility.yul\":519:531   */\n      revert\n        /* \"#utility.yul\":470:533   */\n    tag_92:\n        /* \"#utility.yul\":417:539   */\n      pop\n      jump\t// out\n        /* \"#utility.yul\":545:684   */\n    tag_71:\n        /* \"#utility.yul\":591:596   */\n      0x00\n        /* \"#utility.yul\":629:635   */\n      dup2\n        /* \"#utility.yul\":616:636   */\n      calldataload\n        /* \"#utility.yul\":607:636   */\n      swap1\n      pop\n        /* \"#utility.yul\":645:678   */\n      tag_94\n        /* \"#utility.yul\":672:677   */\n      dup2\n        /* \"#utility.yul\":645:678   */\n      tag_70\n      jump\t// in\n    tag_94:\n        /* \"#utility.yul\":545:684   */\n      swap3\n      swap2\n      pop\n      pop\n      jump\t// out\n        /* \"#utility.yul\":690:1019   */\n    tag_13:\n        /* \"#utility.yul\":749:755   */\n      0x00\n        /* \"#utility.yul\":798:800   */\n      0x20\n        /* \"#utility.yul\":786:795   */\n      dup3\n        /* \"#utility.yul\":777:784   */\n      dup5\n        /* \"#utility.yul\":773:796   */\n      sub\n        /* \"#utility.yul\":769:801   */\n      slt\n        /* \"#utility.yul\":766:885   */\n      iszero\n      tag_96\n      jumpi\n        /* \"#utility.yul\":804:883   */\n      tag_97\n      tag_67\n      jump\t// in\n    tag_97:\n        /* \"#utility.yul\":766:885   */\n    tag_96:\n        /* \"#utility.yul\":924:925   */\n      0x00\n        /* \"#utility.yul\":949:1002   */\n      tag_98\n        /* \"#utility.yul\":994:1001   */\n      dup5\n        /* \"#utility.yul\":985:991   */\n      dup3\n        /* \"#utility.yul\":974:983   */\n      dup6\n        /* \"#utility.yul\":970:992   */\n      add\n        /* \"#utility.yul\":949:1002   */\n      tag_71\n      jump\t// in\n    tag_98:\n        /* \"#utility.yul\":939:1002   */\n      swap2\n      pop\n        /* \"#utility.yul\":895:1012   */\n      pop\n        /* \"#utility.yul\":690:1019   */\n      swap3\n      swap2\n      pop\n      pop\n      jump\t// out\n        /* \"#utility.yul\":1025:1143   */\n    tag_72:\n        /* \"#utility.yul\":1112:1136   */\n      tag_100\n        /* \"#utility.yul\":1130:1135   */\n      dup2\n        /* \"#utility.yul\":1112:1136   */\n      tag_69\n      jump\t// in\n    tag_100:\n        /* \"#utility.yul\":1107:1110   */\n      dup3\n        /* \"#utility.yul\":1100:1137   */\n      mstore\n        /* \"#utility.yul\":1025:1143   */\n      pop\n      pop\n      jump\t// out\n        /* \"#utility.yul\":1149:1371   */\n    tag_16:\n        /* \"#utility.yul\":1242:1246   */\n      0x00\n        /* \"#utility.yul\":1280:1282   */\n      0x20\n        /* \"#utility.yul\":1269:1278   */\n      dup3\n        /* \"#utility.yul\":1265:1283   */\n      add\n        /* \"#utility.yul\":1257:1283   */\n      swap1\n      pop\n        /* \"#utility.yul\":1293:1364   */\n      tag_102\n        /* \"#utility.yul\":1361:1362   */\n      0x00\n        /* \"#utility.yul\":1350:1359   */\n      dup4\n        /* \"#utility.yul\":1346:1363   */\n      add\n        /* \"#utility.yul\":1337:1343   */\n      dup5\n        /* \"#utility.yul\":1293:1364   */\n      tag_72\n      jump\t// in\n    tag_102:\n        /* \"#utility.yul\":1149:1371   */\n      swap3\n      swap2\n      pop\n      pop\n      jump\t// out\n        /* \"#utility.yul\":1377:1503   */\n    tag_73:\n        /* \"#utility.yul\":1414:1421   */\n      0x00\n        /* \"#utility.yul\":1454:1496   */\n      0xffffffffffffffffffffffffffffffffffffffff\n        /* \"#utility.yul\":1447:1452   */\n      dup3\n        /* \"#utility.yul\":1443:1497   */\n      and\n        /* \"#utility.yul\":1432:1497   */\n      swap1\n      pop\n        /* \"#utility.yul\":1377:1503   */\n      swap2\n      swap1\n      pop\n      jump\t// out\n        /* \"#utility.yul\":1509:1605   */\n    tag_74:\n        /* \"#utility.yul\":1546:1553   */\n      0x00\n        /* \"#utility.yul\":1575:1599   */\n      tag_105\n        /* \"#utility.yul\":1593:1598   */\n      dup3\n        /* \"#utility.yul\":1575:1599   */\n      tag_73\n      jump\t// in\n    tag_105:\n        /* \"#utility.yul\":1564:1599   */\n      swap1\n      pop\n        /* \"#utility.yul\":1509:1605   */\n      swap2\n      swap1\n      pop\n      jump\t// out\n        /* \"#utility.yul\":1611:1733   */\n    tag_75:\n        /* \"#utility.yul\":1684:1708   */\n      tag_107\n        /* \"#utility.yul\":1702:1707   */\n      dup2\n        /* \"#utility.yul\":1684:1708   */\n      tag_74\n      jump\t// in\n    tag_107:\n        /* \"#utility.yul\":1677:1682   */\n      dup2\n        /* \"#utility.yul\":1674:1709   */\n      eq\n        /* \"#utility.yul\":1664:1727   */\n      tag_108\n      jumpi\n        /* \"#utility.yul\":1723:1724   */\n      0x00\n        /* \"#utility.yul\":1720:1721   */\n      0x00\n        /* \"#utility.yul\":1713:1725   */\n      revert\n        /* \"#utility.yul\":1664:1727   */\n    tag_108:\n        /* \"#utility.yul\":1611:1733   */\n      pop\n      jump\t// out\n        /* \"#utility.yul\":1739:1878   */\n    tag_76:\n        /* \"#utility.yul\":1785:1790   */\n      0x00\n        /* \"#utility.yul\":1823:1829   */\n      dup2\n        /* \"#utility.yul\":1810:1830   */\n      calldataload\n        /* \"#utility.yul\":1801:1830   */\n      swap1\n      pop\n        /* \"#utility.yul\":1839:1872   */\n      tag_110\n        /* \"#utility.yul\":1866:1871   */\n      dup2\n        /* \"#utility.yul\":1839:1872   */\n      tag_75\n      jump\t// in\n    tag_110:\n        /* \"#utility.yul\":1739:1878   */\n      swap3\n      swap2\n      pop\n      pop\n      jump\t// out\n        /* \"#utility.yul\":1884:2358   */\n    tag_19:\n        /* \"#utility.yul\":1952:1958   */\n      0x00\n        /* \"#utility.yul\":1960:1966   */\n      0x00\n        /* \"#utility.yul\":2009:2011   */\n      0x40\n        /* \"#utility.yul\":1997:2006   */\n      dup4\n        /* \"#utility.yul\":1988:1995   */\n      dup6\n        /* \"#utility.yul\":1984:2007   */\n      sub\n        /* \"#utility.yul\":1980:2012   */\n      slt\n        /* \"#utility.yul\":1977:2096   */\n      iszero\n      tag_112\n      jumpi\n        /* \"#utility.yul\":2015:2094   */\n      tag_113\n      tag_67\n      jump\t// in\n    tag_113:\n        /* \"#utility.yul\":1977:2096   */\n    tag_112:\n        /* \"#utility.yul\":2135:2136   */\n      0x00\n        /* \"#utility.yul\":2160:2213   */\n      tag_114\n        /* \"#utility.yul\":2205:2212   */\n      dup6\n        /* \"#utility.yul\":2196:2202   */\n      dup3\n        /* \"#utility.yul\":2185:2194   */\n      dup7\n        /* \"#utility.yul\":2181:2203   */\n      add\n        /* \"#utility.yul\":2160:2213   */\n      tag_71\n      jump\t// in\n    tag_114:\n        /* \"#utility.yul\":2150:2213   */\n      swap3\n      pop\n        /* \"#utility.yul\":2106:2223   */\n      pop\n        /* \"#utility.yul\":2262:2264   */\n      0x20\n        /* \"#utility.yul\":2288:2341   */\n      tag_115\n        /* \"#utility.yul\":2333:2340   */\n      dup6\n        /* \"#utility.yul\":2324:2330   */\n      dup3\n        /* \"#utility.yul\":2313:2322   */\n      dup7\n        /* \"#utility.yul\":2309:2331   */\n      add\n        /* \"#utility.yul\":2288:2341   */\n      tag_76\n      jump\t// in\n    tag_115:\n        /* \"#utility.yul\":2278:2341   */\n      swap2\n      pop\n        /* \"#utility.yul\":2233:2351   */\n      pop\n        /* \"#utility.yul\":1884:2358   */\n      swap3\n      pop\n      swap3\n      swap1\n      pop\n      jump\t// out\n        /* \"#utility.yul\":2364:2482   */\n    tag_77:\n        /* \"#utility.yul\":2451:2475   */\n      tag_117\n        /* \"#utility.yul\":2469:2474   */\n      dup2\n        /* \"#utility.yul\":2451:2475   */\n      tag_74\n      jump\t// in\n    tag_117:\n        /* \"#utility.yul\":2446:2449   */\n      dup3\n        /* \"#utility.yul\":2439:2476   */\n      mstore\n        /* \"#utility.yul\":2364:2482   */\n      pop\n      pop\n      jump\t// out\n        /* \"#utility.yul\":2488:2710   */\n    tag_25:\n        /* \"#utility.yul\":2581:2585   */\n      0x00\n        /* \"#utility.yul\":2619:2621   */\n      0x20\n        /* \"#utility.yul\":2608:2617   */\n      dup3\n        /* \"#utility.yul\":2604:2622   */\n      add\n        /* \"#utility.yul\":2596:2622   */\n      swap1\n      pop\n        /* \"#utility.yul\":2632:2703   */\n      tag_119\n        /* \"#utility.yul\":2700:2701   */\n      0x00\n        /* \"#utility.yul\":2689:2698   */\n      dup4\n        /* \"#utility.yul\":2685:2702   */\n      add\n        /* \"#utility.yul\":2676:2682   */\n      dup5\n        /* \"#utility.yul\":2632:2703   */\n      tag_77\n      jump\t// in\n    tag_119:\n        /* \"#utility.yul\":2488:2710   */\n      swap3\n      swap2\n      pop\n      pop\n      jump\t// out\n        /* \"#utility.yul\":2716:2806   */\n    tag_78:\n        /* \"#utility.yul\":2750:2757   */\n      0x00\n        /* \"#utility.yul\":2793:2798   */\n      dup2\n        /* \"#utility.yul\":2786:2799   */\n      iszero\n        /* \"#utility.yul\":2779:2800   */\n      iszero\n        /* \"#utility.yul\":2768:2800   */\n      swap1\n      pop\n        /* \"#utility.yul\":2716:2806   */\n      swap2\n      swap1\n      pop\n      jump\t// out\n        /* \"#utility.yul\":2812:2921   */\n    tag_79:\n        /* \"#utility.yul\":2893:2914   */\n      tag_122\n        /* \"#utility.yul\":2908:2913   */\n      dup2\n        /* \"#utility.yul\":2893:2914   */\n      tag_78\n      jump\t// in\n    tag_122:\n        /* \"#utility.yul\":2888:2891   */\n      dup3\n        /* \"#utility.yul\":2881:2915   */\n      mstore\n        /* \"#utility.yul\":2812:2921   */\n      pop\n      pop\n      jump\t// out\n        /* \"#utility.yul\":2927:3137   */\n    tag_34:\n        /* \"#utility.yul\":3014:3018   */\n      0x00\n        /* \"#utility.yul\":3052:3054   */\n      0x20\n        /* \"#utility.yul\":3041:3050   */\n      dup3\n        /* \"#utility.yul\":3037:3055   */\n      add\n        /* \"#utility.yul\":3029:3055   */\n      swap1\n      pop\n        /* \"#utility.yul\":3065:3130   */\n      tag_124\n        /* \"#utility.yul\":3127:3128   */\n      0x00\n        /* \"#utility.yul\":3116:3125   */\n      dup4\n        /* \"#utility.yul\":3112:3129   */\n      add\n        /* \"#utility.yul\":3103:3109   */\n      dup5\n        /* \"#utility.yul\":3065:3130   */\n      tag_79\n      jump\t// in\n    tag_124:\n        /* \"#utility.yul\":2927:3137   */\n      swap3\n      swap2\n      pop\n      pop\n      jump\t// out\n        /* \"#utility.yul\":3143:3762   */\n    tag_37:\n        /* \"#utility.yul\":3220:3226   */\n      0x00\n        /* \"#utility.yul\":3228:3234   */\n      0x00\n        /* \"#utility.yul\":3236:3242   */\n      0x00\n        /* \"#utility.yul\":3285:3287   */\n      0x60\n        /* \"#utility.yul\":3273:3282   */\n      dup5\n        /* \"#utility.yul\":3264:3271   */\n      dup7\n        /* \"#utility.yul\":3260:3283   */\n      sub\n        /* \"#utility.yul\":3256:3288   */\n      slt\n        /* \"#utility.yul\":3253:3372   */\n      iszero\n      tag_126\n      jumpi\n        /* \"#utility.yul\":3291:3370   */\n      tag_127\n      tag_67\n      jump\t// in\n    tag_127:\n        /* \"#utility.yul\":3253:3372   */\n    tag_126:\n        /* \"#utility.yul\":3411:3412   */\n      0x00\n        /* \"#utility.yul\":3436:3489   */\n      tag_128\n        /* \"#utility.yul\":3481:3488   */\n      dup7\n        /* \"#utility.yul\":3472:3478   */\n      dup3\n        /* \"#utility.yul\":3461:3470   */\n      dup8\n        /* \"#utility.yul\":3457:3479   */\n      add\n        /* \"#utility.yul\":3436:3489   */\n      tag_71\n      jump\t// in\n    tag_128:\n        /* \"#utility.yul\":3426:3489   */\n      swap4\n      pop\n        /* \"#utility.yul\":3382:3499   */\n      pop\n        /* \"#utility.yul\":3538:3540   */\n      0x20\n        /* \"#utility.yul\":3564:3617   */\n      tag_129\n        /* \"#utility.yul\":3609:3616   */\n      dup7\n        /* \"#utility.yul\":3600:3606   */\n      dup3\n        /* \"#utility.yul\":3589:3598   */\n      dup8\n        /* \"#utility.yul\":3585:3607   */\n      add\n        /* \"#utility.yul\":3564:3617   */\n      tag_76\n      jump\t// in\n    tag_129:\n        /* \"#utility.yul\":3554:3617   */\n      swap3\n      pop\n        /* \"#utility.yul\":3509:3627   */\n      pop\n        /* \"#utility.yul\":3666:3668   */\n      0x40\n        /* \"#utility.yul\":3692:3745   */\n      tag_130\n        /* \"#utility.yul\":3737:3744   */\n      dup7\n        /* \"#utility.yul\":3728:3734   */\n      dup3\n        /* \"#utility.yul\":3717:3726   */\n      dup8\n        /* \"#utility.yul\":3713:3735   */\n      add\n        /* \"#utility.yul\":3692:3745   */\n      tag_71\n      jump\t// in\n    tag_130:\n        /* \"#utility.yul\":3682:3745   */\n      swap2\n      pop\n        /* \"#utility.yul\":3637:3755   */\n      pop\n        /* \"#utility.yul\":3143:3762   */\n      swap3\n      pop\n      swap3\n      pop\n      swap3\n      jump\t// out\n        /* \"#utility.yul\":3768:3948   */\n    tag_80:\n        /* \"#utility.yul\":3816:3893   */\n      0x4e487b7100000000000000000000000000000000000000000000000000000000\n        /* \"#utility.yul\":3813:3814   */\n      0x00\n        /* \"#utility.yul\":3806:3894   */\n      mstore\n        /* \"#utility.yul\":3913:3917   */\n      0x12\n        /* \"#utility.yul\":3910:3911   */\n      0x04\n        /* \"#utility.yul\":3903:3918   */\n      mstore\n        /* \"#utility.yul\":3937:3941   */\n      0x24\n        /* \"#utility.yul\":3934:3935   */\n      0x00\n        /* \"#utility.yul\":3927:3942   */\n      revert\n        /* \"#utility.yul\":3954:4134   */\n    tag_81:\n        /* \"#utility.yul\":4002:4079   */\n      0x4e487b7100000000000000000000000000000000000000000000000000000000\n        /* \"#utility.yul\":3999:4000   */\n      0x00\n        /* \"#utility.yul\":3992:4080   */\n      mstore\n        /* \"#utility.yul\":4099:4103   */\n      0x11\n        /* \"#utility.yul\":4096:4097   */\n      0x04\n        /* \"#utility.yul\":4089:4104   */\n      mstore\n        /* \"#utility.yul\":4123:4127   */\n      0x24\n        /* \"#utility.yul\":4120:4121   */\n      0x00\n        /* \"#utility.yul\":4113:4128   */\n      revert\n        /* \"#utility.yul\":4140:4325   */\n    tag_46:\n        /* \"#utility.yul\":4180:4181   */\n      0x00\n        /* \"#utility.yul\":4197:4217   */\n      tag_134\n        /* \"#utility.yul\":4215:4216   */\n      dup3\n        /* \"#utility.yul\":4197:4217   */\n      tag_69\n      jump\t// in\n    tag_134:\n        /* \"#utility.yul\":4192:4217   */\n      swap2\n      pop\n        /* \"#utility.yul\":4231:4251   */\n      tag_135\n        /* \"#utility.yul\":4249:4250   */\n      dup4\n        /* \"#utility.yul\":4231:4251   */\n      tag_69\n      jump\t// in\n    tag_135:\n        /* \"#utility.yul\":4226:4251   */\n      swap3\n      pop\n        /* \"#utility.yul\":4270:4271   */\n      dup3\n        /* \"#utility.yul\":4260:4295   */\n      tag_136\n      jumpi\n        /* \"#utility.yul\":4275:4293   */\n      tag_137\n      tag_80\n      jump\t// in\n    tag_137:\n        /* \"#utility.yul\":4260:4295   */\n    tag_136:\n        /* \"#utility.yul\":4317:4318   */\n      dup3\n        /* \"#utility.yul\":4314:4315   */\n      dup3\n        /* \"#utility.yul\":4310:4319   */\n      div\n        /* \"#utility.yul\":4305:4319   */\n      swap1\n      pop\n        /* \"#utility.yul\":4140:4325   */\n      swap3\n      swap2\n      pop\n      pop\n      jump\t// out\n        /* \"#utility.yul\":4331:4500   */\n    tag_82:\n        /* \"#utility.yul\":4415:4426   */\n      0x00\n        /* \"#utility.yul\":4449:4455   */\n      dup3\n        /* \"#utility.yul\":4444:4447   */\n      dup3\n        /* \"#utility.yul\":4437:4456   */\n      mstore\n        /* \"#utility.yul\":4489:4493   */\n      0x20\n        /* \"#utility.yul\":4484:4487   */\n      dup3\n        /* \"#utility.yul\":4480:4494   */\n      add\n        /* \"#utility.yul\":4465:4494   */\n      swap1\n      pop\n        /* \"#utility.yul\":4331:4500   */\n      swap3\n      swap2\n      pop\n      pop\n      jump\t// out\n        /* \"#utility.yul\":4506:4686   */\n    tag_83:\n        /* \"#utility.yul\":4646:4678   */\n      0x53636f7265206d757374206265206265747765656e203120616e642031300000\n        /* \"#utility.yul\":4642:4643   */\n      0x00\n        /* \"#utility.yul\":4634:4640   */\n      dup3\n        /* \"#utility.yul\":4630:4644   */\n      add\n        /* \"#utility.yul\":4623:4679   */\n      mstore\n        /* \"#utility.yul\":4506:4686   */\n      pop\n      jump\t// out\n        /* \"#utility.yul\":4692:5058   */\n    tag_84:\n        /* \"#utility.yul\":4834:4837   */\n      0x00\n        /* \"#utility.yul\":4855:4922   */\n      tag_141\n        /* \"#utility.yul\":4919:4921   */\n      0x1e\n        /* \"#utility.yul\":4914:4917   */\n      dup4\n        /* \"#utility.yul\":4855:4922   */\n      tag_82\n      jump\t// in\n    tag_141:\n        /* \"#utility.yul\":4848:4922   */\n      swap2\n      pop\n        /* \"#utility.yul\":4931:5024   */\n      tag_142\n        /* \"#utility.yul\":5020:5023   */\n      dup3\n        /* \"#utility.yul\":4931:5024   */\n      tag_83\n      jump\t// in\n    tag_142:\n        /* \"#utility.yul\":5049:5051   */\n      0x20\n        /* \"#utility.yul\":5044:5047   */\n      dup3\n        /* \"#utility.yul\":5040:5052   */\n      add\n        /* \"#utility.yul\":5033:5052   */\n      swap1\n      pop\n        /* \"#utility.yul\":4692:5058   */\n      swap2\n      swap1\n      pop\n      jump\t// out\n        /* \"#utility.yul\":5064:5483   */\n    tag_51:\n        /* \"#utility.yul\":5230:5234   */\n      0x00\n        /* \"#utility.yul\":5268:5270   */\n      0x20\n        /* \"#utility.yul\":5257:5266   */\n      dup3\n        /* \"#utility.yul\":5253:5271   */\n      add\n        /* \"#utility.yul\":5245:5271   */\n      swap1\n      pop\n        /* \"#utility.yul\":5317:5326   */\n      dup2\n        /* \"#utility.yul\":5311:5315   */\n      dup2\n        /* \"#utility.yul\":5307:5327   */\n      sub\n        /* \"#utility.yul\":5303:5304   */\n      0x00\n        /* \"#utility.yul\":5292:5301   */\n      dup4\n        /* \"#utility.yul\":5288:5305   */\n      add\n        /* \"#utility.yul\":5281:5328   */\n      mstore\n        /* \"#utility.yul\":5345:5476   */\n      tag_144\n        /* \"#utility.yul\":5471:5475   */\n      dup2\n        /* \"#utility.yul\":5345:5476   */\n      tag_84\n      jump\t// in\n    tag_144:\n        /* \"#utility.yul\":5337:5476   */\n      swap1\n      pop\n        /* \"#utility.yul\":5064:5483   */\n      swap2\n      swap1\n      pop\n      jump\t// out\n        /* \"#utility.yul\":5489:5821   */\n    tag_56:\n        /* \"#utility.yul\":5610:5614   */\n      0x00\n        /* \"#utility.yul\":5648:5650   */\n      0x40\n        /* \"#utility.yul\":5637:5646   */\n      dup3\n        /* \"#utility.yul\":5633:5651   */\n      add\n        /* \"#utility.yul\":5625:5651   */\n      swap1\n      pop\n        /* \"#utility.yul\":5661:5732   */\n      tag_146\n        /* \"#utility.yul\":5729:5730   */\n      0x00\n        /* \"#utility.yul\":5718:5727   */\n      dup4\n        /* \"#utility.yul\":5714:5731   */\n      add\n        /* \"#utility.yul\":5705:5711   */\n      dup6\n        /* \"#utility.yul\":5661:5732   */\n      tag_72\n      jump\t// in\n    tag_146:\n        /* \"#utility.yul\":5742:5814   */\n      tag_147\n        /* \"#utility.yul\":5810:5812   */\n      0x20\n        /* \"#utility.yul\":5799:5808   */\n      dup4\n        /* \"#utility.yul\":5795:5813   */\n      add\n        /* \"#utility.yul\":5786:5792   */\n      dup5\n        /* \"#utility.yul\":5742:5814   */\n      tag_72\n      jump\t// in\n    tag_147:\n        /* \"#utility.yul\":5489:5821   */\n      swap4\n      swap3\n      pop\n      pop\n      pop\n      jump\t// out\n        /* \"#utility.yul\":5827:6018   */\n    tag_59:\n        /* \"#utility.yul\":5867:5870   */\n      0x00\n        /* \"#utility.yul\":5886:5906   */\n      tag_149\n        /* \"#utility.yul\":5904:5905   */\n      dup3\n        /* \"#utility.yul\":5886:5906   */\n      tag_69\n      jump\t// in\n    tag_149:\n        /* \"#utility.yul\":5881:5906   */\n      swap2\n      pop\n        /* \"#utility.yul\":5920:5940   */\n      tag_150\n        /* \"#utility.yul\":5938:5939   */\n      dup4\n        /* \"#utility.yul\":5920:5940   */\n      tag_69\n      jump\t// in\n    tag_150:\n        /* \"#utility.yul\":5915:5940   */\n      swap3\n      pop\n        /* \"#utility.yul\":5963:5964   */\n      dup3\n        /* \"#utility.yul\":5960:5961   */\n      dup3\n        /* \"#utility.yul\":5956:5965   */\n      add\n        /* \"#utility.yul\":5949:5965   */\n      swap1\n      pop\n        /* \"#utility.yul\":5984:5987   */\n      dup1\n        /* \"#utility.yul\":5981:5982   */\n      dup3\n        /* \"#utility.yul\":5978:5988   */\n      gt\n        /* \"#utility.yul\":5975:6011   */\n      iszero\n      tag_151\n      jumpi\n        /* \"#utility.yul\":5991:6009   */\n      tag_152\n      tag_81\n      jump\t// in\n    tag_152:\n        /* \"#utility.yul\":5975:6011   */\n    tag_151:\n        /* \"#utility.yul\":5827:6018   */\n      swap3\n      swap2\n      pop\n      pop\n      jump\t// out\n        /* \"#utility.yul\":6024:6218   */\n    tag_64:\n        /* \"#utility.yul\":6064:6068   */\n      0x00\n        /* \"#utility.yul\":6084:6104   */\n      tag_154\n        /* \"#utility.yul\":6102:6103   */\n      dup3\n        /* \"#utility.yul\":6084:6104   */\n      tag_69\n      jump\t// in\n    tag_154:\n        /* \"#utility.yul\":6079:6104   */\n      swap2\n      pop\n        /* \"#utility.yul\":6118:6138   */\n      tag_155\n        /* \"#utility.yul\":6136:6137   */\n      dup4\n        /* \"#utility.yul\":6118:6138   */\n      tag_69\n      jump\t// in\n    tag_155:\n        /* \"#utility.yul\":6113:6138   */\n      swap3\n      pop\n        /* \"#utility.yul\":6162:6163   */\n      dup3\n        /* \"#utility.yul\":6159:6160   */\n      dup3\n        /* \"#utility.yul\":6155:6164   */\n      sub\n        /* \"#utility.yul\":6147:6164   */\n      swap1\n      pop\n        /* \"#utility.yul\":6186:6187   */\n      dup2\n        /* \"#utility.yul\":6180:6184   */\n      dup2\n        /* \"#utility.yul\":6177:6188   */\n      gt\n        /* \"#utility.yul\":6174:6211   */\n      iszero\n      tag_156\n      jumpi\n        /* \"#utility.yul\":6191:6209   */\n      tag_157\n      tag_81\n      jump\t// in\n    tag_157:\n        /* \"#utility.yul\":6174:6211   */\n    tag_156:\n        /* \"#utility.yul\":6024:6218   */\n      swap3\n      swap2\n      pop\n      pop\n      jump\t// out\n\n    auxdata: 0xa2646970667358221220db4187a87013de5077e4fb11f9d88834f8f2b02d8ce2988347744a8bdb75175d64736f6c634300081e0033\n}\n",
				"bytecode": {
					"linkReferences": {},
					"object": "6080604052348015600e575f5ffd5b50335f5f6101000a81548173ffffffffffffffffffffffffffffffffffffffff021916908373ffffffffffffffffffffffffffffffffffffffff1602179055506109738061005b5f395ff3fe608060405234801561000f575f5ffd5b506004361061007b575f3560e01c80636061eec4116100595780636061eec4146100fd578063764544861461012d578063a9d7a87e1461015d578063ff595f78146101795761007b565b80630e1af57b1461007f5780631eee0596146100af5780634f0961e4146100df575b5f5ffd5b61009960048036038101906100949190610618565b6101a9565b6040516100a69190610652565b60405180910390f35b6100c960048036038101906100c491906106c5565b610200565b6040516100d69190610652565b60405180910390f35b6100e7610220565b6040516100f49190610712565b60405180910390f35b61011760048036038101906101129190610618565b610244565b6040516101249190610652565b60405180910390f35b610147600480360381019061014291906106c5565b610259565b6040516101549190610745565b60405180910390f35b6101776004803603810190610172919061075e565b610283565b005b610193600480360381019061018e9190610618565b6104e7565b6040516101a09190610652565b60405180910390f35b5f5f60025f8481526020019081526020015f2054036101ca575f90506101fb565b60025f8381526020019081526020015f205460015f8481526020019081526020015f20546101f89190610808565b90505b919050565b6004602052815f5260405f20602052805f5260405f205f91509150505481565b5f5f9054906101000a900473ffffffffffffffffffffffffffffffffffffffff1681565b6002602052805f5260405f205f915090505481565b6003602052815f5260405f20602052805f5260405f205f915091509054906101000a900460ff1681565b600181101580156102955750600a8111155b6102d4576040517f08c379a00000000000000000000000000000000000000000000000000000000081526004016102cb90610892565b60405180910390fd5b60035f8481526020019081526020015f205f8373ffffffffffffffffffffffffffffffffffffffff1673ffffffffffffffffffffffffffffffffffffffff1681526020019081526020015f205f9054906101000a900460ff1615610397575f61033e8484846104fc565b90508273ffffffffffffffffffffffffffffffffffffffff16847f013c935981de36bae0fbb3d8771f4fe4adfa8ce83107c0d6bfca39c8f7899b5583856040516103899291906108b0565b60405180910390a3506104e2565b8060015f8581526020019081526020015f205f8282546103b791906108d7565b92505081905550600160025f8581526020019081526020015f20546103dc91906108d7565b50600160035f8581526020019081526020015f205f8473ffffffffffffffffffffffffffffffffffffffff1673ffffffffffffffffffffffffffffffffffffffff1681526020019081526020015f205f6101000a81548160ff0219169083151502179055508060045f8581526020019081526020015f205f8473ffffffffffffffffffffffffffffffffffffffff1673ffffffffffffffffffffffffffffffffffffffff1681526020019081526020015f20819055508173ffffffffffffffffffffffffffffffffffffffff16837f5c9ee89daf7499b1322ef28b6736f28233e47eefdefffee6ab61683593f77864836040516104d99190610652565b60405180910390a35b505050565b6001602052805f5260405f205f915090505481565b5f60045f8581526020019081526020015f205f8473ffffffffffffffffffffffffffffffffffffffff1673ffffffffffffffffffffffffffffffffffffffff1681526020019081526020015f20549050818160015f8781526020019081526020015f205461056a919061090a565b61057491906108d7565b60015f8681526020019081526020015f20819055508160045f8681526020019081526020015f205f8573ffffffffffffffffffffffffffffffffffffffff1673ffffffffffffffffffffffffffffffffffffffff1681526020019081526020015f20819055509392505050565b5f5ffd5b5f819050919050565b6105f7816105e5565b8114610601575f5ffd5b50565b5f81359050610612816105ee565b92915050565b5f6020828403121561062d5761062c6105e1565b5b5f61063a84828501610604565b91505092915050565b61064c816105e5565b82525050565b5f6020820190506106655f830184610643565b92915050565b5f73ffffffffffffffffffffffffffffffffffffffff82169050919050565b5f6106948261066b565b9050919050565b6106a48161068a565b81146106ae575f5ffd5b50565b5f813590506106bf8161069b565b92915050565b5f5f604083850312156106db576106da6105e1565b5b5f6106e885828601610604565b92505060206106f9858286016106b1565b9150509250929050565b61070c8161068a565b82525050565b5f6020820190506107255f830184610703565b92915050565b5f8115159050919050565b61073f8161072b565b82525050565b5f6020820190506107585f830184610736565b92915050565b5f5f5f60608486031215610775576107746105e1565b5b5f61078286828701610604565b9350506020610793868287016106b1565b92505060406107a486828701610604565b9150509250925092565b7f4e487b71000000000000000000000000000000000000000000000000000000005f52601260045260245ffd5b7f4e487b71000000000000000000000000000000000000000000000000000000005f52601160045260245ffd5b5f610812826105e5565b915061081d836105e5565b92508261082d5761082c6107ae565b5b828204905092915050565b5f82825260208201905092915050565b7f53636f7265206d757374206265206265747765656e203120616e6420313000005f82015250565b5f61087c601e83610838565b915061088782610848565b602082019050919050565b5f6020820190508181035f8301526108a981610870565b9050919050565b5f6040820190506108c35f830185610643565b6108d06020830184610643565b9392505050565b5f6108e1826105e5565b91506108ec836105e5565b9250828201905080821115610904576109036107db565b5b92915050565b5f610914826105e5565b915061091f836105e5565b9250828203905081811115610937576109366107db565b5b9291505056fea2646970667358221220db4187a87013de5077e4fb11f9d88834f8f2b02d8ce2988347744a8bdb75175d64736f6c634300081e0033",
					"opcodes": "PUSH1 0x80 PUSH1 0x40 MSTORE CALLVALUE DUP1 ISZERO PUSH1 0xE JUMPI PUSH0 PUSH0 REVERT JUMPDEST POP CALLER PUSH0 PUSH0 PUSH2 0x100 EXP DUP2 SLOAD DUP2 PUSH20 0xFFFFFFFFFFFFFFFFFFFFFFFFFFFFFFFFFFFFFFFF MUL NOT AND SWAP1 DUP4 PUSH20 0xFFFFFFFFFFFFFFFFFFFFFFFFFFFFFFFFFFFFFFFF AND MUL OR SWAP1 SSTORE POP PUSH2 0x973 DUP1 PUSH2 0x5B PUSH0 CODECOPY PUSH0 RETURN INVALID PUSH1 0x80 PUSH1 0x40 MSTORE CALLVALUE DUP1 ISZERO PUSH2 0xF JUMPI PUSH0 PUSH0 REVERT JUMPDEST POP PUSH1 0x4 CALLDATASIZE LT PUSH2 0x7B JUMPI PUSH0 CALLDATALOAD PUSH1 0xE0 SHR DUP1 PUSH4 0x6061EEC4 GT PUSH2 0x59 JUMPI DUP1 PUSH4 0x6061EEC4 EQ PUSH2 0xFD JUMPI DUP1 PUSH4 0x76454486 EQ PUSH2 0x12D JUMPI DUP1 PUSH4 0xA9D7A87E EQ PUSH2 0x15D JUMPI DUP1 PUSH4 0xFF595F78 EQ PUSH2 0x179 JUMPI PUSH2 0x7B JUMP JUMPDEST DUP1 PUSH4 0xE1AF57B EQ PUSH2 0x7F JUMPI DUP1 PUSH4 0x1EEE0596 EQ PUSH2 0xAF JUMPI DUP1 PUSH4 0x4F0961E4 EQ PUSH2 0xDF JUMPI JUMPDEST PUSH0 PUSH0 REVERT JUMPDEST PUSH2 0x99 PUSH1 0x4 DUP1 CALLDATASIZE SUB DUP2 ADD SWAP1 PUSH2 0x94 SWAP2 SWAP1 PUSH2 0x618 JUMP JUMPDEST PUSH2 0x1A9 JUMP JUMPDEST PUSH1 0x40 MLOAD PUSH2 0xA6 SWAP2 SWAP1 PUSH2 0x652 JUMP JUMPDEST PUSH1 0x40 MLOAD DUP1 SWAP2 SUB SWAP1 RETURN JUMPDEST PUSH2 0xC9 PUSH1 0x4 DUP1 CALLDATASIZE SUB DUP2 ADD SWAP1 PUSH2 0xC4 SWAP2 SWAP1 PUSH2 0x6C5 JUMP JUMPDEST PUSH2 0x200 JUMP JUMPDEST PUSH1 0x40 MLOAD PUSH2 0xD6 SWAP2 SWAP1 PUSH2 0x652 JUMP JUMPDEST PUSH1 0x40 MLOAD DUP1 SWAP2 SUB SWAP1 RETURN JUMPDEST PUSH2 0xE7 PUSH2 0x220 JUMP JUMPDEST PUSH1 0x40 MLOAD PUSH2 0xF4 SWAP2 SWAP1 PUSH2 0x712 JUMP JUMPDEST PUSH1 0x40 MLOAD DUP1 SWAP2 SUB SWAP1 RETURN JUMPDEST PUSH2 0x117 PUSH1 0x4 DUP1 CALLDATASIZE SUB DUP2 ADD SWAP1 PUSH2 0x112 SWAP2 SWAP1 PUSH2 0x618 JUMP JUMPDEST PUSH2 0x244 JUMP JUMPDEST PUSH1 0x40 MLOAD PUSH2 0x124 SWAP2 SWAP1 PUSH2 0x652 JUMP JUMPDEST PUSH1 0x40 MLOAD DUP1 SWAP2 SUB SWAP1 RETURN JUMPDEST PUSH2 0x147 PUSH1 0x4 DUP1 CALLDATASIZE SUB DUP2 ADD SWAP1 PUSH2 0x142 SWAP2 SWAP1 PUSH2 0x6C5 JUMP JUMPDEST PUSH2 0x259 JUMP JUMPDEST PUSH1 0x40 MLOAD PUSH2 0x154 SWAP2 SWAP1 PUSH2 0x745 JUMP JUMPDEST PUSH1 0x40 MLOAD DUP1 SWAP2 SUB SWAP1 RETURN JUMPDEST PUSH2 0x177 PUSH1 0x4 DUP1 CALLDATASIZE SUB DUP2 ADD SWAP1 PUSH2 0x172 SWAP2 SWAP1 PUSH2 0x75E JUMP JUMPDEST PUSH2 0x283 JUMP JUMPDEST STOP JUMPDEST PUSH2 0x193 PUSH1 0x4 DUP1 CALLDATASIZE SUB DUP2 ADD SWAP1 PUSH2 0x18E SWAP2 SWAP1 PUSH2 0x618 JUMP JUMPDEST PUSH2 0x4E7 JUMP JUMPDEST PUSH1 0x40 MLOAD PUSH2 0x1A0 SWAP2 SWAP1 PUSH2 0x652 JUMP JUMPDEST PUSH1 0x40 MLOAD DUP1 SWAP2 SUB SWAP1 RETURN JUMPDEST PUSH0 PUSH0 PUSH1 0x2 PUSH0 DUP5 DUP2 MSTORE PUSH1 0x20 ADD SWAP1 DUP2 MSTORE PUSH1 0x20 ADD PUSH0 KECCAK256 SLOAD SUB PUSH2 0x1CA JUMPI PUSH0 SWAP1 POP PUSH2 0x1FB JUMP JUMPDEST PUSH1 0x2 PUSH0 DUP4 DUP2 MSTORE PUSH1 0x20 ADD SWAP1 DUP2 MSTORE PUSH1 0x20 ADD PUSH0 KECCAK256 SLOAD PUSH1 0x1 PUSH0 DUP5 DUP2 MSTORE PUSH1 0x20 ADD SWAP1 DUP2 MSTORE PUSH1 0x20 ADD PUSH0 KECCAK256 SLOAD PUSH2 0x1F8 SWAP2 SWAP1 PUSH2 0x808 JUMP JUMPDEST SWAP1 POP JUMPDEST SWAP2 SWAP1 POP JUMP JUMPDEST PUSH1 0x4 PUSH1 0x20 MSTORE DUP2 PUSH0 MSTORE PUSH1 0x40 PUSH0 KECCAK256 PUSH1 0x20 MSTORE DUP1 PUSH0 MSTORE PUSH1 0x40 PUSH0 KECCAK256 PUSH0 SWAP2 POP SWAP2 POP POP SLOAD DUP2 JUMP JUMPDEST PUSH0 PUSH0 SWAP1 SLOAD SWAP1 PUSH2 0x100 EXP SWAP1 DIV PUSH20 0xFFFFFFFFFFFFFFFFFFFFFFFFFFFFFFFFFFFFFFFF AND DUP2 JUMP JUMPDEST PUSH1 0x2 PUSH1 0x20 MSTORE DUP1 PUSH0 MSTORE PUSH1 0x40 PUSH0 KECCAK256 PUSH0 SWAP2 POP SWAP1 POP SLOAD DUP2 JUMP JUMPDEST PUSH1 0x3 PUSH1 0x20 MSTORE DUP2 PUSH0 MSTORE PUSH1 0x40 PUSH0 KECCAK256 PUSH1 0x20 MSTORE DUP1 PUSH0 MSTORE PUSH1 0x40 PUSH0 KECCAK256 PUSH0 SWAP2 POP SWAP2 POP SWAP1 SLOAD SWAP1 PUSH2 0x100 EXP SWAP1 DIV PUSH1 0xFF AND DUP2 JUMP JUMPDEST PUSH1 0x1 DUP2 LT ISZERO DUP1 ISZERO PUSH2 0x295 JUMPI POP PUSH1 0xA DUP2 GT ISZERO JUMPDEST PUSH2 0x2D4 JUMPI PUSH1 0x40 MLOAD PUSH32 0x8C379A000000000000000000000000000000000000000000000000000000000 DUP2 MSTORE PUSH1 0x4 ADD PUSH2 0x2CB SWAP1 PUSH2 0x892 JUMP JUMPDEST PUSH1 0x40 MLOAD DUP1 SWAP2 SUB SWAP1 REVERT JUMPDEST PUSH1 0x3 PUSH0 DUP5 DUP2 MSTORE PUSH1 0x20 ADD SWAP1 DUP2 MSTORE PUSH1 0x20 ADD PUSH0 KECCAK256 PUSH0 DUP4 PUSH20 0xFFFFFFFFFFFFFFFFFFFFFFFFFFFFFFFFFFFFFFFF AND PUSH20 0xFFFFFFFFFFFFFFFFFFFFFFFFFFFFFFFFFFFFFFFF AND DUP2 MSTORE PUSH1 0x20 ADD SWAP1 DUP2 MSTORE PUSH1 0x20 ADD PUSH0 KECCAK256 PUSH0 SWAP1 SLOAD SWAP1 PUSH2 0x100 EXP SWAP1 DIV PUSH1 0xFF AND ISZERO PUSH2 0x397 JUMPI PUSH0 PUSH2 0x33E DUP5 DUP5 DUP5 PUSH2 0x4FC JUMP JUMPDEST SWAP1 POP DUP3 PUSH20 0xFFFFFFFFFFFFFFFFFFFFFFFFFFFFFFFFFFFFFFFF AND DUP5 PUSH32 0x13C935981DE36BAE0FBB3D8771F4FE4ADFA8CE83107C0D6BFCA39C8F7899B55 DUP4 DUP6 PUSH1 0x40 MLOAD PUSH2 0x389 SWAP3 SWAP2 SWAP1 PUSH2 0x8B0 JUMP JUMPDEST PUSH1 0x40 MLOAD DUP1 SWAP2 SUB SWAP1 LOG3 POP PUSH2 0x4E2 JUMP JUMPDEST DUP1 PUSH1 0x1 PUSH0 DUP6 DUP2 MSTORE PUSH1 0x20 ADD SWAP1 DUP2 MSTORE PUSH1 0x20 ADD PUSH0 KECCAK256 PUSH0 DUP3 DUP3 SLOAD PUSH2 0x3B7 SWAP2 SWAP1 PUSH2 0x8D7 JUMP JUMPDEST SWAP3 POP POP DUP2 SWAP1 SSTORE POP PUSH1 0x1 PUSH1 0x2 PUSH0 DUP6 DUP2 MSTORE PUSH1 0x20 ADD SWAP1 DUP2 MSTORE PUSH1 0x20 ADD PUSH0 KECCAK256 SLOAD PUSH2 0x3DC SWAP2 SWAP1 PUSH2 0x8D7 JUMP JUMPDEST POP PUSH1 0x1 PUSH1 0x3 PUSH0 DUP6 DUP2 MSTORE PUSH1 0x20 ADD SWAP1 DUP2 MSTORE PUSH1 0x20 ADD PUSH0 KECCAK256 PUSH0 DUP5 PUSH20 0xFFFFFFFFFFFFFFFFFFFFFFFFFFFFFFFFFFFFFFFF AND PUSH20 0xFFFFFFFFFFFFFFFFFFFFFFFFFFFFFFFFFFFFFFFF AND DUP2 MSTORE PUSH1 0x20 ADD SWAP1 DUP2 MSTORE PUSH1 0x20 ADD PUSH0 KECCAK256 PUSH0 PUSH2 0x100 EXP DUP2 SLOAD DUP2 PUSH1 0xFF MUL NOT AND SWAP1 DUP4 ISZERO ISZERO MUL OR SWAP1 SSTORE POP DUP1 PUSH1 0x4 PUSH0 DUP6 DUP2 MSTORE PUSH1 0x20 ADD SWAP1 DUP2 MSTORE PUSH1 0x20 ADD PUSH0 KECCAK256 PUSH0 DUP5 PUSH20 0xFFFFFFFFFFFFFFFFFFFFFFFFFFFFFFFFFFFFFFFF AND PUSH20 0xFFFFFFFFFFFFFFFFFFFFFFFFFFFFFFFFFFFFFFFF AND DUP2 MSTORE PUSH1 0x20 ADD SWAP1 DUP2 MSTORE PUSH1 0x20 ADD PUSH0 KECCAK256 DUP2 SWAP1 SSTORE POP DUP2 PUSH20 0xFFFFFFFFFFFFFFFFFFFFFFFFFFFFFFFFFFFFFFFF AND DUP4 PUSH32 0x5C9EE89DAF7499B1322EF28B6736F28233E47EEFDEFFFEE6AB61683593F77864 DUP4 PUSH1 0x40 MLOAD PUSH2 0x4D9 SWAP2 SWAP1 PUSH2 0x652 JUMP JUMPDEST PUSH1 0x40 MLOAD DUP1 SWAP2 SUB SWAP1 LOG3 JUMPDEST POP POP POP JUMP JUMPDEST PUSH1 0x1 PUSH1 0x20 MSTORE DUP1 PUSH0 MSTORE PUSH1 0x40 PUSH0 KECCAK256 PUSH0 SWAP2 POP SWAP1 POP SLOAD DUP2 JUMP JUMPDEST PUSH0 PUSH1 0x4 PUSH0 DUP6 DUP2 MSTORE PUSH1 0x20 ADD SWAP1 DUP2 MSTORE PUSH1 0x20 ADD PUSH0 KECCAK256 PUSH0 DUP5 PUSH20 0xFFFFFFFFFFFFFFFFFFFFFFFFFFFFFFFFFFFFFFFF AND PUSH20 0xFFFFFFFFFFFFFFFFFFFFFFFFFFFFFFFFFFFFFFFF AND DUP2 MSTORE PUSH1 0x20 ADD SWAP1 DUP2 MSTORE PUSH1 0x20 ADD PUSH0 KECCAK256 SLOAD SWAP1 POP DUP2 DUP2 PUSH1 0x1 PUSH0 DUP8 DUP2 MSTORE PUSH1 0x20 ADD SWAP1 DUP2 MSTORE PUSH1 0x20 ADD PUSH0 KECCAK256 SLOAD PUSH2 0x56A SWAP2 SWAP1 PUSH2 0x90A JUMP JUMPDEST PUSH2 0x574 SWAP2 SWAP1 PUSH2 0x8D7 JUMP JUMPDEST PUSH1 0x1 PUSH0 DUP7 DUP2 MSTORE PUSH1 0x20 ADD SWAP1 DUP2 MSTORE PUSH1 0x20 ADD PUSH0 KECCAK256 DUP2 SWAP1 SSTORE POP DUP2 PUSH1 0x4 PUSH0 DUP7 DUP2 MSTORE PUSH1 0x20 ADD SWAP1 DUP2 MSTORE PUSH1 0x20 ADD PUSH0 KECCAK256 PUSH0 DUP6 PUSH20 0xFFFFFFFFFFFFFFFFFFFFFFFFFFFFFFFFFFFFFFFF AND PUSH20 0xFFFFFFFFFFFFFFFFFFFFFFFFFFFFFFFFFFFFFFFF AND DUP2 MSTORE PUSH1 0x20 ADD SWAP1 DUP2 MSTORE PUSH1 0x20 ADD PUSH0 KECCAK256 DUP2 SWAP1 SSTORE POP SWAP4 SWAP3 POP POP POP JUMP JUMPDEST PUSH0 PUSH0 REVERT JUMPDEST PUSH0 DUP2 SWAP1 POP SWAP2 SWAP1 POP JUMP JUMPDEST PUSH2 0x5F7 DUP2 PUSH2 0x5E5 JUMP JUMPDEST DUP2 EQ PUSH2 0x601 JUMPI PUSH0 PUSH0 REVERT JUMPDEST POP JUMP JUMPDEST PUSH0 DUP2 CALLDATALOAD SWAP1 POP PUSH2 0x612 DUP2 PUSH2 0x5EE JUMP JUMPDEST SWAP3 SWAP2 POP POP JUMP JUMPDEST PUSH0 PUSH1 0x20 DUP3 DUP5 SUB SLT ISZERO PUSH2 0x62D JUMPI PUSH2 0x62C PUSH2 0x5E1 JUMP JUMPDEST JUMPDEST PUSH0 PUSH2 0x63A DUP5 DUP3 DUP6 ADD PUSH2 0x604 JUMP JUMPDEST SWAP2 POP POP SWAP3 SWAP2 POP POP JUMP JUMPDEST PUSH2 0x64C DUP2 PUSH2 0x5E5 JUMP JUMPDEST DUP3 MSTORE POP POP JUMP JUMPDEST PUSH0 PUSH1 0x20 DUP3 ADD SWAP1 POP PUSH2 0x665 PUSH0 DUP4 ADD DUP5 PUSH2 0x643 JUMP JUMPDEST SWAP3 SWAP2 POP POP JUMP JUMPDEST PUSH0 PUSH20 0xFFFFFFFFFFFFFFFFFFFFFFFFFFFFFFFFFFFFFFFF DUP3 AND SWAP1 POP SWAP2 SWAP1 POP JUMP JUMPDEST PUSH0 PUSH2 0x694 DUP3 PUSH2 0x66B JUMP JUMPDEST SWAP1 POP SWAP2 SWAP1 POP JUMP JUMPDEST PUSH2 0x6A4 DUP2 PUSH2 0x68A JUMP JUMPDEST DUP2 EQ PUSH2 0x6AE JUMPI PUSH0 PUSH0 REVERT JUMPDEST POP JUMP JUMPDEST PUSH0 DUP2 CALLDATALOAD SWAP1 POP PUSH2 0x6BF DUP2 PUSH2 0x69B JUMP JUMPDEST SWAP3 SWAP2 POP POP JUMP JUMPDEST PUSH0 PUSH0 PUSH1 0x40 DUP4 DUP6 SUB SLT ISZERO PUSH2 0x6DB JUMPI PUSH2 0x6DA PUSH2 0x5E1 JUMP JUMPDEST JUMPDEST PUSH0 PUSH2 0x6E8 DUP6 DUP3 DUP7 ADD PUSH2 0x604 JUMP JUMPDEST SWAP3 POP POP PUSH1 0x20 PUSH2 0x6F9 DUP6 DUP3 DUP7 ADD PUSH2 0x6B1 JUMP JUMPDEST SWAP2 POP POP SWAP3 POP SWAP3 SWAP1 POP JUMP JUMPDEST PUSH2 0x70C DUP2 PUSH2 0x68A JUMP JUMPDEST DUP3 MSTORE POP POP JUMP JUMPDEST PUSH0 PUSH1 0x20 DUP3 ADD SWAP1 POP PUSH2 0x725 PUSH0 DUP4 ADD DUP5 PUSH2 0x703 JUMP JUMPDEST SWAP3 SWAP2 POP POP JUMP JUMPDEST PUSH0 DUP2 ISZERO ISZERO SWAP1 POP SWAP2 SWAP1 POP JUMP JUMPDEST PUSH2 0x73F DUP2 PUSH2 0x72B JUMP JUMPDEST DUP3 MSTORE POP POP JUMP JUMPDEST PUSH0 PUSH1 0x20 DUP3 ADD SWAP1 POP PUSH2 0x758 PUSH0 DUP4 ADD DUP5 PUSH2 0x736 JUMP JUMPDEST SWAP3 SWAP2 POP POP JUMP JUMPDEST PUSH0 PUSH0 PUSH0 PUSH1 0x60 DUP5 DUP7 SUB SLT ISZERO PUSH2 0x775 JUMPI PUSH2 0x774 PUSH2 0x5E1 JUMP JUMPDEST JUMPDEST PUSH0 PUSH2 0x782 DUP7 DUP3 DUP8 ADD PUSH2 0x604 JUMP JUMPDEST SWAP4 POP POP PUSH1 0x20 PUSH2 0x793 DUP7 DUP3 DUP8 ADD PUSH2 0x6B1 JUMP JUMPDEST SWAP3 POP POP PUSH1 0x40 PUSH2 0x7A4 DUP7 DUP3 DUP8 ADD PUSH2 0x604 JUMP JUMPDEST SWAP2 POP POP SWAP3 POP SWAP3 POP SWAP3 JUMP JUMPDEST PUSH32 0x4E487B7100000000000000000000000000000000000000000000000000000000 PUSH0 MSTORE PUSH1 0x12 PUSH1 0x4 MSTORE PUSH1 0x24 PUSH0 REVERT JUMPDEST PUSH32 0x4E487B7100000000000000000000000000000000000000000000000000000000 PUSH0 MSTORE PUSH1 0x11 PUSH1 0x4 MSTORE PUSH1 0x24 PUSH0 REVERT JUMPDEST PUSH0 PUSH2 0x812 DUP3 PUSH2 0x5E5 JUMP JUMPDEST SWAP2 POP PUSH2 0x81D DUP4 PUSH2 0x5E5 JUMP JUMPDEST SWAP3 POP DUP3 PUSH2 0x82D JUMPI PUSH2 0x82C PUSH2 0x7AE JUMP JUMPDEST JUMPDEST DUP3 DUP3 DIV SWAP1 POP SWAP3 SWAP2 POP POP JUMP JUMPDEST PUSH0 DUP3 DUP3 MSTORE PUSH1 0x20 DUP3 ADD SWAP1 POP SWAP3 SWAP2 POP POP JUMP JUMPDEST PUSH32 0x53636F7265206D757374206265206265747765656E203120616E642031300000 PUSH0 DUP3 ADD MSTORE POP JUMP JUMPDEST PUSH0 PUSH2 0x87C PUSH1 0x1E DUP4 PUSH2 0x838 JUMP JUMPDEST SWAP2 POP PUSH2 0x887 DUP3 PUSH2 0x848 JUMP JUMPDEST PUSH1 0x20 DUP3 ADD SWAP1 POP SWAP2 SWAP1 POP JUMP JUMPDEST PUSH0 PUSH1 0x20 DUP3 ADD SWAP1 POP DUP2 DUP2 SUB PUSH0 DUP4 ADD MSTORE PUSH2 0x8A9 DUP2 PUSH2 0x870 JUMP JUMPDEST SWAP1 POP SWAP2 SWAP1 POP JUMP JUMPDEST PUSH0 PUSH1 0x40 DUP3 ADD SWAP1 POP PUSH2 0x8C3 PUSH0 DUP4 ADD DUP6 PUSH2 0x643 JUMP JUMPDEST PUSH2 0x8D0 PUSH1 0x20 DUP4 ADD DUP5 PUSH2 0x643 JUMP JUMPDEST SWAP4 SWAP3 POP POP POP JUMP JUMPDEST PUSH0 PUSH2 0x8E1 DUP3 PUSH2 0x5E5 JUMP JUMPDEST SWAP2 POP PUSH2 0x8EC DUP4 PUSH2 0x5E5 JUMP JUMPDEST SWAP3 POP DUP3 DUP3 ADD SWAP1 POP DUP1 DUP3 GT ISZERO PUSH2 0x904 JUMPI PUSH2 0x903 PUSH2 0x7DB JUMP JUMPDEST JUMPDEST SWAP3 SWAP2 POP POP JUMP JUMPDEST PUSH0 PUSH2 0x914 DUP3 PUSH2 0x5E5 JUMP JUMPDEST SWAP2 POP PUSH2 0x91F DUP4 PUSH2 0x5E5 JUMP JUMPDEST SWAP3 POP DUP3 DUP3 SUB SWAP1 POP DUP2 DUP2 GT ISZERO PUSH2 0x937 JUMPI PUSH2 0x936 PUSH2 0x7DB JUMP JUMPDEST JUMPDEST SWAP3 SWAP2 POP POP JUMP INVALID LOG2 PUSH5 0x6970667358 0x22 SLT KECCAK256 0xDB COINBASE DUP8 0xA8 PUSH17 0x13DE5077E4FB11F9D88834F8F2B02D8CE2 SWAP9 DUP4 SELFBALANCE PUSH21 0x4A8BDB75175D64736F6C634300081E003300000000 "
				},
				"gasEstimates": {
					"creation": {
						"codeDepositCost": "483800",
						"executionCost": "24780",
						"totalCost": "508580"
					},
					"external": {
						"complaintRegistry()": "2552",
						"getScore(uint256)": "infinite",
						"hasRated(uint256,address)": "3092",
						"reviewCount(uint256)": "infinite",
						"totalScore(uint256)": "infinite",
						"updateScore(uint256,address,uint256)": "infinite",
						"userRating(uint256,address)": "infinite"
					},
					"internal": {
						"updateExistingScore(uint256,address,uint256)": "infinite"
					}
				},
				"methodIdentifiers": {
					"complaintRegistry()": "4f0961e4",
					"getScore(uint256)": "0e1af57b",
					"hasRated(uint256,address)": "76454486",
					"reviewCount(uint256)": "6061eec4",
					"totalScore(uint256)": "ff595f78",
					"updateScore(uint256,address,uint256)": "a9d7a87e",
					"userRating(uint256,address)": "1eee0596"
				}
			},
			"storageLayout": {
				"storage": [
					{
						"astId": 236,
						"contract": "assessment3/ReputationCalculation.sol:ReputationCalculation",
						"label": "complaintRegistry",
						"offset": 0,
						"slot": "0",
						"type": "t_address"
					},
					{
						"astId": 240,
						"contract": "assessment3/ReputationCalculation.sol:ReputationCalculation",
						"label": "totalScore",
						"offset": 0,
						"slot": "1",
						"type": "t_mapping(t_uint256,t_uint256)"
					},
					{
						"astId": 244,
						"contract": "assessment3/ReputationCalculation.sol:ReputationCalculation",
						"label": "reviewCount",
						"offset": 0,
						"slot": "2",
						"type": "t_mapping(t_uint256,t_uint256)"
					},
					{
						"astId": 250,
						"contract": "assessment3/ReputationCalculation.sol:ReputationCalculation",
						"label": "hasRated",
						"offset": 0,
						"slot": "3",
						"type": "t_mapping(t_uint256,t_mapping(t_address,t_bool))"
					},
					{
						"astId": 256,
						"contract": "assessment3/ReputationCalculation.sol:ReputationCalculation",
						"label": "userRating",
						"offset": 0,
						"slot": "4",
						"type": "t_mapping(t_uint256,t_mapping(t_address,t_uint256))"
					}
				],
				"types": {
					"t_address": {
						"encoding": "inplace",
						"label": "address",
						"numberOfBytes": "20"
					},
					"t_bool": {
						"encoding": "inplace",
						"label": "bool",
						"numberOfBytes": "1"
					},
					"t_mapping(t_address,t_bool)": {
						"encoding": "mapping",
						"key": "t_address",
						"label": "mapping(address => bool)",
						"numberOfBytes": "32",
						"value": "t_bool"
					},
					"t_mapping(t_address,t_uint256)": {
						"encoding": "mapping",
						"key": "t_address",
						"label": "mapping(address => uint256)",
						"numberOfBytes": "32",
						"value": "t_uint256"
					},
					"t_mapping(t_uint256,t_mapping(t_address,t_bool))": {
						"encoding": "mapping",
						"key": "t_uint256",
						"label": "mapping(uint256 => mapping(address => bool))",
						"numberOfBytes": "32",
						"value": "t_mapping(t_address,t_bool)"
					},
					"t_mapping(t_uint256,t_mapping(t_address,t_uint256))": {
						"encoding": "mapping",
						"key": "t_uint256",
						"label": "mapping(uint256 => mapping(address => uint256))",
						"numberOfBytes": "32",
						"value": "t_mapping(t_address,t_uint256)"
					},
					"t_mapping(t_uint256,t_uint256)": {
						"encoding": "mapping",
						"key": "t_uint256",
						"label": "mapping(uint256 => uint256)",
						"numberOfBytes": "32",
						"value": "t_uint256"
					},
					"t_uint256": {
						"encoding": "inplace",
						"label": "uint256",
						"numberOfBytes": "32"
					}
				}
			},
			"userdoc": {
				"kind": "user",
				"methods": {},
				"version": 1
			}
		}
	}
}