{
	"assessment3/AnonComplaint.sol": {
		"ComplaintRegistry": {
			"abi": [
				{
					"inputs": [
						{
							"internalType": "address",
							"name": "organisationRegistryAddress",
							"type": "address"
						},
						{
							"internalType": "address",
							"name": "userRegistryAddress",
							"type": "address"
						},
						{
							"internalType": "address",
							"name": "reputationCalculationAddress",
							"type": "address"
						}
					],
					"stateMutability": "nonpayable",
					"type": "constructor"
				},
				{
					"anonymous": false,
					"inputs": [
						{
							"indexed": true,
							"internalType": "uint256",
							"name": "complaintId",
							"type": "uint256"
						},
						{
							"indexed": true,
							"internalType": "uint256",
							"name": "userId",
							"type": "uint256"
						},
						{
							"indexed": true,
							"internalType": "uint256",
							"name": "orgId",
							"type": "uint256"
						},
						{
							"indexed": false,
							"internalType": "uint256",
							"name": "score",
							"type": "uint256"
						},
						{
							"indexed": false,
							"internalType": "address",
							"name": "reporter",
							"type": "address"
						},
						{
							"indexed": false,
							"internalType": "string",
							"name": "contentHash",
							"type": "string"
						}
					],
					"name": "ComplaintSubmitted",
					"type": "event"
				},
				{
					"inputs": [],
					"name": "complaintCount",
					"outputs": [
						{
							"internalType": "uint256",
							"name": "",
							"type": "uint256"
						}
					],
					"stateMutability": "view",
					"type": "function"
				},
				{
					"inputs": [
						{
							"internalType": "uint256",
							"name": "",
							"type": "uint256"
						}
					],
					"name": "complaints",
					"outputs": [
						{
							"internalType": "uint256",
							"name": "id",
							"type": "uint256"
						},
						{
							"internalType": "uint256",
							"name": "userId",
							"type": "uint256"
						},
						{
							"internalType": "uint256",
							"name": "orgId",
							"type": "uint256"
						},
						{
							"internalType": "uint256",
							"name": "score",
							"type": "uint256"
						},
						{
							"internalType": "uint256",
							"name": "timestamp",
							"type": "uint256"
						},
						{
							"internalType": "string",
							"name": "contentHash",
							"type": "string"
						},
						{
							"internalType": "address",
							"name": "reporter",
							"type": "address"
						}
					],
					"stateMutability": "view",
					"type": "function"
				},
				{
					"inputs": [
						{
							"internalType": "uint256",
							"name": "",
							"type": "uint256"
						},
						{
							"internalType": "uint256",
							"name": "",
							"type": "uint256"
						}
					],
					"name": "complaintsByOrganisation",
					"outputs": [
						{
							"internalType": "uint256",
							"name": "",
							"type": "uint256"
						}
					],
					"stateMutability": "view",
					"type": "function"
				},
				{
					"inputs": [
						{
							"internalType": "uint256",
							"name": "",
							"type": "uint256"
						},
						{
							"internalType": "uint256",
							"name": "",
							"type": "uint256"
						}
					],
					"name": "complaintsByUser",
					"outputs": [
						{
							"internalType": "uint256",
							"name": "",
							"type": "uint256"
						}
					],
					"stateMutability": "view",
					"type": "function"
				},
				{
					"inputs": [],
					"name": "organisationRegistry",
					"outputs": [
						{
							"internalType": "contract OrganisationRegistry",
							"name": "",
							"type": "address"
						}
					],
					"stateMutability": "view",
					"type": "function"
				},
				{
					"inputs": [],
					"name": "reputationCalculation",
					"outputs": [
						{
							"internalType": "contract ReputationCalculation",
							"name": "",
							"type": "address"
						}
					],
					"stateMutability": "view",
					"type": "function"
				},
				{
					"inputs": [],
					"name": "userRegistry",
					"outputs": [
						{
							"internalType": "contract UserRegistry",
							"name": "",
							"type": "address"
						}
					],
					"stateMutability": "view",
					"type": "function"
				}
			],
			"devdoc": {
				"kind": "dev",
				"methods": {},
				"version": 1
			},
			"evm": {
				"assembly": "    /* \"assessment3/AnonComplaint.sol\":199:1641  contract ComplaintRegistry {... */\n  mstore(0x40, 0x80)\n    /* \"assessment3/AnonComplaint.sol\":1027:1638  constructor( address organisationRegistryAddress, address userRegistryAddress, address reputationCalculationAddress) {... */\n  callvalue\n  dup1\n  iszero\n  tag_1\n  jumpi\n  revert(0x00, 0x00)\ntag_1:\n  pop\n  mload(0x40)\n  sub(codesize, bytecodeSize)\n  dup1\n  bytecodeSize\n  dup4\n  codecopy\n  dup2\n  dup2\n  add\n  0x40\n  mstore\n  dup2\n  add\n  swap1\n  tag_2\n  swap2\n  swap1\n  tag_3\n  jump\t// in\ntag_2:\n    /* \"assessment3/AnonComplaint.sol\":1202:1203  0 */\n  0x00\n    /* \"assessment3/AnonComplaint.sol\":1163:1204  organisationRegistryAddress != address(0) */\n  0xffffffffffffffffffffffffffffffffffffffff\n  and\n    /* \"assessment3/AnonComplaint.sol\":1163:1190  organisationRegistryAddress */\n  dup4\n    /* \"assessment3/AnonComplaint.sol\":1163:1204  organisationRegistryAddress != address(0) */\n  0xffffffffffffffffffffffffffffffffffffffff\n  and\n  sub\n    /* \"assessment3/AnonComplaint.sol\":1155:1229  require(organisationRegistryAddress != address(0), \"Invalid org registry\") */\n  tag_6\n  jumpi\n  mload(0x40)\n  0x08c379a000000000000000000000000000000000000000000000000000000000\n  dup2\n  mstore\n  0x04\n  add\n  tag_7\n  swap1\n  tag_8\n  jump\t// in\ntag_7:\n  mload(0x40)\n  dup1\n  swap2\n  sub\n  swap1\n  revert\ntag_6:\n    /* \"assessment3/AnonComplaint.sol\":1279:1280  0 */\n  0x00\n    /* \"assessment3/AnonComplaint.sol\":1248:1281  userRegistryAddress != address(0) */\n  0xffffffffffffffffffffffffffffffffffffffff\n  and\n    /* \"assessment3/AnonComplaint.sol\":1248:1267  userRegistryAddress */\n  dup3\n    /* \"assessment3/AnonComplaint.sol\":1248:1281  userRegistryAddress != address(0) */\n  0xffffffffffffffffffffffffffffffffffffffff\n  and\n  sub\n    /* \"assessment3/AnonComplaint.sol\":1240:1307  require(userRegistryAddress != address(0), \"Invalid user registry\") */\n  tag_9\n  jumpi\n  mload(0x40)\n  0x08c379a000000000000000000000000000000000000000000000000000000000\n  dup2\n  mstore\n  0x04\n  add\n  tag_10\n  swap1\n  tag_11\n  jump\t// in\ntag_10:\n  mload(0x40)\n  dup1\n  swap2\n  sub\n  swap1\n  revert\ntag_9:\n    /* \"assessment3/AnonComplaint.sol\":1366:1367  0 */\n  0x00\n    /* \"assessment3/AnonComplaint.sol\":1326:1368  reputationCalculationAddress != address(0) */\n  0xffffffffffffffffffffffffffffffffffffffff\n  and\n    /* \"assessment3/AnonComplaint.sol\":1326:1354  reputationCalculationAddress */\n  dup2\n    /* \"assessment3/AnonComplaint.sol\":1326:1368  reputationCalculationAddress != address(0) */\n  0xffffffffffffffffffffffffffffffffffffffff\n  and\n  sub\n    /* \"assessment3/AnonComplaint.sol\":1318:1400  require(reputationCalculationAddress != address(0), \"Invalid reputation contract\") */\n  tag_12\n  jumpi\n  mload(0x40)\n  0x08c379a000000000000000000000000000000000000000000000000000000000\n  dup2\n  mstore\n  0x04\n  add\n  tag_13\n  swap1\n  tag_14\n  jump\t// in\ntag_13:\n  mload(0x40)\n  dup1\n  swap2\n  sub\n  swap1\n  revert\ntag_12:\n    /* \"assessment3/AnonComplaint.sol\":1457:1484  organisationRegistryAddress */\n  dup3\n    /* \"assessment3/AnonComplaint.sol\":1413:1433  organisationRegistry */\n  0x04\n  0x00\n    /* \"assessment3/AnonComplaint.sol\":1413:1485  organisationRegistry = OrganisationRegistry(organisationRegistryAddress) */\n  0x0100\n  exp\n  dup2\n  sload\n  dup2\n  0xffffffffffffffffffffffffffffffffffffffff\n  mul\n  not\n  and\n  swap1\n  dup4\n  0xffffffffffffffffffffffffffffffffffffffff\n  and\n  mul\n  or\n  swap1\n  sstore\n  pop\n    /* \"assessment3/AnonComplaint.sol\":1524:1543  userRegistryAddress */\n  dup2\n    /* \"assessment3/AnonComplaint.sol\":1496:1508  userRegistry */\n  0x05\n  0x00\n    /* \"assessment3/AnonComplaint.sol\":1496:1544  userRegistry = UserRegistry(userRegistryAddress) */\n  0x0100\n  exp\n  dup2\n  sload\n  dup2\n  0xffffffffffffffffffffffffffffffffffffffff\n  mul\n  not\n  and\n  swap1\n  dup4\n  0xffffffffffffffffffffffffffffffffffffffff\n  and\n  mul\n  or\n  swap1\n  sstore\n  pop\n    /* \"assessment3/AnonComplaint.sol\":1601:1629  reputationCalculationAddress */\n  dup1\n    /* \"assessment3/AnonComplaint.sol\":1555:1576  reputationCalculation */\n  0x06\n  0x00\n    /* \"assessment3/AnonComplaint.sol\":1555:1630  reputationCalculation = ReputationCalculation(reputationCalculationAddress) */\n  0x0100\n  exp\n  dup2\n  sload\n  dup2\n  0xffffffffffffffffffffffffffffffffffffffff\n  mul\n  not\n  and\n  swap1\n  dup4\n  0xffffffffffffffffffffffffffffffffffffffff\n  and\n  mul\n  or\n  swap1\n  sstore\n  pop\n    /* \"assessment3/AnonComplaint.sol\":1027:1638  constructor( address organisationRegistryAddress, address userRegistryAddress, address reputationCalculationAddress) {... */\n  pop\n  pop\n  pop\n    /* \"assessment3/AnonComplaint.sol\":199:1641  contract ComplaintRegistry {... */\n  jump(tag_15)\n    /* \"#utility.yul\":88:205   */\ntag_17:\n    /* \"#utility.yul\":197:198   */\n  0x00\n    /* \"#utility.yul\":194:195   */\n  0x00\n    /* \"#utility.yul\":187:199   */\n  revert\n    /* \"#utility.yul\":334:460   */\ntag_19:\n    /* \"#utility.yul\":371:378   */\n  0x00\n    /* \"#utility.yul\":411:453   */\n  0xffffffffffffffffffffffffffffffffffffffff\n    /* \"#utility.yul\":404:409   */\n  dup3\n    /* \"#utility.yul\":400:454   */\n  and\n    /* \"#utility.yul\":389:454   */\n  swap1\n  pop\n    /* \"#utility.yul\":334:460   */\n  swap2\n  swap1\n  pop\n  jump\t// out\n    /* \"#utility.yul\":466:562   */\ntag_20:\n    /* \"#utility.yul\":503:510   */\n  0x00\n    /* \"#utility.yul\":532:556   */\n  tag_36\n    /* \"#utility.yul\":550:555   */\n  dup3\n    /* \"#utility.yul\":532:556   */\n  tag_19\n  jump\t// in\ntag_36:\n    /* \"#utility.yul\":521:556   */\n  swap1\n  pop\n    /* \"#utility.yul\":466:562   */\n  swap2\n  swap1\n  pop\n  jump\t// out\n    /* \"#utility.yul\":568:690   */\ntag_21:\n    /* \"#utility.yul\":641:665   */\n  tag_38\n    /* \"#utility.yul\":659:664   */\n  dup2\n    /* \"#utility.yul\":641:665   */\n  tag_20\n  jump\t// in\ntag_38:\n    /* \"#utility.yul\":634:639   */\n  dup2\n    /* \"#utility.yul\":631:666   */\n  eq\n    /* \"#utility.yul\":621:684   */\n  tag_39\n  jumpi\n    /* \"#utility.yul\":680:681   */\n  0x00\n    /* \"#utility.yul\":677:678   */\n  0x00\n    /* \"#utility.yul\":670:682   */\n  revert\n    /* \"#utility.yul\":621:684   */\ntag_39:\n    /* \"#utility.yul\":568:690   */\n  pop\n  jump\t// out\n    /* \"#utility.yul\":696:839   */\ntag_22:\n    /* \"#utility.yul\":753:758   */\n  0x00\n    /* \"#utility.yul\":784:790   */\n  dup2\n    /* \"#utility.yul\":778:791   */\n  mload\n    /* \"#utility.yul\":769:791   */\n  swap1\n  pop\n    /* \"#utility.yul\":800:833   */\n  tag_41\n    /* \"#utility.yul\":827:832   */\n  dup2\n    /* \"#utility.yul\":800:833   */\n  tag_21\n  jump\t// in\ntag_41:\n    /* \"#utility.yul\":696:839   */\n  swap3\n  swap2\n  pop\n  pop\n  jump\t// out\n    /* \"#utility.yul\":845:1508   */\ntag_3:\n    /* \"#utility.yul\":933:939   */\n  0x00\n    /* \"#utility.yul\":941:947   */\n  0x00\n    /* \"#utility.yul\":949:955   */\n  0x00\n    /* \"#utility.yul\":998:1000   */\n  0x60\n    /* \"#utility.yul\":986:995   */\n  dup5\n    /* \"#utility.yul\":977:984   */\n  dup7\n    /* \"#utility.yul\":973:996   */\n  sub\n    /* \"#utility.yul\":969:1001   */\n  slt\n    /* \"#utility.yul\":966:1085   */\n  iszero\n  tag_43\n  jumpi\n    /* \"#utility.yul\":1004:1083   */\n  tag_44\n  tag_17\n  jump\t// in\ntag_44:\n    /* \"#utility.yul\":966:1085   */\ntag_43:\n    /* \"#utility.yul\":1124:1125   */\n  0x00\n    /* \"#utility.yul\":1149:1213   */\n  tag_45\n    /* \"#utility.yul\":1205:1212   */\n  dup7\n    /* \"#utility.yul\":1196:1202   */\n  dup3\n    /* \"#utility.yul\":1185:1194   */\n  dup8\n    /* \"#utility.yul\":1181:1203   */\n  add\n    /* \"#utility.yul\":1149:1213   */\n  tag_22\n  jump\t// in\ntag_45:\n    /* \"#utility.yul\":1139:1213   */\n  swap4\n  pop\n    /* \"#utility.yul\":1095:1223   */\n  pop\n    /* \"#utility.yul\":1262:1264   */\n  0x20\n    /* \"#utility.yul\":1288:1352   */\n  tag_46\n    /* \"#utility.yul\":1344:1351   */\n  dup7\n    /* \"#utility.yul\":1335:1341   */\n  dup3\n    /* \"#utility.yul\":1324:1333   */\n  dup8\n    /* \"#utility.yul\":1320:1342   */\n  add\n    /* \"#utility.yul\":1288:1352   */\n  tag_22\n  jump\t// in\ntag_46:\n    /* \"#utility.yul\":1278:1352   */\n  swap3\n  pop\n    /* \"#utility.yul\":1233:1362   */\n  pop\n    /* \"#utility.yul\":1401:1403   */\n  0x40\n    /* \"#utility.yul\":1427:1491   */\n  tag_47\n    /* \"#utility.yul\":1483:1490   */\n  dup7\n    /* \"#utility.yul\":1474:1480   */\n  dup3\n    /* \"#utility.yul\":1463:1472   */\n  dup8\n    /* \"#utility.yul\":1459:1481   */\n  add\n    /* \"#utility.yul\":1427:1491   */\n  tag_22\n  jump\t// in\ntag_47:\n    /* \"#utility.yul\":1417:1491   */\n  swap2\n  pop\n    /* \"#utility.yul\":1372:1501   */\n  pop\n    /* \"#utility.yul\":845:1508   */\n  swap3\n  pop\n  swap3\n  pop\n  swap3\n  jump\t// out\n    /* \"#utility.yul\":1514:1683   */\ntag_23:\n    /* \"#utility.yul\":1598:1609   */\n  0x00\n    /* \"#utility.yul\":1632:1638   */\n  dup3\n    /* \"#utility.yul\":1627:1630   */\n  dup3\n    /* \"#utility.yul\":1620:1639   */\n  mstore\n    /* \"#utility.yul\":1672:1676   */\n  0x20\n    /* \"#utility.yul\":1667:1670   */\n  dup3\n    /* \"#utility.yul\":1663:1677   */\n  add\n    /* \"#utility.yul\":1648:1677   */\n  swap1\n  pop\n    /* \"#utility.yul\":1514:1683   */\n  swap3\n  swap2\n  pop\n  pop\n  jump\t// out\n    /* \"#utility.yul\":1689:1859   */\ntag_24:\n    /* \"#utility.yul\":1829:1851   */\n  0x496e76616c6964206f7267207265676973747279000000000000000000000000\n    /* \"#utility.yul\":1825:1826   */\n  0x00\n    /* \"#utility.yul\":1817:1823   */\n  dup3\n    /* \"#utility.yul\":1813:1827   */\n  add\n    /* \"#utility.yul\":1806:1852   */\n  mstore\n    /* \"#utility.yul\":1689:1859   */\n  pop\n  jump\t// out\n    /* \"#utility.yul\":1865:2231   */\ntag_25:\n    /* \"#utility.yul\":2007:2010   */\n  0x00\n    /* \"#utility.yul\":2028:2095   */\n  tag_51\n    /* \"#utility.yul\":2092:2094   */\n  0x14\n    /* \"#utility.yul\":2087:2090   */\n  dup4\n    /* \"#utility.yul\":2028:2095   */\n  tag_23\n  jump\t// in\ntag_51:\n    /* \"#utility.yul\":2021:2095   */\n  swap2\n  pop\n    /* \"#utility.yul\":2104:2197   */\n  tag_52\n    /* \"#utility.yul\":2193:2196   */\n  dup3\n    /* \"#utility.yul\":2104:2197   */\n  tag_24\n  jump\t// in\ntag_52:\n    /* \"#utility.yul\":2222:2224   */\n  0x20\n    /* \"#utility.yul\":2217:2220   */\n  dup3\n    /* \"#utility.yul\":2213:2225   */\n  add\n    /* \"#utility.yul\":2206:2225   */\n  swap1\n  pop\n    /* \"#utility.yul\":1865:2231   */\n  swap2\n  swap1\n  pop\n  jump\t// out\n    /* \"#utility.yul\":2237:2656   */\ntag_8:\n    /* \"#utility.yul\":2403:2407   */\n  0x00\n    /* \"#utility.yul\":2441:2443   */\n  0x20\n    /* \"#utility.yul\":2430:2439   */\n  dup3\n    /* \"#utility.yul\":2426:2444   */\n  add\n    /* \"#utility.yul\":2418:2444   */\n  swap1\n  pop\n    /* \"#utility.yul\":2490:2499   */\n  dup2\n    /* \"#utility.yul\":2484:2488   */\n  dup2\n    /* \"#utility.yul\":2480:2500   */\n  sub\n    /* \"#utility.yul\":2476:2477   */\n  0x00\n    /* \"#utility.yul\":2465:2474   */\n  dup4\n    /* \"#utility.yul\":2461:2478   */\n  add\n    /* \"#utility.yul\":2454:2501   */\n  mstore\n    /* \"#utility.yul\":2518:2649   */\n  tag_54\n    /* \"#utility.yul\":2644:2648   */\n  dup2\n    /* \"#utility.yul\":2518:2649   */\n  tag_25\n  jump\t// in\ntag_54:\n    /* \"#utility.yul\":2510:2649   */\n  swap1\n  pop\n    /* \"#utility.yul\":2237:2656   */\n  swap2\n  swap1\n  pop\n  jump\t// out\n    /* \"#utility.yul\":2662:2833   */\ntag_26:\n    /* \"#utility.yul\":2802:2825   */\n  0x496e76616c696420757365722072656769737472790000000000000000000000\n    /* \"#utility.yul\":2798:2799   */\n  0x00\n    /* \"#utility.yul\":2790:2796   */\n  dup3\n    /* \"#utility.yul\":2786:2800   */\n  add\n    /* \"#utility.yul\":2779:2826   */\n  mstore\n    /* \"#utility.yul\":2662:2833   */\n  pop\n  jump\t// out\n    /* \"#utility.yul\":2839:3205   */\ntag_27:\n    /* \"#utility.yul\":2981:2984   */\n  0x00\n    /* \"#utility.yul\":3002:3069   */\n  tag_57\n    /* \"#utility.yul\":3066:3068   */\n  0x15\n    /* \"#utility.yul\":3061:3064   */\n  dup4\n    /* \"#utility.yul\":3002:3069   */\n  tag_23\n  jump\t// in\ntag_57:\n    /* \"#utility.yul\":2995:3069   */\n  swap2\n  pop\n    /* \"#utility.yul\":3078:3171   */\n  tag_58\n    /* \"#utility.yul\":3167:3170   */\n  dup3\n    /* \"#utility.yul\":3078:3171   */\n  tag_26\n  jump\t// in\ntag_58:\n    /* \"#utility.yul\":3196:3198   */\n  0x20\n    /* \"#utility.yul\":3191:3194   */\n  dup3\n    /* \"#utility.yul\":3187:3199   */\n  add\n    /* \"#utility.yul\":3180:3199   */\n  swap1\n  pop\n    /* \"#utility.yul\":2839:3205   */\n  swap2\n  swap1\n  pop\n  jump\t// out\n    /* \"#utility.yul\":3211:3630   */\ntag_11:\n    /* \"#utility.yul\":3377:3381   */\n  0x00\n    /* \"#utility.yul\":3415:3417   */\n  0x20\n    /* \"#utility.yul\":3404:3413   */\n  dup3\n    /* \"#utility.yul\":3400:3418   */\n  add\n    /* \"#utility.yul\":3392:3418   */\n  swap1\n  pop\n    /* \"#utility.yul\":3464:3473   */\n  dup2\n    /* \"#utility.yul\":3458:3462   */\n  dup2\n    /* \"#utility.yul\":3454:3474   */\n  sub\n    /* \"#utility.yul\":3450:3451   */\n  0x00\n    /* \"#utility.yul\":3439:3448   */\n  dup4\n    /* \"#utility.yul\":3435:3452   */\n  add\n    /* \"#utility.yul\":3428:3475   */\n  mstore\n    /* \"#utility.yul\":3492:3623   */\n  tag_60\n    /* \"#utility.yul\":3618:3622   */\n  dup2\n    /* \"#utility.yul\":3492:3623   */\n  tag_27\n  jump\t// in\ntag_60:\n    /* \"#utility.yul\":3484:3623   */\n  swap1\n  pop\n    /* \"#utility.yul\":3211:3630   */\n  swap2\n  swap1\n  pop\n  jump\t// out\n    /* \"#utility.yul\":3636:3813   */\ntag_28:\n    /* \"#utility.yul\":3776:3805   */\n  0x496e76616c69642072657075746174696f6e20636f6e74726163740000000000\n    /* \"#utility.yul\":3772:3773   */\n  0x00\n    /* \"#utility.yul\":3764:3770   */\n  dup3\n    /* \"#utility.yul\":3760:3774   */\n  add\n    /* \"#utility.yul\":3753:3806   */\n  mstore\n    /* \"#utility.yul\":3636:3813   */\n  pop\n  jump\t// out\n    /* \"#utility.yul\":3819:4185   */\ntag_29:\n    /* \"#utility.yul\":3961:3964   */\n  0x00\n    /* \"#utility.yul\":3982:4049   */\n  tag_63\n    /* \"#utility.yul\":4046:4048   */\n  0x1b\n    /* \"#utility.yul\":4041:4044   */\n  dup4\n    /* \"#utility.yul\":3982:4049   */\n  tag_23\n  jump\t// in\ntag_63:\n    /* \"#utility.yul\":3975:4049   */\n  swap2\n  pop\n    /* \"#utility.yul\":4058:4151   */\n  tag_64\n    /* \"#utility.yul\":4147:4150   */\n  dup3\n    /* \"#utility.yul\":4058:4151   */\n  tag_28\n  jump\t// in\ntag_64:\n    /* \"#utility.yul\":4176:4178   */\n  0x20\n    /* \"#utility.yul\":4171:4174   */\n  dup3\n    /* \"#utility.yul\":4167:4179   */\n  add\n    /* \"#utility.yul\":4160:4179   */\n  swap1\n  pop\n    /* \"#utility.yul\":3819:4185   */\n  swap2\n  swap1\n  pop\n  jump\t// out\n    /* \"#utility.yul\":4191:4610   */\ntag_14:\n    /* \"#utility.yul\":4357:4361   */\n  0x00\n    /* \"#utility.yul\":4395:4397   */\n  0x20\n    /* \"#utility.yul\":4384:4393   */\n  dup3\n    /* \"#utility.yul\":4380:4398   */\n  add\n    /* \"#utility.yul\":4372:4398   */\n  swap1\n  pop\n    /* \"#utility.yul\":4444:4453   */\n  dup2\n    /* \"#utility.yul\":4438:4442   */\n  dup2\n    /* \"#utility.yul\":4434:4454   */\n  sub\n    /* \"#utility.yul\":4430:4431   */\n  0x00\n    /* \"#utility.yul\":4419:4428   */\n  dup4\n    /* \"#utility.yul\":4415:4432   */\n  add\n    /* \"#utility.yul\":4408:4455   */\n  mstore\n    /* \"#utility.yul\":4472:4603   */\n  tag_66\n    /* \"#utility.yul\":4598:4602   */\n  dup2\n    /* \"#utility.yul\":4472:4603   */\n  tag_29\n  jump\t// in\ntag_66:\n    /* \"#utility.yul\":4464:4603   */\n  swap1\n  pop\n    /* \"#utility.yul\":4191:4610   */\n  swap2\n  swap1\n  pop\n  jump\t// out\n    /* \"assessment3/AnonComplaint.sol\":199:1641  contract ComplaintRegistry {... */\ntag_15:\n  dataSize(sub_0)\n  dup1\n  dataOffset(sub_0)\n  0x00\n  codecopy\n  0x00\n  return\nstop\n\nsub_0: assembly {\n        /* \"assessment3/AnonComplaint.sol\":199:1641  contract ComplaintRegistry {... */\n      mstore(0x40, 0x80)\n      callvalue\n      dup1\n      iszero\n      tag_1\n      jumpi\n      revert(0x00, 0x00)\n    tag_1:\n      pop\n      jumpi(tag_2, lt(calldatasize, 0x04))\n      shr(0xe0, calldataload(0x00))\n      dup1\n      0x5c7460d6\n      gt\n      tag_10\n      jumpi\n      dup1\n      0x5c7460d6\n      eq\n      tag_6\n      jumpi\n      dup1\n      0x7a1c6b70\n      eq\n      tag_7\n      jumpi\n      dup1\n      0x7e69e912\n      eq\n      tag_8\n      jumpi\n      dup1\n      0xc7059ea2\n      eq\n      tag_9\n      jumpi\n      jump(tag_2)\n    tag_10:\n      dup1\n      0x0dcbbd95\n      eq\n      tag_3\n      jumpi\n      dup1\n      0x2edea294\n      eq\n      tag_4\n      jumpi\n      dup1\n      0x36c582b7\n      eq\n      tag_5\n      jumpi\n    tag_2:\n      revert(0x00, 0x00)\n        /* \"assessment3/AnonComplaint.sol\":589:642  mapping(uint256 => uint256[]) public complaintsByUser */\n    tag_3:\n      tag_11\n      0x04\n      dup1\n      calldatasize\n      sub\n      dup2\n      add\n      swap1\n      tag_12\n      swap2\n      swap1\n      tag_13\n      jump\t// in\n    tag_12:\n      tag_14\n      jump\t// in\n    tag_11:\n      mload(0x40)\n      tag_15\n      swap2\n      swap1\n      tag_16\n      jump\t// in\n    tag_15:\n      mload(0x40)\n      dup1\n      swap2\n      sub\n      swap1\n      return\n        /* \"assessment3/AnonComplaint.sol\":429:458  uint256 public complaintCount */\n    tag_4:\n      tag_17\n      tag_18\n      jump\t// in\n    tag_17:\n      mload(0x40)\n      tag_19\n      swap2\n      swap1\n      tag_16\n      jump\t// in\n    tag_19:\n      mload(0x40)\n      dup1\n      swap2\n      sub\n      swap1\n      return\n        /* \"assessment3/AnonComplaint.sol\":745:795  ReputationCalculation public reputationCalculation */\n    tag_5:\n      tag_20\n      tag_21\n      jump\t// in\n    tag_20:\n      mload(0x40)\n      tag_22\n      swap2\n      swap1\n      tag_23\n      jump\t// in\n    tag_22:\n      mload(0x40)\n      dup1\n      swap2\n      sub\n      swap1\n      return\n        /* \"assessment3/AnonComplaint.sol\":706:738  UserRegistry public userRegistry */\n    tag_6:\n      tag_24\n      tag_25\n      jump\t// in\n    tag_24:\n      mload(0x40)\n      tag_26\n      swap2\n      swap1\n      tag_27\n      jump\t// in\n    tag_26:\n      mload(0x40)\n      dup1\n      swap2\n      sub\n      swap1\n      return\n        /* \"assessment3/AnonComplaint.sol\":651:699  OrganisationRegistry public organisationRegistry */\n    tag_7:\n      tag_28\n      tag_29\n      jump\t// in\n    tag_28:\n      mload(0x40)\n      tag_30\n      swap2\n      swap1\n      tag_31\n      jump\t// in\n    tag_30:\n      mload(0x40)\n      dup1\n      swap2\n      sub\n      swap1\n      return\n        /* \"assessment3/AnonComplaint.sol\":467:514  mapping(uint256 => Complaint) public complaints */\n    tag_8:\n      tag_32\n      0x04\n      dup1\n      calldatasize\n      sub\n      dup2\n      add\n      swap1\n      tag_33\n      swap2\n      swap1\n      tag_34\n      jump\t// in\n    tag_33:\n      tag_35\n      jump\t// in\n    tag_32:\n      mload(0x40)\n      tag_36\n      swap8\n      swap7\n      swap6\n      swap5\n      swap4\n      swap3\n      swap2\n      swap1\n      tag_37\n      jump\t// in\n    tag_36:\n      mload(0x40)\n      dup1\n      swap2\n      sub\n      swap1\n      return\n        /* \"assessment3/AnonComplaint.sol\":521:582  mapping(uint256 => uint256[]) public complaintsByOrganisation */\n    tag_9:\n      tag_38\n      0x04\n      dup1\n      calldatasize\n      sub\n      dup2\n      add\n      swap1\n      tag_39\n      swap2\n      swap1\n      tag_13\n      jump\t// in\n    tag_39:\n      tag_40\n      jump\t// in\n    tag_38:\n      mload(0x40)\n      tag_41\n      swap2\n      swap1\n      tag_16\n      jump\t// in\n    tag_41:\n      mload(0x40)\n      dup1\n      swap2\n      sub\n      swap1\n      return\n        /* \"assessment3/AnonComplaint.sol\":589:642  mapping(uint256 => uint256[]) public complaintsByUser */\n    tag_14:\n      mstore(0x20, 0x03)\n      dup2\n      0x00\n      mstore\n      keccak256(0x00, 0x40)\n      dup2\n      dup2\n      sload\n      dup2\n      lt\n      tag_42\n      jumpi\n      0x00\n      dup1\n      revert\n    tag_42:\n      swap1\n      0x00\n      mstore\n      keccak256(0x00, 0x20)\n      add\n      0x00\n      swap2\n      pop\n      swap2\n      pop\n      pop\n      sload\n      dup2\n      jump\t// out\n        /* \"assessment3/AnonComplaint.sol\":429:458  uint256 public complaintCount */\n    tag_18:\n      sload(0x00)\n      dup2\n      jump\t// out\n        /* \"assessment3/AnonComplaint.sol\":745:795  ReputationCalculation public reputationCalculation */\n    tag_21:\n      0x06\n      0x00\n      swap1\n      sload\n      swap1\n      0x0100\n      exp\n      swap1\n      div\n      0xffffffffffffffffffffffffffffffffffffffff\n      and\n      dup2\n      jump\t// out\n        /* \"assessment3/AnonComplaint.sol\":706:738  UserRegistry public userRegistry */\n    tag_25:\n      0x05\n      0x00\n      swap1\n      sload\n      swap1\n      0x0100\n      exp\n      swap1\n      div\n      0xffffffffffffffffffffffffffffffffffffffff\n      and\n      dup2\n      jump\t// out\n        /* \"assessment3/AnonComplaint.sol\":651:699  OrganisationRegistry public organisationRegistry */\n    tag_29:\n      0x04\n      0x00\n      swap1\n      sload\n      swap1\n      0x0100\n      exp\n      swap1\n      div\n      0xffffffffffffffffffffffffffffffffffffffff\n      and\n      dup2\n      jump\t// out\n        /* \"assessment3/AnonComplaint.sol\":467:514  mapping(uint256 => Complaint) public complaints */\n    tag_35:\n      mstore(0x20, 0x01)\n      dup1\n      0x00\n      mstore\n      keccak256(0x00, 0x40)\n      0x00\n      swap2\n      pop\n      swap1\n      pop\n      dup1\n      0x00\n      add\n      sload\n      swap1\n      dup1\n      0x01\n      add\n      sload\n      swap1\n      dup1\n      0x02\n      add\n      sload\n      swap1\n      dup1\n      0x03\n      add\n      sload\n      swap1\n      dup1\n      0x04\n      add\n      sload\n      swap1\n      dup1\n      0x05\n      add\n      dup1\n      sload\n      tag_44\n      swap1\n      tag_45\n      jump\t// in\n    tag_44:\n      dup1\n      0x1f\n      add\n      0x20\n      dup1\n      swap2\n      div\n      mul\n      0x20\n      add\n      mload(0x40)\n      swap1\n      dup2\n      add\n      0x40\n      mstore\n      dup1\n      swap3\n      swap2\n      swap1\n      dup2\n      dup2\n      mstore\n      0x20\n      add\n      dup3\n      dup1\n      sload\n      tag_46\n      swap1\n      tag_45\n      jump\t// in\n    tag_46:\n      dup1\n      iszero\n      tag_47\n      jumpi\n      dup1\n      0x1f\n      lt\n      tag_48\n      jumpi\n      0x0100\n      dup1\n      dup4\n      sload\n      div\n      mul\n      dup4\n      mstore\n      swap2\n      0x20\n      add\n      swap2\n      jump(tag_47)\n    tag_48:\n      dup3\n      add\n      swap2\n      swap1\n      0x00\n      mstore\n      keccak256(0x00, 0x20)\n      swap1\n    tag_49:\n      dup2\n      sload\n      dup2\n      mstore\n      swap1\n      0x01\n      add\n      swap1\n      0x20\n      add\n      dup1\n      dup4\n      gt\n      tag_49\n      jumpi\n      dup3\n      swap1\n      sub\n      0x1f\n      and\n      dup3\n      add\n      swap2\n    tag_47:\n      pop\n      pop\n      pop\n      pop\n      pop\n      swap1\n      dup1\n      0x06\n      add\n      0x00\n      swap1\n      sload\n      swap1\n      0x0100\n      exp\n      swap1\n      div\n      0xffffffffffffffffffffffffffffffffffffffff\n      and\n      swap1\n      pop\n      dup8\n      jump\t// out\n        /* \"assessment3/AnonComplaint.sol\":521:582  mapping(uint256 => uint256[]) public complaintsByOrganisation */\n    tag_40:\n      mstore(0x20, 0x02)\n      dup2\n      0x00\n      mstore\n      keccak256(0x00, 0x40)\n      dup2\n      dup2\n      sload\n      dup2\n      lt\n      tag_50\n      jumpi\n      0x00\n      dup1\n      revert\n    tag_50:\n      swap1\n      0x00\n      mstore\n      keccak256(0x00, 0x20)\n      add\n      0x00\n      swap2\n      pop\n      swap2\n      pop\n      pop\n      sload\n      dup2\n      jump\t// out\n        /* \"#utility.yul\":88:205   */\n    tag_53:\n        /* \"#utility.yul\":197:198   */\n      0x00\n        /* \"#utility.yul\":194:195   */\n      0x00\n        /* \"#utility.yul\":187:199   */\n      revert\n        /* \"#utility.yul\":334:411   */\n    tag_55:\n        /* \"#utility.yul\":371:378   */\n      0x00\n        /* \"#utility.yul\":400:405   */\n      dup2\n        /* \"#utility.yul\":389:405   */\n      swap1\n      pop\n        /* \"#utility.yul\":334:411   */\n      swap2\n      swap1\n      pop\n      jump\t// out\n        /* \"#utility.yul\":417:539   */\n    tag_56:\n        /* \"#utility.yul\":490:514   */\n      tag_83\n        /* \"#utility.yul\":508:513   */\n      dup2\n        /* \"#utility.yul\":490:514   */\n      tag_55\n      jump\t// in\n    tag_83:\n        /* \"#utility.yul\":483:488   */\n      dup2\n        /* \"#utility.yul\":480:515   */\n      eq\n        /* \"#utility.yul\":470:533   */\n      tag_84\n      jumpi\n        /* \"#utility.yul\":529:530   */\n      0x00\n        /* \"#utility.yul\":526:527   */\n      0x00\n        /* \"#utility.yul\":519:531   */\n      revert\n        /* \"#utility.yul\":470:533   */\n    tag_84:\n        /* \"#utility.yul\":417:539   */\n      pop\n      jump\t// out\n        /* \"#utility.yul\":545:684   */\n    tag_57:\n        /* \"#utility.yul\":591:596   */\n      0x00\n        /* \"#utility.yul\":629:635   */\n      dup2\n        /* \"#utility.yul\":616:636   */\n      calldataload\n        /* \"#utility.yul\":607:636   */\n      swap1\n      pop\n        /* \"#utility.yul\":645:678   */\n      tag_86\n        /* \"#utility.yul\":672:677   */\n      dup2\n        /* \"#utility.yul\":645:678   */\n      tag_56\n      jump\t// in\n    tag_86:\n        /* \"#utility.yul\":545:684   */\n      swap3\n      swap2\n      pop\n      pop\n      jump\t// out\n        /* \"#utility.yul\":690:1164   */\n    tag_13:\n        /* \"#utility.yul\":758:764   */\n      0x00\n        /* \"#utility.yul\":766:772   */\n      0x00\n        /* \"#utility.yul\":815:817   */\n      0x40\n        /* \"#utility.yul\":803:812   */\n      dup4\n        /* \"#utility.yul\":794:801   */\n      dup6\n        /* \"#utility.yul\":790:813   */\n      sub\n        /* \"#utility.yul\":786:818   */\n      slt\n        /* \"#utility.yul\":783:902   */\n      iszero\n      tag_88\n      jumpi\n        /* \"#utility.yul\":821:900   */\n      tag_89\n      tag_53\n      jump\t// in\n    tag_89:\n        /* \"#utility.yul\":783:902   */\n    tag_88:\n        /* \"#utility.yul\":941:942   */\n      0x00\n        /* \"#utility.yul\":966:1019   */\n      tag_90\n        /* \"#utility.yul\":1011:1018   */\n      dup6\n        /* \"#utility.yul\":1002:1008   */\n      dup3\n        /* \"#utility.yul\":991:1000   */\n      dup7\n        /* \"#utility.yul\":987:1009   */\n      add\n        /* \"#utility.yul\":966:1019   */\n      tag_57\n      jump\t// in\n    tag_90:\n        /* \"#utility.yul\":956:1019   */\n      swap3\n      pop\n        /* \"#utility.yul\":912:1029   */\n      pop\n        /* \"#utility.yul\":1068:1070   */\n      0x20\n        /* \"#utility.yul\":1094:1147   */\n      tag_91\n        /* \"#utility.yul\":1139:1146   */\n      dup6\n        /* \"#utility.yul\":1130:1136   */\n      dup3\n        /* \"#utility.yul\":1119:1128   */\n      dup7\n        /* \"#utility.yul\":1115:1137   */\n      add\n        /* \"#utility.yul\":1094:1147   */\n      tag_57\n      jump\t// in\n    tag_91:\n        /* \"#utility.yul\":1084:1147   */\n      swap2\n      pop\n        /* \"#utility.yul\":1039:1157   */\n      pop\n        /* \"#utility.yul\":690:1164   */\n      swap3\n      pop\n      swap3\n      swap1\n      pop\n      jump\t// out\n        /* \"#utility.yul\":1170:1288   */\n    tag_58:\n        /* \"#utility.yul\":1257:1281   */\n      tag_93\n        /* \"#utility.yul\":1275:1280   */\n      dup2\n        /* \"#utility.yul\":1257:1281   */\n      tag_55\n      jump\t// in\n    tag_93:\n        /* \"#utility.yul\":1252:1255   */\n      dup3\n        /* \"#utility.yul\":1245:1282   */\n      mstore\n        /* \"#utility.yul\":1170:1288   */\n      pop\n      pop\n      jump\t// out\n        /* \"#utility.yul\":1294:1516   */\n    tag_16:\n        /* \"#utility.yul\":1387:1391   */\n      0x00\n        /* \"#utility.yul\":1425:1427   */\n      0x20\n        /* \"#utility.yul\":1414:1423   */\n      dup3\n        /* \"#utility.yul\":1410:1428   */\n      add\n        /* \"#utility.yul\":1402:1428   */\n      swap1\n      pop\n        /* \"#utility.yul\":1438:1509   */\n      tag_95\n        /* \"#utility.yul\":1506:1507   */\n      0x00\n        /* \"#utility.yul\":1495:1504   */\n      dup4\n        /* \"#utility.yul\":1491:1508   */\n      add\n        /* \"#utility.yul\":1482:1488   */\n      dup5\n        /* \"#utility.yul\":1438:1509   */\n      tag_58\n      jump\t// in\n    tag_95:\n        /* \"#utility.yul\":1294:1516   */\n      swap3\n      swap2\n      pop\n      pop\n      jump\t// out\n        /* \"#utility.yul\":1522:1648   */\n    tag_59:\n        /* \"#utility.yul\":1559:1566   */\n      0x00\n        /* \"#utility.yul\":1599:1641   */\n      0xffffffffffffffffffffffffffffffffffffffff\n        /* \"#utility.yul\":1592:1597   */\n      dup3\n        /* \"#utility.yul\":1588:1642   */\n      and\n        /* \"#utility.yul\":1577:1642   */\n      swap1\n      pop\n        /* \"#utility.yul\":1522:1648   */\n      swap2\n      swap1\n      pop\n      jump\t// out\n        /* \"#utility.yul\":1654:1714   */\n    tag_60:\n        /* \"#utility.yul\":1682:1685   */\n      0x00\n        /* \"#utility.yul\":1703:1708   */\n      dup2\n        /* \"#utility.yul\":1696:1708   */\n      swap1\n      pop\n        /* \"#utility.yul\":1654:1714   */\n      swap2\n      swap1\n      pop\n      jump\t// out\n        /* \"#utility.yul\":1720:1862   */\n    tag_61:\n        /* \"#utility.yul\":1770:1779   */\n      0x00\n        /* \"#utility.yul\":1803:1856   */\n      tag_99\n        /* \"#utility.yul\":1821:1855   */\n      tag_100\n        /* \"#utility.yul\":1830:1854   */\n      tag_101\n        /* \"#utility.yul\":1848:1853   */\n      dup5\n        /* \"#utility.yul\":1830:1854   */\n      tag_59\n      jump\t// in\n    tag_101:\n        /* \"#utility.yul\":1821:1855   */\n      tag_60\n      jump\t// in\n    tag_100:\n        /* \"#utility.yul\":1803:1856   */\n      tag_59\n      jump\t// in\n    tag_99:\n        /* \"#utility.yul\":1790:1856   */\n      swap1\n      pop\n        /* \"#utility.yul\":1720:1862   */\n      swap2\n      swap1\n      pop\n      jump\t// out\n        /* \"#utility.yul\":1868:1994   */\n    tag_62:\n        /* \"#utility.yul\":1918:1927   */\n      0x00\n        /* \"#utility.yul\":1951:1988   */\n      tag_103\n        /* \"#utility.yul\":1982:1987   */\n      dup3\n        /* \"#utility.yul\":1951:1988   */\n      tag_61\n      jump\t// in\n    tag_103:\n        /* \"#utility.yul\":1938:1988   */\n      swap1\n      pop\n        /* \"#utility.yul\":1868:1994   */\n      swap2\n      swap1\n      pop\n      jump\t// out\n        /* \"#utility.yul\":2000:2155   */\n    tag_63:\n        /* \"#utility.yul\":2079:2088   */\n      0x00\n        /* \"#utility.yul\":2112:2149   */\n      tag_105\n        /* \"#utility.yul\":2143:2148   */\n      dup3\n        /* \"#utility.yul\":2112:2149   */\n      tag_62\n      jump\t// in\n    tag_105:\n        /* \"#utility.yul\":2099:2149   */\n      swap1\n      pop\n        /* \"#utility.yul\":2000:2155   */\n      swap2\n      swap1\n      pop\n      jump\t// out\n        /* \"#utility.yul\":2161:2350   */\n    tag_64:\n        /* \"#utility.yul\":2277:2343   */\n      tag_107\n        /* \"#utility.yul\":2337:2342   */\n      dup2\n        /* \"#utility.yul\":2277:2343   */\n      tag_63\n      jump\t// in\n    tag_107:\n        /* \"#utility.yul\":2272:2275   */\n      dup3\n        /* \"#utility.yul\":2265:2344   */\n      mstore\n        /* \"#utility.yul\":2161:2350   */\n      pop\n      pop\n      jump\t// out\n        /* \"#utility.yul\":2356:2636   */\n    tag_23:\n        /* \"#utility.yul\":2478:2482   */\n      0x00\n        /* \"#utility.yul\":2516:2518   */\n      0x20\n        /* \"#utility.yul\":2505:2514   */\n      dup3\n        /* \"#utility.yul\":2501:2519   */\n      add\n        /* \"#utility.yul\":2493:2519   */\n      swap1\n      pop\n        /* \"#utility.yul\":2529:2629   */\n      tag_109\n        /* \"#utility.yul\":2626:2627   */\n      0x00\n        /* \"#utility.yul\":2615:2624   */\n      dup4\n        /* \"#utility.yul\":2611:2628   */\n      add\n        /* \"#utility.yul\":2602:2608   */\n      dup5\n        /* \"#utility.yul\":2529:2629   */\n      tag_64\n      jump\t// in\n    tag_109:\n        /* \"#utility.yul\":2356:2636   */\n      swap3\n      swap2\n      pop\n      pop\n      jump\t// out\n        /* \"#utility.yul\":2642:2788   */\n    tag_65:\n        /* \"#utility.yul\":2712:2721   */\n      0x00\n        /* \"#utility.yul\":2745:2782   */\n      tag_111\n        /* \"#utility.yul\":2776:2781   */\n      dup3\n        /* \"#utility.yul\":2745:2782   */\n      tag_62\n      jump\t// in\n    tag_111:\n        /* \"#utility.yul\":2732:2782   */\n      swap1\n      pop\n        /* \"#utility.yul\":2642:2788   */\n      swap2\n      swap1\n      pop\n      jump\t// out\n        /* \"#utility.yul\":2794:2965   */\n    tag_66:\n        /* \"#utility.yul\":2901:2958   */\n      tag_113\n        /* \"#utility.yul\":2952:2957   */\n      dup2\n        /* \"#utility.yul\":2901:2958   */\n      tag_65\n      jump\t// in\n    tag_113:\n        /* \"#utility.yul\":2896:2899   */\n      dup3\n        /* \"#utility.yul\":2889:2959   */\n      mstore\n        /* \"#utility.yul\":2794:2965   */\n      pop\n      pop\n      jump\t// out\n        /* \"#utility.yul\":2971:3233   */\n    tag_27:\n        /* \"#utility.yul\":3084:3088   */\n      0x00\n        /* \"#utility.yul\":3122:3124   */\n      0x20\n        /* \"#utility.yul\":3111:3120   */\n      dup3\n        /* \"#utility.yul\":3107:3125   */\n      add\n        /* \"#utility.yul\":3099:3125   */\n      swap1\n      pop\n        /* \"#utility.yul\":3135:3226   */\n      tag_115\n        /* \"#utility.yul\":3223:3224   */\n      0x00\n        /* \"#utility.yul\":3212:3221   */\n      dup4\n        /* \"#utility.yul\":3208:3225   */\n      add\n        /* \"#utility.yul\":3199:3205   */\n      dup5\n        /* \"#utility.yul\":3135:3226   */\n      tag_66\n      jump\t// in\n    tag_115:\n        /* \"#utility.yul\":2971:3233   */\n      swap3\n      swap2\n      pop\n      pop\n      jump\t// out\n        /* \"#utility.yul\":3239:3393   */\n    tag_67:\n        /* \"#utility.yul\":3317:3326   */\n      0x00\n        /* \"#utility.yul\":3350:3387   */\n      tag_117\n        /* \"#utility.yul\":3381:3386   */\n      dup3\n        /* \"#utility.yul\":3350:3387   */\n      tag_62\n      jump\t// in\n    tag_117:\n        /* \"#utility.yul\":3337:3387   */\n      swap1\n      pop\n        /* \"#utility.yul\":3239:3393   */\n      swap2\n      swap1\n      pop\n      jump\t// out\n        /* \"#utility.yul\":3399:3586   */\n    tag_68:\n        /* \"#utility.yul\":3514:3579   */\n      tag_119\n        /* \"#utility.yul\":3573:3578   */\n      dup2\n        /* \"#utility.yul\":3514:3579   */\n      tag_67\n      jump\t// in\n    tag_119:\n        /* \"#utility.yul\":3509:3512   */\n      dup3\n        /* \"#utility.yul\":3502:3580   */\n      mstore\n        /* \"#utility.yul\":3399:3586   */\n      pop\n      pop\n      jump\t// out\n        /* \"#utility.yul\":3592:3870   */\n    tag_31:\n        /* \"#utility.yul\":3713:3717   */\n      0x00\n        /* \"#utility.yul\":3751:3753   */\n      0x20\n        /* \"#utility.yul\":3740:3749   */\n      dup3\n        /* \"#utility.yul\":3736:3754   */\n      add\n        /* \"#utility.yul\":3728:3754   */\n      swap1\n      pop\n        /* \"#utility.yul\":3764:3863   */\n      tag_121\n        /* \"#utility.yul\":3860:3861   */\n      0x00\n        /* \"#utility.yul\":3849:3858   */\n      dup4\n        /* \"#utility.yul\":3845:3862   */\n      add\n        /* \"#utility.yul\":3836:3842   */\n      dup5\n        /* \"#utility.yul\":3764:3863   */\n      tag_68\n      jump\t// in\n    tag_121:\n        /* \"#utility.yul\":3592:3870   */\n      swap3\n      swap2\n      pop\n      pop\n      jump\t// out\n        /* \"#utility.yul\":3876:4205   */\n    tag_34:\n        /* \"#utility.yul\":3935:3941   */\n      0x00\n        /* \"#utility.yul\":3984:3986   */\n      0x20\n        /* \"#utility.yul\":3972:3981   */\n      dup3\n        /* \"#utility.yul\":3963:3970   */\n      dup5\n        /* \"#utility.yul\":3959:3982   */\n      sub\n        /* \"#utility.yul\":3955:3987   */\n      slt\n        /* \"#utility.yul\":3952:4071   */\n      iszero\n      tag_123\n      jumpi\n        /* \"#utility.yul\":3990:4069   */\n      tag_124\n      tag_53\n      jump\t// in\n    tag_124:\n        /* \"#utility.yul\":3952:4071   */\n    tag_123:\n        /* \"#utility.yul\":4110:4111   */\n      0x00\n        /* \"#utility.yul\":4135:4188   */\n      tag_125\n        /* \"#utility.yul\":4180:4187   */\n      dup5\n        /* \"#utility.yul\":4171:4177   */\n      dup3\n        /* \"#utility.yul\":4160:4169   */\n      dup6\n        /* \"#utility.yul\":4156:4178   */\n      add\n        /* \"#utility.yul\":4135:4188   */\n      tag_57\n      jump\t// in\n    tag_125:\n        /* \"#utility.yul\":4125:4188   */\n      swap2\n      pop\n        /* \"#utility.yul\":4081:4198   */\n      pop\n        /* \"#utility.yul\":3876:4205   */\n      swap3\n      swap2\n      pop\n      pop\n      jump\t// out\n        /* \"#utility.yul\":4211:4310   */\n    tag_69:\n        /* \"#utility.yul\":4263:4269   */\n      0x00\n        /* \"#utility.yul\":4297:4302   */\n      dup2\n        /* \"#utility.yul\":4291:4303   */\n      mload\n        /* \"#utility.yul\":4281:4303   */\n      swap1\n      pop\n        /* \"#utility.yul\":4211:4310   */\n      swap2\n      swap1\n      pop\n      jump\t// out\n        /* \"#utility.yul\":4316:4485   */\n    tag_70:\n        /* \"#utility.yul\":4400:4411   */\n      0x00\n        /* \"#utility.yul\":4434:4440   */\n      dup3\n        /* \"#utility.yul\":4429:4432   */\n      dup3\n        /* \"#utility.yul\":4422:4441   */\n      mstore\n        /* \"#utility.yul\":4474:4478   */\n      0x20\n        /* \"#utility.yul\":4469:4472   */\n      dup3\n        /* \"#utility.yul\":4465:4479   */\n      add\n        /* \"#utility.yul\":4450:4479   */\n      swap1\n      pop\n        /* \"#utility.yul\":4316:4485   */\n      swap3\n      swap2\n      pop\n      pop\n      jump\t// out\n        /* \"#utility.yul\":4491:4630   */\n    tag_71:\n        /* \"#utility.yul\":4580:4586   */\n      dup3\n        /* \"#utility.yul\":4575:4578   */\n      dup2\n        /* \"#utility.yul\":4570:4573   */\n      dup4\n        /* \"#utility.yul\":4564:4587   */\n      mcopy\n        /* \"#utility.yul\":4621:4622   */\n      0x00\n        /* \"#utility.yul\":4612:4618   */\n      dup4\n        /* \"#utility.yul\":4607:4610   */\n      dup4\n        /* \"#utility.yul\":4603:4619   */\n      add\n        /* \"#utility.yul\":4596:4623   */\n      mstore\n        /* \"#utility.yul\":4491:4630   */\n      pop\n      pop\n      pop\n      jump\t// out\n        /* \"#utility.yul\":4636:4738   */\n    tag_72:\n        /* \"#utility.yul\":4677:4683   */\n      0x00\n        /* \"#utility.yul\":4728:4730   */\n      0x1f\n        /* \"#utility.yul\":4724:4731   */\n      not\n        /* \"#utility.yul\":4719:4721   */\n      0x1f\n        /* \"#utility.yul\":4712:4717   */\n      dup4\n        /* \"#utility.yul\":4708:4722   */\n      add\n        /* \"#utility.yul\":4704:4732   */\n      and\n        /* \"#utility.yul\":4694:4732   */\n      swap1\n      pop\n        /* \"#utility.yul\":4636:4738   */\n      swap2\n      swap1\n      pop\n      jump\t// out\n        /* \"#utility.yul\":4744:5121   */\n    tag_73:\n        /* \"#utility.yul\":4832:4835   */\n      0x00\n        /* \"#utility.yul\":4860:4899   */\n      tag_131\n        /* \"#utility.yul\":4893:4898   */\n      dup3\n        /* \"#utility.yul\":4860:4899   */\n      tag_69\n      jump\t// in\n    tag_131:\n        /* \"#utility.yul\":4915:4986   */\n      tag_132\n        /* \"#utility.yul\":4979:4985   */\n      dup2\n        /* \"#utility.yul\":4974:4977   */\n      dup6\n        /* \"#utility.yul\":4915:4986   */\n      tag_70\n      jump\t// in\n    tag_132:\n        /* \"#utility.yul\":4908:4986   */\n      swap4\n      pop\n        /* \"#utility.yul\":4995:5060   */\n      tag_133\n        /* \"#utility.yul\":5053:5059   */\n      dup2\n        /* \"#utility.yul\":5048:5051   */\n      dup6\n        /* \"#utility.yul\":5041:5045   */\n      0x20\n        /* \"#utility.yul\":5034:5039   */\n      dup7\n        /* \"#utility.yul\":5030:5046   */\n      add\n        /* \"#utility.yul\":4995:5060   */\n      tag_71\n      jump\t// in\n    tag_133:\n        /* \"#utility.yul\":5085:5114   */\n      tag_134\n        /* \"#utility.yul\":5107:5113   */\n      dup2\n        /* \"#utility.yul\":5085:5114   */\n      tag_72\n      jump\t// in\n    tag_134:\n        /* \"#utility.yul\":5080:5083   */\n      dup5\n        /* \"#utility.yul\":5076:5115   */\n      add\n        /* \"#utility.yul\":5069:5115   */\n      swap2\n      pop\n        /* \"#utility.yul\":4836:5121   */\n      pop\n        /* \"#utility.yul\":4744:5121   */\n      swap3\n      swap2\n      pop\n      pop\n      jump\t// out\n        /* \"#utility.yul\":5127:5223   */\n    tag_74:\n        /* \"#utility.yul\":5164:5171   */\n      0x00\n        /* \"#utility.yul\":5193:5217   */\n      tag_136\n        /* \"#utility.yul\":5211:5216   */\n      dup3\n        /* \"#utility.yul\":5193:5217   */\n      tag_59\n      jump\t// in\n    tag_136:\n        /* \"#utility.yul\":5182:5217   */\n      swap1\n      pop\n        /* \"#utility.yul\":5127:5223   */\n      swap2\n      swap1\n      pop\n      jump\t// out\n        /* \"#utility.yul\":5229:5347   */\n    tag_75:\n        /* \"#utility.yul\":5316:5340   */\n      tag_138\n        /* \"#utility.yul\":5334:5339   */\n      dup2\n        /* \"#utility.yul\":5316:5340   */\n      tag_74\n      jump\t// in\n    tag_138:\n        /* \"#utility.yul\":5311:5314   */\n      dup3\n        /* \"#utility.yul\":5304:5341   */\n      mstore\n        /* \"#utility.yul\":5229:5347   */\n      pop\n      pop\n      jump\t// out\n        /* \"#utility.yul\":5353:6330   */\n    tag_37:\n        /* \"#utility.yul\":5634:5638   */\n      0x00\n        /* \"#utility.yul\":5672:5675   */\n      0xe0\n        /* \"#utility.yul\":5661:5670   */\n      dup3\n        /* \"#utility.yul\":5657:5676   */\n      add\n        /* \"#utility.yul\":5649:5676   */\n      swap1\n      pop\n        /* \"#utility.yul\":5686:5757   */\n      tag_140\n        /* \"#utility.yul\":5754:5755   */\n      0x00\n        /* \"#utility.yul\":5743:5752   */\n      dup4\n        /* \"#utility.yul\":5739:5756   */\n      add\n        /* \"#utility.yul\":5730:5736   */\n      dup11\n        /* \"#utility.yul\":5686:5757   */\n      tag_58\n      jump\t// in\n    tag_140:\n        /* \"#utility.yul\":5767:5839   */\n      tag_141\n        /* \"#utility.yul\":5835:5837   */\n      0x20\n        /* \"#utility.yul\":5824:5833   */\n      dup4\n        /* \"#utility.yul\":5820:5838   */\n      add\n        /* \"#utility.yul\":5811:5817   */\n      dup10\n        /* \"#utility.yul\":5767:5839   */\n      tag_58\n      jump\t// in\n    tag_141:\n        /* \"#utility.yul\":5849:5921   */\n      tag_142\n        /* \"#utility.yul\":5917:5919   */\n      0x40\n        /* \"#utility.yul\":5906:5915   */\n      dup4\n        /* \"#utility.yul\":5902:5920   */\n      add\n        /* \"#utility.yul\":5893:5899   */\n      dup9\n        /* \"#utility.yul\":5849:5921   */\n      tag_58\n      jump\t// in\n    tag_142:\n        /* \"#utility.yul\":5931:6003   */\n      tag_143\n        /* \"#utility.yul\":5999:6001   */\n      0x60\n        /* \"#utility.yul\":5988:5997   */\n      dup4\n        /* \"#utility.yul\":5984:6002   */\n      add\n        /* \"#utility.yul\":5975:5981   */\n      dup8\n        /* \"#utility.yul\":5931:6003   */\n      tag_58\n      jump\t// in\n    tag_143:\n        /* \"#utility.yul\":6013:6086   */\n      tag_144\n        /* \"#utility.yul\":6081:6084   */\n      0x80\n        /* \"#utility.yul\":6070:6079   */\n      dup4\n        /* \"#utility.yul\":6066:6085   */\n      add\n        /* \"#utility.yul\":6057:6063   */\n      dup7\n        /* \"#utility.yul\":6013:6086   */\n      tag_58\n      jump\t// in\n    tag_144:\n        /* \"#utility.yul\":6134:6143   */\n      dup2\n        /* \"#utility.yul\":6128:6132   */\n      dup2\n        /* \"#utility.yul\":6124:6144   */\n      sub\n        /* \"#utility.yul\":6118:6121   */\n      0xa0\n        /* \"#utility.yul\":6107:6116   */\n      dup4\n        /* \"#utility.yul\":6103:6122   */\n      add\n        /* \"#utility.yul\":6096:6145   */\n      mstore\n        /* \"#utility.yul\":6162:6240   */\n      tag_145\n        /* \"#utility.yul\":6235:6239   */\n      dup2\n        /* \"#utility.yul\":6226:6232   */\n      dup6\n        /* \"#utility.yul\":6162:6240   */\n      tag_73\n      jump\t// in\n    tag_145:\n        /* \"#utility.yul\":6154:6240   */\n      swap1\n      pop\n        /* \"#utility.yul\":6250:6323   */\n      tag_146\n        /* \"#utility.yul\":6318:6321   */\n      0xc0\n        /* \"#utility.yul\":6307:6316   */\n      dup4\n        /* \"#utility.yul\":6303:6322   */\n      add\n        /* \"#utility.yul\":6294:6300   */\n      dup5\n        /* \"#utility.yul\":6250:6323   */\n      tag_75\n      jump\t// in\n    tag_146:\n        /* \"#utility.yul\":5353:6330   */\n      swap9\n      swap8\n      pop\n      pop\n      pop\n      pop\n      pop\n      pop\n      pop\n      pop\n      jump\t// out\n        /* \"#utility.yul\":6336:6516   */\n    tag_76:\n        /* \"#utility.yul\":6384:6461   */\n      0x4e487b7100000000000000000000000000000000000000000000000000000000\n        /* \"#utility.yul\":6381:6382   */\n      0x00\n        /* \"#utility.yul\":6374:6462   */\n      mstore\n        /* \"#utility.yul\":6481:6485   */\n      0x22\n        /* \"#utility.yul\":6478:6479   */\n      0x04\n        /* \"#utility.yul\":6471:6486   */\n      mstore\n        /* \"#utility.yul\":6505:6509   */\n      0x24\n        /* \"#utility.yul\":6502:6503   */\n      0x00\n        /* \"#utility.yul\":6495:6510   */\n      revert\n        /* \"#utility.yul\":6522:6842   */\n    tag_45:\n        /* \"#utility.yul\":6566:6572   */\n      0x00\n        /* \"#utility.yul\":6603:6604   */\n      0x02\n        /* \"#utility.yul\":6597:6601   */\n      dup3\n        /* \"#utility.yul\":6593:6605   */\n      div\n        /* \"#utility.yul\":6583:6605   */\n      swap1\n      pop\n        /* \"#utility.yul\":6650:6651   */\n      0x01\n        /* \"#utility.yul\":6644:6648   */\n      dup3\n        /* \"#utility.yul\":6640:6652   */\n      and\n        /* \"#utility.yul\":6671:6689   */\n      dup1\n        /* \"#utility.yul\":6661:6742   */\n      tag_149\n      jumpi\n        /* \"#utility.yul\":6727:6731   */\n      0x7f\n        /* \"#utility.yul\":6719:6725   */\n      dup3\n        /* \"#utility.yul\":6715:6732   */\n      and\n        /* \"#utility.yul\":6705:6732   */\n      swap2\n      pop\n        /* \"#utility.yul\":6661:6742   */\n    tag_149:\n        /* \"#utility.yul\":6789:6791   */\n      0x20\n        /* \"#utility.yul\":6781:6787   */\n      dup3\n        /* \"#utility.yul\":6778:6792   */\n      lt\n        /* \"#utility.yul\":6758:6776   */\n      dup2\n        /* \"#utility.yul\":6755:6793   */\n      sub\n        /* \"#utility.yul\":6752:6836   */\n      tag_150\n      jumpi\n        /* \"#utility.yul\":6808:6826   */\n      tag_151\n      tag_76\n      jump\t// in\n    tag_151:\n        /* \"#utility.yul\":6752:6836   */\n    tag_150:\n        /* \"#utility.yul\":6573:6842   */\n      pop\n        /* \"#utility.yul\":6522:6842   */\n      swap2\n      swap1\n      pop\n      jump\t// out\n\n    auxdata: 0xa2646970667358221220c82f9bb062608d21231389339d19ef5cb4cd9250dee71502cd5fa85d005332ea64736f6c634300081e0033\n}\n",
				"bytecode": {
					"linkReferences": {},
					"object": "608060405234801561000f575f5ffd5b50604051610ae4380380610ae4833981810160405281019061003191906102a1565b5f73ffffffffffffffffffffffffffffffffffffffff168373ffffffffffffffffffffffffffffffffffffffff160361009f576040517f08c379a00000000000000000000000000000000000000000000000000000000081526004016100969061034b565b60405180910390fd5b5f73ffffffffffffffffffffffffffffffffffffffff168273ffffffffffffffffffffffffffffffffffffffff160361010d576040517f08c379a0000000000000000000000000000000000000000000000000000000008152600401610104906103b3565b60405180910390fd5b5f73ffffffffffffffffffffffffffffffffffffffff168173ffffffffffffffffffffffffffffffffffffffff160361017b576040517f08c379a00000000000000000000000000000000000000000000000000000000081526004016101729061041b565b60405180910390fd5b8260045f6101000a81548173ffffffffffffffffffffffffffffffffffffffff021916908373ffffffffffffffffffffffffffffffffffffffff1602179055508160055f6101000a81548173ffffffffffffffffffffffffffffffffffffffff021916908373ffffffffffffffffffffffffffffffffffffffff1602179055508060065f6101000a81548173ffffffffffffffffffffffffffffffffffffffff021916908373ffffffffffffffffffffffffffffffffffffffff160217905550505050610439565b5f5ffd5b5f73ffffffffffffffffffffffffffffffffffffffff82169050919050565b5f61027082610247565b9050919050565b61028081610266565b811461028a575f5ffd5b50565b5f8151905061029b81610277565b92915050565b5f5f5f606084860312156102b8576102b7610243565b5b5f6102c58682870161028d565b93505060206102d68682870161028d565b92505060406102e78682870161028d565b9150509250925092565b5f82825260208201905092915050565b7f496e76616c6964206f72672072656769737472790000000000000000000000005f82015250565b5f6103356014836102f1565b915061034082610301565b602082019050919050565b5f6020820190508181035f83015261036281610329565b9050919050565b7f496e76616c6964207573657220726567697374727900000000000000000000005f82015250565b5f61039d6015836102f1565b91506103a882610369565b602082019050919050565b5f6020820190508181035f8301526103ca81610391565b9050919050565b7f496e76616c69642072657075746174696f6e20636f6e747261637400000000005f82015250565b5f610405601b836102f1565b9150610410826103d1565b602082019050919050565b5f6020820190508181035f830152610432816103f9565b9050919050565b61069e806104465f395ff3fe608060405234801561000f575f5ffd5b506004361061007b575f3560e01c80635c7460d6116100595780635c7460d6146100eb5780637a1c6b70146101095780637e69e91214610127578063c7059ea21461015d5761007b565b80630dcbbd951461007f5780632edea294146100af57806336c582b7146100cd575b5f5ffd5b61009960048036038101906100949190610371565b61018d565b6040516100a691906103be565b60405180910390f35b6100b76101b8565b6040516100c491906103be565b60405180910390f35b6100d56101bd565b6040516100e29190610451565b60405180910390f35b6100f36101e2565b604051610100919061048a565b60405180910390f35b610111610207565b60405161011e91906104c3565b60405180910390f35b610141600480360381019061013c91906104dc565b61022c565b6040516101549796959493929190610597565b60405180910390f35b61017760048036038101906101729190610371565b61030f565b60405161018491906103be565b60405180910390f35b6003602052815f5260405f2081815481106101a6575f80fd5b905f5260205f20015f91509150505481565b5f5481565b60065f9054906101000a900473ffffffffffffffffffffffffffffffffffffffff1681565b60055f9054906101000a900473ffffffffffffffffffffffffffffffffffffffff1681565b60045f9054906101000a900473ffffffffffffffffffffffffffffffffffffffff1681565b6001602052805f5260405f205f91509050805f01549080600101549080600201549080600301549080600401549080600501805461026990610638565b80601f016020809104026020016040519081016040528092919081815260200182805461029590610638565b80156102e05780601f106102b7576101008083540402835291602001916102e0565b820191905f5260205f20905b8154815290600101906020018083116102c357829003601f168201915b505050505090806006015f9054906101000a900473ffffffffffffffffffffffffffffffffffffffff16905087565b6002602052815f5260405f208181548110610328575f80fd5b905f5260205f20015f91509150505481565b5f5ffd5b5f819050919050565b6103508161033e565b811461035a575f5ffd5b50565b5f8135905061036b81610347565b92915050565b5f5f604083850312156103875761038661033a565b5b5f6103948582860161035d565b92505060206103a58582860161035d565b9150509250929050565b6103b88161033e565b82525050565b5f6020820190506103d15f8301846103af565b92915050565b5f73ffffffffffffffffffffffffffffffffffffffff82169050919050565b5f819050919050565b5f61041961041461040f846103d7565b6103f6565b6103d7565b9050919050565b5f61042a826103ff565b9050919050565b5f61043b82610420565b9050919050565b61044b81610431565b82525050565b5f6020820190506104645f830184610442565b92915050565b5f61047482610420565b9050919050565b6104848161046a565b82525050565b5f60208201905061049d5f83018461047b565b92915050565b5f6104ad82610420565b9050919050565b6104bd816104a3565b82525050565b5f6020820190506104d65f8301846104b4565b92915050565b5f602082840312156104f1576104f061033a565b5b5f6104fe8482850161035d565b91505092915050565b5f81519050919050565b5f82825260208201905092915050565b8281835e5f83830152505050565b5f601f19601f8301169050919050565b5f61054982610507565b6105538185610511565b9350610563818560208601610521565b61056c8161052f565b840191505092915050565b5f610581826103d7565b9050919050565b61059181610577565b82525050565b5f60e0820190506105aa5f83018a6103af565b6105b760208301896103af565b6105c460408301886103af565b6105d160608301876103af565b6105de60808301866103af565b81810360a08301526105f0818561053f565b90506105ff60c0830184610588565b98975050505050505050565b7f4e487b71000000000000000000000000000000000000000000000000000000005f52602260045260245ffd5b5f600282049050600182168061064f57607f821691505b6020821081036106625761066161060b565b5b5091905056fea2646970667358221220c82f9bb062608d21231389339d19ef5cb4cd9250dee71502cd5fa85d005332ea64736f6c634300081e0033",
					"opcodes": "PUSH1 0x80 PUSH1 0x40 MSTORE CALLVALUE DUP1 ISZERO PUSH2 0xF JUMPI PUSH0 PUSH0 REVERT JUMPDEST POP PUSH1 0x40 MLOAD PUSH2 0xAE4 CODESIZE SUB DUP1 PUSH2 0xAE4 DUP4 CODECOPY DUP2 DUP2 ADD PUSH1 0x40 MSTORE DUP2 ADD SWAP1 PUSH2 0x31 SWAP2 SWAP1 PUSH2 0x2A1 JUMP JUMPDEST PUSH0 PUSH20 0xFFFFFFFFFFFFFFFFFFFFFFFFFFFFFFFFFFFFFFFF AND DUP4 PUSH20 0xFFFFFFFFFFFFFFFFFFFFFFFFFFFFFFFFFFFFFFFF AND SUB PUSH2 0x9F JUMPI PUSH1 0x40 MLOAD PUSH32 0x8C379A000000000000000000000000000000000000000000000000000000000 DUP2 MSTORE PUSH1 0x4 ADD PUSH2 0x96 SWAP1 PUSH2 0x34B JUMP JUMPDEST PUSH1 0x40 MLOAD DUP1 SWAP2 SUB SWAP1 REVERT JUMPDEST PUSH0 PUSH20 0xFFFFFFFFFFFFFFFFFFFFFFFFFFFFFFFFFFFFFFFF AND DUP3 PUSH20 0xFFFFFFFFFFFFFFFFFFFFFFFFFFFFFFFFFFFFFFFF AND SUB PUSH2 0x10D JUMPI PUSH1 0x40 MLOAD PUSH32 0x8C379A000000000000000000000000000000000000000000000000000000000 DUP2 MSTORE PUSH1 0x4 ADD PUSH2 0x104 SWAP1 PUSH2 0x3B3 JUMP JUMPDEST PUSH1 0x40 MLOAD DUP1 SWAP2 SUB SWAP1 REVERT JUMPDEST PUSH0 PUSH20 0xFFFFFFFFFFFFFFFFFFFFFFFFFFFFFFFFFFFFFFFF AND DUP2 PUSH20 0xFFFFFFFFFFFFFFFFFFFFFFFFFFFFFFFFFFFFFFFF AND SUB PUSH2 0x17B JUMPI PUSH1 0x40 MLOAD PUSH32 0x8C379A000000000000000000000000000000000000000000000000000000000 DUP2 MSTORE PUSH1 0x4 ADD PUSH2 0x172 SWAP1 PUSH2 0x41B JUMP JUMPDEST PUSH1 0x40 MLOAD DUP1 SWAP2 SUB SWAP1 REVERT JUMPDEST DUP3 PUSH1 0x4 PUSH0 PUSH2 0x100 EXP DUP2 SLOAD DUP2 PUSH20 0xFFFFFFFFFFFFFFFFFFFFFFFFFFFFFFFFFFFFFFFF MUL NOT AND SWAP1 DUP4 PUSH20 0xFFFFFFFFFFFFFFFFFFFFFFFFFFFFFFFFFFFFFFFF AND MUL OR SWAP1 SSTORE POP DUP2 PUSH1 0x5 PUSH0 PUSH2 0x100 EXP DUP2 SLOAD DUP2 PUSH20 0xFFFFFFFFFFFFFFFFFFFFFFFFFFFFFFFFFFFFFFFF MUL NOT AND SWAP1 DUP4 PUSH20 0xFFFFFFFFFFFFFFFFFFFFFFFFFFFFFFFFFFFFFFFF AND MUL OR SWAP1 SSTORE POP DUP1 PUSH1 0x6 PUSH0 PUSH2 0x100 EXP DUP2 SLOAD DUP2 PUSH20 0xFFFFFFFFFFFFFFFFFFFFFFFFFFFFFFFFFFFFFFFF MUL NOT AND SWAP1 DUP4 PUSH20 0xFFFFFFFFFFFFFFFFFFFFFFFFFFFFFFFFFFFFFFFF AND MUL OR SWAP1 SSTORE POP POP POP POP PUSH2 0x439 JUMP JUMPDEST PUSH0 PUSH0 REVERT JUMPDEST PUSH0 PUSH20 0xFFFFFFFFFFFFFFFFFFFFFFFFFFFFFFFFFFFFFFFF DUP3 AND SWAP1 POP SWAP2 SWAP1 POP JUMP JUMPDEST PUSH0 PUSH2 0x270 DUP3 PUSH2 0x247 JUMP JUMPDEST SWAP1 POP SWAP2 SWAP1 POP JUMP JUMPDEST PUSH2 0x280 DUP2 PUSH2 0x266 JUMP JUMPDEST DUP2 EQ PUSH2 0x28A JUMPI PUSH0 PUSH0 REVERT JUMPDEST POP JUMP JUMPDEST PUSH0 DUP2 MLOAD SWAP1 POP PUSH2 0x29B DUP2 PUSH2 0x277 JUMP JUMPDEST SWAP3 SWAP2 POP POP JUMP JUMPDEST PUSH0 PUSH0 PUSH0 PUSH1 0x60 DUP5 DUP7 SUB SLT ISZERO PUSH2 0x2B8 JUMPI PUSH2 0x2B7 PUSH2 0x243 JUMP JUMPDEST JUMPDEST PUSH0 PUSH2 0x2C5 DUP7 DUP3 DUP8 ADD PUSH2 0x28D JUMP JUMPDEST SWAP4 POP POP PUSH1 0x20 PUSH2 0x2D6 DUP7 DUP3 DUP8 ADD PUSH2 0x28D JUMP JUMPDEST SWAP3 POP POP PUSH1 0x40 PUSH2 0x2E7 DUP7 DUP3 DUP8 ADD PUSH2 0x28D JUMP JUMPDEST SWAP2 POP POP SWAP3 POP SWAP3 POP SWAP3 JUMP JUMPDEST PUSH0 DUP3 DUP3 MSTORE PUSH1 0x20 DUP3 ADD SWAP1 POP SWAP3 SWAP2 POP POP JUMP JUMPDEST PUSH32 0x496E76616C6964206F7267207265676973747279000000000000000000000000 PUSH0 DUP3 ADD MSTORE POP JUMP JUMPDEST PUSH0 PUSH2 0x335 PUSH1 0x14 DUP4 PUSH2 0x2F1 JUMP JUMPDEST SWAP2 POP PUSH2 0x340 DUP3 PUSH2 0x301 JUMP JUMPDEST PUSH1 0x20 DUP3 ADD SWAP1 POP SWAP2 SWAP1 POP JUMP JUMPDEST PUSH0 PUSH1 0x20 DUP3 ADD SWAP1 POP DUP2 DUP2 SUB PUSH0 DUP4 ADD MSTORE PUSH2 0x362 DUP2 PUSH2 0x329 JUMP JUMPDEST SWAP1 POP SWAP2 SWAP1 POP JUMP JUMPDEST PUSH32 0x496E76616C696420757365722072656769737472790000000000000000000000 PUSH0 DUP3 ADD MSTORE POP JUMP JUMPDEST PUSH0 PUSH2 0x39D PUSH1 0x15 DUP4 PUSH2 0x2F1 JUMP JUMPDEST SWAP2 POP PUSH2 0x3A8 DUP3 PUSH2 0x369 JUMP JUMPDEST PUSH1 0x20 DUP3 ADD SWAP1 POP SWAP2 SWAP1 POP JUMP JUMPDEST PUSH0 PUSH1 0x20 DUP3 ADD SWAP1 POP DUP2 DUP2 SUB PUSH0 DUP4 ADD MSTORE PUSH2 0x3CA DUP2 PUSH2 0x391 JUMP JUMPDEST SWAP1 POP SWAP2 SWAP1 POP JUMP JUMPDEST PUSH32 0x496E76616C69642072657075746174696F6E20636F6E74726163740000000000 PUSH0 DUP3 ADD MSTORE POP JUMP JUMPDEST PUSH0 PUSH2 0x405 PUSH1 0x1B DUP4 PUSH2 0x2F1 JUMP JUMPDEST SWAP2 POP PUSH2 0x410 DUP3 PUSH2 0x3D1 JUMP JUMPDEST PUSH1 0x20 DUP3 ADD SWAP1 POP SWAP2 SWAP1 POP JUMP JUMPDEST PUSH0 PUSH1 0x20 DUP3 ADD SWAP1 POP DUP2 DUP2 SUB PUSH0 DUP4 ADD MSTORE PUSH2 0x432 DUP2 PUSH2 0x3F9 JUMP JUMPDEST SWAP1 POP SWAP2 SWAP1 POP JUMP JUMPDEST PUSH2 0x69E DUP1 PUSH2 0x446 PUSH0 CODECOPY PUSH0 RETURN INVALID PUSH1 0x80 PUSH1 0x40 MSTORE CALLVALUE DUP1 ISZERO PUSH2 0xF JUMPI PUSH0 PUSH0 REVERT JUMPDEST POP PUSH1 0x4 CALLDATASIZE LT PUSH2 0x7B JUMPI PUSH0 CALLDATALOAD PUSH1 0xE0 SHR DUP1 PUSH4 0x5C7460D6 GT PUSH2 0x59 JUMPI DUP1 PUSH4 0x5C7460D6 EQ PUSH2 0xEB JUMPI DUP1 PUSH4 0x7A1C6B70 EQ PUSH2 0x109 JUMPI DUP1 PUSH4 0x7E69E912 EQ PUSH2 0x127 JUMPI DUP1 PUSH4 0xC7059EA2 EQ PUSH2 0x15D JUMPI PUSH2 0x7B JUMP JUMPDEST DUP1 PUSH4 0xDCBBD95 EQ PUSH2 0x7F JUMPI DUP1 PUSH4 0x2EDEA294 EQ PUSH2 0xAF JUMPI DUP1 PUSH4 0x36C582B7 EQ PUSH2 0xCD JUMPI JUMPDEST PUSH0 PUSH0 REVERT JUMPDEST PUSH2 0x99 PUSH1 0x4 DUP1 CALLDATASIZE SUB DUP2 ADD SWAP1 PUSH2 0x94 SWAP2 SWAP1 PUSH2 0x371 JUMP JUMPDEST PUSH2 0x18D JUMP JUMPDEST PUSH1 0x40 MLOAD PUSH2 0xA6 SWAP2 SWAP1 PUSH2 0x3BE JUMP JUMPDEST PUSH1 0x40 MLOAD DUP1 SWAP2 SUB SWAP1 RETURN JUMPDEST PUSH2 0xB7 PUSH2 0x1B8 JUMP JUMPDEST PUSH1 0x40 MLOAD PUSH2 0xC4 SWAP2 SWAP1 PUSH2 0x3BE JUMP JUMPDEST PUSH1 0x40 MLOAD DUP1 SWAP2 SUB SWAP1 RETURN JUMPDEST PUSH2 0xD5 PUSH2 0x1BD JUMP JUMPDEST PUSH1 0x40 MLOAD PUSH2 0xE2 SWAP2 SWAP1 PUSH2 0x451 JUMP JUMPDEST PUSH1 0x40 MLOAD DUP1 SWAP2 SUB SWAP1 RETURN JUMPDEST PUSH2 0xF3 PUSH2 0x1E2 JUMP JUMPDEST PUSH1 0x40 MLOAD PUSH2 0x100 SWAP2 SWAP1 PUSH2 0x48A JUMP JUMPDEST PUSH1 0x40 MLOAD DUP1 SWAP2 SUB SWAP1 RETURN JUMPDEST PUSH2 0x111 PUSH2 0x207 JUMP JUMPDEST PUSH1 0x40 MLOAD PUSH2 0x11E SWAP2 SWAP1 PUSH2 0x4C3 JUMP JUMPDEST PUSH1 0x40 MLOAD DUP1 SWAP2 SUB SWAP1 RETURN JUMPDEST PUSH2 0x141 PUSH1 0x4 DUP1 CALLDATASIZE SUB DUP2 ADD SWAP1 PUSH2 0x13C SWAP2 SWAP1 PUSH2 0x4DC JUMP JUMPDEST PUSH2 0x22C JUMP JUMPDEST PUSH1 0x40 MLOAD PUSH2 0x154 SWAP8 SWAP7 SWAP6 SWAP5 SWAP4 SWAP3 SWAP2 SWAP1 PUSH2 0x597 JUMP JUMPDEST PUSH1 0x40 MLOAD DUP1 SWAP2 SUB SWAP1 RETURN JUMPDEST PUSH2 0x177 PUSH1 0x4 DUP1 CALLDATASIZE SUB DUP2 ADD SWAP1 PUSH2 0x172 SWAP2 SWAP1 PUSH2 0x371 JUMP JUMPDEST PUSH2 0x30F JUMP JUMPDEST PUSH1 0x40 MLOAD PUSH2 0x184 SWAP2 SWAP1 PUSH2 0x3BE JUMP JUMPDEST PUSH1 0x40 MLOAD DUP1 SWAP2 SUB SWAP1 RETURN JUMPDEST PUSH1 0x3 PUSH1 0x20 MSTORE DUP2 PUSH0 MSTORE PUSH1 0x40 PUSH0 KECCAK256 DUP2 DUP2 SLOAD DUP2 LT PUSH2 0x1A6 JUMPI PUSH0 DUP1 REVERT JUMPDEST SWAP1 PUSH0 MSTORE PUSH1 0x20 PUSH0 KECCAK256 ADD PUSH0 SWAP2 POP SWAP2 POP POP SLOAD DUP2 JUMP JUMPDEST PUSH0 SLOAD DUP2 JUMP JUMPDEST PUSH1 0x6 PUSH0 SWAP1 SLOAD SWAP1 PUSH2 0x100 EXP SWAP1 DIV PUSH20 0xFFFFFFFFFFFFFFFFFFFFFFFFFFFFFFFFFFFFFFFF AND DUP2 JUMP JUMPDEST PUSH1 0x5 PUSH0 SWAP1 SLOAD SWAP1 PUSH2 0x100 EXP SWAP1 DIV PUSH20 0xFFFFFFFFFFFFFFFFFFFFFFFFFFFFFFFFFFFFFFFF AND DUP2 JUMP JUMPDEST PUSH1 0x4 PUSH0 SWAP1 SLOAD SWAP1 PUSH2 0x100 EXP SWAP1 DIV PUSH20 0xFFFFFFFFFFFFFFFFFFFFFFFFFFFFFFFFFFFFFFFF AND DUP2 JUMP JUMPDEST PUSH1 0x1 PUSH1 0x20 MSTORE DUP1 PUSH0 MSTORE PUSH1 0x40 PUSH0 KECCAK256 PUSH0 SWAP2 POP SWAP1 POP DUP1 PUSH0 ADD SLOAD SWAP1 DUP1 PUSH1 0x1 ADD SLOAD SWAP1 DUP1 PUSH1 0x2 ADD SLOAD SWAP1 DUP1 PUSH1 0x3 ADD SLOAD SWAP1 DUP1 PUSH1 0x4 ADD SLOAD SWAP1 DUP1 PUSH1 0x5 ADD DUP1 SLOAD PUSH2 0x269 SWAP1 PUSH2 0x638 JUMP JUMPDEST DUP1 PUSH1 0x1F ADD PUSH1 0x20 DUP1 SWAP2 DIV MUL PUSH1 0x20 ADD PUSH1 0x40 MLOAD SWAP1 DUP2 ADD PUSH1 0x40 MSTORE DUP1 SWAP3 SWAP2 SWAP1 DUP2 DUP2 MSTORE PUSH1 0x20 ADD DUP3 DUP1 SLOAD PUSH2 0x295 SWAP1 PUSH2 0x638 JUMP JUMPDEST DUP1 ISZERO PUSH2 0x2E0 JUMPI DUP1 PUSH1 0x1F LT PUSH2 0x2B7 JUMPI PUSH2 0x100 DUP1 DUP4 SLOAD DIV MUL DUP4 MSTORE SWAP2 PUSH1 0x20 ADD SWAP2 PUSH2 0x2E0 JUMP JUMPDEST DUP3 ADD SWAP2 SWAP1 PUSH0 MSTORE PUSH1 0x20 PUSH0 KECCAK256 SWAP1 JUMPDEST DUP2 SLOAD DUP2 MSTORE SWAP1 PUSH1 0x1 ADD SWAP1 PUSH1 0x20 ADD DUP1 DUP4 GT PUSH2 0x2C3 JUMPI DUP3 SWAP1 SUB PUSH1 0x1F AND DUP3 ADD SWAP2 JUMPDEST POP POP POP POP POP SWAP1 DUP1 PUSH1 0x6 ADD PUSH0 SWAP1 SLOAD SWAP1 PUSH2 0x100 EXP SWAP1 DIV PUSH20 0xFFFFFFFFFFFFFFFFFFFFFFFFFFFFFFFFFFFFFFFF AND SWAP1 POP DUP8 JUMP JUMPDEST PUSH1 0x2 PUSH1 0x20 MSTORE DUP2 PUSH0 MSTORE PUSH1 0x40 PUSH0 KECCAK256 DUP2 DUP2 SLOAD DUP2 LT PUSH2 0x328 JUMPI PUSH0 DUP1 REVERT JUMPDEST SWAP1 PUSH0 MSTORE PUSH1 0x20 PUSH0 KECCAK256 ADD PUSH0 SWAP2 POP SWAP2 POP POP SLOAD DUP2 JUMP JUMPDEST PUSH0 PUSH0 REVERT JUMPDEST PUSH0 DUP2 SWAP1 POP SWAP2 SWAP1 POP JUMP JUMPDEST PUSH2 0x350 DUP2 PUSH2 0x33E JUMP JUMPDEST DUP2 EQ PUSH2 0x35A JUMPI PUSH0 PUSH0 REVERT JUMPDEST POP JUMP JUMPDEST PUSH0 DUP2 CALLDATALOAD SWAP1 POP PUSH2 0x36B DUP2 PUSH2 0x347 JUMP JUMPDEST SWAP3 SWAP2 POP POP JUMP JUMPDEST PUSH0 PUSH0 PUSH1 0x40 DUP4 DUP6 SUB SLT ISZERO PUSH2 0x387 JUMPI PUSH2 0x386 PUSH2 0x33A JUMP JUMPDEST JUMPDEST PUSH0 PUSH2 0x394 DUP6 DUP3 DUP7 ADD PUSH2 0x35D JUMP JUMPDEST SWAP3 POP POP PUSH1 0x20 PUSH2 0x3A5 DUP6 DUP3 DUP7 ADD PUSH2 0x35D JUMP JUMPDEST SWAP2 POP POP SWAP3 POP SWAP3 SWAP1 POP JUMP JUMPDEST PUSH2 0x3B8 DUP2 PUSH2 0x33E JUMP JUMPDEST DUP3 MSTORE POP POP JUMP JUMPDEST PUSH0 PUSH1 0x20 DUP3 ADD SWAP1 POP PUSH2 0x3D1 PUSH0 DUP4 ADD DUP5 PUSH2 0x3AF JUMP JUMPDEST SWAP3 SWAP2 POP POP JUMP JUMPDEST PUSH0 PUSH20 0xFFFFFFFFFFFFFFFFFFFFFFFFFFFFFFFFFFFFFFFF DUP3 AND SWAP1 POP SWAP2 SWAP1 POP JUMP JUMPDEST PUSH0 DUP2 SWAP1 POP SWAP2 SWAP1 POP JUMP JUMPDEST PUSH0 PUSH2 0x419 PUSH2 0x414 PUSH2 0x40F DUP5 PUSH2 0x3D7 JUMP JUMPDEST PUSH2 0x3F6 JUMP JUMPDEST PUSH2 0x3D7 JUMP JUMPDEST SWAP1 POP SWAP2 SWAP1 POP JUMP JUMPDEST PUSH0 PUSH2 0x42A DUP3 PUSH2 0x3FF JUMP JUMPDEST SWAP1 POP SWAP2 SWAP1 POP JUMP JUMPDEST PUSH0 PUSH2 0x43B DUP3 PUSH2 0x420 JUMP JUMPDEST SWAP1 POP SWAP2 SWAP1 POP JUMP JUMPDEST PUSH2 0x44B DUP2 PUSH2 0x431 JUMP JUMPDEST DUP3 MSTORE POP POP JUMP JUMPDEST PUSH0 PUSH1 0x20 DUP3 ADD SWAP1 POP PUSH2 0x464 PUSH0 DUP4 ADD DUP5 PUSH2 0x442 JUMP JUMPDEST SWAP3 SWAP2 POP POP JUMP JUMPDEST PUSH0 PUSH2 0x474 DUP3 PUSH2 0x420 JUMP JUMPDEST SWAP1 POP SWAP2 SWAP1 POP JUMP JUMPDEST PUSH2 0x484 DUP2 PUSH2 0x46A JUMP JUMPDEST DUP3 MSTORE POP POP JUMP JUMPDEST PUSH0 PUSH1 0x20 DUP3 ADD SWAP1 POP PUSH2 0x49D PUSH0 DUP4 ADD DUP5 PUSH2 0x47B JUMP JUMPDEST SWAP3 SWAP2 POP POP JUMP JUMPDEST PUSH0 PUSH2 0x4AD DUP3 PUSH2 0x420 JUMP JUMPDEST SWAP1 POP SWAP2 SWAP1 POP JUMP JUMPDEST PUSH2 0x4BD DUP2 PUSH2 0x4A3 JUMP JUMPDEST DUP3 MSTORE POP POP JUMP JUMPDEST PUSH0 PUSH1 0x20 DUP3 ADD SWAP1 POP PUSH2 0x4D6 PUSH0 DUP4 ADD DUP5 PUSH2 0x4B4 JUMP JUMPDEST SWAP3 SWAP2 POP POP JUMP JUMPDEST PUSH0 PUSH1 0x20 DUP3 DUP5 SUB SLT ISZERO PUSH2 0x4F1 JUMPI PUSH2 0x4F0 PUSH2 0x33A JUMP JUMPDEST JUMPDEST PUSH0 PUSH2 0x4FE DUP5 DUP3 DUP6 ADD PUSH2 0x35D JUMP JUMPDEST SWAP2 POP POP SWAP3 SWAP2 POP POP JUMP JUMPDEST PUSH0 DUP2 MLOAD SWAP1 POP SWAP2 SWAP1 POP JUMP JUMPDEST PUSH0 DUP3 DUP3 MSTORE PUSH1 0x20 DUP3 ADD SWAP1 POP SWAP3 SWAP2 POP POP JUMP JUMPDEST DUP3 DUP2 DUP4 MCOPY PUSH0 DUP4 DUP4 ADD MSTORE POP POP POP JUMP JUMPDEST PUSH0 PUSH1 0x1F NOT PUSH1 0x1F DUP4 ADD AND SWAP1 POP SWAP2 SWAP1 POP JUMP JUMPDEST PUSH0 PUSH2 0x549 DUP3 PUSH2 0x507 JUMP JUMPDEST PUSH2 0x553 DUP2 DUP6 PUSH2 0x511 JUMP JUMPDEST SWAP4 POP PUSH2 0x563 DUP2 DUP6 PUSH1 0x20 DUP7 ADD PUSH2 0x521 JUMP JUMPDEST PUSH2 0x56C DUP2 PUSH2 0x52F JUMP JUMPDEST DUP5 ADD SWAP2 POP POP SWAP3 SWAP2 POP POP JUMP JUMPDEST PUSH0 PUSH2 0x581 DUP3 PUSH2 0x3D7 JUMP JUMPDEST SWAP1 POP SWAP2 SWAP1 POP JUMP JUMPDEST PUSH2 0x591 DUP2 PUSH2 0x577 JUMP JUMPDEST DUP3 MSTORE POP POP JUMP JUMPDEST PUSH0 PUSH1 0xE0 DUP3 ADD SWAP1 POP PUSH2 0x5AA PUSH0 DUP4 ADD DUP11 PUSH2 0x3AF JUMP JUMPDEST PUSH2 0x5B7 PUSH1 0x20 DUP4 ADD DUP10 PUSH2 0x3AF JUMP JUMPDEST PUSH2 0x5C4 PUSH1 0x40 DUP4 ADD DUP9 PUSH2 0x3AF JUMP JUMPDEST PUSH2 0x5D1 PUSH1 0x60 DUP4 ADD DUP8 PUSH2 0x3AF JUMP JUMPDEST PUSH2 0x5DE PUSH1 0x80 DUP4 ADD DUP7 PUSH2 0x3AF JUMP JUMPDEST DUP2 DUP2 SUB PUSH1 0xA0 DUP4 ADD MSTORE PUSH2 0x5F0 DUP2 DUP6 PUSH2 0x53F JUMP JUMPDEST SWAP1 POP PUSH2 0x5FF PUSH1 0xC0 DUP4 ADD DUP5 PUSH2 0x588 JUMP JUMPDEST SWAP9 SWAP8 POP POP POP POP POP POP POP POP JUMP JUMPDEST PUSH32 0x4E487B7100000000000000000000000000000000000000000000000000000000 PUSH0 MSTORE PUSH1 0x22 PUSH1 0x4 MSTORE PUSH1 0x24 PUSH0 REVERT JUMPDEST PUSH0 PUSH1 0x2 DUP3 DIV SWAP1 POP PUSH1 0x1 DUP3 AND DUP1 PUSH2 0x64F JUMPI PUSH1 0x7F DUP3 AND SWAP2 POP JUMPDEST PUSH1 0x20 DUP3 LT DUP2 SUB PUSH2 0x662 JUMPI PUSH2 0x661 PUSH2 0x60B JUMP JUMPDEST JUMPDEST POP SWAP2 SWAP1 POP JUMP INVALID LOG2 PUSH5 0x6970667358 0x22 SLT KECCAK256 0xC8 0x2F SWAP12 0xB0 PUSH3 0x608D21 0x23 SGT DUP10 CALLER SWAP14 NOT 0xEF TLOAD 0xB4 0xCD SWAP3 POP 0xDE SWAPN 0x15 MUL 0xCD PUSH0 0xA8 TSTORE STOP MSTORE8 ORIGIN 0xEA PUSH5 0x736F6C6343 STOP ADDMOD 0x1E STOP CALLER "
				},
				"gasEstimates": {
					"creation": {
						"codeDepositCost": "338800",
						"executionCost": "infinite",
						"totalCost": "infinite"
					},
					"external": {
						"complaintCount()": "2447",
						"complaints(uint256)": "infinite",
						"complaintsByOrganisation(uint256,uint256)": "infinite",
						"complaintsByUser(uint256,uint256)": "infinite",
						"organisationRegistry()": "infinite",
						"reputationCalculation()": "infinite",
						"userRegistry()": "infinite"
					}
				},
				"methodIdentifiers": {
					"complaintCount()": "2edea294",
					"complaints(uint256)": "7e69e912",
					"complaintsByOrganisation(uint256,uint256)": "c7059ea2",
					"complaintsByUser(uint256,uint256)": "0dcbbd95",
					"organisationRegistry()": "7a1c6b70",
					"reputationCalculation()": "36c582b7",
					"userRegistry()": "5c7460d6"
				}
			},
			"storageLayout": {
				"storage": [
					{
						"astId": 21,
						"contract": "assessment3/AnonComplaint.sol:ComplaintRegistry",
						"label": "complaintCount",
						"offset": 0,
						"slot": "0",
						"type": "t_uint256"
					},
					{
						"astId": 26,
						"contract": "assessment3/AnonComplaint.sol:ComplaintRegistry",
						"label": "complaints",
						"offset": 0,
						"slot": "1",
						"type": "t_mapping(t_uint256,t_struct(Complaint)19_storage)"
					},
					{
						"astId": 31,
						"contract": "assessment3/AnonComplaint.sol:ComplaintRegistry",
						"label": "complaintsByOrganisation",
						"offset": 0,
						"slot": "2",
						"type": "t_mapping(t_uint256,t_array(t_uint256)dyn_storage)"
					},
					{
						"astId": 36,
						"contract": "assessment3/AnonComplaint.sol:ComplaintRegistry",
						"label": "complaintsByUser",
						"offset": 0,
						"slot": "3",
						"type": "t_mapping(t_uint256,t_array(t_uint256)dyn_storage)"
					},
					{
						"astId": 39,
						"contract": "assessment3/AnonComplaint.sol:ComplaintRegistry",
						"label": "organisationRegistry",
						"offset": 0,
						"slot": "4",
						"type": "t_contract(OrganisationRegistry)232"
					},
					{
						"astId": 42,
						"contract": "assessment3/AnonComplaint.sol:ComplaintRegistry",
						"label": "userRegistry",
						"offset": 0,
						"slot": "5",
						"type": "t_contract(UserRegistry)601"
					},
					{
						"astId": 45,
						"contract": "assessment3/AnonComplaint.sol:ComplaintRegistry",
						"label": "reputationCalculation",
						"offset": 0,
						"slot": "6",
						"type": "t_contract(ReputationCalculation)441"
					}
				],
				"types": {
					"t_address": {
						"encoding": "inplace",
						"label": "address",
						"numberOfBytes": "20"
					},
					"t_array(t_uint256)dyn_storage": {
						"base": "t_uint256",
						"encoding": "dynamic_array",
						"label": "uint256[]",
						"numberOfBytes": "32"
					},
					"t_contract(OrganisationRegistry)232": {
						"encoding": "inplace",
						"label": "contract OrganisationRegistry",
						"numberOfBytes": "20"
					},
					"t_contract(ReputationCalculation)441": {
						"encoding": "inplace",
						"label": "contract ReputationCalculation",
						"numberOfBytes": "20"
					},
					"t_contract(UserRegistry)601": {
						"encoding": "inplace",
						"label": "contract UserRegistry",
						"numberOfBytes": "20"
					},
					"t_mapping(t_uint256,t_array(t_uint256)dyn_storage)": {
						"encoding": "mapping",
						"key": "t_uint256",
						"label": "mapping(uint256 => uint256[])",
						"numberOfBytes": "32",
						"value": "t_array(t_uint256)dyn_storage"
					},
					"t_mapping(t_uint256,t_struct(Complaint)19_storage)": {
						"encoding": "mapping",
						"key": "t_uint256",
						"label": "mapping(uint256 => struct ComplaintRegistry.Complaint)",
						"numberOfBytes": "32",
						"value": "t_struct(Complaint)19_storage"
					},
					"t_string_storage": {
						"encoding": "bytes",
						"label": "string",
						"numberOfBytes": "32"
					},
					"t_struct(Complaint)19_storage": {
						"encoding": "inplace",
						"label": "struct ComplaintRegistry.Complaint",
						"members": [
							{
								"astId": 6,
								"contract": "assessment3/AnonComplaint.sol:ComplaintRegistry",
								"label": "id",
								"offset": 0,
								"slot": "0",
								"type": "t_uint256"
							},
							{
								"astId": 8,
								"contract": "assessment3/AnonComplaint.sol:ComplaintRegistry",
								"label": "userId",
								"offset": 0,
								"slot": "1",
								"type": "t_uint256"
							},
							{
								"astId": 10,
								"contract": "assessment3/AnonComplaint.sol:ComplaintRegistry",
								"label": "orgId",
								"offset": 0,
								"slot": "2",
								"type": "t_uint256"
							},
							{
								"astId": 12,
								"contract": "assessment3/AnonComplaint.sol:ComplaintRegistry",
								"label": "score",
								"offset": 0,
								"slot": "3",
								"type": "t_uint256"
							},
							{
								"astId": 14,
								"contract": "assessment3/AnonComplaint.sol:ComplaintRegistry",
								"label": "timestamp",
								"offset": 0,
								"slot": "4",
								"type": "t_uint256"
							},
							{
								"astId": 16,
								"contract": "assessment3/AnonComplaint.sol:ComplaintRegistry",
								"label": "contentHash",
								"offset": 0,
								"slot": "5",
								"type": "t_string_storage"
							},
							{
								"astId": 18,
								"contract": "assessment3/AnonComplaint.sol:ComplaintRegistry",
								"label": "reporter",
								"offset": 0,
								"slot": "6",
								"type": "t_address"
							}
						],
						"numberOfBytes": "224"
					},
					"t_uint256": {
						"encoding": "inplace",
						"label": "uint256",
						"numberOfBytes": "32"
					}
				}
			},
			"userdoc": {
				"kind": "user",
				"methods": {},
				"version": 1
			}
		}
	}
}