{
	"assessment3/UserRegistry.sol": {
		"UserRegistry": {
			"abi": [
				{
					"anonymous": false,
					"inputs": [
						{
							"indexed": true,
							"internalType": "uint256",
							"name": "userId",
							"type": "uint256"
						},
						{
							"indexed": false,
							"internalType": "string",
							"name": "name",
							"type": "string"
						},
						{
							"indexed": true,
							"internalType": "address",
							"name": "",
							"type": "address"
						}
					],
					"name": "UserRegistered",
					"type": "event"
				},
				{
					"anonymous": false,
					"inputs": [
						{
							"indexed": true,
							"internalType": "uint256",
							"name": "userId",
							"type": "uint256"
						},
						{
							"indexed": false,
							"internalType": "bool",
							"name": "isVerified",
							"type": "bool"
						}
					],
					"name": "UserVerified",
					"type": "event"
				},
				{
					"inputs": [
						{
							"internalType": "uint256",
							"name": "userId",
							"type": "uint256"
						}
					],
					"name": "getUser",
					"outputs": [
						{
							"internalType": "uint256",
							"name": "id",
							"type": "uint256"
						},
						{
							"internalType": "string",
							"name": "name",
							"type": "string"
						},
						{
							"internalType": "bool",
							"name": "exists",
							"type": "bool"
						},
						{
							"internalType": "bool",
							"name": "isVerified",
							"type": "bool"
						}
					],
					"stateMutability": "view",
					"type": "function"
				},
				{
					"inputs": [
						{
							"internalType": "uint256",
							"name": "userId",
							"type": "uint256"
						}
					],
					"name": "isVerifiedUser",
					"outputs": [
						{
							"internalType": "bool",
							"name": "",
							"type": "bool"
						}
					],
					"stateMutability": "view",
					"type": "function"
				},
				{
					"inputs": [
						{
							"internalType": "string",
							"name": "name",
							"type": "string"
						}
					],
					"name": "registerUser",
					"outputs": [
						{
							"internalType": "uint256",
							"name": "",
							"type": "uint256"
						}
					],
					"stateMutability": "nonpayable",
					"type": "function"
				},
				{
					"inputs": [],
					"name": "userCount",
					"outputs": [
						{
							"internalType": "uint256",
							"name": "",
							"type": "uint256"
						}
					],
					"stateMutability": "view",
					"type": "function"
				},
				{
					"inputs": [
						{
							"internalType": "uint256",
							"name": "userId",
							"type": "uint256"
						}
					],
					"name": "userExists",
					"outputs": [
						{
							"internalType": "bool",
							"name": "",
							"type": "bool"
						}
					],
					"stateMutability": "view",
					"type": "function"
				},
				{
					"inputs": [
						{
							"internalType": "uint256",
							"name": "",
							"type": "uint256"
						}
					],
					"name": "users",
					"outputs": [
						{
							"internalType": "uint256",
							"name": "id",
							"type": "uint256"
						},
						{
							"internalType": "string",
							"name": "name",
							"type": "string"
						},
						{
							"internalType": "bool",
							"name": "exists",
							"type": "bool"
						},
						{
							"internalType": "bool",
							"name": "isVerified",
							"type": "bool"
						}
					],
					"stateMutability": "view",
					"type": "function"
				},
				{
					"inputs": [
						{
							"internalType": "uint256",
							"name": "userId",
							"type": "uint256"
						},
						{
							"internalType": "bool",
							"name": "verified",
							"type": "bool"
						}
					],
					"name": "verifyUser",
					"outputs": [],
					"stateMutability": "nonpayable",
					"type": "function"
				}
			],
			"devdoc": {
				"kind": "dev",
				"methods": {},
				"version": 1
			},
			"evm": {
				"assembly": "    /* \"assessment3/UserRegistry.sol\":81:1688  contract UserRegistry {... */\n  mstore(0x40, 0x80)\n  callvalue\n  dup1\n  iszero\n  tag_1\n  jumpi\n  revert(0x00, 0x00)\ntag_1:\n  pop\n  dataSize(sub_0)\n  dup1\n  dataOffset(sub_0)\n  0x00\n  codecopy\n  0x00\n  return\nstop\n\nsub_0: assembly {\n        /* \"assessment3/UserRegistry.sol\":81:1688  contract UserRegistry {... */\n      mstore(0x40, 0x80)\n      callvalue\n      dup1\n      iszero\n      tag_1\n      jumpi\n      revert(0x00, 0x00)\n    tag_1:\n      pop\n      jumpi(tag_2, lt(calldatasize, 0x04))\n      shr(0xe0, calldataload(0x00))\n      dup1\n      0x6f93dd91\n      gt\n      tag_10\n      jumpi\n      dup1\n      0x6f93dd91\n      eq\n      tag_6\n      jumpi\n      dup1\n      0x704f1b94\n      eq\n      tag_7\n      jumpi\n      dup1\n      0xb0467deb\n      eq\n      tag_8\n      jumpi\n      dup1\n      0xed2c317b\n      eq\n      tag_9\n      jumpi\n      jump(tag_2)\n    tag_10:\n      dup1\n      0x07973ccf\n      eq\n      tag_3\n      jumpi\n      dup1\n      0x365b98b2\n      eq\n      tag_4\n      jumpi\n      dup1\n      0x39721b50\n      eq\n      tag_5\n      jumpi\n    tag_2:\n      revert(0x00, 0x00)\n        /* \"assessment3/UserRegistry.sol\":236:260  uint256 public userCount */\n    tag_3:\n      tag_11\n      tag_12\n      jump\t// in\n    tag_11:\n      mload(0x40)\n      tag_13\n      swap2\n      swap1\n      tag_14\n      jump\t// in\n    tag_13:\n      mload(0x40)\n      dup1\n      swap2\n      sub\n      swap1\n      return\n        /* \"assessment3/UserRegistry.sol\":267:304  mapping(uint256 => User) public users */\n    tag_4:\n      tag_15\n      0x04\n      dup1\n      calldatasize\n      sub\n      dup2\n      add\n      swap1\n      tag_16\n      swap2\n      swap1\n      tag_17\n      jump\t// in\n    tag_16:\n      tag_18\n      jump\t// in\n    tag_15:\n      mload(0x40)\n      tag_19\n      swap5\n      swap4\n      swap3\n      swap2\n      swap1\n      tag_20\n      jump\t// in\n    tag_19:\n      mload(0x40)\n      dup1\n      swap2\n      sub\n      swap1\n      return\n        /* \"assessment3/UserRegistry.sol\":1566:1685  function isVerifiedUser(uint256 userId) external view returns (bool) {... */\n    tag_5:\n      tag_21\n      0x04\n      dup1\n      calldatasize\n      sub\n      dup2\n      add\n      swap1\n      tag_22\n      swap2\n      swap1\n      tag_17\n      jump\t// in\n    tag_22:\n      tag_23\n      jump\t// in\n    tag_21:\n      mload(0x40)\n      tag_24\n      swap2\n      swap1\n      tag_25\n      jump\t// in\n    tag_24:\n      mload(0x40)\n      dup1\n      swap2\n      sub\n      swap1\n      return\n        /* \"assessment3/UserRegistry.sol\":1447:1558  function userExists(uint256 userId) external view returns (bool) {... */\n    tag_6:\n      tag_26\n      0x04\n      dup1\n      calldatasize\n      sub\n      dup2\n      add\n      swap1\n      tag_27\n      swap2\n      swap1\n      tag_17\n      jump\t// in\n    tag_27:\n      tag_28\n      jump\t// in\n    tag_26:\n      mload(0x40)\n      tag_29\n      swap2\n      swap1\n      tag_25\n      jump\t// in\n    tag_29:\n      mload(0x40)\n      dup1\n      swap2\n      sub\n      swap1\n      return\n        /* \"assessment3/UserRegistry.sol\":462:926  function registerUser(string memory name) external returns (uint256) {... */\n    tag_7:\n      tag_30\n      0x04\n      dup1\n      calldatasize\n      sub\n      dup2\n      add\n      swap1\n      tag_31\n      swap2\n      swap1\n      tag_32\n      jump\t// in\n    tag_31:\n      tag_33\n      jump\t// in\n    tag_30:\n      mload(0x40)\n      tag_34\n      swap2\n      swap1\n      tag_14\n      jump\t// in\n    tag_34:\n      mload(0x40)\n      dup1\n      swap2\n      sub\n      swap1\n      return\n        /* \"assessment3/UserRegistry.sol\":1188:1439  function getUser(uint256 userId) external view... */\n    tag_8:\n      tag_35\n      0x04\n      dup1\n      calldatasize\n      sub\n      dup2\n      add\n      swap1\n      tag_36\n      swap2\n      swap1\n      tag_17\n      jump\t// in\n    tag_36:\n      tag_37\n      jump\t// in\n    tag_35:\n      mload(0x40)\n      tag_38\n      swap5\n      swap4\n      swap3\n      swap2\n      swap1\n      tag_20\n      jump\t// in\n    tag_38:\n      mload(0x40)\n      dup1\n      swap2\n      sub\n      swap1\n      return\n        /* \"assessment3/UserRegistry.sol\":934:1157  function verifyUser(uint256 userId, bool verified) external {... */\n    tag_9:\n      tag_39\n      0x04\n      dup1\n      calldatasize\n      sub\n      dup2\n      add\n      swap1\n      tag_40\n      swap2\n      swap1\n      tag_41\n      jump\t// in\n    tag_40:\n      tag_42\n      jump\t// in\n    tag_39:\n      stop\n        /* \"assessment3/UserRegistry.sol\":236:260  uint256 public userCount */\n    tag_12:\n      sload(0x00)\n      dup2\n      jump\t// out\n        /* \"assessment3/UserRegistry.sol\":267:304  mapping(uint256 => User) public users */\n    tag_18:\n      mstore(0x20, 0x01)\n      dup1\n      0x00\n      mstore\n      keccak256(0x00, 0x40)\n      0x00\n      swap2\n      pop\n      swap1\n      pop\n      dup1\n      0x00\n      add\n      sload\n      swap1\n      dup1\n      0x01\n      add\n      dup1\n      sload\n      tag_43\n      swap1\n      tag_44\n      jump\t// in\n    tag_43:\n      dup1\n      0x1f\n      add\n      0x20\n      dup1\n      swap2\n      div\n      mul\n      0x20\n      add\n      mload(0x40)\n      swap1\n      dup2\n      add\n      0x40\n      mstore\n      dup1\n      swap3\n      swap2\n      swap1\n      dup2\n      dup2\n      mstore\n      0x20\n      add\n      dup3\n      dup1\n      sload\n      tag_45\n      swap1\n      tag_44\n      jump\t// in\n    tag_45:\n      dup1\n      iszero\n      tag_46\n      jumpi\n      dup1\n      0x1f\n      lt\n      tag_47\n      jumpi\n      0x0100\n      dup1\n      dup4\n      sload\n      div\n      mul\n      dup4\n      mstore\n      swap2\n      0x20\n      add\n      swap2\n      jump(tag_46)\n    tag_47:\n      dup3\n      add\n      swap2\n      swap1\n      0x00\n      mstore\n      keccak256(0x00, 0x20)\n      swap1\n    tag_48:\n      dup2\n      sload\n      dup2\n      mstore\n      swap1\n      0x01\n      add\n      swap1\n      0x20\n      add\n      dup1\n      dup4\n      gt\n      tag_48\n      jumpi\n      dup3\n      swap1\n      sub\n      0x1f\n      and\n      dup3\n      add\n      swap2\n    tag_46:\n      pop\n      pop\n      pop\n      pop\n      pop\n      swap1\n      dup1\n      0x02\n      add\n      0x00\n      swap1\n      sload\n      swap1\n      0x0100\n      exp\n      swap1\n      div\n      0xff\n      and\n      swap1\n      dup1\n      0x02\n      add\n      0x01\n      swap1\n      sload\n      swap1\n      0x0100\n      exp\n      swap1\n      div\n      0xff\n      and\n      swap1\n      pop\n      dup5\n      jump\t// out\n        /* \"assessment3/UserRegistry.sol\":1566:1685  function isVerifiedUser(uint256 userId) external view returns (bool) {... */\n    tag_23:\n        /* \"assessment3/UserRegistry.sol\":1629:1633  bool */\n      0x00\n        /* \"assessment3/UserRegistry.sol\":1653:1658  users */\n      0x01\n        /* \"assessment3/UserRegistry.sol\":1653:1666  users[userId] */\n      0x00\n        /* \"assessment3/UserRegistry.sol\":1659:1665  userId */\n      dup4\n        /* \"assessment3/UserRegistry.sol\":1653:1666  users[userId] */\n      dup2\n      mstore\n      0x20\n      add\n      swap1\n      dup2\n      mstore\n      0x20\n      add\n      0x00\n      keccak256\n        /* \"assessment3/UserRegistry.sol\":1653:1677  users[userId].isVerified */\n      0x02\n      add\n      0x01\n      swap1\n      sload\n      swap1\n      0x0100\n      exp\n      swap1\n      div\n      0xff\n      and\n        /* \"assessment3/UserRegistry.sol\":1646:1677  return users[userId].isVerified */\n      swap1\n      pop\n        /* \"assessment3/UserRegistry.sol\":1566:1685  function isVerifiedUser(uint256 userId) external view returns (bool) {... */\n      swap2\n      swap1\n      pop\n      jump\t// out\n        /* \"assessment3/UserRegistry.sol\":1447:1558  function userExists(uint256 userId) external view returns (bool) {... */\n    tag_28:\n        /* \"assessment3/UserRegistry.sol\":1506:1510  bool */\n      0x00\n        /* \"assessment3/UserRegistry.sol\":1530:1535  users */\n      0x01\n        /* \"assessment3/UserRegistry.sol\":1530:1543  users[userId] */\n      0x00\n        /* \"assessment3/UserRegistry.sol\":1536:1542  userId */\n      dup4\n        /* \"assessment3/UserRegistry.sol\":1530:1543  users[userId] */\n      dup2\n      mstore\n      0x20\n      add\n      swap1\n      dup2\n      mstore\n      0x20\n      add\n      0x00\n      keccak256\n        /* \"assessment3/UserRegistry.sol\":1530:1550  users[userId].exists */\n      0x02\n      add\n      0x00\n      swap1\n      sload\n      swap1\n      0x0100\n      exp\n      swap1\n      div\n      0xff\n      and\n        /* \"assessment3/UserRegistry.sol\":1523:1550  return users[userId].exists */\n      swap1\n      pop\n        /* \"assessment3/UserRegistry.sol\":1447:1558  function userExists(uint256 userId) external view returns (bool) {... */\n      swap2\n      swap1\n      pop\n      jump\t// out\n        /* \"assessment3/UserRegistry.sol\":462:926  function registerUser(string memory name) external returns (uint256) {... */\n    tag_33:\n        /* \"assessment3/UserRegistry.sol\":522:529  uint256 */\n      0x00\n        /* \"assessment3/UserRegistry.sol\":571:572  0 */\n      0x00\n        /* \"assessment3/UserRegistry.sol\":556:560  name */\n      dup3\n        /* \"assessment3/UserRegistry.sol\":550:568  bytes(name).length */\n      mload\n        /* \"assessment3/UserRegistry.sol\":550:572  bytes(name).length > 0 */\n      gt\n        /* \"assessment3/UserRegistry.sol\":542:595  require(bytes(name).length > 0, \"User name required\") */\n      tag_52\n      jumpi\n      mload(0x40)\n      0x08c379a000000000000000000000000000000000000000000000000000000000\n      dup2\n      mstore\n      0x04\n      add\n      tag_53\n      swap1\n      tag_54\n      jump\t// in\n    tag_53:\n      mload(0x40)\n      dup1\n      swap2\n      sub\n      swap1\n      revert\n    tag_52:\n        /* \"assessment3/UserRegistry.sol\":606:615  userCount */\n      0x00\n      0x00\n        /* \"assessment3/UserRegistry.sol\":606:617  userCount++ */\n      dup2\n      sload\n      dup1\n      swap3\n      swap2\n      swap1\n      tag_55\n      swap1\n      tag_56\n      jump\t// in\n    tag_55:\n      swap2\n      swap1\n      pop\n      sstore\n      pop\n        /* \"assessment3/UserRegistry.sol\":649:830  User({... */\n      mload(0x40)\n      dup1\n      0x80\n      add\n      0x40\n      mstore\n      dup1\n        /* \"assessment3/UserRegistry.sol\":673:682  userCount */\n      sload(0x00)\n        /* \"assessment3/UserRegistry.sol\":649:830  User({... */\n      dup2\n      mstore\n      0x20\n      add\n        /* \"assessment3/UserRegistry.sol\":703:707  name */\n      dup4\n        /* \"assessment3/UserRegistry.sol\":649:830  User({... */\n      dup2\n      mstore\n      0x20\n      add\n        /* \"assessment3/UserRegistry.sol\":730:734  true */\n      0x01\n        /* \"assessment3/UserRegistry.sol\":649:830  User({... */\n      iszero\n      iszero\n      dup2\n      mstore\n      0x20\n      add\n        /* \"assessment3/UserRegistry.sol\":761:765  true */\n      0x01\n        /* \"assessment3/UserRegistry.sol\":649:830  User({... */\n      iszero\n      iszero\n      dup2\n      mstore\n      pop\n        /* \"assessment3/UserRegistry.sol\":630:635  users */\n      0x01\n        /* \"assessment3/UserRegistry.sol\":630:646  users[userCount] */\n      0x00\n        /* \"assessment3/UserRegistry.sol\":636:645  userCount */\n      sload(0x00)\n        /* \"assessment3/UserRegistry.sol\":630:646  users[userCount] */\n      dup2\n      mstore\n      0x20\n      add\n      swap1\n      dup2\n      mstore\n      0x20\n      add\n      0x00\n      keccak256\n        /* \"assessment3/UserRegistry.sol\":630:830  users[userCount] = User({... */\n      0x00\n      dup3\n      add\n      mload\n      dup2\n      0x00\n      add\n      sstore\n      0x20\n      dup3\n      add\n      mload\n      dup2\n      0x01\n      add\n      swap1\n      dup2\n      tag_57\n      swap2\n      swap1\n      tag_58\n      jump\t// in\n    tag_57:\n      pop\n      0x40\n      dup3\n      add\n      mload\n      dup2\n      0x02\n      add\n      exp(0x0100, 0x00)\n      dup2\n      sload\n      dup2\n      0xff\n      mul\n      not\n      and\n      swap1\n      dup4\n      iszero\n      iszero\n      mul\n      or\n      swap1\n      sstore\n      pop\n      0x60\n      dup3\n      add\n      mload\n      dup2\n      0x02\n      add\n      exp(0x0100, 0x01)\n      dup2\n      sload\n      dup2\n      0xff\n      mul\n      not\n      and\n      swap1\n      dup4\n      iszero\n      iszero\n      mul\n      or\n      swap1\n      sstore\n      pop\n      swap1\n      pop\n      pop\n        /* \"assessment3/UserRegistry.sol\":880:890  msg.sender */\n      caller\n        /* \"assessment3/UserRegistry.sol\":848:891  UserRegistered(userCount, name, msg.sender) */\n      0xffffffffffffffffffffffffffffffffffffffff\n      and\n        /* \"assessment3/UserRegistry.sol\":863:872  userCount */\n      sload(0x00)\n        /* \"assessment3/UserRegistry.sol\":848:891  UserRegistered(userCount, name, msg.sender) */\n      0xf9f470b753810725157b794665955ed6428420a93ae28c045cc736ff3306848f\n        /* \"assessment3/UserRegistry.sol\":874:878  name */\n      dup5\n        /* \"assessment3/UserRegistry.sol\":848:891  UserRegistered(userCount, name, msg.sender) */\n      mload(0x40)\n      tag_59\n      swap2\n      swap1\n      tag_60\n      jump\t// in\n    tag_59:\n      mload(0x40)\n      dup1\n      swap2\n      sub\n      swap1\n      log3\n        /* \"assessment3/UserRegistry.sol\":909:918  userCount */\n      sload(0x00)\n        /* \"assessment3/UserRegistry.sol\":902:918  return userCount */\n      swap1\n      pop\n        /* \"assessment3/UserRegistry.sol\":462:926  function registerUser(string memory name) external returns (uint256) {... */\n      swap2\n      swap1\n      pop\n      jump\t// out\n        /* \"assessment3/UserRegistry.sol\":1188:1439  function getUser(uint256 userId) external view... */\n    tag_37:\n        /* \"assessment3/UserRegistry.sol\":1253:1263  uint256 id */\n      0x00\n        /* \"assessment3/UserRegistry.sol\":1265:1283  string memory name */\n      0x60\n        /* \"assessment3/UserRegistry.sol\":1285:1296  bool exists */\n      0x00\n        /* \"assessment3/UserRegistry.sol\":1298:1313  bool isVerified */\n      0x00\n        /* \"assessment3/UserRegistry.sol\":1331:1347  User memory user */\n      0x00\n        /* \"assessment3/UserRegistry.sol\":1350:1355  users */\n      0x01\n        /* \"assessment3/UserRegistry.sol\":1350:1363  users[userId] */\n      0x00\n        /* \"assessment3/UserRegistry.sol\":1356:1362  userId */\n      dup8\n        /* \"assessment3/UserRegistry.sol\":1350:1363  users[userId] */\n      dup2\n      mstore\n      0x20\n      add\n      swap1\n      dup2\n      mstore\n      0x20\n      add\n      0x00\n      keccak256\n        /* \"assessment3/UserRegistry.sol\":1331:1363  User memory user = users[userId] */\n      mload(0x40)\n      dup1\n      0x80\n      add\n      0x40\n      mstore\n      swap1\n      dup2\n      0x00\n      dup3\n      add\n      sload\n      dup2\n      mstore\n      0x20\n      add\n      0x01\n      dup3\n      add\n      dup1\n      sload\n      tag_62\n      swap1\n      tag_44\n      jump\t// in\n    tag_62:\n      dup1\n      0x1f\n      add\n      0x20\n      dup1\n      swap2\n      div\n      mul\n      0x20\n      add\n      mload(0x40)\n      swap1\n      dup2\n      add\n      0x40\n      mstore\n      dup1\n      swap3\n      swap2\n      swap1\n      dup2\n      dup2\n      mstore\n      0x20\n      add\n      dup3\n      dup1\n      sload\n      tag_63\n      swap1\n      tag_44\n      jump\t// in\n    tag_63:\n      dup1\n      iszero\n      tag_64\n      jumpi\n      dup1\n      0x1f\n      lt\n      tag_65\n      jumpi\n      0x0100\n      dup1\n      dup4\n      sload\n      div\n      mul\n      dup4\n      mstore\n      swap2\n      0x20\n      add\n      swap2\n      jump(tag_64)\n    tag_65:\n      dup3\n      add\n      swap2\n      swap1\n      0x00\n      mstore\n      keccak256(0x00, 0x20)\n      swap1\n    tag_66:\n      dup2\n      sload\n      dup2\n      mstore\n      swap1\n      0x01\n      add\n      swap1\n      0x20\n      add\n      dup1\n      dup4\n      gt\n      tag_66\n      jumpi\n      dup3\n      swap1\n      sub\n      0x1f\n      and\n      dup3\n      add\n      swap2\n    tag_64:\n      pop\n      pop\n      pop\n      pop\n      pop\n      dup2\n      mstore\n      0x20\n      add\n      0x02\n      dup3\n      add\n      0x00\n      swap1\n      sload\n      swap1\n      0x0100\n      exp\n      swap1\n      div\n      0xff\n      and\n      iszero\n      iszero\n      iszero\n      iszero\n      dup2\n      mstore\n      0x20\n      add\n      0x02\n      dup3\n      add\n      0x01\n      swap1\n      sload\n      swap1\n      0x0100\n      exp\n      swap1\n      div\n      0xff\n      and\n      iszero\n      iszero\n      iszero\n      iszero\n      dup2\n      mstore\n      pop\n      pop\n      swap1\n      pop\n        /* \"assessment3/UserRegistry.sol\":1382:1386  user */\n      dup1\n        /* \"assessment3/UserRegistry.sol\":1382:1389  user.id */\n      0x00\n      add\n      mload\n        /* \"assessment3/UserRegistry.sol\":1391:1395  user */\n      dup2\n        /* \"assessment3/UserRegistry.sol\":1391:1400  user.name */\n      0x20\n      add\n      mload\n        /* \"assessment3/UserRegistry.sol\":1402:1406  user */\n      dup3\n        /* \"assessment3/UserRegistry.sol\":1402:1413  user.exists */\n      0x40\n      add\n      mload\n        /* \"assessment3/UserRegistry.sol\":1415:1419  user */\n      dup4\n        /* \"assessment3/UserRegistry.sol\":1415:1430  user.isVerified */\n      0x60\n      add\n      mload\n        /* \"assessment3/UserRegistry.sol\":1374:1431  return (user.id, user.name, user.exists, user.isVerified) */\n      swap5\n      pop\n      swap5\n      pop\n      swap5\n      pop\n      swap5\n      pop\n      pop\n        /* \"assessment3/UserRegistry.sol\":1188:1439  function getUser(uint256 userId) external view... */\n      swap2\n      swap4\n      pop\n      swap2\n      swap4\n      jump\t// out\n        /* \"assessment3/UserRegistry.sol\":934:1157  function verifyUser(uint256 userId, bool verified) external {... */\n    tag_42:\n        /* \"assessment3/UserRegistry.sol\":1013:1018  users */\n      0x01\n        /* \"assessment3/UserRegistry.sol\":1013:1026  users[userId] */\n      0x00\n        /* \"assessment3/UserRegistry.sol\":1019:1025  userId */\n      dup4\n        /* \"assessment3/UserRegistry.sol\":1013:1026  users[userId] */\n      dup2\n      mstore\n      0x20\n      add\n      swap1\n      dup2\n      mstore\n      0x20\n      add\n      0x00\n      keccak256\n        /* \"assessment3/UserRegistry.sol\":1013:1033  users[userId].exists */\n      0x02\n      add\n      0x00\n      swap1\n      sload\n      swap1\n      0x0100\n      exp\n      swap1\n      div\n      0xff\n      and\n        /* \"assessment3/UserRegistry.sol\":1005:1057  require(users[userId].exists, \"User does not exist\") */\n      tag_68\n      jumpi\n      mload(0x40)\n      0x08c379a000000000000000000000000000000000000000000000000000000000\n      dup2\n      mstore\n      0x04\n      add\n      tag_69\n      swap1\n      tag_70\n      jump\t// in\n    tag_69:\n      mload(0x40)\n      dup1\n      swap2\n      sub\n      swap1\n      revert\n    tag_68:\n        /* \"assessment3/UserRegistry.sol\":1095:1103  verified */\n      dup1\n        /* \"assessment3/UserRegistry.sol\":1068:1073  users */\n      0x01\n        /* \"assessment3/UserRegistry.sol\":1068:1081  users[userId] */\n      0x00\n        /* \"assessment3/UserRegistry.sol\":1074:1080  userId */\n      dup5\n        /* \"assessment3/UserRegistry.sol\":1068:1081  users[userId] */\n      dup2\n      mstore\n      0x20\n      add\n      swap1\n      dup2\n      mstore\n      0x20\n      add\n      0x00\n      keccak256\n        /* \"assessment3/UserRegistry.sol\":1068:1092  users[userId].isVerified */\n      0x02\n      add\n      0x01\n        /* \"assessment3/UserRegistry.sol\":1068:1103  users[userId].isVerified = verified */\n      0x0100\n      exp\n      dup2\n      sload\n      dup2\n      0xff\n      mul\n      not\n      and\n      swap1\n      dup4\n      iszero\n      iszero\n      mul\n      or\n      swap1\n      sstore\n      pop\n        /* \"assessment3/UserRegistry.sol\":1132:1138  userId */\n      dup2\n        /* \"assessment3/UserRegistry.sol\":1119:1149  UserVerified(userId, verified) */\n      0x296dfabe3a8bf815e7de9e15072dcd7a750eaf1633c5c2087a9041ee87159a65\n        /* \"assessment3/UserRegistry.sol\":1140:1148  verified */\n      dup3\n        /* \"assessment3/UserRegistry.sol\":1119:1149  UserVerified(userId, verified) */\n      mload(0x40)\n      tag_71\n      swap2\n      swap1\n      tag_25\n      jump\t// in\n    tag_71:\n      mload(0x40)\n      dup1\n      swap2\n      sub\n      swap1\n      log2\n        /* \"assessment3/UserRegistry.sol\":934:1157  function verifyUser(uint256 userId, bool verified) external {... */\n      pop\n      pop\n      jump\t// out\n        /* \"#utility.yul\":7:84   */\n    tag_72:\n        /* \"#utility.yul\":44:51   */\n      0x00\n        /* \"#utility.yul\":73:78   */\n      dup2\n        /* \"#utility.yul\":62:78   */\n      swap1\n      pop\n        /* \"#utility.yul\":7:84   */\n      swap2\n      swap1\n      pop\n      jump\t// out\n        /* \"#utility.yul\":90:208   */\n    tag_73:\n        /* \"#utility.yul\":177:201   */\n      tag_121\n        /* \"#utility.yul\":195:200   */\n      dup2\n        /* \"#utility.yul\":177:201   */\n      tag_72\n      jump\t// in\n    tag_121:\n        /* \"#utility.yul\":172:175   */\n      dup3\n        /* \"#utility.yul\":165:202   */\n      mstore\n        /* \"#utility.yul\":90:208   */\n      pop\n      pop\n      jump\t// out\n        /* \"#utility.yul\":214:436   */\n    tag_14:\n        /* \"#utility.yul\":307:311   */\n      0x00\n        /* \"#utility.yul\":345:347   */\n      0x20\n        /* \"#utility.yul\":334:343   */\n      dup3\n        /* \"#utility.yul\":330:348   */\n      add\n        /* \"#utility.yul\":322:348   */\n      swap1\n      pop\n        /* \"#utility.yul\":358:429   */\n      tag_123\n        /* \"#utility.yul\":426:427   */\n      0x00\n        /* \"#utility.yul\":415:424   */\n      dup4\n        /* \"#utility.yul\":411:428   */\n      add\n        /* \"#utility.yul\":402:408   */\n      dup5\n        /* \"#utility.yul\":358:429   */\n      tag_73\n      jump\t// in\n    tag_123:\n        /* \"#utility.yul\":214:436   */\n      swap3\n      swap2\n      pop\n      pop\n      jump\t// out\n        /* \"#utility.yul\":442:517   */\n    tag_74:\n        /* \"#utility.yul\":475:481   */\n      0x00\n        /* \"#utility.yul\":508:510   */\n      0x40\n        /* \"#utility.yul\":502:511   */\n      mload\n        /* \"#utility.yul\":492:511   */\n      swap1\n      pop\n        /* \"#utility.yul\":442:517   */\n      swap1\n      jump\t// out\n        /* \"#utility.yul\":523:640   */\n    tag_75:\n        /* \"#utility.yul\":632:633   */\n      0x00\n        /* \"#utility.yul\":629:630   */\n      0x00\n        /* \"#utility.yul\":622:634   */\n      revert\n        /* \"#utility.yul\":646:763   */\n    tag_76:\n        /* \"#utility.yul\":755:756   */\n      0x00\n        /* \"#utility.yul\":752:753   */\n      0x00\n        /* \"#utility.yul\":745:757   */\n      revert\n        /* \"#utility.yul\":769:891   */\n    tag_77:\n        /* \"#utility.yul\":842:866   */\n      tag_128\n        /* \"#utility.yul\":860:865   */\n      dup2\n        /* \"#utility.yul\":842:866   */\n      tag_72\n      jump\t// in\n    tag_128:\n        /* \"#utility.yul\":835:840   */\n      dup2\n        /* \"#utility.yul\":832:867   */\n      eq\n        /* \"#utility.yul\":822:885   */\n      tag_129\n      jumpi\n        /* \"#utility.yul\":881:882   */\n      0x00\n        /* \"#utility.yul\":878:879   */\n      0x00\n        /* \"#utility.yul\":871:883   */\n      revert\n        /* \"#utility.yul\":822:885   */\n    tag_129:\n        /* \"#utility.yul\":769:891   */\n      pop\n      jump\t// out\n        /* \"#utility.yul\":897:1036   */\n    tag_78:\n        /* \"#utility.yul\":943:948   */\n      0x00\n        /* \"#utility.yul\":981:987   */\n      dup2\n        /* \"#utility.yul\":968:988   */\n      calldataload\n        /* \"#utility.yul\":959:988   */\n      swap1\n      pop\n        /* \"#utility.yul\":997:1030   */\n      tag_131\n        /* \"#utility.yul\":1024:1029   */\n      dup2\n        /* \"#utility.yul\":997:1030   */\n      tag_77\n      jump\t// in\n    tag_131:\n        /* \"#utility.yul\":897:1036   */\n      swap3\n      swap2\n      pop\n      pop\n      jump\t// out\n        /* \"#utility.yul\":1042:1371   */\n    tag_17:\n        /* \"#utility.yul\":1101:1107   */\n      0x00\n        /* \"#utility.yul\":1150:1152   */\n      0x20\n        /* \"#utility.yul\":1138:1147   */\n      dup3\n        /* \"#utility.yul\":1129:1136   */\n      dup5\n        /* \"#utility.yul\":1125:1148   */\n      sub\n        /* \"#utility.yul\":1121:1153   */\n      slt\n        /* \"#utility.yul\":1118:1237   */\n      iszero\n      tag_133\n      jumpi\n        /* \"#utility.yul\":1156:1235   */\n      tag_134\n      tag_75\n      jump\t// in\n    tag_134:\n        /* \"#utility.yul\":1118:1237   */\n    tag_133:\n        /* \"#utility.yul\":1276:1277   */\n      0x00\n        /* \"#utility.yul\":1301:1354   */\n      tag_135\n        /* \"#utility.yul\":1346:1353   */\n      dup5\n        /* \"#utility.yul\":1337:1343   */\n      dup3\n        /* \"#utility.yul\":1326:1335   */\n      dup6\n        /* \"#utility.yul\":1322:1344   */\n      add\n        /* \"#utility.yul\":1301:1354   */\n      tag_78\n      jump\t// in\n    tag_135:\n        /* \"#utility.yul\":1291:1354   */\n      swap2\n      pop\n        /* \"#utility.yul\":1247:1364   */\n      pop\n        /* \"#utility.yul\":1042:1371   */\n      swap3\n      swap2\n      pop\n      pop\n      jump\t// out\n        /* \"#utility.yul\":1377:1476   */\n    tag_79:\n        /* \"#utility.yul\":1429:1435   */\n      0x00\n        /* \"#utility.yul\":1463:1468   */\n      dup2\n        /* \"#utility.yul\":1457:1469   */\n      mload\n        /* \"#utility.yul\":1447:1469   */\n      swap1\n      pop\n        /* \"#utility.yul\":1377:1476   */\n      swap2\n      swap1\n      pop\n      jump\t// out\n        /* \"#utility.yul\":1482:1651   */\n    tag_80:\n        /* \"#utility.yul\":1566:1577   */\n      0x00\n        /* \"#utility.yul\":1600:1606   */\n      dup3\n        /* \"#utility.yul\":1595:1598   */\n      dup3\n        /* \"#utility.yul\":1588:1607   */\n      mstore\n        /* \"#utility.yul\":1640:1644   */\n      0x20\n        /* \"#utility.yul\":1635:1638   */\n      dup3\n        /* \"#utility.yul\":1631:1645   */\n      add\n        /* \"#utility.yul\":1616:1645   */\n      swap1\n      pop\n        /* \"#utility.yul\":1482:1651   */\n      swap3\n      swap2\n      pop\n      pop\n      jump\t// out\n        /* \"#utility.yul\":1657:1796   */\n    tag_81:\n        /* \"#utility.yul\":1746:1752   */\n      dup3\n        /* \"#utility.yul\":1741:1744   */\n      dup2\n        /* \"#utility.yul\":1736:1739   */\n      dup4\n        /* \"#utility.yul\":1730:1753   */\n      mcopy\n        /* \"#utility.yul\":1787:1788   */\n      0x00\n        /* \"#utility.yul\":1778:1784   */\n      dup4\n        /* \"#utility.yul\":1773:1776   */\n      dup4\n        /* \"#utility.yul\":1769:1785   */\n      add\n        /* \"#utility.yul\":1762:1789   */\n      mstore\n        /* \"#utility.yul\":1657:1796   */\n      pop\n      pop\n      pop\n      jump\t// out\n        /* \"#utility.yul\":1802:1904   */\n    tag_82:\n        /* \"#utility.yul\":1843:1849   */\n      0x00\n        /* \"#utility.yul\":1894:1896   */\n      0x1f\n        /* \"#utility.yul\":1890:1897   */\n      not\n        /* \"#utility.yul\":1885:1887   */\n      0x1f\n        /* \"#utility.yul\":1878:1883   */\n      dup4\n        /* \"#utility.yul\":1874:1888   */\n      add\n        /* \"#utility.yul\":1870:1898   */\n      and\n        /* \"#utility.yul\":1860:1898   */\n      swap1\n      pop\n        /* \"#utility.yul\":1802:1904   */\n      swap2\n      swap1\n      pop\n      jump\t// out\n        /* \"#utility.yul\":1910:2287   */\n    tag_83:\n        /* \"#utility.yul\":1998:2001   */\n      0x00\n        /* \"#utility.yul\":2026:2065   */\n      tag_141\n        /* \"#utility.yul\":2059:2064   */\n      dup3\n        /* \"#utility.yul\":2026:2065   */\n      tag_79\n      jump\t// in\n    tag_141:\n        /* \"#utility.yul\":2081:2152   */\n      tag_142\n        /* \"#utility.yul\":2145:2151   */\n      dup2\n        /* \"#utility.yul\":2140:2143   */\n      dup6\n        /* \"#utility.yul\":2081:2152   */\n      tag_80\n      jump\t// in\n    tag_142:\n        /* \"#utility.yul\":2074:2152   */\n      swap4\n      pop\n        /* \"#utility.yul\":2161:2226   */\n      tag_143\n        /* \"#utility.yul\":2219:2225   */\n      dup2\n        /* \"#utility.yul\":2214:2217   */\n      dup6\n        /* \"#utility.yul\":2207:2211   */\n      0x20\n        /* \"#utility.yul\":2200:2205   */\n      dup7\n        /* \"#utility.yul\":2196:2212   */\n      add\n        /* \"#utility.yul\":2161:2226   */\n      tag_81\n      jump\t// in\n    tag_143:\n        /* \"#utility.yul\":2251:2280   */\n      tag_144\n        /* \"#utility.yul\":2273:2279   */\n      dup2\n        /* \"#utility.yul\":2251:2280   */\n      tag_82\n      jump\t// in\n    tag_144:\n        /* \"#utility.yul\":2246:2249   */\n      dup5\n        /* \"#utility.yul\":2242:2281   */\n      add\n        /* \"#utility.yul\":2235:2281   */\n      swap2\n      pop\n        /* \"#utility.yul\":2002:2287   */\n      pop\n        /* \"#utility.yul\":1910:2287   */\n      swap3\n      swap2\n      pop\n      pop\n      jump\t// out\n        /* \"#utility.yul\":2293:2383   */\n    tag_84:\n        /* \"#utility.yul\":2327:2334   */\n      0x00\n        /* \"#utility.yul\":2370:2375   */\n      dup2\n        /* \"#utility.yul\":2363:2376   */\n      iszero\n        /* \"#utility.yul\":2356:2377   */\n      iszero\n        /* \"#utility.yul\":2345:2377   */\n      swap1\n      pop\n        /* \"#utility.yul\":2293:2383   */\n      swap2\n      swap1\n      pop\n      jump\t// out\n        /* \"#utility.yul\":2389:2498   */\n    tag_85:\n        /* \"#utility.yul\":2470:2491   */\n      tag_147\n        /* \"#utility.yul\":2485:2490   */\n      dup2\n        /* \"#utility.yul\":2470:2491   */\n      tag_84\n      jump\t// in\n    tag_147:\n        /* \"#utility.yul\":2465:2468   */\n      dup3\n        /* \"#utility.yul\":2458:2492   */\n      mstore\n        /* \"#utility.yul\":2389:2498   */\n      pop\n      pop\n      jump\t// out\n        /* \"#utility.yul\":2504:3124   */\n    tag_20:\n        /* \"#utility.yul\":2689:2693   */\n      0x00\n        /* \"#utility.yul\":2727:2730   */\n      0x80\n        /* \"#utility.yul\":2716:2725   */\n      dup3\n        /* \"#utility.yul\":2712:2731   */\n      add\n        /* \"#utility.yul\":2704:2731   */\n      swap1\n      pop\n        /* \"#utility.yul\":2741:2812   */\n      tag_149\n        /* \"#utility.yul\":2809:2810   */\n      0x00\n        /* \"#utility.yul\":2798:2807   */\n      dup4\n        /* \"#utility.yul\":2794:2811   */\n      add\n        /* \"#utility.yul\":2785:2791   */\n      dup8\n        /* \"#utility.yul\":2741:2812   */\n      tag_73\n      jump\t// in\n    tag_149:\n        /* \"#utility.yul\":2859:2868   */\n      dup2\n        /* \"#utility.yul\":2853:2857   */\n      dup2\n        /* \"#utility.yul\":2849:2869   */\n      sub\n        /* \"#utility.yul\":2844:2846   */\n      0x20\n        /* \"#utility.yul\":2833:2842   */\n      dup4\n        /* \"#utility.yul\":2829:2847   */\n      add\n        /* \"#utility.yul\":2822:2870   */\n      mstore\n        /* \"#utility.yul\":2887:2965   */\n      tag_150\n        /* \"#utility.yul\":2960:2964   */\n      dup2\n        /* \"#utility.yul\":2951:2957   */\n      dup7\n        /* \"#utility.yul\":2887:2965   */\n      tag_83\n      jump\t// in\n    tag_150:\n        /* \"#utility.yul\":2879:2965   */\n      swap1\n      pop\n        /* \"#utility.yul\":2975:3041   */\n      tag_151\n        /* \"#utility.yul\":3037:3039   */\n      0x40\n        /* \"#utility.yul\":3026:3035   */\n      dup4\n        /* \"#utility.yul\":3022:3040   */\n      add\n        /* \"#utility.yul\":3013:3019   */\n      dup6\n        /* \"#utility.yul\":2975:3041   */\n      tag_85\n      jump\t// in\n    tag_151:\n        /* \"#utility.yul\":3051:3117   */\n      tag_152\n        /* \"#utility.yul\":3113:3115   */\n      0x60\n        /* \"#utility.yul\":3102:3111   */\n      dup4\n        /* \"#utility.yul\":3098:3116   */\n      add\n        /* \"#utility.yul\":3089:3095   */\n      dup5\n        /* \"#utility.yul\":3051:3117   */\n      tag_85\n      jump\t// in\n    tag_152:\n        /* \"#utility.yul\":2504:3124   */\n      swap6\n      swap5\n      pop\n      pop\n      pop\n      pop\n      pop\n      jump\t// out\n        /* \"#utility.yul\":3130:3340   */\n    tag_25:\n        /* \"#utility.yul\":3217:3221   */\n      0x00\n        /* \"#utility.yul\":3255:3257   */\n      0x20\n        /* \"#utility.yul\":3244:3253   */\n      dup3\n        /* \"#utility.yul\":3240:3258   */\n      add\n        /* \"#utility.yul\":3232:3258   */\n      swap1\n      pop\n        /* \"#utility.yul\":3268:3333   */\n      tag_154\n        /* \"#utility.yul\":3330:3331   */\n      0x00\n        /* \"#utility.yul\":3319:3328   */\n      dup4\n        /* \"#utility.yul\":3315:3332   */\n      add\n        /* \"#utility.yul\":3306:3312   */\n      dup5\n        /* \"#utility.yul\":3268:3333   */\n      tag_85\n      jump\t// in\n    tag_154:\n        /* \"#utility.yul\":3130:3340   */\n      swap3\n      swap2\n      pop\n      pop\n      jump\t// out\n        /* \"#utility.yul\":3346:3463   */\n    tag_86:\n        /* \"#utility.yul\":3455:3456   */\n      0x00\n        /* \"#utility.yul\":3452:3453   */\n      0x00\n        /* \"#utility.yul\":3445:3457   */\n      revert\n        /* \"#utility.yul\":3469:3586   */\n    tag_87:\n        /* \"#utility.yul\":3578:3579   */\n      0x00\n        /* \"#utility.yul\":3575:3576   */\n      0x00\n        /* \"#utility.yul\":3568:3580   */\n      revert\n        /* \"#utility.yul\":3592:3772   */\n    tag_88:\n        /* \"#utility.yul\":3640:3717   */\n      0x4e487b7100000000000000000000000000000000000000000000000000000000\n        /* \"#utility.yul\":3637:3638   */\n      0x00\n        /* \"#utility.yul\":3630:3718   */\n      mstore\n        /* \"#utility.yul\":3737:3741   */\n      0x41\n        /* \"#utility.yul\":3734:3735   */\n      0x04\n        /* \"#utility.yul\":3727:3742   */\n      mstore\n        /* \"#utility.yul\":3761:3765   */\n      0x24\n        /* \"#utility.yul\":3758:3759   */\n      0x00\n        /* \"#utility.yul\":3751:3766   */\n      revert\n        /* \"#utility.yul\":3778:4059   */\n    tag_89:\n        /* \"#utility.yul\":3861:3888   */\n      tag_159\n        /* \"#utility.yul\":3883:3887   */\n      dup3\n        /* \"#utility.yul\":3861:3888   */\n      tag_82\n      jump\t// in\n    tag_159:\n        /* \"#utility.yul\":3853:3859   */\n      dup2\n        /* \"#utility.yul\":3849:3889   */\n      add\n        /* \"#utility.yul\":3991:3997   */\n      dup2\n        /* \"#utility.yul\":3979:3989   */\n      dup2\n        /* \"#utility.yul\":3976:3998   */\n      lt\n        /* \"#utility.yul\":3955:3973   */\n      0xffffffffffffffff\n        /* \"#utility.yul\":3943:3953   */\n      dup3\n        /* \"#utility.yul\":3940:3974   */\n      gt\n        /* \"#utility.yul\":3937:3999   */\n      or\n        /* \"#utility.yul\":3934:4022   */\n      iszero\n      tag_160\n      jumpi\n        /* \"#utility.yul\":4002:4020   */\n      tag_161\n      tag_88\n      jump\t// in\n    tag_161:\n        /* \"#utility.yul\":3934:4022   */\n    tag_160:\n        /* \"#utility.yul\":4042:4052   */\n      dup1\n        /* \"#utility.yul\":4038:4040   */\n      0x40\n        /* \"#utility.yul\":4031:4053   */\n      mstore\n        /* \"#utility.yul\":3821:4059   */\n      pop\n        /* \"#utility.yul\":3778:4059   */\n      pop\n      pop\n      jump\t// out\n        /* \"#utility.yul\":4065:4194   */\n    tag_90:\n        /* \"#utility.yul\":4099:4105   */\n      0x00\n        /* \"#utility.yul\":4126:4146   */\n      tag_163\n      tag_74\n      jump\t// in\n    tag_163:\n        /* \"#utility.yul\":4116:4146   */\n      swap1\n      pop\n        /* \"#utility.yul\":4155:4188   */\n      tag_164\n        /* \"#utility.yul\":4183:4187   */\n      dup3\n        /* \"#utility.yul\":4175:4181   */\n      dup3\n        /* \"#utility.yul\":4155:4188   */\n      tag_89\n      jump\t// in\n    tag_164:\n        /* \"#utility.yul\":4065:4194   */\n      swap2\n      swap1\n      pop\n      jump\t// out\n        /* \"#utility.yul\":4200:4508   */\n    tag_91:\n        /* \"#utility.yul\":4262:4266   */\n      0x00\n        /* \"#utility.yul\":4352:4370   */\n      0xffffffffffffffff\n        /* \"#utility.yul\":4344:4350   */\n      dup3\n        /* \"#utility.yul\":4341:4371   */\n      gt\n        /* \"#utility.yul\":4338:4394   */\n      iszero\n      tag_166\n      jumpi\n        /* \"#utility.yul\":4374:4392   */\n      tag_167\n      tag_88\n      jump\t// in\n    tag_167:\n        /* \"#utility.yul\":4338:4394   */\n    tag_166:\n        /* \"#utility.yul\":4412:4441   */\n      tag_168\n        /* \"#utility.yul\":4434:4440   */\n      dup3\n        /* \"#utility.yul\":4412:4441   */\n      tag_82\n      jump\t// in\n    tag_168:\n        /* \"#utility.yul\":4404:4441   */\n      swap1\n      pop\n        /* \"#utility.yul\":4496:4500   */\n      0x20\n        /* \"#utility.yul\":4490:4494   */\n      dup2\n        /* \"#utility.yul\":4486:4501   */\n      add\n        /* \"#utility.yul\":4478:4501   */\n      swap1\n      pop\n        /* \"#utility.yul\":4200:4508   */\n      swap2\n      swap1\n      pop\n      jump\t// out\n        /* \"#utility.yul\":4514:4662   */\n    tag_92:\n        /* \"#utility.yul\":4612:4618   */\n      dup3\n        /* \"#utility.yul\":4607:4610   */\n      dup2\n        /* \"#utility.yul\":4602:4605   */\n      dup4\n        /* \"#utility.yul\":4589:4619   */\n      calldatacopy\n        /* \"#utility.yul\":4653:4654   */\n      0x00\n        /* \"#utility.yul\":4644:4650   */\n      dup4\n        /* \"#utility.yul\":4639:4642   */\n      dup4\n        /* \"#utility.yul\":4635:4651   */\n      add\n        /* \"#utility.yul\":4628:4655   */\n      mstore\n        /* \"#utility.yul\":4514:4662   */\n      pop\n      pop\n      pop\n      jump\t// out\n        /* \"#utility.yul\":4668:5093   */\n    tag_93:\n        /* \"#utility.yul\":4746:4751   */\n      0x00\n        /* \"#utility.yul\":4771:4837   */\n      tag_171\n        /* \"#utility.yul\":4787:4836   */\n      tag_172\n        /* \"#utility.yul\":4829:4835   */\n      dup5\n        /* \"#utility.yul\":4787:4836   */\n      tag_91\n      jump\t// in\n    tag_172:\n        /* \"#utility.yul\":4771:4837   */\n      tag_90\n      jump\t// in\n    tag_171:\n        /* \"#utility.yul\":4762:4837   */\n      swap1\n      pop\n        /* \"#utility.yul\":4860:4866   */\n      dup3\n        /* \"#utility.yul\":4853:4858   */\n      dup2\n        /* \"#utility.yul\":4846:4867   */\n      mstore\n        /* \"#utility.yul\":4898:4902   */\n      0x20\n        /* \"#utility.yul\":4891:4896   */\n      dup2\n        /* \"#utility.yul\":4887:4903   */\n      add\n        /* \"#utility.yul\":4936:4939   */\n      dup5\n        /* \"#utility.yul\":4927:4933   */\n      dup5\n        /* \"#utility.yul\":4922:4925   */\n      dup5\n        /* \"#utility.yul\":4918:4934   */\n      add\n        /* \"#utility.yul\":4915:4940   */\n      gt\n        /* \"#utility.yul\":4912:5024   */\n      iszero\n      tag_173\n      jumpi\n        /* \"#utility.yul\":4943:5022   */\n      tag_174\n      tag_87\n      jump\t// in\n    tag_174:\n        /* \"#utility.yul\":4912:5024   */\n    tag_173:\n        /* \"#utility.yul\":5033:5087   */\n      tag_175\n        /* \"#utility.yul\":5080:5086   */\n      dup5\n        /* \"#utility.yul\":5075:5078   */\n      dup3\n        /* \"#utility.yul\":5070:5073   */\n      dup6\n        /* \"#utility.yul\":5033:5087   */\n      tag_92\n      jump\t// in\n    tag_175:\n        /* \"#utility.yul\":4752:5093   */\n      pop\n        /* \"#utility.yul\":4668:5093   */\n      swap4\n      swap3\n      pop\n      pop\n      pop\n      jump\t// out\n        /* \"#utility.yul\":5113:5453   */\n    tag_94:\n        /* \"#utility.yul\":5169:5174   */\n      0x00\n        /* \"#utility.yul\":5218:5221   */\n      dup3\n        /* \"#utility.yul\":5211:5215   */\n      0x1f\n        /* \"#utility.yul\":5203:5209   */\n      dup4\n        /* \"#utility.yul\":5199:5216   */\n      add\n        /* \"#utility.yul\":5195:5222   */\n      slt\n        /* \"#utility.yul\":5185:5307   */\n      tag_177\n      jumpi\n        /* \"#utility.yul\":5226:5305   */\n      tag_178\n      tag_86\n      jump\t// in\n    tag_178:\n        /* \"#utility.yul\":5185:5307   */\n    tag_177:\n        /* \"#utility.yul\":5343:5349   */\n      dup2\n        /* \"#utility.yul\":5330:5350   */\n      calldataload\n        /* \"#utility.yul\":5368:5447   */\n      tag_179\n        /* \"#utility.yul\":5443:5446   */\n      dup5\n        /* \"#utility.yul\":5435:5441   */\n      dup3\n        /* \"#utility.yul\":5428:5432   */\n      0x20\n        /* \"#utility.yul\":5420:5426   */\n      dup7\n        /* \"#utility.yul\":5416:5433   */\n      add\n        /* \"#utility.yul\":5368:5447   */\n      tag_93\n      jump\t// in\n    tag_179:\n        /* \"#utility.yul\":5359:5447   */\n      swap2\n      pop\n        /* \"#utility.yul\":5175:5453   */\n      pop\n        /* \"#utility.yul\":5113:5453   */\n      swap3\n      swap2\n      pop\n      pop\n      jump\t// out\n        /* \"#utility.yul\":5459:5968   */\n    tag_32:\n        /* \"#utility.yul\":5528:5534   */\n      0x00\n        /* \"#utility.yul\":5577:5579   */\n      0x20\n        /* \"#utility.yul\":5565:5574   */\n      dup3\n        /* \"#utility.yul\":5556:5563   */\n      dup5\n        /* \"#utility.yul\":5552:5575   */\n      sub\n        /* \"#utility.yul\":5548:5580   */\n      slt\n        /* \"#utility.yul\":5545:5664   */\n      iszero\n      tag_181\n      jumpi\n        /* \"#utility.yul\":5583:5662   */\n      tag_182\n      tag_75\n      jump\t// in\n    tag_182:\n        /* \"#utility.yul\":5545:5664   */\n    tag_181:\n        /* \"#utility.yul\":5731:5732   */\n      0x00\n        /* \"#utility.yul\":5720:5729   */\n      dup3\n        /* \"#utility.yul\":5716:5733   */\n      add\n        /* \"#utility.yul\":5703:5734   */\n      calldataload\n        /* \"#utility.yul\":5761:5779   */\n      0xffffffffffffffff\n        /* \"#utility.yul\":5753:5759   */\n      dup2\n        /* \"#utility.yul\":5750:5780   */\n      gt\n        /* \"#utility.yul\":5747:5864   */\n      iszero\n      tag_183\n      jumpi\n        /* \"#utility.yul\":5783:5862   */\n      tag_184\n      tag_76\n      jump\t// in\n    tag_184:\n        /* \"#utility.yul\":5747:5864   */\n    tag_183:\n        /* \"#utility.yul\":5888:5951   */\n      tag_185\n        /* \"#utility.yul\":5943:5950   */\n      dup5\n        /* \"#utility.yul\":5934:5940   */\n      dup3\n        /* \"#utility.yul\":5923:5932   */\n      dup6\n        /* \"#utility.yul\":5919:5941   */\n      add\n        /* \"#utility.yul\":5888:5951   */\n      tag_94\n      jump\t// in\n    tag_185:\n        /* \"#utility.yul\":5878:5951   */\n      swap2\n      pop\n        /* \"#utility.yul\":5674:5961   */\n      pop\n        /* \"#utility.yul\":5459:5968   */\n      swap3\n      swap2\n      pop\n      pop\n      jump\t// out\n        /* \"#utility.yul\":5974:6090   */\n    tag_95:\n        /* \"#utility.yul\":6044:6065   */\n      tag_187\n        /* \"#utility.yul\":6059:6064   */\n      dup2\n        /* \"#utility.yul\":6044:6065   */\n      tag_84\n      jump\t// in\n    tag_187:\n        /* \"#utility.yul\":6037:6042   */\n      dup2\n        /* \"#utility.yul\":6034:6066   */\n      eq\n        /* \"#utility.yul\":6024:6084   */\n      tag_188\n      jumpi\n        /* \"#utility.yul\":6080:6081   */\n      0x00\n        /* \"#utility.yul\":6077:6078   */\n      0x00\n        /* \"#utility.yul\":6070:6082   */\n      revert\n        /* \"#utility.yul\":6024:6084   */\n    tag_188:\n        /* \"#utility.yul\":5974:6090   */\n      pop\n      jump\t// out\n        /* \"#utility.yul\":6096:6229   */\n    tag_96:\n        /* \"#utility.yul\":6139:6144   */\n      0x00\n        /* \"#utility.yul\":6177:6183   */\n      dup2\n        /* \"#utility.yul\":6164:6184   */\n      calldataload\n        /* \"#utility.yul\":6155:6184   */\n      swap1\n      pop\n        /* \"#utility.yul\":6193:6223   */\n      tag_190\n        /* \"#utility.yul\":6217:6222   */\n      dup2\n        /* \"#utility.yul\":6193:6223   */\n      tag_95\n      jump\t// in\n    tag_190:\n        /* \"#utility.yul\":6096:6229   */\n      swap3\n      swap2\n      pop\n      pop\n      jump\t// out\n        /* \"#utility.yul\":6235:6703   */\n    tag_41:\n        /* \"#utility.yul\":6300:6306   */\n      0x00\n        /* \"#utility.yul\":6308:6314   */\n      0x00\n        /* \"#utility.yul\":6357:6359   */\n      0x40\n        /* \"#utility.yul\":6345:6354   */\n      dup4\n        /* \"#utility.yul\":6336:6343   */\n      dup6\n        /* \"#utility.yul\":6332:6355   */\n      sub\n        /* \"#utility.yul\":6328:6360   */\n      slt\n        /* \"#utility.yul\":6325:6444   */\n      iszero\n      tag_192\n      jumpi\n        /* \"#utility.yul\":6363:6442   */\n      tag_193\n      tag_75\n      jump\t// in\n    tag_193:\n        /* \"#utility.yul\":6325:6444   */\n    tag_192:\n        /* \"#utility.yul\":6483:6484   */\n      0x00\n        /* \"#utility.yul\":6508:6561   */\n      tag_194\n        /* \"#utility.yul\":6553:6560   */\n      dup6\n        /* \"#utility.yul\":6544:6550   */\n      dup3\n        /* \"#utility.yul\":6533:6542   */\n      dup7\n        /* \"#utility.yul\":6529:6551   */\n      add\n        /* \"#utility.yul\":6508:6561   */\n      tag_78\n      jump\t// in\n    tag_194:\n        /* \"#utility.yul\":6498:6561   */\n      swap3\n      pop\n        /* \"#utility.yul\":6454:6571   */\n      pop\n        /* \"#utility.yul\":6610:6612   */\n      0x20\n        /* \"#utility.yul\":6636:6686   */\n      tag_195\n        /* \"#utility.yul\":6678:6685   */\n      dup6\n        /* \"#utility.yul\":6669:6675   */\n      dup3\n        /* \"#utility.yul\":6658:6667   */\n      dup7\n        /* \"#utility.yul\":6654:6676   */\n      add\n        /* \"#utility.yul\":6636:6686   */\n      tag_96\n      jump\t// in\n    tag_195:\n        /* \"#utility.yul\":6626:6686   */\n      swap2\n      pop\n        /* \"#utility.yul\":6581:6696   */\n      pop\n        /* \"#utility.yul\":6235:6703   */\n      swap3\n      pop\n      swap3\n      swap1\n      pop\n      jump\t// out\n        /* \"#utility.yul\":6709:6889   */\n    tag_97:\n        /* \"#utility.yul\":6757:6834   */\n      0x4e487b7100000000000000000000000000000000000000000000000000000000\n        /* \"#utility.yul\":6754:6755   */\n      0x00\n        /* \"#utility.yul\":6747:6835   */\n      mstore\n        /* \"#utility.yul\":6854:6858   */\n      0x22\n        /* \"#utility.yul\":6851:6852   */\n      0x04\n        /* \"#utility.yul\":6844:6859   */\n      mstore\n        /* \"#utility.yul\":6878:6882   */\n      0x24\n        /* \"#utility.yul\":6875:6876   */\n      0x00\n        /* \"#utility.yul\":6868:6883   */\n      revert\n        /* \"#utility.yul\":6895:7215   */\n    tag_44:\n        /* \"#utility.yul\":6939:6945   */\n      0x00\n        /* \"#utility.yul\":6976:6977   */\n      0x02\n        /* \"#utility.yul\":6970:6974   */\n      dup3\n        /* \"#utility.yul\":6966:6978   */\n      div\n        /* \"#utility.yul\":6956:6978   */\n      swap1\n      pop\n        /* \"#utility.yul\":7023:7024   */\n      0x01\n        /* \"#utility.yul\":7017:7021   */\n      dup3\n        /* \"#utility.yul\":7013:7025   */\n      and\n        /* \"#utility.yul\":7044:7062   */\n      dup1\n        /* \"#utility.yul\":7034:7115   */\n      tag_198\n      jumpi\n        /* \"#utility.yul\":7100:7104   */\n      0x7f\n        /* \"#utility.yul\":7092:7098   */\n      dup3\n        /* \"#utility.yul\":7088:7105   */\n      and\n        /* \"#utility.yul\":7078:7105   */\n      swap2\n      pop\n        /* \"#utility.yul\":7034:7115   */\n    tag_198:\n        /* \"#utility.yul\":7162:7164   */\n      0x20\n        /* \"#utility.yul\":7154:7160   */\n      dup3\n        /* \"#utility.yul\":7151:7165   */\n      lt\n        /* \"#utility.yul\":7131:7149   */\n      dup2\n        /* \"#utility.yul\":7128:7166   */\n      sub\n        /* \"#utility.yul\":7125:7209   */\n      tag_199\n      jumpi\n        /* \"#utility.yul\":7181:7199   */\n      tag_200\n      tag_97\n      jump\t// in\n    tag_200:\n        /* \"#utility.yul\":7125:7209   */\n    tag_199:\n        /* \"#utility.yul\":6946:7215   */\n      pop\n        /* \"#utility.yul\":6895:7215   */\n      swap2\n      swap1\n      pop\n      jump\t// out\n        /* \"#utility.yul\":7221:7389   */\n    tag_98:\n        /* \"#utility.yul\":7361:7381   */\n      0x55736572206e616d652072657175697265640000000000000000000000000000\n        /* \"#utility.yul\":7357:7358   */\n      0x00\n        /* \"#utility.yul\":7349:7355   */\n      dup3\n        /* \"#utility.yul\":7345:7359   */\n      add\n        /* \"#utility.yul\":7338:7382   */\n      mstore\n        /* \"#utility.yul\":7221:7389   */\n      pop\n      jump\t// out\n        /* \"#utility.yul\":7395:7761   */\n    tag_99:\n        /* \"#utility.yul\":7537:7540   */\n      0x00\n        /* \"#utility.yul\":7558:7625   */\n      tag_203\n        /* \"#utility.yul\":7622:7624   */\n      0x12\n        /* \"#utility.yul\":7617:7620   */\n      dup4\n        /* \"#utility.yul\":7558:7625   */\n      tag_80\n      jump\t// in\n    tag_203:\n        /* \"#utility.yul\":7551:7625   */\n      swap2\n      pop\n        /* \"#utility.yul\":7634:7727   */\n      tag_204\n        /* \"#utility.yul\":7723:7726   */\n      dup3\n        /* \"#utility.yul\":7634:7727   */\n      tag_98\n      jump\t// in\n    tag_204:\n        /* \"#utility.yul\":7752:7754   */\n      0x20\n        /* \"#utility.yul\":7747:7750   */\n      dup3\n        /* \"#utility.yul\":7743:7755   */\n      add\n        /* \"#utility.yul\":7736:7755   */\n      swap1\n      pop\n        /* \"#utility.yul\":7395:7761   */\n      swap2\n      swap1\n      pop\n      jump\t// out\n        /* \"#utility.yul\":7767:8186   */\n    tag_54:\n        /* \"#utility.yul\":7933:7937   */\n      0x00\n        /* \"#utility.yul\":7971:7973   */\n      0x20\n        /* \"#utility.yul\":7960:7969   */\n      dup3\n        /* \"#utility.yul\":7956:7974   */\n      add\n        /* \"#utility.yul\":7948:7974   */\n      swap1\n      pop\n        /* \"#utility.yul\":8020:8029   */\n      dup2\n        /* \"#utility.yul\":8014:8018   */\n      dup2\n        /* \"#utility.yul\":8010:8030   */\n      sub\n        /* \"#utility.yul\":8006:8007   */\n      0x00\n        /* \"#utility.yul\":7995:8004   */\n      dup4\n        /* \"#utility.yul\":7991:8008   */\n      add\n        /* \"#utility.yul\":7984:8031   */\n      mstore\n        /* \"#utility.yul\":8048:8179   */\n      tag_206\n        /* \"#utility.yul\":8174:8178   */\n      dup2\n        /* \"#utility.yul\":8048:8179   */\n      tag_99\n      jump\t// in\n    tag_206:\n        /* \"#utility.yul\":8040:8179   */\n      swap1\n      pop\n        /* \"#utility.yul\":7767:8186   */\n      swap2\n      swap1\n      pop\n      jump\t// out\n        /* \"#utility.yul\":8192:8372   */\n    tag_100:\n        /* \"#utility.yul\":8240:8317   */\n      0x4e487b7100000000000000000000000000000000000000000000000000000000\n        /* \"#utility.yul\":8237:8238   */\n      0x00\n        /* \"#utility.yul\":8230:8318   */\n      mstore\n        /* \"#utility.yul\":8337:8341   */\n      0x11\n        /* \"#utility.yul\":8334:8335   */\n      0x04\n        /* \"#utility.yul\":8327:8342   */\n      mstore\n        /* \"#utility.yul\":8361:8365   */\n      0x24\n        /* \"#utility.yul\":8358:8359   */\n      0x00\n        /* \"#utility.yul\":8351:8366   */\n      revert\n        /* \"#utility.yul\":8378:8611   */\n    tag_56:\n        /* \"#utility.yul\":8417:8420   */\n      0x00\n        /* \"#utility.yul\":8440:8464   */\n      tag_209\n        /* \"#utility.yul\":8458:8463   */\n      dup3\n        /* \"#utility.yul\":8440:8464   */\n      tag_72\n      jump\t// in\n    tag_209:\n        /* \"#utility.yul\":8431:8464   */\n      swap2\n      pop\n        /* \"#utility.yul\":8486:8552   */\n      0xffffffffffffffffffffffffffffffffffffffffffffffffffffffffffffffff\n        /* \"#utility.yul\":8479:8484   */\n      dup3\n        /* \"#utility.yul\":8476:8553   */\n      sub\n        /* \"#utility.yul\":8473:8576   */\n      tag_210\n      jumpi\n        /* \"#utility.yul\":8556:8574   */\n      tag_211\n      tag_100\n      jump\t// in\n    tag_211:\n        /* \"#utility.yul\":8473:8576   */\n    tag_210:\n        /* \"#utility.yul\":8603:8604   */\n      0x01\n        /* \"#utility.yul\":8596:8601   */\n      dup3\n        /* \"#utility.yul\":8592:8605   */\n      add\n        /* \"#utility.yul\":8585:8605   */\n      swap1\n      pop\n        /* \"#utility.yul\":8378:8611   */\n      swap2\n      swap1\n      pop\n      jump\t// out\n        /* \"#utility.yul\":8617:8758   */\n    tag_101:\n        /* \"#utility.yul\":8666:8670   */\n      0x00\n        /* \"#utility.yul\":8689:8692   */\n      dup2\n        /* \"#utility.yul\":8681:8692   */\n      swap1\n      pop\n        /* \"#utility.yul\":8712:8715   */\n      dup2\n        /* \"#utility.yul\":8709:8710   */\n      0x00\n        /* \"#utility.yul\":8702:8716   */\n      mstore\n        /* \"#utility.yul\":8746:8750   */\n      0x20\n        /* \"#utility.yul\":8743:8744   */\n      0x00\n        /* \"#utility.yul\":8733:8751   */\n      keccak256\n        /* \"#utility.yul\":8725:8751   */\n      swap1\n      pop\n        /* \"#utility.yul\":8617:8758   */\n      swap2\n      swap1\n      pop\n      jump\t// out\n        /* \"#utility.yul\":8764:8857   */\n    tag_102:\n        /* \"#utility.yul\":8801:8807   */\n      0x00\n        /* \"#utility.yul\":8848:8850   */\n      0x20\n        /* \"#utility.yul\":8843:8845   */\n      0x1f\n        /* \"#utility.yul\":8836:8841   */\n      dup4\n        /* \"#utility.yul\":8832:8846   */\n      add\n        /* \"#utility.yul\":8828:8851   */\n      div\n        /* \"#utility.yul\":8818:8851   */\n      swap1\n      pop\n        /* \"#utility.yul\":8764:8857   */\n      swap2\n      swap1\n      pop\n      jump\t// out\n        /* \"#utility.yul\":8863:8970   */\n    tag_103:\n        /* \"#utility.yul\":8907:8915   */\n      0x00\n        /* \"#utility.yul\":8957:8962   */\n      dup3\n        /* \"#utility.yul\":8951:8955   */\n      dup3\n        /* \"#utility.yul\":8947:8963   */\n      shl\n        /* \"#utility.yul\":8926:8963   */\n      swap1\n      pop\n        /* \"#utility.yul\":8863:8970   */\n      swap3\n      swap2\n      pop\n      pop\n      jump\t// out\n        /* \"#utility.yul\":8976:9369   */\n    tag_104:\n        /* \"#utility.yul\":9045:9051   */\n      0x00\n        /* \"#utility.yul\":9095:9096   */\n      0x08\n        /* \"#utility.yul\":9083:9093   */\n      dup4\n        /* \"#utility.yul\":9079:9097   */\n      mul\n        /* \"#utility.yul\":9118:9215   */\n      tag_216\n        /* \"#utility.yul\":9148:9214   */\n      0xffffffffffffffffffffffffffffffffffffffffffffffffffffffffffffffff\n        /* \"#utility.yul\":9137:9146   */\n      dup3\n        /* \"#utility.yul\":9118:9215   */\n      tag_103\n      jump\t// in\n    tag_216:\n        /* \"#utility.yul\":9236:9275   */\n      tag_217\n        /* \"#utility.yul\":9266:9274   */\n      dup7\n        /* \"#utility.yul\":9255:9264   */\n      dup4\n        /* \"#utility.yul\":9236:9275   */\n      tag_103\n      jump\t// in\n    tag_217:\n        /* \"#utility.yul\":9224:9275   */\n      swap6\n      pop\n        /* \"#utility.yul\":9308:9312   */\n      dup1\n        /* \"#utility.yul\":9304:9313   */\n      not\n        /* \"#utility.yul\":9297:9302   */\n      dup5\n        /* \"#utility.yul\":9293:9314   */\n      and\n        /* \"#utility.yul\":9284:9314   */\n      swap4\n      pop\n        /* \"#utility.yul\":9357:9361   */\n      dup1\n        /* \"#utility.yul\":9347:9355   */\n      dup7\n        /* \"#utility.yul\":9343:9362   */\n      and\n        /* \"#utility.yul\":9336:9341   */\n      dup5\n        /* \"#utility.yul\":9333:9363   */\n      or\n        /* \"#utility.yul\":9323:9363   */\n      swap3\n      pop\n        /* \"#utility.yul\":9052:9369   */\n      pop\n      pop\n        /* \"#utility.yul\":8976:9369   */\n      swap4\n      swap3\n      pop\n      pop\n      pop\n      jump\t// out\n        /* \"#utility.yul\":9375:9435   */\n    tag_105:\n        /* \"#utility.yul\":9403:9406   */\n      0x00\n        /* \"#utility.yul\":9424:9429   */\n      dup2\n        /* \"#utility.yul\":9417:9429   */\n      swap1\n      pop\n        /* \"#utility.yul\":9375:9435   */\n      swap2\n      swap1\n      pop\n      jump\t// out\n        /* \"#utility.yul\":9441:9583   */\n    tag_106:\n        /* \"#utility.yul\":9491:9500   */\n      0x00\n        /* \"#utility.yul\":9524:9577   */\n      tag_220\n        /* \"#utility.yul\":9542:9576   */\n      tag_221\n        /* \"#utility.yul\":9551:9575   */\n      tag_222\n        /* \"#utility.yul\":9569:9574   */\n      dup5\n        /* \"#utility.yul\":9551:9575   */\n      tag_72\n      jump\t// in\n    tag_222:\n        /* \"#utility.yul\":9542:9576   */\n      tag_105\n      jump\t// in\n    tag_221:\n        /* \"#utility.yul\":9524:9577   */\n      tag_72\n      jump\t// in\n    tag_220:\n        /* \"#utility.yul\":9511:9577   */\n      swap1\n      pop\n        /* \"#utility.yul\":9441:9583   */\n      swap2\n      swap1\n      pop\n      jump\t// out\n        /* \"#utility.yul\":9589:9664   */\n    tag_107:\n        /* \"#utility.yul\":9632:9635   */\n      0x00\n        /* \"#utility.yul\":9653:9658   */\n      dup2\n        /* \"#utility.yul\":9646:9658   */\n      swap1\n      pop\n        /* \"#utility.yul\":9589:9664   */\n      swap2\n      swap1\n      pop\n      jump\t// out\n        /* \"#utility.yul\":9670:9939   */\n    tag_108:\n        /* \"#utility.yul\":9780:9819   */\n      tag_225\n        /* \"#utility.yul\":9811:9818   */\n      dup4\n        /* \"#utility.yul\":9780:9819   */\n      tag_106\n      jump\t// in\n    tag_225:\n        /* \"#utility.yul\":9841:9932   */\n      tag_226\n        /* \"#utility.yul\":9890:9931   */\n      tag_227\n        /* \"#utility.yul\":9914:9930   */\n      dup3\n        /* \"#utility.yul\":9890:9931   */\n      tag_107\n      jump\t// in\n    tag_227:\n        /* \"#utility.yul\":9882:9888   */\n      dup5\n        /* \"#utility.yul\":9875:9879   */\n      dup5\n        /* \"#utility.yul\":9869:9880   */\n      sload\n        /* \"#utility.yul\":9841:9932   */\n      tag_104\n      jump\t// in\n    tag_226:\n        /* \"#utility.yul\":9835:9839   */\n      dup3\n        /* \"#utility.yul\":9828:9933   */\n      sstore\n        /* \"#utility.yul\":9746:9939   */\n      pop\n        /* \"#utility.yul\":9670:9939   */\n      pop\n      pop\n      pop\n      jump\t// out\n        /* \"#utility.yul\":9945:10018   */\n    tag_109:\n        /* \"#utility.yul\":9990:9993   */\n      0x00\n        /* \"#utility.yul\":10011:10012   */\n      0x00\n        /* \"#utility.yul\":10004:10012   */\n      swap1\n      pop\n        /* \"#utility.yul\":9945:10018   */\n      swap1\n      jump\t// out\n        /* \"#utility.yul\":10024:10213   */\n    tag_110:\n        /* \"#utility.yul\":10101:10133   */\n      tag_230\n      tag_109\n      jump\t// in\n    tag_230:\n        /* \"#utility.yul\":10142:10207   */\n      tag_231\n        /* \"#utility.yul\":10200:10206   */\n      dup2\n        /* \"#utility.yul\":10192:10198   */\n      dup5\n        /* \"#utility.yul\":10186:10190   */\n      dup5\n        /* \"#utility.yul\":10142:10207   */\n      tag_108\n      jump\t// in\n    tag_231:\n        /* \"#utility.yul\":10077:10213   */\n      pop\n        /* \"#utility.yul\":10024:10213   */\n      pop\n      pop\n      jump\t// out\n        /* \"#utility.yul\":10219:10405   */\n    tag_111:\n        /* \"#utility.yul\":10279:10399   */\n    tag_233:\n        /* \"#utility.yul\":10296:10299   */\n      dup2\n        /* \"#utility.yul\":10289:10294   */\n      dup2\n        /* \"#utility.yul\":10286:10300   */\n      lt\n        /* \"#utility.yul\":10279:10399   */\n      iszero\n      tag_235\n      jumpi\n        /* \"#utility.yul\":10350:10389   */\n      tag_236\n        /* \"#utility.yul\":10387:10388   */\n      0x00\n        /* \"#utility.yul\":10380:10385   */\n      dup3\n        /* \"#utility.yul\":10350:10389   */\n      tag_110\n      jump\t// in\n    tag_236:\n        /* \"#utility.yul\":10323:10324   */\n      0x01\n        /* \"#utility.yul\":10316:10321   */\n      dup2\n        /* \"#utility.yul\":10312:10325   */\n      add\n        /* \"#utility.yul\":10303:10325   */\n      swap1\n      pop\n        /* \"#utility.yul\":10279:10399   */\n      jump(tag_233)\n    tag_235:\n        /* \"#utility.yul\":10219:10405   */\n      pop\n      pop\n      jump\t// out\n        /* \"#utility.yul\":10411:10954   */\n    tag_112:\n        /* \"#utility.yul\":10512:10514   */\n      0x1f\n        /* \"#utility.yul\":10507:10510   */\n      dup3\n        /* \"#utility.yul\":10504:10515   */\n      gt\n        /* \"#utility.yul\":10501:10947   */\n      iszero\n      tag_238\n      jumpi\n        /* \"#utility.yul\":10546:10584   */\n      tag_239\n        /* \"#utility.yul\":10578:10583   */\n      dup2\n        /* \"#utility.yul\":10546:10584   */\n      tag_101\n      jump\t// in\n    tag_239:\n        /* \"#utility.yul\":10630:10659   */\n      tag_240\n        /* \"#utility.yul\":10648:10658   */\n      dup5\n        /* \"#utility.yul\":10630:10659   */\n      tag_102\n      jump\t// in\n    tag_240:\n        /* \"#utility.yul\":10620:10628   */\n      dup2\n        /* \"#utility.yul\":10616:10660   */\n      add\n        /* \"#utility.yul\":10813:10815   */\n      0x20\n        /* \"#utility.yul\":10801:10811   */\n      dup6\n        /* \"#utility.yul\":10798:10816   */\n      lt\n        /* \"#utility.yul\":10795:10844   */\n      iszero\n      tag_241\n      jumpi\n        /* \"#utility.yul\":10834:10842   */\n      dup2\n        /* \"#utility.yul\":10819:10842   */\n      swap1\n      pop\n        /* \"#utility.yul\":10795:10844   */\n    tag_241:\n        /* \"#utility.yul\":10857:10937   */\n      tag_242\n        /* \"#utility.yul\":10913:10935   */\n      tag_243\n        /* \"#utility.yul\":10931:10934   */\n      dup6\n        /* \"#utility.yul\":10913:10935   */\n      tag_102\n      jump\t// in\n    tag_243:\n        /* \"#utility.yul\":10903:10911   */\n      dup4\n        /* \"#utility.yul\":10899:10936   */\n      add\n        /* \"#utility.yul\":10886:10897   */\n      dup3\n        /* \"#utility.yul\":10857:10937   */\n      tag_111\n      jump\t// in\n    tag_242:\n        /* \"#utility.yul\":10516:10947   */\n      pop\n      pop\n        /* \"#utility.yul\":10501:10947   */\n    tag_238:\n        /* \"#utility.yul\":10411:10954   */\n      pop\n      pop\n      pop\n      jump\t// out\n        /* \"#utility.yul\":10960:11077   */\n    tag_113:\n        /* \"#utility.yul\":11014:11022   */\n      0x00\n        /* \"#utility.yul\":11064:11069   */\n      dup3\n        /* \"#utility.yul\":11058:11062   */\n      dup3\n        /* \"#utility.yul\":11054:11070   */\n      shr\n        /* \"#utility.yul\":11033:11070   */\n      swap1\n      pop\n        /* \"#utility.yul\":10960:11077   */\n      swap3\n      swap2\n      pop\n      pop\n      jump\t// out\n        /* \"#utility.yul\":11083:11252   */\n    tag_114:\n        /* \"#utility.yul\":11127:11133   */\n      0x00\n        /* \"#utility.yul\":11160:11211   */\n      tag_246\n        /* \"#utility.yul\":11208:11209   */\n      0x00\n        /* \"#utility.yul\":11204:11210   */\n      not\n        /* \"#utility.yul\":11196:11201   */\n      dup5\n        /* \"#utility.yul\":11193:11194   */\n      0x08\n        /* \"#utility.yul\":11189:11202   */\n      mul\n        /* \"#utility.yul\":11160:11211   */\n      tag_113\n      jump\t// in\n    tag_246:\n        /* \"#utility.yul\":11156:11212   */\n      not\n        /* \"#utility.yul\":11241:11245   */\n      dup1\n        /* \"#utility.yul\":11235:11239   */\n      dup4\n        /* \"#utility.yul\":11231:11246   */\n      and\n        /* \"#utility.yul\":11221:11246   */\n      swap2\n      pop\n        /* \"#utility.yul\":11134:11252   */\n      pop\n        /* \"#utility.yul\":11083:11252   */\n      swap3\n      swap2\n      pop\n      pop\n      jump\t// out\n        /* \"#utility.yul\":11257:11552   */\n    tag_115:\n        /* \"#utility.yul\":11333:11337   */\n      0x00\n        /* \"#utility.yul\":11479:11508   */\n      tag_248\n        /* \"#utility.yul\":11504:11507   */\n      dup4\n        /* \"#utility.yul\":11498:11502   */\n      dup4\n        /* \"#utility.yul\":11479:11508   */\n      tag_114\n      jump\t// in\n    tag_248:\n        /* \"#utility.yul\":11471:11508   */\n      swap2\n      pop\n        /* \"#utility.yul\":11541:11544   */\n      dup3\n        /* \"#utility.yul\":11538:11539   */\n      0x02\n        /* \"#utility.yul\":11534:11545   */\n      mul\n        /* \"#utility.yul\":11528:11532   */\n      dup3\n        /* \"#utility.yul\":11525:11546   */\n      or\n        /* \"#utility.yul\":11517:11546   */\n      swap1\n      pop\n        /* \"#utility.yul\":11257:11552   */\n      swap3\n      swap2\n      pop\n      pop\n      jump\t// out\n        /* \"#utility.yul\":11557:12952   */\n    tag_58:\n        /* \"#utility.yul\":11674:11711   */\n      tag_250\n        /* \"#utility.yul\":11707:11710   */\n      dup3\n        /* \"#utility.yul\":11674:11711   */\n      tag_79\n      jump\t// in\n    tag_250:\n        /* \"#utility.yul\":11776:11794   */\n      0xffffffffffffffff\n        /* \"#utility.yul\":11768:11774   */\n      dup2\n        /* \"#utility.yul\":11765:11795   */\n      gt\n        /* \"#utility.yul\":11762:11818   */\n      iszero\n      tag_251\n      jumpi\n        /* \"#utility.yul\":11798:11816   */\n      tag_252\n      tag_88\n      jump\t// in\n    tag_252:\n        /* \"#utility.yul\":11762:11818   */\n    tag_251:\n        /* \"#utility.yul\":11842:11880   */\n      tag_253\n        /* \"#utility.yul\":11874:11878   */\n      dup3\n        /* \"#utility.yul\":11868:11879   */\n      sload\n        /* \"#utility.yul\":11842:11880   */\n      tag_44\n      jump\t// in\n    tag_253:\n        /* \"#utility.yul\":11927:11994   */\n      tag_254\n        /* \"#utility.yul\":11987:11993   */\n      dup3\n        /* \"#utility.yul\":11979:11985   */\n      dup3\n        /* \"#utility.yul\":11973:11977   */\n      dup6\n        /* \"#utility.yul\":11927:11994   */\n      tag_112\n      jump\t// in\n    tag_254:\n        /* \"#utility.yul\":12021:12022   */\n      0x00\n        /* \"#utility.yul\":12045:12049   */\n      0x20\n        /* \"#utility.yul\":12032:12049   */\n      swap1\n      pop\n        /* \"#utility.yul\":12077:12079   */\n      0x1f\n        /* \"#utility.yul\":12069:12075   */\n      dup4\n        /* \"#utility.yul\":12066:12080   */\n      gt\n        /* \"#utility.yul\":12094:12095   */\n      0x01\n        /* \"#utility.yul\":12089:12707   */\n      dup2\n      eq\n      tag_256\n      jumpi\n        /* \"#utility.yul\":12751:12752   */\n      0x00\n        /* \"#utility.yul\":12768:12774   */\n      dup5\n        /* \"#utility.yul\":12765:12842   */\n      iszero\n      tag_257\n      jumpi\n        /* \"#utility.yul\":12817:12826   */\n      dup3\n        /* \"#utility.yul\":12812:12815   */\n      dup8\n        /* \"#utility.yul\":12808:12827   */\n      add\n        /* \"#utility.yul\":12802:12828   */\n      mload\n        /* \"#utility.yul\":12793:12828   */\n      swap1\n      pop\n        /* \"#utility.yul\":12765:12842   */\n    tag_257:\n        /* \"#utility.yul\":12868:12935   */\n      tag_258\n        /* \"#utility.yul\":12928:12934   */\n      dup6\n        /* \"#utility.yul\":12921:12926   */\n      dup3\n        /* \"#utility.yul\":12868:12935   */\n      tag_115\n      jump\t// in\n    tag_258:\n        /* \"#utility.yul\":12862:12866   */\n      dup7\n        /* \"#utility.yul\":12855:12936   */\n      sstore\n        /* \"#utility.yul\":12724:12946   */\n      pop\n        /* \"#utility.yul\":12059:12946   */\n      jump(tag_255)\n        /* \"#utility.yul\":12089:12707   */\n    tag_256:\n        /* \"#utility.yul\":12141:12145   */\n      0x1f\n        /* \"#utility.yul\":12137:12146   */\n      not\n        /* \"#utility.yul\":12129:12135   */\n      dup5\n        /* \"#utility.yul\":12125:12147   */\n      and\n        /* \"#utility.yul\":12175:12212   */\n      tag_259\n        /* \"#utility.yul\":12207:12211   */\n      dup7\n        /* \"#utility.yul\":12175:12212   */\n      tag_101\n      jump\t// in\n    tag_259:\n        /* \"#utility.yul\":12234:12235   */\n      0x00\n        /* \"#utility.yul\":12248:12456   */\n    tag_260:\n        /* \"#utility.yul\":12262:12269   */\n      dup3\n        /* \"#utility.yul\":12259:12260   */\n      dup2\n        /* \"#utility.yul\":12256:12270   */\n      lt\n        /* \"#utility.yul\":12248:12456   */\n      iszero\n      tag_262\n      jumpi\n        /* \"#utility.yul\":12341:12350   */\n      dup5\n        /* \"#utility.yul\":12336:12339   */\n      dup10\n        /* \"#utility.yul\":12332:12351   */\n      add\n        /* \"#utility.yul\":12326:12352   */\n      mload\n        /* \"#utility.yul\":12318:12324   */\n      dup3\n        /* \"#utility.yul\":12311:12353   */\n      sstore\n        /* \"#utility.yul\":12392:12393   */\n      0x01\n        /* \"#utility.yul\":12384:12390   */\n      dup3\n        /* \"#utility.yul\":12380:12394   */\n      add\n        /* \"#utility.yul\":12370:12394   */\n      swap2\n      pop\n        /* \"#utility.yul\":12439:12441   */\n      0x20\n        /* \"#utility.yul\":12428:12437   */\n      dup6\n        /* \"#utility.yul\":12424:12442   */\n      add\n        /* \"#utility.yul\":12411:12442   */\n      swap5\n      pop\n        /* \"#utility.yul\":12285:12289   */\n      0x20\n        /* \"#utility.yul\":12282:12283   */\n      dup2\n        /* \"#utility.yul\":12278:12290   */\n      add\n        /* \"#utility.yul\":12273:12290   */\n      swap1\n      pop\n        /* \"#utility.yul\":12248:12456   */\n      jump(tag_260)\n    tag_262:\n        /* \"#utility.yul\":12484:12490   */\n      dup7\n        /* \"#utility.yul\":12475:12482   */\n      dup4\n        /* \"#utility.yul\":12472:12491   */\n      lt\n        /* \"#utility.yul\":12469:12648   */\n      iszero\n      tag_263\n      jumpi\n        /* \"#utility.yul\":12542:12551   */\n      dup5\n        /* \"#utility.yul\":12537:12540   */\n      dup10\n        /* \"#utility.yul\":12533:12552   */\n      add\n        /* \"#utility.yul\":12527:12553   */\n      mload\n        /* \"#utility.yul\":12585:12633   */\n      tag_264\n        /* \"#utility.yul\":12627:12631   */\n      0x1f\n        /* \"#utility.yul\":12619:12625   */\n      dup10\n        /* \"#utility.yul\":12615:12632   */\n      and\n        /* \"#utility.yul\":12604:12613   */\n      dup3\n        /* \"#utility.yul\":12585:12633   */\n      tag_114\n      jump\t// in\n    tag_264:\n        /* \"#utility.yul\":12577:12583   */\n      dup4\n        /* \"#utility.yul\":12570:12634   */\n      sstore\n        /* \"#utility.yul\":12492:12648   */\n      pop\n        /* \"#utility.yul\":12469:12648   */\n    tag_263:\n        /* \"#utility.yul\":12694:12695   */\n      0x01\n        /* \"#utility.yul\":12690:12691   */\n      0x02\n        /* \"#utility.yul\":12682:12688   */\n      dup9\n        /* \"#utility.yul\":12678:12692   */\n      mul\n        /* \"#utility.yul\":12674:12696   */\n      add\n        /* \"#utility.yul\":12668:12672   */\n      dup9\n        /* \"#utility.yul\":12661:12697   */\n      sstore\n        /* \"#utility.yul\":12096:12707   */\n      pop\n      pop\n      pop\n        /* \"#utility.yul\":12059:12946   */\n    tag_255:\n      pop\n        /* \"#utility.yul\":11649:12952   */\n      pop\n      pop\n      pop\n        /* \"#utility.yul\":11557:12952   */\n      pop\n      pop\n      jump\t// out\n        /* \"#utility.yul\":12958:13271   */\n    tag_60:\n        /* \"#utility.yul\":13071:13075   */\n      0x00\n        /* \"#utility.yul\":13109:13111   */\n      0x20\n        /* \"#utility.yul\":13098:13107   */\n      dup3\n        /* \"#utility.yul\":13094:13112   */\n      add\n        /* \"#utility.yul\":13086:13112   */\n      swap1\n      pop\n        /* \"#utility.yul\":13158:13167   */\n      dup2\n        /* \"#utility.yul\":13152:13156   */\n      dup2\n        /* \"#utility.yul\":13148:13168   */\n      sub\n        /* \"#utility.yul\":13144:13145   */\n      0x00\n        /* \"#utility.yul\":13133:13142   */\n      dup4\n        /* \"#utility.yul\":13129:13146   */\n      add\n        /* \"#utility.yul\":13122:13169   */\n      mstore\n        /* \"#utility.yul\":13186:13264   */\n      tag_266\n        /* \"#utility.yul\":13259:13263   */\n      dup2\n        /* \"#utility.yul\":13250:13256   */\n      dup5\n        /* \"#utility.yul\":13186:13264   */\n      tag_83\n      jump\t// in\n    tag_266:\n        /* \"#utility.yul\":13178:13264   */\n      swap1\n      pop\n        /* \"#utility.yul\":12958:13271   */\n      swap3\n      swap2\n      pop\n      pop\n      jump\t// out\n        /* \"#utility.yul\":13277:13446   */\n    tag_116:\n        /* \"#utility.yul\":13417:13438   */\n      0x5573657220646f6573206e6f7420657869737400000000000000000000000000\n        /* \"#utility.yul\":13413:13414   */\n      0x00\n        /* \"#utility.yul\":13405:13411   */\n      dup3\n        /* \"#utility.yul\":13401:13415   */\n      add\n        /* \"#utility.yul\":13394:13439   */\n      mstore\n        /* \"#utility.yul\":13277:13446   */\n      pop\n      jump\t// out\n        /* \"#utility.yul\":13452:13818   */\n    tag_117:\n        /* \"#utility.yul\":13594:13597   */\n      0x00\n        /* \"#utility.yul\":13615:13682   */\n      tag_269\n        /* \"#utility.yul\":13679:13681   */\n      0x13\n        /* \"#utility.yul\":13674:13677   */\n      dup4\n        /* \"#utility.yul\":13615:13682   */\n      tag_80\n      jump\t// in\n    tag_269:\n        /* \"#utility.yul\":13608:13682   */\n      swap2\n      pop\n        /* \"#utility.yul\":13691:13784   */\n      tag_270\n        /* \"#utility.yul\":13780:13783   */\n      dup3\n        /* \"#utility.yul\":13691:13784   */\n      tag_116\n      jump\t// in\n    tag_270:\n        /* \"#utility.yul\":13809:13811   */\n      0x20\n        /* \"#utility.yul\":13804:13807   */\n      dup3\n        /* \"#utility.yul\":13800:13812   */\n      add\n        /* \"#utility.yul\":13793:13812   */\n      swap1\n      pop\n        /* \"#utility.yul\":13452:13818   */\n      swap2\n      swap1\n      pop\n      jump\t// out\n        /* \"#utility.yul\":13824:14243   */\n    tag_70:\n        /* \"#utility.yul\":13990:13994   */\n      0x00\n        /* \"#utility.yul\":14028:14030   */\n      0x20\n        /* \"#utility.yul\":14017:14026   */\n      dup3\n        /* \"#utility.yul\":14013:14031   */\n      add\n        /* \"#utility.yul\":14005:14031   */\n      swap1\n      pop\n        /* \"#utility.yul\":14077:14086   */\n      dup2\n        /* \"#utility.yul\":14071:14075   */\n      dup2\n        /* \"#utility.yul\":14067:14087   */\n      sub\n        /* \"#utility.yul\":14063:14064   */\n      0x00\n        /* \"#utility.yul\":14052:14061   */\n      dup4\n        /* \"#utility.yul\":14048:14065   */\n      add\n        /* \"#utility.yul\":14041:14088   */\n      mstore\n        /* \"#utility.yul\":14105:14236   */\n      tag_272\n        /* \"#utility.yul\":14231:14235   */\n      dup2\n        /* \"#utility.yul\":14105:14236   */\n      tag_117\n      jump\t// in\n    tag_272:\n        /* \"#utility.yul\":14097:14236   */\n      swap1\n      pop\n        /* \"#utility.yul\":13824:14243   */\n      swap2\n      swap1\n      pop\n      jump\t// out\n\n    auxdata: 0xa26469706673582212206c3c50c4a15c8488a4361335d72577cb5cfd9be13c011f9e552521270154d73a64736f6c634300081e0033\n}\n",
				"bytecode": {
					"linkReferences": {},
					"object": "6080604052348015600e575f5ffd5b50610dc18061001c5f395ff3fe608060405234801561000f575f5ffd5b506004361061007b575f3560e01c80636f93dd91116100595780636f93dd9114610100578063704f1b9414610130578063b0467deb14610160578063ed2c317b146101935761007b565b806307973ccf1461007f578063365b98b21461009d57806339721b50146100d0575b5f5ffd5b6100876101af565b6040516100949190610614565b60405180910390f35b6100b760048036038101906100b29190610668565b6101b4565b6040516100c7949392919061071d565b60405180910390f35b6100ea60048036038101906100e59190610668565b61027f565b6040516100f79190610767565b60405180910390f35b61011a60048036038101906101159190610668565b6102a9565b6040516101279190610767565b60405180910390f35b61014a600480360381019061014591906108ac565b6102d2565b6040516101579190610614565b60405180910390f35b61017a60048036038101906101759190610668565b61041f565b60405161018a949392919061071d565b60405180910390f35b6101ad60048036038101906101a8919061091d565b610534565b005b5f5481565b6001602052805f5260405f205f91509050805f0154908060010180546101d990610988565b80601f016020809104026020016040519081016040528092919081815260200182805461020590610988565b80156102505780601f1061022757610100808354040283529160200191610250565b820191905f5260205f20905b81548152906001019060200180831161023357829003601f168201915b505050505090806002015f9054906101000a900460ff16908060020160019054906101000a900460ff16905084565b5f60015f8381526020019081526020015f2060020160019054906101000a900460ff169050919050565b5f60015f8381526020019081526020015f206002015f9054906101000a900460ff169050919050565b5f5f825111610316576040517f08c379a000000000000000000000000000000000000000000000000000000000815260040161030d90610a02565b60405180910390fd5b5f5f81548092919061032790610a4d565b919050555060405180608001604052805f5481526020018381526020016001151581526020016001151581525060015f5f5481526020019081526020015f205f820151815f015560208201518160010190816103839190610c34565b506040820151816002015f6101000a81548160ff02191690831515021790555060608201518160020160016101000a81548160ff0219169083151502179055509050503373ffffffffffffffffffffffffffffffffffffffff165f547ff9f470b753810725157b794665955ed6428420a93ae28c045cc736ff3306848f8460405161040e9190610d03565b60405180910390a35f549050919050565b5f60605f5f5f60015f8781526020019081526020015f206040518060800160405290815f820154815260200160018201805461045a90610988565b80601f016020809104026020016040519081016040528092919081815260200182805461048690610988565b80156104d15780601f106104a8576101008083540402835291602001916104d1565b820191905f5260205f20905b8154815290600101906020018083116104b457829003601f168201915b50505050508152602001600282015f9054906101000a900460ff161515151581526020016002820160019054906101000a900460ff1615151515815250509050805f01518160200151826040015183606001519450945094509450509193509193565b60015f8381526020019081526020015f206002015f9054906101000a900460ff16610594576040517f08c379a000000000000000000000000000000000000000000000000000000000815260040161058b90610d6d565b60405180910390fd5b8060015f8481526020019081526020015f2060020160016101000a81548160ff021916908315150217905550817f296dfabe3a8bf815e7de9e15072dcd7a750eaf1633c5c2087a9041ee87159a65826040516105f09190610767565b60405180910390a25050565b5f819050919050565b61060e816105fc565b82525050565b5f6020820190506106275f830184610605565b92915050565b5f604051905090565b5f5ffd5b5f5ffd5b610647816105fc565b8114610651575f5ffd5b50565b5f813590506106628161063e565b92915050565b5f6020828403121561067d5761067c610636565b5b5f61068a84828501610654565b91505092915050565b5f81519050919050565b5f82825260208201905092915050565b8281835e5f83830152505050565b5f601f19601f8301169050919050565b5f6106d582610693565b6106df818561069d565b93506106ef8185602086016106ad565b6106f8816106bb565b840191505092915050565b5f8115159050919050565b61071781610703565b82525050565b5f6080820190506107305f830187610605565b818103602083015261074281866106cb565b9050610751604083018561070e565b61075e606083018461070e565b95945050505050565b5f60208201905061077a5f83018461070e565b92915050565b5f5ffd5b5f5ffd5b7f4e487b71000000000000000000000000000000000000000000000000000000005f52604160045260245ffd5b6107be826106bb565b810181811067ffffffffffffffff821117156107dd576107dc610788565b5b80604052505050565b5f6107ef61062d565b90506107fb82826107b5565b919050565b5f67ffffffffffffffff82111561081a57610819610788565b5b610823826106bb565b9050602081019050919050565b828183375f83830152505050565b5f61085061084b84610800565b6107e6565b90508281526020810184848401111561086c5761086b610784565b5b610877848285610830565b509392505050565b5f82601f83011261089357610892610780565b5b81356108a384826020860161083e565b91505092915050565b5f602082840312156108c1576108c0610636565b5b5f82013567ffffffffffffffff8111156108de576108dd61063a565b5b6108ea8482850161087f565b91505092915050565b6108fc81610703565b8114610906575f5ffd5b50565b5f81359050610917816108f3565b92915050565b5f5f6040838503121561093357610932610636565b5b5f61094085828601610654565b925050602061095185828601610909565b9150509250929050565b7f4e487b71000000000000000000000000000000000000000000000000000000005f52602260045260245ffd5b5f600282049050600182168061099f57607f821691505b6020821081036109b2576109b161095b565b5b50919050565b7f55736572206e616d6520726571756972656400000000000000000000000000005f82015250565b5f6109ec60128361069d565b91506109f7826109b8565b602082019050919050565b5f6020820190508181035f830152610a19816109e0565b9050919050565b7f4e487b71000000000000000000000000000000000000000000000000000000005f52601160045260245ffd5b5f610a57826105fc565b91507fffffffffffffffffffffffffffffffffffffffffffffffffffffffffffffffff8203610a8957610a88610a20565b5b600182019050919050565b5f819050815f5260205f209050919050565b5f6020601f8301049050919050565b5f82821b905092915050565b5f60088302610af07fffffffffffffffffffffffffffffffffffffffffffffffffffffffffffffffff82610ab5565b610afa8683610ab5565b95508019841693508086168417925050509392505050565b5f819050919050565b5f610b35610b30610b2b846105fc565b610b12565b6105fc565b9050919050565b5f819050919050565b610b4e83610b1b565b610b62610b5a82610b3c565b848454610ac1565b825550505050565b5f5f905090565b610b79610b6a565b610b84818484610b45565b505050565b5b81811015610ba757610b9c5f82610b71565b600181019050610b8a565b5050565b601f821115610bec57610bbd81610a94565b610bc684610aa6565b81016020851015610bd5578190505b610be9610be185610aa6565b830182610b89565b50505b505050565b5f82821c905092915050565b5f610c0c5f1984600802610bf1565b1980831691505092915050565b5f610c248383610bfd565b9150826002028217905092915050565b610c3d82610693565b67ffffffffffffffff811115610c5657610c55610788565b5b610c608254610988565b610c6b828285610bab565b5f60209050601f831160018114610c9c575f8415610c8a578287015190505b610c948582610c19565b865550610cfb565b601f198416610caa86610a94565b5f5b82811015610cd157848901518255600182019150602085019450602081019050610cac565b86831015610cee5784890151610cea601f891682610bfd565b8355505b6001600288020188555050505b505050505050565b5f6020820190508181035f830152610d1b81846106cb565b905092915050565b7f5573657220646f6573206e6f74206578697374000000000000000000000000005f82015250565b5f610d5760138361069d565b9150610d6282610d23565b602082019050919050565b5f6020820190508181035f830152610d8481610d4b565b905091905056fea26469706673582212206c3c50c4a15c8488a4361335d72577cb5cfd9be13c011f9e552521270154d73a64736f6c634300081e0033",
					"opcodes": "PUSH1 0x80 PUSH1 0x40 MSTORE CALLVALUE DUP1 ISZERO PUSH1 0xE JUMPI PUSH0 PUSH0 REVERT JUMPDEST POP PUSH2 0xDC1 DUP1 PUSH2 0x1C PUSH0 CODECOPY PUSH0 RETURN INVALID PUSH1 0x80 PUSH1 0x40 MSTORE CALLVALUE DUP1 ISZERO PUSH2 0xF JUMPI PUSH0 PUSH0 REVERT JUMPDEST POP PUSH1 0x4 CALLDATASIZE LT PUSH2 0x7B JUMPI PUSH0 CALLDATALOAD PUSH1 0xE0 SHR DUP1 PUSH4 0x6F93DD91 GT PUSH2 0x59 JUMPI DUP1 PUSH4 0x6F93DD91 EQ PUSH2 0x100 JUMPI DUP1 PUSH4 0x704F1B94 EQ PUSH2 0x130 JUMPI DUP1 PUSH4 0xB0467DEB EQ PUSH2 0x160 JUMPI DUP1 PUSH4 0xED2C317B EQ PUSH2 0x193 JUMPI PUSH2 0x7B JUMP JUMPDEST DUP1 PUSH4 0x7973CCF EQ PUSH2 0x7F JUMPI DUP1 PUSH4 0x365B98B2 EQ PUSH2 0x9D JUMPI DUP1 PUSH4 0x39721B50 EQ PUSH2 0xD0 JUMPI JUMPDEST PUSH0 PUSH0 REVERT JUMPDEST PUSH2 0x87 PUSH2 0x1AF JUMP JUMPDEST PUSH1 0x40 MLOAD PUSH2 0x94 SWAP2 SWAP1 PUSH2 0x614 JUMP JUMPDEST PUSH1 0x40 MLOAD DUP1 SWAP2 SUB SWAP1 RETURN JUMPDEST PUSH2 0xB7 PUSH1 0x4 DUP1 CALLDATASIZE SUB DUP2 ADD SWAP1 PUSH2 0xB2 SWAP2 SWAP1 PUSH2 0x668 JUMP JUMPDEST PUSH2 0x1B4 JUMP JUMPDEST PUSH1 0x40 MLOAD PUSH2 0xC7 SWAP5 SWAP4 SWAP3 SWAP2 SWAP1 PUSH2 0x71D JUMP JUMPDEST PUSH1 0x40 MLOAD DUP1 SWAP2 SUB SWAP1 RETURN JUMPDEST PUSH2 0xEA PUSH1 0x4 DUP1 CALLDATASIZE SUB DUP2 ADD SWAP1 PUSH2 0xE5 SWAP2 SWAP1 PUSH2 0x668 JUMP JUMPDEST PUSH2 0x27F JUMP JUMPDEST PUSH1 0x40 MLOAD PUSH2 0xF7 SWAP2 SWAP1 PUSH2 0x767 JUMP JUMPDEST PUSH1 0x40 MLOAD DUP1 SWAP2 SUB SWAP1 RETURN JUMPDEST PUSH2 0x11A PUSH1 0x4 DUP1 CALLDATASIZE SUB DUP2 ADD SWAP1 PUSH2 0x115 SWAP2 SWAP1 PUSH2 0x668 JUMP JUMPDEST PUSH2 0x2A9 JUMP JUMPDEST PUSH1 0x40 MLOAD PUSH2 0x127 SWAP2 SWAP1 PUSH2 0x767 JUMP JUMPDEST PUSH1 0x40 MLOAD DUP1 SWAP2 SUB SWAP1 RETURN JUMPDEST PUSH2 0x14A PUSH1 0x4 DUP1 CALLDATASIZE SUB DUP2 ADD SWAP1 PUSH2 0x145 SWAP2 SWAP1 PUSH2 0x8AC JUMP JUMPDEST PUSH2 0x2D2 JUMP JUMPDEST PUSH1 0x40 MLOAD PUSH2 0x157 SWAP2 SWAP1 PUSH2 0x614 JUMP JUMPDEST PUSH1 0x40 MLOAD DUP1 SWAP2 SUB SWAP1 RETURN JUMPDEST PUSH2 0x17A PUSH1 0x4 DUP1 CALLDATASIZE SUB DUP2 ADD SWAP1 PUSH2 0x175 SWAP2 SWAP1 PUSH2 0x668 JUMP JUMPDEST PUSH2 0x41F JUMP JUMPDEST PUSH1 0x40 MLOAD PUSH2 0x18A SWAP5 SWAP4 SWAP3 SWAP2 SWAP1 PUSH2 0x71D JUMP JUMPDEST PUSH1 0x40 MLOAD DUP1 SWAP2 SUB SWAP1 RETURN JUMPDEST PUSH2 0x1AD PUSH1 0x4 DUP1 CALLDATASIZE SUB DUP2 ADD SWAP1 PUSH2 0x1A8 SWAP2 SWAP1 PUSH2 0x91D JUMP JUMPDEST PUSH2 0x534 JUMP JUMPDEST STOP JUMPDEST PUSH0 SLOAD DUP2 JUMP JUMPDEST PUSH1 0x1 PUSH1 0x20 MSTORE DUP1 PUSH0 MSTORE PUSH1 0x40 PUSH0 KECCAK256 PUSH0 SWAP2 POP SWAP1 POP DUP1 PUSH0 ADD SLOAD SWAP1 DUP1 PUSH1 0x1 ADD DUP1 SLOAD PUSH2 0x1D9 SWAP1 PUSH2 0x988 JUMP JUMPDEST DUP1 PUSH1 0x1F ADD PUSH1 0x20 DUP1 SWAP2 DIV MUL PUSH1 0x20 ADD PUSH1 0x40 MLOAD SWAP1 DUP2 ADD PUSH1 0x40 MSTORE DUP1 SWAP3 SWAP2 SWAP1 DUP2 DUP2 MSTORE PUSH1 0x20 ADD DUP3 DUP1 SLOAD PUSH2 0x205 SWAP1 PUSH2 0x988 JUMP JUMPDEST DUP1 ISZERO PUSH2 0x250 JUMPI DUP1 PUSH1 0x1F LT PUSH2 0x227 JUMPI PUSH2 0x100 DUP1 DUP4 SLOAD DIV MUL DUP4 MSTORE SWAP2 PUSH1 0x20 ADD SWAP2 PUSH2 0x250 JUMP JUMPDEST DUP3 ADD SWAP2 SWAP1 PUSH0 MSTORE PUSH1 0x20 PUSH0 KECCAK256 SWAP1 JUMPDEST DUP2 SLOAD DUP2 MSTORE SWAP1 PUSH1 0x1 ADD SWAP1 PUSH1 0x20 ADD DUP1 DUP4 GT PUSH2 0x233 JUMPI DUP3 SWAP1 SUB PUSH1 0x1F AND DUP3 ADD SWAP2 JUMPDEST POP POP POP POP POP SWAP1 DUP1 PUSH1 0x2 ADD PUSH0 SWAP1 SLOAD SWAP1 PUSH2 0x100 EXP SWAP1 DIV PUSH1 0xFF AND SWAP1 DUP1 PUSH1 0x2 ADD PUSH1 0x1 SWAP1 SLOAD SWAP1 PUSH2 0x100 EXP SWAP1 DIV PUSH1 0xFF AND SWAP1 POP DUP5 JUMP JUMPDEST PUSH0 PUSH1 0x1 PUSH0 DUP4 DUP2 MSTORE PUSH1 0x20 ADD SWAP1 DUP2 MSTORE PUSH1 0x20 ADD PUSH0 KECCAK256 PUSH1 0x2 ADD PUSH1 0x1 SWAP1 SLOAD SWAP1 PUSH2 0x100 EXP SWAP1 DIV PUSH1 0xFF AND SWAP1 POP SWAP2 SWAP1 POP JUMP JUMPDEST PUSH0 PUSH1 0x1 PUSH0 DUP4 DUP2 MSTORE PUSH1 0x20 ADD SWAP1 DUP2 MSTORE PUSH1 0x20 ADD PUSH0 KECCAK256 PUSH1 0x2 ADD PUSH0 SWAP1 SLOAD SWAP1 PUSH2 0x100 EXP SWAP1 DIV PUSH1 0xFF AND SWAP1 POP SWAP2 SWAP1 POP JUMP JUMPDEST PUSH0 PUSH0 DUP3 MLOAD GT PUSH2 0x316 JUMPI PUSH1 0x40 MLOAD PUSH32 0x8C379A000000000000000000000000000000000000000000000000000000000 DUP2 MSTORE PUSH1 0x4 ADD PUSH2 0x30D SWAP1 PUSH2 0xA02 JUMP JUMPDEST PUSH1 0x40 MLOAD DUP1 SWAP2 SUB SWAP1 REVERT JUMPDEST PUSH0 PUSH0 DUP2 SLOAD DUP1 SWAP3 SWAP2 SWAP1 PUSH2 0x327 SWAP1 PUSH2 0xA4D JUMP JUMPDEST SWAP2 SWAP1 POP SSTORE POP PUSH1 0x40 MLOAD DUP1 PUSH1 0x80 ADD PUSH1 0x40 MSTORE DUP1 PUSH0 SLOAD DUP2 MSTORE PUSH1 0x20 ADD DUP4 DUP2 MSTORE PUSH1 0x20 ADD PUSH1 0x1 ISZERO ISZERO DUP2 MSTORE PUSH1 0x20 ADD PUSH1 0x1 ISZERO ISZERO DUP2 MSTORE POP PUSH1 0x1 PUSH0 PUSH0 SLOAD DUP2 MSTORE PUSH1 0x20 ADD SWAP1 DUP2 MSTORE PUSH1 0x20 ADD PUSH0 KECCAK256 PUSH0 DUP3 ADD MLOAD DUP2 PUSH0 ADD SSTORE PUSH1 0x20 DUP3 ADD MLOAD DUP2 PUSH1 0x1 ADD SWAP1 DUP2 PUSH2 0x383 SWAP2 SWAP1 PUSH2 0xC34 JUMP JUMPDEST POP PUSH1 0x40 DUP3 ADD MLOAD DUP2 PUSH1 0x2 ADD PUSH0 PUSH2 0x100 EXP DUP2 SLOAD DUP2 PUSH1 0xFF MUL NOT AND SWAP1 DUP4 ISZERO ISZERO MUL OR SWAP1 SSTORE POP PUSH1 0x60 DUP3 ADD MLOAD DUP2 PUSH1 0x2 ADD PUSH1 0x1 PUSH2 0x100 EXP DUP2 SLOAD DUP2 PUSH1 0xFF MUL NOT AND SWAP1 DUP4 ISZERO ISZERO MUL OR SWAP1 SSTORE POP SWAP1 POP POP CALLER PUSH20 0xFFFFFFFFFFFFFFFFFFFFFFFFFFFFFFFFFFFFFFFF AND PUSH0 SLOAD PUSH32 0xF9F470B753810725157B794665955ED6428420A93AE28C045CC736FF3306848F DUP5 PUSH1 0x40 MLOAD PUSH2 0x40E SWAP2 SWAP1 PUSH2 0xD03 JUMP JUMPDEST PUSH1 0x40 MLOAD DUP1 SWAP2 SUB SWAP1 LOG3 PUSH0 SLOAD SWAP1 POP SWAP2 SWAP1 POP JUMP JUMPDEST PUSH0 PUSH1 0x60 PUSH0 PUSH0 PUSH0 PUSH1 0x1 PUSH0 DUP8 DUP2 MSTORE PUSH1 0x20 ADD SWAP1 DUP2 MSTORE PUSH1 0x20 ADD PUSH0 KECCAK256 PUSH1 0x40 MLOAD DUP1 PUSH1 0x80 ADD PUSH1 0x40 MSTORE SWAP1 DUP2 PUSH0 DUP3 ADD SLOAD DUP2 MSTORE PUSH1 0x20 ADD PUSH1 0x1 DUP3 ADD DUP1 SLOAD PUSH2 0x45A SWAP1 PUSH2 0x988 JUMP JUMPDEST DUP1 PUSH1 0x1F ADD PUSH1 0x20 DUP1 SWAP2 DIV MUL PUSH1 0x20 ADD PUSH1 0x40 MLOAD SWAP1 DUP2 ADD PUSH1 0x40 MSTORE DUP1 SWAP3 SWAP2 SWAP1 DUP2 DUP2 MSTORE PUSH1 0x20 ADD DUP3 DUP1 SLOAD PUSH2 0x486 SWAP1 PUSH2 0x988 JUMP JUMPDEST DUP1 ISZERO PUSH2 0x4D1 JUMPI DUP1 PUSH1 0x1F LT PUSH2 0x4A8 JUMPI PUSH2 0x100 DUP1 DUP4 SLOAD DIV MUL DUP4 MSTORE SWAP2 PUSH1 0x20 ADD SWAP2 PUSH2 0x4D1 JUMP JUMPDEST DUP3 ADD SWAP2 SWAP1 PUSH0 MSTORE PUSH1 0x20 PUSH0 KECCAK256 SWAP1 JUMPDEST DUP2 SLOAD DUP2 MSTORE SWAP1 PUSH1 0x1 ADD SWAP1 PUSH1 0x20 ADD DUP1 DUP4 GT PUSH2 0x4B4 JUMPI DUP3 SWAP1 SUB PUSH1 0x1F AND DUP3 ADD SWAP2 JUMPDEST POP POP POP POP POP DUP2 MSTORE PUSH1 0x20 ADD PUSH1 0x2 DUP3 ADD PUSH0 SWAP1 SLOAD SWAP1 PUSH2 0x100 EXP SWAP1 DIV PUSH1 0xFF AND ISZERO ISZERO ISZERO ISZERO DUP2 MSTORE PUSH1 0x20 ADD PUSH1 0x2 DUP3 ADD PUSH1 0x1 SWAP1 SLOAD SWAP1 PUSH2 0x100 EXP SWAP1 DIV PUSH1 0xFF AND ISZERO ISZERO ISZERO ISZERO DUP2 MSTORE POP POP SWAP1 POP DUP1 PUSH0 ADD MLOAD DUP2 PUSH1 0x20 ADD MLOAD DUP3 PUSH1 0x40 ADD MLOAD DUP4 PUSH1 0x60 ADD MLOAD SWAP5 POP SWAP5 POP SWAP5 POP SWAP5 POP POP SWAP2 SWAP4 POP SWAP2 SWAP4 JUMP JUMPDEST PUSH1 0x1 PUSH0 DUP4 DUP2 MSTORE PUSH1 0x20 ADD SWAP1 DUP2 MSTORE PUSH1 0x20 ADD PUSH0 KECCAK256 PUSH1 0x2 ADD PUSH0 SWAP1 SLOAD SWAP1 PUSH2 0x100 EXP SWAP1 DIV PUSH1 0xFF AND PUSH2 0x594 JUMPI PUSH1 0x40 MLOAD PUSH32 0x8C379A000000000000000000000000000000000000000000000000000000000 DUP2 MSTORE PUSH1 0x4 ADD PUSH2 0x58B SWAP1 PUSH2 0xD6D JUMP JUMPDEST PUSH1 0x40 MLOAD DUP1 SWAP2 SUB SWAP1 REVERT JUMPDEST DUP1 PUSH1 0x1 PUSH0 DUP5 DUP2 MSTORE PUSH1 0x20 ADD SWAP1 DUP2 MSTORE PUSH1 0x20 ADD PUSH0 KECCAK256 PUSH1 0x2 ADD PUSH1 0x1 PUSH2 0x100 EXP DUP2 SLOAD DUP2 PUSH1 0xFF MUL NOT AND SWAP1 DUP4 ISZERO ISZERO MUL OR SWAP1 SSTORE POP DUP2 PUSH32 0x296DFABE3A8BF815E7DE9E15072DCD7A750EAF1633C5C2087A9041EE87159A65 DUP3 PUSH1 0x40 MLOAD PUSH2 0x5F0 SWAP2 SWAP1 PUSH2 0x767 JUMP JUMPDEST PUSH1 0x40 MLOAD DUP1 SWAP2 SUB SWAP1 LOG2 POP POP JUMP JUMPDEST PUSH0 DUP2 SWAP1 POP SWAP2 SWAP1 POP JUMP JUMPDEST PUSH2 0x60E DUP2 PUSH2 0x5FC JUMP JUMPDEST DUP3 MSTORE POP POP JUMP JUMPDEST PUSH0 PUSH1 0x20 DUP3 ADD SWAP1 POP PUSH2 0x627 PUSH0 DUP4 ADD DUP5 PUSH2 0x605 JUMP JUMPDEST SWAP3 SWAP2 POP POP JUMP JUMPDEST PUSH0 PUSH1 0x40 MLOAD SWAP1 POP SWAP1 JUMP JUMPDEST PUSH0 PUSH0 REVERT JUMPDEST PUSH0 PUSH0 REVERT JUMPDEST PUSH2 0x647 DUP2 PUSH2 0x5FC JUMP JUMPDEST DUP2 EQ PUSH2 0x651 JUMPI PUSH0 PUSH0 REVERT JUMPDEST POP JUMP JUMPDEST PUSH0 DUP2 CALLDATALOAD SWAP1 POP PUSH2 0x662 DUP2 PUSH2 0x63E JUMP JUMPDEST SWAP3 SWAP2 POP POP JUMP JUMPDEST PUSH0 PUSH1 0x20 DUP3 DUP5 SUB SLT ISZERO PUSH2 0x67D JUMPI PUSH2 0x67C PUSH2 0x636 JUMP JUMPDEST JUMPDEST PUSH0 PUSH2 0x68A DUP5 DUP3 DUP6 ADD PUSH2 0x654 JUMP JUMPDEST SWAP2 POP POP SWAP3 SWAP2 POP POP JUMP JUMPDEST PUSH0 DUP2 MLOAD SWAP1 POP SWAP2 SWAP1 POP JUMP JUMPDEST PUSH0 DUP3 DUP3 MSTORE PUSH1 0x20 DUP3 ADD SWAP1 POP SWAP3 SWAP2 POP POP JUMP JUMPDEST DUP3 DUP2 DUP4 MCOPY PUSH0 DUP4 DUP4 ADD MSTORE POP POP POP JUMP JUMPDEST PUSH0 PUSH1 0x1F NOT PUSH1 0x1F DUP4 ADD AND SWAP1 POP SWAP2 SWAP1 POP JUMP JUMPDEST PUSH0 PUSH2 0x6D5 DUP3 PUSH2 0x693 JUMP JUMPDEST PUSH2 0x6DF DUP2 DUP6 PUSH2 0x69D JUMP JUMPDEST SWAP4 POP PUSH2 0x6EF DUP2 DUP6 PUSH1 0x20 DUP7 ADD PUSH2 0x6AD JUMP JUMPDEST PUSH2 0x6F8 DUP2 PUSH2 0x6BB JUMP JUMPDEST DUP5 ADD SWAP2 POP POP SWAP3 SWAP2 POP POP JUMP JUMPDEST PUSH0 DUP2 ISZERO ISZERO SWAP1 POP SWAP2 SWAP1 POP JUMP JUMPDEST PUSH2 0x717 DUP2 PUSH2 0x703 JUMP JUMPDEST DUP3 MSTORE POP POP JUMP JUMPDEST PUSH0 PUSH1 0x80 DUP3 ADD SWAP1 POP PUSH2 0x730 PUSH0 DUP4 ADD DUP8 PUSH2 0x605 JUMP JUMPDEST DUP2 DUP2 SUB PUSH1 0x20 DUP4 ADD MSTORE PUSH2 0x742 DUP2 DUP7 PUSH2 0x6CB JUMP JUMPDEST SWAP1 POP PUSH2 0x751 PUSH1 0x40 DUP4 ADD DUP6 PUSH2 0x70E JUMP JUMPDEST PUSH2 0x75E PUSH1 0x60 DUP4 ADD DUP5 PUSH2 0x70E JUMP JUMPDEST SWAP6 SWAP5 POP POP POP POP POP JUMP JUMPDEST PUSH0 PUSH1 0x20 DUP3 ADD SWAP1 POP PUSH2 0x77A PUSH0 DUP4 ADD DUP5 PUSH2 0x70E JUMP JUMPDEST SWAP3 SWAP2 POP POP JUMP JUMPDEST PUSH0 PUSH0 REVERT JUMPDEST PUSH0 PUSH0 REVERT JUMPDEST PUSH32 0x4E487B7100000000000000000000000000000000000000000000000000000000 PUSH0 MSTORE PUSH1 0x41 PUSH1 0x4 MSTORE PUSH1 0x24 PUSH0 REVERT JUMPDEST PUSH2 0x7BE DUP3 PUSH2 0x6BB JUMP JUMPDEST DUP2 ADD DUP2 DUP2 LT PUSH8 0xFFFFFFFFFFFFFFFF DUP3 GT OR ISZERO PUSH2 0x7DD JUMPI PUSH2 0x7DC PUSH2 0x788 JUMP JUMPDEST JUMPDEST DUP1 PUSH1 0x40 MSTORE POP POP POP JUMP JUMPDEST PUSH0 PUSH2 0x7EF PUSH2 0x62D JUMP JUMPDEST SWAP1 POP PUSH2 0x7FB DUP3 DUP3 PUSH2 0x7B5 JUMP JUMPDEST SWAP2 SWAP1 POP JUMP JUMPDEST PUSH0 PUSH8 0xFFFFFFFFFFFFFFFF DUP3 GT ISZERO PUSH2 0x81A JUMPI PUSH2 0x819 PUSH2 0x788 JUMP JUMPDEST JUMPDEST PUSH2 0x823 DUP3 PUSH2 0x6BB JUMP JUMPDEST SWAP1 POP PUSH1 0x20 DUP2 ADD SWAP1 POP SWAP2 SWAP1 POP JUMP JUMPDEST DUP3 DUP2 DUP4 CALLDATACOPY PUSH0 DUP4 DUP4 ADD MSTORE POP POP POP JUMP JUMPDEST PUSH0 PUSH2 0x850 PUSH2 0x84B DUP5 PUSH2 0x800 JUMP JUMPDEST PUSH2 0x7E6 JUMP JUMPDEST SWAP1 POP DUP3 DUP2 MSTORE PUSH1 0x20 DUP2 ADD DUP5 DUP5 DUP5 ADD GT ISZERO PUSH2 0x86C JUMPI PUSH2 0x86B PUSH2 0x784 JUMP JUMPDEST JUMPDEST PUSH2 0x877 DUP5 DUP3 DUP6 PUSH2 0x830 JUMP JUMPDEST POP SWAP4 SWAP3 POP POP POP JUMP JUMPDEST PUSH0 DUP3 PUSH1 0x1F DUP4 ADD SLT PUSH2 0x893 JUMPI PUSH2 0x892 PUSH2 0x780 JUMP JUMPDEST JUMPDEST DUP2 CALLDATALOAD PUSH2 0x8A3 DUP5 DUP3 PUSH1 0x20 DUP7 ADD PUSH2 0x83E JUMP JUMPDEST SWAP2 POP POP SWAP3 SWAP2 POP POP JUMP JUMPDEST PUSH0 PUSH1 0x20 DUP3 DUP5 SUB SLT ISZERO PUSH2 0x8C1 JUMPI PUSH2 0x8C0 PUSH2 0x636 JUMP JUMPDEST JUMPDEST PUSH0 DUP3 ADD CALLDATALOAD PUSH8 0xFFFFFFFFFFFFFFFF DUP2 GT ISZERO PUSH2 0x8DE JUMPI PUSH2 0x8DD PUSH2 0x63A JUMP JUMPDEST JUMPDEST PUSH2 0x8EA DUP5 DUP3 DUP6 ADD PUSH2 0x87F JUMP JUMPDEST SWAP2 POP POP SWAP3 SWAP2 POP POP JUMP JUMPDEST PUSH2 0x8FC DUP2 PUSH2 0x703 JUMP JUMPDEST DUP2 EQ PUSH2 0x906 JUMPI PUSH0 PUSH0 REVERT JUMPDEST POP JUMP JUMPDEST PUSH0 DUP2 CALLDATALOAD SWAP1 POP PUSH2 0x917 DUP2 PUSH2 0x8F3 JUMP JUMPDEST SWAP3 SWAP2 POP POP JUMP JUMPDEST PUSH0 PUSH0 PUSH1 0x40 DUP4 DUP6 SUB SLT ISZERO PUSH2 0x933 JUMPI PUSH2 0x932 PUSH2 0x636 JUMP JUMPDEST JUMPDEST PUSH0 PUSH2 0x940 DUP6 DUP3 DUP7 ADD PUSH2 0x654 JUMP JUMPDEST SWAP3 POP POP PUSH1 0x20 PUSH2 0x951 DUP6 DUP3 DUP7 ADD PUSH2 0x909 JUMP JUMPDEST SWAP2 POP POP SWAP3 POP SWAP3 SWAP1 POP JUMP JUMPDEST PUSH32 0x4E487B7100000000000000000000000000000000000000000000000000000000 PUSH0 MSTORE PUSH1 0x22 PUSH1 0x4 MSTORE PUSH1 0x24 PUSH0 REVERT JUMPDEST PUSH0 PUSH1 0x2 DUP3 DIV SWAP1 POP PUSH1 0x1 DUP3 AND DUP1 PUSH2 0x99F JUMPI PUSH1 0x7F DUP3 AND SWAP2 POP JUMPDEST PUSH1 0x20 DUP3 LT DUP2 SUB PUSH2 0x9B2 JUMPI PUSH2 0x9B1 PUSH2 0x95B JUMP JUMPDEST JUMPDEST POP SWAP2 SWAP1 POP JUMP JUMPDEST PUSH32 0x55736572206E616D652072657175697265640000000000000000000000000000 PUSH0 DUP3 ADD MSTORE POP JUMP JUMPDEST PUSH0 PUSH2 0x9EC PUSH1 0x12 DUP4 PUSH2 0x69D JUMP JUMPDEST SWAP2 POP PUSH2 0x9F7 DUP3 PUSH2 0x9B8 JUMP JUMPDEST PUSH1 0x20 DUP3 ADD SWAP1 POP SWAP2 SWAP1 POP JUMP JUMPDEST PUSH0 PUSH1 0x20 DUP3 ADD SWAP1 POP DUP2 DUP2 SUB PUSH0 DUP4 ADD MSTORE PUSH2 0xA19 DUP2 PUSH2 0x9E0 JUMP JUMPDEST SWAP1 POP SWAP2 SWAP1 POP JUMP JUMPDEST PUSH32 0x4E487B7100000000000000000000000000000000000000000000000000000000 PUSH0 MSTORE PUSH1 0x11 PUSH1 0x4 MSTORE PUSH1 0x24 PUSH0 REVERT JUMPDEST PUSH0 PUSH2 0xA57 DUP3 PUSH2 0x5FC JUMP JUMPDEST SWAP2 POP PUSH32 0xFFFFFFFFFFFFFFFFFFFFFFFFFFFFFFFFFFFFFFFFFFFFFFFFFFFFFFFFFFFFFFFF DUP3 SUB PUSH2 0xA89 JUMPI PUSH2 0xA88 PUSH2 0xA20 JUMP JUMPDEST JUMPDEST PUSH1 0x1 DUP3 ADD SWAP1 POP SWAP2 SWAP1 POP JUMP JUMPDEST PUSH0 DUP2 SWAP1 POP DUP2 PUSH0 MSTORE PUSH1 0x20 PUSH0 KECCAK256 SWAP1 POP SWAP2 SWAP1 POP JUMP JUMPDEST PUSH0 PUSH1 0x20 PUSH1 0x1F DUP4 ADD DIV SWAP1 POP SWAP2 SWAP1 POP JUMP JUMPDEST PUSH0 DUP3 DUP3 SHL SWAP1 POP SWAP3 SWAP2 POP POP JUMP JUMPDEST PUSH0 PUSH1 0x8 DUP4 MUL PUSH2 0xAF0 PUSH32 0xFFFFFFFFFFFFFFFFFFFFFFFFFFFFFFFFFFFFFFFFFFFFFFFFFFFFFFFFFFFFFFFF DUP3 PUSH2 0xAB5 JUMP JUMPDEST PUSH2 0xAFA DUP7 DUP4 PUSH2 0xAB5 JUMP JUMPDEST SWAP6 POP DUP1 NOT DUP5 AND SWAP4 POP DUP1 DUP7 AND DUP5 OR SWAP3 POP POP POP SWAP4 SWAP3 POP POP POP JUMP JUMPDEST PUSH0 DUP2 SWAP1 POP SWAP2 SWAP1 POP JUMP JUMPDEST PUSH0 PUSH2 0xB35 PUSH2 0xB30 PUSH2 0xB2B DUP5 PUSH2 0x5FC JUMP JUMPDEST PUSH2 0xB12 JUMP JUMPDEST PUSH2 0x5FC JUMP JUMPDEST SWAP1 POP SWAP2 SWAP1 POP JUMP JUMPDEST PUSH0 DUP2 SWAP1 POP SWAP2 SWAP1 POP JUMP JUMPDEST PUSH2 0xB4E DUP4 PUSH2 0xB1B JUMP JUMPDEST PUSH2 0xB62 PUSH2 0xB5A DUP3 PUSH2 0xB3C JUMP JUMPDEST DUP5 DUP5 SLOAD PUSH2 0xAC1 JUMP JUMPDEST DUP3 SSTORE POP POP POP POP JUMP JUMPDEST PUSH0 PUSH0 SWAP1 POP SWAP1 JUMP JUMPDEST PUSH2 0xB79 PUSH2 0xB6A JUMP JUMPDEST PUSH2 0xB84 DUP2 DUP5 DUP5 PUSH2 0xB45 JUMP JUMPDEST POP POP POP JUMP JUMPDEST JUMPDEST DUP2 DUP2 LT ISZERO PUSH2 0xBA7 JUMPI PUSH2 0xB9C PUSH0 DUP3 PUSH2 0xB71 JUMP JUMPDEST PUSH1 0x1 DUP2 ADD SWAP1 POP PUSH2 0xB8A JUMP JUMPDEST POP POP JUMP JUMPDEST PUSH1 0x1F DUP3 GT ISZERO PUSH2 0xBEC JUMPI PUSH2 0xBBD DUP2 PUSH2 0xA94 JUMP JUMPDEST PUSH2 0xBC6 DUP5 PUSH2 0xAA6 JUMP JUMPDEST DUP2 ADD PUSH1 0x20 DUP6 LT ISZERO PUSH2 0xBD5 JUMPI DUP2 SWAP1 POP JUMPDEST PUSH2 0xBE9 PUSH2 0xBE1 DUP6 PUSH2 0xAA6 JUMP JUMPDEST DUP4 ADD DUP3 PUSH2 0xB89 JUMP JUMPDEST POP POP JUMPDEST POP POP POP JUMP JUMPDEST PUSH0 DUP3 DUP3 SHR SWAP1 POP SWAP3 SWAP2 POP POP JUMP JUMPDEST PUSH0 PUSH2 0xC0C PUSH0 NOT DUP5 PUSH1 0x8 MUL PUSH2 0xBF1 JUMP JUMPDEST NOT DUP1 DUP4 AND SWAP2 POP POP SWAP3 SWAP2 POP POP JUMP JUMPDEST PUSH0 PUSH2 0xC24 DUP4 DUP4 PUSH2 0xBFD JUMP JUMPDEST SWAP2 POP DUP3 PUSH1 0x2 MUL DUP3 OR SWAP1 POP SWAP3 SWAP2 POP POP JUMP JUMPDEST PUSH2 0xC3D DUP3 PUSH2 0x693 JUMP JUMPDEST PUSH8 0xFFFFFFFFFFFFFFFF DUP2 GT ISZERO PUSH2 0xC56 JUMPI PUSH2 0xC55 PUSH2 0x788 JUMP JUMPDEST JUMPDEST PUSH2 0xC60 DUP3 SLOAD PUSH2 0x988 JUMP JUMPDEST PUSH2 0xC6B DUP3 DUP3 DUP6 PUSH2 0xBAB JUMP JUMPDEST PUSH0 PUSH1 0x20 SWAP1 POP PUSH1 0x1F DUP4 GT PUSH1 0x1 DUP2 EQ PUSH2 0xC9C JUMPI PUSH0 DUP5 ISZERO PUSH2 0xC8A JUMPI DUP3 DUP8 ADD MLOAD SWAP1 POP JUMPDEST PUSH2 0xC94 DUP6 DUP3 PUSH2 0xC19 JUMP JUMPDEST DUP7 SSTORE POP PUSH2 0xCFB JUMP JUMPDEST PUSH1 0x1F NOT DUP5 AND PUSH2 0xCAA DUP7 PUSH2 0xA94 JUMP JUMPDEST PUSH0 JUMPDEST DUP3 DUP2 LT ISZERO PUSH2 0xCD1 JUMPI DUP5 DUP10 ADD MLOAD DUP3 SSTORE PUSH1 0x1 DUP3 ADD SWAP2 POP PUSH1 0x20 DUP6 ADD SWAP5 POP PUSH1 0x20 DUP2 ADD SWAP1 POP PUSH2 0xCAC JUMP JUMPDEST DUP7 DUP4 LT ISZERO PUSH2 0xCEE JUMPI DUP5 DUP10 ADD MLOAD PUSH2 0xCEA PUSH1 0x1F DUP10 AND DUP3 PUSH2 0xBFD JUMP JUMPDEST DUP4 SSTORE POP JUMPDEST PUSH1 0x1 PUSH1 0x2 DUP9 MUL ADD DUP9 SSTORE POP POP POP JUMPDEST POP POP POP POP POP POP JUMP JUMPDEST PUSH0 PUSH1 0x20 DUP3 ADD SWAP1 POP DUP2 DUP2 SUB PUSH0 DUP4 ADD MSTORE PUSH2 0xD1B DUP2 DUP5 PUSH2 0x6CB JUMP JUMPDEST SWAP1 POP SWAP3 SWAP2 POP POP JUMP JUMPDEST PUSH32 0x5573657220646F6573206E6F7420657869737400000000000000000000000000 PUSH0 DUP3 ADD MSTORE POP JUMP JUMPDEST PUSH0 PUSH2 0xD57 PUSH1 0x13 DUP4 PUSH2 0x69D JUMP JUMPDEST SWAP2 POP PUSH2 0xD62 DUP3 PUSH2 0xD23 JUMP JUMPDEST PUSH1 0x20 DUP3 ADD SWAP1 POP SWAP2 SWAP1 POP JUMP JUMPDEST PUSH0 PUSH1 0x20 DUP3 ADD SWAP1 POP DUP2 DUP2 SUB PUSH0 DUP4 ADD MSTORE PUSH2 0xD84 DUP2 PUSH2 0xD4B JUMP JUMPDEST SWAP1 POP SWAP2 SWAP1 POP JUMP INVALID LOG2 PUSH5 0x6970667358 0x22 SLT KECCAK256 PUSH13 0x3C50C4A15C8488A4361335D725 PUSH24 0xCB5CFD9BE13C011F9E552521270154D73A64736F6C634300 ADDMOD 0x1E STOP CALLER "
				},
				"gasEstimates": {
					"creation": {
						"codeDepositCost": "704200",
						"executionCost": "739",
						"totalCost": "704939"
					},
					"external": {
						"getUser(uint256)": "infinite",
						"isVerifiedUser(uint256)": "2912",
						"registerUser(string)": "infinite",
						"userCount()": "2425",
						"userExists(uint256)": "2816",
						"users(uint256)": "infinite",
						"verifyUser(uint256,bool)": "infinite"
					}
				},
				"methodIdentifiers": {
					"getUser(uint256)": "b0467deb",
					"isVerifiedUser(uint256)": "39721b50",
					"registerUser(string)": "704f1b94",
					"userCount()": "07973ccf",
					"userExists(uint256)": "6f93dd91",
					"users(uint256)": "365b98b2",
					"verifyUser(uint256,bool)": "ed2c317b"
				}
			},
			"storageLayout": {
				"storage": [
					{
						"astId": 454,
						"contract": "assessment3/UserRegistry.sol:UserRegistry",
						"label": "userCount",
						"offset": 0,
						"slot": "0",
						"type": "t_uint256"
					},
					{
						"astId": 459,
						"contract": "assessment3/UserRegistry.sol:UserRegistry",
						"label": "users",
						"offset": 0,
						"slot": "1",
						"type": "t_mapping(t_uint256,t_struct(User)452_storage)"
					}
				],
				"types": {
					"t_bool": {
						"encoding": "inplace",
						"label": "bool",
						"numberOfBytes": "1"
					},
					"t_mapping(t_uint256,t_struct(User)452_storage)": {
						"encoding": "mapping",
						"key": "t_uint256",
						"label": "mapping(uint256 => struct UserRegistry.User)",
						"numberOfBytes": "32",
						"value": "t_struct(User)452_storage"
					},
					"t_string_storage": {
						"encoding": "bytes",
						"label": "string",
						"numberOfBytes": "32"
					},
					"t_struct(User)452_storage": {
						"encoding": "inplace",
						"label": "struct UserRegistry.User",
						"members": [
							{
								"astId": 445,
								"contract": "assessment3/UserRegistry.sol:UserRegistry",
								"label": "id",
								"offset": 0,
								"slot": "0",
								"type": "t_uint256"
							},
							{
								"astId": 447,
								"contract": "assessment3/UserRegistry.sol:UserRegistry",
								"label": "name",
								"offset": 0,
								"slot": "1",
								"type": "t_string_storage"
							},
							{
								"astId": 449,
								"contract": "assessment3/UserRegistry.sol:UserRegistry",
								"label": "exists",
								"offset": 0,
								"slot": "2",
								"type": "t_bool"
							},
							{
								"astId": 451,
								"contract": "assessment3/UserRegistry.sol:UserRegistry",
								"label": "isVerified",
								"offset": 1,
								"slot": "2",
								"type": "t_bool"
							}
						],
						"numberOfBytes": "96"
					},
					"t_uint256": {
						"encoding": "inplace",
						"label": "uint256",
						"numberOfBytes": "32"
					}
				}
			},
			"userdoc": {
				"kind": "user",
				"methods": {},
				"version": 1
			}
		}
	}
}