{
	"assessment3/UserRegistry.sol": {
		"UserRegistry": {
			"abi": [
				{
					"anonymous": false,
					"inputs": [
						{
							"indexed": true,
							"internalType": "uint256",
							"name": "userId",
							"type": "uint256"
						},
						{
							"indexed": false,
							"internalType": "string",
							"name": "name",
							"type": "string"
						},
						{
							"indexed": true,
							"internalType": "address",
							"name": "",
							"type": "address"
						}
					],
					"name": "UserRegistered",
					"type": "event"
				},
				{
					"inputs": [
						{
							"internalType": "uint256",
							"name": "userId",
							"type": "uint256"
						}
					],
					"name": "getUser",
					"outputs": [
						{
							"internalType": "uint256",
							"name": "id",
							"type": "uint256"
						},
						{
							"internalType": "string",
							"name": "name",
							"type": "string"
						}
					],
					"stateMutability": "view",
					"type": "function"
				},
				{
					"inputs": [
						{
							"internalType": "string",
							"name": "name",
							"type": "string"
						}
					],
					"name": "registerUser",
					"outputs": [
						{
							"internalType": "uint256",
							"name": "",
							"type": "uint256"
						}
					],
					"stateMutability": "nonpayable",
					"type": "function"
				},
				{
					"inputs": [],
					"name": "userCount",
					"outputs": [
						{
							"internalType": "uint256",
							"name": "",
							"type": "uint256"
						}
					],
					"stateMutability": "view",
					"type": "function"
				},
				{
					"inputs": [
						{
							"internalType": "uint256",
							"name": "userId",
							"type": "uint256"
						}
					],
					"name": "userExists",
					"outputs": [
						{
							"internalType": "bool",
							"name": "",
							"type": "bool"
						}
					],
					"stateMutability": "view",
					"type": "function"
				},
				{
					"inputs": [
						{
							"internalType": "uint256",
							"name": "",
							"type": "uint256"
						}
					],
					"name": "users",
					"outputs": [
						{
							"internalType": "uint256",
							"name": "id",
							"type": "uint256"
						},
						{
							"internalType": "string",
							"name": "name",
							"type": "string"
						}
					],
					"stateMutability": "view",
					"type": "function"
				}
			],
			"devdoc": {
				"kind": "dev",
				"methods": {},
				"version": 1
			},
			"evm": {
				"assembly": "    /* \"assessment3/UserRegistry.sol\":81:1072  contract UserRegistry {... */\n  mstore(0x40, 0x80)\n  callvalue\n  dup1\n  iszero\n  tag_1\n  jumpi\n  revert(0x00, 0x00)\ntag_1:\n  pop\n  dataSize(sub_0)\n  dup1\n  dataOffset(sub_0)\n  0x00\n  codecopy\n  0x00\n  return\nstop\n\nsub_0: assembly {\n        /* \"assessment3/UserRegistry.sol\":81:1072  contract UserRegistry {... */\n      mstore(0x40, 0x80)\n      callvalue\n      dup1\n      iszero\n      tag_1\n      jumpi\n      revert(0x00, 0x00)\n    tag_1:\n      pop\n      jumpi(tag_2, lt(calldatasize, 0x04))\n      shr(0xe0, calldataload(0x00))\n      dup1\n      0x07973ccf\n      eq\n      tag_3\n      jumpi\n      dup1\n      0x365b98b2\n      eq\n      tag_4\n      jumpi\n      dup1\n      0x6f93dd91\n      eq\n      tag_5\n      jumpi\n      dup1\n      0x704f1b94\n      eq\n      tag_6\n      jumpi\n      dup1\n      0xb0467deb\n      eq\n      tag_7\n      jumpi\n    tag_2:\n      revert(0x00, 0x00)\n        /* \"assessment3/UserRegistry.sol\":204:228  uint256 public userCount */\n    tag_3:\n      tag_8\n      tag_9\n      jump\t// in\n    tag_8:\n      mload(0x40)\n      tag_10\n      swap2\n      swap1\n      tag_11\n      jump\t// in\n    tag_10:\n      mload(0x40)\n      dup1\n      swap2\n      sub\n      swap1\n      return\n        /* \"assessment3/UserRegistry.sol\":235:272  mapping(uint256 => User) public users */\n    tag_4:\n      tag_12\n      0x04\n      dup1\n      calldatasize\n      sub\n      dup2\n      add\n      swap1\n      tag_13\n      swap2\n      swap1\n      tag_14\n      jump\t// in\n    tag_13:\n      tag_15\n      jump\t// in\n    tag_12:\n      mload(0x40)\n      tag_16\n      swap3\n      swap2\n      swap1\n      tag_17\n      jump\t// in\n    tag_16:\n      mload(0x40)\n      dup1\n      swap2\n      sub\n      swap1\n      return\n        /* \"assessment3/UserRegistry.sol\":947:1069  function userExists(uint256 userId) public view returns (bool) {... */\n    tag_5:\n      tag_18\n      0x04\n      dup1\n      calldatasize\n      sub\n      dup2\n      add\n      swap1\n      tag_19\n      swap2\n      swap1\n      tag_14\n      jump\t// in\n    tag_19:\n      tag_20\n      jump\t// in\n    tag_18:\n      mload(0x40)\n      tag_21\n      swap2\n      swap1\n      tag_22\n      jump\t// in\n    tag_21:\n      mload(0x40)\n      dup1\n      swap2\n      sub\n      swap1\n      return\n        /* \"assessment3/UserRegistry.sol\":364:717  function registerUser(string memory name) external returns (uint256) {... */\n    tag_6:\n      tag_23\n      0x04\n      dup1\n      calldatasize\n      sub\n      dup2\n      add\n      swap1\n      tag_24\n      swap2\n      swap1\n      tag_25\n      jump\t// in\n    tag_24:\n      tag_26\n      jump\t// in\n    tag_23:\n      mload(0x40)\n      tag_27\n      swap2\n      swap1\n      tag_11\n      jump\t// in\n    tag_27:\n      mload(0x40)\n      dup1\n      swap2\n      sub\n      swap1\n      return\n        /* \"assessment3/UserRegistry.sol\":748:939  function getUser(uint256 userId) external view... */\n    tag_7:\n      tag_28\n      0x04\n      dup1\n      calldatasize\n      sub\n      dup2\n      add\n      swap1\n      tag_29\n      swap2\n      swap1\n      tag_14\n      jump\t// in\n    tag_29:\n      tag_30\n      jump\t// in\n    tag_28:\n      mload(0x40)\n      tag_31\n      swap3\n      swap2\n      swap1\n      tag_17\n      jump\t// in\n    tag_31:\n      mload(0x40)\n      dup1\n      swap2\n      sub\n      swap1\n      return\n        /* \"assessment3/UserRegistry.sol\":204:228  uint256 public userCount */\n    tag_9:\n      sload(0x00)\n      dup2\n      jump\t// out\n        /* \"assessment3/UserRegistry.sol\":235:272  mapping(uint256 => User) public users */\n    tag_15:\n      mstore(0x20, 0x01)\n      dup1\n      0x00\n      mstore\n      keccak256(0x00, 0x40)\n      0x00\n      swap2\n      pop\n      swap1\n      pop\n      dup1\n      0x00\n      add\n      sload\n      swap1\n      dup1\n      0x01\n      add\n      dup1\n      sload\n      tag_32\n      swap1\n      tag_33\n      jump\t// in\n    tag_32:\n      dup1\n      0x1f\n      add\n      0x20\n      dup1\n      swap2\n      div\n      mul\n      0x20\n      add\n      mload(0x40)\n      swap1\n      dup2\n      add\n      0x40\n      mstore\n      dup1\n      swap3\n      swap2\n      swap1\n      dup2\n      dup2\n      mstore\n      0x20\n      add\n      dup3\n      dup1\n      sload\n      tag_34\n      swap1\n      tag_33\n      jump\t// in\n    tag_34:\n      dup1\n      iszero\n      tag_35\n      jumpi\n      dup1\n      0x1f\n      lt\n      tag_36\n      jumpi\n      0x0100\n      dup1\n      dup4\n      sload\n      div\n      mul\n      dup4\n      mstore\n      swap2\n      0x20\n      add\n      swap2\n      jump(tag_35)\n    tag_36:\n      dup3\n      add\n      swap2\n      swap1\n      0x00\n      mstore\n      keccak256(0x00, 0x20)\n      swap1\n    tag_37:\n      dup2\n      sload\n      dup2\n      mstore\n      swap1\n      0x01\n      add\n      swap1\n      0x20\n      add\n      dup1\n      dup4\n      gt\n      tag_37\n      jumpi\n      dup3\n      swap1\n      sub\n      0x1f\n      and\n      dup3\n      add\n      swap2\n    tag_35:\n      pop\n      pop\n      pop\n      pop\n      pop\n      swap1\n      pop\n      dup3\n      jump\t// out\n        /* \"assessment3/UserRegistry.sol\":947:1069  function userExists(uint256 userId) public view returns (bool) {... */\n    tag_20:\n        /* \"assessment3/UserRegistry.sol\":1004:1008  bool */\n      0x00\n        /* \"assessment3/UserRegistry.sol\":1037:1038  0 */\n      0x00\n        /* \"assessment3/UserRegistry.sol\":1028:1034  userId */\n      dup3\n        /* \"assessment3/UserRegistry.sol\":1028:1038  userId > 0 */\n      gt\n        /* \"assessment3/UserRegistry.sol\":1028:1061  userId > 0 && userId <= userCount */\n      dup1\n      iszero\n      tag_39\n      jumpi\n      pop\n        /* \"assessment3/UserRegistry.sol\":1052:1061  userCount */\n      sload(0x00)\n        /* \"assessment3/UserRegistry.sol\":1042:1048  userId */\n      dup3\n        /* \"assessment3/UserRegistry.sol\":1042:1061  userId <= userCount */\n      gt\n      iszero\n        /* \"assessment3/UserRegistry.sol\":1028:1061  userId > 0 && userId <= userCount */\n    tag_39:\n        /* \"assessment3/UserRegistry.sol\":1021:1061  return userId > 0 && userId <= userCount */\n      swap1\n      pop\n        /* \"assessment3/UserRegistry.sol\":947:1069  function userExists(uint256 userId) public view returns (bool) {... */\n      swap2\n      swap1\n      pop\n      jump\t// out\n        /* \"assessment3/UserRegistry.sol\":364:717  function registerUser(string memory name) external returns (uint256) {... */\n    tag_26:\n        /* \"assessment3/UserRegistry.sol\":424:431  uint256 */\n      0x00\n        /* \"assessment3/UserRegistry.sol\":473:474  0 */\n      0x00\n        /* \"assessment3/UserRegistry.sol\":458:462  name */\n      dup3\n        /* \"assessment3/UserRegistry.sol\":452:470  bytes(name).length */\n      mload\n        /* \"assessment3/UserRegistry.sol\":452:474  bytes(name).length > 0 */\n      gt\n        /* \"assessment3/UserRegistry.sol\":444:497  require(bytes(name).length > 0, \"User name required\") */\n      tag_41\n      jumpi\n      mload(0x40)\n      0x08c379a000000000000000000000000000000000000000000000000000000000\n      dup2\n      mstore\n      0x04\n      add\n      tag_42\n      swap1\n      tag_43\n      jump\t// in\n    tag_42:\n      mload(0x40)\n      dup1\n      swap2\n      sub\n      swap1\n      revert\n    tag_41:\n        /* \"assessment3/UserRegistry.sol\":508:517  userCount */\n      0x00\n      0x00\n        /* \"assessment3/UserRegistry.sol\":508:519  userCount++ */\n      dup2\n      sload\n      dup1\n      swap3\n      swap2\n      swap1\n      tag_44\n      swap1\n      tag_45\n      jump\t// in\n    tag_44:\n      swap2\n      swap1\n      pop\n      sstore\n      pop\n        /* \"assessment3/UserRegistry.sol\":551:621  User({... */\n      mload(0x40)\n      dup1\n      0x40\n      add\n      0x40\n      mstore\n      dup1\n        /* \"assessment3/UserRegistry.sol\":575:584  userCount */\n      sload(0x00)\n        /* \"assessment3/UserRegistry.sol\":551:621  User({... */\n      dup2\n      mstore\n      0x20\n      add\n        /* \"assessment3/UserRegistry.sol\":605:609  name */\n      dup4\n        /* \"assessment3/UserRegistry.sol\":551:621  User({... */\n      dup2\n      mstore\n      pop\n        /* \"assessment3/UserRegistry.sol\":532:537  users */\n      0x01\n        /* \"assessment3/UserRegistry.sol\":532:548  users[userCount] */\n      0x00\n        /* \"assessment3/UserRegistry.sol\":538:547  userCount */\n      sload(0x00)\n        /* \"assessment3/UserRegistry.sol\":532:548  users[userCount] */\n      dup2\n      mstore\n      0x20\n      add\n      swap1\n      dup2\n      mstore\n      0x20\n      add\n      0x00\n      keccak256\n        /* \"assessment3/UserRegistry.sol\":532:621  users[userCount] = User({... */\n      0x00\n      dup3\n      add\n      mload\n      dup2\n      0x00\n      add\n      sstore\n      0x20\n      dup3\n      add\n      mload\n      dup2\n      0x01\n      add\n      swap1\n      dup2\n      tag_46\n      swap2\n      swap1\n      tag_47\n      jump\t// in\n    tag_46:\n      pop\n      swap1\n      pop\n      pop\n        /* \"assessment3/UserRegistry.sol\":671:681  msg.sender */\n      caller\n        /* \"assessment3/UserRegistry.sol\":639:682  UserRegistered(userCount, name, msg.sender) */\n      0xffffffffffffffffffffffffffffffffffffffff\n      and\n        /* \"assessment3/UserRegistry.sol\":654:663  userCount */\n      sload(0x00)\n        /* \"assessment3/UserRegistry.sol\":639:682  UserRegistered(userCount, name, msg.sender) */\n      0xf9f470b753810725157b794665955ed6428420a93ae28c045cc736ff3306848f\n        /* \"assessment3/UserRegistry.sol\":665:669  name */\n      dup5\n        /* \"assessment3/UserRegistry.sol\":639:682  UserRegistered(userCount, name, msg.sender) */\n      mload(0x40)\n      tag_48\n      swap2\n      swap1\n      tag_49\n      jump\t// in\n    tag_48:\n      mload(0x40)\n      dup1\n      swap2\n      sub\n      swap1\n      log3\n        /* \"assessment3/UserRegistry.sol\":700:709  userCount */\n      sload(0x00)\n        /* \"assessment3/UserRegistry.sol\":693:709  return userCount */\n      swap1\n      pop\n        /* \"assessment3/UserRegistry.sol\":364:717  function registerUser(string memory name) external returns (uint256) {... */\n      swap2\n      swap1\n      pop\n      jump\t// out\n        /* \"assessment3/UserRegistry.sol\":748:939  function getUser(uint256 userId) external view... */\n    tag_30:\n        /* \"assessment3/UserRegistry.sol\":813:823  uint256 id */\n      0x00\n        /* \"assessment3/UserRegistry.sol\":825:843  string memory name */\n      0x60\n        /* \"assessment3/UserRegistry.sol\":861:877  User memory user */\n      0x00\n        /* \"assessment3/UserRegistry.sol\":880:885  users */\n      0x01\n        /* \"assessment3/UserRegistry.sol\":880:893  users[userId] */\n      0x00\n        /* \"assessment3/UserRegistry.sol\":886:892  userId */\n      dup6\n        /* \"assessment3/UserRegistry.sol\":880:893  users[userId] */\n      dup2\n      mstore\n      0x20\n      add\n      swap1\n      dup2\n      mstore\n      0x20\n      add\n      0x00\n      keccak256\n        /* \"assessment3/UserRegistry.sol\":861:893  User memory user = users[userId] */\n      mload(0x40)\n      dup1\n      0x40\n      add\n      0x40\n      mstore\n      swap1\n      dup2\n      0x00\n      dup3\n      add\n      sload\n      dup2\n      mstore\n      0x20\n      add\n      0x01\n      dup3\n      add\n      dup1\n      sload\n      tag_51\n      swap1\n      tag_33\n      jump\t// in\n    tag_51:\n      dup1\n      0x1f\n      add\n      0x20\n      dup1\n      swap2\n      div\n      mul\n      0x20\n      add\n      mload(0x40)\n      swap1\n      dup2\n      add\n      0x40\n      mstore\n      dup1\n      swap3\n      swap2\n      swap1\n      dup2\n      dup2\n      mstore\n      0x20\n      add\n      dup3\n      dup1\n      sload\n      tag_52\n      swap1\n      tag_33\n      jump\t// in\n    tag_52:\n      dup1\n      iszero\n      tag_53\n      jumpi\n      dup1\n      0x1f\n      lt\n      tag_54\n      jumpi\n      0x0100\n      dup1\n      dup4\n      sload\n      div\n      mul\n      dup4\n      mstore\n      swap2\n      0x20\n      add\n      swap2\n      jump(tag_53)\n    tag_54:\n      dup3\n      add\n      swap2\n      swap1\n      0x00\n      mstore\n      keccak256(0x00, 0x20)\n      swap1\n    tag_55:\n      dup2\n      sload\n      dup2\n      mstore\n      swap1\n      0x01\n      add\n      swap1\n      0x20\n      add\n      dup1\n      dup4\n      gt\n      tag_55\n      jumpi\n      dup3\n      swap1\n      sub\n      0x1f\n      and\n      dup3\n      add\n      swap2\n    tag_53:\n      pop\n      pop\n      pop\n      pop\n      pop\n      dup2\n      mstore\n      pop\n      pop\n      swap1\n      pop\n        /* \"assessment3/UserRegistry.sol\":912:916  user */\n      dup1\n        /* \"assessment3/UserRegistry.sol\":912:919  user.id */\n      0x00\n      add\n      mload\n        /* \"assessment3/UserRegistry.sol\":921:925  user */\n      dup2\n        /* \"assessment3/UserRegistry.sol\":921:930  user.name */\n      0x20\n      add\n      mload\n        /* \"assessment3/UserRegistry.sol\":904:931  return (user.id, user.name) */\n      swap3\n      pop\n      swap3\n      pop\n      pop\n        /* \"assessment3/UserRegistry.sol\":748:939  function getUser(uint256 userId) external view... */\n      swap2\n      pop\n      swap2\n      jump\t// out\n        /* \"#utility.yul\":7:84   */\n    tag_56:\n        /* \"#utility.yul\":44:51   */\n      0x00\n        /* \"#utility.yul\":73:78   */\n      dup2\n        /* \"#utility.yul\":62:78   */\n      swap1\n      pop\n        /* \"#utility.yul\":7:84   */\n      swap2\n      swap1\n      pop\n      jump\t// out\n        /* \"#utility.yul\":90:208   */\n    tag_57:\n        /* \"#utility.yul\":177:201   */\n      tag_101\n        /* \"#utility.yul\":195:200   */\n      dup2\n        /* \"#utility.yul\":177:201   */\n      tag_56\n      jump\t// in\n    tag_101:\n        /* \"#utility.yul\":172:175   */\n      dup3\n        /* \"#utility.yul\":165:202   */\n      mstore\n        /* \"#utility.yul\":90:208   */\n      pop\n      pop\n      jump\t// out\n        /* \"#utility.yul\":214:436   */\n    tag_11:\n        /* \"#utility.yul\":307:311   */\n      0x00\n        /* \"#utility.yul\":345:347   */\n      0x20\n        /* \"#utility.yul\":334:343   */\n      dup3\n        /* \"#utility.yul\":330:348   */\n      add\n        /* \"#utility.yul\":322:348   */\n      swap1\n      pop\n        /* \"#utility.yul\":358:429   */\n      tag_103\n        /* \"#utility.yul\":426:427   */\n      0x00\n        /* \"#utility.yul\":415:424   */\n      dup4\n        /* \"#utility.yul\":411:428   */\n      add\n        /* \"#utility.yul\":402:408   */\n      dup5\n        /* \"#utility.yul\":358:429   */\n      tag_57\n      jump\t// in\n    tag_103:\n        /* \"#utility.yul\":214:436   */\n      swap3\n      swap2\n      pop\n      pop\n      jump\t// out\n        /* \"#utility.yul\":442:517   */\n    tag_58:\n        /* \"#utility.yul\":475:481   */\n      0x00\n        /* \"#utility.yul\":508:510   */\n      0x40\n        /* \"#utility.yul\":502:511   */\n      mload\n        /* \"#utility.yul\":492:511   */\n      swap1\n      pop\n        /* \"#utility.yul\":442:517   */\n      swap1\n      jump\t// out\n        /* \"#utility.yul\":523:640   */\n    tag_59:\n        /* \"#utility.yul\":632:633   */\n      0x00\n        /* \"#utility.yul\":629:630   */\n      0x00\n        /* \"#utility.yul\":622:634   */\n      revert\n        /* \"#utility.yul\":646:763   */\n    tag_60:\n        /* \"#utility.yul\":755:756   */\n      0x00\n        /* \"#utility.yul\":752:753   */\n      0x00\n        /* \"#utility.yul\":745:757   */\n      revert\n        /* \"#utility.yul\":769:891   */\n    tag_61:\n        /* \"#utility.yul\":842:866   */\n      tag_108\n        /* \"#utility.yul\":860:865   */\n      dup2\n        /* \"#utility.yul\":842:866   */\n      tag_56\n      jump\t// in\n    tag_108:\n        /* \"#utility.yul\":835:840   */\n      dup2\n        /* \"#utility.yul\":832:867   */\n      eq\n        /* \"#utility.yul\":822:885   */\n      tag_109\n      jumpi\n        /* \"#utility.yul\":881:882   */\n      0x00\n        /* \"#utility.yul\":878:879   */\n      0x00\n        /* \"#utility.yul\":871:883   */\n      revert\n        /* \"#utility.yul\":822:885   */\n    tag_109:\n        /* \"#utility.yul\":769:891   */\n      pop\n      jump\t// out\n        /* \"#utility.yul\":897:1036   */\n    tag_62:\n        /* \"#utility.yul\":943:948   */\n      0x00\n        /* \"#utility.yul\":981:987   */\n      dup2\n        /* \"#utility.yul\":968:988   */\n      calldataload\n        /* \"#utility.yul\":959:988   */\n      swap1\n      pop\n        /* \"#utility.yul\":997:1030   */\n      tag_111\n        /* \"#utility.yul\":1024:1029   */\n      dup2\n        /* \"#utility.yul\":997:1030   */\n      tag_61\n      jump\t// in\n    tag_111:\n        /* \"#utility.yul\":897:1036   */\n      swap3\n      swap2\n      pop\n      pop\n      jump\t// out\n        /* \"#utility.yul\":1042:1371   */\n    tag_14:\n        /* \"#utility.yul\":1101:1107   */\n      0x00\n        /* \"#utility.yul\":1150:1152   */\n      0x20\n        /* \"#utility.yul\":1138:1147   */\n      dup3\n        /* \"#utility.yul\":1129:1136   */\n      dup5\n        /* \"#utility.yul\":1125:1148   */\n      sub\n        /* \"#utility.yul\":1121:1153   */\n      slt\n        /* \"#utility.yul\":1118:1237   */\n      iszero\n      tag_113\n      jumpi\n        /* \"#utility.yul\":1156:1235   */\n      tag_114\n      tag_59\n      jump\t// in\n    tag_114:\n        /* \"#utility.yul\":1118:1237   */\n    tag_113:\n        /* \"#utility.yul\":1276:1277   */\n      0x00\n        /* \"#utility.yul\":1301:1354   */\n      tag_115\n        /* \"#utility.yul\":1346:1353   */\n      dup5\n        /* \"#utility.yul\":1337:1343   */\n      dup3\n        /* \"#utility.yul\":1326:1335   */\n      dup6\n        /* \"#utility.yul\":1322:1344   */\n      add\n        /* \"#utility.yul\":1301:1354   */\n      tag_62\n      jump\t// in\n    tag_115:\n        /* \"#utility.yul\":1291:1354   */\n      swap2\n      pop\n        /* \"#utility.yul\":1247:1364   */\n      pop\n        /* \"#utility.yul\":1042:1371   */\n      swap3\n      swap2\n      pop\n      pop\n      jump\t// out\n        /* \"#utility.yul\":1377:1476   */\n    tag_63:\n        /* \"#utility.yul\":1429:1435   */\n      0x00\n        /* \"#utility.yul\":1463:1468   */\n      dup2\n        /* \"#utility.yul\":1457:1469   */\n      mload\n        /* \"#utility.yul\":1447:1469   */\n      swap1\n      pop\n        /* \"#utility.yul\":1377:1476   */\n      swap2\n      swap1\n      pop\n      jump\t// out\n        /* \"#utility.yul\":1482:1651   */\n    tag_64:\n        /* \"#utility.yul\":1566:1577   */\n      0x00\n        /* \"#utility.yul\":1600:1606   */\n      dup3\n        /* \"#utility.yul\":1595:1598   */\n      dup3\n        /* \"#utility.yul\":1588:1607   */\n      mstore\n        /* \"#utility.yul\":1640:1644   */\n      0x20\n        /* \"#utility.yul\":1635:1638   */\n      dup3\n        /* \"#utility.yul\":1631:1645   */\n      add\n        /* \"#utility.yul\":1616:1645   */\n      swap1\n      pop\n        /* \"#utility.yul\":1482:1651   */\n      swap3\n      swap2\n      pop\n      pop\n      jump\t// out\n        /* \"#utility.yul\":1657:1796   */\n    tag_65:\n        /* \"#utility.yul\":1746:1752   */\n      dup3\n        /* \"#utility.yul\":1741:1744   */\n      dup2\n        /* \"#utility.yul\":1736:1739   */\n      dup4\n        /* \"#utility.yul\":1730:1753   */\n      mcopy\n        /* \"#utility.yul\":1787:1788   */\n      0x00\n        /* \"#utility.yul\":1778:1784   */\n      dup4\n        /* \"#utility.yul\":1773:1776   */\n      dup4\n        /* \"#utility.yul\":1769:1785   */\n      add\n        /* \"#utility.yul\":1762:1789   */\n      mstore\n        /* \"#utility.yul\":1657:1796   */\n      pop\n      pop\n      pop\n      jump\t// out\n        /* \"#utility.yul\":1802:1904   */\n    tag_66:\n        /* \"#utility.yul\":1843:1849   */\n      0x00\n        /* \"#utility.yul\":1894:1896   */\n      0x1f\n        /* \"#utility.yul\":1890:1897   */\n      not\n        /* \"#utility.yul\":1885:1887   */\n      0x1f\n        /* \"#utility.yul\":1878:1883   */\n      dup4\n        /* \"#utility.yul\":1874:1888   */\n      add\n        /* \"#utility.yul\":1870:1898   */\n      and\n        /* \"#utility.yul\":1860:1898   */\n      swap1\n      pop\n        /* \"#utility.yul\":1802:1904   */\n      swap2\n      swap1\n      pop\n      jump\t// out\n        /* \"#utility.yul\":1910:2287   */\n    tag_67:\n        /* \"#utility.yul\":1998:2001   */\n      0x00\n        /* \"#utility.yul\":2026:2065   */\n      tag_121\n        /* \"#utility.yul\":2059:2064   */\n      dup3\n        /* \"#utility.yul\":2026:2065   */\n      tag_63\n      jump\t// in\n    tag_121:\n        /* \"#utility.yul\":2081:2152   */\n      tag_122\n        /* \"#utility.yul\":2145:2151   */\n      dup2\n        /* \"#utility.yul\":2140:2143   */\n      dup6\n        /* \"#utility.yul\":2081:2152   */\n      tag_64\n      jump\t// in\n    tag_122:\n        /* \"#utility.yul\":2074:2152   */\n      swap4\n      pop\n        /* \"#utility.yul\":2161:2226   */\n      tag_123\n        /* \"#utility.yul\":2219:2225   */\n      dup2\n        /* \"#utility.yul\":2214:2217   */\n      dup6\n        /* \"#utility.yul\":2207:2211   */\n      0x20\n        /* \"#utility.yul\":2200:2205   */\n      dup7\n        /* \"#utility.yul\":2196:2212   */\n      add\n        /* \"#utility.yul\":2161:2226   */\n      tag_65\n      jump\t// in\n    tag_123:\n        /* \"#utility.yul\":2251:2280   */\n      tag_124\n        /* \"#utility.yul\":2273:2279   */\n      dup2\n        /* \"#utility.yul\":2251:2280   */\n      tag_66\n      jump\t// in\n    tag_124:\n        /* \"#utility.yul\":2246:2249   */\n      dup5\n        /* \"#utility.yul\":2242:2281   */\n      add\n        /* \"#utility.yul\":2235:2281   */\n      swap2\n      pop\n        /* \"#utility.yul\":2002:2287   */\n      pop\n        /* \"#utility.yul\":1910:2287   */\n      swap3\n      swap2\n      pop\n      pop\n      jump\t// out\n        /* \"#utility.yul\":2293:2716   */\n    tag_17:\n        /* \"#utility.yul\":2434:2438   */\n      0x00\n        /* \"#utility.yul\":2472:2474   */\n      0x40\n        /* \"#utility.yul\":2461:2470   */\n      dup3\n        /* \"#utility.yul\":2457:2475   */\n      add\n        /* \"#utility.yul\":2449:2475   */\n      swap1\n      pop\n        /* \"#utility.yul\":2485:2556   */\n      tag_126\n        /* \"#utility.yul\":2553:2554   */\n      0x00\n        /* \"#utility.yul\":2542:2551   */\n      dup4\n        /* \"#utility.yul\":2538:2555   */\n      add\n        /* \"#utility.yul\":2529:2535   */\n      dup6\n        /* \"#utility.yul\":2485:2556   */\n      tag_57\n      jump\t// in\n    tag_126:\n        /* \"#utility.yul\":2603:2612   */\n      dup2\n        /* \"#utility.yul\":2597:2601   */\n      dup2\n        /* \"#utility.yul\":2593:2613   */\n      sub\n        /* \"#utility.yul\":2588:2590   */\n      0x20\n        /* \"#utility.yul\":2577:2586   */\n      dup4\n        /* \"#utility.yul\":2573:2591   */\n      add\n        /* \"#utility.yul\":2566:2614   */\n      mstore\n        /* \"#utility.yul\":2631:2709   */\n      tag_127\n        /* \"#utility.yul\":2704:2708   */\n      dup2\n        /* \"#utility.yul\":2695:2701   */\n      dup5\n        /* \"#utility.yul\":2631:2709   */\n      tag_67\n      jump\t// in\n    tag_127:\n        /* \"#utility.yul\":2623:2709   */\n      swap1\n      pop\n        /* \"#utility.yul\":2293:2716   */\n      swap4\n      swap3\n      pop\n      pop\n      pop\n      jump\t// out\n        /* \"#utility.yul\":2722:2812   */\n    tag_68:\n        /* \"#utility.yul\":2756:2763   */\n      0x00\n        /* \"#utility.yul\":2799:2804   */\n      dup2\n        /* \"#utility.yul\":2792:2805   */\n      iszero\n        /* \"#utility.yul\":2785:2806   */\n      iszero\n        /* \"#utility.yul\":2774:2806   */\n      swap1\n      pop\n        /* \"#utility.yul\":2722:2812   */\n      swap2\n      swap1\n      pop\n      jump\t// out\n        /* \"#utility.yul\":2818:2927   */\n    tag_69:\n        /* \"#utility.yul\":2899:2920   */\n      tag_130\n        /* \"#utility.yul\":2914:2919   */\n      dup2\n        /* \"#utility.yul\":2899:2920   */\n      tag_68\n      jump\t// in\n    tag_130:\n        /* \"#utility.yul\":2894:2897   */\n      dup3\n        /* \"#utility.yul\":2887:2921   */\n      mstore\n        /* \"#utility.yul\":2818:2927   */\n      pop\n      pop\n      jump\t// out\n        /* \"#utility.yul\":2933:3143   */\n    tag_22:\n        /* \"#utility.yul\":3020:3024   */\n      0x00\n        /* \"#utility.yul\":3058:3060   */\n      0x20\n        /* \"#utility.yul\":3047:3056   */\n      dup3\n        /* \"#utility.yul\":3043:3061   */\n      add\n        /* \"#utility.yul\":3035:3061   */\n      swap1\n      pop\n        /* \"#utility.yul\":3071:3136   */\n      tag_132\n        /* \"#utility.yul\":3133:3134   */\n      0x00\n        /* \"#utility.yul\":3122:3131   */\n      dup4\n        /* \"#utility.yul\":3118:3135   */\n      add\n        /* \"#utility.yul\":3109:3115   */\n      dup5\n        /* \"#utility.yul\":3071:3136   */\n      tag_69\n      jump\t// in\n    tag_132:\n        /* \"#utility.yul\":2933:3143   */\n      swap3\n      swap2\n      pop\n      pop\n      jump\t// out\n        /* \"#utility.yul\":3149:3266   */\n    tag_70:\n        /* \"#utility.yul\":3258:3259   */\n      0x00\n        /* \"#utility.yul\":3255:3256   */\n      0x00\n        /* \"#utility.yul\":3248:3260   */\n      revert\n        /* \"#utility.yul\":3272:3389   */\n    tag_71:\n        /* \"#utility.yul\":3381:3382   */\n      0x00\n        /* \"#utility.yul\":3378:3379   */\n      0x00\n        /* \"#utility.yul\":3371:3383   */\n      revert\n        /* \"#utility.yul\":3395:3575   */\n    tag_72:\n        /* \"#utility.yul\":3443:3520   */\n      0x4e487b7100000000000000000000000000000000000000000000000000000000\n        /* \"#utility.yul\":3440:3441   */\n      0x00\n        /* \"#utility.yul\":3433:3521   */\n      mstore\n        /* \"#utility.yul\":3540:3544   */\n      0x41\n        /* \"#utility.yul\":3537:3538   */\n      0x04\n        /* \"#utility.yul\":3530:3545   */\n      mstore\n        /* \"#utility.yul\":3564:3568   */\n      0x24\n        /* \"#utility.yul\":3561:3562   */\n      0x00\n        /* \"#utility.yul\":3554:3569   */\n      revert\n        /* \"#utility.yul\":3581:3862   */\n    tag_73:\n        /* \"#utility.yul\":3664:3691   */\n      tag_137\n        /* \"#utility.yul\":3686:3690   */\n      dup3\n        /* \"#utility.yul\":3664:3691   */\n      tag_66\n      jump\t// in\n    tag_137:\n        /* \"#utility.yul\":3656:3662   */\n      dup2\n        /* \"#utility.yul\":3652:3692   */\n      add\n        /* \"#utility.yul\":3794:3800   */\n      dup2\n        /* \"#utility.yul\":3782:3792   */\n      dup2\n        /* \"#utility.yul\":3779:3801   */\n      lt\n        /* \"#utility.yul\":3758:3776   */\n      0xffffffffffffffff\n        /* \"#utility.yul\":3746:3756   */\n      dup3\n        /* \"#utility.yul\":3743:3777   */\n      gt\n        /* \"#utility.yul\":3740:3802   */\n      or\n        /* \"#utility.yul\":3737:3825   */\n      iszero\n      tag_138\n      jumpi\n        /* \"#utility.yul\":3805:3823   */\n      tag_139\n      tag_72\n      jump\t// in\n    tag_139:\n        /* \"#utility.yul\":3737:3825   */\n    tag_138:\n        /* \"#utility.yul\":3845:3855   */\n      dup1\n        /* \"#utility.yul\":3841:3843   */\n      0x40\n        /* \"#utility.yul\":3834:3856   */\n      mstore\n        /* \"#utility.yul\":3624:3862   */\n      pop\n        /* \"#utility.yul\":3581:3862   */\n      pop\n      pop\n      jump\t// out\n        /* \"#utility.yul\":3868:3997   */\n    tag_74:\n        /* \"#utility.yul\":3902:3908   */\n      0x00\n        /* \"#utility.yul\":3929:3949   */\n      tag_141\n      tag_58\n      jump\t// in\n    tag_141:\n        /* \"#utility.yul\":3919:3949   */\n      swap1\n      pop\n        /* \"#utility.yul\":3958:3991   */\n      tag_142\n        /* \"#utility.yul\":3986:3990   */\n      dup3\n        /* \"#utility.yul\":3978:3984   */\n      dup3\n        /* \"#utility.yul\":3958:3991   */\n      tag_73\n      jump\t// in\n    tag_142:\n        /* \"#utility.yul\":3868:3997   */\n      swap2\n      swap1\n      pop\n      jump\t// out\n        /* \"#utility.yul\":4003:4311   */\n    tag_75:\n        /* \"#utility.yul\":4065:4069   */\n      0x00\n        /* \"#utility.yul\":4155:4173   */\n      0xffffffffffffffff\n        /* \"#utility.yul\":4147:4153   */\n      dup3\n        /* \"#utility.yul\":4144:4174   */\n      gt\n        /* \"#utility.yul\":4141:4197   */\n      iszero\n      tag_144\n      jumpi\n        /* \"#utility.yul\":4177:4195   */\n      tag_145\n      tag_72\n      jump\t// in\n    tag_145:\n        /* \"#utility.yul\":4141:4197   */\n    tag_144:\n        /* \"#utility.yul\":4215:4244   */\n      tag_146\n        /* \"#utility.yul\":4237:4243   */\n      dup3\n        /* \"#utility.yul\":4215:4244   */\n      tag_66\n      jump\t// in\n    tag_146:\n        /* \"#utility.yul\":4207:4244   */\n      swap1\n      pop\n        /* \"#utility.yul\":4299:4303   */\n      0x20\n        /* \"#utility.yul\":4293:4297   */\n      dup2\n        /* \"#utility.yul\":4289:4304   */\n      add\n        /* \"#utility.yul\":4281:4304   */\n      swap1\n      pop\n        /* \"#utility.yul\":4003:4311   */\n      swap2\n      swap1\n      pop\n      jump\t// out\n        /* \"#utility.yul\":4317:4465   */\n    tag_76:\n        /* \"#utility.yul\":4415:4421   */\n      dup3\n        /* \"#utility.yul\":4410:4413   */\n      dup2\n        /* \"#utility.yul\":4405:4408   */\n      dup4\n        /* \"#utility.yul\":4392:4422   */\n      calldatacopy\n        /* \"#utility.yul\":4456:4457   */\n      0x00\n        /* \"#utility.yul\":4447:4453   */\n      dup4\n        /* \"#utility.yul\":4442:4445   */\n      dup4\n        /* \"#utility.yul\":4438:4454   */\n      add\n        /* \"#utility.yul\":4431:4458   */\n      mstore\n        /* \"#utility.yul\":4317:4465   */\n      pop\n      pop\n      pop\n      jump\t// out\n        /* \"#utility.yul\":4471:4896   */\n    tag_77:\n        /* \"#utility.yul\":4549:4554   */\n      0x00\n        /* \"#utility.yul\":4574:4640   */\n      tag_149\n        /* \"#utility.yul\":4590:4639   */\n      tag_150\n        /* \"#utility.yul\":4632:4638   */\n      dup5\n        /* \"#utility.yul\":4590:4639   */\n      tag_75\n      jump\t// in\n    tag_150:\n        /* \"#utility.yul\":4574:4640   */\n      tag_74\n      jump\t// in\n    tag_149:\n        /* \"#utility.yul\":4565:4640   */\n      swap1\n      pop\n        /* \"#utility.yul\":4663:4669   */\n      dup3\n        /* \"#utility.yul\":4656:4661   */\n      dup2\n        /* \"#utility.yul\":4649:4670   */\n      mstore\n        /* \"#utility.yul\":4701:4705   */\n      0x20\n        /* \"#utility.yul\":4694:4699   */\n      dup2\n        /* \"#utility.yul\":4690:4706   */\n      add\n        /* \"#utility.yul\":4739:4742   */\n      dup5\n        /* \"#utility.yul\":4730:4736   */\n      dup5\n        /* \"#utility.yul\":4725:4728   */\n      dup5\n        /* \"#utility.yul\":4721:4737   */\n      add\n        /* \"#utility.yul\":4718:4743   */\n      gt\n        /* \"#utility.yul\":4715:4827   */\n      iszero\n      tag_151\n      jumpi\n        /* \"#utility.yul\":4746:4825   */\n      tag_152\n      tag_71\n      jump\t// in\n    tag_152:\n        /* \"#utility.yul\":4715:4827   */\n    tag_151:\n        /* \"#utility.yul\":4836:4890   */\n      tag_153\n        /* \"#utility.yul\":4883:4889   */\n      dup5\n        /* \"#utility.yul\":4878:4881   */\n      dup3\n        /* \"#utility.yul\":4873:4876   */\n      dup6\n        /* \"#utility.yul\":4836:4890   */\n      tag_76\n      jump\t// in\n    tag_153:\n        /* \"#utility.yul\":4555:4896   */\n      pop\n        /* \"#utility.yul\":4471:4896   */\n      swap4\n      swap3\n      pop\n      pop\n      pop\n      jump\t// out\n        /* \"#utility.yul\":4916:5256   */\n    tag_78:\n        /* \"#utility.yul\":4972:4977   */\n      0x00\n        /* \"#utility.yul\":5021:5024   */\n      dup3\n        /* \"#utility.yul\":5014:5018   */\n      0x1f\n        /* \"#utility.yul\":5006:5012   */\n      dup4\n        /* \"#utility.yul\":5002:5019   */\n      add\n        /* \"#utility.yul\":4998:5025   */\n      slt\n        /* \"#utility.yul\":4988:5110   */\n      tag_155\n      jumpi\n        /* \"#utility.yul\":5029:5108   */\n      tag_156\n      tag_70\n      jump\t// in\n    tag_156:\n        /* \"#utility.yul\":4988:5110   */\n    tag_155:\n        /* \"#utility.yul\":5146:5152   */\n      dup2\n        /* \"#utility.yul\":5133:5153   */\n      calldataload\n        /* \"#utility.yul\":5171:5250   */\n      tag_157\n        /* \"#utility.yul\":5246:5249   */\n      dup5\n        /* \"#utility.yul\":5238:5244   */\n      dup3\n        /* \"#utility.yul\":5231:5235   */\n      0x20\n        /* \"#utility.yul\":5223:5229   */\n      dup7\n        /* \"#utility.yul\":5219:5236   */\n      add\n        /* \"#utility.yul\":5171:5250   */\n      tag_77\n      jump\t// in\n    tag_157:\n        /* \"#utility.yul\":5162:5250   */\n      swap2\n      pop\n        /* \"#utility.yul\":4978:5256   */\n      pop\n        /* \"#utility.yul\":4916:5256   */\n      swap3\n      swap2\n      pop\n      pop\n      jump\t// out\n        /* \"#utility.yul\":5262:5771   */\n    tag_25:\n        /* \"#utility.yul\":5331:5337   */\n      0x00\n        /* \"#utility.yul\":5380:5382   */\n      0x20\n        /* \"#utility.yul\":5368:5377   */\n      dup3\n        /* \"#utility.yul\":5359:5366   */\n      dup5\n        /* \"#utility.yul\":5355:5378   */\n      sub\n        /* \"#utility.yul\":5351:5383   */\n      slt\n        /* \"#utility.yul\":5348:5467   */\n      iszero\n      tag_159\n      jumpi\n        /* \"#utility.yul\":5386:5465   */\n      tag_160\n      tag_59\n      jump\t// in\n    tag_160:\n        /* \"#utility.yul\":5348:5467   */\n    tag_159:\n        /* \"#utility.yul\":5534:5535   */\n      0x00\n        /* \"#utility.yul\":5523:5532   */\n      dup3\n        /* \"#utility.yul\":5519:5536   */\n      add\n        /* \"#utility.yul\":5506:5537   */\n      calldataload\n        /* \"#utility.yul\":5564:5582   */\n      0xffffffffffffffff\n        /* \"#utility.yul\":5556:5562   */\n      dup2\n        /* \"#utility.yul\":5553:5583   */\n      gt\n        /* \"#utility.yul\":5550:5667   */\n      iszero\n      tag_161\n      jumpi\n        /* \"#utility.yul\":5586:5665   */\n      tag_162\n      tag_60\n      jump\t// in\n    tag_162:\n        /* \"#utility.yul\":5550:5667   */\n    tag_161:\n        /* \"#utility.yul\":5691:5754   */\n      tag_163\n        /* \"#utility.yul\":5746:5753   */\n      dup5\n        /* \"#utility.yul\":5737:5743   */\n      dup3\n        /* \"#utility.yul\":5726:5735   */\n      dup6\n        /* \"#utility.yul\":5722:5744   */\n      add\n        /* \"#utility.yul\":5691:5754   */\n      tag_78\n      jump\t// in\n    tag_163:\n        /* \"#utility.yul\":5681:5754   */\n      swap2\n      pop\n        /* \"#utility.yul\":5477:5764   */\n      pop\n        /* \"#utility.yul\":5262:5771   */\n      swap3\n      swap2\n      pop\n      pop\n      jump\t// out\n        /* \"#utility.yul\":5777:5957   */\n    tag_79:\n        /* \"#utility.yul\":5825:5902   */\n      0x4e487b7100000000000000000000000000000000000000000000000000000000\n        /* \"#utility.yul\":5822:5823   */\n      0x00\n        /* \"#utility.yul\":5815:5903   */\n      mstore\n        /* \"#utility.yul\":5922:5926   */\n      0x22\n        /* \"#utility.yul\":5919:5920   */\n      0x04\n        /* \"#utility.yul\":5912:5927   */\n      mstore\n        /* \"#utility.yul\":5946:5950   */\n      0x24\n        /* \"#utility.yul\":5943:5944   */\n      0x00\n        /* \"#utility.yul\":5936:5951   */\n      revert\n        /* \"#utility.yul\":5963:6283   */\n    tag_33:\n        /* \"#utility.yul\":6007:6013   */\n      0x00\n        /* \"#utility.yul\":6044:6045   */\n      0x02\n        /* \"#utility.yul\":6038:6042   */\n      dup3\n        /* \"#utility.yul\":6034:6046   */\n      div\n        /* \"#utility.yul\":6024:6046   */\n      swap1\n      pop\n        /* \"#utility.yul\":6091:6092   */\n      0x01\n        /* \"#utility.yul\":6085:6089   */\n      dup3\n        /* \"#utility.yul\":6081:6093   */\n      and\n        /* \"#utility.yul\":6112:6130   */\n      dup1\n        /* \"#utility.yul\":6102:6183   */\n      tag_166\n      jumpi\n        /* \"#utility.yul\":6168:6172   */\n      0x7f\n        /* \"#utility.yul\":6160:6166   */\n      dup3\n        /* \"#utility.yul\":6156:6173   */\n      and\n        /* \"#utility.yul\":6146:6173   */\n      swap2\n      pop\n        /* \"#utility.yul\":6102:6183   */\n    tag_166:\n        /* \"#utility.yul\":6230:6232   */\n      0x20\n        /* \"#utility.yul\":6222:6228   */\n      dup3\n        /* \"#utility.yul\":6219:6233   */\n      lt\n        /* \"#utility.yul\":6199:6217   */\n      dup2\n        /* \"#utility.yul\":6196:6234   */\n      sub\n        /* \"#utility.yul\":6193:6277   */\n      tag_167\n      jumpi\n        /* \"#utility.yul\":6249:6267   */\n      tag_168\n      tag_79\n      jump\t// in\n    tag_168:\n        /* \"#utility.yul\":6193:6277   */\n    tag_167:\n        /* \"#utility.yul\":6014:6283   */\n      pop\n        /* \"#utility.yul\":5963:6283   */\n      swap2\n      swap1\n      pop\n      jump\t// out\n        /* \"#utility.yul\":6289:6457   */\n    tag_80:\n        /* \"#utility.yul\":6429:6449   */\n      0x55736572206e616d652072657175697265640000000000000000000000000000\n        /* \"#utility.yul\":6425:6426   */\n      0x00\n        /* \"#utility.yul\":6417:6423   */\n      dup3\n        /* \"#utility.yul\":6413:6427   */\n      add\n        /* \"#utility.yul\":6406:6450   */\n      mstore\n        /* \"#utility.yul\":6289:6457   */\n      pop\n      jump\t// out\n        /* \"#utility.yul\":6463:6829   */\n    tag_81:\n        /* \"#utility.yul\":6605:6608   */\n      0x00\n        /* \"#utility.yul\":6626:6693   */\n      tag_171\n        /* \"#utility.yul\":6690:6692   */\n      0x12\n        /* \"#utility.yul\":6685:6688   */\n      dup4\n        /* \"#utility.yul\":6626:6693   */\n      tag_64\n      jump\t// in\n    tag_171:\n        /* \"#utility.yul\":6619:6693   */\n      swap2\n      pop\n        /* \"#utility.yul\":6702:6795   */\n      tag_172\n        /* \"#utility.yul\":6791:6794   */\n      dup3\n        /* \"#utility.yul\":6702:6795   */\n      tag_80\n      jump\t// in\n    tag_172:\n        /* \"#utility.yul\":6820:6822   */\n      0x20\n        /* \"#utility.yul\":6815:6818   */\n      dup3\n        /* \"#utility.yul\":6811:6823   */\n      add\n        /* \"#utility.yul\":6804:6823   */\n      swap1\n      pop\n        /* \"#utility.yul\":6463:6829   */\n      swap2\n      swap1\n      pop\n      jump\t// out\n        /* \"#utility.yul\":6835:7254   */\n    tag_43:\n        /* \"#utility.yul\":7001:7005   */\n      0x00\n        /* \"#utility.yul\":7039:7041   */\n      0x20\n        /* \"#utility.yul\":7028:7037   */\n      dup3\n        /* \"#utility.yul\":7024:7042   */\n      add\n        /* \"#utility.yul\":7016:7042   */\n      swap1\n      pop\n        /* \"#utility.yul\":7088:7097   */\n      dup2\n        /* \"#utility.yul\":7082:7086   */\n      dup2\n        /* \"#utility.yul\":7078:7098   */\n      sub\n        /* \"#utility.yul\":7074:7075   */\n      0x00\n        /* \"#utility.yul\":7063:7072   */\n      dup4\n        /* \"#utility.yul\":7059:7076   */\n      add\n        /* \"#utility.yul\":7052:7099   */\n      mstore\n        /* \"#utility.yul\":7116:7247   */\n      tag_174\n        /* \"#utility.yul\":7242:7246   */\n      dup2\n        /* \"#utility.yul\":7116:7247   */\n      tag_81\n      jump\t// in\n    tag_174:\n        /* \"#utility.yul\":7108:7247   */\n      swap1\n      pop\n        /* \"#utility.yul\":6835:7254   */\n      swap2\n      swap1\n      pop\n      jump\t// out\n        /* \"#utility.yul\":7260:7440   */\n    tag_82:\n        /* \"#utility.yul\":7308:7385   */\n      0x4e487b7100000000000000000000000000000000000000000000000000000000\n        /* \"#utility.yul\":7305:7306   */\n      0x00\n        /* \"#utility.yul\":7298:7386   */\n      mstore\n        /* \"#utility.yul\":7405:7409   */\n      0x11\n        /* \"#utility.yul\":7402:7403   */\n      0x04\n        /* \"#utility.yul\":7395:7410   */\n      mstore\n        /* \"#utility.yul\":7429:7433   */\n      0x24\n        /* \"#utility.yul\":7426:7427   */\n      0x00\n        /* \"#utility.yul\":7419:7434   */\n      revert\n        /* \"#utility.yul\":7446:7679   */\n    tag_45:\n        /* \"#utility.yul\":7485:7488   */\n      0x00\n        /* \"#utility.yul\":7508:7532   */\n      tag_177\n        /* \"#utility.yul\":7526:7531   */\n      dup3\n        /* \"#utility.yul\":7508:7532   */\n      tag_56\n      jump\t// in\n    tag_177:\n        /* \"#utility.yul\":7499:7532   */\n      swap2\n      pop\n        /* \"#utility.yul\":7554:7620   */\n      0xffffffffffffffffffffffffffffffffffffffffffffffffffffffffffffffff\n        /* \"#utility.yul\":7547:7552   */\n      dup3\n        /* \"#utility.yul\":7544:7621   */\n      sub\n        /* \"#utility.yul\":7541:7644   */\n      tag_178\n      jumpi\n        /* \"#utility.yul\":7624:7642   */\n      tag_179\n      tag_82\n      jump\t// in\n    tag_179:\n        /* \"#utility.yul\":7541:7644   */\n    tag_178:\n        /* \"#utility.yul\":7671:7672   */\n      0x01\n        /* \"#utility.yul\":7664:7669   */\n      dup3\n        /* \"#utility.yul\":7660:7673   */\n      add\n        /* \"#utility.yul\":7653:7673   */\n      swap1\n      pop\n        /* \"#utility.yul\":7446:7679   */\n      swap2\n      swap1\n      pop\n      jump\t// out\n        /* \"#utility.yul\":7685:7826   */\n    tag_83:\n        /* \"#utility.yul\":7734:7738   */\n      0x00\n        /* \"#utility.yul\":7757:7760   */\n      dup2\n        /* \"#utility.yul\":7749:7760   */\n      swap1\n      pop\n        /* \"#utility.yul\":7780:7783   */\n      dup2\n        /* \"#utility.yul\":7777:7778   */\n      0x00\n        /* \"#utility.yul\":7770:7784   */\n      mstore\n        /* \"#utility.yul\":7814:7818   */\n      0x20\n        /* \"#utility.yul\":7811:7812   */\n      0x00\n        /* \"#utility.yul\":7801:7819   */\n      keccak256\n        /* \"#utility.yul\":7793:7819   */\n      swap1\n      pop\n        /* \"#utility.yul\":7685:7826   */\n      swap2\n      swap1\n      pop\n      jump\t// out\n        /* \"#utility.yul\":7832:7925   */\n    tag_84:\n        /* \"#utility.yul\":7869:7875   */\n      0x00\n        /* \"#utility.yul\":7916:7918   */\n      0x20\n        /* \"#utility.yul\":7911:7913   */\n      0x1f\n        /* \"#utility.yul\":7904:7909   */\n      dup4\n        /* \"#utility.yul\":7900:7914   */\n      add\n        /* \"#utility.yul\":7896:7919   */\n      div\n        /* \"#utility.yul\":7886:7919   */\n      swap1\n      pop\n        /* \"#utility.yul\":7832:7925   */\n      swap2\n      swap1\n      pop\n      jump\t// out\n        /* \"#utility.yul\":7931:8038   */\n    tag_85:\n        /* \"#utility.yul\":7975:7983   */\n      0x00\n        /* \"#utility.yul\":8025:8030   */\n      dup3\n        /* \"#utility.yul\":8019:8023   */\n      dup3\n        /* \"#utility.yul\":8015:8031   */\n      shl\n        /* \"#utility.yul\":7994:8031   */\n      swap1\n      pop\n        /* \"#utility.yul\":7931:8038   */\n      swap3\n      swap2\n      pop\n      pop\n      jump\t// out\n        /* \"#utility.yul\":8044:8437   */\n    tag_86:\n        /* \"#utility.yul\":8113:8119   */\n      0x00\n        /* \"#utility.yul\":8163:8164   */\n      0x08\n        /* \"#utility.yul\":8151:8161   */\n      dup4\n        /* \"#utility.yul\":8147:8165   */\n      mul\n        /* \"#utility.yul\":8186:8283   */\n      tag_184\n        /* \"#utility.yul\":8216:8282   */\n      0xffffffffffffffffffffffffffffffffffffffffffffffffffffffffffffffff\n        /* \"#utility.yul\":8205:8214   */\n      dup3\n        /* \"#utility.yul\":8186:8283   */\n      tag_85\n      jump\t// in\n    tag_184:\n        /* \"#utility.yul\":8304:8343   */\n      tag_185\n        /* \"#utility.yul\":8334:8342   */\n      dup7\n        /* \"#utility.yul\":8323:8332   */\n      dup4\n        /* \"#utility.yul\":8304:8343   */\n      tag_85\n      jump\t// in\n    tag_185:\n        /* \"#utility.yul\":8292:8343   */\n      swap6\n      pop\n        /* \"#utility.yul\":8376:8380   */\n      dup1\n        /* \"#utility.yul\":8372:8381   */\n      not\n        /* \"#utility.yul\":8365:8370   */\n      dup5\n        /* \"#utility.yul\":8361:8382   */\n      and\n        /* \"#utility.yul\":8352:8382   */\n      swap4\n      pop\n        /* \"#utility.yul\":8425:8429   */\n      dup1\n        /* \"#utility.yul\":8415:8423   */\n      dup7\n        /* \"#utility.yul\":8411:8430   */\n      and\n        /* \"#utility.yul\":8404:8409   */\n      dup5\n        /* \"#utility.yul\":8401:8431   */\n      or\n        /* \"#utility.yul\":8391:8431   */\n      swap3\n      pop\n        /* \"#utility.yul\":8120:8437   */\n      pop\n      pop\n        /* \"#utility.yul\":8044:8437   */\n      swap4\n      swap3\n      pop\n      pop\n      pop\n      jump\t// out\n        /* \"#utility.yul\":8443:8503   */\n    tag_87:\n        /* \"#utility.yul\":8471:8474   */\n      0x00\n        /* \"#utility.yul\":8492:8497   */\n      dup2\n        /* \"#utility.yul\":8485:8497   */\n      swap1\n      pop\n        /* \"#utility.yul\":8443:8503   */\n      swap2\n      swap1\n      pop\n      jump\t// out\n        /* \"#utility.yul\":8509:8651   */\n    tag_88:\n        /* \"#utility.yul\":8559:8568   */\n      0x00\n        /* \"#utility.yul\":8592:8645   */\n      tag_188\n        /* \"#utility.yul\":8610:8644   */\n      tag_189\n        /* \"#utility.yul\":8619:8643   */\n      tag_190\n        /* \"#utility.yul\":8637:8642   */\n      dup5\n        /* \"#utility.yul\":8619:8643   */\n      tag_56\n      jump\t// in\n    tag_190:\n        /* \"#utility.yul\":8610:8644   */\n      tag_87\n      jump\t// in\n    tag_189:\n        /* \"#utility.yul\":8592:8645   */\n      tag_56\n      jump\t// in\n    tag_188:\n        /* \"#utility.yul\":8579:8645   */\n      swap1\n      pop\n        /* \"#utility.yul\":8509:8651   */\n      swap2\n      swap1\n      pop\n      jump\t// out\n        /* \"#utility.yul\":8657:8732   */\n    tag_89:\n        /* \"#utility.yul\":8700:8703   */\n      0x00\n        /* \"#utility.yul\":8721:8726   */\n      dup2\n        /* \"#utility.yul\":8714:8726   */\n      swap1\n      pop\n        /* \"#utility.yul\":8657:8732   */\n      swap2\n      swap1\n      pop\n      jump\t// out\n        /* \"#utility.yul\":8738:9007   */\n    tag_90:\n        /* \"#utility.yul\":8848:8887   */\n      tag_193\n        /* \"#utility.yul\":8879:8886   */\n      dup4\n        /* \"#utility.yul\":8848:8887   */\n      tag_88\n      jump\t// in\n    tag_193:\n        /* \"#utility.yul\":8909:9000   */\n      tag_194\n        /* \"#utility.yul\":8958:8999   */\n      tag_195\n        /* \"#utility.yul\":8982:8998   */\n      dup3\n        /* \"#utility.yul\":8958:8999   */\n      tag_89\n      jump\t// in\n    tag_195:\n        /* \"#utility.yul\":8950:8956   */\n      dup5\n        /* \"#utility.yul\":8943:8947   */\n      dup5\n        /* \"#utility.yul\":8937:8948   */\n      sload\n        /* \"#utility.yul\":8909:9000   */\n      tag_86\n      jump\t// in\n    tag_194:\n        /* \"#utility.yul\":8903:8907   */\n      dup3\n        /* \"#utility.yul\":8896:9001   */\n      sstore\n        /* \"#utility.yul\":8814:9007   */\n      pop\n        /* \"#utility.yul\":8738:9007   */\n      pop\n      pop\n      pop\n      jump\t// out\n        /* \"#utility.yul\":9013:9086   */\n    tag_91:\n        /* \"#utility.yul\":9058:9061   */\n      0x00\n        /* \"#utility.yul\":9079:9080   */\n      0x00\n        /* \"#utility.yul\":9072:9080   */\n      swap1\n      pop\n        /* \"#utility.yul\":9013:9086   */\n      swap1\n      jump\t// out\n        /* \"#utility.yul\":9092:9281   */\n    tag_92:\n        /* \"#utility.yul\":9169:9201   */\n      tag_198\n      tag_91\n      jump\t// in\n    tag_198:\n        /* \"#utility.yul\":9210:9275   */\n      tag_199\n        /* \"#utility.yul\":9268:9274   */\n      dup2\n        /* \"#utility.yul\":9260:9266   */\n      dup5\n        /* \"#utility.yul\":9254:9258   */\n      dup5\n        /* \"#utility.yul\":9210:9275   */\n      tag_90\n      jump\t// in\n    tag_199:\n        /* \"#utility.yul\":9145:9281   */\n      pop\n        /* \"#utility.yul\":9092:9281   */\n      pop\n      pop\n      jump\t// out\n        /* \"#utility.yul\":9287:9473   */\n    tag_93:\n        /* \"#utility.yul\":9347:9467   */\n    tag_201:\n        /* \"#utility.yul\":9364:9367   */\n      dup2\n        /* \"#utility.yul\":9357:9362   */\n      dup2\n        /* \"#utility.yul\":9354:9368   */\n      lt\n        /* \"#utility.yul\":9347:9467   */\n      iszero\n      tag_203\n      jumpi\n        /* \"#utility.yul\":9418:9457   */\n      tag_204\n        /* \"#utility.yul\":9455:9456   */\n      0x00\n        /* \"#utility.yul\":9448:9453   */\n      dup3\n        /* \"#utility.yul\":9418:9457   */\n      tag_92\n      jump\t// in\n    tag_204:\n        /* \"#utility.yul\":9391:9392   */\n      0x01\n        /* \"#utility.yul\":9384:9389   */\n      dup2\n        /* \"#utility.yul\":9380:9393   */\n      add\n        /* \"#utility.yul\":9371:9393   */\n      swap1\n      pop\n        /* \"#utility.yul\":9347:9467   */\n      jump(tag_201)\n    tag_203:\n        /* \"#utility.yul\":9287:9473   */\n      pop\n      pop\n      jump\t// out\n        /* \"#utility.yul\":9479:10022   */\n    tag_94:\n        /* \"#utility.yul\":9580:9582   */\n      0x1f\n        /* \"#utility.yul\":9575:9578   */\n      dup3\n        /* \"#utility.yul\":9572:9583   */\n      gt\n        /* \"#utility.yul\":9569:10015   */\n      iszero\n      tag_206\n      jumpi\n        /* \"#utility.yul\":9614:9652   */\n      tag_207\n        /* \"#utility.yul\":9646:9651   */\n      dup2\n        /* \"#utility.yul\":9614:9652   */\n      tag_83\n      jump\t// in\n    tag_207:\n        /* \"#utility.yul\":9698:9727   */\n      tag_208\n        /* \"#utility.yul\":9716:9726   */\n      dup5\n        /* \"#utility.yul\":9698:9727   */\n      tag_84\n      jump\t// in\n    tag_208:\n        /* \"#utility.yul\":9688:9696   */\n      dup2\n        /* \"#utility.yul\":9684:9728   */\n      add\n        /* \"#utility.yul\":9881:9883   */\n      0x20\n        /* \"#utility.yul\":9869:9879   */\n      dup6\n        /* \"#utility.yul\":9866:9884   */\n      lt\n        /* \"#utility.yul\":9863:9912   */\n      iszero\n      tag_209\n      jumpi\n        /* \"#utility.yul\":9902:9910   */\n      dup2\n        /* \"#utility.yul\":9887:9910   */\n      swap1\n      pop\n        /* \"#utility.yul\":9863:9912   */\n    tag_209:\n        /* \"#utility.yul\":9925:10005   */\n      tag_210\n        /* \"#utility.yul\":9981:10003   */\n      tag_211\n        /* \"#utility.yul\":9999:10002   */\n      dup6\n        /* \"#utility.yul\":9981:10003   */\n      tag_84\n      jump\t// in\n    tag_211:\n        /* \"#utility.yul\":9971:9979   */\n      dup4\n        /* \"#utility.yul\":9967:10004   */\n      add\n        /* \"#utility.yul\":9954:9965   */\n      dup3\n        /* \"#utility.yul\":9925:10005   */\n      tag_93\n      jump\t// in\n    tag_210:\n        /* \"#utility.yul\":9584:10015   */\n      pop\n      pop\n        /* \"#utility.yul\":9569:10015   */\n    tag_206:\n        /* \"#utility.yul\":9479:10022   */\n      pop\n      pop\n      pop\n      jump\t// out\n        /* \"#utility.yul\":10028:10145   */\n    tag_95:\n        /* \"#utility.yul\":10082:10090   */\n      0x00\n        /* \"#utility.yul\":10132:10137   */\n      dup3\n        /* \"#utility.yul\":10126:10130   */\n      dup3\n        /* \"#utility.yul\":10122:10138   */\n      shr\n        /* \"#utility.yul\":10101:10138   */\n      swap1\n      pop\n        /* \"#utility.yul\":10028:10145   */\n      swap3\n      swap2\n      pop\n      pop\n      jump\t// out\n        /* \"#utility.yul\":10151:10320   */\n    tag_96:\n        /* \"#utility.yul\":10195:10201   */\n      0x00\n        /* \"#utility.yul\":10228:10279   */\n      tag_214\n        /* \"#utility.yul\":10276:10277   */\n      0x00\n        /* \"#utility.yul\":10272:10278   */\n      not\n        /* \"#utility.yul\":10264:10269   */\n      dup5\n        /* \"#utility.yul\":10261:10262   */\n      0x08\n        /* \"#utility.yul\":10257:10270   */\n      mul\n        /* \"#utility.yul\":10228:10279   */\n      tag_95\n      jump\t// in\n    tag_214:\n        /* \"#utility.yul\":10224:10280   */\n      not\n        /* \"#utility.yul\":10309:10313   */\n      dup1\n        /* \"#utility.yul\":10303:10307   */\n      dup4\n        /* \"#utility.yul\":10299:10314   */\n      and\n        /* \"#utility.yul\":10289:10314   */\n      swap2\n      pop\n        /* \"#utility.yul\":10202:10320   */\n      pop\n        /* \"#utility.yul\":10151:10320   */\n      swap3\n      swap2\n      pop\n      pop\n      jump\t// out\n        /* \"#utility.yul\":10325:10620   */\n    tag_97:\n        /* \"#utility.yul\":10401:10405   */\n      0x00\n        /* \"#utility.yul\":10547:10576   */\n      tag_216\n        /* \"#utility.yul\":10572:10575   */\n      dup4\n        /* \"#utility.yul\":10566:10570   */\n      dup4\n        /* \"#utility.yul\":10547:10576   */\n      tag_96\n      jump\t// in\n    tag_216:\n        /* \"#utility.yul\":10539:10576   */\n      swap2\n      pop\n        /* \"#utility.yul\":10609:10612   */\n      dup3\n        /* \"#utility.yul\":10606:10607   */\n      0x02\n        /* \"#utility.yul\":10602:10613   */\n      mul\n        /* \"#utility.yul\":10596:10600   */\n      dup3\n        /* \"#utility.yul\":10593:10614   */\n      or\n        /* \"#utility.yul\":10585:10614   */\n      swap1\n      pop\n        /* \"#utility.yul\":10325:10620   */\n      swap3\n      swap2\n      pop\n      pop\n      jump\t// out\n        /* \"#utility.yul\":10625:12020   */\n    tag_47:\n        /* \"#utility.yul\":10742:10779   */\n      tag_218\n        /* \"#utility.yul\":10775:10778   */\n      dup3\n        /* \"#utility.yul\":10742:10779   */\n      tag_63\n      jump\t// in\n    tag_218:\n        /* \"#utility.yul\":10844:10862   */\n      0xffffffffffffffff\n        /* \"#utility.yul\":10836:10842   */\n      dup2\n        /* \"#utility.yul\":10833:10863   */\n      gt\n        /* \"#utility.yul\":10830:10886   */\n      iszero\n      tag_219\n      jumpi\n        /* \"#utility.yul\":10866:10884   */\n      tag_220\n      tag_72\n      jump\t// in\n    tag_220:\n        /* \"#utility.yul\":10830:10886   */\n    tag_219:\n        /* \"#utility.yul\":10910:10948   */\n      tag_221\n        /* \"#utility.yul\":10942:10946   */\n      dup3\n        /* \"#utility.yul\":10936:10947   */\n      sload\n        /* \"#utility.yul\":10910:10948   */\n      tag_33\n      jump\t// in\n    tag_221:\n        /* \"#utility.yul\":10995:11062   */\n      tag_222\n        /* \"#utility.yul\":11055:11061   */\n      dup3\n        /* \"#utility.yul\":11047:11053   */\n      dup3\n        /* \"#utility.yul\":11041:11045   */\n      dup6\n        /* \"#utility.yul\":10995:11062   */\n      tag_94\n      jump\t// in\n    tag_222:\n        /* \"#utility.yul\":11089:11090   */\n      0x00\n        /* \"#utility.yul\":11113:11117   */\n      0x20\n        /* \"#utility.yul\":11100:11117   */\n      swap1\n      pop\n        /* \"#utility.yul\":11145:11147   */\n      0x1f\n        /* \"#utility.yul\":11137:11143   */\n      dup4\n        /* \"#utility.yul\":11134:11148   */\n      gt\n        /* \"#utility.yul\":11162:11163   */\n      0x01\n        /* \"#utility.yul\":11157:11775   */\n      dup2\n      eq\n      tag_224\n      jumpi\n        /* \"#utility.yul\":11819:11820   */\n      0x00\n        /* \"#utility.yul\":11836:11842   */\n      dup5\n        /* \"#utility.yul\":11833:11910   */\n      iszero\n      tag_225\n      jumpi\n        /* \"#utility.yul\":11885:11894   */\n      dup3\n        /* \"#utility.yul\":11880:11883   */\n      dup8\n        /* \"#utility.yul\":11876:11895   */\n      add\n        /* \"#utility.yul\":11870:11896   */\n      mload\n        /* \"#utility.yul\":11861:11896   */\n      swap1\n      pop\n        /* \"#utility.yul\":11833:11910   */\n    tag_225:\n        /* \"#utility.yul\":11936:12003   */\n      tag_226\n        /* \"#utility.yul\":11996:12002   */\n      dup6\n        /* \"#utility.yul\":11989:11994   */\n      dup3\n        /* \"#utility.yul\":11936:12003   */\n      tag_97\n      jump\t// in\n    tag_226:\n        /* \"#utility.yul\":11930:11934   */\n      dup7\n        /* \"#utility.yul\":11923:12004   */\n      sstore\n        /* \"#utility.yul\":11792:12014   */\n      pop\n        /* \"#utility.yul\":11127:12014   */\n      jump(tag_223)\n        /* \"#utility.yul\":11157:11775   */\n    tag_224:\n        /* \"#utility.yul\":11209:11213   */\n      0x1f\n        /* \"#utility.yul\":11205:11214   */\n      not\n        /* \"#utility.yul\":11197:11203   */\n      dup5\n        /* \"#utility.yul\":11193:11215   */\n      and\n        /* \"#utility.yul\":11243:11280   */\n      tag_227\n        /* \"#utility.yul\":11275:11279   */\n      dup7\n        /* \"#utility.yul\":11243:11280   */\n      tag_83\n      jump\t// in\n    tag_227:\n        /* \"#utility.yul\":11302:11303   */\n      0x00\n        /* \"#utility.yul\":11316:11524   */\n    tag_228:\n        /* \"#utility.yul\":11330:11337   */\n      dup3\n        /* \"#utility.yul\":11327:11328   */\n      dup2\n        /* \"#utility.yul\":11324:11338   */\n      lt\n        /* \"#utility.yul\":11316:11524   */\n      iszero\n      tag_230\n      jumpi\n        /* \"#utility.yul\":11409:11418   */\n      dup5\n        /* \"#utility.yul\":11404:11407   */\n      dup10\n        /* \"#utility.yul\":11400:11419   */\n      add\n        /* \"#utility.yul\":11394:11420   */\n      mload\n        /* \"#utility.yul\":11386:11392   */\n      dup3\n        /* \"#utility.yul\":11379:11421   */\n      sstore\n        /* \"#utility.yul\":11460:11461   */\n      0x01\n        /* \"#utility.yul\":11452:11458   */\n      dup3\n        /* \"#utility.yul\":11448:11462   */\n      add\n        /* \"#utility.yul\":11438:11462   */\n      swap2\n      pop\n        /* \"#utility.yul\":11507:11509   */\n      0x20\n        /* \"#utility.yul\":11496:11505   */\n      dup6\n        /* \"#utility.yul\":11492:11510   */\n      add\n        /* \"#utility.yul\":11479:11510   */\n      swap5\n      pop\n        /* \"#utility.yul\":11353:11357   */\n      0x20\n        /* \"#utility.yul\":11350:11351   */\n      dup2\n        /* \"#utility.yul\":11346:11358   */\n      add\n        /* \"#utility.yul\":11341:11358   */\n      swap1\n      pop\n        /* \"#utility.yul\":11316:11524   */\n      jump(tag_228)\n    tag_230:\n        /* \"#utility.yul\":11552:11558   */\n      dup7\n        /* \"#utility.yul\":11543:11550   */\n      dup4\n        /* \"#utility.yul\":11540:11559   */\n      lt\n        /* \"#utility.yul\":11537:11716   */\n      iszero\n      tag_231\n      jumpi\n        /* \"#utility.yul\":11610:11619   */\n      dup5\n        /* \"#utility.yul\":11605:11608   */\n      dup10\n        /* \"#utility.yul\":11601:11620   */\n      add\n        /* \"#utility.yul\":11595:11621   */\n      mload\n        /* \"#utility.yul\":11653:11701   */\n      tag_232\n        /* \"#utility.yul\":11695:11699   */\n      0x1f\n        /* \"#utility.yul\":11687:11693   */\n      dup10\n        /* \"#utility.yul\":11683:11700   */\n      and\n        /* \"#utility.yul\":11672:11681   */\n      dup3\n        /* \"#utility.yul\":11653:11701   */\n      tag_96\n      jump\t// in\n    tag_232:\n        /* \"#utility.yul\":11645:11651   */\n      dup4\n        /* \"#utility.yul\":11638:11702   */\n      sstore\n        /* \"#utility.yul\":11560:11716   */\n      pop\n        /* \"#utility.yul\":11537:11716   */\n    tag_231:\n        /* \"#utility.yul\":11762:11763   */\n      0x01\n        /* \"#utility.yul\":11758:11759   */\n      0x02\n        /* \"#utility.yul\":11750:11756   */\n      dup9\n        /* \"#utility.yul\":11746:11760   */\n      mul\n        /* \"#utility.yul\":11742:11764   */\n      add\n        /* \"#utility.yul\":11736:11740   */\n      dup9\n        /* \"#utility.yul\":11729:11765   */\n      sstore\n        /* \"#utility.yul\":11164:11775   */\n      pop\n      pop\n      pop\n        /* \"#utility.yul\":11127:12014   */\n    tag_223:\n      pop\n        /* \"#utility.yul\":10717:12020   */\n      pop\n      pop\n      pop\n        /* \"#utility.yul\":10625:12020   */\n      pop\n      pop\n      jump\t// out\n        /* \"#utility.yul\":12026:12339   */\n    tag_49:\n        /* \"#utility.yul\":12139:12143   */\n      0x00\n        /* \"#utility.yul\":12177:12179   */\n      0x20\n        /* \"#utility.yul\":12166:12175   */\n      dup3\n        /* \"#utility.yul\":12162:12180   */\n      add\n        /* \"#utility.yul\":12154:12180   */\n      swap1\n      pop\n        /* \"#utility.yul\":12226:12235   */\n      dup2\n        /* \"#utility.yul\":12220:12224   */\n      dup2\n        /* \"#utility.yul\":12216:12236   */\n      sub\n        /* \"#utility.yul\":12212:12213   */\n      0x00\n        /* \"#utility.yul\":12201:12210   */\n      dup4\n        /* \"#utility.yul\":12197:12214   */\n      add\n        /* \"#utility.yul\":12190:12237   */\n      mstore\n        /* \"#utility.yul\":12254:12332   */\n      tag_234\n        /* \"#utility.yul\":12327:12331   */\n      dup2\n        /* \"#utility.yul\":12318:12324   */\n      dup5\n        /* \"#utility.yul\":12254:12332   */\n      tag_67\n      jump\t// in\n    tag_234:\n        /* \"#utility.yul\":12246:12332   */\n      swap1\n      pop\n        /* \"#utility.yul\":12026:12339   */\n      swap3\n      swap2\n      pop\n      pop\n      jump\t// out\n\n    auxdata: 0xa264697066735822122074a6f37724aa6e7a32531ea767503d706074223e3034ca146b2de69897ebb92164736f6c634300081e0033\n}\n",
				"bytecode": {
					"linkReferences": {},
					"object": "6080604052348015600e575f5ffd5b50610a9f8061001c5f395ff3fe608060405234801561000f575f5ffd5b5060043610610055575f3560e01c806307973ccf14610059578063365b98b2146100775780636f93dd91146100a8578063704f1b94146100d8578063b0467deb14610108575b5f5ffd5b610061610139565b60405161006e91906103de565b60405180910390f35b610091600480360381019061008c9190610432565b61013e565b60405161009f9291906104cd565b60405180910390f35b6100c260048036038101906100bd9190610432565b6101e4565b6040516100cf9190610515565b60405180910390f35b6100f260048036038101906100ed919061065a565b6101fc565b6040516100ff91906103de565b60405180910390f35b610122600480360381019061011d9190610432565b6102f8565b6040516101309291906104cd565b60405180910390f35b5f5481565b6001602052805f5260405f205f91509050805f015490806001018054610163906106ce565b80601f016020809104026020016040519081016040528092919081815260200182805461018f906106ce565b80156101da5780601f106101b1576101008083540402835291602001916101da565b820191905f5260205f20905b8154815290600101906020018083116101bd57829003601f168201915b5050505050905082565b5f5f821180156101f557505f548211155b9050919050565b5f5f825111610240576040517f08c379a000000000000000000000000000000000000000000000000000000000815260040161023790610748565b60405180910390fd5b5f5f81548092919061025190610793565b919050555060405180604001604052805f5481526020018381525060015f5f5481526020019081526020015f205f820151815f0155602082015181600101908161029b919061097a565b509050503373ffffffffffffffffffffffffffffffffffffffff165f547ff9f470b753810725157b794665955ed6428420a93ae28c045cc736ff3306848f846040516102e79190610a49565b60405180910390a35f549050919050565b5f60605f60015f8581526020019081526020015f206040518060400160405290815f8201548152602001600182018054610331906106ce565b80601f016020809104026020016040519081016040528092919081815260200182805461035d906106ce565b80156103a85780601f1061037f576101008083540402835291602001916103a8565b820191905f5260205f20905b81548152906001019060200180831161038b57829003601f168201915b5050505050815250509050805f015181602001519250925050915091565b5f819050919050565b6103d8816103c6565b82525050565b5f6020820190506103f15f8301846103cf565b92915050565b5f604051905090565b5f5ffd5b5f5ffd5b610411816103c6565b811461041b575f5ffd5b50565b5f8135905061042c81610408565b92915050565b5f6020828403121561044757610446610400565b5b5f6104548482850161041e565b91505092915050565b5f81519050919050565b5f82825260208201905092915050565b8281835e5f83830152505050565b5f601f19601f8301169050919050565b5f61049f8261045d565b6104a98185610467565b93506104b9818560208601610477565b6104c281610485565b840191505092915050565b5f6040820190506104e05f8301856103cf565b81810360208301526104f28184610495565b90509392505050565b5f8115159050919050565b61050f816104fb565b82525050565b5f6020820190506105285f830184610506565b92915050565b5f5ffd5b5f5ffd5b7f4e487b71000000000000000000000000000000000000000000000000000000005f52604160045260245ffd5b61056c82610485565b810181811067ffffffffffffffff8211171561058b5761058a610536565b5b80604052505050565b5f61059d6103f7565b90506105a98282610563565b919050565b5f67ffffffffffffffff8211156105c8576105c7610536565b5b6105d182610485565b9050602081019050919050565b828183375f83830152505050565b5f6105fe6105f9846105ae565b610594565b90508281526020810184848401111561061a57610619610532565b5b6106258482856105de565b509392505050565b5f82601f8301126106415761064061052e565b5b81356106518482602086016105ec565b91505092915050565b5f6020828403121561066f5761066e610400565b5b5f82013567ffffffffffffffff81111561068c5761068b610404565b5b6106988482850161062d565b91505092915050565b7f4e487b71000000000000000000000000000000000000000000000000000000005f52602260045260245ffd5b5f60028204905060018216806106e557607f821691505b6020821081036106f8576106f76106a1565b5b50919050565b7f55736572206e616d6520726571756972656400000000000000000000000000005f82015250565b5f610732601283610467565b915061073d826106fe565b602082019050919050565b5f6020820190508181035f83015261075f81610726565b9050919050565b7f4e487b71000000000000000000000000000000000000000000000000000000005f52601160045260245ffd5b5f61079d826103c6565b91507fffffffffffffffffffffffffffffffffffffffffffffffffffffffffffffffff82036107cf576107ce610766565b5b600182019050919050565b5f819050815f5260205f209050919050565b5f6020601f8301049050919050565b5f82821b905092915050565b5f600883026108367fffffffffffffffffffffffffffffffffffffffffffffffffffffffffffffffff826107fb565b61084086836107fb565b95508019841693508086168417925050509392505050565b5f819050919050565b5f61087b610876610871846103c6565b610858565b6103c6565b9050919050565b5f819050919050565b61089483610861565b6108a86108a082610882565b848454610807565b825550505050565b5f5f905090565b6108bf6108b0565b6108ca81848461088b565b505050565b5b818110156108ed576108e25f826108b7565b6001810190506108d0565b5050565b601f82111561093257610903816107da565b61090c846107ec565b8101602085101561091b578190505b61092f610927856107ec565b8301826108cf565b50505b505050565b5f82821c905092915050565b5f6109525f1984600802610937565b1980831691505092915050565b5f61096a8383610943565b9150826002028217905092915050565b6109838261045d565b67ffffffffffffffff81111561099c5761099b610536565b5b6109a682546106ce565b6109b18282856108f1565b5f60209050601f8311600181146109e2575f84156109d0578287015190505b6109da858261095f565b865550610a41565b601f1984166109f0866107da565b5f5b82811015610a17578489015182556001820191506020850194506020810190506109f2565b86831015610a345784890151610a30601f891682610943565b8355505b6001600288020188555050505b505050505050565b5f6020820190508181035f830152610a618184610495565b90509291505056fea264697066735822122074a6f37724aa6e7a32531ea767503d706074223e3034ca146b2de69897ebb92164736f6c634300081e0033",
					"opcodes": "PUSH1 0x80 PUSH1 0x40 MSTORE CALLVALUE DUP1 ISZERO PUSH1 0xE JUMPI PUSH0 PUSH0 REVERT JUMPDEST POP PUSH2 0xA9F DUP1 PUSH2 0x1C PUSH0 CODECOPY PUSH0 RETURN INVALID PUSH1 0x80 PUSH1 0x40 MSTORE CALLVALUE DUP1 ISZERO PUSH2 0xF JUMPI PUSH0 PUSH0 REVERT JUMPDEST POP PUSH1 0x4 CALLDATASIZE LT PUSH2 0x55 JUMPI PUSH0 CALLDATALOAD PUSH1 0xE0 SHR DUP1 PUSH4 0x7973CCF EQ PUSH2 0x59 JUMPI DUP1 PUSH4 0x365B98B2 EQ PUSH2 0x77 JUMPI DUP1 PUSH4 0x6F93DD91 EQ PUSH2 0xA8 JUMPI DUP1 PUSH4 0x704F1B94 EQ PUSH2 0xD8 JUMPI DUP1 PUSH4 0xB0467DEB EQ PUSH2 0x108 JUMPI JUMPDEST PUSH0 PUSH0 REVERT JUMPDEST PUSH2 0x61 PUSH2 0x139 JUMP JUMPDEST PUSH1 0x40 MLOAD PUSH2 0x6E SWAP2 SWAP1 PUSH2 0x3DE JUMP JUMPDEST PUSH1 0x40 MLOAD DUP1 SWAP2 SUB SWAP1 RETURN JUMPDEST PUSH2 0x91 PUSH1 0x4 DUP1 CALLDATASIZE SUB DUP2 ADD SWAP1 PUSH2 0x8C SWAP2 SWAP1 PUSH2 0x432 JUMP JUMPDEST PUSH2 0x13E JUMP JUMPDEST PUSH1 0x40 MLOAD PUSH2 0x9F SWAP3 SWAP2 SWAP1 PUSH2 0x4CD JUMP JUMPDEST PUSH1 0x40 MLOAD DUP1 SWAP2 SUB SWAP1 RETURN JUMPDEST PUSH2 0xC2 PUSH1 0x4 DUP1 CALLDATASIZE SUB DUP2 ADD SWAP1 PUSH2 0xBD SWAP2 SWAP1 PUSH2 0x432 JUMP JUMPDEST PUSH2 0x1E4 JUMP JUMPDEST PUSH1 0x40 MLOAD PUSH2 0xCF SWAP2 SWAP1 PUSH2 0x515 JUMP JUMPDEST PUSH1 0x40 MLOAD DUP1 SWAP2 SUB SWAP1 RETURN JUMPDEST PUSH2 0xF2 PUSH1 0x4 DUP1 CALLDATASIZE SUB DUP2 ADD SWAP1 PUSH2 0xED SWAP2 SWAP1 PUSH2 0x65A JUMP JUMPDEST PUSH2 0x1FC JUMP JUMPDEST PUSH1 0x40 MLOAD PUSH2 0xFF SWAP2 SWAP1 PUSH2 0x3DE JUMP JUMPDEST PUSH1 0x40 MLOAD DUP1 SWAP2 SUB SWAP1 RETURN JUMPDEST PUSH2 0x122 PUSH1 0x4 DUP1 CALLDATASIZE SUB DUP2 ADD SWAP1 PUSH2 0x11D SWAP2 SWAP1 PUSH2 0x432 JUMP JUMPDEST PUSH2 0x2F8 JUMP JUMPDEST PUSH1 0x40 MLOAD PUSH2 0x130 SWAP3 SWAP2 SWAP1 PUSH2 0x4CD JUMP JUMPDEST PUSH1 0x40 MLOAD DUP1 SWAP2 SUB SWAP1 RETURN JUMPDEST PUSH0 SLOAD DUP2 JUMP JUMPDEST PUSH1 0x1 PUSH1 0x20 MSTORE DUP1 PUSH0 MSTORE PUSH1 0x40 PUSH0 KECCAK256 PUSH0 SWAP2 POP SWAP1 POP DUP1 PUSH0 ADD SLOAD SWAP1 DUP1 PUSH1 0x1 ADD DUP1 SLOAD PUSH2 0x163 SWAP1 PUSH2 0x6CE JUMP JUMPDEST DUP1 PUSH1 0x1F ADD PUSH1 0x20 DUP1 SWAP2 DIV MUL PUSH1 0x20 ADD PUSH1 0x40 MLOAD SWAP1 DUP2 ADD PUSH1 0x40 MSTORE DUP1 SWAP3 SWAP2 SWAP1 DUP2 DUP2 MSTORE PUSH1 0x20 ADD DUP3 DUP1 SLOAD PUSH2 0x18F SWAP1 PUSH2 0x6CE JUMP JUMPDEST DUP1 ISZERO PUSH2 0x1DA JUMPI DUP1 PUSH1 0x1F LT PUSH2 0x1B1 JUMPI PUSH2 0x100 DUP1 DUP4 SLOAD DIV MUL DUP4 MSTORE SWAP2 PUSH1 0x20 ADD SWAP2 PUSH2 0x1DA JUMP JUMPDEST DUP3 ADD SWAP2 SWAP1 PUSH0 MSTORE PUSH1 0x20 PUSH0 KECCAK256 SWAP1 JUMPDEST DUP2 SLOAD DUP2 MSTORE SWAP1 PUSH1 0x1 ADD SWAP1 PUSH1 0x20 ADD DUP1 DUP4 GT PUSH2 0x1BD JUMPI DUP3 SWAP1 SUB PUSH1 0x1F AND DUP3 ADD SWAP2 JUMPDEST POP POP POP POP POP SWAP1 POP DUP3 JUMP JUMPDEST PUSH0 PUSH0 DUP3 GT DUP1 ISZERO PUSH2 0x1F5 JUMPI POP PUSH0 SLOAD DUP3 GT ISZERO JUMPDEST SWAP1 POP SWAP2 SWAP1 POP JUMP JUMPDEST PUSH0 PUSH0 DUP3 MLOAD GT PUSH2 0x240 JUMPI PUSH1 0x40 MLOAD PUSH32 0x8C379A000000000000000000000000000000000000000000000000000000000 DUP2 MSTORE PUSH1 0x4 ADD PUSH2 0x237 SWAP1 PUSH2 0x748 JUMP JUMPDEST PUSH1 0x40 MLOAD DUP1 SWAP2 SUB SWAP1 REVERT JUMPDEST PUSH0 PUSH0 DUP2 SLOAD DUP1 SWAP3 SWAP2 SWAP1 PUSH2 0x251 SWAP1 PUSH2 0x793 JUMP JUMPDEST SWAP2 SWAP1 POP SSTORE POP PUSH1 0x40 MLOAD DUP1 PUSH1 0x40 ADD PUSH1 0x40 MSTORE DUP1 PUSH0 SLOAD DUP2 MSTORE PUSH1 0x20 ADD DUP4 DUP2 MSTORE POP PUSH1 0x1 PUSH0 PUSH0 SLOAD DUP2 MSTORE PUSH1 0x20 ADD SWAP1 DUP2 MSTORE PUSH1 0x20 ADD PUSH0 KECCAK256 PUSH0 DUP3 ADD MLOAD DUP2 PUSH0 ADD SSTORE PUSH1 0x20 DUP3 ADD MLOAD DUP2 PUSH1 0x1 ADD SWAP1 DUP2 PUSH2 0x29B SWAP2 SWAP1 PUSH2 0x97A JUMP JUMPDEST POP SWAP1 POP POP CALLER PUSH20 0xFFFFFFFFFFFFFFFFFFFFFFFFFFFFFFFFFFFFFFFF AND PUSH0 SLOAD PUSH32 0xF9F470B753810725157B794665955ED6428420A93AE28C045CC736FF3306848F DUP5 PUSH1 0x40 MLOAD PUSH2 0x2E7 SWAP2 SWAP1 PUSH2 0xA49 JUMP JUMPDEST PUSH1 0x40 MLOAD DUP1 SWAP2 SUB SWAP1 LOG3 PUSH0 SLOAD SWAP1 POP SWAP2 SWAP1 POP JUMP JUMPDEST PUSH0 PUSH1 0x60 PUSH0 PUSH1 0x1 PUSH0 DUP6 DUP2 MSTORE PUSH1 0x20 ADD SWAP1 DUP2 MSTORE PUSH1 0x20 ADD PUSH0 KECCAK256 PUSH1 0x40 MLOAD DUP1 PUSH1 0x40 ADD PUSH1 0x40 MSTORE SWAP1 DUP2 PUSH0 DUP3 ADD SLOAD DUP2 MSTORE PUSH1 0x20 ADD PUSH1 0x1 DUP3 ADD DUP1 SLOAD PUSH2 0x331 SWAP1 PUSH2 0x6CE JUMP JUMPDEST DUP1 PUSH1 0x1F ADD PUSH1 0x20 DUP1 SWAP2 DIV MUL PUSH1 0x20 ADD PUSH1 0x40 MLOAD SWAP1 DUP2 ADD PUSH1 0x40 MSTORE DUP1 SWAP3 SWAP2 SWAP1 DUP2 DUP2 MSTORE PUSH1 0x20 ADD DUP3 DUP1 SLOAD PUSH2 0x35D SWAP1 PUSH2 0x6CE JUMP JUMPDEST DUP1 ISZERO PUSH2 0x3A8 JUMPI DUP1 PUSH1 0x1F LT PUSH2 0x37F JUMPI PUSH2 0x100 DUP1 DUP4 SLOAD DIV MUL DUP4 MSTORE SWAP2 PUSH1 0x20 ADD SWAP2 PUSH2 0x3A8 JUMP JUMPDEST DUP3 ADD SWAP2 SWAP1 PUSH0 MSTORE PUSH1 0x20 PUSH0 KECCAK256 SWAP1 JUMPDEST DUP2 SLOAD DUP2 MSTORE SWAP1 PUSH1 0x1 ADD SWAP1 PUSH1 0x20 ADD DUP1 DUP4 GT PUSH2 0x38B JUMPI DUP3 SWAP1 SUB PUSH1 0x1F AND DUP3 ADD SWAP2 JUMPDEST POP POP POP POP POP DUP2 MSTORE POP POP SWAP1 POP DUP1 PUSH0 ADD MLOAD DUP2 PUSH1 0x20 ADD MLOAD SWAP3 POP SWAP3 POP POP SWAP2 POP SWAP2 JUMP JUMPDEST PUSH0 DUP2 SWAP1 POP SWAP2 SWAP1 POP JUMP JUMPDEST PUSH2 0x3D8 DUP2 PUSH2 0x3C6 JUMP JUMPDEST DUP3 MSTORE POP POP JUMP JUMPDEST PUSH0 PUSH1 0x20 DUP3 ADD SWAP1 POP PUSH2 0x3F1 PUSH0 DUP4 ADD DUP5 PUSH2 0x3CF JUMP JUMPDEST SWAP3 SWAP2 POP POP JUMP JUMPDEST PUSH0 PUSH1 0x40 MLOAD SWAP1 POP SWAP1 JUMP JUMPDEST PUSH0 PUSH0 REVERT JUMPDEST PUSH0 PUSH0 REVERT JUMPDEST PUSH2 0x411 DUP2 PUSH2 0x3C6 JUMP JUMPDEST DUP2 EQ PUSH2 0x41B JUMPI PUSH0 PUSH0 REVERT JUMPDEST POP JUMP JUMPDEST PUSH0 DUP2 CALLDATALOAD SWAP1 POP PUSH2 0x42C DUP2 PUSH2 0x408 JUMP JUMPDEST SWAP3 SWAP2 POP POP JUMP JUMPDEST PUSH0 PUSH1 0x20 DUP3 DUP5 SUB SLT ISZERO PUSH2 0x447 JUMPI PUSH2 0x446 PUSH2 0x400 JUMP JUMPDEST JUMPDEST PUSH0 PUSH2 0x454 DUP5 DUP3 DUP6 ADD PUSH2 0x41E JUMP JUMPDEST SWAP2 POP POP SWAP3 SWAP2 POP POP JUMP JUMPDEST PUSH0 DUP2 MLOAD SWAP1 POP SWAP2 SWAP1 POP JUMP JUMPDEST PUSH0 DUP3 DUP3 MSTORE PUSH1 0x20 DUP3 ADD SWAP1 POP SWAP3 SWAP2 POP POP JUMP JUMPDEST DUP3 DUP2 DUP4 MCOPY PUSH0 DUP4 DUP4 ADD MSTORE POP POP POP JUMP JUMPDEST PUSH0 PUSH1 0x1F NOT PUSH1 0x1F DUP4 ADD AND SWAP1 POP SWAP2 SWAP1 POP JUMP JUMPDEST PUSH0 PUSH2 0x49F DUP3 PUSH2 0x45D JUMP JUMPDEST PUSH2 0x4A9 DUP2 DUP6 PUSH2 0x467 JUMP JUMPDEST SWAP4 POP PUSH2 0x4B9 DUP2 DUP6 PUSH1 0x20 DUP7 ADD PUSH2 0x477 JUMP JUMPDEST PUSH2 0x4C2 DUP2 PUSH2 0x485 JUMP JUMPDEST DUP5 ADD SWAP2 POP POP SWAP3 SWAP2 POP POP JUMP JUMPDEST PUSH0 PUSH1 0x40 DUP3 ADD SWAP1 POP PUSH2 0x4E0 PUSH0 DUP4 ADD DUP6 PUSH2 0x3CF JUMP JUMPDEST DUP2 DUP2 SUB PUSH1 0x20 DUP4 ADD MSTORE PUSH2 0x4F2 DUP2 DUP5 PUSH2 0x495 JUMP JUMPDEST SWAP1 POP SWAP4 SWAP3 POP POP POP JUMP JUMPDEST PUSH0 DUP2 ISZERO ISZERO SWAP1 POP SWAP2 SWAP1 POP JUMP JUMPDEST PUSH2 0x50F DUP2 PUSH2 0x4FB JUMP JUMPDEST DUP3 MSTORE POP POP JUMP JUMPDEST PUSH0 PUSH1 0x20 DUP3 ADD SWAP1 POP PUSH2 0x528 PUSH0 DUP4 ADD DUP5 PUSH2 0x506 JUMP JUMPDEST SWAP3 SWAP2 POP POP JUMP JUMPDEST PUSH0 PUSH0 REVERT JUMPDEST PUSH0 PUSH0 REVERT JUMPDEST PUSH32 0x4E487B7100000000000000000000000000000000000000000000000000000000 PUSH0 MSTORE PUSH1 0x41 PUSH1 0x4 MSTORE PUSH1 0x24 PUSH0 REVERT JUMPDEST PUSH2 0x56C DUP3 PUSH2 0x485 JUMP JUMPDEST DUP2 ADD DUP2 DUP2 LT PUSH8 0xFFFFFFFFFFFFFFFF DUP3 GT OR ISZERO PUSH2 0x58B JUMPI PUSH2 0x58A PUSH2 0x536 JUMP JUMPDEST JUMPDEST DUP1 PUSH1 0x40 MSTORE POP POP POP JUMP JUMPDEST PUSH0 PUSH2 0x59D PUSH2 0x3F7 JUMP JUMPDEST SWAP1 POP PUSH2 0x5A9 DUP3 DUP3 PUSH2 0x563 JUMP JUMPDEST SWAP2 SWAP1 POP JUMP JUMPDEST PUSH0 PUSH8 0xFFFFFFFFFFFFFFFF DUP3 GT ISZERO PUSH2 0x5C8 JUMPI PUSH2 0x5C7 PUSH2 0x536 JUMP JUMPDEST JUMPDEST PUSH2 0x5D1 DUP3 PUSH2 0x485 JUMP JUMPDEST SWAP1 POP PUSH1 0x20 DUP2 ADD SWAP1 POP SWAP2 SWAP1 POP JUMP JUMPDEST DUP3 DUP2 DUP4 CALLDATACOPY PUSH0 DUP4 DUP4 ADD MSTORE POP POP POP JUMP JUMPDEST PUSH0 PUSH2 0x5FE PUSH2 0x5F9 DUP5 PUSH2 0x5AE JUMP JUMPDEST PUSH2 0x594 JUMP JUMPDEST SWAP1 POP DUP3 DUP2 MSTORE PUSH1 0x20 DUP2 ADD DUP5 DUP5 DUP5 ADD GT ISZERO PUSH2 0x61A JUMPI PUSH2 0x619 PUSH2 0x532 JUMP JUMPDEST JUMPDEST PUSH2 0x625 DUP5 DUP3 DUP6 PUSH2 0x5DE JUMP JUMPDEST POP SWAP4 SWAP3 POP POP POP JUMP JUMPDEST PUSH0 DUP3 PUSH1 0x1F DUP4 ADD SLT PUSH2 0x641 JUMPI PUSH2 0x640 PUSH2 0x52E JUMP JUMPDEST JUMPDEST DUP2 CALLDATALOAD PUSH2 0x651 DUP5 DUP3 PUSH1 0x20 DUP7 ADD PUSH2 0x5EC JUMP JUMPDEST SWAP2 POP POP SWAP3 SWAP2 POP POP JUMP JUMPDEST PUSH0 PUSH1 0x20 DUP3 DUP5 SUB SLT ISZERO PUSH2 0x66F JUMPI PUSH2 0x66E PUSH2 0x400 JUMP JUMPDEST JUMPDEST PUSH0 DUP3 ADD CALLDATALOAD PUSH8 0xFFFFFFFFFFFFFFFF DUP2 GT ISZERO PUSH2 0x68C JUMPI PUSH2 0x68B PUSH2 0x404 JUMP JUMPDEST JUMPDEST PUSH2 0x698 DUP5 DUP3 DUP6 ADD PUSH2 0x62D JUMP JUMPDEST SWAP2 POP POP SWAP3 SWAP2 POP POP JUMP JUMPDEST PUSH32 0x4E487B7100000000000000000000000000000000000000000000000000000000 PUSH0 MSTORE PUSH1 0x22 PUSH1 0x4 MSTORE PUSH1 0x24 PUSH0 REVERT JUMPDEST PUSH0 PUSH1 0x2 DUP3 DIV SWAP1 POP PUSH1 0x1 DUP3 AND DUP1 PUSH2 0x6E5 JUMPI PUSH1 0x7F DUP3 AND SWAP2 POP JUMPDEST PUSH1 0x20 DUP3 LT DUP2 SUB PUSH2 0x6F8 JUMPI PUSH2 0x6F7 PUSH2 0x6A1 JUMP JUMPDEST JUMPDEST POP SWAP2 SWAP1 POP JUMP JUMPDEST PUSH32 0x55736572206E616D652072657175697265640000000000000000000000000000 PUSH0 DUP3 ADD MSTORE POP JUMP JUMPDEST PUSH0 PUSH2 0x732 PUSH1 0x12 DUP4 PUSH2 0x467 JUMP JUMPDEST SWAP2 POP PUSH2 0x73D DUP3 PUSH2 0x6FE JUMP JUMPDEST PUSH1 0x20 DUP3 ADD SWAP1 POP SWAP2 SWAP1 POP JUMP JUMPDEST PUSH0 PUSH1 0x20 DUP3 ADD SWAP1 POP DUP2 DUP2 SUB PUSH0 DUP4 ADD MSTORE PUSH2 0x75F DUP2 PUSH2 0x726 JUMP JUMPDEST SWAP1 POP SWAP2 SWAP1 POP JUMP JUMPDEST PUSH32 0x4E487B7100000000000000000000000000000000000000000000000000000000 PUSH0 MSTORE PUSH1 0x11 PUSH1 0x4 MSTORE PUSH1 0x24 PUSH0 REVERT JUMPDEST PUSH0 PUSH2 0x79D DUP3 PUSH2 0x3C6 JUMP JUMPDEST SWAP2 POP PUSH32 0xFFFFFFFFFFFFFFFFFFFFFFFFFFFFFFFFFFFFFFFFFFFFFFFFFFFFFFFFFFFFFFFF DUP3 SUB PUSH2 0x7CF JUMPI PUSH2 0x7CE PUSH2 0x766 JUMP JUMPDEST JUMPDEST PUSH1 0x1 DUP3 ADD SWAP1 POP SWAP2 SWAP1 POP JUMP JUMPDEST PUSH0 DUP2 SWAP1 POP DUP2 PUSH0 MSTORE PUSH1 0x20 PUSH0 KECCAK256 SWAP1 POP SWAP2 SWAP1 POP JUMP JUMPDEST PUSH0 PUSH1 0x20 PUSH1 0x1F DUP4 ADD DIV SWAP1 POP SWAP2 SWAP1 POP JUMP JUMPDEST PUSH0 DUP3 DUP3 SHL SWAP1 POP SWAP3 SWAP2 POP POP JUMP JUMPDEST PUSH0 PUSH1 0x8 DUP4 MUL PUSH2 0x836 PUSH32 0xFFFFFFFFFFFFFFFFFFFFFFFFFFFFFFFFFFFFFFFFFFFFFFFFFFFFFFFFFFFFFFFF DUP3 PUSH2 0x7FB JUMP JUMPDEST PUSH2 0x840 DUP7 DUP4 PUSH2 0x7FB JUMP JUMPDEST SWAP6 POP DUP1 NOT DUP5 AND SWAP4 POP DUP1 DUP7 AND DUP5 OR SWAP3 POP POP POP SWAP4 SWAP3 POP POP POP JUMP JUMPDEST PUSH0 DUP2 SWAP1 POP SWAP2 SWAP1 POP JUMP JUMPDEST PUSH0 PUSH2 0x87B PUSH2 0x876 PUSH2 0x871 DUP5 PUSH2 0x3C6 JUMP JUMPDEST PUSH2 0x858 JUMP JUMPDEST PUSH2 0x3C6 JUMP JUMPDEST SWAP1 POP SWAP2 SWAP1 POP JUMP JUMPDEST PUSH0 DUP2 SWAP1 POP SWAP2 SWAP1 POP JUMP JUMPDEST PUSH2 0x894 DUP4 PUSH2 0x861 JUMP JUMPDEST PUSH2 0x8A8 PUSH2 0x8A0 DUP3 PUSH2 0x882 JUMP JUMPDEST DUP5 DUP5 SLOAD PUSH2 0x807 JUMP JUMPDEST DUP3 SSTORE POP POP POP POP JUMP JUMPDEST PUSH0 PUSH0 SWAP1 POP SWAP1 JUMP JUMPDEST PUSH2 0x8BF PUSH2 0x8B0 JUMP JUMPDEST PUSH2 0x8CA DUP2 DUP5 DUP5 PUSH2 0x88B JUMP JUMPDEST POP POP POP JUMP JUMPDEST JUMPDEST DUP2 DUP2 LT ISZERO PUSH2 0x8ED JUMPI PUSH2 0x8E2 PUSH0 DUP3 PUSH2 0x8B7 JUMP JUMPDEST PUSH1 0x1 DUP2 ADD SWAP1 POP PUSH2 0x8D0 JUMP JUMPDEST POP POP JUMP JUMPDEST PUSH1 0x1F DUP3 GT ISZERO PUSH2 0x932 JUMPI PUSH2 0x903 DUP2 PUSH2 0x7DA JUMP JUMPDEST PUSH2 0x90C DUP5 PUSH2 0x7EC JUMP JUMPDEST DUP2 ADD PUSH1 0x20 DUP6 LT ISZERO PUSH2 0x91B JUMPI DUP2 SWAP1 POP JUMPDEST PUSH2 0x92F PUSH2 0x927 DUP6 PUSH2 0x7EC JUMP JUMPDEST DUP4 ADD DUP3 PUSH2 0x8CF JUMP JUMPDEST POP POP JUMPDEST POP POP POP JUMP JUMPDEST PUSH0 DUP3 DUP3 SHR SWAP1 POP SWAP3 SWAP2 POP POP JUMP JUMPDEST PUSH0 PUSH2 0x952 PUSH0 NOT DUP5 PUSH1 0x8 MUL PUSH2 0x937 JUMP JUMPDEST NOT DUP1 DUP4 AND SWAP2 POP POP SWAP3 SWAP2 POP POP JUMP JUMPDEST PUSH0 PUSH2 0x96A DUP4 DUP4 PUSH2 0x943 JUMP JUMPDEST SWAP2 POP DUP3 PUSH1 0x2 MUL DUP3 OR SWAP1 POP SWAP3 SWAP2 POP POP JUMP JUMPDEST PUSH2 0x983 DUP3 PUSH2 0x45D JUMP JUMPDEST PUSH8 0xFFFFFFFFFFFFFFFF DUP2 GT ISZERO PUSH2 0x99C JUMPI PUSH2 0x99B PUSH2 0x536 JUMP JUMPDEST JUMPDEST PUSH2 0x9A6 DUP3 SLOAD PUSH2 0x6CE JUMP JUMPDEST PUSH2 0x9B1 DUP3 DUP3 DUP6 PUSH2 0x8F1 JUMP JUMPDEST PUSH0 PUSH1 0x20 SWAP1 POP PUSH1 0x1F DUP4 GT PUSH1 0x1 DUP2 EQ PUSH2 0x9E2 JUMPI PUSH0 DUP5 ISZERO PUSH2 0x9D0 JUMPI DUP3 DUP8 ADD MLOAD SWAP1 POP JUMPDEST PUSH2 0x9DA DUP6 DUP3 PUSH2 0x95F JUMP JUMPDEST DUP7 SSTORE POP PUSH2 0xA41 JUMP JUMPDEST PUSH1 0x1F NOT DUP5 AND PUSH2 0x9F0 DUP7 PUSH2 0x7DA JUMP JUMPDEST PUSH0 JUMPDEST DUP3 DUP2 LT ISZERO PUSH2 0xA17 JUMPI DUP5 DUP10 ADD MLOAD DUP3 SSTORE PUSH1 0x1 DUP3 ADD SWAP2 POP PUSH1 0x20 DUP6 ADD SWAP5 POP PUSH1 0x20 DUP2 ADD SWAP1 POP PUSH2 0x9F2 JUMP JUMPDEST DUP7 DUP4 LT ISZERO PUSH2 0xA34 JUMPI DUP5 DUP10 ADD MLOAD PUSH2 0xA30 PUSH1 0x1F DUP10 AND DUP3 PUSH2 0x943 JUMP JUMPDEST DUP4 SSTORE POP JUMPDEST PUSH1 0x1 PUSH1 0x2 DUP9 MUL ADD DUP9 SSTORE POP POP POP JUMPDEST POP POP POP POP POP POP JUMP JUMPDEST PUSH0 PUSH1 0x20 DUP3 ADD SWAP1 POP DUP2 DUP2 SUB PUSH0 DUP4 ADD MSTORE PUSH2 0xA61 DUP2 DUP5 PUSH2 0x495 JUMP JUMPDEST SWAP1 POP SWAP3 SWAP2 POP POP JUMP INVALID LOG2 PUSH5 0x6970667358 0x22 SLT KECCAK256 PUSH21 0xA6F37724AA6E7A32531EA767503D706074223E3034 0xCA EQ PUSH12 0x2DE69897EBB92164736F6C63 NUMBER STOP ADDMOD 0x1E STOP CALLER "
				},
				"gasEstimates": {
					"creation": {
						"codeDepositCost": "543800",
						"executionCost": "573",
						"totalCost": "544373"
					},
					"external": {
						"getUser(uint256)": "infinite",
						"registerUser(string)": "infinite",
						"userCount()": "2402",
						"userExists(uint256)": "2759",
						"users(uint256)": "infinite"
					}
				},
				"methodIdentifiers": {
					"getUser(uint256)": "b0467deb",
					"registerUser(string)": "704f1b94",
					"userCount()": "07973ccf",
					"userExists(uint256)": "6f93dd91",
					"users(uint256)": "365b98b2"
				}
			},
			"storageLayout": {
				"storage": [
					{
						"astId": 8,
						"contract": "assessment3/UserRegistry.sol:UserRegistry",
						"label": "userCount",
						"offset": 0,
						"slot": "0",
						"type": "t_uint256"
					},
					{
						"astId": 13,
						"contract": "assessment3/UserRegistry.sol:UserRegistry",
						"label": "users",
						"offset": 0,
						"slot": "1",
						"type": "t_mapping(t_uint256,t_struct(User)6_storage)"
					}
				],
				"types": {
					"t_mapping(t_uint256,t_struct(User)6_storage)": {
						"encoding": "mapping",
						"key": "t_uint256",
						"label": "mapping(uint256 => struct UserRegistry.User)",
						"numberOfBytes": "32",
						"value": "t_struct(User)6_storage"
					},
					"t_string_storage": {
						"encoding": "bytes",
						"label": "string",
						"numberOfBytes": "32"
					},
					"t_struct(User)6_storage": {
						"encoding": "inplace",
						"label": "struct UserRegistry.User",
						"members": [
							{
								"astId": 3,
								"contract": "assessment3/UserRegistry.sol:UserRegistry",
								"label": "id",
								"offset": 0,
								"slot": "0",
								"type": "t_uint256"
							},
							{
								"astId": 5,
								"contract": "assessment3/UserRegistry.sol:UserRegistry",
								"label": "name",
								"offset": 0,
								"slot": "1",
								"type": "t_string_storage"
							}
						],
						"numberOfBytes": "64"
					},
					"t_uint256": {
						"encoding": "inplace",
						"label": "uint256",
						"numberOfBytes": "32"
					}
				}
			},
			"userdoc": {
				"kind": "user",
				"methods": {},
				"version": 1
			}
		}
	}
}