{
	"assessment3/ComplainRegistry.sol": {
		"ComplaintRegistry": {
			"abi": [
				{
					"inputs": [
						{
							"internalType": "address",
							"name": "organisationRegistryAddress",
							"type": "address"
						},
						{
							"internalType": "address",
							"name": "userRegistryAddress",
							"type": "address"
						},
						{
							"internalType": "address",
							"name": "reputationCalculationAddress",
							"type": "address"
						}
					],
					"stateMutability": "nonpayable",
					"type": "constructor"
				},
				{
					"anonymous": false,
					"inputs": [
						{
							"indexed": true,
							"internalType": "uint256",
							"name": "complaintId",
							"type": "uint256"
						},
						{
							"indexed": true,
							"internalType": "uint256",
							"name": "userId",
							"type": "uint256"
						},
						{
							"indexed": true,
							"internalType": "uint256",
							"name": "orgId",
							"type": "uint256"
						},
						{
							"indexed": false,
							"internalType": "uint256",
							"name": "score",
							"type": "uint256"
						},
						{
							"indexed": false,
							"internalType": "address",
							"name": "reporter",
							"type": "address"
						},
						{
							"indexed": false,
							"internalType": "string",
							"name": "contentHash",
							"type": "string"
						}
					],
					"name": "ComplaintSubmitted",
					"type": "event"
				},
				{
					"inputs": [],
					"name": "complaintCount",
					"outputs": [
						{
							"internalType": "uint256",
							"name": "",
							"type": "uint256"
						}
					],
					"stateMutability": "view",
					"type": "function"
				},
				{
					"inputs": [
						{
							"internalType": "uint256",
							"name": "",
							"type": "uint256"
						}
					],
					"name": "complaints",
					"outputs": [
						{
							"internalType": "uint256",
							"name": "id",
							"type": "uint256"
						},
						{
							"internalType": "uint256",
							"name": "userId",
							"type": "uint256"
						},
						{
							"internalType": "uint256",
							"name": "orgId",
							"type": "uint256"
						},
						{
							"internalType": "uint256",
							"name": "score",
							"type": "uint256"
						},
						{
							"internalType": "uint256",
							"name": "timestamp",
							"type": "uint256"
						},
						{
							"internalType": "string",
							"name": "contentHash",
							"type": "string"
						},
						{
							"internalType": "address",
							"name": "reporter",
							"type": "address"
						}
					],
					"stateMutability": "view",
					"type": "function"
				},
				{
					"inputs": [
						{
							"internalType": "uint256",
							"name": "",
							"type": "uint256"
						},
						{
							"internalType": "uint256",
							"name": "",
							"type": "uint256"
						}
					],
					"name": "complaintsByOrganisation",
					"outputs": [
						{
							"internalType": "uint256",
							"name": "",
							"type": "uint256"
						}
					],
					"stateMutability": "view",
					"type": "function"
				},
				{
					"inputs": [
						{
							"internalType": "uint256",
							"name": "",
							"type": "uint256"
						},
						{
							"internalType": "uint256",
							"name": "",
							"type": "uint256"
						}
					],
					"name": "complaintsByUser",
					"outputs": [
						{
							"internalType": "uint256",
							"name": "",
							"type": "uint256"
						}
					],
					"stateMutability": "view",
					"type": "function"
				},
				{
					"inputs": [],
					"name": "organisationRegistry",
					"outputs": [
						{
							"internalType": "contract OrganisationRegistry",
							"name": "",
							"type": "address"
						}
					],
					"stateMutability": "view",
					"type": "function"
				},
				{
					"inputs": [],
					"name": "reputationCalculation",
					"outputs": [
						{
							"internalType": "contract ReputationCalculation",
							"name": "",
							"type": "address"
						}
					],
					"stateMutability": "view",
					"type": "function"
				},
				{
					"inputs": [
						{
							"internalType": "uint256",
							"name": "userId",
							"type": "uint256"
						},
						{
							"internalType": "uint256",
							"name": "orgId",
							"type": "uint256"
						},
						{
							"internalType": "uint256",
							"name": "score",
							"type": "uint256"
						},
						{
							"internalType": "string",
							"name": "contentHash",
							"type": "string"
						}
					],
					"name": "submitComplaint",
					"outputs": [
						{
							"internalType": "uint256",
							"name": "",
							"type": "uint256"
						}
					],
					"stateMutability": "nonpayable",
					"type": "function"
				},
				{
					"inputs": [],
					"name": "userRegistry",
					"outputs": [
						{
							"internalType": "contract UserRegistry",
							"name": "",
							"type": "address"
						}
					],
					"stateMutability": "view",
					"type": "function"
				}
			],
			"devdoc": {
				"kind": "dev",
				"methods": {},
				"version": 1
			},
			"evm": {
				"assembly": "    /* \"assessment3/ComplainRegistry.sol\":169:2716  contract ComplaintRegistry {... */\n  mstore(0x40, 0x80)\n    /* \"assessment3/ComplainRegistry.sol\":997:1608  constructor (address organisationRegistryAddress, address userRegistryAddress, address reputationCalculationAddress) {... */\n  callvalue\n  dup1\n  iszero\n  tag_1\n  jumpi\n  revert(0x00, 0x00)\ntag_1:\n  pop\n  mload(0x40)\n  sub(codesize, bytecodeSize)\n  dup1\n  bytecodeSize\n  dup4\n  codecopy\n  dup2\n  dup2\n  add\n  0x40\n  mstore\n  dup2\n  add\n  swap1\n  tag_2\n  swap2\n  swap1\n  tag_3\n  jump\t// in\ntag_2:\n    /* \"assessment3/ComplainRegistry.sol\":1172:1173  0 */\n  0x00\n    /* \"assessment3/ComplainRegistry.sol\":1133:1174  organisationRegistryAddress != address(0) */\n  0xffffffffffffffffffffffffffffffffffffffff\n  and\n    /* \"assessment3/ComplainRegistry.sol\":1133:1160  organisationRegistryAddress */\n  dup4\n    /* \"assessment3/ComplainRegistry.sol\":1133:1174  organisationRegistryAddress != address(0) */\n  0xffffffffffffffffffffffffffffffffffffffff\n  and\n  sub\n    /* \"assessment3/ComplainRegistry.sol\":1125:1199  require(organisationRegistryAddress != address(0), \"Invalid org registry\") */\n  tag_6\n  jumpi\n  mload(0x40)\n  0x08c379a000000000000000000000000000000000000000000000000000000000\n  dup2\n  mstore\n  0x04\n  add\n  tag_7\n  swap1\n  tag_8\n  jump\t// in\ntag_7:\n  mload(0x40)\n  dup1\n  swap2\n  sub\n  swap1\n  revert\ntag_6:\n    /* \"assessment3/ComplainRegistry.sol\":1249:1250  0 */\n  0x00\n    /* \"assessment3/ComplainRegistry.sol\":1218:1251  userRegistryAddress != address(0) */\n  0xffffffffffffffffffffffffffffffffffffffff\n  and\n    /* \"assessment3/ComplainRegistry.sol\":1218:1237  userRegistryAddress */\n  dup3\n    /* \"assessment3/ComplainRegistry.sol\":1218:1251  userRegistryAddress != address(0) */\n  0xffffffffffffffffffffffffffffffffffffffff\n  and\n  sub\n    /* \"assessment3/ComplainRegistry.sol\":1210:1277  require(userRegistryAddress != address(0), \"Invalid user registry\") */\n  tag_9\n  jumpi\n  mload(0x40)\n  0x08c379a000000000000000000000000000000000000000000000000000000000\n  dup2\n  mstore\n  0x04\n  add\n  tag_10\n  swap1\n  tag_11\n  jump\t// in\ntag_10:\n  mload(0x40)\n  dup1\n  swap2\n  sub\n  swap1\n  revert\ntag_9:\n    /* \"assessment3/ComplainRegistry.sol\":1336:1337  0 */\n  0x00\n    /* \"assessment3/ComplainRegistry.sol\":1296:1338  reputationCalculationAddress != address(0) */\n  0xffffffffffffffffffffffffffffffffffffffff\n  and\n    /* \"assessment3/ComplainRegistry.sol\":1296:1324  reputationCalculationAddress */\n  dup2\n    /* \"assessment3/ComplainRegistry.sol\":1296:1338  reputationCalculationAddress != address(0) */\n  0xffffffffffffffffffffffffffffffffffffffff\n  and\n  sub\n    /* \"assessment3/ComplainRegistry.sol\":1288:1370  require(reputationCalculationAddress != address(0), \"Invalid reputation contract\") */\n  tag_12\n  jumpi\n  mload(0x40)\n  0x08c379a000000000000000000000000000000000000000000000000000000000\n  dup2\n  mstore\n  0x04\n  add\n  tag_13\n  swap1\n  tag_14\n  jump\t// in\ntag_13:\n  mload(0x40)\n  dup1\n  swap2\n  sub\n  swap1\n  revert\ntag_12:\n    /* \"assessment3/ComplainRegistry.sol\":1427:1454  organisationRegistryAddress */\n  dup3\n    /* \"assessment3/ComplainRegistry.sol\":1383:1403  organisationRegistry */\n  0x04\n  0x00\n    /* \"assessment3/ComplainRegistry.sol\":1383:1455  organisationRegistry = OrganisationRegistry(organisationRegistryAddress) */\n  0x0100\n  exp\n  dup2\n  sload\n  dup2\n  0xffffffffffffffffffffffffffffffffffffffff\n  mul\n  not\n  and\n  swap1\n  dup4\n  0xffffffffffffffffffffffffffffffffffffffff\n  and\n  mul\n  or\n  swap1\n  sstore\n  pop\n    /* \"assessment3/ComplainRegistry.sol\":1494:1513  userRegistryAddress */\n  dup2\n    /* \"assessment3/ComplainRegistry.sol\":1466:1478  userRegistry */\n  0x05\n  0x00\n    /* \"assessment3/ComplainRegistry.sol\":1466:1514  userRegistry = UserRegistry(userRegistryAddress) */\n  0x0100\n  exp\n  dup2\n  sload\n  dup2\n  0xffffffffffffffffffffffffffffffffffffffff\n  mul\n  not\n  and\n  swap1\n  dup4\n  0xffffffffffffffffffffffffffffffffffffffff\n  and\n  mul\n  or\n  swap1\n  sstore\n  pop\n    /* \"assessment3/ComplainRegistry.sol\":1571:1599  reputationCalculationAddress */\n  dup1\n    /* \"assessment3/ComplainRegistry.sol\":1525:1546  reputationCalculation */\n  0x06\n  0x00\n    /* \"assessment3/ComplainRegistry.sol\":1525:1600  reputationCalculation = ReputationCalculation(reputationCalculationAddress) */\n  0x0100\n  exp\n  dup2\n  sload\n  dup2\n  0xffffffffffffffffffffffffffffffffffffffff\n  mul\n  not\n  and\n  swap1\n  dup4\n  0xffffffffffffffffffffffffffffffffffffffff\n  and\n  mul\n  or\n  swap1\n  sstore\n  pop\n    /* \"assessment3/ComplainRegistry.sol\":997:1608  constructor (address organisationRegistryAddress, address userRegistryAddress, address reputationCalculationAddress) {... */\n  pop\n  pop\n  pop\n    /* \"assessment3/ComplainRegistry.sol\":169:2716  contract ComplaintRegistry {... */\n  jump(tag_15)\n    /* \"#utility.yul\":88:205   */\ntag_17:\n    /* \"#utility.yul\":197:198   */\n  0x00\n    /* \"#utility.yul\":194:195   */\n  0x00\n    /* \"#utility.yul\":187:199   */\n  revert\n    /* \"#utility.yul\":334:460   */\ntag_19:\n    /* \"#utility.yul\":371:378   */\n  0x00\n    /* \"#utility.yul\":411:453   */\n  0xffffffffffffffffffffffffffffffffffffffff\n    /* \"#utility.yul\":404:409   */\n  dup3\n    /* \"#utility.yul\":400:454   */\n  and\n    /* \"#utility.yul\":389:454   */\n  swap1\n  pop\n    /* \"#utility.yul\":334:460   */\n  swap2\n  swap1\n  pop\n  jump\t// out\n    /* \"#utility.yul\":466:562   */\ntag_20:\n    /* \"#utility.yul\":503:510   */\n  0x00\n    /* \"#utility.yul\":532:556   */\n  tag_36\n    /* \"#utility.yul\":550:555   */\n  dup3\n    /* \"#utility.yul\":532:556   */\n  tag_19\n  jump\t// in\ntag_36:\n    /* \"#utility.yul\":521:556   */\n  swap1\n  pop\n    /* \"#utility.yul\":466:562   */\n  swap2\n  swap1\n  pop\n  jump\t// out\n    /* \"#utility.yul\":568:690   */\ntag_21:\n    /* \"#utility.yul\":641:665   */\n  tag_38\n    /* \"#utility.yul\":659:664   */\n  dup2\n    /* \"#utility.yul\":641:665   */\n  tag_20\n  jump\t// in\ntag_38:\n    /* \"#utility.yul\":634:639   */\n  dup2\n    /* \"#utility.yul\":631:666   */\n  eq\n    /* \"#utility.yul\":621:684   */\n  tag_39\n  jumpi\n    /* \"#utility.yul\":680:681   */\n  0x00\n    /* \"#utility.yul\":677:678   */\n  0x00\n    /* \"#utility.yul\":670:682   */\n  revert\n    /* \"#utility.yul\":621:684   */\ntag_39:\n    /* \"#utility.yul\":568:690   */\n  pop\n  jump\t// out\n    /* \"#utility.yul\":696:839   */\ntag_22:\n    /* \"#utility.yul\":753:758   */\n  0x00\n    /* \"#utility.yul\":784:790   */\n  dup2\n    /* \"#utility.yul\":778:791   */\n  mload\n    /* \"#utility.yul\":769:791   */\n  swap1\n  pop\n    /* \"#utility.yul\":800:833   */\n  tag_41\n    /* \"#utility.yul\":827:832   */\n  dup2\n    /* \"#utility.yul\":800:833   */\n  tag_21\n  jump\t// in\ntag_41:\n    /* \"#utility.yul\":696:839   */\n  swap3\n  swap2\n  pop\n  pop\n  jump\t// out\n    /* \"#utility.yul\":845:1508   */\ntag_3:\n    /* \"#utility.yul\":933:939   */\n  0x00\n    /* \"#utility.yul\":941:947   */\n  0x00\n    /* \"#utility.yul\":949:955   */\n  0x00\n    /* \"#utility.yul\":998:1000   */\n  0x60\n    /* \"#utility.yul\":986:995   */\n  dup5\n    /* \"#utility.yul\":977:984   */\n  dup7\n    /* \"#utility.yul\":973:996   */\n  sub\n    /* \"#utility.yul\":969:1001   */\n  slt\n    /* \"#utility.yul\":966:1085   */\n  iszero\n  tag_43\n  jumpi\n    /* \"#utility.yul\":1004:1083   */\n  tag_44\n  tag_17\n  jump\t// in\ntag_44:\n    /* \"#utility.yul\":966:1085   */\ntag_43:\n    /* \"#utility.yul\":1124:1125   */\n  0x00\n    /* \"#utility.yul\":1149:1213   */\n  tag_45\n    /* \"#utility.yul\":1205:1212   */\n  dup7\n    /* \"#utility.yul\":1196:1202   */\n  dup3\n    /* \"#utility.yul\":1185:1194   */\n  dup8\n    /* \"#utility.yul\":1181:1203   */\n  add\n    /* \"#utility.yul\":1149:1213   */\n  tag_22\n  jump\t// in\ntag_45:\n    /* \"#utility.yul\":1139:1213   */\n  swap4\n  pop\n    /* \"#utility.yul\":1095:1223   */\n  pop\n    /* \"#utility.yul\":1262:1264   */\n  0x20\n    /* \"#utility.yul\":1288:1352   */\n  tag_46\n    /* \"#utility.yul\":1344:1351   */\n  dup7\n    /* \"#utility.yul\":1335:1341   */\n  dup3\n    /* \"#utility.yul\":1324:1333   */\n  dup8\n    /* \"#utility.yul\":1320:1342   */\n  add\n    /* \"#utility.yul\":1288:1352   */\n  tag_22\n  jump\t// in\ntag_46:\n    /* \"#utility.yul\":1278:1352   */\n  swap3\n  pop\n    /* \"#utility.yul\":1233:1362   */\n  pop\n    /* \"#utility.yul\":1401:1403   */\n  0x40\n    /* \"#utility.yul\":1427:1491   */\n  tag_47\n    /* \"#utility.yul\":1483:1490   */\n  dup7\n    /* \"#utility.yul\":1474:1480   */\n  dup3\n    /* \"#utility.yul\":1463:1472   */\n  dup8\n    /* \"#utility.yul\":1459:1481   */\n  add\n    /* \"#utility.yul\":1427:1491   */\n  tag_22\n  jump\t// in\ntag_47:\n    /* \"#utility.yul\":1417:1491   */\n  swap2\n  pop\n    /* \"#utility.yul\":1372:1501   */\n  pop\n    /* \"#utility.yul\":845:1508   */\n  swap3\n  pop\n  swap3\n  pop\n  swap3\n  jump\t// out\n    /* \"#utility.yul\":1514:1683   */\ntag_23:\n    /* \"#utility.yul\":1598:1609   */\n  0x00\n    /* \"#utility.yul\":1632:1638   */\n  dup3\n    /* \"#utility.yul\":1627:1630   */\n  dup3\n    /* \"#utility.yul\":1620:1639   */\n  mstore\n    /* \"#utility.yul\":1672:1676   */\n  0x20\n    /* \"#utility.yul\":1667:1670   */\n  dup3\n    /* \"#utility.yul\":1663:1677   */\n  add\n    /* \"#utility.yul\":1648:1677   */\n  swap1\n  pop\n    /* \"#utility.yul\":1514:1683   */\n  swap3\n  swap2\n  pop\n  pop\n  jump\t// out\n    /* \"#utility.yul\":1689:1859   */\ntag_24:\n    /* \"#utility.yul\":1829:1851   */\n  0x496e76616c6964206f7267207265676973747279000000000000000000000000\n    /* \"#utility.yul\":1825:1826   */\n  0x00\n    /* \"#utility.yul\":1817:1823   */\n  dup3\n    /* \"#utility.yul\":1813:1827   */\n  add\n    /* \"#utility.yul\":1806:1852   */\n  mstore\n    /* \"#utility.yul\":1689:1859   */\n  pop\n  jump\t// out\n    /* \"#utility.yul\":1865:2231   */\ntag_25:\n    /* \"#utility.yul\":2007:2010   */\n  0x00\n    /* \"#utility.yul\":2028:2095   */\n  tag_51\n    /* \"#utility.yul\":2092:2094   */\n  0x14\n    /* \"#utility.yul\":2087:2090   */\n  dup4\n    /* \"#utility.yul\":2028:2095   */\n  tag_23\n  jump\t// in\ntag_51:\n    /* \"#utility.yul\":2021:2095   */\n  swap2\n  pop\n    /* \"#utility.yul\":2104:2197   */\n  tag_52\n    /* \"#utility.yul\":2193:2196   */\n  dup3\n    /* \"#utility.yul\":2104:2197   */\n  tag_24\n  jump\t// in\ntag_52:\n    /* \"#utility.yul\":2222:2224   */\n  0x20\n    /* \"#utility.yul\":2217:2220   */\n  dup3\n    /* \"#utility.yul\":2213:2225   */\n  add\n    /* \"#utility.yul\":2206:2225   */\n  swap1\n  pop\n    /* \"#utility.yul\":1865:2231   */\n  swap2\n  swap1\n  pop\n  jump\t// out\n    /* \"#utility.yul\":2237:2656   */\ntag_8:\n    /* \"#utility.yul\":2403:2407   */\n  0x00\n    /* \"#utility.yul\":2441:2443   */\n  0x20\n    /* \"#utility.yul\":2430:2439   */\n  dup3\n    /* \"#utility.yul\":2426:2444   */\n  add\n    /* \"#utility.yul\":2418:2444   */\n  swap1\n  pop\n    /* \"#utility.yul\":2490:2499   */\n  dup2\n    /* \"#utility.yul\":2484:2488   */\n  dup2\n    /* \"#utility.yul\":2480:2500   */\n  sub\n    /* \"#utility.yul\":2476:2477   */\n  0x00\n    /* \"#utility.yul\":2465:2474   */\n  dup4\n    /* \"#utility.yul\":2461:2478   */\n  add\n    /* \"#utility.yul\":2454:2501   */\n  mstore\n    /* \"#utility.yul\":2518:2649   */\n  tag_54\n    /* \"#utility.yul\":2644:2648   */\n  dup2\n    /* \"#utility.yul\":2518:2649   */\n  tag_25\n  jump\t// in\ntag_54:\n    /* \"#utility.yul\":2510:2649   */\n  swap1\n  pop\n    /* \"#utility.yul\":2237:2656   */\n  swap2\n  swap1\n  pop\n  jump\t// out\n    /* \"#utility.yul\":2662:2833   */\ntag_26:\n    /* \"#utility.yul\":2802:2825   */\n  0x496e76616c696420757365722072656769737472790000000000000000000000\n    /* \"#utility.yul\":2798:2799   */\n  0x00\n    /* \"#utility.yul\":2790:2796   */\n  dup3\n    /* \"#utility.yul\":2786:2800   */\n  add\n    /* \"#utility.yul\":2779:2826   */\n  mstore\n    /* \"#utility.yul\":2662:2833   */\n  pop\n  jump\t// out\n    /* \"#utility.yul\":2839:3205   */\ntag_27:\n    /* \"#utility.yul\":2981:2984   */\n  0x00\n    /* \"#utility.yul\":3002:3069   */\n  tag_57\n    /* \"#utility.yul\":3066:3068   */\n  0x15\n    /* \"#utility.yul\":3061:3064   */\n  dup4\n    /* \"#utility.yul\":3002:3069   */\n  tag_23\n  jump\t// in\ntag_57:\n    /* \"#utility.yul\":2995:3069   */\n  swap2\n  pop\n    /* \"#utility.yul\":3078:3171   */\n  tag_58\n    /* \"#utility.yul\":3167:3170   */\n  dup3\n    /* \"#utility.yul\":3078:3171   */\n  tag_26\n  jump\t// in\ntag_58:\n    /* \"#utility.yul\":3196:3198   */\n  0x20\n    /* \"#utility.yul\":3191:3194   */\n  dup3\n    /* \"#utility.yul\":3187:3199   */\n  add\n    /* \"#utility.yul\":3180:3199   */\n  swap1\n  pop\n    /* \"#utility.yul\":2839:3205   */\n  swap2\n  swap1\n  pop\n  jump\t// out\n    /* \"#utility.yul\":3211:3630   */\ntag_11:\n    /* \"#utility.yul\":3377:3381   */\n  0x00\n    /* \"#utility.yul\":3415:3417   */\n  0x20\n    /* \"#utility.yul\":3404:3413   */\n  dup3\n    /* \"#utility.yul\":3400:3418   */\n  add\n    /* \"#utility.yul\":3392:3418   */\n  swap1\n  pop\n    /* \"#utility.yul\":3464:3473   */\n  dup2\n    /* \"#utility.yul\":3458:3462   */\n  dup2\n    /* \"#utility.yul\":3454:3474   */\n  sub\n    /* \"#utility.yul\":3450:3451   */\n  0x00\n    /* \"#utility.yul\":3439:3448   */\n  dup4\n    /* \"#utility.yul\":3435:3452   */\n  add\n    /* \"#utility.yul\":3428:3475   */\n  mstore\n    /* \"#utility.yul\":3492:3623   */\n  tag_60\n    /* \"#utility.yul\":3618:3622   */\n  dup2\n    /* \"#utility.yul\":3492:3623   */\n  tag_27\n  jump\t// in\ntag_60:\n    /* \"#utility.yul\":3484:3623   */\n  swap1\n  pop\n    /* \"#utility.yul\":3211:3630   */\n  swap2\n  swap1\n  pop\n  jump\t// out\n    /* \"#utility.yul\":3636:3813   */\ntag_28:\n    /* \"#utility.yul\":3776:3805   */\n  0x496e76616c69642072657075746174696f6e20636f6e74726163740000000000\n    /* \"#utility.yul\":3772:3773   */\n  0x00\n    /* \"#utility.yul\":3764:3770   */\n  dup3\n    /* \"#utility.yul\":3760:3774   */\n  add\n    /* \"#utility.yul\":3753:3806   */\n  mstore\n    /* \"#utility.yul\":3636:3813   */\n  pop\n  jump\t// out\n    /* \"#utility.yul\":3819:4185   */\ntag_29:\n    /* \"#utility.yul\":3961:3964   */\n  0x00\n    /* \"#utility.yul\":3982:4049   */\n  tag_63\n    /* \"#utility.yul\":4046:4048   */\n  0x1b\n    /* \"#utility.yul\":4041:4044   */\n  dup4\n    /* \"#utility.yul\":3982:4049   */\n  tag_23\n  jump\t// in\ntag_63:\n    /* \"#utility.yul\":3975:4049   */\n  swap2\n  pop\n    /* \"#utility.yul\":4058:4151   */\n  tag_64\n    /* \"#utility.yul\":4147:4150   */\n  dup3\n    /* \"#utility.yul\":4058:4151   */\n  tag_28\n  jump\t// in\ntag_64:\n    /* \"#utility.yul\":4176:4178   */\n  0x20\n    /* \"#utility.yul\":4171:4174   */\n  dup3\n    /* \"#utility.yul\":4167:4179   */\n  add\n    /* \"#utility.yul\":4160:4179   */\n  swap1\n  pop\n    /* \"#utility.yul\":3819:4185   */\n  swap2\n  swap1\n  pop\n  jump\t// out\n    /* \"#utility.yul\":4191:4610   */\ntag_14:\n    /* \"#utility.yul\":4357:4361   */\n  0x00\n    /* \"#utility.yul\":4395:4397   */\n  0x20\n    /* \"#utility.yul\":4384:4393   */\n  dup3\n    /* \"#utility.yul\":4380:4398   */\n  add\n    /* \"#utility.yul\":4372:4398   */\n  swap1\n  pop\n    /* \"#utility.yul\":4444:4453   */\n  dup2\n    /* \"#utility.yul\":4438:4442   */\n  dup2\n    /* \"#utility.yul\":4434:4454   */\n  sub\n    /* \"#utility.yul\":4430:4431   */\n  0x00\n    /* \"#utility.yul\":4419:4428   */\n  dup4\n    /* \"#utility.yul\":4415:4432   */\n  add\n    /* \"#utility.yul\":4408:4455   */\n  mstore\n    /* \"#utility.yul\":4472:4603   */\n  tag_66\n    /* \"#utility.yul\":4598:4602   */\n  dup2\n    /* \"#utility.yul\":4472:4603   */\n  tag_29\n  jump\t// in\ntag_66:\n    /* \"#utility.yul\":4464:4603   */\n  swap1\n  pop\n    /* \"#utility.yul\":4191:4610   */\n  swap2\n  swap1\n  pop\n  jump\t// out\n    /* \"assessment3/ComplainRegistry.sol\":169:2716  contract ComplaintRegistry {... */\ntag_15:\n  dataSize(sub_0)\n  dup1\n  dataOffset(sub_0)\n  0x00\n  codecopy\n  0x00\n  return\nstop\n\nsub_0: assembly {\n        /* \"assessment3/ComplainRegistry.sol\":169:2716  contract ComplaintRegistry {... */\n      mstore(0x40, 0x80)\n      callvalue\n      dup1\n      iszero\n      tag_1\n      jumpi\n      revert(0x00, 0x00)\n    tag_1:\n      pop\n      jumpi(tag_2, lt(calldatasize, 0x04))\n      shr(0xe0, calldataload(0x00))\n      dup1\n      0x7a1c6b70\n      gt\n      tag_11\n      jumpi\n      dup1\n      0x7a1c6b70\n      eq\n      tag_7\n      jumpi\n      dup1\n      0x7af90ca3\n      eq\n      tag_8\n      jumpi\n      dup1\n      0x7e69e912\n      eq\n      tag_9\n      jumpi\n      dup1\n      0xc7059ea2\n      eq\n      tag_10\n      jumpi\n      jump(tag_2)\n    tag_11:\n      dup1\n      0x0dcbbd95\n      eq\n      tag_3\n      jumpi\n      dup1\n      0x2edea294\n      eq\n      tag_4\n      jumpi\n      dup1\n      0x36c582b7\n      eq\n      tag_5\n      jumpi\n      dup1\n      0x5c7460d6\n      eq\n      tag_6\n      jumpi\n    tag_2:\n      revert(0x00, 0x00)\n        /* \"assessment3/ComplainRegistry.sol\":559:612  mapping(uint256 => uint256[]) public complaintsByUser */\n    tag_3:\n      tag_12\n      0x04\n      dup1\n      calldatasize\n      sub\n      dup2\n      add\n      swap1\n      tag_13\n      swap2\n      swap1\n      tag_14\n      jump\t// in\n    tag_13:\n      tag_15\n      jump\t// in\n    tag_12:\n      mload(0x40)\n      tag_16\n      swap2\n      swap1\n      tag_17\n      jump\t// in\n    tag_16:\n      mload(0x40)\n      dup1\n      swap2\n      sub\n      swap1\n      return\n        /* \"assessment3/ComplainRegistry.sol\":399:428  uint256 public complaintCount */\n    tag_4:\n      tag_18\n      tag_19\n      jump\t// in\n    tag_18:\n      mload(0x40)\n      tag_20\n      swap2\n      swap1\n      tag_17\n      jump\t// in\n    tag_20:\n      mload(0x40)\n      dup1\n      swap2\n      sub\n      swap1\n      return\n        /* \"assessment3/ComplainRegistry.sol\":715:765  ReputationCalculation public reputationCalculation */\n    tag_5:\n      tag_21\n      tag_22\n      jump\t// in\n    tag_21:\n      mload(0x40)\n      tag_23\n      swap2\n      swap1\n      tag_24\n      jump\t// in\n    tag_23:\n      mload(0x40)\n      dup1\n      swap2\n      sub\n      swap1\n      return\n        /* \"assessment3/ComplainRegistry.sol\":676:708  UserRegistry public userRegistry */\n    tag_6:\n      tag_25\n      tag_26\n      jump\t// in\n    tag_25:\n      mload(0x40)\n      tag_27\n      swap2\n      swap1\n      tag_28\n      jump\t// in\n    tag_27:\n      mload(0x40)\n      dup1\n      swap2\n      sub\n      swap1\n      return\n        /* \"assessment3/ComplainRegistry.sol\":621:669  OrganisationRegistry public organisationRegistry */\n    tag_7:\n      tag_29\n      tag_30\n      jump\t// in\n    tag_29:\n      mload(0x40)\n      tag_31\n      swap2\n      swap1\n      tag_32\n      jump\t// in\n    tag_31:\n      mload(0x40)\n      dup1\n      swap2\n      sub\n      swap1\n      return\n        /* \"assessment3/ComplainRegistry.sol\":1616:2713  function submitComplaint(uint256 userId, uint256 orgId, uint256 score, string memory contentHash) external returns (uint256) {... */\n    tag_8:\n      tag_33\n      0x04\n      dup1\n      calldatasize\n      sub\n      dup2\n      add\n      swap1\n      tag_34\n      swap2\n      swap1\n      tag_35\n      jump\t// in\n    tag_34:\n      tag_36\n      jump\t// in\n    tag_33:\n      mload(0x40)\n      tag_37\n      swap2\n      swap1\n      tag_17\n      jump\t// in\n    tag_37:\n      mload(0x40)\n      dup1\n      swap2\n      sub\n      swap1\n      return\n        /* \"assessment3/ComplainRegistry.sol\":437:484  mapping(uint256 => Complaint) public complaints */\n    tag_9:\n      tag_38\n      0x04\n      dup1\n      calldatasize\n      sub\n      dup2\n      add\n      swap1\n      tag_39\n      swap2\n      swap1\n      tag_40\n      jump\t// in\n    tag_39:\n      tag_41\n      jump\t// in\n    tag_38:\n      mload(0x40)\n      tag_42\n      swap8\n      swap7\n      swap6\n      swap5\n      swap4\n      swap3\n      swap2\n      swap1\n      tag_43\n      jump\t// in\n    tag_42:\n      mload(0x40)\n      dup1\n      swap2\n      sub\n      swap1\n      return\n        /* \"assessment3/ComplainRegistry.sol\":491:552  mapping(uint256 => uint256[]) public complaintsByOrganisation */\n    tag_10:\n      tag_44\n      0x04\n      dup1\n      calldatasize\n      sub\n      dup2\n      add\n      swap1\n      tag_45\n      swap2\n      swap1\n      tag_14\n      jump\t// in\n    tag_45:\n      tag_46\n      jump\t// in\n    tag_44:\n      mload(0x40)\n      tag_47\n      swap2\n      swap1\n      tag_17\n      jump\t// in\n    tag_47:\n      mload(0x40)\n      dup1\n      swap2\n      sub\n      swap1\n      return\n        /* \"assessment3/ComplainRegistry.sol\":559:612  mapping(uint256 => uint256[]) public complaintsByUser */\n    tag_15:\n      mstore(0x20, 0x03)\n      dup2\n      0x00\n      mstore\n      keccak256(0x00, 0x40)\n      dup2\n      dup2\n      sload\n      dup2\n      lt\n      tag_48\n      jumpi\n      0x00\n      dup1\n      revert\n    tag_48:\n      swap1\n      0x00\n      mstore\n      keccak256(0x00, 0x20)\n      add\n      0x00\n      swap2\n      pop\n      swap2\n      pop\n      pop\n      sload\n      dup2\n      jump\t// out\n        /* \"assessment3/ComplainRegistry.sol\":399:428  uint256 public complaintCount */\n    tag_19:\n      sload(0x00)\n      dup2\n      jump\t// out\n        /* \"assessment3/ComplainRegistry.sol\":715:765  ReputationCalculation public reputationCalculation */\n    tag_22:\n      0x06\n      0x00\n      swap1\n      sload\n      swap1\n      0x0100\n      exp\n      swap1\n      div\n      0xffffffffffffffffffffffffffffffffffffffff\n      and\n      dup2\n      jump\t// out\n        /* \"assessment3/ComplainRegistry.sol\":676:708  UserRegistry public userRegistry */\n    tag_26:\n      0x05\n      0x00\n      swap1\n      sload\n      swap1\n      0x0100\n      exp\n      swap1\n      div\n      0xffffffffffffffffffffffffffffffffffffffff\n      and\n      dup2\n      jump\t// out\n        /* \"assessment3/ComplainRegistry.sol\":621:669  OrganisationRegistry public organisationRegistry */\n    tag_30:\n      0x04\n      0x00\n      swap1\n      sload\n      swap1\n      0x0100\n      exp\n      swap1\n      div\n      0xffffffffffffffffffffffffffffffffffffffff\n      and\n      dup2\n      jump\t// out\n        /* \"assessment3/ComplainRegistry.sol\":1616:2713  function submitComplaint(uint256 userId, uint256 orgId, uint256 score, string memory contentHash) external returns (uint256) {... */\n    tag_36:\n        /* \"assessment3/ComplainRegistry.sol\":1732:1739  uint256 */\n      0x00\n        /* \"assessment3/ComplainRegistry.sol\":1788:1789  0 */\n      0x00\n        /* \"assessment3/ComplainRegistry.sol\":1766:1777  contentHash */\n      dup3\n        /* \"assessment3/ComplainRegistry.sol\":1760:1785  bytes(contentHash).length */\n      mload\n        /* \"assessment3/ComplainRegistry.sol\":1760:1789  bytes(contentHash).length > 0 */\n      gt\n        /* \"assessment3/ComplainRegistry.sol\":1752:1817  require(bytes(contentHash).length > 0, \"Complaint hash required\") */\n      tag_51\n      jumpi\n      mload(0x40)\n      0x08c379a000000000000000000000000000000000000000000000000000000000\n      dup2\n      mstore\n      0x04\n      add\n      tag_52\n      swap1\n      tag_53\n      jump\t// in\n    tag_52:\n      mload(0x40)\n      dup1\n      swap2\n      sub\n      swap1\n      revert\n    tag_51:\n        /* \"assessment3/ComplainRegistry.sol\":1838:1850  userRegistry */\n      0x05\n      0x00\n      swap1\n      sload\n      swap1\n      0x0100\n      exp\n      swap1\n      div\n      0xffffffffffffffffffffffffffffffffffffffff\n      and\n        /* \"assessment3/ComplainRegistry.sol\":1838:1861  userRegistry.userExists */\n      0xffffffffffffffffffffffffffffffffffffffff\n      and\n      0x6f93dd91\n        /* \"assessment3/ComplainRegistry.sol\":1862:1868  userId */\n      dup7\n        /* \"assessment3/ComplainRegistry.sol\":1838:1869  userRegistry.userExists(userId) */\n      mload(0x40)\n      dup3\n      0xffffffff\n      and\n      0xe0\n      shl\n      dup2\n      mstore\n      0x04\n      add\n      tag_54\n      swap2\n      swap1\n      tag_17\n      jump\t// in\n    tag_54:\n      0x20\n      mload(0x40)\n      dup1\n      dup4\n      sub\n      dup2\n      dup7\n      gas\n      staticcall\n      iszero\n      dup1\n      iszero\n      tag_56\n      jumpi\n      returndatacopy(0x00, 0x00, returndatasize)\n      revert(0x00, returndatasize)\n    tag_56:\n      pop\n      pop\n      pop\n      pop\n      mload(0x40)\n      returndatasize\n      not(0x1f)\n      0x1f\n      dup3\n      add\n      and\n      dup3\n      add\n      dup1\n      0x40\n      mstore\n      pop\n      dup2\n      add\n      swap1\n      tag_57\n      swap2\n      swap1\n      tag_58\n      jump\t// in\n    tag_57:\n        /* \"assessment3/ComplainRegistry.sol\":1830:1886  require(userRegistry.userExists(userId), \"Invalid user\") */\n      tag_59\n      jumpi\n      mload(0x40)\n      0x08c379a000000000000000000000000000000000000000000000000000000000\n      dup2\n      mstore\n      0x04\n      add\n      tag_60\n      swap1\n      tag_61\n      jump\t// in\n    tag_60:\n      mload(0x40)\n      dup1\n      swap2\n      sub\n      swap1\n      revert\n    tag_59:\n        /* \"assessment3/ComplainRegistry.sol\":1905:1917  userRegistry */\n      0x05\n      0x00\n      swap1\n      sload\n      swap1\n      0x0100\n      exp\n      swap1\n      div\n      0xffffffffffffffffffffffffffffffffffffffff\n      and\n        /* \"assessment3/ComplainRegistry.sol\":1905:1932  userRegistry.isVerifiedUser */\n      0xffffffffffffffffffffffffffffffffffffffff\n      and\n      0x39721b50\n        /* \"assessment3/ComplainRegistry.sol\":1933:1939  userId */\n      dup7\n        /* \"assessment3/ComplainRegistry.sol\":1905:1940  userRegistry.isVerifiedUser(userId) */\n      mload(0x40)\n      dup3\n      0xffffffff\n      and\n      0xe0\n      shl\n      dup2\n      mstore\n      0x04\n      add\n      tag_62\n      swap2\n      swap1\n      tag_17\n      jump\t// in\n    tag_62:\n      0x20\n      mload(0x40)\n      dup1\n      dup4\n      sub\n      dup2\n      dup7\n      gas\n      staticcall\n      iszero\n      dup1\n      iszero\n      tag_64\n      jumpi\n      returndatacopy(0x00, 0x00, returndatasize)\n      revert(0x00, returndatasize)\n    tag_64:\n      pop\n      pop\n      pop\n      pop\n      mload(0x40)\n      returndatasize\n      not(0x1f)\n      0x1f\n      dup3\n      add\n      and\n      dup3\n      add\n      dup1\n      0x40\n      mstore\n      pop\n      dup2\n      add\n      swap1\n      tag_65\n      swap2\n      swap1\n      tag_58\n      jump\t// in\n    tag_65:\n        /* \"assessment3/ComplainRegistry.sol\":1897:1962  require(userRegistry.isVerifiedUser(userId), \"User not verified\") */\n      tag_66\n      jumpi\n      mload(0x40)\n      0x08c379a000000000000000000000000000000000000000000000000000000000\n      dup2\n      mstore\n      0x04\n      add\n      tag_67\n      swap1\n      tag_68\n      jump\t// in\n    tag_67:\n      mload(0x40)\n      dup1\n      swap2\n      sub\n      swap1\n      revert\n    tag_66:\n        /* \"assessment3/ComplainRegistry.sol\":1981:2001  organisationRegistry */\n      0x04\n      0x00\n      swap1\n      sload\n      swap1\n      0x0100\n      exp\n      swap1\n      div\n      0xffffffffffffffffffffffffffffffffffffffff\n      and\n        /* \"assessment3/ComplainRegistry.sol\":1981:2020  organisationRegistry.organisationExists */\n      0xffffffffffffffffffffffffffffffffffffffff\n      and\n      0xe5c29861\n        /* \"assessment3/ComplainRegistry.sol\":2021:2026  orgId */\n      dup6\n        /* \"assessment3/ComplainRegistry.sol\":1981:2027  organisationRegistry.organisationExists(orgId) */\n      mload(0x40)\n      dup3\n      0xffffffff\n      and\n      0xe0\n      shl\n      dup2\n      mstore\n      0x04\n      add\n      tag_69\n      swap2\n      swap1\n      tag_17\n      jump\t// in\n    tag_69:\n      0x20\n      mload(0x40)\n      dup1\n      dup4\n      sub\n      dup2\n      dup7\n      gas\n      staticcall\n      iszero\n      dup1\n      iszero\n      tag_71\n      jumpi\n      returndatacopy(0x00, 0x00, returndatasize)\n      revert(0x00, returndatasize)\n    tag_71:\n      pop\n      pop\n      pop\n      pop\n      mload(0x40)\n      returndatasize\n      not(0x1f)\n      0x1f\n      dup3\n      add\n      and\n      dup3\n      add\n      dup1\n      0x40\n      mstore\n      pop\n      dup2\n      add\n      swap1\n      tag_72\n      swap2\n      swap1\n      tag_58\n      jump\t// in\n    tag_72:\n        /* \"assessment3/ComplainRegistry.sol\":1973:2059  require(organisationRegistry.organisationExists(orgId), \"Organisation does not exist\") */\n      tag_73\n      jumpi\n      mload(0x40)\n      0x08c379a000000000000000000000000000000000000000000000000000000000\n      dup2\n      mstore\n      0x04\n      add\n      tag_74\n      swap1\n      tag_75\n      jump\t// in\n    tag_74:\n      mload(0x40)\n      dup1\n      swap2\n      sub\n      swap1\n      revert\n    tag_73:\n        /* \"assessment3/ComplainRegistry.sol\":2072:2086  complaintCount */\n      0x00\n      0x00\n        /* \"assessment3/ComplainRegistry.sol\":2072:2088  complaintCount++ */\n      dup2\n      sload\n      dup1\n      swap3\n      swap2\n      swap1\n      tag_76\n      swap1\n      tag_77\n      jump\t// in\n    tag_76:\n      swap2\n      swap1\n      pop\n      sstore\n      pop\n        /* \"assessment3/ComplainRegistry.sol\":2130:2383  Complaint({... */\n      mload(0x40)\n      dup1\n      0xe0\n      add\n      0x40\n      mstore\n      dup1\n        /* \"assessment3/ComplainRegistry.sol\":2159:2173  complaintCount */\n      sload(0x00)\n        /* \"assessment3/ComplainRegistry.sol\":2130:2383  Complaint({... */\n      dup2\n      mstore\n      0x20\n      add\n        /* \"assessment3/ComplainRegistry.sol\":2196:2202  userId */\n      dup7\n        /* \"assessment3/ComplainRegistry.sol\":2130:2383  Complaint({... */\n      dup2\n      mstore\n      0x20\n      add\n        /* \"assessment3/ComplainRegistry.sol\":2224:2229  orgId */\n      dup6\n        /* \"assessment3/ComplainRegistry.sol\":2130:2383  Complaint({... */\n      dup2\n      mstore\n      0x20\n      add\n        /* \"assessment3/ComplainRegistry.sol\":2251:2256  score */\n      dup5\n        /* \"assessment3/ComplainRegistry.sol\":2130:2383  Complaint({... */\n      dup2\n      mstore\n      0x20\n      add\n        /* \"assessment3/ComplainRegistry.sol\":2282:2297  block.timestamp */\n      timestamp\n        /* \"assessment3/ComplainRegistry.sol\":2130:2383  Complaint({... */\n      dup2\n      mstore\n      0x20\n      add\n        /* \"assessment3/ComplainRegistry.sol\":2325:2336  contentHash */\n      dup4\n        /* \"assessment3/ComplainRegistry.sol\":2130:2383  Complaint({... */\n      dup2\n      mstore\n      0x20\n      add\n        /* \"assessment3/ComplainRegistry.sol\":2361:2371  msg.sender */\n      caller\n        /* \"assessment3/ComplainRegistry.sol\":2130:2383  Complaint({... */\n      0xffffffffffffffffffffffffffffffffffffffff\n      and\n      dup2\n      mstore\n      pop\n        /* \"assessment3/ComplainRegistry.sol\":2101:2111  complaints */\n      0x01\n        /* \"assessment3/ComplainRegistry.sol\":2101:2127  complaints[complaintCount] */\n      0x00\n        /* \"assessment3/ComplainRegistry.sol\":2112:2126  complaintCount */\n      sload(0x00)\n        /* \"assessment3/ComplainRegistry.sol\":2101:2127  complaints[complaintCount] */\n      dup2\n      mstore\n      0x20\n      add\n      swap1\n      dup2\n      mstore\n      0x20\n      add\n      0x00\n      keccak256\n        /* \"assessment3/ComplainRegistry.sol\":2101:2383  complaints[complaintCount] = Complaint({... */\n      0x00\n      dup3\n      add\n      mload\n      dup2\n      0x00\n      add\n      sstore\n      0x20\n      dup3\n      add\n      mload\n      dup2\n      0x01\n      add\n      sstore\n      0x40\n      dup3\n      add\n      mload\n      dup2\n      0x02\n      add\n      sstore\n      0x60\n      dup3\n      add\n      mload\n      dup2\n      0x03\n      add\n      sstore\n      0x80\n      dup3\n      add\n      mload\n      dup2\n      0x04\n      add\n      sstore\n      0xa0\n      dup3\n      add\n      mload\n      dup2\n      0x05\n      add\n      swap1\n      dup2\n      tag_78\n      swap2\n      swap1\n      tag_79\n      jump\t// in\n    tag_78:\n      pop\n      0xc0\n      dup3\n      add\n      mload\n      dup2\n      0x06\n      add\n      exp(0x0100, 0x00)\n      dup2\n      sload\n      dup2\n      0xffffffffffffffffffffffffffffffffffffffff\n      mul\n      not\n      and\n      swap1\n      dup4\n      0xffffffffffffffffffffffffffffffffffffffff\n      and\n      mul\n      or\n      swap1\n      sstore\n      pop\n      swap1\n      pop\n      pop\n        /* \"assessment3/ComplainRegistry.sol\":2396:2420  complaintsByOrganisation */\n      0x02\n        /* \"assessment3/ComplainRegistry.sol\":2396:2427  complaintsByOrganisation[orgId] */\n      0x00\n        /* \"assessment3/ComplainRegistry.sol\":2421:2426  orgId */\n      dup6\n        /* \"assessment3/ComplainRegistry.sol\":2396:2427  complaintsByOrganisation[orgId] */\n      dup2\n      mstore\n      0x20\n      add\n      swap1\n      dup2\n      mstore\n      0x20\n      add\n      0x00\n      keccak256\n        /* \"assessment3/ComplainRegistry.sol\":2433:2447  complaintCount */\n      sload(0x00)\n        /* \"assessment3/ComplainRegistry.sol\":2396:2448  complaintsByOrganisation[orgId].push(complaintCount) */\n      swap1\n      dup1\n      0x01\n      dup2\n      sload\n      add\n      dup1\n      dup3\n      sstore\n      dup1\n      swap2\n      pop\n      pop\n      0x01\n      swap1\n      sub\n      swap1\n      0x00\n      mstore\n      keccak256(0x00, 0x20)\n      add\n      0x00\n      swap1\n      swap2\n      swap1\n      swap2\n      swap1\n      swap2\n      pop\n      sstore\n        /* \"assessment3/ComplainRegistry.sol\":2459:2475  complaintsByUser */\n      0x03\n        /* \"assessment3/ComplainRegistry.sol\":2459:2483  complaintsByUser[userId] */\n      0x00\n        /* \"assessment3/ComplainRegistry.sol\":2476:2482  userId */\n      dup7\n        /* \"assessment3/ComplainRegistry.sol\":2459:2483  complaintsByUser[userId] */\n      dup2\n      mstore\n      0x20\n      add\n      swap1\n      dup2\n      mstore\n      0x20\n      add\n      0x00\n      keccak256\n        /* \"assessment3/ComplainRegistry.sol\":2489:2503  complaintCount */\n      sload(0x00)\n        /* \"assessment3/ComplainRegistry.sol\":2459:2504  complaintsByUser[userId].push(complaintCount) */\n      swap1\n      dup1\n      0x01\n      dup2\n      sload\n      add\n      dup1\n      dup3\n      sstore\n      dup1\n      swap2\n      pop\n      pop\n      0x01\n      swap1\n      sub\n      swap1\n      0x00\n      mstore\n      keccak256(0x00, 0x20)\n      add\n      0x00\n      swap1\n      swap2\n      swap1\n      swap2\n      swap1\n      swap2\n      pop\n      sstore\n        /* \"assessment3/ComplainRegistry.sol\":2517:2538  reputationCalculation */\n      0x06\n      0x00\n      swap1\n      sload\n      swap1\n      0x0100\n      exp\n      swap1\n      div\n      0xffffffffffffffffffffffffffffffffffffffff\n      and\n        /* \"assessment3/ComplainRegistry.sol\":2517:2550  reputationCalculation.updateScore */\n      0xffffffffffffffffffffffffffffffffffffffff\n      and\n      0x3f0a92fb\n        /* \"assessment3/ComplainRegistry.sol\":2551:2556  orgId */\n      dup6\n        /* \"assessment3/ComplainRegistry.sol\":2558:2564  userId */\n      dup8\n        /* \"assessment3/ComplainRegistry.sol\":2566:2571  score */\n      dup7\n        /* \"assessment3/ComplainRegistry.sol\":2517:2572  reputationCalculation.updateScore(orgId, userId, score) */\n      mload(0x40)\n      dup5\n      0xffffffff\n      and\n      0xe0\n      shl\n      dup2\n      mstore\n      0x04\n      add\n      tag_82\n      swap4\n      swap3\n      swap2\n      swap1\n      tag_83\n      jump\t// in\n    tag_82:\n      0x00\n      mload(0x40)\n      dup1\n      dup4\n      sub\n      dup2\n      0x00\n      dup8\n      dup1\n      extcodesize\n      iszero\n      dup1\n      iszero\n      tag_84\n      jumpi\n      revert(0x00, 0x00)\n    tag_84:\n      pop\n      gas\n      call\n      iszero\n      dup1\n      iszero\n      tag_86\n      jumpi\n      returndatacopy(0x00, 0x00, returndatasize)\n      revert(0x00, returndatasize)\n    tag_86:\n      pop\n      pop\n      pop\n      pop\n        /* \"assessment3/ComplainRegistry.sol\":2633:2638  orgId */\n      dup4\n        /* \"assessment3/ComplainRegistry.sol\":2625:2631  userId */\n      dup6\n        /* \"assessment3/ComplainRegistry.sol\":2609:2623  complaintCount */\n      sload(0x00)\n        /* \"assessment3/ComplainRegistry.sol\":2590:2671  ComplaintSubmitted(complaintCount, userId, orgId, score, msg.sender, contentHash) */\n      0xcbef0a7cd032ffabd8f73486fe687413271f738592a85614f94bec841d222af7\n        /* \"assessment3/ComplainRegistry.sol\":2640:2645  score */\n      dup7\n        /* \"assessment3/ComplainRegistry.sol\":2647:2657  msg.sender */\n      caller\n        /* \"assessment3/ComplainRegistry.sol\":2659:2670  contentHash */\n      dup8\n        /* \"assessment3/ComplainRegistry.sol\":2590:2671  ComplaintSubmitted(complaintCount, userId, orgId, score, msg.sender, contentHash) */\n      mload(0x40)\n      tag_87\n      swap4\n      swap3\n      swap2\n      swap1\n      tag_88\n      jump\t// in\n    tag_87:\n      mload(0x40)\n      dup1\n      swap2\n      sub\n      swap1\n      log4\n        /* \"assessment3/ComplainRegistry.sol\":2691:2705  complaintCount */\n      sload(0x00)\n        /* \"assessment3/ComplainRegistry.sol\":2684:2705  return complaintCount */\n      swap1\n      pop\n        /* \"assessment3/ComplainRegistry.sol\":1616:2713  function submitComplaint(uint256 userId, uint256 orgId, uint256 score, string memory contentHash) external returns (uint256) {... */\n      swap5\n      swap4\n      pop\n      pop\n      pop\n      pop\n      jump\t// out\n        /* \"assessment3/ComplainRegistry.sol\":437:484  mapping(uint256 => Complaint) public complaints */\n    tag_41:\n      mstore(0x20, 0x01)\n      dup1\n      0x00\n      mstore\n      keccak256(0x00, 0x40)\n      0x00\n      swap2\n      pop\n      swap1\n      pop\n      dup1\n      0x00\n      add\n      sload\n      swap1\n      dup1\n      0x01\n      add\n      sload\n      swap1\n      dup1\n      0x02\n      add\n      sload\n      swap1\n      dup1\n      0x03\n      add\n      sload\n      swap1\n      dup1\n      0x04\n      add\n      sload\n      swap1\n      dup1\n      0x05\n      add\n      dup1\n      sload\n      tag_89\n      swap1\n      tag_90\n      jump\t// in\n    tag_89:\n      dup1\n      0x1f\n      add\n      0x20\n      dup1\n      swap2\n      div\n      mul\n      0x20\n      add\n      mload(0x40)\n      swap1\n      dup2\n      add\n      0x40\n      mstore\n      dup1\n      swap3\n      swap2\n      swap1\n      dup2\n      dup2\n      mstore\n      0x20\n      add\n      dup3\n      dup1\n      sload\n      tag_91\n      swap1\n      tag_90\n      jump\t// in\n    tag_91:\n      dup1\n      iszero\n      tag_92\n      jumpi\n      dup1\n      0x1f\n      lt\n      tag_93\n      jumpi\n      0x0100\n      dup1\n      dup4\n      sload\n      div\n      mul\n      dup4\n      mstore\n      swap2\n      0x20\n      add\n      swap2\n      jump(tag_92)\n    tag_93:\n      dup3\n      add\n      swap2\n      swap1\n      0x00\n      mstore\n      keccak256(0x00, 0x20)\n      swap1\n    tag_94:\n      dup2\n      sload\n      dup2\n      mstore\n      swap1\n      0x01\n      add\n      swap1\n      0x20\n      add\n      dup1\n      dup4\n      gt\n      tag_94\n      jumpi\n      dup3\n      swap1\n      sub\n      0x1f\n      and\n      dup3\n      add\n      swap2\n    tag_92:\n      pop\n      pop\n      pop\n      pop\n      pop\n      swap1\n      dup1\n      0x06\n      add\n      0x00\n      swap1\n      sload\n      swap1\n      0x0100\n      exp\n      swap1\n      div\n      0xffffffffffffffffffffffffffffffffffffffff\n      and\n      swap1\n      pop\n      dup8\n      jump\t// out\n        /* \"assessment3/ComplainRegistry.sol\":491:552  mapping(uint256 => uint256[]) public complaintsByOrganisation */\n    tag_46:\n      mstore(0x20, 0x02)\n      dup2\n      0x00\n      mstore\n      keccak256(0x00, 0x40)\n      dup2\n      dup2\n      sload\n      dup2\n      lt\n      tag_95\n      jumpi\n      0x00\n      dup1\n      revert\n    tag_95:\n      swap1\n      0x00\n      mstore\n      keccak256(0x00, 0x20)\n      add\n      0x00\n      swap2\n      pop\n      swap2\n      pop\n      pop\n      sload\n      dup2\n      jump\t// out\n        /* \"#utility.yul\":7:82   */\n    tag_97:\n        /* \"#utility.yul\":40:46   */\n      0x00\n        /* \"#utility.yul\":73:75   */\n      0x40\n        /* \"#utility.yul\":67:76   */\n      mload\n        /* \"#utility.yul\":57:76   */\n      swap1\n      pop\n        /* \"#utility.yul\":7:82   */\n      swap1\n      jump\t// out\n        /* \"#utility.yul\":88:205   */\n    tag_98:\n        /* \"#utility.yul\":197:198   */\n      0x00\n        /* \"#utility.yul\":194:195   */\n      0x00\n        /* \"#utility.yul\":187:199   */\n      revert\n        /* \"#utility.yul\":211:328   */\n    tag_99:\n        /* \"#utility.yul\":320:321   */\n      0x00\n        /* \"#utility.yul\":317:318   */\n      0x00\n        /* \"#utility.yul\":310:322   */\n      revert\n        /* \"#utility.yul\":334:411   */\n    tag_100:\n        /* \"#utility.yul\":371:378   */\n      0x00\n        /* \"#utility.yul\":400:405   */\n      dup2\n        /* \"#utility.yul\":389:405   */\n      swap1\n      pop\n        /* \"#utility.yul\":334:411   */\n      swap2\n      swap1\n      pop\n      jump\t// out\n        /* \"#utility.yul\":417:539   */\n    tag_101:\n        /* \"#utility.yul\":490:514   */\n      tag_163\n        /* \"#utility.yul\":508:513   */\n      dup2\n        /* \"#utility.yul\":490:514   */\n      tag_100\n      jump\t// in\n    tag_163:\n        /* \"#utility.yul\":483:488   */\n      dup2\n        /* \"#utility.yul\":480:515   */\n      eq\n        /* \"#utility.yul\":470:533   */\n      tag_164\n      jumpi\n        /* \"#utility.yul\":529:530   */\n      0x00\n        /* \"#utility.yul\":526:527   */\n      0x00\n        /* \"#utility.yul\":519:531   */\n      revert\n        /* \"#utility.yul\":470:533   */\n    tag_164:\n        /* \"#utility.yul\":417:539   */\n      pop\n      jump\t// out\n        /* \"#utility.yul\":545:684   */\n    tag_102:\n        /* \"#utility.yul\":591:596   */\n      0x00\n        /* \"#utility.yul\":629:635   */\n      dup2\n        /* \"#utility.yul\":616:636   */\n      calldataload\n        /* \"#utility.yul\":607:636   */\n      swap1\n      pop\n        /* \"#utility.yul\":645:678   */\n      tag_166\n        /* \"#utility.yul\":672:677   */\n      dup2\n        /* \"#utility.yul\":645:678   */\n      tag_101\n      jump\t// in\n    tag_166:\n        /* \"#utility.yul\":545:684   */\n      swap3\n      swap2\n      pop\n      pop\n      jump\t// out\n        /* \"#utility.yul\":690:1164   */\n    tag_14:\n        /* \"#utility.yul\":758:764   */\n      0x00\n        /* \"#utility.yul\":766:772   */\n      0x00\n        /* \"#utility.yul\":815:817   */\n      0x40\n        /* \"#utility.yul\":803:812   */\n      dup4\n        /* \"#utility.yul\":794:801   */\n      dup6\n        /* \"#utility.yul\":790:813   */\n      sub\n        /* \"#utility.yul\":786:818   */\n      slt\n        /* \"#utility.yul\":783:902   */\n      iszero\n      tag_168\n      jumpi\n        /* \"#utility.yul\":821:900   */\n      tag_169\n      tag_98\n      jump\t// in\n    tag_169:\n        /* \"#utility.yul\":783:902   */\n    tag_168:\n        /* \"#utility.yul\":941:942   */\n      0x00\n        /* \"#utility.yul\":966:1019   */\n      tag_170\n        /* \"#utility.yul\":1011:1018   */\n      dup6\n        /* \"#utility.yul\":1002:1008   */\n      dup3\n        /* \"#utility.yul\":991:1000   */\n      dup7\n        /* \"#utility.yul\":987:1009   */\n      add\n        /* \"#utility.yul\":966:1019   */\n      tag_102\n      jump\t// in\n    tag_170:\n        /* \"#utility.yul\":956:1019   */\n      swap3\n      pop\n        /* \"#utility.yul\":912:1029   */\n      pop\n        /* \"#utility.yul\":1068:1070   */\n      0x20\n        /* \"#utility.yul\":1094:1147   */\n      tag_171\n        /* \"#utility.yul\":1139:1146   */\n      dup6\n        /* \"#utility.yul\":1130:1136   */\n      dup3\n        /* \"#utility.yul\":1119:1128   */\n      dup7\n        /* \"#utility.yul\":1115:1137   */\n      add\n        /* \"#utility.yul\":1094:1147   */\n      tag_102\n      jump\t// in\n    tag_171:\n        /* \"#utility.yul\":1084:1147   */\n      swap2\n      pop\n        /* \"#utility.yul\":1039:1157   */\n      pop\n        /* \"#utility.yul\":690:1164   */\n      swap3\n      pop\n      swap3\n      swap1\n      pop\n      jump\t// out\n        /* \"#utility.yul\":1170:1288   */\n    tag_103:\n        /* \"#utility.yul\":1257:1281   */\n      tag_173\n        /* \"#utility.yul\":1275:1280   */\n      dup2\n        /* \"#utility.yul\":1257:1281   */\n      tag_100\n      jump\t// in\n    tag_173:\n        /* \"#utility.yul\":1252:1255   */\n      dup3\n        /* \"#utility.yul\":1245:1282   */\n      mstore\n        /* \"#utility.yul\":1170:1288   */\n      pop\n      pop\n      jump\t// out\n        /* \"#utility.yul\":1294:1516   */\n    tag_17:\n        /* \"#utility.yul\":1387:1391   */\n      0x00\n        /* \"#utility.yul\":1425:1427   */\n      0x20\n        /* \"#utility.yul\":1414:1423   */\n      dup3\n        /* \"#utility.yul\":1410:1428   */\n      add\n        /* \"#utility.yul\":1402:1428   */\n      swap1\n      pop\n        /* \"#utility.yul\":1438:1509   */\n      tag_175\n        /* \"#utility.yul\":1506:1507   */\n      0x00\n        /* \"#utility.yul\":1495:1504   */\n      dup4\n        /* \"#utility.yul\":1491:1508   */\n      add\n        /* \"#utility.yul\":1482:1488   */\n      dup5\n        /* \"#utility.yul\":1438:1509   */\n      tag_103\n      jump\t// in\n    tag_175:\n        /* \"#utility.yul\":1294:1516   */\n      swap3\n      swap2\n      pop\n      pop\n      jump\t// out\n        /* \"#utility.yul\":1522:1648   */\n    tag_104:\n        /* \"#utility.yul\":1559:1566   */\n      0x00\n        /* \"#utility.yul\":1599:1641   */\n      0xffffffffffffffffffffffffffffffffffffffff\n        /* \"#utility.yul\":1592:1597   */\n      dup3\n        /* \"#utility.yul\":1588:1642   */\n      and\n        /* \"#utility.yul\":1577:1642   */\n      swap1\n      pop\n        /* \"#utility.yul\":1522:1648   */\n      swap2\n      swap1\n      pop\n      jump\t// out\n        /* \"#utility.yul\":1654:1714   */\n    tag_105:\n        /* \"#utility.yul\":1682:1685   */\n      0x00\n        /* \"#utility.yul\":1703:1708   */\n      dup2\n        /* \"#utility.yul\":1696:1708   */\n      swap1\n      pop\n        /* \"#utility.yul\":1654:1714   */\n      swap2\n      swap1\n      pop\n      jump\t// out\n        /* \"#utility.yul\":1720:1862   */\n    tag_106:\n        /* \"#utility.yul\":1770:1779   */\n      0x00\n        /* \"#utility.yul\":1803:1856   */\n      tag_179\n        /* \"#utility.yul\":1821:1855   */\n      tag_180\n        /* \"#utility.yul\":1830:1854   */\n      tag_181\n        /* \"#utility.yul\":1848:1853   */\n      dup5\n        /* \"#utility.yul\":1830:1854   */\n      tag_104\n      jump\t// in\n    tag_181:\n        /* \"#utility.yul\":1821:1855   */\n      tag_105\n      jump\t// in\n    tag_180:\n        /* \"#utility.yul\":1803:1856   */\n      tag_104\n      jump\t// in\n    tag_179:\n        /* \"#utility.yul\":1790:1856   */\n      swap1\n      pop\n        /* \"#utility.yul\":1720:1862   */\n      swap2\n      swap1\n      pop\n      jump\t// out\n        /* \"#utility.yul\":1868:1994   */\n    tag_107:\n        /* \"#utility.yul\":1918:1927   */\n      0x00\n        /* \"#utility.yul\":1951:1988   */\n      tag_183\n        /* \"#utility.yul\":1982:1987   */\n      dup3\n        /* \"#utility.yul\":1951:1988   */\n      tag_106\n      jump\t// in\n    tag_183:\n        /* \"#utility.yul\":1938:1988   */\n      swap1\n      pop\n        /* \"#utility.yul\":1868:1994   */\n      swap2\n      swap1\n      pop\n      jump\t// out\n        /* \"#utility.yul\":2000:2155   */\n    tag_108:\n        /* \"#utility.yul\":2079:2088   */\n      0x00\n        /* \"#utility.yul\":2112:2149   */\n      tag_185\n        /* \"#utility.yul\":2143:2148   */\n      dup3\n        /* \"#utility.yul\":2112:2149   */\n      tag_107\n      jump\t// in\n    tag_185:\n        /* \"#utility.yul\":2099:2149   */\n      swap1\n      pop\n        /* \"#utility.yul\":2000:2155   */\n      swap2\n      swap1\n      pop\n      jump\t// out\n        /* \"#utility.yul\":2161:2350   */\n    tag_109:\n        /* \"#utility.yul\":2277:2343   */\n      tag_187\n        /* \"#utility.yul\":2337:2342   */\n      dup2\n        /* \"#utility.yul\":2277:2343   */\n      tag_108\n      jump\t// in\n    tag_187:\n        /* \"#utility.yul\":2272:2275   */\n      dup3\n        /* \"#utility.yul\":2265:2344   */\n      mstore\n        /* \"#utility.yul\":2161:2350   */\n      pop\n      pop\n      jump\t// out\n        /* \"#utility.yul\":2356:2636   */\n    tag_24:\n        /* \"#utility.yul\":2478:2482   */\n      0x00\n        /* \"#utility.yul\":2516:2518   */\n      0x20\n        /* \"#utility.yul\":2505:2514   */\n      dup3\n        /* \"#utility.yul\":2501:2519   */\n      add\n        /* \"#utility.yul\":2493:2519   */\n      swap1\n      pop\n        /* \"#utility.yul\":2529:2629   */\n      tag_189\n        /* \"#utility.yul\":2626:2627   */\n      0x00\n        /* \"#utility.yul\":2615:2624   */\n      dup4\n        /* \"#utility.yul\":2611:2628   */\n      add\n        /* \"#utility.yul\":2602:2608   */\n      dup5\n        /* \"#utility.yul\":2529:2629   */\n      tag_109\n      jump\t// in\n    tag_189:\n        /* \"#utility.yul\":2356:2636   */\n      swap3\n      swap2\n      pop\n      pop\n      jump\t// out\n        /* \"#utility.yul\":2642:2788   */\n    tag_110:\n        /* \"#utility.yul\":2712:2721   */\n      0x00\n        /* \"#utility.yul\":2745:2782   */\n      tag_191\n        /* \"#utility.yul\":2776:2781   */\n      dup3\n        /* \"#utility.yul\":2745:2782   */\n      tag_107\n      jump\t// in\n    tag_191:\n        /* \"#utility.yul\":2732:2782   */\n      swap1\n      pop\n        /* \"#utility.yul\":2642:2788   */\n      swap2\n      swap1\n      pop\n      jump\t// out\n        /* \"#utility.yul\":2794:2965   */\n    tag_111:\n        /* \"#utility.yul\":2901:2958   */\n      tag_193\n        /* \"#utility.yul\":2952:2957   */\n      dup2\n        /* \"#utility.yul\":2901:2958   */\n      tag_110\n      jump\t// in\n    tag_193:\n        /* \"#utility.yul\":2896:2899   */\n      dup3\n        /* \"#utility.yul\":2889:2959   */\n      mstore\n        /* \"#utility.yul\":2794:2965   */\n      pop\n      pop\n      jump\t// out\n        /* \"#utility.yul\":2971:3233   */\n    tag_28:\n        /* \"#utility.yul\":3084:3088   */\n      0x00\n        /* \"#utility.yul\":3122:3124   */\n      0x20\n        /* \"#utility.yul\":3111:3120   */\n      dup3\n        /* \"#utility.yul\":3107:3125   */\n      add\n        /* \"#utility.yul\":3099:3125   */\n      swap1\n      pop\n        /* \"#utility.yul\":3135:3226   */\n      tag_195\n        /* \"#utility.yul\":3223:3224   */\n      0x00\n        /* \"#utility.yul\":3212:3221   */\n      dup4\n        /* \"#utility.yul\":3208:3225   */\n      add\n        /* \"#utility.yul\":3199:3205   */\n      dup5\n        /* \"#utility.yul\":3135:3226   */\n      tag_111\n      jump\t// in\n    tag_195:\n        /* \"#utility.yul\":2971:3233   */\n      swap3\n      swap2\n      pop\n      pop\n      jump\t// out\n        /* \"#utility.yul\":3239:3393   */\n    tag_112:\n        /* \"#utility.yul\":3317:3326   */\n      0x00\n        /* \"#utility.yul\":3350:3387   */\n      tag_197\n        /* \"#utility.yul\":3381:3386   */\n      dup3\n        /* \"#utility.yul\":3350:3387   */\n      tag_107\n      jump\t// in\n    tag_197:\n        /* \"#utility.yul\":3337:3387   */\n      swap1\n      pop\n        /* \"#utility.yul\":3239:3393   */\n      swap2\n      swap1\n      pop\n      jump\t// out\n        /* \"#utility.yul\":3399:3586   */\n    tag_113:\n        /* \"#utility.yul\":3514:3579   */\n      tag_199\n        /* \"#utility.yul\":3573:3578   */\n      dup2\n        /* \"#utility.yul\":3514:3579   */\n      tag_112\n      jump\t// in\n    tag_199:\n        /* \"#utility.yul\":3509:3512   */\n      dup3\n        /* \"#utility.yul\":3502:3580   */\n      mstore\n        /* \"#utility.yul\":3399:3586   */\n      pop\n      pop\n      jump\t// out\n        /* \"#utility.yul\":3592:3870   */\n    tag_32:\n        /* \"#utility.yul\":3713:3717   */\n      0x00\n        /* \"#utility.yul\":3751:3753   */\n      0x20\n        /* \"#utility.yul\":3740:3749   */\n      dup3\n        /* \"#utility.yul\":3736:3754   */\n      add\n        /* \"#utility.yul\":3728:3754   */\n      swap1\n      pop\n        /* \"#utility.yul\":3764:3863   */\n      tag_201\n        /* \"#utility.yul\":3860:3861   */\n      0x00\n        /* \"#utility.yul\":3849:3858   */\n      dup4\n        /* \"#utility.yul\":3845:3862   */\n      add\n        /* \"#utility.yul\":3836:3842   */\n      dup5\n        /* \"#utility.yul\":3764:3863   */\n      tag_113\n      jump\t// in\n    tag_201:\n        /* \"#utility.yul\":3592:3870   */\n      swap3\n      swap2\n      pop\n      pop\n      jump\t// out\n        /* \"#utility.yul\":3876:3993   */\n    tag_114:\n        /* \"#utility.yul\":3985:3986   */\n      0x00\n        /* \"#utility.yul\":3982:3983   */\n      0x00\n        /* \"#utility.yul\":3975:3987   */\n      revert\n        /* \"#utility.yul\":3999:4116   */\n    tag_115:\n        /* \"#utility.yul\":4108:4109   */\n      0x00\n        /* \"#utility.yul\":4105:4106   */\n      0x00\n        /* \"#utility.yul\":4098:4110   */\n      revert\n        /* \"#utility.yul\":4122:4224   */\n    tag_116:\n        /* \"#utility.yul\":4163:4169   */\n      0x00\n        /* \"#utility.yul\":4214:4216   */\n      0x1f\n        /* \"#utility.yul\":4210:4217   */\n      not\n        /* \"#utility.yul\":4205:4207   */\n      0x1f\n        /* \"#utility.yul\":4198:4203   */\n      dup4\n        /* \"#utility.yul\":4194:4208   */\n      add\n        /* \"#utility.yul\":4190:4218   */\n      and\n        /* \"#utility.yul\":4180:4218   */\n      swap1\n      pop\n        /* \"#utility.yul\":4122:4224   */\n      swap2\n      swap1\n      pop\n      jump\t// out\n        /* \"#utility.yul\":4230:4410   */\n    tag_117:\n        /* \"#utility.yul\":4278:4355   */\n      0x4e487b7100000000000000000000000000000000000000000000000000000000\n        /* \"#utility.yul\":4275:4276   */\n      0x00\n        /* \"#utility.yul\":4268:4356   */\n      mstore\n        /* \"#utility.yul\":4375:4379   */\n      0x41\n        /* \"#utility.yul\":4372:4373   */\n      0x04\n        /* \"#utility.yul\":4365:4380   */\n      mstore\n        /* \"#utility.yul\":4399:4403   */\n      0x24\n        /* \"#utility.yul\":4396:4397   */\n      0x00\n        /* \"#utility.yul\":4389:4404   */\n      revert\n        /* \"#utility.yul\":4416:4697   */\n    tag_118:\n        /* \"#utility.yul\":4499:4526   */\n      tag_207\n        /* \"#utility.yul\":4521:4525   */\n      dup3\n        /* \"#utility.yul\":4499:4526   */\n      tag_116\n      jump\t// in\n    tag_207:\n        /* \"#utility.yul\":4491:4497   */\n      dup2\n        /* \"#utility.yul\":4487:4527   */\n      add\n        /* \"#utility.yul\":4629:4635   */\n      dup2\n        /* \"#utility.yul\":4617:4627   */\n      dup2\n        /* \"#utility.yul\":4614:4636   */\n      lt\n        /* \"#utility.yul\":4593:4611   */\n      0xffffffffffffffff\n        /* \"#utility.yul\":4581:4591   */\n      dup3\n        /* \"#utility.yul\":4578:4612   */\n      gt\n        /* \"#utility.yul\":4575:4637   */\n      or\n        /* \"#utility.yul\":4572:4660   */\n      iszero\n      tag_208\n      jumpi\n        /* \"#utility.yul\":4640:4658   */\n      tag_209\n      tag_117\n      jump\t// in\n    tag_209:\n        /* \"#utility.yul\":4572:4660   */\n    tag_208:\n        /* \"#utility.yul\":4680:4690   */\n      dup1\n        /* \"#utility.yul\":4676:4678   */\n      0x40\n        /* \"#utility.yul\":4669:4691   */\n      mstore\n        /* \"#utility.yul\":4459:4697   */\n      pop\n        /* \"#utility.yul\":4416:4697   */\n      pop\n      pop\n      jump\t// out\n        /* \"#utility.yul\":4703:4832   */\n    tag_119:\n        /* \"#utility.yul\":4737:4743   */\n      0x00\n        /* \"#utility.yul\":4764:4784   */\n      tag_211\n      tag_97\n      jump\t// in\n    tag_211:\n        /* \"#utility.yul\":4754:4784   */\n      swap1\n      pop\n        /* \"#utility.yul\":4793:4826   */\n      tag_212\n        /* \"#utility.yul\":4821:4825   */\n      dup3\n        /* \"#utility.yul\":4813:4819   */\n      dup3\n        /* \"#utility.yul\":4793:4826   */\n      tag_118\n      jump\t// in\n    tag_212:\n        /* \"#utility.yul\":4703:4832   */\n      swap2\n      swap1\n      pop\n      jump\t// out\n        /* \"#utility.yul\":4838:5146   */\n    tag_120:\n        /* \"#utility.yul\":4900:4904   */\n      0x00\n        /* \"#utility.yul\":4990:5008   */\n      0xffffffffffffffff\n        /* \"#utility.yul\":4982:4988   */\n      dup3\n        /* \"#utility.yul\":4979:5009   */\n      gt\n        /* \"#utility.yul\":4976:5032   */\n      iszero\n      tag_214\n      jumpi\n        /* \"#utility.yul\":5012:5030   */\n      tag_215\n      tag_117\n      jump\t// in\n    tag_215:\n        /* \"#utility.yul\":4976:5032   */\n    tag_214:\n        /* \"#utility.yul\":5050:5079   */\n      tag_216\n        /* \"#utility.yul\":5072:5078   */\n      dup3\n        /* \"#utility.yul\":5050:5079   */\n      tag_116\n      jump\t// in\n    tag_216:\n        /* \"#utility.yul\":5042:5079   */\n      swap1\n      pop\n        /* \"#utility.yul\":5134:5138   */\n      0x20\n        /* \"#utility.yul\":5128:5132   */\n      dup2\n        /* \"#utility.yul\":5124:5139   */\n      add\n        /* \"#utility.yul\":5116:5139   */\n      swap1\n      pop\n        /* \"#utility.yul\":4838:5146   */\n      swap2\n      swap1\n      pop\n      jump\t// out\n        /* \"#utility.yul\":5152:5300   */\n    tag_121:\n        /* \"#utility.yul\":5250:5256   */\n      dup3\n        /* \"#utility.yul\":5245:5248   */\n      dup2\n        /* \"#utility.yul\":5240:5243   */\n      dup4\n        /* \"#utility.yul\":5227:5257   */\n      calldatacopy\n        /* \"#utility.yul\":5291:5292   */\n      0x00\n        /* \"#utility.yul\":5282:5288   */\n      dup4\n        /* \"#utility.yul\":5277:5280   */\n      dup4\n        /* \"#utility.yul\":5273:5289   */\n      add\n        /* \"#utility.yul\":5266:5293   */\n      mstore\n        /* \"#utility.yul\":5152:5300   */\n      pop\n      pop\n      pop\n      jump\t// out\n        /* \"#utility.yul\":5306:5731   */\n    tag_122:\n        /* \"#utility.yul\":5384:5389   */\n      0x00\n        /* \"#utility.yul\":5409:5475   */\n      tag_219\n        /* \"#utility.yul\":5425:5474   */\n      tag_220\n        /* \"#utility.yul\":5467:5473   */\n      dup5\n        /* \"#utility.yul\":5425:5474   */\n      tag_120\n      jump\t// in\n    tag_220:\n        /* \"#utility.yul\":5409:5475   */\n      tag_119\n      jump\t// in\n    tag_219:\n        /* \"#utility.yul\":5400:5475   */\n      swap1\n      pop\n        /* \"#utility.yul\":5498:5504   */\n      dup3\n        /* \"#utility.yul\":5491:5496   */\n      dup2\n        /* \"#utility.yul\":5484:5505   */\n      mstore\n        /* \"#utility.yul\":5536:5540   */\n      0x20\n        /* \"#utility.yul\":5529:5534   */\n      dup2\n        /* \"#utility.yul\":5525:5541   */\n      add\n        /* \"#utility.yul\":5574:5577   */\n      dup5\n        /* \"#utility.yul\":5565:5571   */\n      dup5\n        /* \"#utility.yul\":5560:5563   */\n      dup5\n        /* \"#utility.yul\":5556:5572   */\n      add\n        /* \"#utility.yul\":5553:5578   */\n      gt\n        /* \"#utility.yul\":5550:5662   */\n      iszero\n      tag_221\n      jumpi\n        /* \"#utility.yul\":5581:5660   */\n      tag_222\n      tag_115\n      jump\t// in\n    tag_222:\n        /* \"#utility.yul\":5550:5662   */\n    tag_221:\n        /* \"#utility.yul\":5671:5725   */\n      tag_223\n        /* \"#utility.yul\":5718:5724   */\n      dup5\n        /* \"#utility.yul\":5713:5716   */\n      dup3\n        /* \"#utility.yul\":5708:5711   */\n      dup6\n        /* \"#utility.yul\":5671:5725   */\n      tag_121\n      jump\t// in\n    tag_223:\n        /* \"#utility.yul\":5390:5731   */\n      pop\n        /* \"#utility.yul\":5306:5731   */\n      swap4\n      swap3\n      pop\n      pop\n      pop\n      jump\t// out\n        /* \"#utility.yul\":5751:6091   */\n    tag_123:\n        /* \"#utility.yul\":5807:5812   */\n      0x00\n        /* \"#utility.yul\":5856:5859   */\n      dup3\n        /* \"#utility.yul\":5849:5853   */\n      0x1f\n        /* \"#utility.yul\":5841:5847   */\n      dup4\n        /* \"#utility.yul\":5837:5854   */\n      add\n        /* \"#utility.yul\":5833:5860   */\n      slt\n        /* \"#utility.yul\":5823:5945   */\n      tag_225\n      jumpi\n        /* \"#utility.yul\":5864:5943   */\n      tag_226\n      tag_114\n      jump\t// in\n    tag_226:\n        /* \"#utility.yul\":5823:5945   */\n    tag_225:\n        /* \"#utility.yul\":5981:5987   */\n      dup2\n        /* \"#utility.yul\":5968:5988   */\n      calldataload\n        /* \"#utility.yul\":6006:6085   */\n      tag_227\n        /* \"#utility.yul\":6081:6084   */\n      dup5\n        /* \"#utility.yul\":6073:6079   */\n      dup3\n        /* \"#utility.yul\":6066:6070   */\n      0x20\n        /* \"#utility.yul\":6058:6064   */\n      dup7\n        /* \"#utility.yul\":6054:6071   */\n      add\n        /* \"#utility.yul\":6006:6085   */\n      tag_122\n      jump\t// in\n    tag_227:\n        /* \"#utility.yul\":5997:6085   */\n      swap2\n      pop\n        /* \"#utility.yul\":5813:6091   */\n      pop\n        /* \"#utility.yul\":5751:6091   */\n      swap3\n      swap2\n      pop\n      pop\n      jump\t// out\n        /* \"#utility.yul\":6097:7042   */\n    tag_35:\n        /* \"#utility.yul\":6193:6199   */\n      0x00\n        /* \"#utility.yul\":6201:6207   */\n      0x00\n        /* \"#utility.yul\":6209:6215   */\n      0x00\n        /* \"#utility.yul\":6217:6223   */\n      0x00\n        /* \"#utility.yul\":6266:6269   */\n      0x80\n        /* \"#utility.yul\":6254:6263   */\n      dup6\n        /* \"#utility.yul\":6245:6252   */\n      dup8\n        /* \"#utility.yul\":6241:6264   */\n      sub\n        /* \"#utility.yul\":6237:6270   */\n      slt\n        /* \"#utility.yul\":6234:6354   */\n      iszero\n      tag_229\n      jumpi\n        /* \"#utility.yul\":6273:6352   */\n      tag_230\n      tag_98\n      jump\t// in\n    tag_230:\n        /* \"#utility.yul\":6234:6354   */\n    tag_229:\n        /* \"#utility.yul\":6393:6394   */\n      0x00\n        /* \"#utility.yul\":6418:6471   */\n      tag_231\n        /* \"#utility.yul\":6463:6470   */\n      dup8\n        /* \"#utility.yul\":6454:6460   */\n      dup3\n        /* \"#utility.yul\":6443:6452   */\n      dup9\n        /* \"#utility.yul\":6439:6461   */\n      add\n        /* \"#utility.yul\":6418:6471   */\n      tag_102\n      jump\t// in\n    tag_231:\n        /* \"#utility.yul\":6408:6471   */\n      swap5\n      pop\n        /* \"#utility.yul\":6364:6481   */\n      pop\n        /* \"#utility.yul\":6520:6522   */\n      0x20\n        /* \"#utility.yul\":6546:6599   */\n      tag_232\n        /* \"#utility.yul\":6591:6598   */\n      dup8\n        /* \"#utility.yul\":6582:6588   */\n      dup3\n        /* \"#utility.yul\":6571:6580   */\n      dup9\n        /* \"#utility.yul\":6567:6589   */\n      add\n        /* \"#utility.yul\":6546:6599   */\n      tag_102\n      jump\t// in\n    tag_232:\n        /* \"#utility.yul\":6536:6599   */\n      swap4\n      pop\n        /* \"#utility.yul\":6491:6609   */\n      pop\n        /* \"#utility.yul\":6648:6650   */\n      0x40\n        /* \"#utility.yul\":6674:6727   */\n      tag_233\n        /* \"#utility.yul\":6719:6726   */\n      dup8\n        /* \"#utility.yul\":6710:6716   */\n      dup3\n        /* \"#utility.yul\":6699:6708   */\n      dup9\n        /* \"#utility.yul\":6695:6717   */\n      add\n        /* \"#utility.yul\":6674:6727   */\n      tag_102\n      jump\t// in\n    tag_233:\n        /* \"#utility.yul\":6664:6727   */\n      swap3\n      pop\n        /* \"#utility.yul\":6619:6737   */\n      pop\n        /* \"#utility.yul\":6804:6806   */\n      0x60\n        /* \"#utility.yul\":6793:6802   */\n      dup6\n        /* \"#utility.yul\":6789:6807   */\n      add\n        /* \"#utility.yul\":6776:6808   */\n      calldataload\n        /* \"#utility.yul\":6835:6853   */\n      0xffffffffffffffff\n        /* \"#utility.yul\":6827:6833   */\n      dup2\n        /* \"#utility.yul\":6824:6854   */\n      gt\n        /* \"#utility.yul\":6821:6938   */\n      iszero\n      tag_234\n      jumpi\n        /* \"#utility.yul\":6857:6936   */\n      tag_235\n      tag_99\n      jump\t// in\n    tag_235:\n        /* \"#utility.yul\":6821:6938   */\n    tag_234:\n        /* \"#utility.yul\":6962:7025   */\n      tag_236\n        /* \"#utility.yul\":7017:7024   */\n      dup8\n        /* \"#utility.yul\":7008:7014   */\n      dup3\n        /* \"#utility.yul\":6997:7006   */\n      dup9\n        /* \"#utility.yul\":6993:7015   */\n      add\n        /* \"#utility.yul\":6962:7025   */\n      tag_123\n      jump\t// in\n    tag_236:\n        /* \"#utility.yul\":6952:7025   */\n      swap2\n      pop\n        /* \"#utility.yul\":6747:7035   */\n      pop\n        /* \"#utility.yul\":6097:7042   */\n      swap3\n      swap6\n      swap2\n      swap5\n      pop\n      swap3\n      pop\n      jump\t// out\n        /* \"#utility.yul\":7048:7377   */\n    tag_40:\n        /* \"#utility.yul\":7107:7113   */\n      0x00\n        /* \"#utility.yul\":7156:7158   */\n      0x20\n        /* \"#utility.yul\":7144:7153   */\n      dup3\n        /* \"#utility.yul\":7135:7142   */\n      dup5\n        /* \"#utility.yul\":7131:7154   */\n      sub\n        /* \"#utility.yul\":7127:7159   */\n      slt\n        /* \"#utility.yul\":7124:7243   */\n      iszero\n      tag_238\n      jumpi\n        /* \"#utility.yul\":7162:7241   */\n      tag_239\n      tag_98\n      jump\t// in\n    tag_239:\n        /* \"#utility.yul\":7124:7243   */\n    tag_238:\n        /* \"#utility.yul\":7282:7283   */\n      0x00\n        /* \"#utility.yul\":7307:7360   */\n      tag_240\n        /* \"#utility.yul\":7352:7359   */\n      dup5\n        /* \"#utility.yul\":7343:7349   */\n      dup3\n        /* \"#utility.yul\":7332:7341   */\n      dup6\n        /* \"#utility.yul\":7328:7350   */\n      add\n        /* \"#utility.yul\":7307:7360   */\n      tag_102\n      jump\t// in\n    tag_240:\n        /* \"#utility.yul\":7297:7360   */\n      swap2\n      pop\n        /* \"#utility.yul\":7253:7370   */\n      pop\n        /* \"#utility.yul\":7048:7377   */\n      swap3\n      swap2\n      pop\n      pop\n      jump\t// out\n        /* \"#utility.yul\":7383:7482   */\n    tag_124:\n        /* \"#utility.yul\":7435:7441   */\n      0x00\n        /* \"#utility.yul\":7469:7474   */\n      dup2\n        /* \"#utility.yul\":7463:7475   */\n      mload\n        /* \"#utility.yul\":7453:7475   */\n      swap1\n      pop\n        /* \"#utility.yul\":7383:7482   */\n      swap2\n      swap1\n      pop\n      jump\t// out\n        /* \"#utility.yul\":7488:7657   */\n    tag_125:\n        /* \"#utility.yul\":7572:7583   */\n      0x00\n        /* \"#utility.yul\":7606:7612   */\n      dup3\n        /* \"#utility.yul\":7601:7604   */\n      dup3\n        /* \"#utility.yul\":7594:7613   */\n      mstore\n        /* \"#utility.yul\":7646:7650   */\n      0x20\n        /* \"#utility.yul\":7641:7644   */\n      dup3\n        /* \"#utility.yul\":7637:7651   */\n      add\n        /* \"#utility.yul\":7622:7651   */\n      swap1\n      pop\n        /* \"#utility.yul\":7488:7657   */\n      swap3\n      swap2\n      pop\n      pop\n      jump\t// out\n        /* \"#utility.yul\":7663:7802   */\n    tag_126:\n        /* \"#utility.yul\":7752:7758   */\n      dup3\n        /* \"#utility.yul\":7747:7750   */\n      dup2\n        /* \"#utility.yul\":7742:7745   */\n      dup4\n        /* \"#utility.yul\":7736:7759   */\n      mcopy\n        /* \"#utility.yul\":7793:7794   */\n      0x00\n        /* \"#utility.yul\":7784:7790   */\n      dup4\n        /* \"#utility.yul\":7779:7782   */\n      dup4\n        /* \"#utility.yul\":7775:7791   */\n      add\n        /* \"#utility.yul\":7768:7795   */\n      mstore\n        /* \"#utility.yul\":7663:7802   */\n      pop\n      pop\n      pop\n      jump\t// out\n        /* \"#utility.yul\":7808:8185   */\n    tag_127:\n        /* \"#utility.yul\":7896:7899   */\n      0x00\n        /* \"#utility.yul\":7924:7963   */\n      tag_245\n        /* \"#utility.yul\":7957:7962   */\n      dup3\n        /* \"#utility.yul\":7924:7963   */\n      tag_124\n      jump\t// in\n    tag_245:\n        /* \"#utility.yul\":7979:8050   */\n      tag_246\n        /* \"#utility.yul\":8043:8049   */\n      dup2\n        /* \"#utility.yul\":8038:8041   */\n      dup6\n        /* \"#utility.yul\":7979:8050   */\n      tag_125\n      jump\t// in\n    tag_246:\n        /* \"#utility.yul\":7972:8050   */\n      swap4\n      pop\n        /* \"#utility.yul\":8059:8124   */\n      tag_247\n        /* \"#utility.yul\":8117:8123   */\n      dup2\n        /* \"#utility.yul\":8112:8115   */\n      dup6\n        /* \"#utility.yul\":8105:8109   */\n      0x20\n        /* \"#utility.yul\":8098:8103   */\n      dup7\n        /* \"#utility.yul\":8094:8110   */\n      add\n        /* \"#utility.yul\":8059:8124   */\n      tag_126\n      jump\t// in\n    tag_247:\n        /* \"#utility.yul\":8149:8178   */\n      tag_248\n        /* \"#utility.yul\":8171:8177   */\n      dup2\n        /* \"#utility.yul\":8149:8178   */\n      tag_116\n      jump\t// in\n    tag_248:\n        /* \"#utility.yul\":8144:8147   */\n      dup5\n        /* \"#utility.yul\":8140:8179   */\n      add\n        /* \"#utility.yul\":8133:8179   */\n      swap2\n      pop\n        /* \"#utility.yul\":7900:8185   */\n      pop\n        /* \"#utility.yul\":7808:8185   */\n      swap3\n      swap2\n      pop\n      pop\n      jump\t// out\n        /* \"#utility.yul\":8191:8287   */\n    tag_128:\n        /* \"#utility.yul\":8228:8235   */\n      0x00\n        /* \"#utility.yul\":8257:8281   */\n      tag_250\n        /* \"#utility.yul\":8275:8280   */\n      dup3\n        /* \"#utility.yul\":8257:8281   */\n      tag_104\n      jump\t// in\n    tag_250:\n        /* \"#utility.yul\":8246:8281   */\n      swap1\n      pop\n        /* \"#utility.yul\":8191:8287   */\n      swap2\n      swap1\n      pop\n      jump\t// out\n        /* \"#utility.yul\":8293:8411   */\n    tag_129:\n        /* \"#utility.yul\":8380:8404   */\n      tag_252\n        /* \"#utility.yul\":8398:8403   */\n      dup2\n        /* \"#utility.yul\":8380:8404   */\n      tag_128\n      jump\t// in\n    tag_252:\n        /* \"#utility.yul\":8375:8378   */\n      dup3\n        /* \"#utility.yul\":8368:8405   */\n      mstore\n        /* \"#utility.yul\":8293:8411   */\n      pop\n      pop\n      jump\t// out\n        /* \"#utility.yul\":8417:9394   */\n    tag_43:\n        /* \"#utility.yul\":8698:8702   */\n      0x00\n        /* \"#utility.yul\":8736:8739   */\n      0xe0\n        /* \"#utility.yul\":8725:8734   */\n      dup3\n        /* \"#utility.yul\":8721:8740   */\n      add\n        /* \"#utility.yul\":8713:8740   */\n      swap1\n      pop\n        /* \"#utility.yul\":8750:8821   */\n      tag_254\n        /* \"#utility.yul\":8818:8819   */\n      0x00\n        /* \"#utility.yul\":8807:8816   */\n      dup4\n        /* \"#utility.yul\":8803:8820   */\n      add\n        /* \"#utility.yul\":8794:8800   */\n      dup11\n        /* \"#utility.yul\":8750:8821   */\n      tag_103\n      jump\t// in\n    tag_254:\n        /* \"#utility.yul\":8831:8903   */\n      tag_255\n        /* \"#utility.yul\":8899:8901   */\n      0x20\n        /* \"#utility.yul\":8888:8897   */\n      dup4\n        /* \"#utility.yul\":8884:8902   */\n      add\n        /* \"#utility.yul\":8875:8881   */\n      dup10\n        /* \"#utility.yul\":8831:8903   */\n      tag_103\n      jump\t// in\n    tag_255:\n        /* \"#utility.yul\":8913:8985   */\n      tag_256\n        /* \"#utility.yul\":8981:8983   */\n      0x40\n        /* \"#utility.yul\":8970:8979   */\n      dup4\n        /* \"#utility.yul\":8966:8984   */\n      add\n        /* \"#utility.yul\":8957:8963   */\n      dup9\n        /* \"#utility.yul\":8913:8985   */\n      tag_103\n      jump\t// in\n    tag_256:\n        /* \"#utility.yul\":8995:9067   */\n      tag_257\n        /* \"#utility.yul\":9063:9065   */\n      0x60\n        /* \"#utility.yul\":9052:9061   */\n      dup4\n        /* \"#utility.yul\":9048:9066   */\n      add\n        /* \"#utility.yul\":9039:9045   */\n      dup8\n        /* \"#utility.yul\":8995:9067   */\n      tag_103\n      jump\t// in\n    tag_257:\n        /* \"#utility.yul\":9077:9150   */\n      tag_258\n        /* \"#utility.yul\":9145:9148   */\n      0x80\n        /* \"#utility.yul\":9134:9143   */\n      dup4\n        /* \"#utility.yul\":9130:9149   */\n      add\n        /* \"#utility.yul\":9121:9127   */\n      dup7\n        /* \"#utility.yul\":9077:9150   */\n      tag_103\n      jump\t// in\n    tag_258:\n        /* \"#utility.yul\":9198:9207   */\n      dup2\n        /* \"#utility.yul\":9192:9196   */\n      dup2\n        /* \"#utility.yul\":9188:9208   */\n      sub\n        /* \"#utility.yul\":9182:9185   */\n      0xa0\n        /* \"#utility.yul\":9171:9180   */\n      dup4\n        /* \"#utility.yul\":9167:9186   */\n      add\n        /* \"#utility.yul\":9160:9209   */\n      mstore\n        /* \"#utility.yul\":9226:9304   */\n      tag_259\n        /* \"#utility.yul\":9299:9303   */\n      dup2\n        /* \"#utility.yul\":9290:9296   */\n      dup6\n        /* \"#utility.yul\":9226:9304   */\n      tag_127\n      jump\t// in\n    tag_259:\n        /* \"#utility.yul\":9218:9304   */\n      swap1\n      pop\n        /* \"#utility.yul\":9314:9387   */\n      tag_260\n        /* \"#utility.yul\":9382:9385   */\n      0xc0\n        /* \"#utility.yul\":9371:9380   */\n      dup4\n        /* \"#utility.yul\":9367:9386   */\n      add\n        /* \"#utility.yul\":9358:9364   */\n      dup5\n        /* \"#utility.yul\":9314:9387   */\n      tag_129\n      jump\t// in\n    tag_260:\n        /* \"#utility.yul\":8417:9394   */\n      swap9\n      swap8\n      pop\n      pop\n      pop\n      pop\n      pop\n      pop\n      pop\n      pop\n      jump\t// out\n        /* \"#utility.yul\":9400:9573   */\n    tag_130:\n        /* \"#utility.yul\":9540:9565   */\n      0x436f6d706c61696e742068617368207265717569726564000000000000000000\n        /* \"#utility.yul\":9536:9537   */\n      0x00\n        /* \"#utility.yul\":9528:9534   */\n      dup3\n        /* \"#utility.yul\":9524:9538   */\n      add\n        /* \"#utility.yul\":9517:9566   */\n      mstore\n        /* \"#utility.yul\":9400:9573   */\n      pop\n      jump\t// out\n        /* \"#utility.yul\":9579:9945   */\n    tag_131:\n        /* \"#utility.yul\":9721:9724   */\n      0x00\n        /* \"#utility.yul\":9742:9809   */\n      tag_263\n        /* \"#utility.yul\":9806:9808   */\n      0x17\n        /* \"#utility.yul\":9801:9804   */\n      dup4\n        /* \"#utility.yul\":9742:9809   */\n      tag_125\n      jump\t// in\n    tag_263:\n        /* \"#utility.yul\":9735:9809   */\n      swap2\n      pop\n        /* \"#utility.yul\":9818:9911   */\n      tag_264\n        /* \"#utility.yul\":9907:9910   */\n      dup3\n        /* \"#utility.yul\":9818:9911   */\n      tag_130\n      jump\t// in\n    tag_264:\n        /* \"#utility.yul\":9936:9938   */\n      0x20\n        /* \"#utility.yul\":9931:9934   */\n      dup3\n        /* \"#utility.yul\":9927:9939   */\n      add\n        /* \"#utility.yul\":9920:9939   */\n      swap1\n      pop\n        /* \"#utility.yul\":9579:9945   */\n      swap2\n      swap1\n      pop\n      jump\t// out\n        /* \"#utility.yul\":9951:10370   */\n    tag_53:\n        /* \"#utility.yul\":10117:10121   */\n      0x00\n        /* \"#utility.yul\":10155:10157   */\n      0x20\n        /* \"#utility.yul\":10144:10153   */\n      dup3\n        /* \"#utility.yul\":10140:10158   */\n      add\n        /* \"#utility.yul\":10132:10158   */\n      swap1\n      pop\n        /* \"#utility.yul\":10204:10213   */\n      dup2\n        /* \"#utility.yul\":10198:10202   */\n      dup2\n        /* \"#utility.yul\":10194:10214   */\n      sub\n        /* \"#utility.yul\":10190:10191   */\n      0x00\n        /* \"#utility.yul\":10179:10188   */\n      dup4\n        /* \"#utility.yul\":10175:10192   */\n      add\n        /* \"#utility.yul\":10168:10215   */\n      mstore\n        /* \"#utility.yul\":10232:10363   */\n      tag_266\n        /* \"#utility.yul\":10358:10362   */\n      dup2\n        /* \"#utility.yul\":10232:10363   */\n      tag_131\n      jump\t// in\n    tag_266:\n        /* \"#utility.yul\":10224:10363   */\n      swap1\n      pop\n        /* \"#utility.yul\":9951:10370   */\n      swap2\n      swap1\n      pop\n      jump\t// out\n        /* \"#utility.yul\":10376:10466   */\n    tag_132:\n        /* \"#utility.yul\":10410:10417   */\n      0x00\n        /* \"#utility.yul\":10453:10458   */\n      dup2\n        /* \"#utility.yul\":10446:10459   */\n      iszero\n        /* \"#utility.yul\":10439:10460   */\n      iszero\n        /* \"#utility.yul\":10428:10460   */\n      swap1\n      pop\n        /* \"#utility.yul\":10376:10466   */\n      swap2\n      swap1\n      pop\n      jump\t// out\n        /* \"#utility.yul\":10472:10588   */\n    tag_133:\n        /* \"#utility.yul\":10542:10563   */\n      tag_269\n        /* \"#utility.yul\":10557:10562   */\n      dup2\n        /* \"#utility.yul\":10542:10563   */\n      tag_132\n      jump\t// in\n    tag_269:\n        /* \"#utility.yul\":10535:10540   */\n      dup2\n        /* \"#utility.yul\":10532:10564   */\n      eq\n        /* \"#utility.yul\":10522:10582   */\n      tag_270\n      jumpi\n        /* \"#utility.yul\":10578:10579   */\n      0x00\n        /* \"#utility.yul\":10575:10576   */\n      0x00\n        /* \"#utility.yul\":10568:10580   */\n      revert\n        /* \"#utility.yul\":10522:10582   */\n    tag_270:\n        /* \"#utility.yul\":10472:10588   */\n      pop\n      jump\t// out\n        /* \"#utility.yul\":10594:10731   */\n    tag_134:\n        /* \"#utility.yul\":10648:10653   */\n      0x00\n        /* \"#utility.yul\":10679:10685   */\n      dup2\n        /* \"#utility.yul\":10673:10686   */\n      mload\n        /* \"#utility.yul\":10664:10686   */\n      swap1\n      pop\n        /* \"#utility.yul\":10695:10725   */\n      tag_272\n        /* \"#utility.yul\":10719:10724   */\n      dup2\n        /* \"#utility.yul\":10695:10725   */\n      tag_133\n      jump\t// in\n    tag_272:\n        /* \"#utility.yul\":10594:10731   */\n      swap3\n      swap2\n      pop\n      pop\n      jump\t// out\n        /* \"#utility.yul\":10737:11082   */\n    tag_58:\n        /* \"#utility.yul\":10804:10810   */\n      0x00\n        /* \"#utility.yul\":10853:10855   */\n      0x20\n        /* \"#utility.yul\":10841:10850   */\n      dup3\n        /* \"#utility.yul\":10832:10839   */\n      dup5\n        /* \"#utility.yul\":10828:10851   */\n      sub\n        /* \"#utility.yul\":10824:10856   */\n      slt\n        /* \"#utility.yul\":10821:10940   */\n      iszero\n      tag_274\n      jumpi\n        /* \"#utility.yul\":10859:10938   */\n      tag_275\n      tag_98\n      jump\t// in\n    tag_275:\n        /* \"#utility.yul\":10821:10940   */\n    tag_274:\n        /* \"#utility.yul\":10979:10980   */\n      0x00\n        /* \"#utility.yul\":11004:11065   */\n      tag_276\n        /* \"#utility.yul\":11057:11064   */\n      dup5\n        /* \"#utility.yul\":11048:11054   */\n      dup3\n        /* \"#utility.yul\":11037:11046   */\n      dup6\n        /* \"#utility.yul\":11033:11055   */\n      add\n        /* \"#utility.yul\":11004:11065   */\n      tag_134\n      jump\t// in\n    tag_276:\n        /* \"#utility.yul\":10994:11065   */\n      swap2\n      pop\n        /* \"#utility.yul\":10950:11075   */\n      pop\n        /* \"#utility.yul\":10737:11082   */\n      swap3\n      swap2\n      pop\n      pop\n      jump\t// out\n        /* \"#utility.yul\":11088:11250   */\n    tag_135:\n        /* \"#utility.yul\":11228:11242   */\n      0x496e76616c696420757365720000000000000000000000000000000000000000\n        /* \"#utility.yul\":11224:11225   */\n      0x00\n        /* \"#utility.yul\":11216:11222   */\n      dup3\n        /* \"#utility.yul\":11212:11226   */\n      add\n        /* \"#utility.yul\":11205:11243   */\n      mstore\n        /* \"#utility.yul\":11088:11250   */\n      pop\n      jump\t// out\n        /* \"#utility.yul\":11256:11622   */\n    tag_136:\n        /* \"#utility.yul\":11398:11401   */\n      0x00\n        /* \"#utility.yul\":11419:11486   */\n      tag_279\n        /* \"#utility.yul\":11483:11485   */\n      0x0c\n        /* \"#utility.yul\":11478:11481   */\n      dup4\n        /* \"#utility.yul\":11419:11486   */\n      tag_125\n      jump\t// in\n    tag_279:\n        /* \"#utility.yul\":11412:11486   */\n      swap2\n      pop\n        /* \"#utility.yul\":11495:11588   */\n      tag_280\n        /* \"#utility.yul\":11584:11587   */\n      dup3\n        /* \"#utility.yul\":11495:11588   */\n      tag_135\n      jump\t// in\n    tag_280:\n        /* \"#utility.yul\":11613:11615   */\n      0x20\n        /* \"#utility.yul\":11608:11611   */\n      dup3\n        /* \"#utility.yul\":11604:11616   */\n      add\n        /* \"#utility.yul\":11597:11616   */\n      swap1\n      pop\n        /* \"#utility.yul\":11256:11622   */\n      swap2\n      swap1\n      pop\n      jump\t// out\n        /* \"#utility.yul\":11628:12047   */\n    tag_61:\n        /* \"#utility.yul\":11794:11798   */\n      0x00\n        /* \"#utility.yul\":11832:11834   */\n      0x20\n        /* \"#utility.yul\":11821:11830   */\n      dup3\n        /* \"#utility.yul\":11817:11835   */\n      add\n        /* \"#utility.yul\":11809:11835   */\n      swap1\n      pop\n        /* \"#utility.yul\":11881:11890   */\n      dup2\n        /* \"#utility.yul\":11875:11879   */\n      dup2\n        /* \"#utility.yul\":11871:11891   */\n      sub\n        /* \"#utility.yul\":11867:11868   */\n      0x00\n        /* \"#utility.yul\":11856:11865   */\n      dup4\n        /* \"#utility.yul\":11852:11869   */\n      add\n        /* \"#utility.yul\":11845:11892   */\n      mstore\n        /* \"#utility.yul\":11909:12040   */\n      tag_282\n        /* \"#utility.yul\":12035:12039   */\n      dup2\n        /* \"#utility.yul\":11909:12040   */\n      tag_136\n      jump\t// in\n    tag_282:\n        /* \"#utility.yul\":11901:12040   */\n      swap1\n      pop\n        /* \"#utility.yul\":11628:12047   */\n      swap2\n      swap1\n      pop\n      jump\t// out\n        /* \"#utility.yul\":12053:12220   */\n    tag_137:\n        /* \"#utility.yul\":12193:12212   */\n      0x55736572206e6f74207665726966696564000000000000000000000000000000\n        /* \"#utility.yul\":12189:12190   */\n      0x00\n        /* \"#utility.yul\":12181:12187   */\n      dup3\n        /* \"#utility.yul\":12177:12191   */\n      add\n        /* \"#utility.yul\":12170:12213   */\n      mstore\n        /* \"#utility.yul\":12053:12220   */\n      pop\n      jump\t// out\n        /* \"#utility.yul\":12226:12592   */\n    tag_138:\n        /* \"#utility.yul\":12368:12371   */\n      0x00\n        /* \"#utility.yul\":12389:12456   */\n      tag_285\n        /* \"#utility.yul\":12453:12455   */\n      0x11\n        /* \"#utility.yul\":12448:12451   */\n      dup4\n        /* \"#utility.yul\":12389:12456   */\n      tag_125\n      jump\t// in\n    tag_285:\n        /* \"#utility.yul\":12382:12456   */\n      swap2\n      pop\n        /* \"#utility.yul\":12465:12558   */\n      tag_286\n        /* \"#utility.yul\":12554:12557   */\n      dup3\n        /* \"#utility.yul\":12465:12558   */\n      tag_137\n      jump\t// in\n    tag_286:\n        /* \"#utility.yul\":12583:12585   */\n      0x20\n        /* \"#utility.yul\":12578:12581   */\n      dup3\n        /* \"#utility.yul\":12574:12586   */\n      add\n        /* \"#utility.yul\":12567:12586   */\n      swap1\n      pop\n        /* \"#utility.yul\":12226:12592   */\n      swap2\n      swap1\n      pop\n      jump\t// out\n        /* \"#utility.yul\":12598:13017   */\n    tag_68:\n        /* \"#utility.yul\":12764:12768   */\n      0x00\n        /* \"#utility.yul\":12802:12804   */\n      0x20\n        /* \"#utility.yul\":12791:12800   */\n      dup3\n        /* \"#utility.yul\":12787:12805   */\n      add\n        /* \"#utility.yul\":12779:12805   */\n      swap1\n      pop\n        /* \"#utility.yul\":12851:12860   */\n      dup2\n        /* \"#utility.yul\":12845:12849   */\n      dup2\n        /* \"#utility.yul\":12841:12861   */\n      sub\n        /* \"#utility.yul\":12837:12838   */\n      0x00\n        /* \"#utility.yul\":12826:12835   */\n      dup4\n        /* \"#utility.yul\":12822:12839   */\n      add\n        /* \"#utility.yul\":12815:12862   */\n      mstore\n        /* \"#utility.yul\":12879:13010   */\n      tag_288\n        /* \"#utility.yul\":13005:13009   */\n      dup2\n        /* \"#utility.yul\":12879:13010   */\n      tag_138\n      jump\t// in\n    tag_288:\n        /* \"#utility.yul\":12871:13010   */\n      swap1\n      pop\n        /* \"#utility.yul\":12598:13017   */\n      swap2\n      swap1\n      pop\n      jump\t// out\n        /* \"#utility.yul\":13023:13200   */\n    tag_139:\n        /* \"#utility.yul\":13163:13192   */\n      0x4f7267616e69736174696f6e20646f6573206e6f742065786973740000000000\n        /* \"#utility.yul\":13159:13160   */\n      0x00\n        /* \"#utility.yul\":13151:13157   */\n      dup3\n        /* \"#utility.yul\":13147:13161   */\n      add\n        /* \"#utility.yul\":13140:13193   */\n      mstore\n        /* \"#utility.yul\":13023:13200   */\n      pop\n      jump\t// out\n        /* \"#utility.yul\":13206:13572   */\n    tag_140:\n        /* \"#utility.yul\":13348:13351   */\n      0x00\n        /* \"#utility.yul\":13369:13436   */\n      tag_291\n        /* \"#utility.yul\":13433:13435   */\n      0x1b\n        /* \"#utility.yul\":13428:13431   */\n      dup4\n        /* \"#utility.yul\":13369:13436   */\n      tag_125\n      jump\t// in\n    tag_291:\n        /* \"#utility.yul\":13362:13436   */\n      swap2\n      pop\n        /* \"#utility.yul\":13445:13538   */\n      tag_292\n        /* \"#utility.yul\":13534:13537   */\n      dup3\n        /* \"#utility.yul\":13445:13538   */\n      tag_139\n      jump\t// in\n    tag_292:\n        /* \"#utility.yul\":13563:13565   */\n      0x20\n        /* \"#utility.yul\":13558:13561   */\n      dup3\n        /* \"#utility.yul\":13554:13566   */\n      add\n        /* \"#utility.yul\":13547:13566   */\n      swap1\n      pop\n        /* \"#utility.yul\":13206:13572   */\n      swap2\n      swap1\n      pop\n      jump\t// out\n        /* \"#utility.yul\":13578:13997   */\n    tag_75:\n        /* \"#utility.yul\":13744:13748   */\n      0x00\n        /* \"#utility.yul\":13782:13784   */\n      0x20\n        /* \"#utility.yul\":13771:13780   */\n      dup3\n        /* \"#utility.yul\":13767:13785   */\n      add\n        /* \"#utility.yul\":13759:13785   */\n      swap1\n      pop\n        /* \"#utility.yul\":13831:13840   */\n      dup2\n        /* \"#utility.yul\":13825:13829   */\n      dup2\n        /* \"#utility.yul\":13821:13841   */\n      sub\n        /* \"#utility.yul\":13817:13818   */\n      0x00\n        /* \"#utility.yul\":13806:13815   */\n      dup4\n        /* \"#utility.yul\":13802:13819   */\n      add\n        /* \"#utility.yul\":13795:13842   */\n      mstore\n        /* \"#utility.yul\":13859:13990   */\n      tag_294\n        /* \"#utility.yul\":13985:13989   */\n      dup2\n        /* \"#utility.yul\":13859:13990   */\n      tag_140\n      jump\t// in\n    tag_294:\n        /* \"#utility.yul\":13851:13990   */\n      swap1\n      pop\n        /* \"#utility.yul\":13578:13997   */\n      swap2\n      swap1\n      pop\n      jump\t// out\n        /* \"#utility.yul\":14003:14183   */\n    tag_141:\n        /* \"#utility.yul\":14051:14128   */\n      0x4e487b7100000000000000000000000000000000000000000000000000000000\n        /* \"#utility.yul\":14048:14049   */\n      0x00\n        /* \"#utility.yul\":14041:14129   */\n      mstore\n        /* \"#utility.yul\":14148:14152   */\n      0x11\n        /* \"#utility.yul\":14145:14146   */\n      0x04\n        /* \"#utility.yul\":14138:14153   */\n      mstore\n        /* \"#utility.yul\":14172:14176   */\n      0x24\n        /* \"#utility.yul\":14169:14170   */\n      0x00\n        /* \"#utility.yul\":14162:14177   */\n      revert\n        /* \"#utility.yul\":14189:14422   */\n    tag_77:\n        /* \"#utility.yul\":14228:14231   */\n      0x00\n        /* \"#utility.yul\":14251:14275   */\n      tag_297\n        /* \"#utility.yul\":14269:14274   */\n      dup3\n        /* \"#utility.yul\":14251:14275   */\n      tag_100\n      jump\t// in\n    tag_297:\n        /* \"#utility.yul\":14242:14275   */\n      swap2\n      pop\n        /* \"#utility.yul\":14297:14363   */\n      0xffffffffffffffffffffffffffffffffffffffffffffffffffffffffffffffff\n        /* \"#utility.yul\":14290:14295   */\n      dup3\n        /* \"#utility.yul\":14287:14364   */\n      sub\n        /* \"#utility.yul\":14284:14387   */\n      tag_298\n      jumpi\n        /* \"#utility.yul\":14367:14385   */\n      tag_299\n      tag_141\n      jump\t// in\n    tag_299:\n        /* \"#utility.yul\":14284:14387   */\n    tag_298:\n        /* \"#utility.yul\":14414:14415   */\n      0x01\n        /* \"#utility.yul\":14407:14412   */\n      dup3\n        /* \"#utility.yul\":14403:14416   */\n      add\n        /* \"#utility.yul\":14396:14416   */\n      swap1\n      pop\n        /* \"#utility.yul\":14189:14422   */\n      swap2\n      swap1\n      pop\n      jump\t// out\n        /* \"#utility.yul\":14428:14608   */\n    tag_142:\n        /* \"#utility.yul\":14476:14553   */\n      0x4e487b7100000000000000000000000000000000000000000000000000000000\n        /* \"#utility.yul\":14473:14474   */\n      0x00\n        /* \"#utility.yul\":14466:14554   */\n      mstore\n        /* \"#utility.yul\":14573:14577   */\n      0x22\n        /* \"#utility.yul\":14570:14571   */\n      0x04\n        /* \"#utility.yul\":14563:14578   */\n      mstore\n        /* \"#utility.yul\":14597:14601   */\n      0x24\n        /* \"#utility.yul\":14594:14595   */\n      0x00\n        /* \"#utility.yul\":14587:14602   */\n      revert\n        /* \"#utility.yul\":14614:14934   */\n    tag_90:\n        /* \"#utility.yul\":14658:14664   */\n      0x00\n        /* \"#utility.yul\":14695:14696   */\n      0x02\n        /* \"#utility.yul\":14689:14693   */\n      dup3\n        /* \"#utility.yul\":14685:14697   */\n      div\n        /* \"#utility.yul\":14675:14697   */\n      swap1\n      pop\n        /* \"#utility.yul\":14742:14743   */\n      0x01\n        /* \"#utility.yul\":14736:14740   */\n      dup3\n        /* \"#utility.yul\":14732:14744   */\n      and\n        /* \"#utility.yul\":14763:14781   */\n      dup1\n        /* \"#utility.yul\":14753:14834   */\n      tag_302\n      jumpi\n        /* \"#utility.yul\":14819:14823   */\n      0x7f\n        /* \"#utility.yul\":14811:14817   */\n      dup3\n        /* \"#utility.yul\":14807:14824   */\n      and\n        /* \"#utility.yul\":14797:14824   */\n      swap2\n      pop\n        /* \"#utility.yul\":14753:14834   */\n    tag_302:\n        /* \"#utility.yul\":14881:14883   */\n      0x20\n        /* \"#utility.yul\":14873:14879   */\n      dup3\n        /* \"#utility.yul\":14870:14884   */\n      lt\n        /* \"#utility.yul\":14850:14868   */\n      dup2\n        /* \"#utility.yul\":14847:14885   */\n      sub\n        /* \"#utility.yul\":14844:14928   */\n      tag_303\n      jumpi\n        /* \"#utility.yul\":14900:14918   */\n      tag_304\n      tag_142\n      jump\t// in\n    tag_304:\n        /* \"#utility.yul\":14844:14928   */\n    tag_303:\n        /* \"#utility.yul\":14665:14934   */\n      pop\n        /* \"#utility.yul\":14614:14934   */\n      swap2\n      swap1\n      pop\n      jump\t// out\n        /* \"#utility.yul\":14940:15081   */\n    tag_143:\n        /* \"#utility.yul\":14989:14993   */\n      0x00\n        /* \"#utility.yul\":15012:15015   */\n      dup2\n        /* \"#utility.yul\":15004:15015   */\n      swap1\n      pop\n        /* \"#utility.yul\":15035:15038   */\n      dup2\n        /* \"#utility.yul\":15032:15033   */\n      0x00\n        /* \"#utility.yul\":15025:15039   */\n      mstore\n        /* \"#utility.yul\":15069:15073   */\n      0x20\n        /* \"#utility.yul\":15066:15067   */\n      0x00\n        /* \"#utility.yul\":15056:15074   */\n      keccak256\n        /* \"#utility.yul\":15048:15074   */\n      swap1\n      pop\n        /* \"#utility.yul\":14940:15081   */\n      swap2\n      swap1\n      pop\n      jump\t// out\n        /* \"#utility.yul\":15087:15180   */\n    tag_144:\n        /* \"#utility.yul\":15124:15130   */\n      0x00\n        /* \"#utility.yul\":15171:15173   */\n      0x20\n        /* \"#utility.yul\":15166:15168   */\n      0x1f\n        /* \"#utility.yul\":15159:15164   */\n      dup4\n        /* \"#utility.yul\":15155:15169   */\n      add\n        /* \"#utility.yul\":15151:15174   */\n      div\n        /* \"#utility.yul\":15141:15174   */\n      swap1\n      pop\n        /* \"#utility.yul\":15087:15180   */\n      swap2\n      swap1\n      pop\n      jump\t// out\n        /* \"#utility.yul\":15186:15293   */\n    tag_145:\n        /* \"#utility.yul\":15230:15238   */\n      0x00\n        /* \"#utility.yul\":15280:15285   */\n      dup3\n        /* \"#utility.yul\":15274:15278   */\n      dup3\n        /* \"#utility.yul\":15270:15286   */\n      shl\n        /* \"#utility.yul\":15249:15286   */\n      swap1\n      pop\n        /* \"#utility.yul\":15186:15293   */\n      swap3\n      swap2\n      pop\n      pop\n      jump\t// out\n        /* \"#utility.yul\":15299:15692   */\n    tag_146:\n        /* \"#utility.yul\":15368:15374   */\n      0x00\n        /* \"#utility.yul\":15418:15419   */\n      0x08\n        /* \"#utility.yul\":15406:15416   */\n      dup4\n        /* \"#utility.yul\":15402:15420   */\n      mul\n        /* \"#utility.yul\":15441:15538   */\n      tag_309\n        /* \"#utility.yul\":15471:15537   */\n      0xffffffffffffffffffffffffffffffffffffffffffffffffffffffffffffffff\n        /* \"#utility.yul\":15460:15469   */\n      dup3\n        /* \"#utility.yul\":15441:15538   */\n      tag_145\n      jump\t// in\n    tag_309:\n        /* \"#utility.yul\":15559:15598   */\n      tag_310\n        /* \"#utility.yul\":15589:15597   */\n      dup7\n        /* \"#utility.yul\":15578:15587   */\n      dup4\n        /* \"#utility.yul\":15559:15598   */\n      tag_145\n      jump\t// in\n    tag_310:\n        /* \"#utility.yul\":15547:15598   */\n      swap6\n      pop\n        /* \"#utility.yul\":15631:15635   */\n      dup1\n        /* \"#utility.yul\":15627:15636   */\n      not\n        /* \"#utility.yul\":15620:15625   */\n      dup5\n        /* \"#utility.yul\":15616:15637   */\n      and\n        /* \"#utility.yul\":15607:15637   */\n      swap4\n      pop\n        /* \"#utility.yul\":15680:15684   */\n      dup1\n        /* \"#utility.yul\":15670:15678   */\n      dup7\n        /* \"#utility.yul\":15666:15685   */\n      and\n        /* \"#utility.yul\":15659:15664   */\n      dup5\n        /* \"#utility.yul\":15656:15686   */\n      or\n        /* \"#utility.yul\":15646:15686   */\n      swap3\n      pop\n        /* \"#utility.yul\":15375:15692   */\n      pop\n      pop\n        /* \"#utility.yul\":15299:15692   */\n      swap4\n      swap3\n      pop\n      pop\n      pop\n      jump\t// out\n        /* \"#utility.yul\":15698:15840   */\n    tag_147:\n        /* \"#utility.yul\":15748:15757   */\n      0x00\n        /* \"#utility.yul\":15781:15834   */\n      tag_312\n        /* \"#utility.yul\":15799:15833   */\n      tag_313\n        /* \"#utility.yul\":15808:15832   */\n      tag_314\n        /* \"#utility.yul\":15826:15831   */\n      dup5\n        /* \"#utility.yul\":15808:15832   */\n      tag_100\n      jump\t// in\n    tag_314:\n        /* \"#utility.yul\":15799:15833   */\n      tag_105\n      jump\t// in\n    tag_313:\n        /* \"#utility.yul\":15781:15834   */\n      tag_100\n      jump\t// in\n    tag_312:\n        /* \"#utility.yul\":15768:15834   */\n      swap1\n      pop\n        /* \"#utility.yul\":15698:15840   */\n      swap2\n      swap1\n      pop\n      jump\t// out\n        /* \"#utility.yul\":15846:15921   */\n    tag_148:\n        /* \"#utility.yul\":15889:15892   */\n      0x00\n        /* \"#utility.yul\":15910:15915   */\n      dup2\n        /* \"#utility.yul\":15903:15915   */\n      swap1\n      pop\n        /* \"#utility.yul\":15846:15921   */\n      swap2\n      swap1\n      pop\n      jump\t// out\n        /* \"#utility.yul\":15927:16196   */\n    tag_149:\n        /* \"#utility.yul\":16037:16076   */\n      tag_317\n        /* \"#utility.yul\":16068:16075   */\n      dup4\n        /* \"#utility.yul\":16037:16076   */\n      tag_147\n      jump\t// in\n    tag_317:\n        /* \"#utility.yul\":16098:16189   */\n      tag_318\n        /* \"#utility.yul\":16147:16188   */\n      tag_319\n        /* \"#utility.yul\":16171:16187   */\n      dup3\n        /* \"#utility.yul\":16147:16188   */\n      tag_148\n      jump\t// in\n    tag_319:\n        /* \"#utility.yul\":16139:16145   */\n      dup5\n        /* \"#utility.yul\":16132:16136   */\n      dup5\n        /* \"#utility.yul\":16126:16137   */\n      sload\n        /* \"#utility.yul\":16098:16189   */\n      tag_146\n      jump\t// in\n    tag_318:\n        /* \"#utility.yul\":16092:16096   */\n      dup3\n        /* \"#utility.yul\":16085:16190   */\n      sstore\n        /* \"#utility.yul\":16003:16196   */\n      pop\n        /* \"#utility.yul\":15927:16196   */\n      pop\n      pop\n      pop\n      jump\t// out\n        /* \"#utility.yul\":16202:16275   */\n    tag_150:\n        /* \"#utility.yul\":16247:16250   */\n      0x00\n        /* \"#utility.yul\":16268:16269   */\n      0x00\n        /* \"#utility.yul\":16261:16269   */\n      swap1\n      pop\n        /* \"#utility.yul\":16202:16275   */\n      swap1\n      jump\t// out\n        /* \"#utility.yul\":16281:16470   */\n    tag_151:\n        /* \"#utility.yul\":16358:16390   */\n      tag_322\n      tag_150\n      jump\t// in\n    tag_322:\n        /* \"#utility.yul\":16399:16464   */\n      tag_323\n        /* \"#utility.yul\":16457:16463   */\n      dup2\n        /* \"#utility.yul\":16449:16455   */\n      dup5\n        /* \"#utility.yul\":16443:16447   */\n      dup5\n        /* \"#utility.yul\":16399:16464   */\n      tag_149\n      jump\t// in\n    tag_323:\n        /* \"#utility.yul\":16334:16470   */\n      pop\n        /* \"#utility.yul\":16281:16470   */\n      pop\n      pop\n      jump\t// out\n        /* \"#utility.yul\":16476:16662   */\n    tag_152:\n        /* \"#utility.yul\":16536:16656   */\n    tag_325:\n        /* \"#utility.yul\":16553:16556   */\n      dup2\n        /* \"#utility.yul\":16546:16551   */\n      dup2\n        /* \"#utility.yul\":16543:16557   */\n      lt\n        /* \"#utility.yul\":16536:16656   */\n      iszero\n      tag_327\n      jumpi\n        /* \"#utility.yul\":16607:16646   */\n      tag_328\n        /* \"#utility.yul\":16644:16645   */\n      0x00\n        /* \"#utility.yul\":16637:16642   */\n      dup3\n        /* \"#utility.yul\":16607:16646   */\n      tag_151\n      jump\t// in\n    tag_328:\n        /* \"#utility.yul\":16580:16581   */\n      0x01\n        /* \"#utility.yul\":16573:16578   */\n      dup2\n        /* \"#utility.yul\":16569:16582   */\n      add\n        /* \"#utility.yul\":16560:16582   */\n      swap1\n      pop\n        /* \"#utility.yul\":16536:16656   */\n      jump(tag_325)\n    tag_327:\n        /* \"#utility.yul\":16476:16662   */\n      pop\n      pop\n      jump\t// out\n        /* \"#utility.yul\":16668:17211   */\n    tag_153:\n        /* \"#utility.yul\":16769:16771   */\n      0x1f\n        /* \"#utility.yul\":16764:16767   */\n      dup3\n        /* \"#utility.yul\":16761:16772   */\n      gt\n        /* \"#utility.yul\":16758:17204   */\n      iszero\n      tag_330\n      jumpi\n        /* \"#utility.yul\":16803:16841   */\n      tag_331\n        /* \"#utility.yul\":16835:16840   */\n      dup2\n        /* \"#utility.yul\":16803:16841   */\n      tag_143\n      jump\t// in\n    tag_331:\n        /* \"#utility.yul\":16887:16916   */\n      tag_332\n        /* \"#utility.yul\":16905:16915   */\n      dup5\n        /* \"#utility.yul\":16887:16916   */\n      tag_144\n      jump\t// in\n    tag_332:\n        /* \"#utility.yul\":16877:16885   */\n      dup2\n        /* \"#utility.yul\":16873:16917   */\n      add\n        /* \"#utility.yul\":17070:17072   */\n      0x20\n        /* \"#utility.yul\":17058:17068   */\n      dup6\n        /* \"#utility.yul\":17055:17073   */\n      lt\n        /* \"#utility.yul\":17052:17101   */\n      iszero\n      tag_333\n      jumpi\n        /* \"#utility.yul\":17091:17099   */\n      dup2\n        /* \"#utility.yul\":17076:17099   */\n      swap1\n      pop\n        /* \"#utility.yul\":17052:17101   */\n    tag_333:\n        /* \"#utility.yul\":17114:17194   */\n      tag_334\n        /* \"#utility.yul\":17170:17192   */\n      tag_335\n        /* \"#utility.yul\":17188:17191   */\n      dup6\n        /* \"#utility.yul\":17170:17192   */\n      tag_144\n      jump\t// in\n    tag_335:\n        /* \"#utility.yul\":17160:17168   */\n      dup4\n        /* \"#utility.yul\":17156:17193   */\n      add\n        /* \"#utility.yul\":17143:17154   */\n      dup3\n        /* \"#utility.yul\":17114:17194   */\n      tag_152\n      jump\t// in\n    tag_334:\n        /* \"#utility.yul\":16773:17204   */\n      pop\n      pop\n        /* \"#utility.yul\":16758:17204   */\n    tag_330:\n        /* \"#utility.yul\":16668:17211   */\n      pop\n      pop\n      pop\n      jump\t// out\n        /* \"#utility.yul\":17217:17334   */\n    tag_154:\n        /* \"#utility.yul\":17271:17279   */\n      0x00\n        /* \"#utility.yul\":17321:17326   */\n      dup3\n        /* \"#utility.yul\":17315:17319   */\n      dup3\n        /* \"#utility.yul\":17311:17327   */\n      shr\n        /* \"#utility.yul\":17290:17327   */\n      swap1\n      pop\n        /* \"#utility.yul\":17217:17334   */\n      swap3\n      swap2\n      pop\n      pop\n      jump\t// out\n        /* \"#utility.yul\":17340:17509   */\n    tag_155:\n        /* \"#utility.yul\":17384:17390   */\n      0x00\n        /* \"#utility.yul\":17417:17468   */\n      tag_338\n        /* \"#utility.yul\":17465:17466   */\n      0x00\n        /* \"#utility.yul\":17461:17467   */\n      not\n        /* \"#utility.yul\":17453:17458   */\n      dup5\n        /* \"#utility.yul\":17450:17451   */\n      0x08\n        /* \"#utility.yul\":17446:17459   */\n      mul\n        /* \"#utility.yul\":17417:17468   */\n      tag_154\n      jump\t// in\n    tag_338:\n        /* \"#utility.yul\":17413:17469   */\n      not\n        /* \"#utility.yul\":17498:17502   */\n      dup1\n        /* \"#utility.yul\":17492:17496   */\n      dup4\n        /* \"#utility.yul\":17488:17503   */\n      and\n        /* \"#utility.yul\":17478:17503   */\n      swap2\n      pop\n        /* \"#utility.yul\":17391:17509   */\n      pop\n        /* \"#utility.yul\":17340:17509   */\n      swap3\n      swap2\n      pop\n      pop\n      jump\t// out\n        /* \"#utility.yul\":17514:17809   */\n    tag_156:\n        /* \"#utility.yul\":17590:17594   */\n      0x00\n        /* \"#utility.yul\":17736:17765   */\n      tag_340\n        /* \"#utility.yul\":17761:17764   */\n      dup4\n        /* \"#utility.yul\":17755:17759   */\n      dup4\n        /* \"#utility.yul\":17736:17765   */\n      tag_155\n      jump\t// in\n    tag_340:\n        /* \"#utility.yul\":17728:17765   */\n      swap2\n      pop\n        /* \"#utility.yul\":17798:17801   */\n      dup3\n        /* \"#utility.yul\":17795:17796   */\n      0x02\n        /* \"#utility.yul\":17791:17802   */\n      mul\n        /* \"#utility.yul\":17785:17789   */\n      dup3\n        /* \"#utility.yul\":17782:17803   */\n      or\n        /* \"#utility.yul\":17774:17803   */\n      swap1\n      pop\n        /* \"#utility.yul\":17514:17809   */\n      swap3\n      swap2\n      pop\n      pop\n      jump\t// out\n        /* \"#utility.yul\":17814:19209   */\n    tag_79:\n        /* \"#utility.yul\":17931:17968   */\n      tag_342\n        /* \"#utility.yul\":17964:17967   */\n      dup3\n        /* \"#utility.yul\":17931:17968   */\n      tag_124\n      jump\t// in\n    tag_342:\n        /* \"#utility.yul\":18033:18051   */\n      0xffffffffffffffff\n        /* \"#utility.yul\":18025:18031   */\n      dup2\n        /* \"#utility.yul\":18022:18052   */\n      gt\n        /* \"#utility.yul\":18019:18075   */\n      iszero\n      tag_343\n      jumpi\n        /* \"#utility.yul\":18055:18073   */\n      tag_344\n      tag_117\n      jump\t// in\n    tag_344:\n        /* \"#utility.yul\":18019:18075   */\n    tag_343:\n        /* \"#utility.yul\":18099:18137   */\n      tag_345\n        /* \"#utility.yul\":18131:18135   */\n      dup3\n        /* \"#utility.yul\":18125:18136   */\n      sload\n        /* \"#utility.yul\":18099:18137   */\n      tag_90\n      jump\t// in\n    tag_345:\n        /* \"#utility.yul\":18184:18251   */\n      tag_346\n        /* \"#utility.yul\":18244:18250   */\n      dup3\n        /* \"#utility.yul\":18236:18242   */\n      dup3\n        /* \"#utility.yul\":18230:18234   */\n      dup6\n        /* \"#utility.yul\":18184:18251   */\n      tag_153\n      jump\t// in\n    tag_346:\n        /* \"#utility.yul\":18278:18279   */\n      0x00\n        /* \"#utility.yul\":18302:18306   */\n      0x20\n        /* \"#utility.yul\":18289:18306   */\n      swap1\n      pop\n        /* \"#utility.yul\":18334:18336   */\n      0x1f\n        /* \"#utility.yul\":18326:18332   */\n      dup4\n        /* \"#utility.yul\":18323:18337   */\n      gt\n        /* \"#utility.yul\":18351:18352   */\n      0x01\n        /* \"#utility.yul\":18346:18964   */\n      dup2\n      eq\n      tag_348\n      jumpi\n        /* \"#utility.yul\":19008:19009   */\n      0x00\n        /* \"#utility.yul\":19025:19031   */\n      dup5\n        /* \"#utility.yul\":19022:19099   */\n      iszero\n      tag_349\n      jumpi\n        /* \"#utility.yul\":19074:19083   */\n      dup3\n        /* \"#utility.yul\":19069:19072   */\n      dup8\n        /* \"#utility.yul\":19065:19084   */\n      add\n        /* \"#utility.yul\":19059:19085   */\n      mload\n        /* \"#utility.yul\":19050:19085   */\n      swap1\n      pop\n        /* \"#utility.yul\":19022:19099   */\n    tag_349:\n        /* \"#utility.yul\":19125:19192   */\n      tag_350\n        /* \"#utility.yul\":19185:19191   */\n      dup6\n        /* \"#utility.yul\":19178:19183   */\n      dup3\n        /* \"#utility.yul\":19125:19192   */\n      tag_156\n      jump\t// in\n    tag_350:\n        /* \"#utility.yul\":19119:19123   */\n      dup7\n        /* \"#utility.yul\":19112:19193   */\n      sstore\n        /* \"#utility.yul\":18981:19203   */\n      pop\n        /* \"#utility.yul\":18316:19203   */\n      jump(tag_347)\n        /* \"#utility.yul\":18346:18964   */\n    tag_348:\n        /* \"#utility.yul\":18398:18402   */\n      0x1f\n        /* \"#utility.yul\":18394:18403   */\n      not\n        /* \"#utility.yul\":18386:18392   */\n      dup5\n        /* \"#utility.yul\":18382:18404   */\n      and\n        /* \"#utility.yul\":18432:18469   */\n      tag_351\n        /* \"#utility.yul\":18464:18468   */\n      dup7\n        /* \"#utility.yul\":18432:18469   */\n      tag_143\n      jump\t// in\n    tag_351:\n        /* \"#utility.yul\":18491:18492   */\n      0x00\n        /* \"#utility.yul\":18505:18713   */\n    tag_352:\n        /* \"#utility.yul\":18519:18526   */\n      dup3\n        /* \"#utility.yul\":18516:18517   */\n      dup2\n        /* \"#utility.yul\":18513:18527   */\n      lt\n        /* \"#utility.yul\":18505:18713   */\n      iszero\n      tag_354\n      jumpi\n        /* \"#utility.yul\":18598:18607   */\n      dup5\n        /* \"#utility.yul\":18593:18596   */\n      dup10\n        /* \"#utility.yul\":18589:18608   */\n      add\n        /* \"#utility.yul\":18583:18609   */\n      mload\n        /* \"#utility.yul\":18575:18581   */\n      dup3\n        /* \"#utility.yul\":18568:18610   */\n      sstore\n        /* \"#utility.yul\":18649:18650   */\n      0x01\n        /* \"#utility.yul\":18641:18647   */\n      dup3\n        /* \"#utility.yul\":18637:18651   */\n      add\n        /* \"#utility.yul\":18627:18651   */\n      swap2\n      pop\n        /* \"#utility.yul\":18696:18698   */\n      0x20\n        /* \"#utility.yul\":18685:18694   */\n      dup6\n        /* \"#utility.yul\":18681:18699   */\n      add\n        /* \"#utility.yul\":18668:18699   */\n      swap5\n      pop\n        /* \"#utility.yul\":18542:18546   */\n      0x20\n        /* \"#utility.yul\":18539:18540   */\n      dup2\n        /* \"#utility.yul\":18535:18547   */\n      add\n        /* \"#utility.yul\":18530:18547   */\n      swap1\n      pop\n        /* \"#utility.yul\":18505:18713   */\n      jump(tag_352)\n    tag_354:\n        /* \"#utility.yul\":18741:18747   */\n      dup7\n        /* \"#utility.yul\":18732:18739   */\n      dup4\n        /* \"#utility.yul\":18729:18748   */\n      lt\n        /* \"#utility.yul\":18726:18905   */\n      iszero\n      tag_355\n      jumpi\n        /* \"#utility.yul\":18799:18808   */\n      dup5\n        /* \"#utility.yul\":18794:18797   */\n      dup10\n        /* \"#utility.yul\":18790:18809   */\n      add\n        /* \"#utility.yul\":18784:18810   */\n      mload\n        /* \"#utility.yul\":18842:18890   */\n      tag_356\n        /* \"#utility.yul\":18884:18888   */\n      0x1f\n        /* \"#utility.yul\":18876:18882   */\n      dup10\n        /* \"#utility.yul\":18872:18889   */\n      and\n        /* \"#utility.yul\":18861:18870   */\n      dup3\n        /* \"#utility.yul\":18842:18890   */\n      tag_155\n      jump\t// in\n    tag_356:\n        /* \"#utility.yul\":18834:18840   */\n      dup4\n        /* \"#utility.yul\":18827:18891   */\n      sstore\n        /* \"#utility.yul\":18749:18905   */\n      pop\n        /* \"#utility.yul\":18726:18905   */\n    tag_355:\n        /* \"#utility.yul\":18951:18952   */\n      0x01\n        /* \"#utility.yul\":18947:18948   */\n      0x02\n        /* \"#utility.yul\":18939:18945   */\n      dup9\n        /* \"#utility.yul\":18935:18949   */\n      mul\n        /* \"#utility.yul\":18931:18953   */\n      add\n        /* \"#utility.yul\":18925:18929   */\n      dup9\n        /* \"#utility.yul\":18918:18954   */\n      sstore\n        /* \"#utility.yul\":18353:18964   */\n      pop\n      pop\n      pop\n        /* \"#utility.yul\":18316:19203   */\n    tag_347:\n      pop\n        /* \"#utility.yul\":17906:19209   */\n      pop\n      pop\n      pop\n        /* \"#utility.yul\":17814:19209   */\n      pop\n      pop\n      jump\t// out\n        /* \"#utility.yul\":19215:19657   */\n    tag_83:\n        /* \"#utility.yul\":19364:19368   */\n      0x00\n        /* \"#utility.yul\":19402:19404   */\n      0x60\n        /* \"#utility.yul\":19391:19400   */\n      dup3\n        /* \"#utility.yul\":19387:19405   */\n      add\n        /* \"#utility.yul\":19379:19405   */\n      swap1\n      pop\n        /* \"#utility.yul\":19415:19486   */\n      tag_358\n        /* \"#utility.yul\":19483:19484   */\n      0x00\n        /* \"#utility.yul\":19472:19481   */\n      dup4\n        /* \"#utility.yul\":19468:19485   */\n      add\n        /* \"#utility.yul\":19459:19465   */\n      dup7\n        /* \"#utility.yul\":19415:19486   */\n      tag_103\n      jump\t// in\n    tag_358:\n        /* \"#utility.yul\":19496:19568   */\n      tag_359\n        /* \"#utility.yul\":19564:19566   */\n      0x20\n        /* \"#utility.yul\":19553:19562   */\n      dup4\n        /* \"#utility.yul\":19549:19567   */\n      add\n        /* \"#utility.yul\":19540:19546   */\n      dup6\n        /* \"#utility.yul\":19496:19568   */\n      tag_103\n      jump\t// in\n    tag_359:\n        /* \"#utility.yul\":19578:19650   */\n      tag_360\n        /* \"#utility.yul\":19646:19648   */\n      0x40\n        /* \"#utility.yul\":19635:19644   */\n      dup4\n        /* \"#utility.yul\":19631:19649   */\n      add\n        /* \"#utility.yul\":19622:19628   */\n      dup5\n        /* \"#utility.yul\":19578:19650   */\n      tag_103\n      jump\t// in\n    tag_360:\n        /* \"#utility.yul\":19215:19657   */\n      swap5\n      swap4\n      pop\n      pop\n      pop\n      pop\n      jump\t// out\n        /* \"#utility.yul\":19663:20196   */\n    tag_88:\n        /* \"#utility.yul\":19832:19836   */\n      0x00\n        /* \"#utility.yul\":19870:19872   */\n      0x60\n        /* \"#utility.yul\":19859:19868   */\n      dup3\n        /* \"#utility.yul\":19855:19873   */\n      add\n        /* \"#utility.yul\":19847:19873   */\n      swap1\n      pop\n        /* \"#utility.yul\":19883:19954   */\n      tag_362\n        /* \"#utility.yul\":19951:19952   */\n      0x00\n        /* \"#utility.yul\":19940:19949   */\n      dup4\n        /* \"#utility.yul\":19936:19953   */\n      add\n        /* \"#utility.yul\":19927:19933   */\n      dup7\n        /* \"#utility.yul\":19883:19954   */\n      tag_103\n      jump\t// in\n    tag_362:\n        /* \"#utility.yul\":19964:20036   */\n      tag_363\n        /* \"#utility.yul\":20032:20034   */\n      0x20\n        /* \"#utility.yul\":20021:20030   */\n      dup4\n        /* \"#utility.yul\":20017:20035   */\n      add\n        /* \"#utility.yul\":20008:20014   */\n      dup6\n        /* \"#utility.yul\":19964:20036   */\n      tag_129\n      jump\t// in\n    tag_363:\n        /* \"#utility.yul\":20083:20092   */\n      dup2\n        /* \"#utility.yul\":20077:20081   */\n      dup2\n        /* \"#utility.yul\":20073:20093   */\n      sub\n        /* \"#utility.yul\":20068:20070   */\n      0x40\n        /* \"#utility.yul\":20057:20066   */\n      dup4\n        /* \"#utility.yul\":20053:20071   */\n      add\n        /* \"#utility.yul\":20046:20094   */\n      mstore\n        /* \"#utility.yul\":20111:20189   */\n      tag_364\n        /* \"#utility.yul\":20184:20188   */\n      dup2\n        /* \"#utility.yul\":20175:20181   */\n      dup5\n        /* \"#utility.yul\":20111:20189   */\n      tag_127\n      jump\t// in\n    tag_364:\n        /* \"#utility.yul\":20103:20189   */\n      swap1\n      pop\n        /* \"#utility.yul\":19663:20196   */\n      swap5\n      swap4\n      pop\n      pop\n      pop\n      pop\n      jump\t// out\n\n    auxdata: 0xa2646970667358221220af5e54671432713483a59d74a6bbf1bd82099bb425660c20666da7e831a6c07f64736f6c634300081e0033\n}\n",
				"bytecode": {
					"linkReferences": {},
					"object": "608060405234801561000f575f5ffd5b50604051611732380380611732833981810160405281019061003191906102a1565b5f73ffffffffffffffffffffffffffffffffffffffff168373ffffffffffffffffffffffffffffffffffffffff160361009f576040517f08c379a00000000000000000000000000000000000000000000000000000000081526004016100969061034b565b60405180910390fd5b5f73ffffffffffffffffffffffffffffffffffffffff168273ffffffffffffffffffffffffffffffffffffffff160361010d576040517f08c379a0000000000000000000000000000000000000000000000000000000008152600401610104906103b3565b60405180910390fd5b5f73ffffffffffffffffffffffffffffffffffffffff168173ffffffffffffffffffffffffffffffffffffffff160361017b576040517f08c379a00000000000000000000000000000000000000000000000000000000081526004016101729061041b565b60405180910390fd5b8260045f6101000a81548173ffffffffffffffffffffffffffffffffffffffff021916908373ffffffffffffffffffffffffffffffffffffffff1602179055508160055f6101000a81548173ffffffffffffffffffffffffffffffffffffffff021916908373ffffffffffffffffffffffffffffffffffffffff1602179055508060065f6101000a81548173ffffffffffffffffffffffffffffffffffffffff021916908373ffffffffffffffffffffffffffffffffffffffff160217905550505050610439565b5f5ffd5b5f73ffffffffffffffffffffffffffffffffffffffff82169050919050565b5f61027082610247565b9050919050565b61028081610266565b811461028a575f5ffd5b50565b5f8151905061029b81610277565b92915050565b5f5f5f606084860312156102b8576102b7610243565b5b5f6102c58682870161028d565b93505060206102d68682870161028d565b92505060406102e78682870161028d565b9150509250925092565b5f82825260208201905092915050565b7f496e76616c6964206f72672072656769737472790000000000000000000000005f82015250565b5f6103356014836102f1565b915061034082610301565b602082019050919050565b5f6020820190508181035f83015261036281610329565b9050919050565b7f496e76616c6964207573657220726567697374727900000000000000000000005f82015250565b5f61039d6015836102f1565b91506103a882610369565b602082019050919050565b5f6020820190508181035f8301526103ca81610391565b9050919050565b7f496e76616c69642072657075746174696f6e20636f6e747261637400000000005f82015250565b5f610405601b836102f1565b9150610410826103d1565b602082019050919050565b5f6020820190508181035f830152610432816103f9565b9050919050565b6112ec806104465f395ff3fe608060405234801561000f575f5ffd5b5060043610610086575f3560e01c80637a1c6b70116100595780637a1c6b70146101145780637af90ca3146101325780637e69e91214610162578063c7059ea21461019857610086565b80630dcbbd951461008a5780632edea294146100ba57806336c582b7146100d85780635c7460d6146100f6575b5f5ffd5b6100a4600480360381019061009f91906108c8565b6101c8565b6040516100b19190610915565b60405180910390f35b6100c26101f3565b6040516100cf9190610915565b60405180910390f35b6100e06101f8565b6040516100ed91906109a8565b60405180910390f35b6100fe61021d565b60405161010b91906109e1565b60405180910390f35b61011c610242565b6040516101299190610a1a565b60405180910390f35b61014c60048036038101906101479190610b6f565b610267565b6040516101599190610915565b60405180910390f35b61017c60048036038101906101779190610bef565b610776565b60405161018f9796959493929190610c9a565b60405180910390f35b6101b260048036038101906101ad91906108c8565b610859565b6040516101bf9190610915565b60405180910390f35b6003602052815f5260405f2081815481106101e1575f80fd5b905f5260205f20015f91509150505481565b5f5481565b60065f9054906101000a900473ffffffffffffffffffffffffffffffffffffffff1681565b60055f9054906101000a900473ffffffffffffffffffffffffffffffffffffffff1681565b60045f9054906101000a900473ffffffffffffffffffffffffffffffffffffffff1681565b5f5f8251116102ab576040517f08c379a00000000000000000000000000000000000000000000000000000000081526004016102a290610d58565b60405180910390fd5b60055f9054906101000a900473ffffffffffffffffffffffffffffffffffffffff1673ffffffffffffffffffffffffffffffffffffffff16636f93dd91866040518263ffffffff1660e01b81526004016103059190610915565b602060405180830381865afa158015610320573d5f5f3e3d5ffd5b505050506040513d601f19601f820116820180604052508101906103449190610dab565b610383576040517f08c379a000000000000000000000000000000000000000000000000000000000815260040161037a90610e20565b60405180910390fd5b60055f9054906101000a900473ffffffffffffffffffffffffffffffffffffffff1673ffffffffffffffffffffffffffffffffffffffff166339721b50866040518263ffffffff1660e01b81526004016103dd9190610915565b602060405180830381865afa1580156103f8573d5f5f3e3d5ffd5b505050506040513d601f19601f8201168201806040525081019061041c9190610dab565b61045b576040517f08c379a000000000000000000000000000000000000000000000000000000000815260040161045290610e88565b60405180910390fd5b60045f9054906101000a900473ffffffffffffffffffffffffffffffffffffffff1673ffffffffffffffffffffffffffffffffffffffff1663e5c29861856040518263ffffffff1660e01b81526004016104b59190610915565b602060405180830381865afa1580156104d0573d5f5f3e3d5ffd5b505050506040513d601f19601f820116820180604052508101906104f49190610dab565b610533576040517f08c379a000000000000000000000000000000000000000000000000000000000815260040161052a90610ef0565b60405180910390fd5b5f5f81548092919061054490610f3b565b91905055506040518060e001604052805f5481526020018681526020018581526020018481526020014281526020018381526020013373ffffffffffffffffffffffffffffffffffffffff1681525060015f5f5481526020019081526020015f205f820151815f01556020820151816001015560408201518160020155606082015181600301556080820151816004015560a08201518160050190816105ea9190611176565b5060c0820151816006015f6101000a81548173ffffffffffffffffffffffffffffffffffffffff021916908373ffffffffffffffffffffffffffffffffffffffff16021790555090505060025f8581526020019081526020015f205f54908060018154018082558091505060019003905f5260205f20015f909190919091505560035f8681526020019081526020015f205f54908060018154018082558091505060019003905f5260205f20015f909190919091505560065f9054906101000a900473ffffffffffffffffffffffffffffffffffffffff1673ffffffffffffffffffffffffffffffffffffffff16633f0a92fb8587866040518463ffffffff1660e01b81526004016106fe93929190611245565b5f604051808303815f87803b158015610715575f5ffd5b505af1158015610727573d5f5f3e3d5ffd5b5050505083855f547fcbef0a7cd032ffabd8f73486fe687413271f738592a85614f94bec841d222af78633876040516107629392919061127a565b60405180910390a45f549050949350505050565b6001602052805f5260405f205f91509050805f0154908060010154908060020154908060030154908060040154908060050180546107b390610faf565b80601f01602080910402602001604051908101604052809291908181526020018280546107df90610faf565b801561082a5780601f106108015761010080835404028352916020019161082a565b820191905f5260205f20905b81548152906001019060200180831161080d57829003601f168201915b505050505090806006015f9054906101000a900473ffffffffffffffffffffffffffffffffffffffff16905087565b6002602052815f5260405f208181548110610872575f80fd5b905f5260205f20015f91509150505481565b5f604051905090565b5f5ffd5b5f5ffd5b5f819050919050565b6108a781610895565b81146108b1575f5ffd5b50565b5f813590506108c28161089e565b92915050565b5f5f604083850312156108de576108dd61088d565b5b5f6108eb858286016108b4565b92505060206108fc858286016108b4565b9150509250929050565b61090f81610895565b82525050565b5f6020820190506109285f830184610906565b92915050565b5f73ffffffffffffffffffffffffffffffffffffffff82169050919050565b5f819050919050565b5f61097061096b6109668461092e565b61094d565b61092e565b9050919050565b5f61098182610956565b9050919050565b5f61099282610977565b9050919050565b6109a281610988565b82525050565b5f6020820190506109bb5f830184610999565b92915050565b5f6109cb82610977565b9050919050565b6109db816109c1565b82525050565b5f6020820190506109f45f8301846109d2565b92915050565b5f610a0482610977565b9050919050565b610a14816109fa565b82525050565b5f602082019050610a2d5f830184610a0b565b92915050565b5f5ffd5b5f5ffd5b5f601f19601f8301169050919050565b7f4e487b71000000000000000000000000000000000000000000000000000000005f52604160045260245ffd5b610a8182610a3b565b810181811067ffffffffffffffff82111715610aa057610a9f610a4b565b5b80604052505050565b5f610ab2610884565b9050610abe8282610a78565b919050565b5f67ffffffffffffffff821115610add57610adc610a4b565b5b610ae682610a3b565b9050602081019050919050565b828183375f83830152505050565b5f610b13610b0e84610ac3565b610aa9565b905082815260208101848484011115610b2f57610b2e610a37565b5b610b3a848285610af3565b509392505050565b5f82601f830112610b5657610b55610a33565b5b8135610b66848260208601610b01565b91505092915050565b5f5f5f5f60808587031215610b8757610b8661088d565b5b5f610b94878288016108b4565b9450506020610ba5878288016108b4565b9350506040610bb6878288016108b4565b925050606085013567ffffffffffffffff811115610bd757610bd6610891565b5b610be387828801610b42565b91505092959194509250565b5f60208284031215610c0457610c0361088d565b5b5f610c11848285016108b4565b91505092915050565b5f81519050919050565b5f82825260208201905092915050565b8281835e5f83830152505050565b5f610c4c82610c1a565b610c568185610c24565b9350610c66818560208601610c34565b610c6f81610a3b565b840191505092915050565b5f610c848261092e565b9050919050565b610c9481610c7a565b82525050565b5f60e082019050610cad5f83018a610906565b610cba6020830189610906565b610cc76040830188610906565b610cd46060830187610906565b610ce16080830186610906565b81810360a0830152610cf38185610c42565b9050610d0260c0830184610c8b565b98975050505050505050565b7f436f6d706c61696e7420686173682072657175697265640000000000000000005f82015250565b5f610d42601783610c24565b9150610d4d82610d0e565b602082019050919050565b5f6020820190508181035f830152610d6f81610d36565b9050919050565b5f8115159050919050565b610d8a81610d76565b8114610d94575f5ffd5b50565b5f81519050610da581610d81565b92915050565b5f60208284031215610dc057610dbf61088d565b5b5f610dcd84828501610d97565b91505092915050565b7f496e76616c6964207573657200000000000000000000000000000000000000005f82015250565b5f610e0a600c83610c24565b9150610e1582610dd6565b602082019050919050565b5f6020820190508181035f830152610e3781610dfe565b9050919050565b7f55736572206e6f742076657269666965640000000000000000000000000000005f82015250565b5f610e72601183610c24565b9150610e7d82610e3e565b602082019050919050565b5f6020820190508181035f830152610e9f81610e66565b9050919050565b7f4f7267616e69736174696f6e20646f6573206e6f7420657869737400000000005f82015250565b5f610eda601b83610c24565b9150610ee582610ea6565b602082019050919050565b5f6020820190508181035f830152610f0781610ece565b9050919050565b7f4e487b71000000000000000000000000000000000000000000000000000000005f52601160045260245ffd5b5f610f4582610895565b91507fffffffffffffffffffffffffffffffffffffffffffffffffffffffffffffffff8203610f7757610f76610f0e565b5b600182019050919050565b7f4e487b71000000000000000000000000000000000000000000000000000000005f52602260045260245ffd5b5f6002820490506001821680610fc657607f821691505b602082108103610fd957610fd8610f82565b5b50919050565b5f819050815f5260205f209050919050565b5f6020601f8301049050919050565b5f82821b905092915050565b5f6008830261103b7fffffffffffffffffffffffffffffffffffffffffffffffffffffffffffffffff82611000565b6110458683611000565b95508019841693508086168417925050509392505050565b5f61107761107261106d84610895565b61094d565b610895565b9050919050565b5f819050919050565b6110908361105d565b6110a461109c8261107e565b84845461100c565b825550505050565b5f5f905090565b6110bb6110ac565b6110c6818484611087565b505050565b5b818110156110e9576110de5f826110b3565b6001810190506110cc565b5050565b601f82111561112e576110ff81610fdf565b61110884610ff1565b81016020851015611117578190505b61112b61112385610ff1565b8301826110cb565b50505b505050565b5f82821c905092915050565b5f61114e5f1984600802611133565b1980831691505092915050565b5f611166838361113f565b9150826002028217905092915050565b61117f82610c1a565b67ffffffffffffffff81111561119857611197610a4b565b5b6111a28254610faf565b6111ad8282856110ed565b5f60209050601f8311600181146111de575f84156111cc578287015190505b6111d6858261115b565b86555061123d565b601f1984166111ec86610fdf565b5f5b82811015611213578489015182556001820191506020850194506020810190506111ee565b86831015611230578489015161122c601f89168261113f565b8355505b6001600288020188555050505b505050505050565b5f6060820190506112585f830186610906565b6112656020830185610906565b6112726040830184610906565b949350505050565b5f60608201905061128d5f830186610906565b61129a6020830185610c8b565b81810360408301526112ac8184610c42565b905094935050505056fea2646970667358221220af5e54671432713483a59d74a6bbf1bd82099bb425660c20666da7e831a6c07f64736f6c634300081e0033",
					"opcodes": "PUSH1 0x80 PUSH1 0x40 MSTORE CALLVALUE DUP1 ISZERO PUSH2 0xF JUMPI PUSH0 PUSH0 REVERT JUMPDEST POP PUSH1 0x40 MLOAD PUSH2 0x1732 CODESIZE SUB DUP1 PUSH2 0x1732 DUP4 CODECOPY DUP2 DUP2 ADD PUSH1 0x40 MSTORE DUP2 ADD SWAP1 PUSH2 0x31 SWAP2 SWAP1 PUSH2 0x2A1 JUMP JUMPDEST PUSH0 PUSH20 0xFFFFFFFFFFFFFFFFFFFFFFFFFFFFFFFFFFFFFFFF AND DUP4 PUSH20 0xFFFFFFFFFFFFFFFFFFFFFFFFFFFFFFFFFFFFFFFF AND SUB PUSH2 0x9F JUMPI PUSH1 0x40 MLOAD PUSH32 0x8C379A000000000000000000000000000000000000000000000000000000000 DUP2 MSTORE PUSH1 0x4 ADD PUSH2 0x96 SWAP1 PUSH2 0x34B JUMP JUMPDEST PUSH1 0x40 MLOAD DUP1 SWAP2 SUB SWAP1 REVERT JUMPDEST PUSH0 PUSH20 0xFFFFFFFFFFFFFFFFFFFFFFFFFFFFFFFFFFFFFFFF AND DUP3 PUSH20 0xFFFFFFFFFFFFFFFFFFFFFFFFFFFFFFFFFFFFFFFF AND SUB PUSH2 0x10D JUMPI PUSH1 0x40 MLOAD PUSH32 0x8C379A000000000000000000000000000000000000000000000000000000000 DUP2 MSTORE PUSH1 0x4 ADD PUSH2 0x104 SWAP1 PUSH2 0x3B3 JUMP JUMPDEST PUSH1 0x40 MLOAD DUP1 SWAP2 SUB SWAP1 REVERT JUMPDEST PUSH0 PUSH20 0xFFFFFFFFFFFFFFFFFFFFFFFFFFFFFFFFFFFFFFFF AND DUP2 PUSH20 0xFFFFFFFFFFFFFFFFFFFFFFFFFFFFFFFFFFFFFFFF AND SUB PUSH2 0x17B JUMPI PUSH1 0x40 MLOAD PUSH32 0x8C379A000000000000000000000000000000000000000000000000000000000 DUP2 MSTORE PUSH1 0x4 ADD PUSH2 0x172 SWAP1 PUSH2 0x41B JUMP JUMPDEST PUSH1 0x40 MLOAD DUP1 SWAP2 SUB SWAP1 REVERT JUMPDEST DUP3 PUSH1 0x4 PUSH0 PUSH2 0x100 EXP DUP2 SLOAD DUP2 PUSH20 0xFFFFFFFFFFFFFFFFFFFFFFFFFFFFFFFFFFFFFFFF MUL NOT AND SWAP1 DUP4 PUSH20 0xFFFFFFFFFFFFFFFFFFFFFFFFFFFFFFFFFFFFFFFF AND MUL OR SWAP1 SSTORE POP DUP2 PUSH1 0x5 PUSH0 PUSH2 0x100 EXP DUP2 SLOAD DUP2 PUSH20 0xFFFFFFFFFFFFFFFFFFFFFFFFFFFFFFFFFFFFFFFF MUL NOT AND SWAP1 DUP4 PUSH20 0xFFFFFFFFFFFFFFFFFFFFFFFFFFFFFFFFFFFFFFFF AND MUL OR SWAP1 SSTORE POP DUP1 PUSH1 0x6 PUSH0 PUSH2 0x100 EXP DUP2 SLOAD DUP2 PUSH20 0xFFFFFFFFFFFFFFFFFFFFFFFFFFFFFFFFFFFFFFFF MUL NOT AND SWAP1 DUP4 PUSH20 0xFFFFFFFFFFFFFFFFFFFFFFFFFFFFFFFFFFFFFFFF AND MUL OR SWAP1 SSTORE POP POP POP POP PUSH2 0x439 JUMP JUMPDEST PUSH0 PUSH0 REVERT JUMPDEST PUSH0 PUSH20 0xFFFFFFFFFFFFFFFFFFFFFFFFFFFFFFFFFFFFFFFF DUP3 AND SWAP1 POP SWAP2 SWAP1 POP JUMP JUMPDEST PUSH0 PUSH2 0x270 DUP3 PUSH2 0x247 JUMP JUMPDEST SWAP1 POP SWAP2 SWAP1 POP JUMP JUMPDEST PUSH2 0x280 DUP2 PUSH2 0x266 JUMP JUMPDEST DUP2 EQ PUSH2 0x28A JUMPI PUSH0 PUSH0 REVERT JUMPDEST POP JUMP JUMPDEST PUSH0 DUP2 MLOAD SWAP1 POP PUSH2 0x29B DUP2 PUSH2 0x277 JUMP JUMPDEST SWAP3 SWAP2 POP POP JUMP JUMPDEST PUSH0 PUSH0 PUSH0 PUSH1 0x60 DUP5 DUP7 SUB SLT ISZERO PUSH2 0x2B8 JUMPI PUSH2 0x2B7 PUSH2 0x243 JUMP JUMPDEST JUMPDEST PUSH0 PUSH2 0x2C5 DUP7 DUP3 DUP8 ADD PUSH2 0x28D JUMP JUMPDEST SWAP4 POP POP PUSH1 0x20 PUSH2 0x2D6 DUP7 DUP3 DUP8 ADD PUSH2 0x28D JUMP JUMPDEST SWAP3 POP POP PUSH1 0x40 PUSH2 0x2E7 DUP7 DUP3 DUP8 ADD PUSH2 0x28D JUMP JUMPDEST SWAP2 POP POP SWAP3 POP SWAP3 POP SWAP3 JUMP JUMPDEST PUSH0 DUP3 DUP3 MSTORE PUSH1 0x20 DUP3 ADD SWAP1 POP SWAP3 SWAP2 POP POP JUMP JUMPDEST PUSH32 0x496E76616C6964206F7267207265676973747279000000000000000000000000 PUSH0 DUP3 ADD MSTORE POP JUMP JUMPDEST PUSH0 PUSH2 0x335 PUSH1 0x14 DUP4 PUSH2 0x2F1 JUMP JUMPDEST SWAP2 POP PUSH2 0x340 DUP3 PUSH2 0x301 JUMP JUMPDEST PUSH1 0x20 DUP3 ADD SWAP1 POP SWAP2 SWAP1 POP JUMP JUMPDEST PUSH0 PUSH1 0x20 DUP3 ADD SWAP1 POP DUP2 DUP2 SUB PUSH0 DUP4 ADD MSTORE PUSH2 0x362 DUP2 PUSH2 0x329 JUMP JUMPDEST SWAP1 POP SWAP2 SWAP1 POP JUMP JUMPDEST PUSH32 0x496E76616C696420757365722072656769737472790000000000000000000000 PUSH0 DUP3 ADD MSTORE POP JUMP JUMPDEST PUSH0 PUSH2 0x39D PUSH1 0x15 DUP4 PUSH2 0x2F1 JUMP JUMPDEST SWAP2 POP PUSH2 0x3A8 DUP3 PUSH2 0x369 JUMP JUMPDEST PUSH1 0x20 DUP3 ADD SWAP1 POP SWAP2 SWAP1 POP JUMP JUMPDEST PUSH0 PUSH1 0x20 DUP3 ADD SWAP1 POP DUP2 DUP2 SUB PUSH0 DUP4 ADD MSTORE PUSH2 0x3CA DUP2 PUSH2 0x391 JUMP JUMPDEST SWAP1 POP SWAP2 SWAP1 POP JUMP JUMPDEST PUSH32 0x496E76616C69642072657075746174696F6E20636F6E74726163740000000000 PUSH0 DUP3 ADD MSTORE POP JUMP JUMPDEST PUSH0 PUSH2 0x405 PUSH1 0x1B DUP4 PUSH2 0x2F1 JUMP JUMPDEST SWAP2 POP PUSH2 0x410 DUP3 PUSH2 0x3D1 JUMP JUMPDEST PUSH1 0x20 DUP3 ADD SWAP1 POP SWAP2 SWAP1 POP JUMP JUMPDEST PUSH0 PUSH1 0x20 DUP3 ADD SWAP1 POP DUP2 DUP2 SUB PUSH0 DUP4 ADD MSTORE PUSH2 0x432 DUP2 PUSH2 0x3F9 JUMP JUMPDEST SWAP1 POP SWAP2 SWAP1 POP JUMP JUMPDEST PUSH2 0x12EC DUP1 PUSH2 0x446 PUSH0 CODECOPY PUSH0 RETURN INVALID PUSH1 0x80 PUSH1 0x40 MSTORE CALLVALUE DUP1 ISZERO PUSH2 0xF JUMPI PUSH0 PUSH0 REVERT JUMPDEST POP PUSH1 0x4 CALLDATASIZE LT PUSH2 0x86 JUMPI PUSH0 CALLDATALOAD PUSH1 0xE0 SHR DUP1 PUSH4 0x7A1C6B70 GT PUSH2 0x59 JUMPI DUP1 PUSH4 0x7A1C6B70 EQ PUSH2 0x114 JUMPI DUP1 PUSH4 0x7AF90CA3 EQ PUSH2 0x132 JUMPI DUP1 PUSH4 0x7E69E912 EQ PUSH2 0x162 JUMPI DUP1 PUSH4 0xC7059EA2 EQ PUSH2 0x198 JUMPI PUSH2 0x86 JUMP JUMPDEST DUP1 PUSH4 0xDCBBD95 EQ PUSH2 0x8A JUMPI DUP1 PUSH4 0x2EDEA294 EQ PUSH2 0xBA JUMPI DUP1 PUSH4 0x36C582B7 EQ PUSH2 0xD8 JUMPI DUP1 PUSH4 0x5C7460D6 EQ PUSH2 0xF6 JUMPI JUMPDEST PUSH0 PUSH0 REVERT JUMPDEST PUSH2 0xA4 PUSH1 0x4 DUP1 CALLDATASIZE SUB DUP2 ADD SWAP1 PUSH2 0x9F SWAP2 SWAP1 PUSH2 0x8C8 JUMP JUMPDEST PUSH2 0x1C8 JUMP JUMPDEST PUSH1 0x40 MLOAD PUSH2 0xB1 SWAP2 SWAP1 PUSH2 0x915 JUMP JUMPDEST PUSH1 0x40 MLOAD DUP1 SWAP2 SUB SWAP1 RETURN JUMPDEST PUSH2 0xC2 PUSH2 0x1F3 JUMP JUMPDEST PUSH1 0x40 MLOAD PUSH2 0xCF SWAP2 SWAP1 PUSH2 0x915 JUMP JUMPDEST PUSH1 0x40 MLOAD DUP1 SWAP2 SUB SWAP1 RETURN JUMPDEST PUSH2 0xE0 PUSH2 0x1F8 JUMP JUMPDEST PUSH1 0x40 MLOAD PUSH2 0xED SWAP2 SWAP1 PUSH2 0x9A8 JUMP JUMPDEST PUSH1 0x40 MLOAD DUP1 SWAP2 SUB SWAP1 RETURN JUMPDEST PUSH2 0xFE PUSH2 0x21D JUMP JUMPDEST PUSH1 0x40 MLOAD PUSH2 0x10B SWAP2 SWAP1 PUSH2 0x9E1 JUMP JUMPDEST PUSH1 0x40 MLOAD DUP1 SWAP2 SUB SWAP1 RETURN JUMPDEST PUSH2 0x11C PUSH2 0x242 JUMP JUMPDEST PUSH1 0x40 MLOAD PUSH2 0x129 SWAP2 SWAP1 PUSH2 0xA1A JUMP JUMPDEST PUSH1 0x40 MLOAD DUP1 SWAP2 SUB SWAP1 RETURN JUMPDEST PUSH2 0x14C PUSH1 0x4 DUP1 CALLDATASIZE SUB DUP2 ADD SWAP1 PUSH2 0x147 SWAP2 SWAP1 PUSH2 0xB6F JUMP JUMPDEST PUSH2 0x267 JUMP JUMPDEST PUSH1 0x40 MLOAD PUSH2 0x159 SWAP2 SWAP1 PUSH2 0x915 JUMP JUMPDEST PUSH1 0x40 MLOAD DUP1 SWAP2 SUB SWAP1 RETURN JUMPDEST PUSH2 0x17C PUSH1 0x4 DUP1 CALLDATASIZE SUB DUP2 ADD SWAP1 PUSH2 0x177 SWAP2 SWAP1 PUSH2 0xBEF JUMP JUMPDEST PUSH2 0x776 JUMP JUMPDEST PUSH1 0x40 MLOAD PUSH2 0x18F SWAP8 SWAP7 SWAP6 SWAP5 SWAP4 SWAP3 SWAP2 SWAP1 PUSH2 0xC9A JUMP JUMPDEST PUSH1 0x40 MLOAD DUP1 SWAP2 SUB SWAP1 RETURN JUMPDEST PUSH2 0x1B2 PUSH1 0x4 DUP1 CALLDATASIZE SUB DUP2 ADD SWAP1 PUSH2 0x1AD SWAP2 SWAP1 PUSH2 0x8C8 JUMP JUMPDEST PUSH2 0x859 JUMP JUMPDEST PUSH1 0x40 MLOAD PUSH2 0x1BF SWAP2 SWAP1 PUSH2 0x915 JUMP JUMPDEST PUSH1 0x40 MLOAD DUP1 SWAP2 SUB SWAP1 RETURN JUMPDEST PUSH1 0x3 PUSH1 0x20 MSTORE DUP2 PUSH0 MSTORE PUSH1 0x40 PUSH0 KECCAK256 DUP2 DUP2 SLOAD DUP2 LT PUSH2 0x1E1 JUMPI PUSH0 DUP1 REVERT JUMPDEST SWAP1 PUSH0 MSTORE PUSH1 0x20 PUSH0 KECCAK256 ADD PUSH0 SWAP2 POP SWAP2 POP POP SLOAD DUP2 JUMP JUMPDEST PUSH0 SLOAD DUP2 JUMP JUMPDEST PUSH1 0x6 PUSH0 SWAP1 SLOAD SWAP1 PUSH2 0x100 EXP SWAP1 DIV PUSH20 0xFFFFFFFFFFFFFFFFFFFFFFFFFFFFFFFFFFFFFFFF AND DUP2 JUMP JUMPDEST PUSH1 0x5 PUSH0 SWAP1 SLOAD SWAP1 PUSH2 0x100 EXP SWAP1 DIV PUSH20 0xFFFFFFFFFFFFFFFFFFFFFFFFFFFFFFFFFFFFFFFF AND DUP2 JUMP JUMPDEST PUSH1 0x4 PUSH0 SWAP1 SLOAD SWAP1 PUSH2 0x100 EXP SWAP1 DIV PUSH20 0xFFFFFFFFFFFFFFFFFFFFFFFFFFFFFFFFFFFFFFFF AND DUP2 JUMP JUMPDEST PUSH0 PUSH0 DUP3 MLOAD GT PUSH2 0x2AB JUMPI PUSH1 0x40 MLOAD PUSH32 0x8C379A000000000000000000000000000000000000000000000000000000000 DUP2 MSTORE PUSH1 0x4 ADD PUSH2 0x2A2 SWAP1 PUSH2 0xD58 JUMP JUMPDEST PUSH1 0x40 MLOAD DUP1 SWAP2 SUB SWAP1 REVERT JUMPDEST PUSH1 0x5 PUSH0 SWAP1 SLOAD SWAP1 PUSH2 0x100 EXP SWAP1 DIV PUSH20 0xFFFFFFFFFFFFFFFFFFFFFFFFFFFFFFFFFFFFFFFF AND PUSH20 0xFFFFFFFFFFFFFFFFFFFFFFFFFFFFFFFFFFFFFFFF AND PUSH4 0x6F93DD91 DUP7 PUSH1 0x40 MLOAD DUP3 PUSH4 0xFFFFFFFF AND PUSH1 0xE0 SHL DUP2 MSTORE PUSH1 0x4 ADD PUSH2 0x305 SWAP2 SWAP1 PUSH2 0x915 JUMP JUMPDEST PUSH1 0x20 PUSH1 0x40 MLOAD DUP1 DUP4 SUB DUP2 DUP7 GAS STATICCALL ISZERO DUP1 ISZERO PUSH2 0x320 JUMPI RETURNDATASIZE PUSH0 PUSH0 RETURNDATACOPY RETURNDATASIZE PUSH0 REVERT JUMPDEST POP POP POP POP PUSH1 0x40 MLOAD RETURNDATASIZE PUSH1 0x1F NOT PUSH1 0x1F DUP3 ADD AND DUP3 ADD DUP1 PUSH1 0x40 MSTORE POP DUP2 ADD SWAP1 PUSH2 0x344 SWAP2 SWAP1 PUSH2 0xDAB JUMP JUMPDEST PUSH2 0x383 JUMPI PUSH1 0x40 MLOAD PUSH32 0x8C379A000000000000000000000000000000000000000000000000000000000 DUP2 MSTORE PUSH1 0x4 ADD PUSH2 0x37A SWAP1 PUSH2 0xE20 JUMP JUMPDEST PUSH1 0x40 MLOAD DUP1 SWAP2 SUB SWAP1 REVERT JUMPDEST PUSH1 0x5 PUSH0 SWAP1 SLOAD SWAP1 PUSH2 0x100 EXP SWAP1 DIV PUSH20 0xFFFFFFFFFFFFFFFFFFFFFFFFFFFFFFFFFFFFFFFF AND PUSH20 0xFFFFFFFFFFFFFFFFFFFFFFFFFFFFFFFFFFFFFFFF AND PUSH4 0x39721B50 DUP7 PUSH1 0x40 MLOAD DUP3 PUSH4 0xFFFFFFFF AND PUSH1 0xE0 SHL DUP2 MSTORE PUSH1 0x4 ADD PUSH2 0x3DD SWAP2 SWAP1 PUSH2 0x915 JUMP JUMPDEST PUSH1 0x20 PUSH1 0x40 MLOAD DUP1 DUP4 SUB DUP2 DUP7 GAS STATICCALL ISZERO DUP1 ISZERO PUSH2 0x3F8 JUMPI RETURNDATASIZE PUSH0 PUSH0 RETURNDATACOPY RETURNDATASIZE PUSH0 REVERT JUMPDEST POP POP POP POP PUSH1 0x40 MLOAD RETURNDATASIZE PUSH1 0x1F NOT PUSH1 0x1F DUP3 ADD AND DUP3 ADD DUP1 PUSH1 0x40 MSTORE POP DUP2 ADD SWAP1 PUSH2 0x41C SWAP2 SWAP1 PUSH2 0xDAB JUMP JUMPDEST PUSH2 0x45B JUMPI PUSH1 0x40 MLOAD PUSH32 0x8C379A000000000000000000000000000000000000000000000000000000000 DUP2 MSTORE PUSH1 0x4 ADD PUSH2 0x452 SWAP1 PUSH2 0xE88 JUMP JUMPDEST PUSH1 0x40 MLOAD DUP1 SWAP2 SUB SWAP1 REVERT JUMPDEST PUSH1 0x4 PUSH0 SWAP1 SLOAD SWAP1 PUSH2 0x100 EXP SWAP1 DIV PUSH20 0xFFFFFFFFFFFFFFFFFFFFFFFFFFFFFFFFFFFFFFFF AND PUSH20 0xFFFFFFFFFFFFFFFFFFFFFFFFFFFFFFFFFFFFFFFF AND PUSH4 0xE5C29861 DUP6 PUSH1 0x40 MLOAD DUP3 PUSH4 0xFFFFFFFF AND PUSH1 0xE0 SHL DUP2 MSTORE PUSH1 0x4 ADD PUSH2 0x4B5 SWAP2 SWAP1 PUSH2 0x915 JUMP JUMPDEST PUSH1 0x20 PUSH1 0x40 MLOAD DUP1 DUP4 SUB DUP2 DUP7 GAS STATICCALL ISZERO DUP1 ISZERO PUSH2 0x4D0 JUMPI RETURNDATASIZE PUSH0 PUSH0 RETURNDATACOPY RETURNDATASIZE PUSH0 REVERT JUMPDEST POP POP POP POP PUSH1 0x40 MLOAD RETURNDATASIZE PUSH1 0x1F NOT PUSH1 0x1F DUP3 ADD AND DUP3 ADD DUP1 PUSH1 0x40 MSTORE POP DUP2 ADD SWAP1 PUSH2 0x4F4 SWAP2 SWAP1 PUSH2 0xDAB JUMP JUMPDEST PUSH2 0x533 JUMPI PUSH1 0x40 MLOAD PUSH32 0x8C379A000000000000000000000000000000000000000000000000000000000 DUP2 MSTORE PUSH1 0x4 ADD PUSH2 0x52A SWAP1 PUSH2 0xEF0 JUMP JUMPDEST PUSH1 0x40 MLOAD DUP1 SWAP2 SUB SWAP1 REVERT JUMPDEST PUSH0 PUSH0 DUP2 SLOAD DUP1 SWAP3 SWAP2 SWAP1 PUSH2 0x544 SWAP1 PUSH2 0xF3B JUMP JUMPDEST SWAP2 SWAP1 POP SSTORE POP PUSH1 0x40 MLOAD DUP1 PUSH1 0xE0 ADD PUSH1 0x40 MSTORE DUP1 PUSH0 SLOAD DUP2 MSTORE PUSH1 0x20 ADD DUP7 DUP2 MSTORE PUSH1 0x20 ADD DUP6 DUP2 MSTORE PUSH1 0x20 ADD DUP5 DUP2 MSTORE PUSH1 0x20 ADD TIMESTAMP DUP2 MSTORE PUSH1 0x20 ADD DUP4 DUP2 MSTORE PUSH1 0x20 ADD CALLER PUSH20 0xFFFFFFFFFFFFFFFFFFFFFFFFFFFFFFFFFFFFFFFF AND DUP2 MSTORE POP PUSH1 0x1 PUSH0 PUSH0 SLOAD DUP2 MSTORE PUSH1 0x20 ADD SWAP1 DUP2 MSTORE PUSH1 0x20 ADD PUSH0 KECCAK256 PUSH0 DUP3 ADD MLOAD DUP2 PUSH0 ADD SSTORE PUSH1 0x20 DUP3 ADD MLOAD DUP2 PUSH1 0x1 ADD SSTORE PUSH1 0x40 DUP3 ADD MLOAD DUP2 PUSH1 0x2 ADD SSTORE PUSH1 0x60 DUP3 ADD MLOAD DUP2 PUSH1 0x3 ADD SSTORE PUSH1 0x80 DUP3 ADD MLOAD DUP2 PUSH1 0x4 ADD SSTORE PUSH1 0xA0 DUP3 ADD MLOAD DUP2 PUSH1 0x5 ADD SWAP1 DUP2 PUSH2 0x5EA SWAP2 SWAP1 PUSH2 0x1176 JUMP JUMPDEST POP PUSH1 0xC0 DUP3 ADD MLOAD DUP2 PUSH1 0x6 ADD PUSH0 PUSH2 0x100 EXP DUP2 SLOAD DUP2 PUSH20 0xFFFFFFFFFFFFFFFFFFFFFFFFFFFFFFFFFFFFFFFF MUL NOT AND SWAP1 DUP4 PUSH20 0xFFFFFFFFFFFFFFFFFFFFFFFFFFFFFFFFFFFFFFFF AND MUL OR SWAP1 SSTORE POP SWAP1 POP POP PUSH1 0x2 PUSH0 DUP6 DUP2 MSTORE PUSH1 0x20 ADD SWAP1 DUP2 MSTORE PUSH1 0x20 ADD PUSH0 KECCAK256 PUSH0 SLOAD SWAP1 DUP1 PUSH1 0x1 DUP2 SLOAD ADD DUP1 DUP3 SSTORE DUP1 SWAP2 POP POP PUSH1 0x1 SWAP1 SUB SWAP1 PUSH0 MSTORE PUSH1 0x20 PUSH0 KECCAK256 ADD PUSH0 SWAP1 SWAP2 SWAP1 SWAP2 SWAP1 SWAP2 POP SSTORE PUSH1 0x3 PUSH0 DUP7 DUP2 MSTORE PUSH1 0x20 ADD SWAP1 DUP2 MSTORE PUSH1 0x20 ADD PUSH0 KECCAK256 PUSH0 SLOAD SWAP1 DUP1 PUSH1 0x1 DUP2 SLOAD ADD DUP1 DUP3 SSTORE DUP1 SWAP2 POP POP PUSH1 0x1 SWAP1 SUB SWAP1 PUSH0 MSTORE PUSH1 0x20 PUSH0 KECCAK256 ADD PUSH0 SWAP1 SWAP2 SWAP1 SWAP2 SWAP1 SWAP2 POP SSTORE PUSH1 0x6 PUSH0 SWAP1 SLOAD SWAP1 PUSH2 0x100 EXP SWAP1 DIV PUSH20 0xFFFFFFFFFFFFFFFFFFFFFFFFFFFFFFFFFFFFFFFF AND PUSH20 0xFFFFFFFFFFFFFFFFFFFFFFFFFFFFFFFFFFFFFFFF AND PUSH4 0x3F0A92FB DUP6 DUP8 DUP7 PUSH1 0x40 MLOAD DUP5 PUSH4 0xFFFFFFFF AND PUSH1 0xE0 SHL DUP2 MSTORE PUSH1 0x4 ADD PUSH2 0x6FE SWAP4 SWAP3 SWAP2 SWAP1 PUSH2 0x1245 JUMP JUMPDEST PUSH0 PUSH1 0x40 MLOAD DUP1 DUP4 SUB DUP2 PUSH0 DUP8 DUP1 EXTCODESIZE ISZERO DUP1 ISZERO PUSH2 0x715 JUMPI PUSH0 PUSH0 REVERT JUMPDEST POP GAS CALL ISZERO DUP1 ISZERO PUSH2 0x727 JUMPI RETURNDATASIZE PUSH0 PUSH0 RETURNDATACOPY RETURNDATASIZE PUSH0 REVERT JUMPDEST POP POP POP POP DUP4 DUP6 PUSH0 SLOAD PUSH32 0xCBEF0A7CD032FFABD8F73486FE687413271F738592A85614F94BEC841D222AF7 DUP7 CALLER DUP8 PUSH1 0x40 MLOAD PUSH2 0x762 SWAP4 SWAP3 SWAP2 SWAP1 PUSH2 0x127A JUMP JUMPDEST PUSH1 0x40 MLOAD DUP1 SWAP2 SUB SWAP1 LOG4 PUSH0 SLOAD SWAP1 POP SWAP5 SWAP4 POP POP POP POP JUMP JUMPDEST PUSH1 0x1 PUSH1 0x20 MSTORE DUP1 PUSH0 MSTORE PUSH1 0x40 PUSH0 KECCAK256 PUSH0 SWAP2 POP SWAP1 POP DUP1 PUSH0 ADD SLOAD SWAP1 DUP1 PUSH1 0x1 ADD SLOAD SWAP1 DUP1 PUSH1 0x2 ADD SLOAD SWAP1 DUP1 PUSH1 0x3 ADD SLOAD SWAP1 DUP1 PUSH1 0x4 ADD SLOAD SWAP1 DUP1 PUSH1 0x5 ADD DUP1 SLOAD PUSH2 0x7B3 SWAP1 PUSH2 0xFAF JUMP JUMPDEST DUP1 PUSH1 0x1F ADD PUSH1 0x20 DUP1 SWAP2 DIV MUL PUSH1 0x20 ADD PUSH1 0x40 MLOAD SWAP1 DUP2 ADD PUSH1 0x40 MSTORE DUP1 SWAP3 SWAP2 SWAP1 DUP2 DUP2 MSTORE PUSH1 0x20 ADD DUP3 DUP1 SLOAD PUSH2 0x7DF SWAP1 PUSH2 0xFAF JUMP JUMPDEST DUP1 ISZERO PUSH2 0x82A JUMPI DUP1 PUSH1 0x1F LT PUSH2 0x801 JUMPI PUSH2 0x100 DUP1 DUP4 SLOAD DIV MUL DUP4 MSTORE SWAP2 PUSH1 0x20 ADD SWAP2 PUSH2 0x82A JUMP JUMPDEST DUP3 ADD SWAP2 SWAP1 PUSH0 MSTORE PUSH1 0x20 PUSH0 KECCAK256 SWAP1 JUMPDEST DUP2 SLOAD DUP2 MSTORE SWAP1 PUSH1 0x1 ADD SWAP1 PUSH1 0x20 ADD DUP1 DUP4 GT PUSH2 0x80D JUMPI DUP3 SWAP1 SUB PUSH1 0x1F AND DUP3 ADD SWAP2 JUMPDEST POP POP POP POP POP SWAP1 DUP1 PUSH1 0x6 ADD PUSH0 SWAP1 SLOAD SWAP1 PUSH2 0x100 EXP SWAP1 DIV PUSH20 0xFFFFFFFFFFFFFFFFFFFFFFFFFFFFFFFFFFFFFFFF AND SWAP1 POP DUP8 JUMP JUMPDEST PUSH1 0x2 PUSH1 0x20 MSTORE DUP2 PUSH0 MSTORE PUSH1 0x40 PUSH0 KECCAK256 DUP2 DUP2 SLOAD DUP2 LT PUSH2 0x872 JUMPI PUSH0 DUP1 REVERT JUMPDEST SWAP1 PUSH0 MSTORE PUSH1 0x20 PUSH0 KECCAK256 ADD PUSH0 SWAP2 POP SWAP2 POP POP SLOAD DUP2 JUMP JUMPDEST PUSH0 PUSH1 0x40 MLOAD SWAP1 POP SWAP1 JUMP JUMPDEST PUSH0 PUSH0 REVERT JUMPDEST PUSH0 PUSH0 REVERT JUMPDEST PUSH0 DUP2 SWAP1 POP SWAP2 SWAP1 POP JUMP JUMPDEST PUSH2 0x8A7 DUP2 PUSH2 0x895 JUMP JUMPDEST DUP2 EQ PUSH2 0x8B1 JUMPI PUSH0 PUSH0 REVERT JUMPDEST POP JUMP JUMPDEST PUSH0 DUP2 CALLDATALOAD SWAP1 POP PUSH2 0x8C2 DUP2 PUSH2 0x89E JUMP JUMPDEST SWAP3 SWAP2 POP POP JUMP JUMPDEST PUSH0 PUSH0 PUSH1 0x40 DUP4 DUP6 SUB SLT ISZERO PUSH2 0x8DE JUMPI PUSH2 0x8DD PUSH2 0x88D JUMP JUMPDEST JUMPDEST PUSH0 PUSH2 0x8EB DUP6 DUP3 DUP7 ADD PUSH2 0x8B4 JUMP JUMPDEST SWAP3 POP POP PUSH1 0x20 PUSH2 0x8FC DUP6 DUP3 DUP7 ADD PUSH2 0x8B4 JUMP JUMPDEST SWAP2 POP POP SWAP3 POP SWAP3 SWAP1 POP JUMP JUMPDEST PUSH2 0x90F DUP2 PUSH2 0x895 JUMP JUMPDEST DUP3 MSTORE POP POP JUMP JUMPDEST PUSH0 PUSH1 0x20 DUP3 ADD SWAP1 POP PUSH2 0x928 PUSH0 DUP4 ADD DUP5 PUSH2 0x906 JUMP JUMPDEST SWAP3 SWAP2 POP POP JUMP JUMPDEST PUSH0 PUSH20 0xFFFFFFFFFFFFFFFFFFFFFFFFFFFFFFFFFFFFFFFF DUP3 AND SWAP1 POP SWAP2 SWAP1 POP JUMP JUMPDEST PUSH0 DUP2 SWAP1 POP SWAP2 SWAP1 POP JUMP JUMPDEST PUSH0 PUSH2 0x970 PUSH2 0x96B PUSH2 0x966 DUP5 PUSH2 0x92E JUMP JUMPDEST PUSH2 0x94D JUMP JUMPDEST PUSH2 0x92E JUMP JUMPDEST SWAP1 POP SWAP2 SWAP1 POP JUMP JUMPDEST PUSH0 PUSH2 0x981 DUP3 PUSH2 0x956 JUMP JUMPDEST SWAP1 POP SWAP2 SWAP1 POP JUMP JUMPDEST PUSH0 PUSH2 0x992 DUP3 PUSH2 0x977 JUMP JUMPDEST SWAP1 POP SWAP2 SWAP1 POP JUMP JUMPDEST PUSH2 0x9A2 DUP2 PUSH2 0x988 JUMP JUMPDEST DUP3 MSTORE POP POP JUMP JUMPDEST PUSH0 PUSH1 0x20 DUP3 ADD SWAP1 POP PUSH2 0x9BB PUSH0 DUP4 ADD DUP5 PUSH2 0x999 JUMP JUMPDEST SWAP3 SWAP2 POP POP JUMP JUMPDEST PUSH0 PUSH2 0x9CB DUP3 PUSH2 0x977 JUMP JUMPDEST SWAP1 POP SWAP2 SWAP1 POP JUMP JUMPDEST PUSH2 0x9DB DUP2 PUSH2 0x9C1 JUMP JUMPDEST DUP3 MSTORE POP POP JUMP JUMPDEST PUSH0 PUSH1 0x20 DUP3 ADD SWAP1 POP PUSH2 0x9F4 PUSH0 DUP4 ADD DUP5 PUSH2 0x9D2 JUMP JUMPDEST SWAP3 SWAP2 POP POP JUMP JUMPDEST PUSH0 PUSH2 0xA04 DUP3 PUSH2 0x977 JUMP JUMPDEST SWAP1 POP SWAP2 SWAP1 POP JUMP JUMPDEST PUSH2 0xA14 DUP2 PUSH2 0x9FA JUMP JUMPDEST DUP3 MSTORE POP POP JUMP JUMPDEST PUSH0 PUSH1 0x20 DUP3 ADD SWAP1 POP PUSH2 0xA2D PUSH0 DUP4 ADD DUP5 PUSH2 0xA0B JUMP JUMPDEST SWAP3 SWAP2 POP POP JUMP JUMPDEST PUSH0 PUSH0 REVERT JUMPDEST PUSH0 PUSH0 REVERT JUMPDEST PUSH0 PUSH1 0x1F NOT PUSH1 0x1F DUP4 ADD AND SWAP1 POP SWAP2 SWAP1 POP JUMP JUMPDEST PUSH32 0x4E487B7100000000000000000000000000000000000000000000000000000000 PUSH0 MSTORE PUSH1 0x41 PUSH1 0x4 MSTORE PUSH1 0x24 PUSH0 REVERT JUMPDEST PUSH2 0xA81 DUP3 PUSH2 0xA3B JUMP JUMPDEST DUP2 ADD DUP2 DUP2 LT PUSH8 0xFFFFFFFFFFFFFFFF DUP3 GT OR ISZERO PUSH2 0xAA0 JUMPI PUSH2 0xA9F PUSH2 0xA4B JUMP JUMPDEST JUMPDEST DUP1 PUSH1 0x40 MSTORE POP POP POP JUMP JUMPDEST PUSH0 PUSH2 0xAB2 PUSH2 0x884 JUMP JUMPDEST SWAP1 POP PUSH2 0xABE DUP3 DUP3 PUSH2 0xA78 JUMP JUMPDEST SWAP2 SWAP1 POP JUMP JUMPDEST PUSH0 PUSH8 0xFFFFFFFFFFFFFFFF DUP3 GT ISZERO PUSH2 0xADD JUMPI PUSH2 0xADC PUSH2 0xA4B JUMP JUMPDEST JUMPDEST PUSH2 0xAE6 DUP3 PUSH2 0xA3B JUMP JUMPDEST SWAP1 POP PUSH1 0x20 DUP2 ADD SWAP1 POP SWAP2 SWAP1 POP JUMP JUMPDEST DUP3 DUP2 DUP4 CALLDATACOPY PUSH0 DUP4 DUP4 ADD MSTORE POP POP POP JUMP JUMPDEST PUSH0 PUSH2 0xB13 PUSH2 0xB0E DUP5 PUSH2 0xAC3 JUMP JUMPDEST PUSH2 0xAA9 JUMP JUMPDEST SWAP1 POP DUP3 DUP2 MSTORE PUSH1 0x20 DUP2 ADD DUP5 DUP5 DUP5 ADD GT ISZERO PUSH2 0xB2F JUMPI PUSH2 0xB2E PUSH2 0xA37 JUMP JUMPDEST JUMPDEST PUSH2 0xB3A DUP5 DUP3 DUP6 PUSH2 0xAF3 JUMP JUMPDEST POP SWAP4 SWAP3 POP POP POP JUMP JUMPDEST PUSH0 DUP3 PUSH1 0x1F DUP4 ADD SLT PUSH2 0xB56 JUMPI PUSH2 0xB55 PUSH2 0xA33 JUMP JUMPDEST JUMPDEST DUP2 CALLDATALOAD PUSH2 0xB66 DUP5 DUP3 PUSH1 0x20 DUP7 ADD PUSH2 0xB01 JUMP JUMPDEST SWAP2 POP POP SWAP3 SWAP2 POP POP JUMP JUMPDEST PUSH0 PUSH0 PUSH0 PUSH0 PUSH1 0x80 DUP6 DUP8 SUB SLT ISZERO PUSH2 0xB87 JUMPI PUSH2 0xB86 PUSH2 0x88D JUMP JUMPDEST JUMPDEST PUSH0 PUSH2 0xB94 DUP8 DUP3 DUP9 ADD PUSH2 0x8B4 JUMP JUMPDEST SWAP5 POP POP PUSH1 0x20 PUSH2 0xBA5 DUP8 DUP3 DUP9 ADD PUSH2 0x8B4 JUMP JUMPDEST SWAP4 POP POP PUSH1 0x40 PUSH2 0xBB6 DUP8 DUP3 DUP9 ADD PUSH2 0x8B4 JUMP JUMPDEST SWAP3 POP POP PUSH1 0x60 DUP6 ADD CALLDATALOAD PUSH8 0xFFFFFFFFFFFFFFFF DUP2 GT ISZERO PUSH2 0xBD7 JUMPI PUSH2 0xBD6 PUSH2 0x891 JUMP JUMPDEST JUMPDEST PUSH2 0xBE3 DUP8 DUP3 DUP9 ADD PUSH2 0xB42 JUMP JUMPDEST SWAP2 POP POP SWAP3 SWAP6 SWAP2 SWAP5 POP SWAP3 POP JUMP JUMPDEST PUSH0 PUSH1 0x20 DUP3 DUP5 SUB SLT ISZERO PUSH2 0xC04 JUMPI PUSH2 0xC03 PUSH2 0x88D JUMP JUMPDEST JUMPDEST PUSH0 PUSH2 0xC11 DUP5 DUP3 DUP6 ADD PUSH2 0x8B4 JUMP JUMPDEST SWAP2 POP POP SWAP3 SWAP2 POP POP JUMP JUMPDEST PUSH0 DUP2 MLOAD SWAP1 POP SWAP2 SWAP1 POP JUMP JUMPDEST PUSH0 DUP3 DUP3 MSTORE PUSH1 0x20 DUP3 ADD SWAP1 POP SWAP3 SWAP2 POP POP JUMP JUMPDEST DUP3 DUP2 DUP4 MCOPY PUSH0 DUP4 DUP4 ADD MSTORE POP POP POP JUMP JUMPDEST PUSH0 PUSH2 0xC4C DUP3 PUSH2 0xC1A JUMP JUMPDEST PUSH2 0xC56 DUP2 DUP6 PUSH2 0xC24 JUMP JUMPDEST SWAP4 POP PUSH2 0xC66 DUP2 DUP6 PUSH1 0x20 DUP7 ADD PUSH2 0xC34 JUMP JUMPDEST PUSH2 0xC6F DUP2 PUSH2 0xA3B JUMP JUMPDEST DUP5 ADD SWAP2 POP POP SWAP3 SWAP2 POP POP JUMP JUMPDEST PUSH0 PUSH2 0xC84 DUP3 PUSH2 0x92E JUMP JUMPDEST SWAP1 POP SWAP2 SWAP1 POP JUMP JUMPDEST PUSH2 0xC94 DUP2 PUSH2 0xC7A JUMP JUMPDEST DUP3 MSTORE POP POP JUMP JUMPDEST PUSH0 PUSH1 0xE0 DUP3 ADD SWAP1 POP PUSH2 0xCAD PUSH0 DUP4 ADD DUP11 PUSH2 0x906 JUMP JUMPDEST PUSH2 0xCBA PUSH1 0x20 DUP4 ADD DUP10 PUSH2 0x906 JUMP JUMPDEST PUSH2 0xCC7 PUSH1 0x40 DUP4 ADD DUP9 PUSH2 0x906 JUMP JUMPDEST PUSH2 0xCD4 PUSH1 0x60 DUP4 ADD DUP8 PUSH2 0x906 JUMP JUMPDEST PUSH2 0xCE1 PUSH1 0x80 DUP4 ADD DUP7 PUSH2 0x906 JUMP JUMPDEST DUP2 DUP2 SUB PUSH1 0xA0 DUP4 ADD MSTORE PUSH2 0xCF3 DUP2 DUP6 PUSH2 0xC42 JUMP JUMPDEST SWAP1 POP PUSH2 0xD02 PUSH1 0xC0 DUP4 ADD DUP5 PUSH2 0xC8B JUMP JUMPDEST SWAP9 SWAP8 POP POP POP POP POP POP POP POP JUMP JUMPDEST PUSH32 0x436F6D706C61696E742068617368207265717569726564000000000000000000 PUSH0 DUP3 ADD MSTORE POP JUMP JUMPDEST PUSH0 PUSH2 0xD42 PUSH1 0x17 DUP4 PUSH2 0xC24 JUMP JUMPDEST SWAP2 POP PUSH2 0xD4D DUP3 PUSH2 0xD0E JUMP JUMPDEST PUSH1 0x20 DUP3 ADD SWAP1 POP SWAP2 SWAP1 POP JUMP JUMPDEST PUSH0 PUSH1 0x20 DUP3 ADD SWAP1 POP DUP2 DUP2 SUB PUSH0 DUP4 ADD MSTORE PUSH2 0xD6F DUP2 PUSH2 0xD36 JUMP JUMPDEST SWAP1 POP SWAP2 SWAP1 POP JUMP JUMPDEST PUSH0 DUP2 ISZERO ISZERO SWAP1 POP SWAP2 SWAP1 POP JUMP JUMPDEST PUSH2 0xD8A DUP2 PUSH2 0xD76 JUMP JUMPDEST DUP2 EQ PUSH2 0xD94 JUMPI PUSH0 PUSH0 REVERT JUMPDEST POP JUMP JUMPDEST PUSH0 DUP2 MLOAD SWAP1 POP PUSH2 0xDA5 DUP2 PUSH2 0xD81 JUMP JUMPDEST SWAP3 SWAP2 POP POP JUMP JUMPDEST PUSH0 PUSH1 0x20 DUP3 DUP5 SUB SLT ISZERO PUSH2 0xDC0 JUMPI PUSH2 0xDBF PUSH2 0x88D JUMP JUMPDEST JUMPDEST PUSH0 PUSH2 0xDCD DUP5 DUP3 DUP6 ADD PUSH2 0xD97 JUMP JUMPDEST SWAP2 POP POP SWAP3 SWAP2 POP POP JUMP JUMPDEST PUSH32 0x496E76616C696420757365720000000000000000000000000000000000000000 PUSH0 DUP3 ADD MSTORE POP JUMP JUMPDEST PUSH0 PUSH2 0xE0A PUSH1 0xC DUP4 PUSH2 0xC24 JUMP JUMPDEST SWAP2 POP PUSH2 0xE15 DUP3 PUSH2 0xDD6 JUMP JUMPDEST PUSH1 0x20 DUP3 ADD SWAP1 POP SWAP2 SWAP1 POP JUMP JUMPDEST PUSH0 PUSH1 0x20 DUP3 ADD SWAP1 POP DUP2 DUP2 SUB PUSH0 DUP4 ADD MSTORE PUSH2 0xE37 DUP2 PUSH2 0xDFE JUMP JUMPDEST SWAP1 POP SWAP2 SWAP1 POP JUMP JUMPDEST PUSH32 0x55736572206E6F74207665726966696564000000000000000000000000000000 PUSH0 DUP3 ADD MSTORE POP JUMP JUMPDEST PUSH0 PUSH2 0xE72 PUSH1 0x11 DUP4 PUSH2 0xC24 JUMP JUMPDEST SWAP2 POP PUSH2 0xE7D DUP3 PUSH2 0xE3E JUMP JUMPDEST PUSH1 0x20 DUP3 ADD SWAP1 POP SWAP2 SWAP1 POP JUMP JUMPDEST PUSH0 PUSH1 0x20 DUP3 ADD SWAP1 POP DUP2 DUP2 SUB PUSH0 DUP4 ADD MSTORE PUSH2 0xE9F DUP2 PUSH2 0xE66 JUMP JUMPDEST SWAP1 POP SWAP2 SWAP1 POP JUMP JUMPDEST PUSH32 0x4F7267616E69736174696F6E20646F6573206E6F742065786973740000000000 PUSH0 DUP3 ADD MSTORE POP JUMP JUMPDEST PUSH0 PUSH2 0xEDA PUSH1 0x1B DUP4 PUSH2 0xC24 JUMP JUMPDEST SWAP2 POP PUSH2 0xEE5 DUP3 PUSH2 0xEA6 JUMP JUMPDEST PUSH1 0x20 DUP3 ADD SWAP1 POP SWAP2 SWAP1 POP JUMP JUMPDEST PUSH0 PUSH1 0x20 DUP3 ADD SWAP1 POP DUP2 DUP2 SUB PUSH0 DUP4 ADD MSTORE PUSH2 0xF07 DUP2 PUSH2 0xECE JUMP JUMPDEST SWAP1 POP SWAP2 SWAP1 POP JUMP JUMPDEST PUSH32 0x4E487B7100000000000000000000000000000000000000000000000000000000 PUSH0 MSTORE PUSH1 0x11 PUSH1 0x4 MSTORE PUSH1 0x24 PUSH0 REVERT JUMPDEST PUSH0 PUSH2 0xF45 DUP3 PUSH2 0x895 JUMP JUMPDEST SWAP2 POP PUSH32 0xFFFFFFFFFFFFFFFFFFFFFFFFFFFFFFFFFFFFFFFFFFFFFFFFFFFFFFFFFFFFFFFF DUP3 SUB PUSH2 0xF77 JUMPI PUSH2 0xF76 PUSH2 0xF0E JUMP JUMPDEST JUMPDEST PUSH1 0x1 DUP3 ADD SWAP1 POP SWAP2 SWAP1 POP JUMP JUMPDEST PUSH32 0x4E487B7100000000000000000000000000000000000000000000000000000000 PUSH0 MSTORE PUSH1 0x22 PUSH1 0x4 MSTORE PUSH1 0x24 PUSH0 REVERT JUMPDEST PUSH0 PUSH1 0x2 DUP3 DIV SWAP1 POP PUSH1 0x1 DUP3 AND DUP1 PUSH2 0xFC6 JUMPI PUSH1 0x7F DUP3 AND SWAP2 POP JUMPDEST PUSH1 0x20 DUP3 LT DUP2 SUB PUSH2 0xFD9 JUMPI PUSH2 0xFD8 PUSH2 0xF82 JUMP JUMPDEST JUMPDEST POP SWAP2 SWAP1 POP JUMP JUMPDEST PUSH0 DUP2 SWAP1 POP DUP2 PUSH0 MSTORE PUSH1 0x20 PUSH0 KECCAK256 SWAP1 POP SWAP2 SWAP1 POP JUMP JUMPDEST PUSH0 PUSH1 0x20 PUSH1 0x1F DUP4 ADD DIV SWAP1 POP SWAP2 SWAP1 POP JUMP JUMPDEST PUSH0 DUP3 DUP3 SHL SWAP1 POP SWAP3 SWAP2 POP POP JUMP JUMPDEST PUSH0 PUSH1 0x8 DUP4 MUL PUSH2 0x103B PUSH32 0xFFFFFFFFFFFFFFFFFFFFFFFFFFFFFFFFFFFFFFFFFFFFFFFFFFFFFFFFFFFFFFFF DUP3 PUSH2 0x1000 JUMP JUMPDEST PUSH2 0x1045 DUP7 DUP4 PUSH2 0x1000 JUMP JUMPDEST SWAP6 POP DUP1 NOT DUP5 AND SWAP4 POP DUP1 DUP7 AND DUP5 OR SWAP3 POP POP POP SWAP4 SWAP3 POP POP POP JUMP JUMPDEST PUSH0 PUSH2 0x1077 PUSH2 0x1072 PUSH2 0x106D DUP5 PUSH2 0x895 JUMP JUMPDEST PUSH2 0x94D JUMP JUMPDEST PUSH2 0x895 JUMP JUMPDEST SWAP1 POP SWAP2 SWAP1 POP JUMP JUMPDEST PUSH0 DUP2 SWAP1 POP SWAP2 SWAP1 POP JUMP JUMPDEST PUSH2 0x1090 DUP4 PUSH2 0x105D JUMP JUMPDEST PUSH2 0x10A4 PUSH2 0x109C DUP3 PUSH2 0x107E JUMP JUMPDEST DUP5 DUP5 SLOAD PUSH2 0x100C JUMP JUMPDEST DUP3 SSTORE POP POP POP POP JUMP JUMPDEST PUSH0 PUSH0 SWAP1 POP SWAP1 JUMP JUMPDEST PUSH2 0x10BB PUSH2 0x10AC JUMP JUMPDEST PUSH2 0x10C6 DUP2 DUP5 DUP5 PUSH2 0x1087 JUMP JUMPDEST POP POP POP JUMP JUMPDEST JUMPDEST DUP2 DUP2 LT ISZERO PUSH2 0x10E9 JUMPI PUSH2 0x10DE PUSH0 DUP3 PUSH2 0x10B3 JUMP JUMPDEST PUSH1 0x1 DUP2 ADD SWAP1 POP PUSH2 0x10CC JUMP JUMPDEST POP POP JUMP JUMPDEST PUSH1 0x1F DUP3 GT ISZERO PUSH2 0x112E JUMPI PUSH2 0x10FF DUP2 PUSH2 0xFDF JUMP JUMPDEST PUSH2 0x1108 DUP5 PUSH2 0xFF1 JUMP JUMPDEST DUP2 ADD PUSH1 0x20 DUP6 LT ISZERO PUSH2 0x1117 JUMPI DUP2 SWAP1 POP JUMPDEST PUSH2 0x112B PUSH2 0x1123 DUP6 PUSH2 0xFF1 JUMP JUMPDEST DUP4 ADD DUP3 PUSH2 0x10CB JUMP JUMPDEST POP POP JUMPDEST POP POP POP JUMP JUMPDEST PUSH0 DUP3 DUP3 SHR SWAP1 POP SWAP3 SWAP2 POP POP JUMP JUMPDEST PUSH0 PUSH2 0x114E PUSH0 NOT DUP5 PUSH1 0x8 MUL PUSH2 0x1133 JUMP JUMPDEST NOT DUP1 DUP4 AND SWAP2 POP POP SWAP3 SWAP2 POP POP JUMP JUMPDEST PUSH0 PUSH2 0x1166 DUP4 DUP4 PUSH2 0x113F JUMP JUMPDEST SWAP2 POP DUP3 PUSH1 0x2 MUL DUP3 OR SWAP1 POP SWAP3 SWAP2 POP POP JUMP JUMPDEST PUSH2 0x117F DUP3 PUSH2 0xC1A JUMP JUMPDEST PUSH8 0xFFFFFFFFFFFFFFFF DUP2 GT ISZERO PUSH2 0x1198 JUMPI PUSH2 0x1197 PUSH2 0xA4B JUMP JUMPDEST JUMPDEST PUSH2 0x11A2 DUP3 SLOAD PUSH2 0xFAF JUMP JUMPDEST PUSH2 0x11AD DUP3 DUP3 DUP6 PUSH2 0x10ED JUMP JUMPDEST PUSH0 PUSH1 0x20 SWAP1 POP PUSH1 0x1F DUP4 GT PUSH1 0x1 DUP2 EQ PUSH2 0x11DE JUMPI PUSH0 DUP5 ISZERO PUSH2 0x11CC JUMPI DUP3 DUP8 ADD MLOAD SWAP1 POP JUMPDEST PUSH2 0x11D6 DUP6 DUP3 PUSH2 0x115B JUMP JUMPDEST DUP7 SSTORE POP PUSH2 0x123D JUMP JUMPDEST PUSH1 0x1F NOT DUP5 AND PUSH2 0x11EC DUP7 PUSH2 0xFDF JUMP JUMPDEST PUSH0 JUMPDEST DUP3 DUP2 LT ISZERO PUSH2 0x1213 JUMPI DUP5 DUP10 ADD MLOAD DUP3 SSTORE PUSH1 0x1 DUP3 ADD SWAP2 POP PUSH1 0x20 DUP6 ADD SWAP5 POP PUSH1 0x20 DUP2 ADD SWAP1 POP PUSH2 0x11EE JUMP JUMPDEST DUP7 DUP4 LT ISZERO PUSH2 0x1230 JUMPI DUP5 DUP10 ADD MLOAD PUSH2 0x122C PUSH1 0x1F DUP10 AND DUP3 PUSH2 0x113F JUMP JUMPDEST DUP4 SSTORE POP JUMPDEST PUSH1 0x1 PUSH1 0x2 DUP9 MUL ADD DUP9 SSTORE POP POP POP JUMPDEST POP POP POP POP POP POP JUMP JUMPDEST PUSH0 PUSH1 0x60 DUP3 ADD SWAP1 POP PUSH2 0x1258 PUSH0 DUP4 ADD DUP7 PUSH2 0x906 JUMP JUMPDEST PUSH2 0x1265 PUSH1 0x20 DUP4 ADD DUP6 PUSH2 0x906 JUMP JUMPDEST PUSH2 0x1272 PUSH1 0x40 DUP4 ADD DUP5 PUSH2 0x906 JUMP JUMPDEST SWAP5 SWAP4 POP POP POP POP JUMP JUMPDEST PUSH0 PUSH1 0x60 DUP3 ADD SWAP1 POP PUSH2 0x128D PUSH0 DUP4 ADD DUP7 PUSH2 0x906 JUMP JUMPDEST PUSH2 0x129A PUSH1 0x20 DUP4 ADD DUP6 PUSH2 0xC8B JUMP JUMPDEST DUP2 DUP2 SUB PUSH1 0x40 DUP4 ADD MSTORE PUSH2 0x12AC DUP2 DUP5 PUSH2 0xC42 JUMP JUMPDEST SWAP1 POP SWAP5 SWAP4 POP POP POP POP JUMP INVALID LOG2 PUSH5 0x6970667358 0x22 SLT KECCAK256 0xAF MCOPY SLOAD PUSH8 0x1432713483A59D74 0xA6 0xBB CALL 0xBD DUP3 MULMOD SWAP12 0xB4 0x25 PUSH7 0xC20666DA7E831 0xA6 0xC0 PUSH32 0x64736F6C634300081E0033000000000000000000000000000000000000000000 "
				},
				"gasEstimates": {
					"creation": {
						"codeDepositCost": "968800",
						"executionCost": "infinite",
						"totalCost": "infinite"
					},
					"external": {
						"complaintCount()": "2447",
						"complaints(uint256)": "infinite",
						"complaintsByOrganisation(uint256,uint256)": "infinite",
						"complaintsByUser(uint256,uint256)": "infinite",
						"organisationRegistry()": "infinite",
						"reputationCalculation()": "infinite",
						"submitComplaint(uint256,uint256,uint256,string)": "infinite",
						"userRegistry()": "infinite"
					}
				},
				"methodIdentifiers": {
					"complaintCount()": "2edea294",
					"complaints(uint256)": "7e69e912",
					"complaintsByOrganisation(uint256,uint256)": "c7059ea2",
					"complaintsByUser(uint256,uint256)": "0dcbbd95",
					"organisationRegistry()": "7a1c6b70",
					"reputationCalculation()": "36c582b7",
					"submitComplaint(uint256,uint256,uint256,string)": "7af90ca3",
					"userRegistry()": "5c7460d6"
				}
			},
			"storageLayout": {
				"storage": [
					{
						"astId": 21,
						"contract": "assessment3/ComplainRegistry.sol:ComplaintRegistry",
						"label": "complaintCount",
						"offset": 0,
						"slot": "0",
						"type": "t_uint256"
					},
					{
						"astId": 26,
						"contract": "assessment3/ComplainRegistry.sol:ComplaintRegistry",
						"label": "complaints",
						"offset": 0,
						"slot": "1",
						"type": "t_mapping(t_uint256,t_struct(Complaint)19_storage)"
					},
					{
						"astId": 31,
						"contract": "assessment3/ComplainRegistry.sol:ComplaintRegistry",
						"label": "complaintsByOrganisation",
						"offset": 0,
						"slot": "2",
						"type": "t_mapping(t_uint256,t_array(t_uint256)dyn_storage)"
					},
					{
						"astId": 36,
						"contract": "assessment3/ComplainRegistry.sol:ComplaintRegistry",
						"label": "complaintsByUser",
						"offset": 0,
						"slot": "3",
						"type": "t_mapping(t_uint256,t_array(t_uint256)dyn_storage)"
					},
					{
						"astId": 39,
						"contract": "assessment3/ComplainRegistry.sol:ComplaintRegistry",
						"label": "organisationRegistry",
						"offset": 0,
						"slot": "4",
						"type": "t_contract(OrganisationRegistry)334"
					},
					{
						"astId": 42,
						"contract": "assessment3/ComplainRegistry.sol:ComplaintRegistry",
						"label": "userRegistry",
						"offset": 0,
						"slot": "5",
						"type": "t_contract(UserRegistry)705"
					},
					{
						"astId": 45,
						"contract": "assessment3/ComplainRegistry.sol:ComplaintRegistry",
						"label": "reputationCalculation",
						"offset": 0,
						"slot": "6",
						"type": "t_contract(ReputationCalculation)545"
					}
				],
				"types": {
					"t_address": {
						"encoding": "inplace",
						"label": "address",
						"numberOfBytes": "20"
					},
					"t_array(t_uint256)dyn_storage": {
						"base": "t_uint256",
						"encoding": "dynamic_array",
						"label": "uint256[]",
						"numberOfBytes": "32"
					},
					"t_contract(OrganisationRegistry)334": {
						"encoding": "inplace",
						"label": "contract OrganisationRegistry",
						"numberOfBytes": "20"
					},
					"t_contract(ReputationCalculation)545": {
						"encoding": "inplace",
						"label": "contract ReputationCalculation",
						"numberOfBytes": "20"
					},
					"t_contract(UserRegistry)705": {
						"encoding": "inplace",
						"label": "contract UserRegistry",
						"numberOfBytes": "20"
					},
					"t_mapping(t_uint256,t_array(t_uint256)dyn_storage)": {
						"encoding": "mapping",
						"key": "t_uint256",
						"label": "mapping(uint256 => uint256[])",
						"numberOfBytes": "32",
						"value": "t_array(t_uint256)dyn_storage"
					},
					"t_mapping(t_uint256,t_struct(Complaint)19_storage)": {
						"encoding": "mapping",
						"key": "t_uint256",
						"label": "mapping(uint256 => struct ComplaintRegistry.Complaint)",
						"numberOfBytes": "32",
						"value": "t_struct(Complaint)19_storage"
					},
					"t_string_storage": {
						"encoding": "bytes",
						"label": "string",
						"numberOfBytes": "32"
					},
					"t_struct(Complaint)19_storage": {
						"encoding": "inplace",
						"label": "struct ComplaintRegistry.Complaint",
						"members": [
							{
								"astId": 6,
								"contract": "assessment3/ComplainRegistry.sol:ComplaintRegistry",
								"label": "id",
								"offset": 0,
								"slot": "0",
								"type": "t_uint256"
							},
							{
								"astId": 8,
								"contract": "assessment3/ComplainRegistry.sol:ComplaintRegistry",
								"label": "userId",
								"offset": 0,
								"slot": "1",
								"type": "t_uint256"
							},
							{
								"astId": 10,
								"contract": "assessment3/ComplainRegistry.sol:ComplaintRegistry",
								"label": "orgId",
								"offset": 0,
								"slot": "2",
								"type": "t_uint256"
							},
							{
								"astId": 12,
								"contract": "assessment3/ComplainRegistry.sol:ComplaintRegistry",
								"label": "score",
								"offset": 0,
								"slot": "3",
								"type": "t_uint256"
							},
							{
								"astId": 14,
								"contract": "assessment3/ComplainRegistry.sol:ComplaintRegistry",
								"label": "timestamp",
								"offset": 0,
								"slot": "4",
								"type": "t_uint256"
							},
							{
								"astId": 16,
								"contract": "assessment3/ComplainRegistry.sol:ComplaintRegistry",
								"label": "contentHash",
								"offset": 0,
								"slot": "5",
								"type": "t_string_storage"
							},
							{
								"astId": 18,
								"contract": "assessment3/ComplainRegistry.sol:ComplaintRegistry",
								"label": "reporter",
								"offset": 0,
								"slot": "6",
								"type": "t_address"
							}
						],
						"numberOfBytes": "224"
					},
					"t_uint256": {
						"encoding": "inplace",
						"label": "uint256",
						"numberOfBytes": "32"
					}
				}
			},
			"userdoc": {
				"kind": "user",
				"methods": {},
				"version": 1
			}
		}
	}
}