{
	"assessment3/OrganisationRegistry.sol": {
		"OrganisationRegistry": {
			"abi": [
				{
					"anonymous": false,
					"inputs": [
						{
							"indexed": true,
							"internalType": "uint256",
							"name": "orgId",
							"type": "uint256"
						},
						{
							"indexed": false,
							"internalType": "string",
							"name": "name",
							"type": "string"
						},
						{
							"indexed": true,
							"internalType": "address",
							"name": "owner",
							"type": "address"
						}
					],
					"name": "OrganisationRegistered",
					"type": "event"
				},
				{
					"inputs": [
						{
							"internalType": "uint256",
							"name": "orgId",
							"type": "uint256"
						}
					],
					"name": "getOrganisation",
					"outputs": [
						{
							"internalType": "uint256",
							"name": "id",
							"type": "uint256"
						},
						{
							"internalType": "string",
							"name": "name",
							"type": "string"
						},
						{
							"internalType": "address",
							"name": "owner",
							"type": "address"
						},
						{
							"internalType": "bool",
							"name": "exists",
							"type": "bool"
						}
					],
					"stateMutability": "view",
					"type": "function"
				},
				{
					"inputs": [],
					"name": "organisationCount",
					"outputs": [
						{
							"internalType": "uint256",
							"name": "",
							"type": "uint256"
						}
					],
					"stateMutability": "view",
					"type": "function"
				},
				{
					"inputs": [
						{
							"internalType": "uint256",
							"name": "orgId",
							"type": "uint256"
						}
					],
					"name": "organisationExists",
					"outputs": [
						{
							"internalType": "bool",
							"name": "",
							"type": "bool"
						}
					],
					"stateMutability": "view",
					"type": "function"
				},
				{
					"inputs": [
						{
							"internalType": "uint256",
							"name": "",
							"type": "uint256"
						}
					],
					"name": "organisations",
					"outputs": [
						{
							"internalType": "uint256",
							"name": "id",
							"type": "uint256"
						},
						{
							"internalType": "string",
							"name": "name",
							"type": "string"
						},
						{
							"internalType": "address",
							"name": "owner",
							"type": "address"
						},
						{
							"internalType": "bool",
							"name": "exists",
							"type": "bool"
						}
					],
					"stateMutability": "view",
					"type": "function"
				},
				{
					"inputs": [
						{
							"internalType": "string",
							"name": "name",
							"type": "string"
						}
					],
					"name": "registerOrganisation",
					"outputs": [
						{
							"internalType": "uint256",
							"name": "",
							"type": "uint256"
						}
					],
					"stateMutability": "nonpayable",
					"type": "function"
				}
			],
			"devdoc": {
				"kind": "dev",
				"methods": {},
				"version": 1
			},
			"evm": {
				"assembly": "    /* \"assessment3/OrganisationRegistry.sol\":60:1371  contract OrganisationRegistry {... */\n  mstore(0x40, 0x80)\n  callvalue\n  dup1\n  iszero\n  tag_1\n  jumpi\n  revert(0x00, 0x00)\ntag_1:\n  pop\n  dataSize(sub_0)\n  dup1\n  dataOffset(sub_0)\n  0x00\n  codecopy\n  0x00\n  return\nstop\n\nsub_0: assembly {\n        /* \"assessment3/OrganisationRegistry.sol\":60:1371  contract OrganisationRegistry {... */\n      mstore(0x40, 0x80)\n      callvalue\n      dup1\n      iszero\n      tag_1\n      jumpi\n      revert(0x00, 0x00)\n    tag_1:\n      pop\n      jumpi(tag_2, lt(calldatasize, 0x04))\n      shr(0xe0, calldataload(0x00))\n      dup1\n      0x1c00e6d1\n      eq\n      tag_3\n      jumpi\n      dup1\n      0x246f8c44\n      eq\n      tag_4\n      jumpi\n      dup1\n      0x75543074\n      eq\n      tag_5\n      jumpi\n      dup1\n      0xd52c842f\n      eq\n      tag_6\n      jumpi\n      dup1\n      0xe5c29861\n      eq\n      tag_7\n      jumpi\n    tag_2:\n      revert(0x00, 0x00)\n        /* \"assessment3/OrganisationRegistry.sol\":477:971  function registerOrganisation(string memory name) external returns (uint256) {... */\n    tag_3:\n      tag_8\n      0x04\n      dup1\n      calldatasize\n      sub\n      dup2\n      add\n      swap1\n      tag_9\n      swap2\n      swap1\n      tag_10\n      jump\t// in\n    tag_9:\n      tag_11\n      jump\t// in\n    tag_8:\n      mload(0x40)\n      tag_12\n      swap2\n      swap1\n      tag_13\n      jump\t// in\n    tag_12:\n      mload(0x40)\n      dup1\n      swap2\n      sub\n      swap1\n      return\n        /* \"assessment3/OrganisationRegistry.sol\":315:368  mapping(uint256 => Organisation) public organisations */\n    tag_4:\n      tag_14\n      0x04\n      dup1\n      calldatasize\n      sub\n      dup2\n      add\n      swap1\n      tag_15\n      swap2\n      swap1\n      tag_16\n      jump\t// in\n    tag_15:\n      tag_17\n      jump\t// in\n    tag_14:\n      mload(0x40)\n      tag_18\n      swap5\n      swap4\n      swap3\n      swap2\n      swap1\n      tag_19\n      jump\t// in\n    tag_18:\n      mload(0x40)\n      dup1\n      swap2\n      sub\n      swap1\n      return\n        /* \"assessment3/OrganisationRegistry.sol\":1112:1368  function getOrganisation(uint256 orgId) external view... */\n    tag_5:\n      tag_20\n      0x04\n      dup1\n      calldatasize\n      sub\n      dup2\n      add\n      swap1\n      tag_21\n      swap2\n      swap1\n      tag_16\n      jump\t// in\n    tag_21:\n      tag_22\n      jump\t// in\n    tag_20:\n      mload(0x40)\n      tag_23\n      swap5\n      swap4\n      swap3\n      swap2\n      swap1\n      tag_19\n      jump\t// in\n    tag_23:\n      mload(0x40)\n      dup1\n      swap2\n      sub\n      swap1\n      return\n        /* \"assessment3/OrganisationRegistry.sol\":276:308  uint256 public organisationCount */\n    tag_6:\n      tag_24\n      tag_25\n      jump\t// in\n    tag_24:\n      mload(0x40)\n      tag_26\n      swap2\n      swap1\n      tag_13\n      jump\t// in\n    tag_26:\n      mload(0x40)\n      dup1\n      swap2\n      sub\n      swap1\n      return\n        /* \"assessment3/OrganisationRegistry.sol\":979:1104  function organisationExists(uint256 orgId) external view returns (bool) {... */\n    tag_7:\n      tag_27\n      0x04\n      dup1\n      calldatasize\n      sub\n      dup2\n      add\n      swap1\n      tag_28\n      swap2\n      swap1\n      tag_16\n      jump\t// in\n    tag_28:\n      tag_29\n      jump\t// in\n    tag_27:\n      mload(0x40)\n      tag_30\n      swap2\n      swap1\n      tag_31\n      jump\t// in\n    tag_30:\n      mload(0x40)\n      dup1\n      swap2\n      sub\n      swap1\n      return\n        /* \"assessment3/OrganisationRegistry.sol\":477:971  function registerOrganisation(string memory name) external returns (uint256) {... */\n    tag_11:\n        /* \"assessment3/OrganisationRegistry.sol\":545:552  uint256 */\n      0x00\n        /* \"assessment3/OrganisationRegistry.sol\":594:595  0 */\n      0x00\n        /* \"assessment3/OrganisationRegistry.sol\":579:583  name */\n      dup3\n        /* \"assessment3/OrganisationRegistry.sol\":573:591  bytes(name).length */\n      mload\n        /* \"assessment3/OrganisationRegistry.sol\":573:595  bytes(name).length > 0 */\n      gt\n        /* \"assessment3/OrganisationRegistry.sol\":565:626  require(bytes(name).length > 0, \"Organisation name required\") */\n      tag_33\n      jumpi\n      mload(0x40)\n      0x08c379a000000000000000000000000000000000000000000000000000000000\n      dup2\n      mstore\n      0x04\n      add\n      tag_34\n      swap1\n      tag_35\n      jump\t// in\n    tag_34:\n      mload(0x40)\n      dup1\n      swap2\n      sub\n      swap1\n      revert\n    tag_33:\n        /* \"assessment3/OrganisationRegistry.sol\":639:656  organisationCount */\n      0x00\n      0x00\n        /* \"assessment3/OrganisationRegistry.sol\":639:658  organisationCount++ */\n      dup2\n      sload\n      dup1\n      swap3\n      swap2\n      swap1\n      tag_36\n      swap1\n      tag_37\n      jump\t// in\n    tag_36:\n      swap2\n      swap1\n      pop\n      sstore\n      pop\n        /* \"assessment3/OrganisationRegistry.sol\":706:851  Organisation({... */\n      mload(0x40)\n      dup1\n      0x80\n      add\n      0x40\n      mstore\n      dup1\n        /* \"assessment3/OrganisationRegistry.sol\":738:755  organisationCount */\n      sload(0x00)\n        /* \"assessment3/OrganisationRegistry.sol\":706:851  Organisation({... */\n      dup2\n      mstore\n      0x20\n      add\n        /* \"assessment3/OrganisationRegistry.sol\":776:780  name */\n      dup4\n        /* \"assessment3/OrganisationRegistry.sol\":706:851  Organisation({... */\n      dup2\n      mstore\n      0x20\n      add\n        /* \"assessment3/OrganisationRegistry.sol\":802:812  msg.sender */\n      caller\n        /* \"assessment3/OrganisationRegistry.sol\":706:851  Organisation({... */\n      0xffffffffffffffffffffffffffffffffffffffff\n      and\n      dup2\n      mstore\n      0x20\n      add\n        /* \"assessment3/OrganisationRegistry.sol\":835:839  true */\n      0x01\n        /* \"assessment3/OrganisationRegistry.sol\":706:851  Organisation({... */\n      iszero\n      iszero\n      dup2\n      mstore\n      pop\n        /* \"assessment3/OrganisationRegistry.sol\":671:684  organisations */\n      0x01\n        /* \"assessment3/OrganisationRegistry.sol\":671:703  organisations[organisationCount] */\n      0x00\n        /* \"assessment3/OrganisationRegistry.sol\":685:702  organisationCount */\n      sload(0x00)\n        /* \"assessment3/OrganisationRegistry.sol\":671:703  organisations[organisationCount] */\n      dup2\n      mstore\n      0x20\n      add\n      swap1\n      dup2\n      mstore\n      0x20\n      add\n      0x00\n      keccak256\n        /* \"assessment3/OrganisationRegistry.sol\":671:851  organisations[organisationCount] = Organisation({... */\n      0x00\n      dup3\n      add\n      mload\n      dup2\n      0x00\n      add\n      sstore\n      0x20\n      dup3\n      add\n      mload\n      dup2\n      0x01\n      add\n      swap1\n      dup2\n      tag_38\n      swap2\n      swap1\n      tag_39\n      jump\t// in\n    tag_38:\n      pop\n      0x40\n      dup3\n      add\n      mload\n      dup2\n      0x02\n      add\n      exp(0x0100, 0x00)\n      dup2\n      sload\n      dup2\n      0xffffffffffffffffffffffffffffffffffffffff\n      mul\n      not\n      and\n      swap1\n      dup4\n      0xffffffffffffffffffffffffffffffffffffffff\n      and\n      mul\n      or\n      swap1\n      sstore\n      pop\n      0x60\n      dup3\n      add\n      mload\n      dup2\n      0x02\n      add\n      exp(0x0100, 0x14)\n      dup2\n      sload\n      dup2\n      0xff\n      mul\n      not\n      and\n      swap1\n      dup4\n      iszero\n      iszero\n      mul\n      or\n      swap1\n      sstore\n      pop\n      swap1\n      pop\n      pop\n        /* \"assessment3/OrganisationRegistry.sol\":917:927  msg.sender */\n      caller\n        /* \"assessment3/OrganisationRegistry.sol\":869:928  OrganisationRegistered(organisationCount, name, msg.sender) */\n      0xffffffffffffffffffffffffffffffffffffffff\n      and\n        /* \"assessment3/OrganisationRegistry.sol\":892:909  organisationCount */\n      sload(0x00)\n        /* \"assessment3/OrganisationRegistry.sol\":869:928  OrganisationRegistered(organisationCount, name, msg.sender) */\n      0x519e654e516c1f372832bc692d8598db4c2a3e684fd1fae5aa88a2b48e34e559\n        /* \"assessment3/OrganisationRegistry.sol\":911:915  name */\n      dup5\n        /* \"assessment3/OrganisationRegistry.sol\":869:928  OrganisationRegistered(organisationCount, name, msg.sender) */\n      mload(0x40)\n      tag_40\n      swap2\n      swap1\n      tag_41\n      jump\t// in\n    tag_40:\n      mload(0x40)\n      dup1\n      swap2\n      sub\n      swap1\n      log3\n        /* \"assessment3/OrganisationRegistry.sol\":946:963  organisationCount */\n      sload(0x00)\n        /* \"assessment3/OrganisationRegistry.sol\":939:963  return organisationCount */\n      swap1\n      pop\n        /* \"assessment3/OrganisationRegistry.sol\":477:971  function registerOrganisation(string memory name) external returns (uint256) {... */\n      swap2\n      swap1\n      pop\n      jump\t// out\n        /* \"assessment3/OrganisationRegistry.sol\":315:368  mapping(uint256 => Organisation) public organisations */\n    tag_17:\n      mstore(0x20, 0x01)\n      dup1\n      0x00\n      mstore\n      keccak256(0x00, 0x40)\n      0x00\n      swap2\n      pop\n      swap1\n      pop\n      dup1\n      0x00\n      add\n      sload\n      swap1\n      dup1\n      0x01\n      add\n      dup1\n      sload\n      tag_42\n      swap1\n      tag_43\n      jump\t// in\n    tag_42:\n      dup1\n      0x1f\n      add\n      0x20\n      dup1\n      swap2\n      div\n      mul\n      0x20\n      add\n      mload(0x40)\n      swap1\n      dup2\n      add\n      0x40\n      mstore\n      dup1\n      swap3\n      swap2\n      swap1\n      dup2\n      dup2\n      mstore\n      0x20\n      add\n      dup3\n      dup1\n      sload\n      tag_44\n      swap1\n      tag_43\n      jump\t// in\n    tag_44:\n      dup1\n      iszero\n      tag_45\n      jumpi\n      dup1\n      0x1f\n      lt\n      tag_46\n      jumpi\n      0x0100\n      dup1\n      dup4\n      sload\n      div\n      mul\n      dup4\n      mstore\n      swap2\n      0x20\n      add\n      swap2\n      jump(tag_45)\n    tag_46:\n      dup3\n      add\n      swap2\n      swap1\n      0x00\n      mstore\n      keccak256(0x00, 0x20)\n      swap1\n    tag_47:\n      dup2\n      sload\n      dup2\n      mstore\n      swap1\n      0x01\n      add\n      swap1\n      0x20\n      add\n      dup1\n      dup4\n      gt\n      tag_47\n      jumpi\n      dup3\n      swap1\n      sub\n      0x1f\n      and\n      dup3\n      add\n      swap2\n    tag_45:\n      pop\n      pop\n      pop\n      pop\n      pop\n      swap1\n      dup1\n      0x02\n      add\n      0x00\n      swap1\n      sload\n      swap1\n      0x0100\n      exp\n      swap1\n      div\n      0xffffffffffffffffffffffffffffffffffffffff\n      and\n      swap1\n      dup1\n      0x02\n      add\n      0x14\n      swap1\n      sload\n      swap1\n      0x0100\n      exp\n      swap1\n      div\n      0xff\n      and\n      swap1\n      pop\n      dup5\n      jump\t// out\n        /* \"assessment3/OrganisationRegistry.sol\":1112:1368  function getOrganisation(uint256 orgId) external view... */\n    tag_22:\n        /* \"assessment3/OrganisationRegistry.sol\":1184:1194  uint256 id */\n      0x00\n        /* \"assessment3/OrganisationRegistry.sol\":1196:1214  string memory name */\n      0x60\n        /* \"assessment3/OrganisationRegistry.sol\":1216:1229  address owner */\n      0x00\n        /* \"assessment3/OrganisationRegistry.sol\":1231:1242  bool exists */\n      0x00\n        /* \"assessment3/OrganisationRegistry.sol\":1255:1278  Organisation memory org */\n      0x00\n        /* \"assessment3/OrganisationRegistry.sol\":1281:1294  organisations */\n      0x01\n        /* \"assessment3/OrganisationRegistry.sol\":1281:1301  organisations[orgId] */\n      0x00\n        /* \"assessment3/OrganisationRegistry.sol\":1295:1300  orgId */\n      dup8\n        /* \"assessment3/OrganisationRegistry.sol\":1281:1301  organisations[orgId] */\n      dup2\n      mstore\n      0x20\n      add\n      swap1\n      dup2\n      mstore\n      0x20\n      add\n      0x00\n      keccak256\n        /* \"assessment3/OrganisationRegistry.sol\":1255:1301  Organisation memory org = organisations[orgId] */\n      mload(0x40)\n      dup1\n      0x80\n      add\n      0x40\n      mstore\n      swap1\n      dup2\n      0x00\n      dup3\n      add\n      sload\n      dup2\n      mstore\n      0x20\n      add\n      0x01\n      dup3\n      add\n      dup1\n      sload\n      tag_49\n      swap1\n      tag_43\n      jump\t// in\n    tag_49:\n      dup1\n      0x1f\n      add\n      0x20\n      dup1\n      swap2\n      div\n      mul\n      0x20\n      add\n      mload(0x40)\n      swap1\n      dup2\n      add\n      0x40\n      mstore\n      dup1\n      swap3\n      swap2\n      swap1\n      dup2\n      dup2\n      mstore\n      0x20\n      add\n      dup3\n      dup1\n      sload\n      tag_50\n      swap1\n      tag_43\n      jump\t// in\n    tag_50:\n      dup1\n      iszero\n      tag_51\n      jumpi\n      dup1\n      0x1f\n      lt\n      tag_52\n      jumpi\n      0x0100\n      dup1\n      dup4\n      sload\n      div\n      mul\n      dup4\n      mstore\n      swap2\n      0x20\n      add\n      swap2\n      jump(tag_51)\n    tag_52:\n      dup3\n      add\n      swap2\n      swap1\n      0x00\n      mstore\n      keccak256(0x00, 0x20)\n      swap1\n    tag_53:\n      dup2\n      sload\n      dup2\n      mstore\n      swap1\n      0x01\n      add\n      swap1\n      0x20\n      add\n      dup1\n      dup4\n      gt\n      tag_53\n      jumpi\n      dup3\n      swap1\n      sub\n      0x1f\n      and\n      dup3\n      add\n      swap2\n    tag_51:\n      pop\n      pop\n      pop\n      pop\n      pop\n      dup2\n      mstore\n      0x20\n      add\n      0x02\n      dup3\n      add\n      0x00\n      swap1\n      sload\n      swap1\n      0x0100\n      exp\n      swap1\n      div\n      0xffffffffffffffffffffffffffffffffffffffff\n      and\n      0xffffffffffffffffffffffffffffffffffffffff\n      and\n      0xffffffffffffffffffffffffffffffffffffffff\n      and\n      dup2\n      mstore\n      0x20\n      add\n      0x02\n      dup3\n      add\n      0x14\n      swap1\n      sload\n      swap1\n      0x0100\n      exp\n      swap1\n      div\n      0xff\n      and\n      iszero\n      iszero\n      iszero\n      iszero\n      dup2\n      mstore\n      pop\n      pop\n      swap1\n      pop\n        /* \"assessment3/OrganisationRegistry.sol\":1320:1323  org */\n      dup1\n        /* \"assessment3/OrganisationRegistry.sol\":1320:1326  org.id */\n      0x00\n      add\n      mload\n        /* \"assessment3/OrganisationRegistry.sol\":1328:1331  org */\n      dup2\n        /* \"assessment3/OrganisationRegistry.sol\":1328:1336  org.name */\n      0x20\n      add\n      mload\n        /* \"assessment3/OrganisationRegistry.sol\":1338:1341  org */\n      dup3\n        /* \"assessment3/OrganisationRegistry.sol\":1338:1347  org.owner */\n      0x40\n      add\n      mload\n        /* \"assessment3/OrganisationRegistry.sol\":1349:1352  org */\n      dup4\n        /* \"assessment3/OrganisationRegistry.sol\":1349:1359  org.exists */\n      0x60\n      add\n      mload\n        /* \"assessment3/OrganisationRegistry.sol\":1312:1360  return (org.id, org.name, org.owner, org.exists) */\n      swap5\n      pop\n      swap5\n      pop\n      swap5\n      pop\n      swap5\n      pop\n      pop\n        /* \"assessment3/OrganisationRegistry.sol\":1112:1368  function getOrganisation(uint256 orgId) external view... */\n      swap2\n      swap4\n      pop\n      swap2\n      swap4\n      jump\t// out\n        /* \"assessment3/OrganisationRegistry.sol\":276:308  uint256 public organisationCount */\n    tag_25:\n      sload(0x00)\n      dup2\n      jump\t// out\n        /* \"assessment3/OrganisationRegistry.sol\":979:1104  function organisationExists(uint256 orgId) external view returns (bool) {... */\n    tag_29:\n        /* \"assessment3/OrganisationRegistry.sol\":1045:1049  bool */\n      0x00\n        /* \"assessment3/OrganisationRegistry.sol\":1069:1082  organisations */\n      0x01\n        /* \"assessment3/OrganisationRegistry.sol\":1069:1089  organisations[orgId] */\n      0x00\n        /* \"assessment3/OrganisationRegistry.sol\":1083:1088  orgId */\n      dup4\n        /* \"assessment3/OrganisationRegistry.sol\":1069:1089  organisations[orgId] */\n      dup2\n      mstore\n      0x20\n      add\n      swap1\n      dup2\n      mstore\n      0x20\n      add\n      0x00\n      keccak256\n        /* \"assessment3/OrganisationRegistry.sol\":1069:1096  organisations[orgId].exists */\n      0x02\n      add\n      0x14\n      swap1\n      sload\n      swap1\n      0x0100\n      exp\n      swap1\n      div\n      0xff\n      and\n        /* \"assessment3/OrganisationRegistry.sol\":1062:1096  return organisations[orgId].exists */\n      swap1\n      pop\n        /* \"assessment3/OrganisationRegistry.sol\":979:1104  function organisationExists(uint256 orgId) external view returns (bool) {... */\n      swap2\n      swap1\n      pop\n      jump\t// out\n        /* \"#utility.yul\":7:82   */\n    tag_55:\n        /* \"#utility.yul\":40:46   */\n      0x00\n        /* \"#utility.yul\":73:75   */\n      0x40\n        /* \"#utility.yul\":67:76   */\n      mload\n        /* \"#utility.yul\":57:76   */\n      swap1\n      pop\n        /* \"#utility.yul\":7:82   */\n      swap1\n      jump\t// out\n        /* \"#utility.yul\":88:205   */\n    tag_56:\n        /* \"#utility.yul\":197:198   */\n      0x00\n        /* \"#utility.yul\":194:195   */\n      0x00\n        /* \"#utility.yul\":187:199   */\n      revert\n        /* \"#utility.yul\":211:328   */\n    tag_57:\n        /* \"#utility.yul\":320:321   */\n      0x00\n        /* \"#utility.yul\":317:318   */\n      0x00\n        /* \"#utility.yul\":310:322   */\n      revert\n        /* \"#utility.yul\":334:451   */\n    tag_58:\n        /* \"#utility.yul\":443:444   */\n      0x00\n        /* \"#utility.yul\":440:441   */\n      0x00\n        /* \"#utility.yul\":433:445   */\n      revert\n        /* \"#utility.yul\":457:574   */\n    tag_59:\n        /* \"#utility.yul\":566:567   */\n      0x00\n        /* \"#utility.yul\":563:564   */\n      0x00\n        /* \"#utility.yul\":556:568   */\n      revert\n        /* \"#utility.yul\":580:682   */\n    tag_60:\n        /* \"#utility.yul\":621:627   */\n      0x00\n        /* \"#utility.yul\":672:674   */\n      0x1f\n        /* \"#utility.yul\":668:675   */\n      not\n        /* \"#utility.yul\":663:665   */\n      0x1f\n        /* \"#utility.yul\":656:661   */\n      dup4\n        /* \"#utility.yul\":652:666   */\n      add\n        /* \"#utility.yul\":648:676   */\n      and\n        /* \"#utility.yul\":638:676   */\n      swap1\n      pop\n        /* \"#utility.yul\":580:682   */\n      swap2\n      swap1\n      pop\n      jump\t// out\n        /* \"#utility.yul\":688:868   */\n    tag_61:\n        /* \"#utility.yul\":736:813   */\n      0x4e487b7100000000000000000000000000000000000000000000000000000000\n        /* \"#utility.yul\":733:734   */\n      0x00\n        /* \"#utility.yul\":726:814   */\n      mstore\n        /* \"#utility.yul\":833:837   */\n      0x41\n        /* \"#utility.yul\":830:831   */\n      0x04\n        /* \"#utility.yul\":823:838   */\n      mstore\n        /* \"#utility.yul\":857:861   */\n      0x24\n        /* \"#utility.yul\":854:855   */\n      0x00\n        /* \"#utility.yul\":847:862   */\n      revert\n        /* \"#utility.yul\":874:1155   */\n    tag_62:\n        /* \"#utility.yul\":957:984   */\n      tag_109\n        /* \"#utility.yul\":979:983   */\n      dup3\n        /* \"#utility.yul\":957:984   */\n      tag_60\n      jump\t// in\n    tag_109:\n        /* \"#utility.yul\":949:955   */\n      dup2\n        /* \"#utility.yul\":945:985   */\n      add\n        /* \"#utility.yul\":1087:1093   */\n      dup2\n        /* \"#utility.yul\":1075:1085   */\n      dup2\n        /* \"#utility.yul\":1072:1094   */\n      lt\n        /* \"#utility.yul\":1051:1069   */\n      0xffffffffffffffff\n        /* \"#utility.yul\":1039:1049   */\n      dup3\n        /* \"#utility.yul\":1036:1070   */\n      gt\n        /* \"#utility.yul\":1033:1095   */\n      or\n        /* \"#utility.yul\":1030:1118   */\n      iszero\n      tag_110\n      jumpi\n        /* \"#utility.yul\":1098:1116   */\n      tag_111\n      tag_61\n      jump\t// in\n    tag_111:\n        /* \"#utility.yul\":1030:1118   */\n    tag_110:\n        /* \"#utility.yul\":1138:1148   */\n      dup1\n        /* \"#utility.yul\":1134:1136   */\n      0x40\n        /* \"#utility.yul\":1127:1149   */\n      mstore\n        /* \"#utility.yul\":917:1155   */\n      pop\n        /* \"#utility.yul\":874:1155   */\n      pop\n      pop\n      jump\t// out\n        /* \"#utility.yul\":1161:1290   */\n    tag_63:\n        /* \"#utility.yul\":1195:1201   */\n      0x00\n        /* \"#utility.yul\":1222:1242   */\n      tag_113\n      tag_55\n      jump\t// in\n    tag_113:\n        /* \"#utility.yul\":1212:1242   */\n      swap1\n      pop\n        /* \"#utility.yul\":1251:1284   */\n      tag_114\n        /* \"#utility.yul\":1279:1283   */\n      dup3\n        /* \"#utility.yul\":1271:1277   */\n      dup3\n        /* \"#utility.yul\":1251:1284   */\n      tag_62\n      jump\t// in\n    tag_114:\n        /* \"#utility.yul\":1161:1290   */\n      swap2\n      swap1\n      pop\n      jump\t// out\n        /* \"#utility.yul\":1296:1604   */\n    tag_64:\n        /* \"#utility.yul\":1358:1362   */\n      0x00\n        /* \"#utility.yul\":1448:1466   */\n      0xffffffffffffffff\n        /* \"#utility.yul\":1440:1446   */\n      dup3\n        /* \"#utility.yul\":1437:1467   */\n      gt\n        /* \"#utility.yul\":1434:1490   */\n      iszero\n      tag_116\n      jumpi\n        /* \"#utility.yul\":1470:1488   */\n      tag_117\n      tag_61\n      jump\t// in\n    tag_117:\n        /* \"#utility.yul\":1434:1490   */\n    tag_116:\n        /* \"#utility.yul\":1508:1537   */\n      tag_118\n        /* \"#utility.yul\":1530:1536   */\n      dup3\n        /* \"#utility.yul\":1508:1537   */\n      tag_60\n      jump\t// in\n    tag_118:\n        /* \"#utility.yul\":1500:1537   */\n      swap1\n      pop\n        /* \"#utility.yul\":1592:1596   */\n      0x20\n        /* \"#utility.yul\":1586:1590   */\n      dup2\n        /* \"#utility.yul\":1582:1597   */\n      add\n        /* \"#utility.yul\":1574:1597   */\n      swap1\n      pop\n        /* \"#utility.yul\":1296:1604   */\n      swap2\n      swap1\n      pop\n      jump\t// out\n        /* \"#utility.yul\":1610:1758   */\n    tag_65:\n        /* \"#utility.yul\":1708:1714   */\n      dup3\n        /* \"#utility.yul\":1703:1706   */\n      dup2\n        /* \"#utility.yul\":1698:1701   */\n      dup4\n        /* \"#utility.yul\":1685:1715   */\n      calldatacopy\n        /* \"#utility.yul\":1749:1750   */\n      0x00\n        /* \"#utility.yul\":1740:1746   */\n      dup4\n        /* \"#utility.yul\":1735:1738   */\n      dup4\n        /* \"#utility.yul\":1731:1747   */\n      add\n        /* \"#utility.yul\":1724:1751   */\n      mstore\n        /* \"#utility.yul\":1610:1758   */\n      pop\n      pop\n      pop\n      jump\t// out\n        /* \"#utility.yul\":1764:2189   */\n    tag_66:\n        /* \"#utility.yul\":1842:1847   */\n      0x00\n        /* \"#utility.yul\":1867:1933   */\n      tag_121\n        /* \"#utility.yul\":1883:1932   */\n      tag_122\n        /* \"#utility.yul\":1925:1931   */\n      dup5\n        /* \"#utility.yul\":1883:1932   */\n      tag_64\n      jump\t// in\n    tag_122:\n        /* \"#utility.yul\":1867:1933   */\n      tag_63\n      jump\t// in\n    tag_121:\n        /* \"#utility.yul\":1858:1933   */\n      swap1\n      pop\n        /* \"#utility.yul\":1956:1962   */\n      dup3\n        /* \"#utility.yul\":1949:1954   */\n      dup2\n        /* \"#utility.yul\":1942:1963   */\n      mstore\n        /* \"#utility.yul\":1994:1998   */\n      0x20\n        /* \"#utility.yul\":1987:1992   */\n      dup2\n        /* \"#utility.yul\":1983:1999   */\n      add\n        /* \"#utility.yul\":2032:2035   */\n      dup5\n        /* \"#utility.yul\":2023:2029   */\n      dup5\n        /* \"#utility.yul\":2018:2021   */\n      dup5\n        /* \"#utility.yul\":2014:2030   */\n      add\n        /* \"#utility.yul\":2011:2036   */\n      gt\n        /* \"#utility.yul\":2008:2120   */\n      iszero\n      tag_123\n      jumpi\n        /* \"#utility.yul\":2039:2118   */\n      tag_124\n      tag_59\n      jump\t// in\n    tag_124:\n        /* \"#utility.yul\":2008:2120   */\n    tag_123:\n        /* \"#utility.yul\":2129:2183   */\n      tag_125\n        /* \"#utility.yul\":2176:2182   */\n      dup5\n        /* \"#utility.yul\":2171:2174   */\n      dup3\n        /* \"#utility.yul\":2166:2169   */\n      dup6\n        /* \"#utility.yul\":2129:2183   */\n      tag_65\n      jump\t// in\n    tag_125:\n        /* \"#utility.yul\":1848:2189   */\n      pop\n        /* \"#utility.yul\":1764:2189   */\n      swap4\n      swap3\n      pop\n      pop\n      pop\n      jump\t// out\n        /* \"#utility.yul\":2209:2549   */\n    tag_67:\n        /* \"#utility.yul\":2265:2270   */\n      0x00\n        /* \"#utility.yul\":2314:2317   */\n      dup3\n        /* \"#utility.yul\":2307:2311   */\n      0x1f\n        /* \"#utility.yul\":2299:2305   */\n      dup4\n        /* \"#utility.yul\":2295:2312   */\n      add\n        /* \"#utility.yul\":2291:2318   */\n      slt\n        /* \"#utility.yul\":2281:2403   */\n      tag_127\n      jumpi\n        /* \"#utility.yul\":2322:2401   */\n      tag_128\n      tag_58\n      jump\t// in\n    tag_128:\n        /* \"#utility.yul\":2281:2403   */\n    tag_127:\n        /* \"#utility.yul\":2439:2445   */\n      dup2\n        /* \"#utility.yul\":2426:2446   */\n      calldataload\n        /* \"#utility.yul\":2464:2543   */\n      tag_129\n        /* \"#utility.yul\":2539:2542   */\n      dup5\n        /* \"#utility.yul\":2531:2537   */\n      dup3\n        /* \"#utility.yul\":2524:2528   */\n      0x20\n        /* \"#utility.yul\":2516:2522   */\n      dup7\n        /* \"#utility.yul\":2512:2529   */\n      add\n        /* \"#utility.yul\":2464:2543   */\n      tag_66\n      jump\t// in\n    tag_129:\n        /* \"#utility.yul\":2455:2543   */\n      swap2\n      pop\n        /* \"#utility.yul\":2271:2549   */\n      pop\n        /* \"#utility.yul\":2209:2549   */\n      swap3\n      swap2\n      pop\n      pop\n      jump\t// out\n        /* \"#utility.yul\":2555:3064   */\n    tag_10:\n        /* \"#utility.yul\":2624:2630   */\n      0x00\n        /* \"#utility.yul\":2673:2675   */\n      0x20\n        /* \"#utility.yul\":2661:2670   */\n      dup3\n        /* \"#utility.yul\":2652:2659   */\n      dup5\n        /* \"#utility.yul\":2648:2671   */\n      sub\n        /* \"#utility.yul\":2644:2676   */\n      slt\n        /* \"#utility.yul\":2641:2760   */\n      iszero\n      tag_131\n      jumpi\n        /* \"#utility.yul\":2679:2758   */\n      tag_132\n      tag_56\n      jump\t// in\n    tag_132:\n        /* \"#utility.yul\":2641:2760   */\n    tag_131:\n        /* \"#utility.yul\":2827:2828   */\n      0x00\n        /* \"#utility.yul\":2816:2825   */\n      dup3\n        /* \"#utility.yul\":2812:2829   */\n      add\n        /* \"#utility.yul\":2799:2830   */\n      calldataload\n        /* \"#utility.yul\":2857:2875   */\n      0xffffffffffffffff\n        /* \"#utility.yul\":2849:2855   */\n      dup2\n        /* \"#utility.yul\":2846:2876   */\n      gt\n        /* \"#utility.yul\":2843:2960   */\n      iszero\n      tag_133\n      jumpi\n        /* \"#utility.yul\":2879:2958   */\n      tag_134\n      tag_57\n      jump\t// in\n    tag_134:\n        /* \"#utility.yul\":2843:2960   */\n    tag_133:\n        /* \"#utility.yul\":2984:3047   */\n      tag_135\n        /* \"#utility.yul\":3039:3046   */\n      dup5\n        /* \"#utility.yul\":3030:3036   */\n      dup3\n        /* \"#utility.yul\":3019:3028   */\n      dup6\n        /* \"#utility.yul\":3015:3037   */\n      add\n        /* \"#utility.yul\":2984:3047   */\n      tag_67\n      jump\t// in\n    tag_135:\n        /* \"#utility.yul\":2974:3047   */\n      swap2\n      pop\n        /* \"#utility.yul\":2770:3057   */\n      pop\n        /* \"#utility.yul\":2555:3064   */\n      swap3\n      swap2\n      pop\n      pop\n      jump\t// out\n        /* \"#utility.yul\":3070:3147   */\n    tag_68:\n        /* \"#utility.yul\":3107:3114   */\n      0x00\n        /* \"#utility.yul\":3136:3141   */\n      dup2\n        /* \"#utility.yul\":3125:3141   */\n      swap1\n      pop\n        /* \"#utility.yul\":3070:3147   */\n      swap2\n      swap1\n      pop\n      jump\t// out\n        /* \"#utility.yul\":3153:3271   */\n    tag_69:\n        /* \"#utility.yul\":3240:3264   */\n      tag_138\n        /* \"#utility.yul\":3258:3263   */\n      dup2\n        /* \"#utility.yul\":3240:3264   */\n      tag_68\n      jump\t// in\n    tag_138:\n        /* \"#utility.yul\":3235:3238   */\n      dup3\n        /* \"#utility.yul\":3228:3265   */\n      mstore\n        /* \"#utility.yul\":3153:3271   */\n      pop\n      pop\n      jump\t// out\n        /* \"#utility.yul\":3277:3499   */\n    tag_13:\n        /* \"#utility.yul\":3370:3374   */\n      0x00\n        /* \"#utility.yul\":3408:3410   */\n      0x20\n        /* \"#utility.yul\":3397:3406   */\n      dup3\n        /* \"#utility.yul\":3393:3411   */\n      add\n        /* \"#utility.yul\":3385:3411   */\n      swap1\n      pop\n        /* \"#utility.yul\":3421:3492   */\n      tag_140\n        /* \"#utility.yul\":3489:3490   */\n      0x00\n        /* \"#utility.yul\":3478:3487   */\n      dup4\n        /* \"#utility.yul\":3474:3491   */\n      add\n        /* \"#utility.yul\":3465:3471   */\n      dup5\n        /* \"#utility.yul\":3421:3492   */\n      tag_69\n      jump\t// in\n    tag_140:\n        /* \"#utility.yul\":3277:3499   */\n      swap3\n      swap2\n      pop\n      pop\n      jump\t// out\n        /* \"#utility.yul\":3505:3627   */\n    tag_70:\n        /* \"#utility.yul\":3578:3602   */\n      tag_142\n        /* \"#utility.yul\":3596:3601   */\n      dup2\n        /* \"#utility.yul\":3578:3602   */\n      tag_68\n      jump\t// in\n    tag_142:\n        /* \"#utility.yul\":3571:3576   */\n      dup2\n        /* \"#utility.yul\":3568:3603   */\n      eq\n        /* \"#utility.yul\":3558:3621   */\n      tag_143\n      jumpi\n        /* \"#utility.yul\":3617:3618   */\n      0x00\n        /* \"#utility.yul\":3614:3615   */\n      0x00\n        /* \"#utility.yul\":3607:3619   */\n      revert\n        /* \"#utility.yul\":3558:3621   */\n    tag_143:\n        /* \"#utility.yul\":3505:3627   */\n      pop\n      jump\t// out\n        /* \"#utility.yul\":3633:3772   */\n    tag_71:\n        /* \"#utility.yul\":3679:3684   */\n      0x00\n        /* \"#utility.yul\":3717:3723   */\n      dup2\n        /* \"#utility.yul\":3704:3724   */\n      calldataload\n        /* \"#utility.yul\":3695:3724   */\n      swap1\n      pop\n        /* \"#utility.yul\":3733:3766   */\n      tag_145\n        /* \"#utility.yul\":3760:3765   */\n      dup2\n        /* \"#utility.yul\":3733:3766   */\n      tag_70\n      jump\t// in\n    tag_145:\n        /* \"#utility.yul\":3633:3772   */\n      swap3\n      swap2\n      pop\n      pop\n      jump\t// out\n        /* \"#utility.yul\":3778:4107   */\n    tag_16:\n        /* \"#utility.yul\":3837:3843   */\n      0x00\n        /* \"#utility.yul\":3886:3888   */\n      0x20\n        /* \"#utility.yul\":3874:3883   */\n      dup3\n        /* \"#utility.yul\":3865:3872   */\n      dup5\n        /* \"#utility.yul\":3861:3884   */\n      sub\n        /* \"#utility.yul\":3857:3889   */\n      slt\n        /* \"#utility.yul\":3854:3973   */\n      iszero\n      tag_147\n      jumpi\n        /* \"#utility.yul\":3892:3971   */\n      tag_148\n      tag_56\n      jump\t// in\n    tag_148:\n        /* \"#utility.yul\":3854:3973   */\n    tag_147:\n        /* \"#utility.yul\":4012:4013   */\n      0x00\n        /* \"#utility.yul\":4037:4090   */\n      tag_149\n        /* \"#utility.yul\":4082:4089   */\n      dup5\n        /* \"#utility.yul\":4073:4079   */\n      dup3\n        /* \"#utility.yul\":4062:4071   */\n      dup6\n        /* \"#utility.yul\":4058:4080   */\n      add\n        /* \"#utility.yul\":4037:4090   */\n      tag_71\n      jump\t// in\n    tag_149:\n        /* \"#utility.yul\":4027:4090   */\n      swap2\n      pop\n        /* \"#utility.yul\":3983:4100   */\n      pop\n        /* \"#utility.yul\":3778:4107   */\n      swap3\n      swap2\n      pop\n      pop\n      jump\t// out\n        /* \"#utility.yul\":4113:4212   */\n    tag_72:\n        /* \"#utility.yul\":4165:4171   */\n      0x00\n        /* \"#utility.yul\":4199:4204   */\n      dup2\n        /* \"#utility.yul\":4193:4205   */\n      mload\n        /* \"#utility.yul\":4183:4205   */\n      swap1\n      pop\n        /* \"#utility.yul\":4113:4212   */\n      swap2\n      swap1\n      pop\n      jump\t// out\n        /* \"#utility.yul\":4218:4387   */\n    tag_73:\n        /* \"#utility.yul\":4302:4313   */\n      0x00\n        /* \"#utility.yul\":4336:4342   */\n      dup3\n        /* \"#utility.yul\":4331:4334   */\n      dup3\n        /* \"#utility.yul\":4324:4343   */\n      mstore\n        /* \"#utility.yul\":4376:4380   */\n      0x20\n        /* \"#utility.yul\":4371:4374   */\n      dup3\n        /* \"#utility.yul\":4367:4381   */\n      add\n        /* \"#utility.yul\":4352:4381   */\n      swap1\n      pop\n        /* \"#utility.yul\":4218:4387   */\n      swap3\n      swap2\n      pop\n      pop\n      jump\t// out\n        /* \"#utility.yul\":4393:4532   */\n    tag_74:\n        /* \"#utility.yul\":4482:4488   */\n      dup3\n        /* \"#utility.yul\":4477:4480   */\n      dup2\n        /* \"#utility.yul\":4472:4475   */\n      dup4\n        /* \"#utility.yul\":4466:4489   */\n      mcopy\n        /* \"#utility.yul\":4523:4524   */\n      0x00\n        /* \"#utility.yul\":4514:4520   */\n      dup4\n        /* \"#utility.yul\":4509:4512   */\n      dup4\n        /* \"#utility.yul\":4505:4521   */\n      add\n        /* \"#utility.yul\":4498:4525   */\n      mstore\n        /* \"#utility.yul\":4393:4532   */\n      pop\n      pop\n      pop\n      jump\t// out\n        /* \"#utility.yul\":4538:4915   */\n    tag_75:\n        /* \"#utility.yul\":4626:4629   */\n      0x00\n        /* \"#utility.yul\":4654:4693   */\n      tag_154\n        /* \"#utility.yul\":4687:4692   */\n      dup3\n        /* \"#utility.yul\":4654:4693   */\n      tag_72\n      jump\t// in\n    tag_154:\n        /* \"#utility.yul\":4709:4780   */\n      tag_155\n        /* \"#utility.yul\":4773:4779   */\n      dup2\n        /* \"#utility.yul\":4768:4771   */\n      dup6\n        /* \"#utility.yul\":4709:4780   */\n      tag_73\n      jump\t// in\n    tag_155:\n        /* \"#utility.yul\":4702:4780   */\n      swap4\n      pop\n        /* \"#utility.yul\":4789:4854   */\n      tag_156\n        /* \"#utility.yul\":4847:4853   */\n      dup2\n        /* \"#utility.yul\":4842:4845   */\n      dup6\n        /* \"#utility.yul\":4835:4839   */\n      0x20\n        /* \"#utility.yul\":4828:4833   */\n      dup7\n        /* \"#utility.yul\":4824:4840   */\n      add\n        /* \"#utility.yul\":4789:4854   */\n      tag_74\n      jump\t// in\n    tag_156:\n        /* \"#utility.yul\":4879:4908   */\n      tag_157\n        /* \"#utility.yul\":4901:4907   */\n      dup2\n        /* \"#utility.yul\":4879:4908   */\n      tag_60\n      jump\t// in\n    tag_157:\n        /* \"#utility.yul\":4874:4877   */\n      dup5\n        /* \"#utility.yul\":4870:4909   */\n      add\n        /* \"#utility.yul\":4863:4909   */\n      swap2\n      pop\n        /* \"#utility.yul\":4630:4915   */\n      pop\n        /* \"#utility.yul\":4538:4915   */\n      swap3\n      swap2\n      pop\n      pop\n      jump\t// out\n        /* \"#utility.yul\":4921:5047   */\n    tag_76:\n        /* \"#utility.yul\":4958:4965   */\n      0x00\n        /* \"#utility.yul\":4998:5040   */\n      0xffffffffffffffffffffffffffffffffffffffff\n        /* \"#utility.yul\":4991:4996   */\n      dup3\n        /* \"#utility.yul\":4987:5041   */\n      and\n        /* \"#utility.yul\":4976:5041   */\n      swap1\n      pop\n        /* \"#utility.yul\":4921:5047   */\n      swap2\n      swap1\n      pop\n      jump\t// out\n        /* \"#utility.yul\":5053:5149   */\n    tag_77:\n        /* \"#utility.yul\":5090:5097   */\n      0x00\n        /* \"#utility.yul\":5119:5143   */\n      tag_160\n        /* \"#utility.yul\":5137:5142   */\n      dup3\n        /* \"#utility.yul\":5119:5143   */\n      tag_76\n      jump\t// in\n    tag_160:\n        /* \"#utility.yul\":5108:5143   */\n      swap1\n      pop\n        /* \"#utility.yul\":5053:5149   */\n      swap2\n      swap1\n      pop\n      jump\t// out\n        /* \"#utility.yul\":5155:5273   */\n    tag_78:\n        /* \"#utility.yul\":5242:5266   */\n      tag_162\n        /* \"#utility.yul\":5260:5265   */\n      dup2\n        /* \"#utility.yul\":5242:5266   */\n      tag_77\n      jump\t// in\n    tag_162:\n        /* \"#utility.yul\":5237:5240   */\n      dup3\n        /* \"#utility.yul\":5230:5267   */\n      mstore\n        /* \"#utility.yul\":5155:5273   */\n      pop\n      pop\n      jump\t// out\n        /* \"#utility.yul\":5279:5369   */\n    tag_79:\n        /* \"#utility.yul\":5313:5320   */\n      0x00\n        /* \"#utility.yul\":5356:5361   */\n      dup2\n        /* \"#utility.yul\":5349:5362   */\n      iszero\n        /* \"#utility.yul\":5342:5363   */\n      iszero\n        /* \"#utility.yul\":5331:5363   */\n      swap1\n      pop\n        /* \"#utility.yul\":5279:5369   */\n      swap2\n      swap1\n      pop\n      jump\t// out\n        /* \"#utility.yul\":5375:5484   */\n    tag_80:\n        /* \"#utility.yul\":5456:5477   */\n      tag_165\n        /* \"#utility.yul\":5471:5476   */\n      dup2\n        /* \"#utility.yul\":5456:5477   */\n      tag_79\n      jump\t// in\n    tag_165:\n        /* \"#utility.yul\":5451:5454   */\n      dup3\n        /* \"#utility.yul\":5444:5478   */\n      mstore\n        /* \"#utility.yul\":5375:5484   */\n      pop\n      pop\n      jump\t// out\n        /* \"#utility.yul\":5490:6122   */\n    tag_19:\n        /* \"#utility.yul\":5681:5685   */\n      0x00\n        /* \"#utility.yul\":5719:5722   */\n      0x80\n        /* \"#utility.yul\":5708:5717   */\n      dup3\n        /* \"#utility.yul\":5704:5723   */\n      add\n        /* \"#utility.yul\":5696:5723   */\n      swap1\n      pop\n        /* \"#utility.yul\":5733:5804   */\n      tag_167\n        /* \"#utility.yul\":5801:5802   */\n      0x00\n        /* \"#utility.yul\":5790:5799   */\n      dup4\n        /* \"#utility.yul\":5786:5803   */\n      add\n        /* \"#utility.yul\":5777:5783   */\n      dup8\n        /* \"#utility.yul\":5733:5804   */\n      tag_69\n      jump\t// in\n    tag_167:\n        /* \"#utility.yul\":5851:5860   */\n      dup2\n        /* \"#utility.yul\":5845:5849   */\n      dup2\n        /* \"#utility.yul\":5841:5861   */\n      sub\n        /* \"#utility.yul\":5836:5838   */\n      0x20\n        /* \"#utility.yul\":5825:5834   */\n      dup4\n        /* \"#utility.yul\":5821:5839   */\n      add\n        /* \"#utility.yul\":5814:5862   */\n      mstore\n        /* \"#utility.yul\":5879:5957   */\n      tag_168\n        /* \"#utility.yul\":5952:5956   */\n      dup2\n        /* \"#utility.yul\":5943:5949   */\n      dup7\n        /* \"#utility.yul\":5879:5957   */\n      tag_75\n      jump\t// in\n    tag_168:\n        /* \"#utility.yul\":5871:5957   */\n      swap1\n      pop\n        /* \"#utility.yul\":5967:6039   */\n      tag_169\n        /* \"#utility.yul\":6035:6037   */\n      0x40\n        /* \"#utility.yul\":6024:6033   */\n      dup4\n        /* \"#utility.yul\":6020:6038   */\n      add\n        /* \"#utility.yul\":6011:6017   */\n      dup6\n        /* \"#utility.yul\":5967:6039   */\n      tag_78\n      jump\t// in\n    tag_169:\n        /* \"#utility.yul\":6049:6115   */\n      tag_170\n        /* \"#utility.yul\":6111:6113   */\n      0x60\n        /* \"#utility.yul\":6100:6109   */\n      dup4\n        /* \"#utility.yul\":6096:6114   */\n      add\n        /* \"#utility.yul\":6087:6093   */\n      dup5\n        /* \"#utility.yul\":6049:6115   */\n      tag_80\n      jump\t// in\n    tag_170:\n        /* \"#utility.yul\":5490:6122   */\n      swap6\n      swap5\n      pop\n      pop\n      pop\n      pop\n      pop\n      jump\t// out\n        /* \"#utility.yul\":6128:6338   */\n    tag_31:\n        /* \"#utility.yul\":6215:6219   */\n      0x00\n        /* \"#utility.yul\":6253:6255   */\n      0x20\n        /* \"#utility.yul\":6242:6251   */\n      dup3\n        /* \"#utility.yul\":6238:6256   */\n      add\n        /* \"#utility.yul\":6230:6256   */\n      swap1\n      pop\n        /* \"#utility.yul\":6266:6331   */\n      tag_172\n        /* \"#utility.yul\":6328:6329   */\n      0x00\n        /* \"#utility.yul\":6317:6326   */\n      dup4\n        /* \"#utility.yul\":6313:6330   */\n      add\n        /* \"#utility.yul\":6304:6310   */\n      dup5\n        /* \"#utility.yul\":6266:6331   */\n      tag_80\n      jump\t// in\n    tag_172:\n        /* \"#utility.yul\":6128:6338   */\n      swap3\n      swap2\n      pop\n      pop\n      jump\t// out\n        /* \"#utility.yul\":6344:6520   */\n    tag_81:\n        /* \"#utility.yul\":6484:6512   */\n      0x4f7267616e69736174696f6e206e616d65207265717569726564000000000000\n        /* \"#utility.yul\":6480:6481   */\n      0x00\n        /* \"#utility.yul\":6472:6478   */\n      dup3\n        /* \"#utility.yul\":6468:6482   */\n      add\n        /* \"#utility.yul\":6461:6513   */\n      mstore\n        /* \"#utility.yul\":6344:6520   */\n      pop\n      jump\t// out\n        /* \"#utility.yul\":6526:6892   */\n    tag_82:\n        /* \"#utility.yul\":6668:6671   */\n      0x00\n        /* \"#utility.yul\":6689:6756   */\n      tag_175\n        /* \"#utility.yul\":6753:6755   */\n      0x1a\n        /* \"#utility.yul\":6748:6751   */\n      dup4\n        /* \"#utility.yul\":6689:6756   */\n      tag_73\n      jump\t// in\n    tag_175:\n        /* \"#utility.yul\":6682:6756   */\n      swap2\n      pop\n        /* \"#utility.yul\":6765:6858   */\n      tag_176\n        /* \"#utility.yul\":6854:6857   */\n      dup3\n        /* \"#utility.yul\":6765:6858   */\n      tag_81\n      jump\t// in\n    tag_176:\n        /* \"#utility.yul\":6883:6885   */\n      0x20\n        /* \"#utility.yul\":6878:6881   */\n      dup3\n        /* \"#utility.yul\":6874:6886   */\n      add\n        /* \"#utility.yul\":6867:6886   */\n      swap1\n      pop\n        /* \"#utility.yul\":6526:6892   */\n      swap2\n      swap1\n      pop\n      jump\t// out\n        /* \"#utility.yul\":6898:7317   */\n    tag_35:\n        /* \"#utility.yul\":7064:7068   */\n      0x00\n        /* \"#utility.yul\":7102:7104   */\n      0x20\n        /* \"#utility.yul\":7091:7100   */\n      dup3\n        /* \"#utility.yul\":7087:7105   */\n      add\n        /* \"#utility.yul\":7079:7105   */\n      swap1\n      pop\n        /* \"#utility.yul\":7151:7160   */\n      dup2\n        /* \"#utility.yul\":7145:7149   */\n      dup2\n        /* \"#utility.yul\":7141:7161   */\n      sub\n        /* \"#utility.yul\":7137:7138   */\n      0x00\n        /* \"#utility.yul\":7126:7135   */\n      dup4\n        /* \"#utility.yul\":7122:7139   */\n      add\n        /* \"#utility.yul\":7115:7162   */\n      mstore\n        /* \"#utility.yul\":7179:7310   */\n      tag_178\n        /* \"#utility.yul\":7305:7309   */\n      dup2\n        /* \"#utility.yul\":7179:7310   */\n      tag_82\n      jump\t// in\n    tag_178:\n        /* \"#utility.yul\":7171:7310   */\n      swap1\n      pop\n        /* \"#utility.yul\":6898:7317   */\n      swap2\n      swap1\n      pop\n      jump\t// out\n        /* \"#utility.yul\":7323:7503   */\n    tag_83:\n        /* \"#utility.yul\":7371:7448   */\n      0x4e487b7100000000000000000000000000000000000000000000000000000000\n        /* \"#utility.yul\":7368:7369   */\n      0x00\n        /* \"#utility.yul\":7361:7449   */\n      mstore\n        /* \"#utility.yul\":7468:7472   */\n      0x11\n        /* \"#utility.yul\":7465:7466   */\n      0x04\n        /* \"#utility.yul\":7458:7473   */\n      mstore\n        /* \"#utility.yul\":7492:7496   */\n      0x24\n        /* \"#utility.yul\":7489:7490   */\n      0x00\n        /* \"#utility.yul\":7482:7497   */\n      revert\n        /* \"#utility.yul\":7509:7742   */\n    tag_37:\n        /* \"#utility.yul\":7548:7551   */\n      0x00\n        /* \"#utility.yul\":7571:7595   */\n      tag_181\n        /* \"#utility.yul\":7589:7594   */\n      dup3\n        /* \"#utility.yul\":7571:7595   */\n      tag_68\n      jump\t// in\n    tag_181:\n        /* \"#utility.yul\":7562:7595   */\n      swap2\n      pop\n        /* \"#utility.yul\":7617:7683   */\n      0xffffffffffffffffffffffffffffffffffffffffffffffffffffffffffffffff\n        /* \"#utility.yul\":7610:7615   */\n      dup3\n        /* \"#utility.yul\":7607:7684   */\n      sub\n        /* \"#utility.yul\":7604:7707   */\n      tag_182\n      jumpi\n        /* \"#utility.yul\":7687:7705   */\n      tag_183\n      tag_83\n      jump\t// in\n    tag_183:\n        /* \"#utility.yul\":7604:7707   */\n    tag_182:\n        /* \"#utility.yul\":7734:7735   */\n      0x01\n        /* \"#utility.yul\":7727:7732   */\n      dup3\n        /* \"#utility.yul\":7723:7736   */\n      add\n        /* \"#utility.yul\":7716:7736   */\n      swap1\n      pop\n        /* \"#utility.yul\":7509:7742   */\n      swap2\n      swap1\n      pop\n      jump\t// out\n        /* \"#utility.yul\":7748:7928   */\n    tag_84:\n        /* \"#utility.yul\":7796:7873   */\n      0x4e487b7100000000000000000000000000000000000000000000000000000000\n        /* \"#utility.yul\":7793:7794   */\n      0x00\n        /* \"#utility.yul\":7786:7874   */\n      mstore\n        /* \"#utility.yul\":7893:7897   */\n      0x22\n        /* \"#utility.yul\":7890:7891   */\n      0x04\n        /* \"#utility.yul\":7883:7898   */\n      mstore\n        /* \"#utility.yul\":7917:7921   */\n      0x24\n        /* \"#utility.yul\":7914:7915   */\n      0x00\n        /* \"#utility.yul\":7907:7922   */\n      revert\n        /* \"#utility.yul\":7934:8254   */\n    tag_43:\n        /* \"#utility.yul\":7978:7984   */\n      0x00\n        /* \"#utility.yul\":8015:8016   */\n      0x02\n        /* \"#utility.yul\":8009:8013   */\n      dup3\n        /* \"#utility.yul\":8005:8017   */\n      div\n        /* \"#utility.yul\":7995:8017   */\n      swap1\n      pop\n        /* \"#utility.yul\":8062:8063   */\n      0x01\n        /* \"#utility.yul\":8056:8060   */\n      dup3\n        /* \"#utility.yul\":8052:8064   */\n      and\n        /* \"#utility.yul\":8083:8101   */\n      dup1\n        /* \"#utility.yul\":8073:8154   */\n      tag_186\n      jumpi\n        /* \"#utility.yul\":8139:8143   */\n      0x7f\n        /* \"#utility.yul\":8131:8137   */\n      dup3\n        /* \"#utility.yul\":8127:8144   */\n      and\n        /* \"#utility.yul\":8117:8144   */\n      swap2\n      pop\n        /* \"#utility.yul\":8073:8154   */\n    tag_186:\n        /* \"#utility.yul\":8201:8203   */\n      0x20\n        /* \"#utility.yul\":8193:8199   */\n      dup3\n        /* \"#utility.yul\":8190:8204   */\n      lt\n        /* \"#utility.yul\":8170:8188   */\n      dup2\n        /* \"#utility.yul\":8167:8205   */\n      sub\n        /* \"#utility.yul\":8164:8248   */\n      tag_187\n      jumpi\n        /* \"#utility.yul\":8220:8238   */\n      tag_188\n      tag_84\n      jump\t// in\n    tag_188:\n        /* \"#utility.yul\":8164:8248   */\n    tag_187:\n        /* \"#utility.yul\":7985:8254   */\n      pop\n        /* \"#utility.yul\":7934:8254   */\n      swap2\n      swap1\n      pop\n      jump\t// out\n        /* \"#utility.yul\":8260:8401   */\n    tag_85:\n        /* \"#utility.yul\":8309:8313   */\n      0x00\n        /* \"#utility.yul\":8332:8335   */\n      dup2\n        /* \"#utility.yul\":8324:8335   */\n      swap1\n      pop\n        /* \"#utility.yul\":8355:8358   */\n      dup2\n        /* \"#utility.yul\":8352:8353   */\n      0x00\n        /* \"#utility.yul\":8345:8359   */\n      mstore\n        /* \"#utility.yul\":8389:8393   */\n      0x20\n        /* \"#utility.yul\":8386:8387   */\n      0x00\n        /* \"#utility.yul\":8376:8394   */\n      keccak256\n        /* \"#utility.yul\":8368:8394   */\n      swap1\n      pop\n        /* \"#utility.yul\":8260:8401   */\n      swap2\n      swap1\n      pop\n      jump\t// out\n        /* \"#utility.yul\":8407:8500   */\n    tag_86:\n        /* \"#utility.yul\":8444:8450   */\n      0x00\n        /* \"#utility.yul\":8491:8493   */\n      0x20\n        /* \"#utility.yul\":8486:8488   */\n      0x1f\n        /* \"#utility.yul\":8479:8484   */\n      dup4\n        /* \"#utility.yul\":8475:8489   */\n      add\n        /* \"#utility.yul\":8471:8494   */\n      div\n        /* \"#utility.yul\":8461:8494   */\n      swap1\n      pop\n        /* \"#utility.yul\":8407:8500   */\n      swap2\n      swap1\n      pop\n      jump\t// out\n        /* \"#utility.yul\":8506:8613   */\n    tag_87:\n        /* \"#utility.yul\":8550:8558   */\n      0x00\n        /* \"#utility.yul\":8600:8605   */\n      dup3\n        /* \"#utility.yul\":8594:8598   */\n      dup3\n        /* \"#utility.yul\":8590:8606   */\n      shl\n        /* \"#utility.yul\":8569:8606   */\n      swap1\n      pop\n        /* \"#utility.yul\":8506:8613   */\n      swap3\n      swap2\n      pop\n      pop\n      jump\t// out\n        /* \"#utility.yul\":8619:9012   */\n    tag_88:\n        /* \"#utility.yul\":8688:8694   */\n      0x00\n        /* \"#utility.yul\":8738:8739   */\n      0x08\n        /* \"#utility.yul\":8726:8736   */\n      dup4\n        /* \"#utility.yul\":8722:8740   */\n      mul\n        /* \"#utility.yul\":8761:8858   */\n      tag_193\n        /* \"#utility.yul\":8791:8857   */\n      0xffffffffffffffffffffffffffffffffffffffffffffffffffffffffffffffff\n        /* \"#utility.yul\":8780:8789   */\n      dup3\n        /* \"#utility.yul\":8761:8858   */\n      tag_87\n      jump\t// in\n    tag_193:\n        /* \"#utility.yul\":8879:8918   */\n      tag_194\n        /* \"#utility.yul\":8909:8917   */\n      dup7\n        /* \"#utility.yul\":8898:8907   */\n      dup4\n        /* \"#utility.yul\":8879:8918   */\n      tag_87\n      jump\t// in\n    tag_194:\n        /* \"#utility.yul\":8867:8918   */\n      swap6\n      pop\n        /* \"#utility.yul\":8951:8955   */\n      dup1\n        /* \"#utility.yul\":8947:8956   */\n      not\n        /* \"#utility.yul\":8940:8945   */\n      dup5\n        /* \"#utility.yul\":8936:8957   */\n      and\n        /* \"#utility.yul\":8927:8957   */\n      swap4\n      pop\n        /* \"#utility.yul\":9000:9004   */\n      dup1\n        /* \"#utility.yul\":8990:8998   */\n      dup7\n        /* \"#utility.yul\":8986:9005   */\n      and\n        /* \"#utility.yul\":8979:8984   */\n      dup5\n        /* \"#utility.yul\":8976:9006   */\n      or\n        /* \"#utility.yul\":8966:9006   */\n      swap3\n      pop\n        /* \"#utility.yul\":8695:9012   */\n      pop\n      pop\n        /* \"#utility.yul\":8619:9012   */\n      swap4\n      swap3\n      pop\n      pop\n      pop\n      jump\t// out\n        /* \"#utility.yul\":9018:9078   */\n    tag_89:\n        /* \"#utility.yul\":9046:9049   */\n      0x00\n        /* \"#utility.yul\":9067:9072   */\n      dup2\n        /* \"#utility.yul\":9060:9072   */\n      swap1\n      pop\n        /* \"#utility.yul\":9018:9078   */\n      swap2\n      swap1\n      pop\n      jump\t// out\n        /* \"#utility.yul\":9084:9226   */\n    tag_90:\n        /* \"#utility.yul\":9134:9143   */\n      0x00\n        /* \"#utility.yul\":9167:9220   */\n      tag_197\n        /* \"#utility.yul\":9185:9219   */\n      tag_198\n        /* \"#utility.yul\":9194:9218   */\n      tag_199\n        /* \"#utility.yul\":9212:9217   */\n      dup5\n        /* \"#utility.yul\":9194:9218   */\n      tag_68\n      jump\t// in\n    tag_199:\n        /* \"#utility.yul\":9185:9219   */\n      tag_89\n      jump\t// in\n    tag_198:\n        /* \"#utility.yul\":9167:9220   */\n      tag_68\n      jump\t// in\n    tag_197:\n        /* \"#utility.yul\":9154:9220   */\n      swap1\n      pop\n        /* \"#utility.yul\":9084:9226   */\n      swap2\n      swap1\n      pop\n      jump\t// out\n        /* \"#utility.yul\":9232:9307   */\n    tag_91:\n        /* \"#utility.yul\":9275:9278   */\n      0x00\n        /* \"#utility.yul\":9296:9301   */\n      dup2\n        /* \"#utility.yul\":9289:9301   */\n      swap1\n      pop\n        /* \"#utility.yul\":9232:9307   */\n      swap2\n      swap1\n      pop\n      jump\t// out\n        /* \"#utility.yul\":9313:9582   */\n    tag_92:\n        /* \"#utility.yul\":9423:9462   */\n      tag_202\n        /* \"#utility.yul\":9454:9461   */\n      dup4\n        /* \"#utility.yul\":9423:9462   */\n      tag_90\n      jump\t// in\n    tag_202:\n        /* \"#utility.yul\":9484:9575   */\n      tag_203\n        /* \"#utility.yul\":9533:9574   */\n      tag_204\n        /* \"#utility.yul\":9557:9573   */\n      dup3\n        /* \"#utility.yul\":9533:9574   */\n      tag_91\n      jump\t// in\n    tag_204:\n        /* \"#utility.yul\":9525:9531   */\n      dup5\n        /* \"#utility.yul\":9518:9522   */\n      dup5\n        /* \"#utility.yul\":9512:9523   */\n      sload\n        /* \"#utility.yul\":9484:9575   */\n      tag_88\n      jump\t// in\n    tag_203:\n        /* \"#utility.yul\":9478:9482   */\n      dup3\n        /* \"#utility.yul\":9471:9576   */\n      sstore\n        /* \"#utility.yul\":9389:9582   */\n      pop\n        /* \"#utility.yul\":9313:9582   */\n      pop\n      pop\n      pop\n      jump\t// out\n        /* \"#utility.yul\":9588:9661   */\n    tag_93:\n        /* \"#utility.yul\":9633:9636   */\n      0x00\n        /* \"#utility.yul\":9654:9655   */\n      0x00\n        /* \"#utility.yul\":9647:9655   */\n      swap1\n      pop\n        /* \"#utility.yul\":9588:9661   */\n      swap1\n      jump\t// out\n        /* \"#utility.yul\":9667:9856   */\n    tag_94:\n        /* \"#utility.yul\":9744:9776   */\n      tag_207\n      tag_93\n      jump\t// in\n    tag_207:\n        /* \"#utility.yul\":9785:9850   */\n      tag_208\n        /* \"#utility.yul\":9843:9849   */\n      dup2\n        /* \"#utility.yul\":9835:9841   */\n      dup5\n        /* \"#utility.yul\":9829:9833   */\n      dup5\n        /* \"#utility.yul\":9785:9850   */\n      tag_92\n      jump\t// in\n    tag_208:\n        /* \"#utility.yul\":9720:9856   */\n      pop\n        /* \"#utility.yul\":9667:9856   */\n      pop\n      pop\n      jump\t// out\n        /* \"#utility.yul\":9862:10048   */\n    tag_95:\n        /* \"#utility.yul\":9922:10042   */\n    tag_210:\n        /* \"#utility.yul\":9939:9942   */\n      dup2\n        /* \"#utility.yul\":9932:9937   */\n      dup2\n        /* \"#utility.yul\":9929:9943   */\n      lt\n        /* \"#utility.yul\":9922:10042   */\n      iszero\n      tag_212\n      jumpi\n        /* \"#utility.yul\":9993:10032   */\n      tag_213\n        /* \"#utility.yul\":10030:10031   */\n      0x00\n        /* \"#utility.yul\":10023:10028   */\n      dup3\n        /* \"#utility.yul\":9993:10032   */\n      tag_94\n      jump\t// in\n    tag_213:\n        /* \"#utility.yul\":9966:9967   */\n      0x01\n        /* \"#utility.yul\":9959:9964   */\n      dup2\n        /* \"#utility.yul\":9955:9968   */\n      add\n        /* \"#utility.yul\":9946:9968   */\n      swap1\n      pop\n        /* \"#utility.yul\":9922:10042   */\n      jump(tag_210)\n    tag_212:\n        /* \"#utility.yul\":9862:10048   */\n      pop\n      pop\n      jump\t// out\n        /* \"#utility.yul\":10054:10597   */\n    tag_96:\n        /* \"#utility.yul\":10155:10157   */\n      0x1f\n        /* \"#utility.yul\":10150:10153   */\n      dup3\n        /* \"#utility.yul\":10147:10158   */\n      gt\n        /* \"#utility.yul\":10144:10590   */\n      iszero\n      tag_215\n      jumpi\n        /* \"#utility.yul\":10189:10227   */\n      tag_216\n        /* \"#utility.yul\":10221:10226   */\n      dup2\n        /* \"#utility.yul\":10189:10227   */\n      tag_85\n      jump\t// in\n    tag_216:\n        /* \"#utility.yul\":10273:10302   */\n      tag_217\n        /* \"#utility.yul\":10291:10301   */\n      dup5\n        /* \"#utility.yul\":10273:10302   */\n      tag_86\n      jump\t// in\n    tag_217:\n        /* \"#utility.yul\":10263:10271   */\n      dup2\n        /* \"#utility.yul\":10259:10303   */\n      add\n        /* \"#utility.yul\":10456:10458   */\n      0x20\n        /* \"#utility.yul\":10444:10454   */\n      dup6\n        /* \"#utility.yul\":10441:10459   */\n      lt\n        /* \"#utility.yul\":10438:10487   */\n      iszero\n      tag_218\n      jumpi\n        /* \"#utility.yul\":10477:10485   */\n      dup2\n        /* \"#utility.yul\":10462:10485   */\n      swap1\n      pop\n        /* \"#utility.yul\":10438:10487   */\n    tag_218:\n        /* \"#utility.yul\":10500:10580   */\n      tag_219\n        /* \"#utility.yul\":10556:10578   */\n      tag_220\n        /* \"#utility.yul\":10574:10577   */\n      dup6\n        /* \"#utility.yul\":10556:10578   */\n      tag_86\n      jump\t// in\n    tag_220:\n        /* \"#utility.yul\":10546:10554   */\n      dup4\n        /* \"#utility.yul\":10542:10579   */\n      add\n        /* \"#utility.yul\":10529:10540   */\n      dup3\n        /* \"#utility.yul\":10500:10580   */\n      tag_95\n      jump\t// in\n    tag_219:\n        /* \"#utility.yul\":10159:10590   */\n      pop\n      pop\n        /* \"#utility.yul\":10144:10590   */\n    tag_215:\n        /* \"#utility.yul\":10054:10597   */\n      pop\n      pop\n      pop\n      jump\t// out\n        /* \"#utility.yul\":10603:10720   */\n    tag_97:\n        /* \"#utility.yul\":10657:10665   */\n      0x00\n        /* \"#utility.yul\":10707:10712   */\n      dup3\n        /* \"#utility.yul\":10701:10705   */\n      dup3\n        /* \"#utility.yul\":10697:10713   */\n      shr\n        /* \"#utility.yul\":10676:10713   */\n      swap1\n      pop\n        /* \"#utility.yul\":10603:10720   */\n      swap3\n      swap2\n      pop\n      pop\n      jump\t// out\n        /* \"#utility.yul\":10726:10895   */\n    tag_98:\n        /* \"#utility.yul\":10770:10776   */\n      0x00\n        /* \"#utility.yul\":10803:10854   */\n      tag_223\n        /* \"#utility.yul\":10851:10852   */\n      0x00\n        /* \"#utility.yul\":10847:10853   */\n      not\n        /* \"#utility.yul\":10839:10844   */\n      dup5\n        /* \"#utility.yul\":10836:10837   */\n      0x08\n        /* \"#utility.yul\":10832:10845   */\n      mul\n        /* \"#utility.yul\":10803:10854   */\n      tag_97\n      jump\t// in\n    tag_223:\n        /* \"#utility.yul\":10799:10855   */\n      not\n        /* \"#utility.yul\":10884:10888   */\n      dup1\n        /* \"#utility.yul\":10878:10882   */\n      dup4\n        /* \"#utility.yul\":10874:10889   */\n      and\n        /* \"#utility.yul\":10864:10889   */\n      swap2\n      pop\n        /* \"#utility.yul\":10777:10895   */\n      pop\n        /* \"#utility.yul\":10726:10895   */\n      swap3\n      swap2\n      pop\n      pop\n      jump\t// out\n        /* \"#utility.yul\":10900:11195   */\n    tag_99:\n        /* \"#utility.yul\":10976:10980   */\n      0x00\n        /* \"#utility.yul\":11122:11151   */\n      tag_225\n        /* \"#utility.yul\":11147:11150   */\n      dup4\n        /* \"#utility.yul\":11141:11145   */\n      dup4\n        /* \"#utility.yul\":11122:11151   */\n      tag_98\n      jump\t// in\n    tag_225:\n        /* \"#utility.yul\":11114:11151   */\n      swap2\n      pop\n        /* \"#utility.yul\":11184:11187   */\n      dup3\n        /* \"#utility.yul\":11181:11182   */\n      0x02\n        /* \"#utility.yul\":11177:11188   */\n      mul\n        /* \"#utility.yul\":11171:11175   */\n      dup3\n        /* \"#utility.yul\":11168:11189   */\n      or\n        /* \"#utility.yul\":11160:11189   */\n      swap1\n      pop\n        /* \"#utility.yul\":10900:11195   */\n      swap3\n      swap2\n      pop\n      pop\n      jump\t// out\n        /* \"#utility.yul\":11200:12595   */\n    tag_39:\n        /* \"#utility.yul\":11317:11354   */\n      tag_227\n        /* \"#utility.yul\":11350:11353   */\n      dup3\n        /* \"#utility.yul\":11317:11354   */\n      tag_72\n      jump\t// in\n    tag_227:\n        /* \"#utility.yul\":11419:11437   */\n      0xffffffffffffffff\n        /* \"#utility.yul\":11411:11417   */\n      dup2\n        /* \"#utility.yul\":11408:11438   */\n      gt\n        /* \"#utility.yul\":11405:11461   */\n      iszero\n      tag_228\n      jumpi\n        /* \"#utility.yul\":11441:11459   */\n      tag_229\n      tag_61\n      jump\t// in\n    tag_229:\n        /* \"#utility.yul\":11405:11461   */\n    tag_228:\n        /* \"#utility.yul\":11485:11523   */\n      tag_230\n        /* \"#utility.yul\":11517:11521   */\n      dup3\n        /* \"#utility.yul\":11511:11522   */\n      sload\n        /* \"#utility.yul\":11485:11523   */\n      tag_43\n      jump\t// in\n    tag_230:\n        /* \"#utility.yul\":11570:11637   */\n      tag_231\n        /* \"#utility.yul\":11630:11636   */\n      dup3\n        /* \"#utility.yul\":11622:11628   */\n      dup3\n        /* \"#utility.yul\":11616:11620   */\n      dup6\n        /* \"#utility.yul\":11570:11637   */\n      tag_96\n      jump\t// in\n    tag_231:\n        /* \"#utility.yul\":11664:11665   */\n      0x00\n        /* \"#utility.yul\":11688:11692   */\n      0x20\n        /* \"#utility.yul\":11675:11692   */\n      swap1\n      pop\n        /* \"#utility.yul\":11720:11722   */\n      0x1f\n        /* \"#utility.yul\":11712:11718   */\n      dup4\n        /* \"#utility.yul\":11709:11723   */\n      gt\n        /* \"#utility.yul\":11737:11738   */\n      0x01\n        /* \"#utility.yul\":11732:12350   */\n      dup2\n      eq\n      tag_233\n      jumpi\n        /* \"#utility.yul\":12394:12395   */\n      0x00\n        /* \"#utility.yul\":12411:12417   */\n      dup5\n        /* \"#utility.yul\":12408:12485   */\n      iszero\n      tag_234\n      jumpi\n        /* \"#utility.yul\":12460:12469   */\n      dup3\n        /* \"#utility.yul\":12455:12458   */\n      dup8\n        /* \"#utility.yul\":12451:12470   */\n      add\n        /* \"#utility.yul\":12445:12471   */\n      mload\n        /* \"#utility.yul\":12436:12471   */\n      swap1\n      pop\n        /* \"#utility.yul\":12408:12485   */\n    tag_234:\n        /* \"#utility.yul\":12511:12578   */\n      tag_235\n        /* \"#utility.yul\":12571:12577   */\n      dup6\n        /* \"#utility.yul\":12564:12569   */\n      dup3\n        /* \"#utility.yul\":12511:12578   */\n      tag_99\n      jump\t// in\n    tag_235:\n        /* \"#utility.yul\":12505:12509   */\n      dup7\n        /* \"#utility.yul\":12498:12579   */\n      sstore\n        /* \"#utility.yul\":12367:12589   */\n      pop\n        /* \"#utility.yul\":11702:12589   */\n      jump(tag_232)\n        /* \"#utility.yul\":11732:12350   */\n    tag_233:\n        /* \"#utility.yul\":11784:11788   */\n      0x1f\n        /* \"#utility.yul\":11780:11789   */\n      not\n        /* \"#utility.yul\":11772:11778   */\n      dup5\n        /* \"#utility.yul\":11768:11790   */\n      and\n        /* \"#utility.yul\":11818:11855   */\n      tag_236\n        /* \"#utility.yul\":11850:11854   */\n      dup7\n        /* \"#utility.yul\":11818:11855   */\n      tag_85\n      jump\t// in\n    tag_236:\n        /* \"#utility.yul\":11877:11878   */\n      0x00\n        /* \"#utility.yul\":11891:12099   */\n    tag_237:\n        /* \"#utility.yul\":11905:11912   */\n      dup3\n        /* \"#utility.yul\":11902:11903   */\n      dup2\n        /* \"#utility.yul\":11899:11913   */\n      lt\n        /* \"#utility.yul\":11891:12099   */\n      iszero\n      tag_239\n      jumpi\n        /* \"#utility.yul\":11984:11993   */\n      dup5\n        /* \"#utility.yul\":11979:11982   */\n      dup10\n        /* \"#utility.yul\":11975:11994   */\n      add\n        /* \"#utility.yul\":11969:11995   */\n      mload\n        /* \"#utility.yul\":11961:11967   */\n      dup3\n        /* \"#utility.yul\":11954:11996   */\n      sstore\n        /* \"#utility.yul\":12035:12036   */\n      0x01\n        /* \"#utility.yul\":12027:12033   */\n      dup3\n        /* \"#utility.yul\":12023:12037   */\n      add\n        /* \"#utility.yul\":12013:12037   */\n      swap2\n      pop\n        /* \"#utility.yul\":12082:12084   */\n      0x20\n        /* \"#utility.yul\":12071:12080   */\n      dup6\n        /* \"#utility.yul\":12067:12085   */\n      add\n        /* \"#utility.yul\":12054:12085   */\n      swap5\n      pop\n        /* \"#utility.yul\":11928:11932   */\n      0x20\n        /* \"#utility.yul\":11925:11926   */\n      dup2\n        /* \"#utility.yul\":11921:11933   */\n      add\n        /* \"#utility.yul\":11916:11933   */\n      swap1\n      pop\n        /* \"#utility.yul\":11891:12099   */\n      jump(tag_237)\n    tag_239:\n        /* \"#utility.yul\":12127:12133   */\n      dup7\n        /* \"#utility.yul\":12118:12125   */\n      dup4\n        /* \"#utility.yul\":12115:12134   */\n      lt\n        /* \"#utility.yul\":12112:12291   */\n      iszero\n      tag_240\n      jumpi\n        /* \"#utility.yul\":12185:12194   */\n      dup5\n        /* \"#utility.yul\":12180:12183   */\n      dup10\n        /* \"#utility.yul\":12176:12195   */\n      add\n        /* \"#utility.yul\":12170:12196   */\n      mload\n        /* \"#utility.yul\":12228:12276   */\n      tag_241\n        /* \"#utility.yul\":12270:12274   */\n      0x1f\n        /* \"#utility.yul\":12262:12268   */\n      dup10\n        /* \"#utility.yul\":12258:12275   */\n      and\n        /* \"#utility.yul\":12247:12256   */\n      dup3\n        /* \"#utility.yul\":12228:12276   */\n      tag_98\n      jump\t// in\n    tag_241:\n        /* \"#utility.yul\":12220:12226   */\n      dup4\n        /* \"#utility.yul\":12213:12277   */\n      sstore\n        /* \"#utility.yul\":12135:12291   */\n      pop\n        /* \"#utility.yul\":12112:12291   */\n    tag_240:\n        /* \"#utility.yul\":12337:12338   */\n      0x01\n        /* \"#utility.yul\":12333:12334   */\n      0x02\n        /* \"#utility.yul\":12325:12331   */\n      dup9\n        /* \"#utility.yul\":12321:12335   */\n      mul\n        /* \"#utility.yul\":12317:12339   */\n      add\n        /* \"#utility.yul\":12311:12315   */\n      dup9\n        /* \"#utility.yul\":12304:12340   */\n      sstore\n        /* \"#utility.yul\":11739:12350   */\n      pop\n      pop\n      pop\n        /* \"#utility.yul\":11702:12589   */\n    tag_232:\n      pop\n        /* \"#utility.yul\":11292:12595   */\n      pop\n      pop\n      pop\n        /* \"#utility.yul\":11200:12595   */\n      pop\n      pop\n      jump\t// out\n        /* \"#utility.yul\":12601:12914   */\n    tag_41:\n        /* \"#utility.yul\":12714:12718   */\n      0x00\n        /* \"#utility.yul\":12752:12754   */\n      0x20\n        /* \"#utility.yul\":12741:12750   */\n      dup3\n        /* \"#utility.yul\":12737:12755   */\n      add\n        /* \"#utility.yul\":12729:12755   */\n      swap1\n      pop\n        /* \"#utility.yul\":12801:12810   */\n      dup2\n        /* \"#utility.yul\":12795:12799   */\n      dup2\n        /* \"#utility.yul\":12791:12811   */\n      sub\n        /* \"#utility.yul\":12787:12788   */\n      0x00\n        /* \"#utility.yul\":12776:12785   */\n      dup4\n        /* \"#utility.yul\":12772:12789   */\n      add\n        /* \"#utility.yul\":12765:12812   */\n      mstore\n        /* \"#utility.yul\":12829:12907   */\n      tag_243\n        /* \"#utility.yul\":12902:12906   */\n      dup2\n        /* \"#utility.yul\":12893:12899   */\n      dup5\n        /* \"#utility.yul\":12829:12907   */\n      tag_75\n      jump\t// in\n    tag_243:\n        /* \"#utility.yul\":12821:12907   */\n      swap1\n      pop\n        /* \"#utility.yul\":12601:12914   */\n      swap3\n      swap2\n      pop\n      pop\n      jump\t// out\n\n    auxdata: 0xa26469706673582212207488673dde48b3c70d551262d50ac02af346ac282b51431906a0cc2c566d61b464736f6c634300081e0033\n}\n",
				"bytecode": {
					"linkReferences": {},
					"object": "6080604052348015600e575f5ffd5b50610c558061001c5f395ff3fe608060405234801561000f575f5ffd5b5060043610610055575f3560e01c80631c00e6d114610059578063246f8c441461008957806375543074146100bc578063d52c842f146100ef578063e5c298611461010d575b5f5ffd5b610073600480360381019061006e919061066e565b61013d565b60405161008091906106cd565b60405180910390f35b6100a3600480360381019061009e9190610710565b6102c4565b6040516100b394939291906107f4565b60405180910390f35b6100d660048036038101906100d19190610710565b6103a2565b6040516100e694939291906107f4565b60405180910390f35b6100f76104f2565b60405161010491906106cd565b60405180910390f35b61012760048036038101906101229190610710565b6104f7565b604051610134919061083e565b60405180910390f35b5f5f825111610181576040517f08c379a0000000000000000000000000000000000000000000000000000000008152600401610178906108a1565b60405180910390fd5b5f5f815480929190610192906108ec565b919050555060405180608001604052805f5481526020018381526020013373ffffffffffffffffffffffffffffffffffffffff1681526020016001151581525060015f5f5481526020019081526020015f205f820151815f015560208201518160010190816102019190610b30565b506040820151816002015f6101000a81548173ffffffffffffffffffffffffffffffffffffffff021916908373ffffffffffffffffffffffffffffffffffffffff16021790555060608201518160020160146101000a81548160ff0219169083151502179055509050503373ffffffffffffffffffffffffffffffffffffffff165f547f519e654e516c1f372832bc692d8598db4c2a3e684fd1fae5aa88a2b48e34e559846040516102b39190610bff565b60405180910390a35f549050919050565b6001602052805f5260405f205f91509050805f0154908060010180546102e990610960565b80601f016020809104026020016040519081016040528092919081815260200182805461031590610960565b80156103605780601f1061033757610100808354040283529160200191610360565b820191905f5260205f20905b81548152906001019060200180831161034357829003601f168201915b505050505090806002015f9054906101000a900473ffffffffffffffffffffffffffffffffffffffff16908060020160149054906101000a900460ff16905084565b5f60605f5f5f60015f8781526020019081526020015f206040518060800160405290815f82015481526020016001820180546103dd90610960565b80601f016020809104026020016040519081016040528092919081815260200182805461040990610960565b80156104545780601f1061042b57610100808354040283529160200191610454565b820191905f5260205f20905b81548152906001019060200180831161043757829003601f168201915b50505050508152602001600282015f9054906101000a900473ffffffffffffffffffffffffffffffffffffffff1673ffffffffffffffffffffffffffffffffffffffff1673ffffffffffffffffffffffffffffffffffffffff1681526020016002820160149054906101000a900460ff1615151515815250509050805f01518160200151826040015183606001519450945094509450509193509193565b5f5481565b5f60015f8381526020019081526020015f2060020160149054906101000a900460ff169050919050565b5f604051905090565b5f5ffd5b5f5ffd5b5f5ffd5b5f5ffd5b5f601f19601f8301169050919050565b7f4e487b71000000000000000000000000000000000000000000000000000000005f52604160045260245ffd5b6105808261053a565b810181811067ffffffffffffffff8211171561059f5761059e61054a565b5b80604052505050565b5f6105b1610521565b90506105bd8282610577565b919050565b5f67ffffffffffffffff8211156105dc576105db61054a565b5b6105e58261053a565b9050602081019050919050565b828183375f83830152505050565b5f61061261060d846105c2565b6105a8565b90508281526020810184848401111561062e5761062d610536565b5b6106398482856105f2565b509392505050565b5f82601f83011261065557610654610532565b5b8135610665848260208601610600565b91505092915050565b5f602082840312156106835761068261052a565b5b5f82013567ffffffffffffffff8111156106a05761069f61052e565b5b6106ac84828501610641565b91505092915050565b5f819050919050565b6106c7816106b5565b82525050565b5f6020820190506106e05f8301846106be565b92915050565b6106ef816106b5565b81146106f9575f5ffd5b50565b5f8135905061070a816106e6565b92915050565b5f602082840312156107255761072461052a565b5b5f610732848285016106fc565b91505092915050565b5f81519050919050565b5f82825260208201905092915050565b8281835e5f83830152505050565b5f61076d8261073b565b6107778185610745565b9350610787818560208601610755565b6107908161053a565b840191505092915050565b5f73ffffffffffffffffffffffffffffffffffffffff82169050919050565b5f6107c48261079b565b9050919050565b6107d4816107ba565b82525050565b5f8115159050919050565b6107ee816107da565b82525050565b5f6080820190506108075f8301876106be565b81810360208301526108198186610763565b905061082860408301856107cb565b61083560608301846107e5565b95945050505050565b5f6020820190506108515f8301846107e5565b92915050565b7f4f7267616e69736174696f6e206e616d652072657175697265640000000000005f82015250565b5f61088b601a83610745565b915061089682610857565b602082019050919050565b5f6020820190508181035f8301526108b88161087f565b9050919050565b7f4e487b71000000000000000000000000000000000000000000000000000000005f52601160045260245ffd5b5f6108f6826106b5565b91507fffffffffffffffffffffffffffffffffffffffffffffffffffffffffffffffff8203610928576109276108bf565b5b600182019050919050565b7f4e487b71000000000000000000000000000000000000000000000000000000005f52602260045260245ffd5b5f600282049050600182168061097757607f821691505b60208210810361098a57610989610933565b5b50919050565b5f819050815f5260205f209050919050565b5f6020601f8301049050919050565b5f82821b905092915050565b5f600883026109ec7fffffffffffffffffffffffffffffffffffffffffffffffffffffffffffffffff826109b1565b6109f686836109b1565b95508019841693508086168417925050509392505050565b5f819050919050565b5f610a31610a2c610a27846106b5565b610a0e565b6106b5565b9050919050565b5f819050919050565b610a4a83610a17565b610a5e610a5682610a38565b8484546109bd565b825550505050565b5f5f905090565b610a75610a66565b610a80818484610a41565b505050565b5b81811015610aa357610a985f82610a6d565b600181019050610a86565b5050565b601f821115610ae857610ab981610990565b610ac2846109a2565b81016020851015610ad1578190505b610ae5610add856109a2565b830182610a85565b50505b505050565b5f82821c905092915050565b5f610b085f1984600802610aed565b1980831691505092915050565b5f610b208383610af9565b9150826002028217905092915050565b610b398261073b565b67ffffffffffffffff811115610b5257610b5161054a565b5b610b5c8254610960565b610b67828285610aa7565b5f60209050601f831160018114610b98575f8415610b86578287015190505b610b908582610b15565b865550610bf7565b601f198416610ba686610990565b5f5b82811015610bcd57848901518255600182019150602085019450602081019050610ba8565b86831015610bea5784890151610be6601f891682610af9565b8355505b6001600288020188555050505b505050505050565b5f6020820190508181035f830152610c178184610763565b90509291505056fea26469706673582212207488673dde48b3c70d551262d50ac02af346ac282b51431906a0cc2c566d61b464736f6c634300081e0033",
					"opcodes": "PUSH1 0x80 PUSH1 0x40 MSTORE CALLVALUE DUP1 ISZERO PUSH1 0xE JUMPI PUSH0 PUSH0 REVERT JUMPDEST POP PUSH2 0xC55 DUP1 PUSH2 0x1C PUSH0 CODECOPY PUSH0 RETURN INVALID PUSH1 0x80 PUSH1 0x40 MSTORE CALLVALUE DUP1 ISZERO PUSH2 0xF JUMPI PUSH0 PUSH0 REVERT JUMPDEST POP PUSH1 0x4 CALLDATASIZE LT PUSH2 0x55 JUMPI PUSH0 CALLDATALOAD PUSH1 0xE0 SHR DUP1 PUSH4 0x1C00E6D1 EQ PUSH2 0x59 JUMPI DUP1 PUSH4 0x246F8C44 EQ PUSH2 0x89 JUMPI DUP1 PUSH4 0x75543074 EQ PUSH2 0xBC JUMPI DUP1 PUSH4 0xD52C842F EQ PUSH2 0xEF JUMPI DUP1 PUSH4 0xE5C29861 EQ PUSH2 0x10D JUMPI JUMPDEST PUSH0 PUSH0 REVERT JUMPDEST PUSH2 0x73 PUSH1 0x4 DUP1 CALLDATASIZE SUB DUP2 ADD SWAP1 PUSH2 0x6E SWAP2 SWAP1 PUSH2 0x66E JUMP JUMPDEST PUSH2 0x13D JUMP JUMPDEST PUSH1 0x40 MLOAD PUSH2 0x80 SWAP2 SWAP1 PUSH2 0x6CD JUMP JUMPDEST PUSH1 0x40 MLOAD DUP1 SWAP2 SUB SWAP1 RETURN JUMPDEST PUSH2 0xA3 PUSH1 0x4 DUP1 CALLDATASIZE SUB DUP2 ADD SWAP1 PUSH2 0x9E SWAP2 SWAP1 PUSH2 0x710 JUMP JUMPDEST PUSH2 0x2C4 JUMP JUMPDEST PUSH1 0x40 MLOAD PUSH2 0xB3 SWAP5 SWAP4 SWAP3 SWAP2 SWAP1 PUSH2 0x7F4 JUMP JUMPDEST PUSH1 0x40 MLOAD DUP1 SWAP2 SUB SWAP1 RETURN JUMPDEST PUSH2 0xD6 PUSH1 0x4 DUP1 CALLDATASIZE SUB DUP2 ADD SWAP1 PUSH2 0xD1 SWAP2 SWAP1 PUSH2 0x710 JUMP JUMPDEST PUSH2 0x3A2 JUMP JUMPDEST PUSH1 0x40 MLOAD PUSH2 0xE6 SWAP5 SWAP4 SWAP3 SWAP2 SWAP1 PUSH2 0x7F4 JUMP JUMPDEST PUSH1 0x40 MLOAD DUP1 SWAP2 SUB SWAP1 RETURN JUMPDEST PUSH2 0xF7 PUSH2 0x4F2 JUMP JUMPDEST PUSH1 0x40 MLOAD PUSH2 0x104 SWAP2 SWAP1 PUSH2 0x6CD JUMP JUMPDEST PUSH1 0x40 MLOAD DUP1 SWAP2 SUB SWAP1 RETURN JUMPDEST PUSH2 0x127 PUSH1 0x4 DUP1 CALLDATASIZE SUB DUP2 ADD SWAP1 PUSH2 0x122 SWAP2 SWAP1 PUSH2 0x710 JUMP JUMPDEST PUSH2 0x4F7 JUMP JUMPDEST PUSH1 0x40 MLOAD PUSH2 0x134 SWAP2 SWAP1 PUSH2 0x83E JUMP JUMPDEST PUSH1 0x40 MLOAD DUP1 SWAP2 SUB SWAP1 RETURN JUMPDEST PUSH0 PUSH0 DUP3 MLOAD GT PUSH2 0x181 JUMPI PUSH1 0x40 MLOAD PUSH32 0x8C379A000000000000000000000000000000000000000000000000000000000 DUP2 MSTORE PUSH1 0x4 ADD PUSH2 0x178 SWAP1 PUSH2 0x8A1 JUMP JUMPDEST PUSH1 0x40 MLOAD DUP1 SWAP2 SUB SWAP1 REVERT JUMPDEST PUSH0 PUSH0 DUP2 SLOAD DUP1 SWAP3 SWAP2 SWAP1 PUSH2 0x192 SWAP1 PUSH2 0x8EC JUMP JUMPDEST SWAP2 SWAP1 POP SSTORE POP PUSH1 0x40 MLOAD DUP1 PUSH1 0x80 ADD PUSH1 0x40 MSTORE DUP1 PUSH0 SLOAD DUP2 MSTORE PUSH1 0x20 ADD DUP4 DUP2 MSTORE PUSH1 0x20 ADD CALLER PUSH20 0xFFFFFFFFFFFFFFFFFFFFFFFFFFFFFFFFFFFFFFFF AND DUP2 MSTORE PUSH1 0x20 ADD PUSH1 0x1 ISZERO ISZERO DUP2 MSTORE POP PUSH1 0x1 PUSH0 PUSH0 SLOAD DUP2 MSTORE PUSH1 0x20 ADD SWAP1 DUP2 MSTORE PUSH1 0x20 ADD PUSH0 KECCAK256 PUSH0 DUP3 ADD MLOAD DUP2 PUSH0 ADD SSTORE PUSH1 0x20 DUP3 ADD MLOAD DUP2 PUSH1 0x1 ADD SWAP1 DUP2 PUSH2 0x201 SWAP2 SWAP1 PUSH2 0xB30 JUMP JUMPDEST POP PUSH1 0x40 DUP3 ADD MLOAD DUP2 PUSH1 0x2 ADD PUSH0 PUSH2 0x100 EXP DUP2 SLOAD DUP2 PUSH20 0xFFFFFFFFFFFFFFFFFFFFFFFFFFFFFFFFFFFFFFFF MUL NOT AND SWAP1 DUP4 PUSH20 0xFFFFFFFFFFFFFFFFFFFFFFFFFFFFFFFFFFFFFFFF AND MUL OR SWAP1 SSTORE POP PUSH1 0x60 DUP3 ADD MLOAD DUP2 PUSH1 0x2 ADD PUSH1 0x14 PUSH2 0x100 EXP DUP2 SLOAD DUP2 PUSH1 0xFF MUL NOT AND SWAP1 DUP4 ISZERO ISZERO MUL OR SWAP1 SSTORE POP SWAP1 POP POP CALLER PUSH20 0xFFFFFFFFFFFFFFFFFFFFFFFFFFFFFFFFFFFFFFFF AND PUSH0 SLOAD PUSH32 0x519E654E516C1F372832BC692D8598DB4C2A3E684FD1FAE5AA88A2B48E34E559 DUP5 PUSH1 0x40 MLOAD PUSH2 0x2B3 SWAP2 SWAP1 PUSH2 0xBFF JUMP JUMPDEST PUSH1 0x40 MLOAD DUP1 SWAP2 SUB SWAP1 LOG3 PUSH0 SLOAD SWAP1 POP SWAP2 SWAP1 POP JUMP JUMPDEST PUSH1 0x1 PUSH1 0x20 MSTORE DUP1 PUSH0 MSTORE PUSH1 0x40 PUSH0 KECCAK256 PUSH0 SWAP2 POP SWAP1 POP DUP1 PUSH0 ADD SLOAD SWAP1 DUP1 PUSH1 0x1 ADD DUP1 SLOAD PUSH2 0x2E9 SWAP1 PUSH2 0x960 JUMP JUMPDEST DUP1 PUSH1 0x1F ADD PUSH1 0x20 DUP1 SWAP2 DIV MUL PUSH1 0x20 ADD PUSH1 0x40 MLOAD SWAP1 DUP2 ADD PUSH1 0x40 MSTORE DUP1 SWAP3 SWAP2 SWAP1 DUP2 DUP2 MSTORE PUSH1 0x20 ADD DUP3 DUP1 SLOAD PUSH2 0x315 SWAP1 PUSH2 0x960 JUMP JUMPDEST DUP1 ISZERO PUSH2 0x360 JUMPI DUP1 PUSH1 0x1F LT PUSH2 0x337 JUMPI PUSH2 0x100 DUP1 DUP4 SLOAD DIV MUL DUP4 MSTORE SWAP2 PUSH1 0x20 ADD SWAP2 PUSH2 0x360 JUMP JUMPDEST DUP3 ADD SWAP2 SWAP1 PUSH0 MSTORE PUSH1 0x20 PUSH0 KECCAK256 SWAP1 JUMPDEST DUP2 SLOAD DUP2 MSTORE SWAP1 PUSH1 0x1 ADD SWAP1 PUSH1 0x20 ADD DUP1 DUP4 GT PUSH2 0x343 JUMPI DUP3 SWAP1 SUB PUSH1 0x1F AND DUP3 ADD SWAP2 JUMPDEST POP POP POP POP POP SWAP1 DUP1 PUSH1 0x2 ADD PUSH0 SWAP1 SLOAD SWAP1 PUSH2 0x100 EXP SWAP1 DIV PUSH20 0xFFFFFFFFFFFFFFFFFFFFFFFFFFFFFFFFFFFFFFFF AND SWAP1 DUP1 PUSH1 0x2 ADD PUSH1 0x14 SWAP1 SLOAD SWAP1 PUSH2 0x100 EXP SWAP1 DIV PUSH1 0xFF AND SWAP1 POP DUP5 JUMP JUMPDEST PUSH0 PUSH1 0x60 PUSH0 PUSH0 PUSH0 PUSH1 0x1 PUSH0 DUP8 DUP2 MSTORE PUSH1 0x20 ADD SWAP1 DUP2 MSTORE PUSH1 0x20 ADD PUSH0 KECCAK256 PUSH1 0x40 MLOAD DUP1 PUSH1 0x80 ADD PUSH1 0x40 MSTORE SWAP1 DUP2 PUSH0 DUP3 ADD SLOAD DUP2 MSTORE PUSH1 0x20 ADD PUSH1 0x1 DUP3 ADD DUP1 SLOAD PUSH2 0x3DD SWAP1 PUSH2 0x960 JUMP JUMPDEST DUP1 PUSH1 0x1F ADD PUSH1 0x20 DUP1 SWAP2 DIV MUL PUSH1 0x20 ADD PUSH1 0x40 MLOAD SWAP1 DUP2 ADD PUSH1 0x40 MSTORE DUP1 SWAP3 SWAP2 SWAP1 DUP2 DUP2 MSTORE PUSH1 0x20 ADD DUP3 DUP1 SLOAD PUSH2 0x409 SWAP1 PUSH2 0x960 JUMP JUMPDEST DUP1 ISZERO PUSH2 0x454 JUMPI DUP1 PUSH1 0x1F LT PUSH2 0x42B JUMPI PUSH2 0x100 DUP1 DUP4 SLOAD DIV MUL DUP4 MSTORE SWAP2 PUSH1 0x20 ADD SWAP2 PUSH2 0x454 JUMP JUMPDEST DUP3 ADD SWAP2 SWAP1 PUSH0 MSTORE PUSH1 0x20 PUSH0 KECCAK256 SWAP1 JUMPDEST DUP2 SLOAD DUP2 MSTORE SWAP1 PUSH1 0x1 ADD SWAP1 PUSH1 0x20 ADD DUP1 DUP4 GT PUSH2 0x437 JUMPI DUP3 SWAP1 SUB PUSH1 0x1F AND DUP3 ADD SWAP2 JUMPDEST POP POP POP POP POP DUP2 MSTORE PUSH1 0x20 ADD PUSH1 0x2 DUP3 ADD PUSH0 SWAP1 SLOAD SWAP1 PUSH2 0x100 EXP SWAP1 DIV PUSH20 0xFFFFFFFFFFFFFFFFFFFFFFFFFFFFFFFFFFFFFFFF AND PUSH20 0xFFFFFFFFFFFFFFFFFFFFFFFFFFFFFFFFFFFFFFFF AND PUSH20 0xFFFFFFFFFFFFFFFFFFFFFFFFFFFFFFFFFFFFFFFF AND DUP2 MSTORE PUSH1 0x20 ADD PUSH1 0x2 DUP3 ADD PUSH1 0x14 SWAP1 SLOAD SWAP1 PUSH2 0x100 EXP SWAP1 DIV PUSH1 0xFF AND ISZERO ISZERO ISZERO ISZERO DUP2 MSTORE POP POP SWAP1 POP DUP1 PUSH0 ADD MLOAD DUP2 PUSH1 0x20 ADD MLOAD DUP3 PUSH1 0x40 ADD MLOAD DUP4 PUSH1 0x60 ADD MLOAD SWAP5 POP SWAP5 POP SWAP5 POP SWAP5 POP POP SWAP2 SWAP4 POP SWAP2 SWAP4 JUMP JUMPDEST PUSH0 SLOAD DUP2 JUMP JUMPDEST PUSH0 PUSH1 0x1 PUSH0 DUP4 DUP2 MSTORE PUSH1 0x20 ADD SWAP1 DUP2 MSTORE PUSH1 0x20 ADD PUSH0 KECCAK256 PUSH1 0x2 ADD PUSH1 0x14 SWAP1 SLOAD SWAP1 PUSH2 0x100 EXP SWAP1 DIV PUSH1 0xFF AND SWAP1 POP SWAP2 SWAP1 POP JUMP JUMPDEST PUSH0 PUSH1 0x40 MLOAD SWAP1 POP SWAP1 JUMP JUMPDEST PUSH0 PUSH0 REVERT JUMPDEST PUSH0 PUSH0 REVERT JUMPDEST PUSH0 PUSH0 REVERT JUMPDEST PUSH0 PUSH0 REVERT JUMPDEST PUSH0 PUSH1 0x1F NOT PUSH1 0x1F DUP4 ADD AND SWAP1 POP SWAP2 SWAP1 POP JUMP JUMPDEST PUSH32 0x4E487B7100000000000000000000000000000000000000000000000000000000 PUSH0 MSTORE PUSH1 0x41 PUSH1 0x4 MSTORE PUSH1 0x24 PUSH0 REVERT JUMPDEST PUSH2 0x580 DUP3 PUSH2 0x53A JUMP JUMPDEST DUP2 ADD DUP2 DUP2 LT PUSH8 0xFFFFFFFFFFFFFFFF DUP3 GT OR ISZERO PUSH2 0x59F JUMPI PUSH2 0x59E PUSH2 0x54A JUMP JUMPDEST JUMPDEST DUP1 PUSH1 0x40 MSTORE POP POP POP JUMP JUMPDEST PUSH0 PUSH2 0x5B1 PUSH2 0x521 JUMP JUMPDEST SWAP1 POP PUSH2 0x5BD DUP3 DUP3 PUSH2 0x577 JUMP JUMPDEST SWAP2 SWAP1 POP JUMP JUMPDEST PUSH0 PUSH8 0xFFFFFFFFFFFFFFFF DUP3 GT ISZERO PUSH2 0x5DC JUMPI PUSH2 0x5DB PUSH2 0x54A JUMP JUMPDEST JUMPDEST PUSH2 0x5E5 DUP3 PUSH2 0x53A JUMP JUMPDEST SWAP1 POP PUSH1 0x20 DUP2 ADD SWAP1 POP SWAP2 SWAP1 POP JUMP JUMPDEST DUP3 DUP2 DUP4 CALLDATACOPY PUSH0 DUP4 DUP4 ADD MSTORE POP POP POP JUMP JUMPDEST PUSH0 PUSH2 0x612 PUSH2 0x60D DUP5 PUSH2 0x5C2 JUMP JUMPDEST PUSH2 0x5A8 JUMP JUMPDEST SWAP1 POP DUP3 DUP2 MSTORE PUSH1 0x20 DUP2 ADD DUP5 DUP5 DUP5 ADD GT ISZERO PUSH2 0x62E JUMPI PUSH2 0x62D PUSH2 0x536 JUMP JUMPDEST JUMPDEST PUSH2 0x639 DUP5 DUP3 DUP6 PUSH2 0x5F2 JUMP JUMPDEST POP SWAP4 SWAP3 POP POP POP JUMP JUMPDEST PUSH0 DUP3 PUSH1 0x1F DUP4 ADD SLT PUSH2 0x655 JUMPI PUSH2 0x654 PUSH2 0x532 JUMP JUMPDEST JUMPDEST DUP2 CALLDATALOAD PUSH2 0x665 DUP5 DUP3 PUSH1 0x20 DUP7 ADD PUSH2 0x600 JUMP JUMPDEST SWAP2 POP POP SWAP3 SWAP2 POP POP JUMP JUMPDEST PUSH0 PUSH1 0x20 DUP3 DUP5 SUB SLT ISZERO PUSH2 0x683 JUMPI PUSH2 0x682 PUSH2 0x52A JUMP JUMPDEST JUMPDEST PUSH0 DUP3 ADD CALLDATALOAD PUSH8 0xFFFFFFFFFFFFFFFF DUP2 GT ISZERO PUSH2 0x6A0 JUMPI PUSH2 0x69F PUSH2 0x52E JUMP JUMPDEST JUMPDEST PUSH2 0x6AC DUP5 DUP3 DUP6 ADD PUSH2 0x641 JUMP JUMPDEST SWAP2 POP POP SWAP3 SWAP2 POP POP JUMP JUMPDEST PUSH0 DUP2 SWAP1 POP SWAP2 SWAP1 POP JUMP JUMPDEST PUSH2 0x6C7 DUP2 PUSH2 0x6B5 JUMP JUMPDEST DUP3 MSTORE POP POP JUMP JUMPDEST PUSH0 PUSH1 0x20 DUP3 ADD SWAP1 POP PUSH2 0x6E0 PUSH0 DUP4 ADD DUP5 PUSH2 0x6BE JUMP JUMPDEST SWAP3 SWAP2 POP POP JUMP JUMPDEST PUSH2 0x6EF DUP2 PUSH2 0x6B5 JUMP JUMPDEST DUP2 EQ PUSH2 0x6F9 JUMPI PUSH0 PUSH0 REVERT JUMPDEST POP JUMP JUMPDEST PUSH0 DUP2 CALLDATALOAD SWAP1 POP PUSH2 0x70A DUP2 PUSH2 0x6E6 JUMP JUMPDEST SWAP3 SWAP2 POP POP JUMP JUMPDEST PUSH0 PUSH1 0x20 DUP3 DUP5 SUB SLT ISZERO PUSH2 0x725 JUMPI PUSH2 0x724 PUSH2 0x52A JUMP JUMPDEST JUMPDEST PUSH0 PUSH2 0x732 DUP5 DUP3 DUP6 ADD PUSH2 0x6FC JUMP JUMPDEST SWAP2 POP POP SWAP3 SWAP2 POP POP JUMP JUMPDEST PUSH0 DUP2 MLOAD SWAP1 POP SWAP2 SWAP1 POP JUMP JUMPDEST PUSH0 DUP3 DUP3 MSTORE PUSH1 0x20 DUP3 ADD SWAP1 POP SWAP3 SWAP2 POP POP JUMP JUMPDEST DUP3 DUP2 DUP4 MCOPY PUSH0 DUP4 DUP4 ADD MSTORE POP POP POP JUMP JUMPDEST PUSH0 PUSH2 0x76D DUP3 PUSH2 0x73B JUMP JUMPDEST PUSH2 0x777 DUP2 DUP6 PUSH2 0x745 JUMP JUMPDEST SWAP4 POP PUSH2 0x787 DUP2 DUP6 PUSH1 0x20 DUP7 ADD PUSH2 0x755 JUMP JUMPDEST PUSH2 0x790 DUP2 PUSH2 0x53A JUMP JUMPDEST DUP5 ADD SWAP2 POP POP SWAP3 SWAP2 POP POP JUMP JUMPDEST PUSH0 PUSH20 0xFFFFFFFFFFFFFFFFFFFFFFFFFFFFFFFFFFFFFFFF DUP3 AND SWAP1 POP SWAP2 SWAP1 POP JUMP JUMPDEST PUSH0 PUSH2 0x7C4 DUP3 PUSH2 0x79B JUMP JUMPDEST SWAP1 POP SWAP2 SWAP1 POP JUMP JUMPDEST PUSH2 0x7D4 DUP2 PUSH2 0x7BA JUMP JUMPDEST DUP3 MSTORE POP POP JUMP JUMPDEST PUSH0 DUP2 ISZERO ISZERO SWAP1 POP SWAP2 SWAP1 POP JUMP JUMPDEST PUSH2 0x7EE DUP2 PUSH2 0x7DA JUMP JUMPDEST DUP3 MSTORE POP POP JUMP JUMPDEST PUSH0 PUSH1 0x80 DUP3 ADD SWAP1 POP PUSH2 0x807 PUSH0 DUP4 ADD DUP8 PUSH2 0x6BE JUMP JUMPDEST DUP2 DUP2 SUB PUSH1 0x20 DUP4 ADD MSTORE PUSH2 0x819 DUP2 DUP7 PUSH2 0x763 JUMP JUMPDEST SWAP1 POP PUSH2 0x828 PUSH1 0x40 DUP4 ADD DUP6 PUSH2 0x7CB JUMP JUMPDEST PUSH2 0x835 PUSH1 0x60 DUP4 ADD DUP5 PUSH2 0x7E5 JUMP JUMPDEST SWAP6 SWAP5 POP POP POP POP POP JUMP JUMPDEST PUSH0 PUSH1 0x20 DUP3 ADD SWAP1 POP PUSH2 0x851 PUSH0 DUP4 ADD DUP5 PUSH2 0x7E5 JUMP JUMPDEST SWAP3 SWAP2 POP POP JUMP JUMPDEST PUSH32 0x4F7267616E69736174696F6E206E616D65207265717569726564000000000000 PUSH0 DUP3 ADD MSTORE POP JUMP JUMPDEST PUSH0 PUSH2 0x88B PUSH1 0x1A DUP4 PUSH2 0x745 JUMP JUMPDEST SWAP2 POP PUSH2 0x896 DUP3 PUSH2 0x857 JUMP JUMPDEST PUSH1 0x20 DUP3 ADD SWAP1 POP SWAP2 SWAP1 POP JUMP JUMPDEST PUSH0 PUSH1 0x20 DUP3 ADD SWAP1 POP DUP2 DUP2 SUB PUSH0 DUP4 ADD MSTORE PUSH2 0x8B8 DUP2 PUSH2 0x87F JUMP JUMPDEST SWAP1 POP SWAP2 SWAP1 POP JUMP JUMPDEST PUSH32 0x4E487B7100000000000000000000000000000000000000000000000000000000 PUSH0 MSTORE PUSH1 0x11 PUSH1 0x4 MSTORE PUSH1 0x24 PUSH0 REVERT JUMPDEST PUSH0 PUSH2 0x8F6 DUP3 PUSH2 0x6B5 JUMP JUMPDEST SWAP2 POP PUSH32 0xFFFFFFFFFFFFFFFFFFFFFFFFFFFFFFFFFFFFFFFFFFFFFFFFFFFFFFFFFFFFFFFF DUP3 SUB PUSH2 0x928 JUMPI PUSH2 0x927 PUSH2 0x8BF JUMP JUMPDEST JUMPDEST PUSH1 0x1 DUP3 ADD SWAP1 POP SWAP2 SWAP1 POP JUMP JUMPDEST PUSH32 0x4E487B7100000000000000000000000000000000000000000000000000000000 PUSH0 MSTORE PUSH1 0x22 PUSH1 0x4 MSTORE PUSH1 0x24 PUSH0 REVERT JUMPDEST PUSH0 PUSH1 0x2 DUP3 DIV SWAP1 POP PUSH1 0x1 DUP3 AND DUP1 PUSH2 0x977 JUMPI PUSH1 0x7F DUP3 AND SWAP2 POP JUMPDEST PUSH1 0x20 DUP3 LT DUP2 SUB PUSH2 0x98A JUMPI PUSH2 0x989 PUSH2 0x933 JUMP JUMPDEST JUMPDEST POP SWAP2 SWAP1 POP JUMP JUMPDEST PUSH0 DUP2 SWAP1 POP DUP2 PUSH0 MSTORE PUSH1 0x20 PUSH0 KECCAK256 SWAP1 POP SWAP2 SWAP1 POP JUMP JUMPDEST PUSH0 PUSH1 0x20 PUSH1 0x1F DUP4 ADD DIV SWAP1 POP SWAP2 SWAP1 POP JUMP JUMPDEST PUSH0 DUP3 DUP3 SHL SWAP1 POP SWAP3 SWAP2 POP POP JUMP JUMPDEST PUSH0 PUSH1 0x8 DUP4 MUL PUSH2 0x9EC PUSH32 0xFFFFFFFFFFFFFFFFFFFFFFFFFFFFFFFFFFFFFFFFFFFFFFFFFFFFFFFFFFFFFFFF DUP3 PUSH2 0x9B1 JUMP JUMPDEST PUSH2 0x9F6 DUP7 DUP4 PUSH2 0x9B1 JUMP JUMPDEST SWAP6 POP DUP1 NOT DUP5 AND SWAP4 POP DUP1 DUP7 AND DUP5 OR SWAP3 POP POP POP SWAP4 SWAP3 POP POP POP JUMP JUMPDEST PUSH0 DUP2 SWAP1 POP SWAP2 SWAP1 POP JUMP JUMPDEST PUSH0 PUSH2 0xA31 PUSH2 0xA2C PUSH2 0xA27 DUP5 PUSH2 0x6B5 JUMP JUMPDEST PUSH2 0xA0E JUMP JUMPDEST PUSH2 0x6B5 JUMP JUMPDEST SWAP1 POP SWAP2 SWAP1 POP JUMP JUMPDEST PUSH0 DUP2 SWAP1 POP SWAP2 SWAP1 POP JUMP JUMPDEST PUSH2 0xA4A DUP4 PUSH2 0xA17 JUMP JUMPDEST PUSH2 0xA5E PUSH2 0xA56 DUP3 PUSH2 0xA38 JUMP JUMPDEST DUP5 DUP5 SLOAD PUSH2 0x9BD JUMP JUMPDEST DUP3 SSTORE POP POP POP POP JUMP JUMPDEST PUSH0 PUSH0 SWAP1 POP SWAP1 JUMP JUMPDEST PUSH2 0xA75 PUSH2 0xA66 JUMP JUMPDEST PUSH2 0xA80 DUP2 DUP5 DUP5 PUSH2 0xA41 JUMP JUMPDEST POP POP POP JUMP JUMPDEST JUMPDEST DUP2 DUP2 LT ISZERO PUSH2 0xAA3 JUMPI PUSH2 0xA98 PUSH0 DUP3 PUSH2 0xA6D JUMP JUMPDEST PUSH1 0x1 DUP2 ADD SWAP1 POP PUSH2 0xA86 JUMP JUMPDEST POP POP JUMP JUMPDEST PUSH1 0x1F DUP3 GT ISZERO PUSH2 0xAE8 JUMPI PUSH2 0xAB9 DUP2 PUSH2 0x990 JUMP JUMPDEST PUSH2 0xAC2 DUP5 PUSH2 0x9A2 JUMP JUMPDEST DUP2 ADD PUSH1 0x20 DUP6 LT ISZERO PUSH2 0xAD1 JUMPI DUP2 SWAP1 POP JUMPDEST PUSH2 0xAE5 PUSH2 0xADD DUP6 PUSH2 0x9A2 JUMP JUMPDEST DUP4 ADD DUP3 PUSH2 0xA85 JUMP JUMPDEST POP POP JUMPDEST POP POP POP JUMP JUMPDEST PUSH0 DUP3 DUP3 SHR SWAP1 POP SWAP3 SWAP2 POP POP JUMP JUMPDEST PUSH0 PUSH2 0xB08 PUSH0 NOT DUP5 PUSH1 0x8 MUL PUSH2 0xAED JUMP JUMPDEST NOT DUP1 DUP4 AND SWAP2 POP POP SWAP3 SWAP2 POP POP JUMP JUMPDEST PUSH0 PUSH2 0xB20 DUP4 DUP4 PUSH2 0xAF9 JUMP JUMPDEST SWAP2 POP DUP3 PUSH1 0x2 MUL DUP3 OR SWAP1 POP SWAP3 SWAP2 POP POP JUMP JUMPDEST PUSH2 0xB39 DUP3 PUSH2 0x73B JUMP JUMPDEST PUSH8 0xFFFFFFFFFFFFFFFF DUP2 GT ISZERO PUSH2 0xB52 JUMPI PUSH2 0xB51 PUSH2 0x54A JUMP JUMPDEST JUMPDEST PUSH2 0xB5C DUP3 SLOAD PUSH2 0x960 JUMP JUMPDEST PUSH2 0xB67 DUP3 DUP3 DUP6 PUSH2 0xAA7 JUMP JUMPDEST PUSH0 PUSH1 0x20 SWAP1 POP PUSH1 0x1F DUP4 GT PUSH1 0x1 DUP2 EQ PUSH2 0xB98 JUMPI PUSH0 DUP5 ISZERO PUSH2 0xB86 JUMPI DUP3 DUP8 ADD MLOAD SWAP1 POP JUMPDEST PUSH2 0xB90 DUP6 DUP3 PUSH2 0xB15 JUMP JUMPDEST DUP7 SSTORE POP PUSH2 0xBF7 JUMP JUMPDEST PUSH1 0x1F NOT DUP5 AND PUSH2 0xBA6 DUP7 PUSH2 0x990 JUMP JUMPDEST PUSH0 JUMPDEST DUP3 DUP2 LT ISZERO PUSH2 0xBCD JUMPI DUP5 DUP10 ADD MLOAD DUP3 SSTORE PUSH1 0x1 DUP3 ADD SWAP2 POP PUSH1 0x20 DUP6 ADD SWAP5 POP PUSH1 0x20 DUP2 ADD SWAP1 POP PUSH2 0xBA8 JUMP JUMPDEST DUP7 DUP4 LT ISZERO PUSH2 0xBEA JUMPI DUP5 DUP10 ADD MLOAD PUSH2 0xBE6 PUSH1 0x1F DUP10 AND DUP3 PUSH2 0xAF9 JUMP JUMPDEST DUP4 SSTORE POP JUMPDEST PUSH1 0x1 PUSH1 0x2 DUP9 MUL ADD DUP9 SSTORE POP POP POP JUMPDEST POP POP POP POP POP POP JUMP JUMPDEST PUSH0 PUSH1 0x20 DUP3 ADD SWAP1 POP DUP2 DUP2 SUB PUSH0 DUP4 ADD MSTORE PUSH2 0xC17 DUP2 DUP5 PUSH2 0x763 JUMP JUMPDEST SWAP1 POP SWAP3 SWAP2 POP POP JUMP INVALID LOG2 PUSH5 0x6970667358 0x22 SLT KECCAK256 PUSH21 0x88673DDE48B3C70D551262D50AC02AF346AC282B51 NUMBER NOT MOD LOG0 0xCC 0x2C JUMP PUSH14 0x61B464736F6C634300081E003300 "
				},
				"gasEstimates": {
					"creation": {
						"codeDepositCost": "631400",
						"executionCost": "662",
						"totalCost": "632062"
					},
					"external": {
						"getOrganisation(uint256)": "infinite",
						"organisationCount()": "2468",
						"organisationExists(uint256)": "2933",
						"organisations(uint256)": "infinite",
						"registerOrganisation(string)": "infinite"
					}
				},
				"methodIdentifiers": {
					"getOrganisation(uint256)": "75543074",
					"organisationCount()": "d52c842f",
					"organisationExists(uint256)": "e5c29861",
					"organisations(uint256)": "246f8c44",
					"registerOrganisation(string)": "1c00e6d1"
				}
			},
			"storageLayout": {
				"storage": [
					{
						"astId": 12,
						"contract": "assessment3/OrganisationRegistry.sol:OrganisationRegistry",
						"label": "organisationCount",
						"offset": 0,
						"slot": "0",
						"type": "t_uint256"
					},
					{
						"astId": 17,
						"contract": "assessment3/OrganisationRegistry.sol:OrganisationRegistry",
						"label": "organisations",
						"offset": 0,
						"slot": "1",
						"type": "t_mapping(t_uint256,t_struct(Organisation)10_storage)"
					}
				],
				"types": {
					"t_address": {
						"encoding": "inplace",
						"label": "address",
						"numberOfBytes": "20"
					},
					"t_bool": {
						"encoding": "inplace",
						"label": "bool",
						"numberOfBytes": "1"
					},
					"t_mapping(t_uint256,t_struct(Organisation)10_storage)": {
						"encoding": "mapping",
						"key": "t_uint256",
						"label": "mapping(uint256 => struct OrganisationRegistry.Organisation)",
						"numberOfBytes": "32",
						"value": "t_struct(Organisation)10_storage"
					},
					"t_string_storage": {
						"encoding": "bytes",
						"label": "string",
						"numberOfBytes": "32"
					},
					"t_struct(Organisation)10_storage": {
						"encoding": "inplace",
						"label": "struct OrganisationRegistry.Organisation",
						"members": [
							{
								"astId": 3,
								"contract": "assessment3/OrganisationRegistry.sol:OrganisationRegistry",
								"label": "id",
								"offset": 0,
								"slot": "0",
								"type": "t_uint256"
							},
							{
								"astId": 5,
								"contract": "assessment3/OrganisationRegistry.sol:OrganisationRegistry",
								"label": "name",
								"offset": 0,
								"slot": "1",
								"type": "t_string_storage"
							},
							{
								"astId": 7,
								"contract": "assessment3/OrganisationRegistry.sol:OrganisationRegistry",
								"label": "owner",
								"offset": 0,
								"slot": "2",
								"type": "t_address"
							},
							{
								"astId": 9,
								"contract": "assessment3/OrganisationRegistry.sol:OrganisationRegistry",
								"label": "exists",
								"offset": 20,
								"slot": "2",
								"type": "t_bool"
							}
						],
						"numberOfBytes": "96"
					},
					"t_uint256": {
						"encoding": "inplace",
						"label": "uint256",
						"numberOfBytes": "32"
					}
				}
			},
			"userdoc": {
				"kind": "user",
				"methods": {},
				"version": 1
			}
		}
	}
}