{
	"data": {
		"bytecode": {
			"linkReferences": {},
			"object": "6080604052348015600e575f5ffd5b50335f5f6101000a81548173ffffffffffffffffffffffffffffffffffffffff021916908373ffffffffffffffffffffffffffffffffffffffff160217905550610c608061005b5f395ff3fe608060405234801561000f575f5ffd5b506004361061007b575f3560e01c8063985788081161005957806398578808146100e7578063ba82041814610117578063c040ebec14610148578063f195de97146101665761007b565b806318b8275a1461007f57806385fc469a1461009b5780638881a786146100cb575b5f5ffd5b610099600480360381019061009491906106a1565b610196565b005b6100b560048036038101906100b091906106a1565b610294565b6040516100c29190610700565b60405180910390f35b6100e560048036038101906100e09190610743565b6102f6565b005b61010160048036038101906100fc91906106a1565b610426565b60405161010e9190610700565b60405180910390f35b610131600480360381019061012c91906106a1565b61047e565b60405161013f9291906107cb565b60405180910390f35b6101506104cc565b60405161015d9190610700565b60405180910390f35b610180600480360381019061017b91906106a1565b6104d8565b60405161018d9190610700565b60405180910390f35b5f5f9054906101000a900473ffffffffffffffffffffffffffffffffffffffff1673ffffffffffffffffffffffffffffffffffffffff163373ffffffffffffffffffffffffffffffffffffffff16146101ed575f5ffd5b600181908060018154018082558091505060019003905f5260205f20015f90919091909150908161021e91906109f9565b505f6002826040516102309190610b10565b90815260200160405180910390205f018190555060016002826040516102569190610b10565b9081526020016040518091039020600201819055505f60028260405161027c9190610b10565b90815260200160405180910390206001018190555050565b5f5f6002836040516102a69190610b10565b90815260200160405180910390205f015490505f6002846040516102ca9190610b10565b90815260200160405180910390206001015490505f6102e9838361052f565b9050809350505050919050565b82825f6002836040516103099190610b10565b90815260200160405180910390206002015411801561034857505f6002826040516103349190610b10565b908152602001604051809103902060020154115b610350575f5ffd5b826002856040516103619190610b10565b90815260200160405180910390205f015f82825461037f9190610b53565b925050819055506002846040516103969190610b10565b90815260200160405180910390206001015f8154809291906103b790610b86565b9190505550836040516103ca9190610b10565b6040518091039020856040516103e09190610b10565b60405180910390207f4c02d6df5c57f1cbb0f1130350e6b7d1cdd139a05defba40af50398b022b2fe9856040516104179190610700565b60405180910390a35050505050565b5f815f6002826040516104399190610b10565b90815260200160405180910390206002015411610454575f5ffd5b6002836040516104649190610b10565b908152602001604051809103902060010154915050919050565b5f5f6002836040516104909190610b10565b90815260200160405180910390205f01546002846040516104b19190610b10565b90815260200160405180910390206001015491509150915091565b5f600180549050905090565b5f815f6002826040516104eb9190610b10565b90815260200160405180910390206002015411610506575f5ffd5b6002836040516105169190610b10565b90815260200160405180910390205f0154915050919050565b5f5f821161053b575f5ffd5b5f82846105489190610bfa565b90508091505092915050565b5f604051905090565b5f5ffd5b5f5ffd5b5f5ffd5b5f5ffd5b5f601f19601f8301169050919050565b7f4e487b71000000000000000000000000000000000000000000000000000000005f52604160045260245ffd5b6105b38261056d565b810181811067ffffffffffffffff821117156105d2576105d161057d565b5b80604052505050565b5f6105e4610554565b90506105f082826105aa565b919050565b5f67ffffffffffffffff82111561060f5761060e61057d565b5b6106188261056d565b9050602081019050919050565b828183375f83830152505050565b5f610645610640846105f5565b6105db565b90508281526020810184848401111561066157610660610569565b5b61066c848285610625565b509392505050565b5f82601f83011261068857610687610565565b5b8135610698848260208601610633565b91505092915050565b5f602082840312156106b6576106b561055d565b5b5f82013567ffffffffffffffff8111156106d3576106d2610561565b5b6106df84828501610674565b91505092915050565b5f819050919050565b6106fa816106e8565b82525050565b5f6020820190506107135f8301846106f1565b92915050565b610722816106e8565b811461072c575f5ffd5b50565b5f8135905061073d81610719565b92915050565b5f5f5f6060848603121561075a5761075961055d565b5b5f84013567ffffffffffffffff81111561077757610776610561565b5b61078386828701610674565b935050602084013567ffffffffffffffff8111156107a4576107a3610561565b5b6107b086828701610674565b92505060406107c18682870161072f565b9150509250925092565b5f6040820190506107de5f8301856106f1565b6107eb60208301846106f1565b9392505050565b5f81519050919050565b7f4e487b71000000000000000000000000000000000000000000000000000000005f52602260045260245ffd5b5f600282049050600182168061084057607f821691505b602082108103610853576108526107fc565b5b50919050565b5f819050815f5260205f209050919050565b5f6020601f8301049050919050565b5f82821b905092915050565b5f600883026108b57fffffffffffffffffffffffffffffffffffffffffffffffffffffffffffffffff8261087a565b6108bf868361087a565b95508019841693508086168417925050509392505050565b5f819050919050565b5f6108fa6108f56108f0846106e8565b6108d7565b6106e8565b9050919050565b5f819050919050565b610913836108e0565b61092761091f82610901565b848454610886565b825550505050565b5f5f905090565b61093e61092f565b61094981848461090a565b505050565b5b8181101561096c576109615f82610936565b60018101905061094f565b5050565b601f8211156109b15761098281610859565b61098b8461086b565b8101602085101561099a578190505b6109ae6109a68561086b565b83018261094e565b50505b505050565b5f82821c905092915050565b5f6109d15f19846008026109b6565b1980831691505092915050565b5f6109e983836109c2565b9150826002028217905092915050565b610a02826107f2565b67ffffffffffffffff811115610a1b57610a1a61057d565b5b610a258254610829565b610a30828285610970565b5f60209050601f831160018114610a61575f8415610a4f578287015190505b610a5985826109de565b865550610ac0565b601f198416610a6f86610859565b5f5b82811015610a9657848901518255600182019150602085019450602081019050610a71565b86831015610ab35784890151610aaf601f8916826109c2565b8355505b6001600288020188555050505b505050505050565b5f81905092915050565b8281835e5f83830152505050565b5f610aea826107f2565b610af48185610ac8565b9350610b04818560208601610ad2565b80840191505092915050565b5f610b1b8284610ae0565b915081905092915050565b7f4e487b71000000000000000000000000000000000000000000000000000000005f52601160045260245ffd5b5f610b5d826106e8565b9150610b68836106e8565b9250828201905080821115610b8057610b7f610b26565b5b92915050565b5f610b90826106e8565b91507fffffffffffffffffffffffffffffffffffffffffffffffffffffffffffffffff8203610bc257610bc1610b26565b5b600182019050919050565b7f4e487b71000000000000000000000000000000000000000000000000000000005f52601260045260245ffd5b5f610c04826106e8565b9150610c0f836106e8565b925082610c1f57610c1e610bcd565b5b82820490509291505056fea264697066735822122082d9e0e1c03281bd71c6aae3a89badaf4943b7c00d0a62e76bd52391fdeb553164736f6c634300081e0033",
			"opcodes": "PUSH1 0x80 PUSH1 0x40 MSTORE CALLVALUE DUP1 ISZERO PUSH1 0xE JUMPI PUSH0 PUSH0 REVERT JUMPDEST POP CALLER PUSH0 PUSH0 PUSH2 0x100 EXP DUP2 SLOAD DUP2 PUSH20 0xFFFFFFFFFFFFFFFFFFFFFFFFFFFFFFFFFFFFFFFF MUL NOT AND SWAP1 DUP4 PUSH20 0xFFFFFFFFFFFFFFFFFFFFFFFFFFFFFFFFFFFFFFFF AND MUL OR SWAP1 SSTORE POP PUSH2 0xC60 DUP1 PUSH2 0x5B PUSH0 CODECOPY PUSH0 RETURN INVALID PUSH1 0x80 PUSH1 0x40 MSTORE CALLVALUE DUP1 ISZERO PUSH2 0xF JUMPI PUSH0 PUSH0 REVERT JUMPDEST POP PUSH1 0x4 CALLDATASIZE LT PUSH2 0x7B JUMPI PUSH0 CALLDATALOAD PUSH1 0xE0 SHR DUP1 PUSH4 0x98578808 GT PUSH2 0x59 JUMPI DUP1 PUSH4 0x98578808 EQ PUSH2 0xE7 JUMPI DUP1 PUSH4 0xBA820418 EQ PUSH2 0x117 JUMPI DUP1 PUSH4 0xC040EBEC EQ PUSH2 0x148 JUMPI DUP1 PUSH4 0xF195DE97 EQ PUSH2 0x166 JUMPI PUSH2 0x7B JUMP JUMPDEST DUP1 PUSH4 0x18B8275A EQ PUSH2 0x7F JUMPI DUP1 PUSH4 0x85FC469A EQ PUSH2 0x9B JUMPI DUP1 PUSH4 0x8881A786 EQ PUSH2 0xCB JUMPI JUMPDEST PUSH0 PUSH0 REVERT JUMPDEST PUSH2 0x99 PUSH1 0x4 DUP1 CALLDATASIZE SUB DUP2 ADD SWAP1 PUSH2 0x94 SWAP2 SWAP1 PUSH2 0x6A1 JUMP JUMPDEST PUSH2 0x196 JUMP JUMPDEST STOP JUMPDEST PUSH2 0xB5 PUSH1 0x4 DUP1 CALLDATASIZE SUB DUP2 ADD SWAP1 PUSH2 0xB0 SWAP2 SWAP1 PUSH2 0x6A1 JUMP JUMPDEST PUSH2 0x294 JUMP JUMPDEST PUSH1 0x40 MLOAD PUSH2 0xC2 SWAP2 SWAP1 PUSH2 0x700 JUMP JUMPDEST PUSH1 0x40 MLOAD DUP1 SWAP2 SUB SWAP1 RETURN JUMPDEST PUSH2 0xE5 PUSH1 0x4 DUP1 CALLDATASIZE SUB DUP2 ADD SWAP1 PUSH2 0xE0 SWAP2 SWAP1 PUSH2 0x743 JUMP JUMPDEST PUSH2 0x2F6 JUMP JUMPDEST STOP JUMPDEST PUSH2 0x101 PUSH1 0x4 DUP1 CALLDATASIZE SUB DUP2 ADD SWAP1 PUSH2 0xFC SWAP2 SWAP1 PUSH2 0x6A1 JUMP JUMPDEST PUSH2 0x426 JUMP JUMPDEST PUSH1 0x40 MLOAD PUSH2 0x10E SWAP2 SWAP1 PUSH2 0x700 JUMP JUMPDEST PUSH1 0x40 MLOAD DUP1 SWAP2 SUB SWAP1 RETURN JUMPDEST PUSH2 0x131 PUSH1 0x4 DUP1 CALLDATASIZE SUB DUP2 ADD SWAP1 PUSH2 0x12C SWAP2 SWAP1 PUSH2 0x6A1 JUMP JUMPDEST PUSH2 0x47E JUMP JUMPDEST PUSH1 0x40 MLOAD PUSH2 0x13F SWAP3 SWAP2 SWAP1 PUSH2 0x7CB JUMP JUMPDEST PUSH1 0x40 MLOAD DUP1 SWAP2 SUB SWAP1 RETURN JUMPDEST PUSH2 0x150 PUSH2 0x4CC JUMP JUMPDEST PUSH1 0x40 MLOAD PUSH2 0x15D SWAP2 SWAP1 PUSH2 0x700 JUMP JUMPDEST PUSH1 0x40 MLOAD DUP1 SWAP2 SUB SWAP1 RETURN JUMPDEST PUSH2 0x180 PUSH1 0x4 DUP1 CALLDATASIZE SUB DUP2 ADD SWAP1 PUSH2 0x17B SWAP2 SWAP1 PUSH2 0x6A1 JUMP JUMPDEST PUSH2 0x4D8 JUMP JUMPDEST PUSH1 0x40 MLOAD PUSH2 0x18D SWAP2 SWAP1 PUSH2 0x700 JUMP JUMPDEST PUSH1 0x40 MLOAD DUP1 SWAP2 SUB SWAP1 RETURN JUMPDEST PUSH0 PUSH0 SWAP1 SLOAD SWAP1 PUSH2 0x100 EXP SWAP1 DIV PUSH20 0xFFFFFFFFFFFFFFFFFFFFFFFFFFFFFFFFFFFFFFFF AND PUSH20 0xFFFFFFFFFFFFFFFFFFFFFFFFFFFFFFFFFFFFFFFF AND CALLER PUSH20 0xFFFFFFFFFFFFFFFFFFFFFFFFFFFFFFFFFFFFFFFF AND EQ PUSH2 0x1ED JUMPI PUSH0 PUSH0 REVERT JUMPDEST PUSH1 0x1 DUP2 SWAP1 DUP1 PUSH1 0x1 DUP2 SLOAD ADD DUP1 DUP3 SSTORE DUP1 SWAP2 POP POP PUSH1 0x1 SWAP1 SUB SWAP1 PUSH0 MSTORE PUSH1 0x20 PUSH0 KECCAK256 ADD PUSH0 SWAP1 SWAP2 SWAP1 SWAP2 SWAP1 SWAP2 POP SWAP1 DUP2 PUSH2 0x21E SWAP2 SWAP1 PUSH2 0x9F9 JUMP JUMPDEST POP PUSH0 PUSH1 0x2 DUP3 PUSH1 0x40 MLOAD PUSH2 0x230 SWAP2 SWAP1 PUSH2 0xB10 JUMP JUMPDEST SWAP1 DUP2 MSTORE PUSH1 0x20 ADD PUSH1 0x40 MLOAD DUP1 SWAP2 SUB SWAP1 KECCAK256 PUSH0 ADD DUP2 SWAP1 SSTORE POP PUSH1 0x1 PUSH1 0x2 DUP3 PUSH1 0x40 MLOAD PUSH2 0x256 SWAP2 SWAP1 PUSH2 0xB10 JUMP JUMPDEST SWAP1 DUP2 MSTORE PUSH1 0x20 ADD PUSH1 0x40 MLOAD DUP1 SWAP2 SUB SWAP1 KECCAK256 PUSH1 0x2 ADD DUP2 SWAP1 SSTORE POP PUSH0 PUSH1 0x2 DUP3 PUSH1 0x40 MLOAD PUSH2 0x27C SWAP2 SWAP1 PUSH2 0xB10 JUMP JUMPDEST SWAP1 DUP2 MSTORE PUSH1 0x20 ADD PUSH1 0x40 MLOAD DUP1 SWAP2 SUB SWAP1 KECCAK256 PUSH1 0x1 ADD DUP2 SWAP1 SSTORE POP POP JUMP JUMPDEST PUSH0 PUSH0 PUSH1 0x2 DUP4 PUSH1 0x40 MLOAD PUSH2 0x2A6 SWAP2 SWAP1 PUSH2 0xB10 JUMP JUMPDEST SWAP1 DUP2 MSTORE PUSH1 0x20 ADD PUSH1 0x40 MLOAD DUP1 SWAP2 SUB SWAP1 KECCAK256 PUSH0 ADD SLOAD SWAP1 POP PUSH0 PUSH1 0x2 DUP5 PUSH1 0x40 MLOAD PUSH2 0x2CA SWAP2 SWAP1 PUSH2 0xB10 JUMP JUMPDEST SWAP1 DUP2 MSTORE PUSH1 0x20 ADD PUSH1 0x40 MLOAD DUP1 SWAP2 SUB SWAP1 KECCAK256 PUSH1 0x1 ADD SLOAD SWAP1 POP PUSH0 PUSH2 0x2E9 DUP4 DUP4 PUSH2 0x52F JUMP JUMPDEST SWAP1 POP DUP1 SWAP4 POP POP POP POP SWAP2 SWAP1 POP JUMP JUMPDEST DUP3 DUP3 PUSH0 PUSH1 0x2 DUP4 PUSH1 0x40 MLOAD PUSH2 0x309 SWAP2 SWAP1 PUSH2 0xB10 JUMP JUMPDEST SWAP1 DUP2 MSTORE PUSH1 0x20 ADD PUSH1 0x40 MLOAD DUP1 SWAP2 SUB SWAP1 KECCAK256 PUSH1 0x2 ADD SLOAD GT DUP1 ISZERO PUSH2 0x348 JUMPI POP PUSH0 PUSH1 0x2 DUP3 PUSH1 0x40 MLOAD PUSH2 0x334 SWAP2 SWAP1 PUSH2 0xB10 JUMP JUMPDEST SWAP1 DUP2 MSTORE PUSH1 0x20 ADD PUSH1 0x40 MLOAD DUP1 SWAP2 SUB SWAP1 KECCAK256 PUSH1 0x2 ADD SLOAD GT JUMPDEST PUSH2 0x350 JUMPI PUSH0 PUSH0 REVERT JUMPDEST DUP3 PUSH1 0x2 DUP6 PUSH1 0x40 MLOAD PUSH2 0x361 SWAP2 SWAP1 PUSH2 0xB10 JUMP JUMPDEST SWAP1 DUP2 MSTORE PUSH1 0x20 ADD PUSH1 0x40 MLOAD DUP1 SWAP2 SUB SWAP1 KECCAK256 PUSH0 ADD PUSH0 DUP3 DUP3 SLOAD PUSH2 0x37F SWAP2 SWAP1 PUSH2 0xB53 JUMP JUMPDEST SWAP3 POP POP DUP2 SWAP1 SSTORE POP PUSH1 0x2 DUP5 PUSH1 0x40 MLOAD PUSH2 0x396 SWAP2 SWAP1 PUSH2 0xB10 JUMP JUMPDEST SWAP1 DUP2 MSTORE PUSH1 0x20 ADD PUSH1 0x40 MLOAD DUP1 SWAP2 SUB SWAP1 KECCAK256 PUSH1 0x1 ADD PUSH0 DUP2 SLOAD DUP1 SWAP3 SWAP2 SWAP1 PUSH2 0x3B7 SWAP1 PUSH2 0xB86 JUMP JUMPDEST SWAP2 SWAP1 POP SSTORE POP DUP4 PUSH1 0x40 MLOAD PUSH2 0x3CA SWAP2 SWAP1 PUSH2 0xB10 JUMP JUMPDEST PUSH1 0x40 MLOAD DUP1 SWAP2 SUB SWAP1 KECCAK256 DUP6 PUSH1 0x40 MLOAD PUSH2 0x3E0 SWAP2 SWAP1 PUSH2 0xB10 JUMP JUMPDEST PUSH1 0x40 MLOAD DUP1 SWAP2 SUB SWAP1 KECCAK256 PUSH32 0x4C02D6DF5C57F1CBB0F1130350E6B7D1CDD139A05DEFBA40AF50398B022B2FE9 DUP6 PUSH1 0x40 MLOAD PUSH2 0x417 SWAP2 SWAP1 PUSH2 0x700 JUMP JUMPDEST PUSH1 0x40 MLOAD DUP1 SWAP2 SUB SWAP1 LOG3 POP POP POP POP POP JUMP JUMPDEST PUSH0 DUP2 PUSH0 PUSH1 0x2 DUP3 PUSH1 0x40 MLOAD PUSH2 0x439 SWAP2 SWAP1 PUSH2 0xB10 JUMP JUMPDEST SWAP1 DUP2 MSTORE PUSH1 0x20 ADD PUSH1 0x40 MLOAD DUP1 SWAP2 SUB SWAP1 KECCAK256 PUSH1 0x2 ADD SLOAD GT PUSH2 0x454 JUMPI PUSH0 PUSH0 REVERT JUMPDEST PUSH1 0x2 DUP4 PUSH1 0x40 MLOAD PUSH2 0x464 SWAP2 SWAP1 PUSH2 0xB10 JUMP JUMPDEST SWAP1 DUP2 MSTORE PUSH1 0x20 ADD PUSH1 0x40 MLOAD DUP1 SWAP2 SUB SWAP1 KECCAK256 PUSH1 0x1 ADD SLOAD SWAP2 POP POP SWAP2 SWAP1 POP JUMP JUMPDEST PUSH0 PUSH0 PUSH1 0x2 DUP4 PUSH1 0x40 MLOAD PUSH2 0x490 SWAP2 SWAP1 PUSH2 0xB10 JUMP JUMPDEST SWAP1 DUP2 MSTORE PUSH1 0x20 ADD PUSH1 0x40 MLOAD DUP1 SWAP2 SUB SWAP1 KECCAK256 PUSH0 ADD SLOAD PUSH1 0x2 DUP5 PUSH1 0x40 MLOAD PUSH2 0x4B1 SWAP2 SWAP1 PUSH2 0xB10 JUMP JUMPDEST SWAP1 DUP2 MSTORE PUSH1 0x20 ADD PUSH1 0x40 MLOAD DUP1 SWAP2 SUB SWAP1 KECCAK256 PUSH1 0x1 ADD SLOAD SWAP2 POP SWAP2 POP SWAP2 POP SWAP2 JUMP JUMPDEST PUSH0 PUSH1 0x1 DUP1 SLOAD SWAP1 POP SWAP1 POP SWAP1 JUMP JUMPDEST PUSH0 DUP2 PUSH0 PUSH1 0x2 DUP3 PUSH1 0x40 MLOAD PUSH2 0x4EB SWAP2 SWAP1 PUSH2 0xB10 JUMP JUMPDEST SWAP1 DUP2 MSTORE PUSH1 0x20 ADD PUSH1 0x40 MLOAD DUP1 SWAP2 SUB SWAP1 KECCAK256 PUSH1 0x2 ADD SLOAD GT PUSH2 0x506 JUMPI PUSH0 PUSH0 REVERT JUMPDEST PUSH1 0x2 DUP4 PUSH1 0x40 MLOAD PUSH2 0x516 SWAP2 SWAP1 PUSH2 0xB10 JUMP JUMPDEST SWAP1 DUP2 MSTORE PUSH1 0x20 ADD PUSH1 0x40 MLOAD DUP1 SWAP2 SUB SWAP1 KECCAK256 PUSH0 ADD SLOAD SWAP2 POP POP SWAP2 SWAP1 POP JUMP JUMPDEST PUSH0 PUSH0 DUP3 GT PUSH2 0x53B JUMPI PUSH0 PUSH0 REVERT JUMPDEST PUSH0 DUP3 DUP5 PUSH2 0x548 SWAP2 SWAP1 PUSH2 0xBFA JUMP JUMPDEST SWAP1 POP DUP1 SWAP2 POP POP SWAP3 SWAP2 POP POP JUMP JUMPDEST PUSH0 PUSH1 0x40 MLOAD SWAP1 POP SWAP1 JUMP JUMPDEST PUSH0 PUSH0 REVERT JUMPDEST PUSH0 PUSH0 REVERT JUMPDEST PUSH0 PUSH0 REVERT JUMPDEST PUSH0 PUSH0 REVERT JUMPDEST PUSH0 PUSH1 0x1F NOT PUSH1 0x1F DUP4 ADD AND SWAP1 POP SWAP2 SWAP1 POP JUMP JUMPDEST PUSH32 0x4E487B7100000000000000000000000000000000000000000000000000000000 PUSH0 MSTORE PUSH1 0x41 PUSH1 0x4 MSTORE PUSH1 0x24 PUSH0 REVERT JUMPDEST PUSH2 0x5B3 DUP3 PUSH2 0x56D JUMP JUMPDEST DUP2 ADD DUP2 DUP2 LT PUSH8 0xFFFFFFFFFFFFFFFF DUP3 GT OR ISZERO PUSH2 0x5D2 JUMPI PUSH2 0x5D1 PUSH2 0x57D JUMP JUMPDEST JUMPDEST DUP1 PUSH1 0x40 MSTORE POP POP POP JUMP JUMPDEST PUSH0 PUSH2 0x5E4 PUSH2 0x554 JUMP JUMPDEST SWAP1 POP PUSH2 0x5F0 DUP3 DUP3 PUSH2 0x5AA JUMP JUMPDEST SWAP2 SWAP1 POP JUMP JUMPDEST PUSH0 PUSH8 0xFFFFFFFFFFFFFFFF DUP3 GT ISZERO PUSH2 0x60F JUMPI PUSH2 0x60E PUSH2 0x57D JUMP JUMPDEST JUMPDEST PUSH2 0x618 DUP3 PUSH2 0x56D JUMP JUMPDEST SWAP1 POP PUSH1 0x20 DUP2 ADD SWAP1 POP SWAP2 SWAP1 POP JUMP JUMPDEST DUP3 DUP2 DUP4 CALLDATACOPY PUSH0 DUP4 DUP4 ADD MSTORE POP POP POP JUMP JUMPDEST PUSH0 PUSH2 0x645 PUSH2 0x640 DUP5 PUSH2 0x5F5 JUMP JUMPDEST PUSH2 0x5DB JUMP JUMPDEST SWAP1 POP DUP3 DUP2 MSTORE PUSH1 0x20 DUP2 ADD DUP5 DUP5 DUP5 ADD GT ISZERO PUSH2 0x661 JUMPI PUSH2 0x660 PUSH2 0x569 JUMP JUMPDEST JUMPDEST PUSH2 0x66C DUP5 DUP3 DUP6 PUSH2 0x625 JUMP JUMPDEST POP SWAP4 SWAP3 POP POP POP JUMP JUMPDEST PUSH0 DUP3 PUSH1 0x1F DUP4 ADD SLT PUSH2 0x688 JUMPI PUSH2 0x687 PUSH2 0x565 JUMP JUMPDEST JUMPDEST DUP2 CALLDATALOAD PUSH2 0x698 DUP5 DUP3 PUSH1 0x20 DUP7 ADD PUSH2 0x633 JUMP JUMPDEST SWAP2 POP POP SWAP3 SWAP2 POP POP JUMP JUMPDEST PUSH0 PUSH1 0x20 DUP3 DUP5 SUB SLT ISZERO PUSH2 0x6B6 JUMPI PUSH2 0x6B5 PUSH2 0x55D JUMP JUMPDEST JUMPDEST PUSH0 DUP3 ADD CALLDATALOAD PUSH8 0xFFFFFFFFFFFFFFFF DUP2 GT ISZERO PUSH2 0x6D3 JUMPI PUSH2 0x6D2 PUSH2 0x561 JUMP JUMPDEST JUMPDEST PUSH2 0x6DF DUP5 DUP3 DUP6 ADD PUSH2 0x674 JUMP JUMPDEST SWAP2 POP POP SWAP3 SWAP2 POP POP JUMP JUMPDEST PUSH0 DUP2 SWAP1 POP SWAP2 SWAP1 POP JUMP JUMPDEST PUSH2 0x6FA DUP2 PUSH2 0x6E8 JUMP JUMPDEST DUP3 MSTORE POP POP JUMP JUMPDEST PUSH0 PUSH1 0x20 DUP3 ADD SWAP1 POP PUSH2 0x713 PUSH0 DUP4 ADD DUP5 PUSH2 0x6F1 JUMP JUMPDEST SWAP3 SWAP2 POP POP JUMP JUMPDEST PUSH2 0x722 DUP2 PUSH2 0x6E8 JUMP JUMPDEST DUP2 EQ PUSH2 0x72C JUMPI PUSH0 PUSH0 REVERT JUMPDEST POP JUMP JUMPDEST PUSH0 DUP2 CALLDATALOAD SWAP1 POP PUSH2 0x73D DUP2 PUSH2 0x719 JUMP JUMPDEST SWAP3 SWAP2 POP POP JUMP JUMPDEST PUSH0 PUSH0 PUSH0 PUSH1 0x60 DUP5 DUP7 SUB SLT ISZERO PUSH2 0x75A JUMPI PUSH2 0x759 PUSH2 0x55D JUMP JUMPDEST JUMPDEST PUSH0 DUP5 ADD CALLDATALOAD PUSH8 0xFFFFFFFFFFFFFFFF DUP2 GT ISZERO PUSH2 0x777 JUMPI PUSH2 0x776 PUSH2 0x561 JUMP JUMPDEST JUMPDEST PUSH2 0x783 DUP7 DUP3 DUP8 ADD PUSH2 0x674 JUMP JUMPDEST SWAP4 POP POP PUSH1 0x20 DUP5 ADD CALLDATALOAD PUSH8 0xFFFFFFFFFFFFFFFF DUP2 GT ISZERO PUSH2 0x7A4 JUMPI PUSH2 0x7A3 PUSH2 0x561 JUMP JUMPDEST JUMPDEST PUSH2 0x7B0 DUP7 DUP3 DUP8 ADD PUSH2 0x674 JUMP JUMPDEST SWAP3 POP POP PUSH1 0x40 PUSH2 0x7C1 DUP7 DUP3 DUP8 ADD PUSH2 0x72F JUMP JUMPDEST SWAP2 POP POP SWAP3 POP SWAP3 POP SWAP3 JUMP JUMPDEST PUSH0 PUSH1 0x40 DUP3 ADD SWAP1 POP PUSH2 0x7DE PUSH0 DUP4 ADD DUP6 PUSH2 0x6F1 JUMP JUMPDEST PUSH2 0x7EB PUSH1 0x20 DUP4 ADD DUP5 PUSH2 0x6F1 JUMP JUMPDEST SWAP4 SWAP3 POP POP POP JUMP JUMPDEST PUSH0 DUP2 MLOAD SWAP1 POP SWAP2 SWAP1 POP JUMP JUMPDEST PUSH32 0x4E487B7100000000000000000000000000000000000000000000000000000000 PUSH0 MSTORE PUSH1 0x22 PUSH1 0x4 MSTORE PUSH1 0x24 PUSH0 REVERT JUMPDEST PUSH0 PUSH1 0x2 DUP3 DIV SWAP1 POP PUSH1 0x1 DUP3 AND DUP1 PUSH2 0x840 JUMPI PUSH1 0x7F DUP3 AND SWAP2 POP JUMPDEST PUSH1 0x20 DUP3 LT DUP2 SUB PUSH2 0x853 JUMPI PUSH2 0x852 PUSH2 0x7FC JUMP JUMPDEST JUMPDEST POP SWAP2 SWAP1 POP JUMP JUMPDEST PUSH0 DUP2 SWAP1 POP DUP2 PUSH0 MSTORE PUSH1 0x20 PUSH0 KECCAK256 SWAP1 POP SWAP2 SWAP1 POP JUMP JUMPDEST PUSH0 PUSH1 0x20 PUSH1 0x1F DUP4 ADD DIV SWAP1 POP SWAP2 SWAP1 POP JUMP JUMPDEST PUSH0 DUP3 DUP3 SHL SWAP1 POP SWAP3 SWAP2 POP POP JUMP JUMPDEST PUSH0 PUSH1 0x8 DUP4 MUL PUSH2 0x8B5 PUSH32 0xFFFFFFFFFFFFFFFFFFFFFFFFFFFFFFFFFFFFFFFFFFFFFFFFFFFFFFFFFFFFFFFF DUP3 PUSH2 0x87A JUMP JUMPDEST PUSH2 0x8BF DUP7 DUP4 PUSH2 0x87A JUMP JUMPDEST SWAP6 POP DUP1 NOT DUP5 AND SWAP4 POP DUP1 DUP7 AND DUP5 OR SWAP3 POP POP POP SWAP4 SWAP3 POP POP POP JUMP JUMPDEST PUSH0 DUP2 SWAP1 POP SWAP2 SWAP1 POP JUMP JUMPDEST PUSH0 PUSH2 0x8FA PUSH2 0x8F5 PUSH2 0x8F0 DUP5 PUSH2 0x6E8 JUMP JUMPDEST PUSH2 0x8D7 JUMP JUMPDEST PUSH2 0x6E8 JUMP JUMPDEST SWAP1 POP SWAP2 SWAP1 POP JUMP JUMPDEST PUSH0 DUP2 SWAP1 POP SWAP2 SWAP1 POP JUMP JUMPDEST PUSH2 0x913 DUP4 PUSH2 0x8E0 JUMP JUMPDEST PUSH2 0x927 PUSH2 0x91F DUP3 PUSH2 0x901 JUMP JUMPDEST DUP5 DUP5 SLOAD PUSH2 0x886 JUMP JUMPDEST DUP3 SSTORE POP POP POP POP JUMP JUMPDEST PUSH0 PUSH0 SWAP1 POP SWAP1 JUMP JUMPDEST PUSH2 0x93E PUSH2 0x92F JUMP JUMPDEST PUSH2 0x949 DUP2 DUP5 DUP5 PUSH2 0x90A JUMP JUMPDEST POP POP POP JUMP JUMPDEST JUMPDEST DUP2 DUP2 LT ISZERO PUSH2 0x96C JUMPI PUSH2 0x961 PUSH0 DUP3 PUSH2 0x936 JUMP JUMPDEST PUSH1 0x1 DUP2 ADD SWAP1 POP PUSH2 0x94F JUMP JUMPDEST POP POP JUMP JUMPDEST PUSH1 0x1F DUP3 GT ISZERO PUSH2 0x9B1 JUMPI PUSH2 0x982 DUP2 PUSH2 0x859 JUMP JUMPDEST PUSH2 0x98B DUP5 PUSH2 0x86B JUMP JUMPDEST DUP2 ADD PUSH1 0x20 DUP6 LT ISZERO PUSH2 0x99A JUMPI DUP2 SWAP1 POP JUMPDEST PUSH2 0x9AE PUSH2 0x9A6 DUP6 PUSH2 0x86B JUMP JUMPDEST DUP4 ADD DUP3 PUSH2 0x94E JUMP JUMPDEST POP POP JUMPDEST POP POP POP JUMP JUMPDEST PUSH0 DUP3 DUP3 SHR SWAP1 POP SWAP3 SWAP2 POP POP JUMP JUMPDEST PUSH0 PUSH2 0x9D1 PUSH0 NOT DUP5 PUSH1 0x8 MUL PUSH2 0x9B6 JUMP JUMPDEST NOT DUP1 DUP4 AND SWAP2 POP POP SWAP3 SWAP2 POP POP JUMP JUMPDEST PUSH0 PUSH2 0x9E9 DUP4 DUP4 PUSH2 0x9C2 JUMP JUMPDEST SWAP2 POP DUP3 PUSH1 0x2 MUL DUP3 OR SWAP1 POP SWAP3 SWAP2 POP POP JUMP JUMPDEST PUSH2 0xA02 DUP3 PUSH2 0x7F2 JUMP JUMPDEST PUSH8 0xFFFFFFFFFFFFFFFF DUP2 GT ISZERO PUSH2 0xA1B JUMPI PUSH2 0xA1A PUSH2 0x57D JUMP JUMPDEST JUMPDEST PUSH2 0xA25 DUP3 SLOAD PUSH2 0x829 JUMP JUMPDEST PUSH2 0xA30 DUP3 DUP3 DUP6 PUSH2 0x970 JUMP JUMPDEST PUSH0 PUSH1 0x20 SWAP1 POP PUSH1 0x1F DUP4 GT PUSH1 0x1 DUP2 EQ PUSH2 0xA61 JUMPI PUSH0 DUP5 ISZERO PUSH2 0xA4F JUMPI DUP3 DUP8 ADD MLOAD SWAP1 POP JUMPDEST PUSH2 0xA59 DUP6 DUP3 PUSH2 0x9DE JUMP JUMPDEST DUP7 SSTORE POP PUSH2 0xAC0 JUMP JUMPDEST PUSH1 0x1F NOT DUP5 AND PUSH2 0xA6F DUP7 PUSH2 0x859 JUMP JUMPDEST PUSH0 JUMPDEST DUP3 DUP2 LT ISZERO PUSH2 0xA96 JUMPI DUP5 DUP10 ADD MLOAD DUP3 SSTORE PUSH1 0x1 DUP3 ADD SWAP2 POP PUSH1 0x20 DUP6 ADD SWAP5 POP PUSH1 0x20 DUP2 ADD SWAP1 POP PUSH2 0xA71 JUMP JUMPDEST DUP7 DUP4 LT ISZERO PUSH2 0xAB3 JUMPI DUP5 DUP10 ADD MLOAD PUSH2 0xAAF PUSH1 0x1F DUP10 AND DUP3 PUSH2 0x9C2 JUMP JUMPDEST DUP4 SSTORE POP JUMPDEST PUSH1 0x1 PUSH1 0x2 DUP9 MUL ADD DUP9 SSTORE POP POP POP JUMPDEST POP POP POP POP POP POP JUMP JUMPDEST PUSH0 DUP2 SWAP1 POP SWAP3 SWAP2 POP POP JUMP JUMPDEST DUP3 DUP2 DUP4 MCOPY PUSH0 DUP4 DUP4 ADD MSTORE POP POP POP JUMP JUMPDEST PUSH0 PUSH2 0xAEA DUP3 PUSH2 0x7F2 JUMP JUMPDEST PUSH2 0xAF4 DUP2 DUP6 PUSH2 0xAC8 JUMP JUMPDEST SWAP4 POP PUSH2 0xB04 DUP2 DUP6 PUSH1 0x20 DUP7 ADD PUSH2 0xAD2 JUMP JUMPDEST DUP1 DUP5 ADD SWAP2 POP POP SWAP3 SWAP2 POP POP JUMP JUMPDEST PUSH0 PUSH2 0xB1B DUP3 DUP5 PUSH2 0xAE0 JUMP JUMPDEST SWAP2 POP DUP2 SWAP1 POP SWAP3 SWAP2 POP POP JUMP JUMPDEST PUSH32 0x4E487B7100000000000000000000000000000000000000000000000000000000 PUSH0 MSTORE PUSH1 0x11 PUSH1 0x4 MSTORE PUSH1 0x24 PUSH0 REVERT JUMPDEST PUSH0 PUSH2 0xB5D DUP3 PUSH2 0x6E8 JUMP JUMPDEST SWAP2 POP PUSH2 0xB68 DUP4 PUSH2 0x6E8 JUMP JUMPDEST SWAP3 POP DUP3 DUP3 ADD SWAP1 POP DUP1 DUP3 GT ISZERO PUSH2 0xB80 JUMPI PUSH2 0xB7F PUSH2 0xB26 JUMP JUMPDEST JUMPDEST SWAP3 SWAP2 POP POP JUMP JUMPDEST PUSH0 PUSH2 0xB90 DUP3 PUSH2 0x6E8 JUMP JUMPDEST SWAP2 POP PUSH32 0xFFFFFFFFFFFFFFFFFFFFFFFFFFFFFFFFFFFFFFFFFFFFFFFFFFFFFFFFFFFFFFFF DUP3 SUB PUSH2 0xBC2 JUMPI PUSH2 0xBC1 PUSH2 0xB26 JUMP JUMPDEST JUMPDEST PUSH1 0x1 DUP3 ADD SWAP1 POP SWAP2 SWAP1 POP JUMP JUMPDEST PUSH32 0x4E487B7100000000000000000000000000000000000000000000000000000000 PUSH0 MSTORE PUSH1 0x12 PUSH1 0x4 MSTORE PUSH1 0x24 PUSH0 REVERT JUMPDEST PUSH0 PUSH2 0xC04 DUP3 PUSH2 0x6E8 JUMP JUMPDEST SWAP2 POP PUSH2 0xC0F DUP4 PUSH2 0x6E8 JUMP JUMPDEST SWAP3 POP DUP3 PUSH2 0xC1F JUMPI PUSH2 0xC1E PUSH2 0xBCD JUMP JUMPDEST JUMPDEST DUP3 DUP3 DIV SWAP1 POP SWAP3 SWAP2 POP POP JUMP INVALID LOG2 PUSH5 0x6970667358 0x22 SLT KECCAK256 DUP3 0xD9 RJUMP 0xE1C0 ORIGIN DUP2 0xBD PUSH18 0xC6AAE3A89BADAF4943B7C00D0A62E76BD523 SWAP2 REVERT 0xEB SSTORE BALANCE PUSH5 0x736F6C6343 STOP ADDMOD 0x1E STOP CALLER "
		},
		"gasEstimates": {
			"creation": {
				"codeDepositCost": "633600",
				"executionCost": "24926",
				"totalCost": "658526"
			},
			"external": {
				"addRating(string,string,uint256)": "infinite",
				"addUser(string)": "infinite",
				"getIntegerRating(string)": "infinite",
				"getRatingParameters(string)": "infinite",
				"getUserRating(string)": "infinite",
				"getUserSize()": "2484",
				"getUserTimesVoted(string)": "infinite"
			},
			"internal": {
				"div(uint256,uint256)": "infinite"
			}
		},
		"methodIdentifiers": {
			"addRating(string,string,uint256)": "8881a786",
			"addUser(string)": "18b8275a",
			"getIntegerRating(string)": "85fc469a",
			"getRatingParameters(string)": "ba820418",
			"getUserRating(string)": "f195de97",
			"getUserSize()": "c040ebec",
			"getUserTimesVoted(string)": "98578808"
		}
	},
	"abi": [
		{
			"inputs": [],
			"stateMutability": "nonpayable",
			"type": "constructor"
		},
		{
			"anonymous": false,
			"inputs": [
				{
					"indexed": true,
					"internalType": "string",
					"name": "rating_from",
					"type": "string"
				},
				{
					"indexed": true,
					"internalType": "string",
					"name": "rating_to",
					"type": "string"
				},
				{
					"indexed": false,
					"internalType": "uint256",
					"name": "rating",
					"type": "uint256"
				}
			],
			"name": "RatingActivity",
			"type": "event"
		},
		{
			"inputs": [
				{
					"internalType": "string",
					"name": "_ratingFrom",
					"type": "string"
				},
				{
					"internalType": "string",
					"name": "_userRated",
					"type": "string"
				},
				{
					"internalType": "uint256",
					"name": "data",
					"type": "uint256"
				}
			],
			"name": "addRating",
			"outputs": [],
			"stateMutability": "nonpayable",
			"type": "function"
		},
		{
			"inputs": [
				{
					"internalType": "string",
					"name": "_username",
					"type": "string"
				}
			],
			"name": "addUser",
			"outputs": [],
			"stateMutability": "nonpayable",
			"type": "function"
		},
		{
			"inputs": [
				{
					"internalType": "string",
					"name": "_userRated",
					"type": "string"
				}
			],
			"name": "getIntegerRating",
			"outputs": [
				{
					"internalType": "uint256",
					"name": "",
					"type": "uint256"
				}
			],
			"stateMutability": "view",
			"type": "function"
		},
		{
			"inputs": [
				{
					"internalType": "string",
					"name": "_userRated",
					"type": "string"
				}
			],
			"name": "getRatingParameters",
			"outputs": [
				{
					"internalType": "uint256",
					"name": "",
					"type": "uint256"
				},
				{
					"internalType": "uint256",
					"name": "",
					"type": "uint256"
				}
			],
			"stateMutability": "view",
			"type": "function"
		},
		{
			"inputs": [
				{
					"internalType": "string",
					"name": "_username",
					"type": "string"
				}
			],
			"name": "getUserRating",
			"outputs": [
				{
					"internalType": "uint256",
					"name": "",
					"type": "uint256"
				}
			],
			"stateMutability": "view",
			"type": "function"
		},
		{
			"inputs": [],
			"name": "getUserSize",
			"outputs": [
				{
					"internalType": "uint256",
					"name": "",
					"type": "uint256"
				}
			],
			"stateMutability": "view",
			"type": "function"
		},
		{
			"inputs": [
				{
					"internalType": "string",
					"name": "_username",
					"type": "string"
				}
			],
			"name": "getUserTimesVoted",
			"outputs": [
				{
					"internalType": "uint256",
					"name": "",
					"type": "uint256"
				}
			],
			"stateMutability": "view",
			"type": "function"
		}
	]
}